{
  "_format": "hh-sol-artifact-1",
  "contractName": "TEMPL",
  "sourceName": "contracts/TEMPL.sol",
  "abi": [
    {
      "inputs": [
        {
          "internalType": "address",
          "name": "_priest",
          "type": "address"
        },
        {
          "internalType": "address",
          "name": "_protocolFeeRecipient",
          "type": "address"
        },
        {
          "internalType": "address",
          "name": "_token",
          "type": "address"
        },
        {
          "internalType": "uint256",
          "name": "_entryFee",
          "type": "uint256"
        },
        {
          "internalType": "uint256",
          "name": "_burnPercent",
          "type": "uint256"
        },
        {
          "internalType": "uint256",
          "name": "_treasuryPercent",
          "type": "uint256"
        },
        {
          "internalType": "uint256",
          "name": "_memberPoolPercent",
          "type": "uint256"
        },
        {
          "internalType": "uint256",
          "name": "_protocolPercent",
          "type": "uint256"
        },
        {
          "internalType": "uint256",
          "name": "_quorumPercent",
          "type": "uint256"
        },
        {
          "internalType": "uint256",
          "name": "_executionDelay",
          "type": "uint256"
        },
        {
          "internalType": "address",
          "name": "_burnAddress",
          "type": "address"
        },
        {
          "internalType": "bool",
          "name": "_priestIsDictator",
          "type": "bool"
        },
        {
          "internalType": "uint256",
          "name": "_maxMembers",
          "type": "uint256"
        },
        {
          "internalType": "string",
          "name": "_homeLink",
          "type": "string"
        },
        {
          "components": [
            {
              "components": [
                {
                  "internalType": "enum CurveStyle",
                  "name": "style",
                  "type": "uint8"
                },
                {
                  "internalType": "uint32",
                  "name": "rateBps",
                  "type": "uint32"
                }
              ],
              "internalType": "struct CurveSegment",
              "name": "primary",
              "type": "tuple"
            }
          ],
          "internalType": "struct CurveConfig",
          "name": "_curve",
          "type": "tuple"
        }
      ],
      "stateMutability": "nonpayable",
      "type": "constructor"
    },
    {
      "inputs": [],
      "name": "ActiveProposalExists",
      "type": "error"
    },
    {
      "inputs": [],
      "name": "AlreadyExecuted",
      "type": "error"
    },
    {
      "inputs": [],
      "name": "AmountZero",
      "type": "error"
    },
    {
      "inputs": [],
      "name": "DictatorshipEnabled",
      "type": "error"
    },
    {
      "inputs": [],
      "name": "DictatorshipUnchanged",
      "type": "error"
    },
    {
      "inputs": [],
      "name": "EntryFeeTooSmall",
      "type": "error"
    },
    {
      "inputs": [],
      "name": "ExecutionDelayActive",
      "type": "error"
    },
    {
      "inputs": [],
      "name": "ExternalRewardLimitReached",
      "type": "error"
    },
    {
      "inputs": [],
      "name": "ExternalRewardsNotSettled",
      "type": "error"
    },
    {
      "inputs": [],
      "name": "InsufficientBalance",
      "type": "error"
    },
    {
      "inputs": [],
      "name": "InsufficientPoolBalance",
      "type": "error"
    },
    {
      "inputs": [],
      "name": "InsufficientTreasuryBalance",
      "type": "error"
    },
    {
      "inputs": [],
      "name": "InvalidCallData",
      "type": "error"
    },
    {
      "inputs": [],
      "name": "InvalidCurveConfig",
      "type": "error"
    },
    {
      "inputs": [],
      "name": "InvalidEntryFee",
      "type": "error"
    },
    {
      "inputs": [],
      "name": "InvalidPercentage",
      "type": "error"
    },
    {
      "inputs": [],
      "name": "InvalidPercentageSplit",
      "type": "error"
    },
    {
      "inputs": [],
      "name": "InvalidProposal",
      "type": "error"
    },
    {
      "inputs": [],
      "name": "InvalidRecipient",
      "type": "error"
    },
    {
      "inputs": [],
      "name": "InvalidSender",
      "type": "error"
    },
    {
      "inputs": [],
      "name": "JoinIntakePaused",
      "type": "error"
    },
    {
      "inputs": [],
      "name": "JoinedAfterProposal",
      "type": "error"
    },
    {
      "inputs": [],
      "name": "LimitOutOfRange",
      "type": "error"
    },
    {
      "inputs": [],
      "name": "MemberAlreadyJoined",
      "type": "error"
    },
    {
      "inputs": [],
      "name": "MemberLimitReached",
      "type": "error"
    },
    {
      "inputs": [],
      "name": "MemberLimitTooLow",
      "type": "error"
    },
    {
      "inputs": [],
      "name": "NoMembers",
      "type": "error"
    },
    {
      "inputs": [],
      "name": "NoRewardsToClaim",
      "type": "error"
    },
    {
      "inputs": [],
      "name": "NoTreasuryFunds",
      "type": "error"
    },
    {
      "inputs": [],
      "name": "NotDAO",
      "type": "error"
    },
    {
      "inputs": [],
      "name": "NotMember",
      "type": "error"
    },
    {
      "inputs": [],
      "name": "PriestOnly",
      "type": "error"
    },
    {
      "inputs": [],
      "name": "ProposalExecutionFailed",
      "type": "error"
    },
    {
      "inputs": [],
      "name": "ProposalNotPassed",
      "type": "error"
    },
    {
      "inputs": [],
      "name": "QuorumNotReached",
      "type": "error"
    },
    {
      "inputs": [],
      "name": "ReentrancyGuardReentrantCall",
      "type": "error"
    },
    {
      "inputs": [
        {
          "internalType": "address",
          "name": "token",
          "type": "address"
        }
      ],
      "name": "SafeERC20FailedOperation",
      "type": "error"
    },
    {
      "inputs": [],
      "name": "TokenChangeDisabled",
      "type": "error"
    },
    {
      "inputs": [],
      "name": "VotingEnded",
      "type": "error"
    },
    {
      "inputs": [],
      "name": "VotingNotEnded",
      "type": "error"
    },
    {
      "inputs": [],
      "name": "VotingPeriodTooLong",
      "type": "error"
    },
    {
      "inputs": [],
      "name": "VotingPeriodTooShort",
      "type": "error"
    },
    {
      "anonymous": false,
      "inputs": [
        {
          "indexed": true,
          "internalType": "address",
          "name": "token",
          "type": "address"
        },
        {
          "indexed": false,
          "internalType": "uint256",
          "name": "entryFee",
          "type": "uint256"
        },
        {
          "indexed": false,
          "internalType": "uint256",
          "name": "burnPercent",
          "type": "uint256"
        },
        {
          "indexed": false,
          "internalType": "uint256",
          "name": "treasuryPercent",
          "type": "uint256"
        },
        {
          "indexed": false,
          "internalType": "uint256",
          "name": "memberPoolPercent",
          "type": "uint256"
        },
        {
          "indexed": false,
          "internalType": "uint256",
          "name": "protocolPercent",
          "type": "uint256"
        }
      ],
      "name": "ConfigUpdated",
      "type": "event"
    },
    {
      "anonymous": false,
      "inputs": [
        {
          "indexed": false,
          "internalType": "bool",
          "name": "enabled",
          "type": "bool"
        }
      ],
      "name": "DictatorshipModeChanged",
      "type": "event"
    },
    {
      "anonymous": false,
      "inputs": [
        {
          "indexed": false,
          "internalType": "uint8",
          "name": "primaryStyle",
          "type": "uint8"
        },
        {
          "indexed": false,
          "internalType": "uint32",
          "name": "primaryRateBps",
          "type": "uint32"
        }
      ],
      "name": "EntryFeeCurveUpdated",
      "type": "event"
    },
    {
      "anonymous": false,
      "inputs": [
        {
          "indexed": true,
          "internalType": "address",
          "name": "token",
          "type": "address"
        },
        {
          "indexed": true,
          "internalType": "address",
          "name": "member",
          "type": "address"
        },
        {
          "indexed": false,
          "internalType": "uint256",
          "name": "amount",
          "type": "uint256"
        }
      ],
      "name": "ExternalRewardClaimed",
      "type": "event"
    },
    {
      "anonymous": false,
      "inputs": [
        {
          "indexed": false,
          "internalType": "bool",
          "name": "joinPaused",
          "type": "bool"
        }
      ],
      "name": "JoinPauseUpdated",
      "type": "event"
    },
    {
      "anonymous": false,
      "inputs": [
        {
          "indexed": false,
          "internalType": "uint256",
          "name": "maxMembers",
          "type": "uint256"
        }
      ],
      "name": "MaxMembersUpdated",
      "type": "event"
    },
    {
      "anonymous": false,
      "inputs": [
        {
          "indexed": true,
          "internalType": "address",
          "name": "payer",
          "type": "address"
        },
        {
          "indexed": true,
          "internalType": "address",
          "name": "member",
          "type": "address"
        },
        {
          "indexed": false,
          "internalType": "uint256",
          "name": "totalAmount",
          "type": "uint256"
        },
        {
          "indexed": false,
          "internalType": "uint256",
          "name": "burnedAmount",
          "type": "uint256"
        },
        {
          "indexed": false,
          "internalType": "uint256",
          "name": "treasuryAmount",
          "type": "uint256"
        },
        {
          "indexed": false,
          "internalType": "uint256",
          "name": "memberPoolAmount",
          "type": "uint256"
        },
        {
          "indexed": false,
          "internalType": "uint256",
          "name": "protocolAmount",
          "type": "uint256"
        },
        {
          "indexed": false,
          "internalType": "uint256",
          "name": "timestamp",
          "type": "uint256"
        },
        {
          "indexed": false,
          "internalType": "uint256",
          "name": "blockNumber",
          "type": "uint256"
        },
        {
          "indexed": false,
          "internalType": "uint256",
          "name": "joinId",
          "type": "uint256"
        }
      ],
      "name": "MemberJoined",
      "type": "event"
    },
    {
      "anonymous": false,
      "inputs": [
        {
          "indexed": true,
          "internalType": "address",
          "name": "member",
          "type": "address"
        },
        {
          "indexed": false,
          "internalType": "uint256",
          "name": "amount",
          "type": "uint256"
        },
        {
          "indexed": false,
          "internalType": "uint256",
          "name": "timestamp",
          "type": "uint256"
        }
      ],
      "name": "MemberRewardsClaimed",
      "type": "event"
    },
    {
      "anonymous": false,
      "inputs": [
        {
          "indexed": true,
          "internalType": "address",
          "name": "oldPriest",
          "type": "address"
        },
        {
          "indexed": true,
          "internalType": "address",
          "name": "newPriest",
          "type": "address"
        }
      ],
      "name": "PriestChanged",
      "type": "event"
    },
    {
      "anonymous": false,
      "inputs": [
        {
          "indexed": true,
          "internalType": "uint256",
          "name": "proposalId",
          "type": "uint256"
        },
        {
          "indexed": true,
          "internalType": "address",
          "name": "proposer",
          "type": "address"
        },
        {
          "indexed": false,
          "internalType": "uint256",
          "name": "endTime",
          "type": "uint256"
        },
        {
          "indexed": false,
          "internalType": "string",
          "name": "title",
          "type": "string"
        },
        {
          "indexed": false,
          "internalType": "string",
          "name": "description",
          "type": "string"
        }
      ],
      "name": "ProposalCreated",
      "type": "event"
    },
    {
      "anonymous": false,
      "inputs": [
        {
          "indexed": true,
          "internalType": "uint256",
          "name": "proposalId",
          "type": "uint256"
        },
        {
          "indexed": false,
          "internalType": "bool",
          "name": "success",
          "type": "bool"
        },
        {
          "indexed": false,
          "internalType": "bytes",
          "name": "returnData",
          "type": "bytes"
        }
      ],
      "name": "ProposalExecuted",
      "type": "event"
    },
    {
      "anonymous": false,
      "inputs": [
        {
          "indexed": false,
          "internalType": "string",
          "name": "previousLink",
          "type": "string"
        },
        {
          "indexed": false,
          "internalType": "string",
          "name": "newLink",
          "type": "string"
        }
      ],
      "name": "TemplHomeLinkUpdated",
      "type": "event"
    },
    {
      "anonymous": false,
      "inputs": [
        {
          "indexed": true,
          "internalType": "uint256",
          "name": "proposalId",
          "type": "uint256"
        },
        {
          "indexed": true,
          "internalType": "address",
          "name": "token",
          "type": "address"
        },
        {
          "indexed": true,
          "internalType": "address",
          "name": "recipient",
          "type": "address"
        },
        {
          "indexed": false,
          "internalType": "uint256",
          "name": "amount",
          "type": "uint256"
        },
        {
          "indexed": false,
          "internalType": "string",
          "name": "description",
          "type": "string"
        }
      ],
      "name": "TreasuryAction",
      "type": "event"
    },
    {
      "anonymous": false,
      "inputs": [
        {
          "indexed": true,
          "internalType": "uint256",
          "name": "proposalId",
          "type": "uint256"
        },
        {
          "indexed": true,
          "internalType": "address",
          "name": "token",
          "type": "address"
        },
        {
          "indexed": false,
          "internalType": "uint256",
          "name": "amount",
          "type": "uint256"
        },
        {
          "indexed": false,
          "internalType": "uint256",
          "name": "perMember",
          "type": "uint256"
        },
        {
          "indexed": false,
          "internalType": "uint256",
          "name": "remainder",
          "type": "uint256"
        }
      ],
      "name": "TreasuryDisbanded",
      "type": "event"
    },
    {
      "anonymous": false,
      "inputs": [
        {
          "indexed": true,
          "internalType": "uint256",
          "name": "proposalId",
          "type": "uint256"
        },
        {
          "indexed": true,
          "internalType": "address",
          "name": "voter",
          "type": "address"
        },
        {
          "indexed": false,
          "internalType": "bool",
          "name": "support",
          "type": "bool"
        },
        {
          "indexed": false,
          "internalType": "uint256",
          "name": "timestamp",
          "type": "uint256"
        }
      ],
      "name": "VoteCast",
      "type": "event"
    },
    {
      "inputs": [],
      "name": "DEFAULT_VOTING_PERIOD",
      "outputs": [
        {
          "internalType": "uint256",
          "name": "",
          "type": "uint256"
        }
      ],
      "stateMutability": "view",
      "type": "function"
    },
    {
      "inputs": [],
      "name": "MAX_MEMBERS",
      "outputs": [
        {
          "internalType": "uint256",
          "name": "",
          "type": "uint256"
        }
      ],
      "stateMutability": "view",
      "type": "function"
    },
    {
      "inputs": [],
      "name": "MAX_VOTING_PERIOD",
      "outputs": [
        {
          "internalType": "uint256",
          "name": "",
          "type": "uint256"
        }
      ],
      "stateMutability": "view",
      "type": "function"
    },
    {
      "inputs": [],
      "name": "MIN_VOTING_PERIOD",
      "outputs": [
        {
          "internalType": "uint256",
          "name": "",
          "type": "uint256"
        }
      ],
      "stateMutability": "view",
      "type": "function"
    },
    {
      "inputs": [],
      "name": "accessToken",
      "outputs": [
        {
          "internalType": "address",
          "name": "",
          "type": "address"
        }
      ],
      "stateMutability": "view",
      "type": "function"
    },
    {
      "inputs": [
        {
          "internalType": "address",
          "name": "",
          "type": "address"
        }
      ],
      "name": "activeProposalId",
      "outputs": [
        {
          "internalType": "uint256",
          "name": "",
          "type": "uint256"
        }
      ],
      "stateMutability": "view",
      "type": "function"
    },
    {
      "inputs": [],
      "name": "baseEntryFee",
      "outputs": [
        {
          "internalType": "uint256",
          "name": "",
          "type": "uint256"
        }
      ],
      "stateMutability": "view",
      "type": "function"
    },
    {
      "inputs": [],
      "name": "burnAddress",
      "outputs": [
        {
          "internalType": "address",
          "name": "",
          "type": "address"
        }
      ],
      "stateMutability": "view",
      "type": "function"
    },
    {
      "inputs": [],
      "name": "burnPercent",
      "outputs": [
        {
          "internalType": "uint256",
          "name": "",
          "type": "uint256"
        }
      ],
      "stateMutability": "view",
      "type": "function"
    },
    {
      "inputs": [
        {
          "internalType": "address",
          "name": "newPriest",
          "type": "address"
        }
      ],
      "name": "changePriestDAO",
      "outputs": [],
      "stateMutability": "nonpayable",
      "type": "function"
    },
    {
      "inputs": [
        {
          "internalType": "address",
          "name": "token",
          "type": "address"
        }
      ],
      "name": "claimExternalReward",
      "outputs": [],
      "stateMutability": "nonpayable",
      "type": "function"
    },
    {
      "inputs": [],
      "name": "claimMemberRewards",
      "outputs": [],
      "stateMutability": "nonpayable",
      "type": "function"
    },
    {
      "inputs": [
        {
          "internalType": "address",
          "name": "token",
          "type": "address"
        }
      ],
      "name": "cleanupExternalRewardToken",
      "outputs": [],
      "stateMutability": "nonpayable",
      "type": "function"
    },
    {
      "inputs": [
        {
          "internalType": "address",
          "name": "_newPriest",
          "type": "address"
        },
        {
          "internalType": "uint256",
          "name": "_votingPeriod",
          "type": "uint256"
        },
        {
          "internalType": "string",
          "name": "_title",
          "type": "string"
        },
        {
          "internalType": "string",
          "name": "_description",
          "type": "string"
        }
      ],
      "name": "createProposalChangePriest",
      "outputs": [
        {
          "internalType": "uint256",
          "name": "",
          "type": "uint256"
        }
      ],
      "stateMutability": "nonpayable",
      "type": "function"
    },
    {
      "inputs": [
        {
          "internalType": "address",
          "name": "_token",
          "type": "address"
        },
        {
          "internalType": "uint256",
          "name": "_votingPeriod",
          "type": "uint256"
        },
        {
          "internalType": "string",
          "name": "_title",
          "type": "string"
        },
        {
          "internalType": "string",
          "name": "_description",
          "type": "string"
        }
      ],
      "name": "createProposalDisbandTreasury",
      "outputs": [
        {
          "internalType": "uint256",
          "name": "",
          "type": "uint256"
        }
      ],
      "stateMutability": "nonpayable",
      "type": "function"
    },
    {
      "inputs": [
        {
          "internalType": "bool",
          "name": "_enable",
          "type": "bool"
        },
        {
          "internalType": "uint256",
          "name": "_votingPeriod",
          "type": "uint256"
        },
        {
          "internalType": "string",
          "name": "_title",
          "type": "string"
        },
        {
          "internalType": "string",
          "name": "_description",
          "type": "string"
        }
      ],
      "name": "createProposalSetDictatorship",
      "outputs": [
        {
          "internalType": "uint256",
          "name": "",
          "type": "uint256"
        }
      ],
      "stateMutability": "nonpayable",
      "type": "function"
    },
    {
      "inputs": [
        {
          "components": [
            {
              "components": [
                {
                  "internalType": "enum CurveStyle",
                  "name": "style",
                  "type": "uint8"
                },
                {
                  "internalType": "uint32",
                  "name": "rateBps",
                  "type": "uint32"
                }
              ],
              "internalType": "struct CurveSegment",
              "name": "primary",
              "type": "tuple"
            }
          ],
          "internalType": "struct CurveConfig",
          "name": "_curve",
          "type": "tuple"
        },
        {
          "internalType": "uint256",
          "name": "_baseEntryFee",
          "type": "uint256"
        },
        {
          "internalType": "uint256",
          "name": "_votingPeriod",
          "type": "uint256"
        },
        {
          "internalType": "string",
          "name": "_title",
          "type": "string"
        },
        {
          "internalType": "string",
          "name": "_description",
          "type": "string"
        }
      ],
      "name": "createProposalSetEntryFeeCurve",
      "outputs": [
        {
          "internalType": "uint256",
          "name": "",
          "type": "uint256"
        }
      ],
      "stateMutability": "nonpayable",
      "type": "function"
    },
    {
      "inputs": [
        {
          "internalType": "string",
          "name": "_newLink",
          "type": "string"
        },
        {
          "internalType": "uint256",
          "name": "_votingPeriod",
          "type": "uint256"
        },
        {
          "internalType": "string",
          "name": "_title",
          "type": "string"
        },
        {
          "internalType": "string",
          "name": "_description",
          "type": "string"
        }
      ],
      "name": "createProposalSetHomeLink",
      "outputs": [
        {
          "internalType": "uint256",
          "name": "",
          "type": "uint256"
        }
      ],
      "stateMutability": "nonpayable",
      "type": "function"
    },
    {
      "inputs": [
        {
          "internalType": "bool",
          "name": "_paused",
          "type": "bool"
        },
        {
          "internalType": "uint256",
          "name": "_votingPeriod",
          "type": "uint256"
        },
        {
          "internalType": "string",
          "name": "_title",
          "type": "string"
        },
        {
          "internalType": "string",
          "name": "_description",
          "type": "string"
        }
      ],
      "name": "createProposalSetJoinPaused",
      "outputs": [
        {
          "internalType": "uint256",
          "name": "",
          "type": "uint256"
        }
      ],
      "stateMutability": "nonpayable",
      "type": "function"
    },
    {
      "inputs": [
        {
          "internalType": "uint256",
          "name": "_newMaxMembers",
          "type": "uint256"
        },
        {
          "internalType": "uint256",
          "name": "_votingPeriod",
          "type": "uint256"
        },
        {
          "internalType": "string",
          "name": "_title",
          "type": "string"
        },
        {
          "internalType": "string",
          "name": "_description",
          "type": "string"
        }
      ],
      "name": "createProposalSetMaxMembers",
      "outputs": [
        {
          "internalType": "uint256",
          "name": "",
          "type": "uint256"
        }
      ],
      "stateMutability": "nonpayable",
      "type": "function"
    },
    {
      "inputs": [
        {
          "internalType": "uint256",
          "name": "_newEntryFee",
          "type": "uint256"
        },
        {
          "internalType": "uint256",
          "name": "_newBurnPercent",
          "type": "uint256"
        },
        {
          "internalType": "uint256",
          "name": "_newTreasuryPercent",
          "type": "uint256"
        },
        {
          "internalType": "uint256",
          "name": "_newMemberPoolPercent",
          "type": "uint256"
        },
        {
          "internalType": "bool",
          "name": "_updateFeeSplit",
          "type": "bool"
        },
        {
          "internalType": "uint256",
          "name": "_votingPeriod",
          "type": "uint256"
        },
        {
          "internalType": "string",
          "name": "_title",
          "type": "string"
        },
        {
          "internalType": "string",
          "name": "_description",
          "type": "string"
        }
      ],
      "name": "createProposalUpdateConfig",
      "outputs": [
        {
          "internalType": "uint256",
          "name": "",
          "type": "uint256"
        }
      ],
      "stateMutability": "nonpayable",
      "type": "function"
    },
    {
      "inputs": [
        {
          "internalType": "address",
          "name": "_token",
          "type": "address"
        },
        {
          "internalType": "address",
          "name": "_recipient",
          "type": "address"
        },
        {
          "internalType": "uint256",
          "name": "_amount",
          "type": "uint256"
        },
        {
          "internalType": "string",
          "name": "_reason",
          "type": "string"
        },
        {
          "internalType": "uint256",
          "name": "_votingPeriod",
          "type": "uint256"
        },
        {
          "internalType": "string",
          "name": "_title",
          "type": "string"
        },
        {
          "internalType": "string",
          "name": "_description",
          "type": "string"
        }
      ],
      "name": "createProposalWithdrawTreasury",
      "outputs": [
        {
          "internalType": "uint256",
          "name": "",
          "type": "uint256"
        }
      ],
      "stateMutability": "nonpayable",
      "type": "function"
    },
    {
      "inputs": [],
      "name": "cumulativeMemberRewards",
      "outputs": [
        {
          "internalType": "uint256",
          "name": "",
          "type": "uint256"
        }
      ],
      "stateMutability": "view",
      "type": "function"
    },
    {
      "inputs": [
        {
          "internalType": "address",
          "name": "token",
          "type": "address"
        }
      ],
      "name": "disbandTreasuryDAO",
      "outputs": [],
      "stateMutability": "nonpayable",
      "type": "function"
    },
    {
      "inputs": [],
      "name": "entryFee",
      "outputs": [
        {
          "internalType": "uint256",
          "name": "",
          "type": "uint256"
        }
      ],
      "stateMutability": "view",
      "type": "function"
    },
    {
      "inputs": [],
      "name": "entryFeeCurve",
      "outputs": [
        {
          "components": [
            {
              "internalType": "enum CurveStyle",
              "name": "style",
              "type": "uint8"
            },
            {
              "internalType": "uint32",
              "name": "rateBps",
              "type": "uint32"
            }
          ],
          "internalType": "struct CurveSegment",
          "name": "primary",
          "type": "tuple"
        }
      ],
      "stateMutability": "view",
      "type": "function"
    },
    {
      "inputs": [
        {
          "internalType": "uint256",
          "name": "_proposalId",
          "type": "uint256"
        }
      ],
      "name": "executeProposal",
      "outputs": [],
      "stateMutability": "nonpayable",
      "type": "function"
    },
    {
      "inputs": [],
      "name": "executionDelayAfterQuorum",
      "outputs": [
        {
          "internalType": "uint256",
          "name": "",
          "type": "uint256"
        }
      ],
      "stateMutability": "view",
      "type": "function"
    },
    {
      "inputs": [],
      "name": "getActiveProposals",
      "outputs": [
        {
          "internalType": "uint256[]",
          "name": "",
          "type": "uint256[]"
        }
      ],
      "stateMutability": "view",
      "type": "function"
    },
    {
      "inputs": [
        {
          "internalType": "uint256",
          "name": "offset",
          "type": "uint256"
        },
        {
          "internalType": "uint256",
          "name": "limit",
          "type": "uint256"
        }
      ],
      "name": "getActiveProposalsPaginated",
      "outputs": [
        {
          "internalType": "uint256[]",
          "name": "proposalIds",
          "type": "uint256[]"
        },
        {
          "internalType": "bool",
          "name": "hasMore",
          "type": "bool"
        }
      ],
      "stateMutability": "view",
      "type": "function"
    },
    {
      "inputs": [
        {
          "internalType": "address",
          "name": "member",
          "type": "address"
        },
        {
          "internalType": "address",
          "name": "token",
          "type": "address"
        }
      ],
      "name": "getClaimableExternalReward",
      "outputs": [
        {
          "internalType": "uint256",
          "name": "amount",
          "type": "uint256"
        }
      ],
      "stateMutability": "view",
      "type": "function"
    },
    {
      "inputs": [
        {
          "internalType": "address",
          "name": "member",
          "type": "address"
        }
      ],
      "name": "getClaimableMemberRewards",
      "outputs": [
        {
          "internalType": "uint256",
          "name": "",
          "type": "uint256"
        }
      ],
      "stateMutability": "view",
      "type": "function"
    },
    {
      "inputs": [],
      "name": "getConfig",
      "outputs": [
        {
          "internalType": "address",
          "name": "token",
          "type": "address"
        },
        {
          "internalType": "uint256",
          "name": "fee",
          "type": "uint256"
        },
        {
          "internalType": "bool",
          "name": "joinPaused",
          "type": "bool"
        },
        {
          "internalType": "uint256",
          "name": "joins",
          "type": "uint256"
        },
        {
          "internalType": "uint256",
          "name": "treasury",
          "type": "uint256"
        },
        {
          "internalType": "uint256",
          "name": "pool",
          "type": "uint256"
        },
        {
          "internalType": "uint256",
          "name": "burnPercentOut",
          "type": "uint256"
        },
        {
          "internalType": "uint256",
          "name": "treasuryPercentOut",
          "type": "uint256"
        },
        {
          "internalType": "uint256",
          "name": "memberPoolPercentOut",
          "type": "uint256"
        },
        {
          "internalType": "uint256",
          "name": "protocolPercentOut",
          "type": "uint256"
        }
      ],
      "stateMutability": "view",
      "type": "function"
    },
    {
      "inputs": [
        {
          "internalType": "address",
          "name": "token",
          "type": "address"
        }
      ],
      "name": "getExternalRewardState",
      "outputs": [
        {
          "internalType": "uint256",
          "name": "poolBalance",
          "type": "uint256"
        },
        {
          "internalType": "uint256",
          "name": "cumulativeRewards",
          "type": "uint256"
        },
        {
          "internalType": "uint256",
          "name": "remainder",
          "type": "uint256"
        }
      ],
      "stateMutability": "view",
      "type": "function"
    },
    {
      "inputs": [],
      "name": "getExternalRewardTokens",
      "outputs": [
        {
          "internalType": "address[]",
          "name": "tokens",
          "type": "address[]"
        }
      ],
      "stateMutability": "view",
      "type": "function"
    },
    {
      "inputs": [
        {
          "internalType": "address",
          "name": "user",
          "type": "address"
        }
      ],
      "name": "getJoinDetails",
      "outputs": [
        {
          "internalType": "bool",
          "name": "joined",
          "type": "bool"
        },
        {
          "internalType": "uint256",
          "name": "timestamp",
          "type": "uint256"
        },
        {
          "internalType": "uint256",
          "name": "blockNumber",
          "type": "uint256"
        }
      ],
      "stateMutability": "view",
      "type": "function"
    },
    {
      "inputs": [],
      "name": "getMemberCount",
      "outputs": [
        {
          "internalType": "uint256",
          "name": "",
          "type": "uint256"
        }
      ],
      "stateMutability": "view",
      "type": "function"
    },
    {
      "inputs": [
        {
          "internalType": "uint256",
          "name": "_proposalId",
          "type": "uint256"
        }
      ],
      "name": "getProposal",
      "outputs": [
        {
          "internalType": "address",
          "name": "proposer",
          "type": "address"
        },
        {
          "internalType": "uint256",
          "name": "yesVotes",
          "type": "uint256"
        },
        {
          "internalType": "uint256",
          "name": "noVotes",
          "type": "uint256"
        },
        {
          "internalType": "uint256",
          "name": "endTime",
          "type": "uint256"
        },
        {
          "internalType": "bool",
          "name": "executed",
          "type": "bool"
        },
        {
          "internalType": "bool",
          "name": "passed",
          "type": "bool"
        },
        {
          "internalType": "string",
          "name": "title",
          "type": "string"
        },
        {
          "internalType": "string",
          "name": "description",
          "type": "string"
        }
      ],
      "stateMutability": "view",
      "type": "function"
    },
    {
      "inputs": [
        {
          "internalType": "uint256",
          "name": "_proposalId",
          "type": "uint256"
        }
      ],
      "name": "getProposalSnapshots",
      "outputs": [
        {
          "internalType": "uint256",
          "name": "eligibleVotersPreQuorum",
          "type": "uint256"
        },
        {
          "internalType": "uint256",
          "name": "eligibleVotersPostQuorum",
          "type": "uint256"
        },
        {
          "internalType": "uint256",
          "name": "preQuorumSnapshotBlock",
          "type": "uint256"
        },
        {
          "internalType": "uint256",
          "name": "quorumSnapshotBlock",
          "type": "uint256"
        },
        {
          "internalType": "uint256",
          "name": "createdAt",
          "type": "uint256"
        },
        {
          "internalType": "uint256",
          "name": "quorumReachedAt",
          "type": "uint256"
        }
      ],
      "stateMutability": "view",
      "type": "function"
    },
    {
      "inputs": [],
      "name": "getTreasuryInfo",
      "outputs": [
        {
          "internalType": "uint256",
          "name": "treasury",
          "type": "uint256"
        },
        {
          "internalType": "uint256",
          "name": "memberPool",
          "type": "uint256"
        },
        {
          "internalType": "address",
          "name": "protocolAddress",
          "type": "address"
        }
      ],
      "stateMutability": "view",
      "type": "function"
    },
    {
      "inputs": [
        {
          "internalType": "address",
          "name": "voter",
          "type": "address"
        }
      ],
      "name": "getVoteWeight",
      "outputs": [
        {
          "internalType": "uint256",
          "name": "weight",
          "type": "uint256"
        }
      ],
      "stateMutability": "view",
      "type": "function"
    },
    {
      "inputs": [
        {
          "internalType": "address",
          "name": "",
          "type": "address"
        }
      ],
      "name": "hasActiveProposal",
      "outputs": [
        {
          "internalType": "bool",
          "name": "",
          "type": "bool"
        }
      ],
      "stateMutability": "view",
      "type": "function"
    },
    {
      "inputs": [
        {
          "internalType": "uint256",
          "name": "_proposalId",
          "type": "uint256"
        },
        {
          "internalType": "address",
          "name": "_voter",
          "type": "address"
        }
      ],
      "name": "hasVoted",
      "outputs": [
        {
          "internalType": "bool",
          "name": "voted",
          "type": "bool"
        },
        {
          "internalType": "bool",
          "name": "support",
          "type": "bool"
        }
      ],
      "stateMutability": "view",
      "type": "function"
    },
    {
      "inputs": [
        {
          "internalType": "address",
          "name": "user",
          "type": "address"
        }
      ],
      "name": "isMember",
      "outputs": [
        {
          "internalType": "bool",
          "name": "",
          "type": "bool"
        }
      ],
      "stateMutability": "view",
      "type": "function"
    },
    {
      "inputs": [],
      "name": "join",
      "outputs": [],
      "stateMutability": "nonpayable",
      "type": "function"
    },
    {
      "inputs": [
        {
          "internalType": "address",
          "name": "recipient",
          "type": "address"
        }
      ],
      "name": "joinFor",
      "outputs": [],
      "stateMutability": "nonpayable",
      "type": "function"
    },
    {
      "inputs": [],
      "name": "joinPaused",
      "outputs": [
        {
          "internalType": "bool",
          "name": "",
          "type": "bool"
        }
      ],
      "stateMutability": "view",
      "type": "function"
    },
    {
      "inputs": [],
      "name": "memberCount",
      "outputs": [
        {
          "internalType": "uint256",
          "name": "",
          "type": "uint256"
        }
      ],
      "stateMutability": "view",
      "type": "function"
    },
    {
      "inputs": [],
      "name": "memberPoolBalance",
      "outputs": [
        {
          "internalType": "uint256",
          "name": "",
          "type": "uint256"
        }
      ],
      "stateMutability": "view",
      "type": "function"
    },
    {
      "inputs": [
        {
          "internalType": "address",
          "name": "",
          "type": "address"
        }
      ],
      "name": "memberPoolClaims",
      "outputs": [
        {
          "internalType": "uint256",
          "name": "",
          "type": "uint256"
        }
      ],
      "stateMutability": "view",
      "type": "function"
    },
    {
      "inputs": [],
      "name": "memberPoolPercent",
      "outputs": [
        {
          "internalType": "uint256",
          "name": "",
          "type": "uint256"
        }
      ],
      "stateMutability": "view",
      "type": "function"
    },
    {
      "inputs": [],
      "name": "memberRewardRemainder",
      "outputs": [
        {
          "internalType": "uint256",
          "name": "",
          "type": "uint256"
        }
      ],
      "stateMutability": "view",
      "type": "function"
    },
    {
      "inputs": [
        {
          "internalType": "address",
          "name": "",
          "type": "address"
        }
      ],
      "name": "members",
      "outputs": [
        {
          "internalType": "bool",
          "name": "joined",
          "type": "bool"
        },
        {
          "internalType": "uint256",
          "name": "timestamp",
          "type": "uint256"
        },
        {
          "internalType": "uint256",
          "name": "blockNumber",
          "type": "uint256"
        },
        {
          "internalType": "uint256",
          "name": "rewardSnapshot",
          "type": "uint256"
        }
      ],
      "stateMutability": "view",
      "type": "function"
    },
    {
      "inputs": [],
      "name": "priest",
      "outputs": [
        {
          "internalType": "address",
          "name": "",
          "type": "address"
        }
      ],
      "stateMutability": "view",
      "type": "function"
    },
    {
      "inputs": [],
      "name": "priestIsDictator",
      "outputs": [
        {
          "internalType": "bool",
          "name": "",
          "type": "bool"
        }
      ],
      "stateMutability": "view",
      "type": "function"
    },
    {
      "inputs": [],
      "name": "proposalCount",
      "outputs": [
        {
          "internalType": "uint256",
          "name": "",
          "type": "uint256"
        }
      ],
      "stateMutability": "view",
      "type": "function"
    },
    {
      "inputs": [
        {
          "internalType": "uint256",
          "name": "",
          "type": "uint256"
        }
      ],
      "name": "proposals",
      "outputs": [
        {
          "internalType": "uint256",
          "name": "id",
          "type": "uint256"
        },
        {
          "internalType": "address",
          "name": "proposer",
          "type": "address"
        },
        {
          "internalType": "enum TemplBase.Action",
          "name": "action",
          "type": "uint8"
        },
        {
          "internalType": "address",
          "name": "token",
          "type": "address"
        },
        {
          "internalType": "address",
          "name": "recipient",
          "type": "address"
        },
        {
          "internalType": "uint256",
          "name": "amount",
          "type": "uint256"
        },
        {
          "internalType": "string",
          "name": "title",
          "type": "string"
        },
        {
          "internalType": "string",
          "name": "description",
          "type": "string"
        },
        {
          "internalType": "string",
          "name": "reason",
          "type": "string"
        },
        {
          "internalType": "bool",
          "name": "joinPaused",
          "type": "bool"
        },
        {
          "internalType": "uint256",
          "name": "newEntryFee",
          "type": "uint256"
        },
        {
          "internalType": "uint256",
          "name": "newBurnPercent",
          "type": "uint256"
        },
        {
          "internalType": "uint256",
          "name": "newTreasuryPercent",
          "type": "uint256"
        },
        {
          "internalType": "uint256",
          "name": "newMemberPoolPercent",
          "type": "uint256"
        },
        {
          "internalType": "string",
          "name": "newHomeLink",
          "type": "string"
        },
        {
          "internalType": "uint256",
          "name": "newMaxMembers",
          "type": "uint256"
        },
        {
          "components": [
            {
              "components": [
                {
                  "internalType": "enum CurveStyle",
                  "name": "style",
                  "type": "uint8"
                },
                {
                  "internalType": "uint32",
                  "name": "rateBps",
                  "type": "uint32"
                }
              ],
              "internalType": "struct CurveSegment",
              "name": "primary",
              "type": "tuple"
            }
          ],
          "internalType": "struct CurveConfig",
          "name": "curveConfig",
          "type": "tuple"
        },
        {
          "internalType": "uint256",
          "name": "curveBaseEntryFee",
          "type": "uint256"
        },
        {
          "internalType": "uint256",
          "name": "yesVotes",
          "type": "uint256"
        },
        {
          "internalType": "uint256",
          "name": "noVotes",
          "type": "uint256"
        },
        {
          "internalType": "uint256",
          "name": "endTime",
          "type": "uint256"
        },
        {
          "internalType": "uint256",
          "name": "createdAt",
          "type": "uint256"
        },
        {
          "internalType": "bool",
          "name": "executed",
          "type": "bool"
        },
        {
          "internalType": "uint256",
          "name": "eligibleVoters",
          "type": "uint256"
        },
        {
          "internalType": "uint256",
          "name": "postQuorumEligibleVoters",
          "type": "uint256"
        },
        {
          "internalType": "uint256",
          "name": "quorumReachedAt",
          "type": "uint256"
        },
        {
          "internalType": "uint256",
          "name": "quorumSnapshotBlock",
          "type": "uint256"
        },
        {
          "internalType": "bool",
          "name": "quorumExempt",
          "type": "bool"
        },
        {
          "internalType": "bool",
          "name": "updateFeeSplit",
          "type": "bool"
        },
        {
          "internalType": "uint256",
          "name": "preQuorumSnapshotBlock",
          "type": "uint256"
        },
        {
          "internalType": "bool",
          "name": "setDictatorship",
          "type": "bool"
        }
      ],
      "stateMutability": "view",
      "type": "function"
    },
    {
      "inputs": [],
      "name": "protocolFeeRecipient",
      "outputs": [
        {
          "internalType": "address",
          "name": "",
          "type": "address"
        }
      ],
      "stateMutability": "view",
      "type": "function"
    },
    {
      "inputs": [],
      "name": "protocolPercent",
      "outputs": [
        {
          "internalType": "uint256",
          "name": "",
          "type": "uint256"
        }
      ],
      "stateMutability": "view",
      "type": "function"
    },
    {
      "inputs": [
        {
          "internalType": "uint256",
          "name": "maxRemovals",
          "type": "uint256"
        }
      ],
      "name": "pruneInactiveProposals",
      "outputs": [
        {
          "internalType": "uint256",
          "name": "removed",
          "type": "uint256"
        }
      ],
      "stateMutability": "nonpayable",
      "type": "function"
    },
    {
      "inputs": [],
      "name": "quorumPercent",
      "outputs": [
        {
          "internalType": "uint256",
          "name": "",
          "type": "uint256"
        }
      ],
      "stateMutability": "view",
      "type": "function"
    },
    {
      "inputs": [
        {
          "internalType": "bool",
          "name": "enabled",
          "type": "bool"
        }
      ],
      "name": "setDictatorshipDAO",
      "outputs": [],
      "stateMutability": "nonpayable",
      "type": "function"
    },
    {
      "inputs": [
        {
          "components": [
            {
              "components": [
                {
                  "internalType": "enum CurveStyle",
                  "name": "style",
                  "type": "uint8"
                },
                {
                  "internalType": "uint32",
                  "name": "rateBps",
                  "type": "uint32"
                }
              ],
              "internalType": "struct CurveSegment",
              "name": "primary",
              "type": "tuple"
            }
          ],
          "internalType": "struct CurveConfig",
          "name": "curve",
          "type": "tuple"
        },
        {
          "internalType": "uint256",
          "name": "baseEntryFee",
          "type": "uint256"
        }
      ],
      "name": "setEntryFeeCurveDAO",
      "outputs": [],
      "stateMutability": "nonpayable",
      "type": "function"
    },
    {
      "inputs": [
        {
          "internalType": "bool",
          "name": "_paused",
          "type": "bool"
        }
      ],
      "name": "setJoinPausedDAO",
      "outputs": [],
      "stateMutability": "nonpayable",
      "type": "function"
    },
    {
      "inputs": [
        {
          "internalType": "uint256",
          "name": "_maxMembers",
          "type": "uint256"
        }
      ],
      "name": "setMaxMembersDAO",
      "outputs": [],
      "stateMutability": "nonpayable",
      "type": "function"
    },
    {
      "inputs": [
        {
          "internalType": "string",
          "name": "newLink",
          "type": "string"
        }
      ],
      "name": "setTemplHomeLinkDAO",
      "outputs": [],
      "stateMutability": "nonpayable",
      "type": "function"
    },
    {
      "inputs": [],
      "name": "templHomeLink",
      "outputs": [
        {
          "internalType": "string",
          "name": "",
          "type": "string"
        }
      ],
      "stateMutability": "view",
      "type": "function"
    },
    {
      "inputs": [],
      "name": "totalJoins",
      "outputs": [
        {
          "internalType": "uint256",
          "name": "",
          "type": "uint256"
        }
      ],
      "stateMutability": "view",
      "type": "function"
    },
    {
      "inputs": [],
      "name": "treasuryBalance",
      "outputs": [
        {
          "internalType": "uint256",
          "name": "",
          "type": "uint256"
        }
      ],
      "stateMutability": "view",
      "type": "function"
    },
    {
      "inputs": [],
      "name": "treasuryPercent",
      "outputs": [
        {
          "internalType": "uint256",
          "name": "",
          "type": "uint256"
        }
      ],
      "stateMutability": "view",
      "type": "function"
    },
    {
      "inputs": [
        {
          "internalType": "address",
          "name": "_token",
          "type": "address"
        },
        {
          "internalType": "uint256",
          "name": "_entryFee",
          "type": "uint256"
        },
        {
          "internalType": "bool",
          "name": "_updateFeeSplit",
          "type": "bool"
        },
        {
          "internalType": "uint256",
          "name": "_burnPercent",
          "type": "uint256"
        },
        {
          "internalType": "uint256",
          "name": "_treasuryPercent",
          "type": "uint256"
        },
        {
          "internalType": "uint256",
          "name": "_memberPoolPercent",
          "type": "uint256"
        }
      ],
      "name": "updateConfigDAO",
      "outputs": [],
      "stateMutability": "nonpayable",
      "type": "function"
    },
    {
      "inputs": [
        {
          "internalType": "uint256",
          "name": "_proposalId",
          "type": "uint256"
        },
        {
          "internalType": "bool",
          "name": "_support",
          "type": "bool"
        }
      ],
      "name": "vote",
      "outputs": [],
      "stateMutability": "nonpayable",
      "type": "function"
    },
    {
      "inputs": [
        {
          "internalType": "address",
          "name": "token",
          "type": "address"
        },
        {
          "internalType": "address",
          "name": "recipient",
          "type": "address"
        },
        {
          "internalType": "uint256",
          "name": "amount",
          "type": "uint256"
        },
        {
          "internalType": "string",
          "name": "reason",
          "type": "string"
        }
      ],
      "name": "withdrawTreasuryDAO",
      "outputs": [],
      "stateMutability": "nonpayable",
      "type": "function"
    },
    {
      "stateMutability": "payable",
      "type": "receive"
    }
  ],
  "bytecode": "0x61014060405234620008e6576200686480380380916200001f826200092b565b610120526101205139610200610120518261012051010312620008e6576200004a6101205162000951565b6200005b6020610120510162000951565b906200006d6040610120510162000951565b92606061012051015193608061012051015160a061012051015160c06101205101519060e061012051015191610100610120510151926101208051015194620000bd610140610120510162000951565b96610160610120510151908115158203620008e657610120516101808101516101a090910151909c906001600160401b038111620008e6578b6101205101601f826101205101011215620008e657610120518101519b6001600160401b038d11620007d3578c9162000139601f8401601f19166020016200092b565b9d8e52816101205101602084836101205101010111620008e6576040926200016e918f60208091019161012051010162000966565b61012051908101036101bf190112620008e6576200018b620008eb565b61010052620001996200090b565b6101c06101205101516003811015620008e65781526101e061012051015163ffffffff81168103620008e6576020820152610100515260016000556001600160a01b038116158015620008d4575b6200065c5760a05260c0526004549060ff60a01b90151560a01b169060ff60a01b191617600455809184938095829362000232846200022c856200022c86866200098b565b6200098b565b90612710820362000867575b50505050506200026081612710926080526200022c866200022c87876200098b565b03620008555760015560025560035580620007f55750610ce4600c555b80620007ef575062093a805b600d556001600160a01b038116620007e9575061dead5b60e05280516001600160401b038111620007d357600e54600181811c91168015620007c8575b6020821014620007b257601f81116200075d575b50806020601f8211600114620006e457600091620006d8575b508160011b916000199060031b1c191617600e555b80516200066e575b506001600160a01b031680156200065c5782156200064a57600a91828410620006385782840662000626578160018060a01b0319600454161760045560ff1991828454168455600052600f6020526040600020600183825416178155426001820155436002820155600360125491015560016010558015158062000549575b50505050620003a2610100515162000a45565b60065561010051518051906003821015620005335760ff64ffffffff00602060075493015160081b1692169064ffffffffff19161717600755620003e5620009d5565b620003ef62000999565b80515190600382101562000533577fb814f14355a407e33ede6180785edb3dd1922aef3f2c8020ae87bfba010f5c159163ffffffff60206040935101511660ff8351921682526020820152a1604051615bdd908162000c6782396080518181816105e90152818161087001528181611405015281816126f20152818161274101528181612a4001528181612a92015261489d015260a0518181816114f9015281816120c60152614a0f015260c05181818161075001528181610a2b015281816112ad0152818161135d0152818161149e01528181611a6e01528181612240015281816127180152818161281001528181612a6601528181612ba501528181612c1001528181613aa701528181614902015281816149ba015281816149e401528181614a3201528181614e9901526151da015260e051818181611fb001526149970152f35b634e487b7160e01b600052602160045260246000fd5b806200061b575b62000609576020817fb63bcc75a862434e97db3146b78681478a2692253df1de5623d497ee61fac79992600b55604051908152a16200058e620009d5565b600b548015159081620005fb575b5080620005ee575b620005b2575b80806200038f565b6001908254161790557fc2542ff58c47f8c0922a043c4b21423ecd816167eeab1dabfb51d56508d90a66602060405160018152a13880620005aa565b5060ff82541615620005a4565b90506010541015386200059c565b604051633161e99d60e11b8152600490fd5b506001811062000550565b604051636fe6a4c960e01b8152600490fd5b604051635eee050360e11b8152600490fd5b6040516365e52d5160e11b8152600490fd5b604051634e46966960e11b8152600490fd5b7f71e57b89fe30fe66cb93427236f86ec18c6ec404e26b5c0914ee88193dd07da59060806040518092604082526000604083015260606020830152620006c4815180928160608601526020868601910162000966565b601f01601f19168101030190a13862000310565b905082015138620002f3565b600e6000908152925060008051602062006844833981519152905b601f198316841062000744576001935082601f198116106200072a575b5050811b01600e5562000308565b84015160001960f88460031b161c1916905538806200071c565b84810151825560209384019360019092019101620006ff565b600e60005260008051602062006844833981519152601f830160051c810160208410620007aa575b601f830160051c820181106200079d575050620002da565b6000815560010162000785565b508062000785565b634e487b7160e01b600052602260045260246000fd5b90607f1690620002c6565b634e487b7160e01b600052604160045260246000fd5b620002a0565b62000289565b80606481111562000827575b5061271081116200081557600c556200027d565b604051631f3b85d360e01b8152600490fd5b9050606481029081046064036200083f573862000801565b634e487b7160e01b600052601160045260246000fd5b60405163542c8df360e11b8152600490fd5b93975091955093506064925082036200085557818102908082048314901517156200083f5791818102908082048314901517156200083f5792818102908082048314901517156200083f57938181029181830414901517156200083f57620002606127103880806200023e565b506001600160a01b03821615620001e7565b600080fd5b60405190602082016001600160401b03811183821017620007d357604052565b60408051919082016001600160401b03811183821017620007d357604052565b6040519190601f01601f191682016001600160401b03811183821017620007d357604052565b51906001600160a01b0382168203620008e657565b60005b8381106200097a5750506000910152565b818101518382015260200162000969565b919082018092116200083f57565b620009a3620008eb565b90620009ae6200090b565b60075460ff8116906003821015620005335763ffffffff91835260081c1660208201528252565b600654801562000a055762000a0090620009ee62000a08565b90620009f962000999565b9062000a28565b600555565b50565b601054801562000a225760001981019081116200083f5790565b50600090565b9190811562000a40575162000a3d9262000ac6565b90565b505090565b8051600381101562000533571562000ab55780516003811015620005335760011462000a055780516003811015620005335760021462000a91576040516311c6799960e21b8152600490fd5b6020015163ffffffff161562000aa357565b6040516311c6799960e21b8152600490fd5b6020015163ffffffff1662000aa357565b908215801562000b6f575b62000b695780516003811015620005335760011462000b315780516003811015620005335760021462000b10576040516311c6799960e21b8152600490fd5b62000a3d9263ffffffff602062000b2a9301511662000c00565b9062000b83565b602063ffffffff919392930151168181029181830414901517156200083f576127109081018091116200083f5762000a3d9162000b83565b50905090565b508051600381101562000533571562000ad1565b906000198183098183029182808310920391808303921462000bf557612710908282111562000be2577fbc01a36e2eb1c432ca57a786c226809d495182a9930be0ded288ce703afb7e91940990828211900360fc1b910360041c170290565b634e487b7160005260116020526024601cfd5b505061271091500490565b90801562000c5e576127109190805b62000c1957505090565b6001808083161462000c4a575b1c8062000c35575b8062000c0f565b62000c4282829362000b83565b915062000c2e565b928262000c579162000b83565b9262000c26565b50506127109056fe610380604052600436101561001c575b361561001a57600080fd5b005b60003560e01c8063013cf08b1461328157806303807ee514613263578063049cb1191461323a57806304ef9d581461321c578063072ea61c146131fe57806308ae4b0c1461319d5780630d61b519146128665780630f852b9a1461264057806311aee38014611b8657806314d9ea63146126225780631df260a0146125775780631f26ac7b1461254b578063215809ca146118575780632164d3f8146124b1578063313dab201461249357806343859632146124245780634902e4271461238f5780635584c4f9146122c95780635998e845146122195780635ece653a146121c35780635fa7ddf0146121a557806361c896d2146120f557806364df049e146120b05780636898b19c146120925780636a499427146120375780636ad1855014611ffd5780637070ac4814611fdf57806370d5ae0514611f9a57806373023e6414611e295780637518927914611e065780638022e55c14611deb578063840634c514611d345780638b0e837914611c635780638bdc04d314611be65780638f78bbc414611ba4578063997072f714611b865780639ddeddf914611a26578063a230c524146119e7578063a51a46b9146119c9578063a64e024a146119ab578063a730117e14611988578063a81bbe3c1461194e578063aa5c442b14611898578063ab99a0d31461187a578063adadef271461185c578063aedfe53f14611857578063b488616b14611827578063b688a363146117f3578063be893a1f14611616578063bebc8fc0146115ed578063c17db3f21461155f578063c29394711461146a578063c3f909d414611337578063c556a02b14611217578063c7f758a814611081578063c9d27afe14610d5c578063cfb5446014610cda578063d402d4be146109a8578063d6f8387614610941578063d8257b2d1461091e578063da35c66414610900578063dddac844146108da578063e1a2c9bf1461077f578063e243c5fb1461073a578063e4b5d7ba146106b6578063ea0e35b114610698578063eccceda61461060c578063f0a827a4146105d1578063f2be51ea14610545578063f4584b441461042d578063f81cbd261461040f578063fef63821146103885763ffafe4ad0361000f5734610383576020366003190112610383576001600160a01b03610365613889565b166000526017602052602060ff604060002054166040519015158152f35b600080fd5b346103835761039636613a15565b949190929360ff60045460a01c166103fd576020956103cb6103f5956103c36008986103d19636916139c0565b9236916139c0565b916141e4565b6001819592950160ff60a01b198154169055019060ff801983541691151516179055565b604051908152f35b60405163a8ef9e1960e01b8152600490fd5b34610383576000366003190112610383576020600c54604051908152f35b3461038357366003190160c0811261038357604013610383576001600160401b03604435608435828111610383576104699036906004016138e2565b9260a435908111610383576104829036906004016138e2565b909160ff60045460a01c166103fd576104c6926103c36104bd926104a536613c73565b976104b08951615839565b87610537575b36916139c0565b906064356141e4565b60018101805460ff60a01b1916600160a31b1790559251805193919291600f810160038610156105215760209560109360ff64ffffffff0089855493015160081b1692169064ffffffffff1916171790550155604051908152f35b634e487b7160e01b600052602160045260246000fd5b610540886153e6565b6104b6565b346103835760203660031901126103835761055e613889565b60045460ff8160a01c166000146105ae5730331415908161059a575b506105885761001a90614e80565b60405163626243e960e01b8152600490fd5b6001600160a01b031633141590508261057a565b503033036105bf5761001a90614e80565b6040516327568d2f60e11b8152600490fd5b346103835760003660031901126103835760206040517f00000000000000000000000000000000000000000000000000000000000000008152f35b346103835761061a3661390f565b929490936001600160a01b039091169283156106865760ff60045460a01c166103fd576103cb6003956103c36020986106549636916139c0565b60018101805460ff60a01b1916600160a21b1790559290920180546001600160a01b0319169091179055604051908152f35b604051634e46966960e11b8152600490fd5b34610383576000366003190112610383576020600b54604051908152f35b34610383576106c436613a15565b949190929360ff60045460a01c1683151590151514610728576020956103cb6103f5956103c3601e986106f89636916139c0565b60018101805460ff60a01b1916600560a01b17905593909301805491151560ff1660ff1992909216919091179055565b6040516305548b1760e41b8152600490fd5b34610383576000366003190112610383576040517f00000000000000000000000000000000000000000000000000000000000000006001600160a01b03168152602090f35b346103835761010036600319011261038357608435600435811515602435606435604435838603610383576001600160401b0360c435818111610383576107ca9036906004016138e2565b9160e435908111610383576107e39036906004016138e2565b92909860ff60045460a01c166103fd5788610897575b6020996103c361082294601c99989796946108199461086b5736916139c0565b9060a4356141e4565b93909660018501600160a01b60ff60a01b198254161790556009850155600a840155600b830155600c820155019061ff0082549160081b169061ff001916179055604051908152f35b6105407f00000000000000000000000000000000000000000000000000000000000000008a8a8d614e4d565b9594939290600a89106108c857600a89066108b65790929394956107f9565b604051636fe6a4c960e01b8152600490fd5b604051635eee050360e11b8152600490fd5b3461038357600036600319011261038357602060ff60045460a01c166040519015158152f35b34610383576000366003190112610383576020601454604051908152f35b346103835760203660031901126103835760206103f561093c613889565b613f4e565b346103835760203660031901126103835761095a613889565b60ff600a5416610996573033146109845761097d90610977613fbe565b33614835565b6001600055005b604051636edaef2f60e11b8152600490fd5b604051636f45999160e11b8152600490fd5b34610383576080366003190112610383576109c1613889565b6109c961389f565b604435906064356001600160401b038111610383576109ec9036906004016139f7565b9260045460ff8160a01c16600014610cc057303314159081610cac575b50610588575b6001600160a01b0382811694908515610686578415610c9a57807f000000000000000000000000000000000000000000000000000000000000000016921693828514600014610b4b576040516370a0823160e01b8152306004820152602081602481875afa908115610b3f57600091610b0d575b5060095480821115610afb57610a9891613a72565b8111610afb57610ad481600095600080516020615b8883398151915295610acc600854808511158a14610af5578490613a72565b6008556147dc565b610af06040519283928352604060208401526040830190613829565b0390a4005b80613a72565b604051631c7b597b60e11b8152600490fd5b90506020813d602011610b37575b81610b2860209383613660565b81010312610383575187610a83565b3d9150610b1b565b6040513d6000823e3d90fd5b9150918315600014610be6575060008052601a6020527fb75ecc04ed35f89790e98640e901bda41eceff0cb896cf2765fb69768025375054479080821115610bdd57610b9691613a72565b8111610afb57600080808084885af1610bad613e46565b5015610bcb57600091600080516020615b8883398151915291610ad4565b6040516331d436c760e01b8152600490fd5b50506000610b96565b909183600052601a6020526040600020604051906370a0823160e01b8252306004830152602082602481895afa918215610b3f57600092610c66575b505480821115610c5d57610c3591613a72565b8311610afb5782610c58600094600080516020615b8883398151915294876147dc565b610ad4565b50506000610c35565b9091506020813d602011610c92575b81610c8260209383613660565b8101031261038357519087610c22565b3d9150610c75565b6040516365e52d5160e11b8152600490fd5b6001600160a01b0316331415905085610a09565b50333014610a0f576040516327568d2f60e11b8152600490fd5b3461038357602036600319011261038357600435601454811015610d4a57600052601560205260c06040600020601881015490601981015490601d810154601b82015490601a601484015493015493604051958652602086015260408501526060840152608083015260a0820152f35b604051631dc0650160e31b8152600490fd5b34610383576040366003190112610383576024803580151591600435918381036103835733600052602091600f835260ff9182604060002054161561106f57601454851015610d4a5784600052601584526040600020918360045460a01c168061103d575b6103fd576013830193845442101561102b5733600052600f8652604060002092601a850193845480156000146110065750610e0690601d870154601488015491614e02565b610ff4575b6016850133600052808852826040600020541660178701808a528460406000205416928a526040600020600160ff198254161790558952610e5c8360406000209060ff801983541691151516179055565b610f83575015610f6b576011840180549060018201809211610f5657555b601c840154161580610f4d575b610ec3575b5050505060405192835242908301527fcbdf6214089cba887ecbf35a0b6a734589959c9763342c756bb2a80ca2bc9f6e60403393a3005b6018830154908115159182610f07575b5050610ee0575b80610e8c565b42905543601b8201556019601054910155610efd600d5442613a52565b9055838080610eda565b601185015461271080820294509192918115918504141715610f395750610f3090600c54613a5f565b11158780610ed3565b634e487b7160e01b60009081526011600452fd5b50815415610e87565b83634e487b7160e01b60005260116004526000fd5b6012840180549060018201809211610f565755610e7a565b90508881151503610f95575b50610e7a565b15610fc857601184018054600019810191908211610f5657556012840180549060018201809211610f5657555b88610f8f565b601284018054600019810191908211610f5657556011840180549060018201809211610f565755610fc2565b60405163f078ca7360e01b8152600490fd5b601b87015461101492614e02565b15610e0b5760405163f078ca7360e01b8152600490fd5b604051637a19ed0560e01b8152600490fd5b5083600184015460a01c16600a81101561105a5760051415610dc1565b50634e487b7160e01b60009081526021600452fd5b60405163148fe22160e11b8152600490fd5b3461038357602036600319011261038357600435601454811015610d4a576000526015602052604060002060ff601c8201541660001461116c5760138101544210158061115b575b905b61115760018060a01b036001830154169261114960118401549360128101549560138201549360ff601584015416611111600661110a60058701613723565b9501613723565b95604051998a99610100958b5260208b015260408a0152606089015215156080880152151560a08701528060c0870152850190613829565b9083820360e0850152613829565b0390f35b5060118101546012820154106110c9565b601a810154801561120e5760188201549081159182156111c4575b50600d5461119491613a52565b42101590816111bc575b50806111ab575b906110cb565b5060118101546012820154106111a5565b90508261119e565b9091506011830154612710908181029181830414901517156111f8576111ef61119492600c54613a5f565b11159190611187565b634e487b7160e01b600052601160045260246000fd5b506000906110cb565b346103835760003660031901126103835733600052600f60205260ff604060002054161561106f57611247613fbe565b61125033613f4e565b8015611325578061126660095460135490613a72565b106113135760125433600052600f60205260036040600020015560116020526040600020611295828254613a52565b90556112a381600954613a72565b6009556112da81337f00000000000000000000000000000000000000000000000000000000000000006001600160a01b03166147dc565b6040519081524260208201527f1c643327a899ca112a3300de75dd241ef8452e4f603609b53a20332da48b54e660403392a26001600055005b60405163bc6072f160e01b8152600490fd5b6040516373380d9960e01b8152600490fd5b34610383576000366003190112610383576040516370a0823160e01b81523060048201527f00000000000000000000000000000000000000000000000000000000000000006001600160a01b0316602082602481845afa8015610b3f57600090611436575b600954610140935090818082111561142c576113b791613a72565b905b600554916113c5613c55565b916001549160025493600354956040519788526020880152600060408801526060870152608086015260a085015260c084015260e08301526101008201527f0000000000000000000000000000000000000000000000000000000000000000610120820152f35b50506000906113b9565b506020823d602011611462575b8161145060209383613660565b8101031261038357610140915161139c565b3d9150611443565b34610383576000366003190112610383576040516370a0823160e01b81523060048201526001600160a01b036020826024817f000000000000000000000000000000000000000000000000000000000000000085165afa908115610b3f5760009161152a575b60095460609350918280821115611520576114ea91613a72565b915b60405192835260208301527f0000000000000000000000000000000000000000000000000000000000000000166040820152f35b50506000916114ec565b90506020823d602011611557575b8161154560209383613660565b810103126103835760609151906114d0565b3d9150611538565b34610383576020366003190112610383576004356001600160401b0381116103835761158f9036906004016138e2565b60045460ff8160a01c166000146115d8573033141590816115c4575b506105885761001a916115bf9136916139c0565b614bbf565b6001600160a01b03163314159050836115ab565b503033036105bf5761001a916115bf916104b6565b34610383576000366003190112610383576004546040516001600160a01b039091168152602090f35b346103835760e03660031901126103835761162f613889565b61163761389f565b6001600160401b0390606435828111610383576116589036906004016139f7565b9160a435818111610383576116719036906004016138e2565b60c435838111610383576116899036906004016138e2565b909260ff60045460a01c166103fd576007936103c36116ad926116b69536916139c0565b906084356141e4565b6001808201805460ff60a01b1916600160a11b1790556002820180546001600160a01b03199081166001600160a01b039a8b16179091556003830180549091169890961697909717909455604435600485015584519093919091019181116117dd5760209461172f8261172985546135f0565b85613bff565b8590601f83116001146117775750819061176293949560009261176c575b50508160011b916000199060031b1c19161790565b9055604051908152f35b01519050868061174d565b90601f198316958460005281600020926000905b8882106117c6575050836001959697106117ad575b505050811b0190556103f5565b015160001960f88460031b161c191690558580806117a0565b82840151855593840193928901929089019061178b565b634e487b7160e01b600052604160045260246000fd5b346103835760003660031901126103835760ff600a5416610996573033146109845761181d613fbe565b61097d3333614835565b3461038357600036600319011261038357611157611843613681565b604051918291602083526020830190613829565b6138c4565b34610383576000366003190112610383576020600354604051908152f35b346103835760203660031901126103835760206103f5600435613ea0565b34610383576020366003190112610383576118b16138b5565b60045460ff8160a01c169182600014611935573033141580611922575b610588575b151580921515146107285760ff60a01b191660a082901b60ff60a01b16176004556040519081527fa8adfe89c6bc95edbe7049ed316f0473a03af92b1fd027ce1ac670082467c62390602090a1005b50336001600160a01b03831614156118ce565b3330146118d3576040516327568d2f60e11b8152600490fd5b34610383576020366003190112610383576001600160a01b0361196f613889565b1660005260116020526020604060002054604051908152f35b346103835760203660031901126103835760206103f56119a6613889565b613e76565b3461038357600036600319011261038357602060405162278d008152f35b34610383576000366003190112610383576020601354604051908152f35b34610383576020366003190112610383576001600160a01b03611a08613889565b16600052600f602052602060ff604060002054166040519015158152f35b346103835760208060031936011261038357611a40613889565b9033600052600f815260ff604060002054161561106f57611a5f613fbe565b6001600160a01b0382811691907f0000000000000000000000000000000000000000000000000000000000000000168214611b745781600052601a815260406000209260ff6003850154161561132557611ab99033613a7f565b9283156113255780548481106113135784611af191600184015433600052601d86526040600020876000528652604060002055613a72565b905581611b4257600080808086335af1611b09613e46565b5015610bcb577f26cd6ba06f6dc02c61247f710e95c768f4856af03b740594288907c36bb217e9905b6040519384523393a36001600055005b7f26cd6ba06f6dc02c61247f710e95c768f4856af03b740594288907c36bb217e990611b6f8433856147dc565b611b32565b604051631c49f4d160e01b8152600490fd5b34610383576000366003190112610383576020601054604051908152f35b3461038357604036600319011261038357611bda611bc6602435600435613cbf565b604051928392604084526040840190613971565b90151560208301520390f35b3461038357366003190160608112610383576040136103835760045460ff8160a01c16600014611c4957303314159081611c35575b50610588575b61001a604435611c3036613c73565b61473b565b6001600160a01b0316331415905081611c1b565b50333014611c21576040516327568d2f60e11b8152600490fd5b346103835760203660031901126103835760043560045460ff8160a01c16600014611d1a57303314159081611d06575b50610588575b6010548115159081611cfc575b50611cea576020817fb63bcc75a862434e97db3146b78681478a2692253df1de5623d497ee61fac79992600b55604051908152a1611ce26153f8565b61001a615432565b604051633161e99d60e11b8152600490fd5b9050811082611ca6565b6001600160a01b0316331415905082611c93565b50333014611c99576040516327568d2f60e11b8152600490fd5b3461038357602036600319011261038357611d4d613889565b60045460ff8160a01c16600014611dd2573033141580611dbf575b610588575b6001600160a01b0391821691821561068657811690818314611b74576001600160a01b03191682176004557f0f3a6964a8ba1b7473a14630b029eae6d49bec6babf098223718bacaac7197cc600080a3005b50336001600160a01b0382161415611d68565b333014611d6d576040516327568d2f60e11b8152600490fd5b346103835760003660031901126103835760206103f5613c55565b3461038357600036600319011261038357602060ff600a54166040519015158152f35b34610383576080366003190112610383576001600160401b0360043581811161038357611e5a9036906004016138e2565b909160443581811161038357611e749036906004016138e2565b9060643583811161038357611e8d9036906004016138e2565b919060ff60045460a01c166103fd576103c3611eae92611eb79536916139c0565b906024356141e4565b6001818101805460ff60a01b1916600760a01b1790559193600d919091019290919082116117dd57611eed8261172985546135f0565b600090601f8311600114611f2c5750908061176292602096600092611f215750508160011b916000199060031b1c19161790565b01359050868061174d565b90601f198316846000526020926020600020936000915b838310611f83575050509583929160019460209810611f6957505050811b0190556103f5565b0135600019600384901b60f8161c191690558580806117a0565b898501358655948501949381019391810191611f43565b34610383576000366003190112610383576040517f00000000000000000000000000000000000000000000000000000000000000006001600160a01b03168152602090f35b34610383576000366003190112610383576020600d54604051908152f35b34610383576020366003190112610383576001600160a01b0361201e613889565b1660005260166020526020604060002054604051908152f35b34610383576020366003190112610383576001600160a01b03612058613889565b16600052601a6020526040600020805461115760026001840154930154604051938493846040919493926060820195825260208201520152565b34610383576000366003190112610383576020601254604051908152f35b34610383576000366003190112610383576040517f00000000000000000000000000000000000000000000000000000000000000006001600160a01b03168152602090f35b34610383576080366003190112610383576001600160401b03600435604435828111610383576121299036906004016138e2565b919092606435908111610383576121449036906004016138e2565b60ff60049492945460a01c166103fd578215158061219a575b611cea57611eae600e946103c36020976121789536916139c0565b60018101805460ff60a01b1916600360a11b1790559290920155604051908152f35b50601054831061215d565b34610383576000366003190112610383576020600954604051908152f35b34610383576020366003190112610383576001600160a01b036121e4613889565b16600052600f6020526060604060002060ff815416906002600182015491015490604051921515835260208301526040820152f35b3461038357602036600319011261038357612232613889565b6001600160a01b03818116907f0000000000000000000000000000000000000000000000000000000000000000168114611b7457600052601a60205260406000209060038201805460ff811615611b74578354158015906122bc575b6122aa5760006002858261001a9755015560ff1916905561463a565b60405163dda495d160e01b8152600490fd5b506002840154151561228e565b34610383576000366003190112610383576018546122e681613b5e565b9060009060005b81811061233f5750506122ff81613b5e565b9160005b828110612320576040516020808252819061115790820187613971565b8061232d60019284613beb565b516123388287613beb565b5201612303565b8061234b600192613b90565b90549060031b1c80600052601560205261236942604060002061461c565b612375575b50016122ed565b61238861238186613bdc565b9587613beb565b528561236e565b346103835761239d3661390f565b909493919260ff60045460a01c166103fd576020956103c36103cb926123c49636916139c0565b60018101805460ff60a01b1916600360a01b1790556002810180546001600160a01b0319166001600160a01b039485161790556004549192909133911614612410575b50604051908152f35b601c01805460ff1916600117905582612407565b346103835760403660031901126103835760043561244061389f565b601454821015610d4a576040916000526015602052816000209060018060a01b031660005260168101602052601760ff836000205416910160205260ff8260002054168251911515825215156020820152f35b34610383576000366003190112610383576020600854604051908152f35b34610383576020366003190112610383576124ca6138b5565b60045460ff8160a01c1660001461252c57303314159081612518575b50610588576020600080516020615b28833981519152915b151560ff19600a541660ff821617600a55604051908152a1005b6001600160a01b03163314159050826124e6565b503033036105bf576020600080516020615b28833981519152916124fe565b346103835760403660031901126103835760206103f5612569613889565b61257161389f565b90613a7f565b346103835760003660031901126103835760405180601b5480835260208093018091601b600052846000209060005b868282106126055786866125bc82880383613660565b604051928392818401908285525180915260408401929160005b8281106125e557505050500390f35b83516001600160a01b0316855286955093810193928101926001016125d6565b83546001600160a01b0316855290930192600192830192016125a6565b34610383576000366003190112610383576020600654604051908152f35b346103835760c036600319011261038357612659613889565b6024356044358015158103610383576064356084359160a4359360045460ff8160a01c1660001461284c57303314159081612838575b50610588575b6001600160a01b03958616801515908161280b575b506127f95780612779575b5061273c575b83600080516020615b0883398151915260a060055492600154600254600354916040519687526020870152604086015260608501527f000000000000000000000000000000000000000000000000000000000000000060808501527f00000000000000000000000000000000000000000000000000000000000000001692a2005b6127687f0000000000000000000000000000000000000000000000000000000000000000848484614e4d565b6001556002556003558180806126bb565b612782816153e6565b61278a613c55565b604051906127978261362a565b61279f6137c6565b80835281159081156127df575b50156127ca575050806006556005555b6127c46158c4565b856126b5565b6127d491836158b2565b6006556005556127bc565b6127e99150613fb1565b60038110156105215715896127ac565b60405163b078ee9d60e01b8152600490fd5b9050867f0000000000000000000000000000000000000000000000000000000000000000161415876126aa565b6001600160a01b031633141590508761268f565b50333014612695576040516327568d2f60e11b8152600490fd5b34610383576020806003193601126103835760043590612884613fbe565b601454821015610d4a57816000526015815260406000209160ff91600454928060a094851c1680613181575b6103fd57601c85019481865416808091613174575b61316257156130df575b60158101958654958387166130cd576011830154601284015410156130bb576001978860ff19809916179055878301908460018060a01b039283815416600052601788528160406000205416806130a9575b61308a575b54821c16600a811015610521578061299e575050505082600080516020615b2883398151915285946129999785600080516020615b68833981519152966008606097015416151591600a541690821617600a55604051908152a15b604080519188835282015260006040820152a2613fe1565b600055005b90939194929750888114600014612bcd575083600282015416916009820154975460081c1696600a82015490600c600b840154930154938015159081612ba0575b506127f95780612ac9575b50606093879693600080516020615b688339815191529693600080516020615b08833981519152936129999b612a8d575b505050600554928a5460025460035491604051968752878701526040860152868501527f000000000000000000000000000000000000000000000000000000000000000060808501527f00000000000000000000000000000000000000000000000000000000000000001692a2612981565b612ab97f0000000000000000000000000000000000000000000000000000000000000000848484614e4d565b8c556002556003558a8080612a1b565b612ad2816153e6565b612ada613c55565b60405190612ae78261362a565b612aef6137c6565b8083528115908115612b6a575b50936129999b606098948c9b9894600080516020615b688339815191529b9894600080516020615b0883398151915298600014612b55575050806006556005555b612b456158c4565b9b509350939650939650936129ea565b612b5f91836158b2565b600655600555612b3d565b612b7d9150999692989591979399613fb1565b936003851015610521579598949792969195909490939092919015612999612afc565b9050867f00000000000000000000000000000000000000000000000000000000000000001614158b6129df565b939650939290919060028103612e565750505083600283015416938060038401541691612c01600760048601549501613723565b918315610686578415610c9a577f00000000000000000000000000000000000000000000000000000000000000001692868403612d13576040516370a0823160e01b81523060048201528281602481885afa908115610b3f57600091612ce6575b5060095480821115610afb57612c7791613a72565b8511610afb576129999686600080516020615b8883398151915260609588612cc3849a87600080516020615b688339815191529b610acc60085480851115600014610af5578490613a72565b612cde60405192839283526040898401526040830190613829565b0390a4612981565b90508281813d8311612d0c575b612cfd8183613660565b81010312610383575189612c62565b503d612cf3565b959391925083612d945760008052601a81526040600020479054808211600014612d8b57612d4091613a72565b8211610afb576000808080858a5af1612d57613e46565b5015610bcb5761299995859485600080516020615b88833981519152600080516020615b6883398151915296606096612cc3565b50506000612d40565b83600052601a81526040600020604051906370a0823160e01b82523060048301528282602481895afa918215610b3f57600092612e27575b505480821115612e1e57612ddf91613a72565b8211610afb57858486600080516020615b88833981519152600080516020615b688339815191529686612e196060986129999d869c6147dc565b612cc3565b50506000612ddf565b9091508281813d8311612e4f575b612e3f8183613660565b8101031261038357519089612dcc565b503d612e35565b9295939260038103612e9057505050606061299994612e8b8580956002600080516020615b68833981519152960154166151c0565b612981565b9193929160048103612f0e575050600301548116915081156106865760045490811690818314611b74576001600160a01b0319168217600455612999938392600080516020615b688339815191529260609291907f0f3a6964a8ba1b7473a14630b029eae6d49bec6babf098223718bacaac7197cc600080a3612981565b90925060058103612f945750601e01546004549290811615159083831c16151581146107285760ff60a01b199092169082901b60ff60a01b1617600455604051908152612999928291600080516020615b68833981519152916060917fa8adfe89c6bc95edbe7049ed316f0473a03af92b1fd027ce1ac670082467c623908290a1612981565b9092509050600681036130165750600e0154601054811515908161300c575b50611cea57600080516020615b688339815191526060847fb63bcc75a862434e97db3146b78681478a2692253df1de5623d497ee61fac79961299996858796600b55604051908152a16130046153f8565b612e8b615432565b9050811085612fb3565b600781036130445750600080516020615b68833981519152606061299994612e8b6115bf600d879601613723565b600803611b7457600080516020615b68833981519152606061299994612e8b85946010604051916130748361362a565b613080600f82016137f8565b835201549061473b565b6017885260406000208a81541690556016885260006040812055612926565b50601688528860406000205414612921565b60405163c8c93ba360e01b8152600490fd5b604051630dc1019760e01b8152600490fd5b601a810154801561311257600d546130f691613a52565b42106131505760188101548015159081613124575b50156128cf575b60405163aa26a69360e01b8152600490fd5b6011830154612710808202935081159184041417156111f85761314990600c54613a5f565b118761310b565b60405163a905056160e01b8152600490fd5b604051633fc30bd160e11b8152600490fd5b50601382015442106128c5565b50806001860154851c16600a81101561052157600514156128b0565b34610383576020366003190112610383576001600160a01b036131be613889565b16600052600f6020526080604060002060ff8154169060018101549060036002820154910154916040519315158452602084015260408301526060820152f35b34610383576000366003190112610383576020600554604051908152f35b34610383576000366003190112610383576020600254604051908152f35b346103835760003660031901126103835760406132556137c6565b61326182518092613869565bf35b34610383576000366003190112610383576020600154604051908152f35b346103835760203660031901126103835760048035600090815260156020526040902061032081905280546103005260018101546101605260028101546001600160a01b039081166101405260038201541661034052908101546102e0526132eb90600501613723565b610360526132fe60066103205101613723565b61330d60076103205101613723565b60ff6008610320510154166102a052600961032051015491600a61032051015491600b61032051015493600c61032051015461028052613352600d6103205101613723565b6102c052600e610320510154610120526040519461336f8661362a565b61337e600f61032051016137f8565b86526010610320510154946011610320510154608052601261032051015460a052601361032051015460e05260146103205101546102605260ff60156103205101541661024052601861032051015461022052601961032051015461020052601a6103205101546101e052601b6103205101546101c052601c6103205101546101a052601d6103205101546101805260ff601e610320510154166101005260405160c0526103005160c0515260018060a01b036101605116602060c0510152600a60ff6101605160a01c161015610521576134d0613519946134bd6135349760ff6101605160a01c16604060c051015261014051606060c051015261034051608060c05101526102e05160a060c051015261040060c0805101526134ab61040060c0510161036051613829565b9060c051820360e060c0510152613829565b9060c051820361010060c0510152613829565b926102a051151561012060c051015261014060c051015261016060c051015261018060c0510152610280516101a060c051015260c05181036101c060c05101526102c051613829565b92610120516101e060c051015261020060c051019051613869565b61024060c051015260805161026060c051015260a05161028060c051015260e0516102a060c0510152610260516102c060c05101526102405115156102e060c05101526102205161030060c05101526102005161032060c05101526101e05161034060c05101526101c05161036060c051015260ff6101a05116151561038060c051015260ff6101a05160081c1615156103a060c0510152610180516103c060c05101526101005115156103e060c051015260c051900360c051f35b90600182811c92168015613620575b602083101461360a57565b634e487b7160e01b600052602260045260246000fd5b91607f16916135ff565b602081019081106001600160401b038211176117dd57604052565b604081019081106001600160401b038211176117dd57604052565b90601f801991011681019081106001600160401b038211176117dd57604052565b60405190600082600e5491613695836135f0565b80835260209360019081811690811561370357506001146136c1575b50506136bf92500383613660565b565b90939150600e60005281600020936000915b8183106136eb5750506136bf935082010138806136b1565b855488840185015294850194879450918301916136d3565b9150506136bf94925060ff191682840152151560051b82010138806136b1565b90604051918260008254613736816135f0565b908184526020946001916001811690816000146137a45750600114613765575b5050506136bf92500383613660565b600090815285812095935091905b81831061378c5750506136bf9350820101388080613756565b85548884018501529485019487945091830191613773565b925050506136bf94925060ff191682840152151560051b820101388080613756565b604051906137d382613645565b8160075460ff811660038110156105215760209163ffffffff91845260081c16910152565b9060405161380581613645565b80925460ff811660038110156105215760209163ffffffff91845260081c16910152565b919082519283825260005b848110613855575050826000602080949584010152601f8019910116010190565b602081830181015184830182015201613834565b805190600382101561052157602063ffffffff9181938552015116910152565b600435906001600160a01b038216820361038357565b602435906001600160a01b038216820361038357565b60043590811515820361038357565b3461038357600036600319011261038357602060405162093a808152f35b9181601f84011215610383578235916001600160401b038311610383576020838186019501011161038357565b6080600319820112610383576004356001600160a01b03811681036103835791602435916001600160401b03916044358381116103835782613953916004016138e2565b939093926064359182116103835761396d916004016138e2565b9091565b90815180825260208080930193019160005b828110613991575050505090565b835185529381019392810192600101613983565b6001600160401b0381116117dd57601f01601f191660200190565b9291926139cc826139a5565b916139da6040519384613660565b829481845281830111610383578281602093846000960137010152565b9080601f8301121561038357816020613a12933591016139c0565b90565b60806003198201126103835760043580151581036103835791602435916001600160401b03916044358381116103835782613953916004016138e2565b919082018092116111f857565b818102929181159184041417156111f857565b919082039182116111f857565b60018060a01b0380911690600092828452600f60205260ff60408520541615613b41578116907f0000000000000000000000000000000000000000000000000000000000000000168114613b3457808352601a602052604083209060ff60038301541615613b4157828452600f602052613b01604085206001840154936140f9565b928452601d60205260408420908452602052604083205491808310613b39575b5081811115613b3457613a129250613a72565b505090565b915038613b21565b50505090565b6001600160401b0381116117dd5760051b60200190565b90613b6882613b47565b613b756040519182613660565b8281528092613b86601f1991613b47565b0190602036910137565b601854811015613bab57601860005260206000200190600090565b634e487b7160e01b600052603260045260246000fd5b601b54811015613bab57601b60005260206000200190600090565b60001981146111f85760010190565b8051821015613bab5760209160051b010190565b90601f8111613c0d57505050565b6000916000526020600020906020601f850160051c83019410613c4b575b601f0160051c01915b828110613c4057505050565b818155600101613c34565b9092508290613c2b565b6010548015613c6d5760001981019081116111f85790565b50600090565b60409060031901126103835760405190613c8c8261362a565b60405182613c9982613645565b600435600381101561038357825260243563ffffffff8116810361038357602083015252565b919080158015613e3c575b613e2a576018549160009360005b848110613de3575084811015613dc357613cf183613b5e565b916000958694875b8888821080613dba575b15613d6d575080613d16613d6292613b90565b90549060031b1c806000526015602052613d3442604060002061461c565b15613d675786613d438a613bdc565b9910613d6757613d5c613d558c613bdc565b9b89613beb565b52613bdc565b613cf9565b50613bdc565b9397505050929350613d7e91613a52565b1092613d8981613b5e565b9160005b828110613d9b575050509190565b80613da860019284613beb565b51613db38287613beb565b5201613d8d565b50828110613d03565b5092505050604051613dd48161362a565b60008152600036813790600090565b613dec81613b90565b90549060031b1c6000526015602052613e0942604060002061461c565b613e16575b600101613cd8565b94613e22600191613bdc565b959050613e0e565b6040516381f396b760e01b8152600490fd5b5060648111613cca565b3d15613e71573d90613e57826139a5565b91613e656040519384613660565b82523d6000602084013e565b606090565b6001600160a01b03166000908152600f602052604090205460ff1615613e9b57600190565b600090565b906000906000908315613f4757601893601854908115613f3e5793905b80151580613f35575b15613f19576000198101908111613f2157613ee090613b90565b90549060031b1c8084526015602052613efc426040862061461c565b613f195790613f0d613f1292613fe1565b613bdc565b8454613ebd565b509350915050565b634e487b7160e01b84526011600452602484fd5b50848210613ec6565b50509250905090565b9250905090565b6001600160a01b03166000908152600f60205260409020805460ff1615613c6d576003601254910154808211600014613f8a57613a1291613a72565b5050600090565b8115613f9b570690565b634e487b7160e01b600052601260045260246000fd5b5160038110156105215790565b600260005414613fcf576002600055565b604051633ee5aeb560e01b8152600490fd5b6000908082526019602052604082205480156140d857600019908082018181116140c4576018548381019081116140b057808203614064575b50505060185480156140505781019061403282613b90565b909182549160031b1b19169055601855815260196020526040812055565b634e487b7160e01b84526031600452602484fd5b6140839161407461409c92613b90565b90549060031b1c928391613b90565b90919082549060031b91821b91600019901b1916179055565b84526019602052604084205538808061401a565b634e487b7160e01b86526011600452602486fd5b634e487b7160e01b85526011600452602485fd5b505050565b8054821015613bab5760005260206000209060011b0190600090565b9060048083019182549384156141d857506002810154600180920154906000955b80871061414a5750505050508115613f8a5760001982019182116111f857600191614144916140dd565b50015490565b6141548188613a52565b841c9061416182886140dd565b50546001600160401b039081811680861015614180575050505061411a565b9299928511156141b25750505083810180911161419d579561411a565b601185634e487b7160e01b6000525260246000fd5b91989160401c168410156141c6575061411a565b965083810180911161419d579561411a565b60010154949350505050565b919290926000923384526020600f815260409160ff83872054161561460b573386526017825260ff838720541661459b575b80614595575062093a80955b62093a8087106145845762278d008711614573576014549261424384613bdc565b60145583875260158352808720848155600180820180546001600160a01b03191633179055949890978995916142799042613a52565b9160138a019283554260148b015560058a018551906001600160401b039182811161455f576142b2816142ac84546135f0565b84613bff565b88601f82116001146145025790806142df9287916144f7575b508160011b916000199060031b1c19161790565b90555b885160068c0191811161443f576142fd816142ac84546135f0565b87601f821160011461449857908061432992869161448d57508160011b916000199060031b1c19161790565b90555b43601d8b015560158a019060ff199182815416905533835260168b018752848320818382541617905560178b01875284832081838254161790558060118c01558260128c01556010548060188d0155601a8c01848155601c8d0184815416905581151580614476575b614453575b5050601854600160401b81101561443f57857f0a3d356d942a35213f2f2e42f5c07221391ae9a4f16edaa23278b9f8068be7729897969461442b94846143ee8d6140838761443a9c99839901601855613b90565b60185485845260198c528484205533835260178b528383209182541617905560168952205554936060835196879687528601526060850190613829565b90838203908401523396613829565b0390a3565b634e487b7160e01b84526041600452602484fd5b42905543601b8d015560198c015561446d600d5442613a52565b8455388061439a565b5061448382600c54613a5f565b6127101015614395565b90508b0151386142cb565b828552888520849291601f198316878c8f5b8383106144e05750505083116144c7575b5050811b01905561432c565b8c015160001960f88460031b161c1916905538806144bb565b840151855588969094019392830192018c8f6144aa565b9050890151386142cb565b828652898620859291601f198316885b8d8d83831061454a575050508311614531575b5050811b0190556142e2565b8a015160001960f88460031b161c191690553880614525565b84015185558996909401939283019201614512565b634e487b7160e01b85526041600452602485fd5b825163eeeb962360e01b8152600490fd5b82516331806aeb60e21b8152600490fd5b95614222565b6016829695949396528585205485526015825285852060ff6015820154161590816145fd575b50156145d857855163792c310960e11b8152600490fd5b94919293943386526017825282862060ff198154169055601682528583812055614216565b6013915001544210386145c1565b825163148fe22160e11b8152600490fd5b90601382015411908161462d575090565b60ff915060150154161590565b6001600160a01b039081166000818152601c6020526040812054909290801561473557600019908082018181116140b057601b5490838201918211614721579081818693036146ce575b50505050601b5480156146ba57019061469c82613bc1565b909182549160031b1b19169055601b558152601c6020526040812055565b634e487b7160e01b85526031600452602485fd5b6146ee926146de61470c93613bc1565b90549060031b1c16928391613bc1565b90919060018060a01b038084549260031b9316831b921b1916179055565b8552601c602052604085205538828180614684565b634e487b7160e01b87526011600452602487fd5b50505050565b908061478d575061474c8151615839565b5180519060038210156105215760ff64ffffffff00602060075493015160081b1692169064ffffffffff191617176007556147856153f8565b6136bf6158c4565b614796816153e6565b6147a08251615839565b6006555180519060038210156105215760ff64ffffffff00602060075493015160081b1692169064ffffffffff191617176007556147856153f8565b60405163a9059cbb60e01b60208201526001600160a01b03909216602483015260448083019390935291815260808101916001600160401b038311828410176117dd576136bf9260405261548e565b8115613f9b570490565b6001600160a01b039182169182156106865782600052600f60205260406000209060ff825416614bad5760105492600b548015159081614ba2575b50614b905783614b83575b6005549361488b60015486615589565b9061489860035487615589565b6148c27f000000000000000000000000000000000000000000000000000000000000000088615589565b916148da836148d5846148d5888d613a72565b613a72565b966148e58389613a52565b6040516370a0823160e01b815287891660048201526020816024817f00000000000000000000000000000000000000000000000000000000000000008d165afa8015610b3f578b91600091614b4e575b5010614b3c57600160ff1983541617825542600183015543600283015560018301918284116111f857614a099260105583614b06575b600360125491015561497f89600854613a52565b60085561498e84600954613a52565b6009556149df867f0000000000000000000000000000000000000000000000000000000000000000898b7f0000000000000000000000000000000000000000000000000000000000000000166156a3565b3087897f0000000000000000000000000000000000000000000000000000000000000000166156a3565b614a57837f000000000000000000000000000000000000000000000000000000000000000087897f0000000000000000000000000000000000000000000000000000000000000000166156a3565b80614ac9575090610100949392917f1e609b99246f156bec3eb747e01ae03549c74e403e03208c30200ec52f26ade0966000935b604051998a5260208a01526040890152606088015260808701524260a08701524360c087015260e08601521692a3614ac1615432565b6136bf6153f8565b600019810195949392919086116111f8577f1e609b99246f156bec3eb747e01ae03549c74e403e03208c30200ec52f26ade0966101009693614a8b565b614b34614b1560135487613a52565b614b2986614b23818461482b565b92613f91565b601355601254613a52565b60125561496b565b604051631e9acf1760e31b8152600490fd5b9150506020813d602011614b7b575b81614b6a60209383613660565b81010312610383578a905138614935565b3d9150614b5d565b614b8b6154ea565b61487b565b6040516382b675f560e01b8152600490fd5b905084101538614870565b604051636826b7b960e11b8152600490fd5b604051600091600e8054614bd2816135f0565b80855260209485810191816001988986168981600014614de75750600114614da7575b614c0192500382613660565b51902083518585012014614da057614c17613681565b948351916001600160401b0383116117dd57614c32906135f0565b601f8111614d57575b508490601f8311600114614cca575092614cba92614c9683614cad97947f71e57b89fe30fe66cb93427236f86ec18c6ec404e26b5c0914ee88193dd07da59997600091614cbf57508160011b916000199060031b1c19161790565b90555b604051948594604086526040860190613829565b9184830390850152613829565b0390a1565b9050840151386142cb565b9190601f1982169084600052866000209160005b818110614d42575092614cba9592614cad989592827f71e57b89fe30fe66cb93427236f86ec18c6ec404e26b5c0914ee88193dd07da59b999610614d29575b5050811b019055614c99565b85015160001960f88460031b161c191690553880614d1d565b87830151845592850192918801918801614cde565b8360005285600020601f840160051c810191878510614d96575b601f0160051c019082905b828110614d8a575050614c3b565b60008155018290614d7c565b9091508190614d71565b5050505050565b5050846000528187806000208a6000915b858310614dce575050614c019350820101614bf5565b80919294505483858801015201910188908a8593614db8565b915050614c019260ff1987168652151560051b820101614bf5565b91908015614e45576002830154818111614e3c57149182614e2e575b5050614e2957600090565b600190565b600101541190503880614e1e565b50505050600190565b505050600090565b614e6792614e626127109593614e6293613a52565b613a52565b03614e6e57565b60405163542c8df360e11b8152600490fd5b6010549081156151ae576001600160a01b0381811692907f0000000000000000000000000000000000000000000000000000000000000000168381146150965750600083615020575047915b83600052601a60205260409283600020908154908181111561500f5790614ef291613a72565b9185600052601a60205260038560002001805460ff811615614f92575b5050509061443a82600095614f3584600080516020615b48833981519152979654613a52565b8255614f776002830192614f5e614f4d855488613a52565b97614f58818a61482b565b98613f91565b809460018301614f6f8a8254613a52565b905555615796565b51938493846040919493926060820195825260208201520152565b610100601b96959496541015614ffe5760ff19166001179055601b5493600160401b8510156117dd57600095614fe461443a936146ee886001600080516020615b488339815191529a01601b55613bc1565b601b54888852601c60205281882055958193949550614f0f565b8651636ff5066b60e11b8152600490fd5b8551631ab9ebab60e01b8152600490fd5b6040516370a0823160e01b8152306004820152602081602481885afa91821561508a578092615052575b505091614ecc565b9091506020823d602011615082575b8161506e60209383613660565b8101031261507f575051388061504a565b80fd5b3d9150615061565b604051903d90823e3d90fd5b6040516370a0823160e01b8152306004820152919250602090829060249082905afa908115610b3f5760009161517c575b50600954918282111561516a57826151146150f3600095600080516020615b4883398151915295613a72565b809261510c600854808411158914610af5578390613a72565b600855613a52565b60095561443a61513a61512960135484613a52565b93615134818661482b565b94613f91565b61514684601254613a52565b60125580601355604051938493846040919493926060820195825260208201520152565b604051631ab9ebab60e01b8152600490fd5b90506020813d6020116151a6575b8161519760209383613660565b810103126103835751386150c7565b3d915061518a565b604051630292d7c360e51b8152600490fd5b906010549182156151ae576001600160a01b0381811693907f00000000000000000000000000000000000000000000000000000000000000001684811461534057506000846152d9575047915b84600052601a60205260409283600020908154908181111561500f579061523391613a72565b9186600052601a60205260038560002001805460ff811615615272575b50505080600080516020615b4883398151915294614f358461443a9454613a52565b610100601b949394541015614ffe5760ff19166001179055601b5494600160401b8610156117dd576152c061443a936146ee886001600080516020615b488339815191529a01601b55613bc1565b601b5488600052601c6020528160002055948192615250565b6040516370a0823160e01b8152306004820152602081602481895afa91821561508a57809261530b575b50509161520d565b9091506020823d602011615338575b8161532760209383613660565b8101031261507f5750513880615303565b3d915061531a565b6040516370a0823160e01b81523060048201529250602090839060249082905afa918215610b3f576000926153b2575b506009548083111561516a5761511461539882600080516020615b4883398151915295613a72565b809261510c60085480841115600014610af5578390613a72565b9091506020813d6020116153de575b816153ce60209383613660565b8101031261038357519038615370565b3d91506153c1565b600a81106108c857600a90066108b657565b600654801561542f5761542a9061540d613c55565b906040519061541b8261362a565b6154236137c6565b825261592d565b600555565b50565b600b548015159081615481575b5080615474575b61544c57565b600160ff19600a541617600a55600080516020615b28833981519152602060405160018152a1565b5060ff600a541615615446565b905060105410153861543f565b906000602091828151910182855af115610b3f576000513d6154e157506001600160a01b0381163b155b6154bf5750565b604051635274afe760e01b81526001600160a01b039091166004820152602490fd5b600114156154b8565b601054801561542f57601b54906000805b8381106155085750505050565b80615514600192613bc1565b838060a01b0391549060031b1c168352601a602052836040842060028101805490811561558057615545848361482b565b918215615576576155709461555991613f91565b9055615569858301918254613a52565b9055615796565b016154fb565b5050505050615570565b50505050615570565b90600019818309818302918280831092039180830392146155f95761271090828211156155e6577fbc01a36e2eb1c432ca57a786c226809d495182a9930be0ded288ce703afb7e91940990828211900360fc1b910360041c170290565b634e487b7160005260116020526024601cfd5b505061271091500490565b612710916000198383099280830292838086109503948086039514615696578483111561567d579082910981600003821680920460028082600302188083028203028083028203028083028203028083028203028083028203028092029003029360018380600003040190848311900302920304170290565b82634e487b71600052156003026011186020526024601cfd5b505090613a12925061482b565b6040516323b872dd60e01b60208201526001600160a01b03928316602482015292909116604483015260648083019390935291815260a08101918183106001600160401b038411176117dd576136bf9260405261548e565b805467ffffffffffffffff60401b191660409290921b67ffffffffffffffff60401b16919091179055565b8054600160401b8110156117dd57615743916001820181556140dd565b9190916157805760406001916157796001600160401b03808351166001600160401b0319875416178655602083015116856156fb565b0151910155565b634e487b7160e01b600052600060045260246000fd5b6001600160401b036001820154906040519260608401848110838211176117dd5760405281431684526004602085019183421683526040860194855201938454801561582b5760001981019081116111f8576157f290866140dd565b509483865416848351161460001461581c57505060019291615816915116846156fb565b51910155565b92509250506136bf9250615726565b50925050506136bf91615726565b8051600381101561052157156158a257805160038110156105215760011461542f57805160038110156105215760021461587f576040516311c6799960e21b8152600490fd5b6020015163ffffffff161561589057565b6040516311c6799960e21b8152600490fd5b6020015163ffffffff1661589057565b91908115613b345751613a129261593f565b6040516158d08161362a565b6158e36158db6137c6565b808352613fb1565b906003821015610521577fb814f14355a407e33ede6180785edb3dd1922aef3f2c8020ae87bfba010f5c159163ffffffff60206040935101511660ff8351921682526020820152a1565b91908115613b345751613a12926159e6565b91801580156159d4575b613b345781516003811015610521576001146159a5578151600381101561052157600214615983576040516311c6799960e21b8152600490fd5b63ffffffff602061599693015116615aac565b801561589057613a1291615a8a565b63ffffffff60206159b893015116613a5f565b6127109081018091116111f857801561589057613a1291615a8a565b50815160038110156105215715615949565b9082158015615a78575b615a72578051600381101561052157600114615a47578051600381101561052157600214615a2a576040516311c6799960e21b8152600490fd5b613a129263ffffffff6020615a4193015116615aac565b90615589565b9163ffffffff6020615a5c9394015116613a5f565b6127109081018091116111f857613a1291615589565b50905090565b508051600381101561052157156159f0565b90615a958183615604565b908015613f9b57612710613a129309151590613a52565b908015615aff576127109190805b615ac357505090565b60018080831614615aee575b1c80615adc575b80615aba565b615ae7828293615589565b9150615ad6565b9282615af991615589565b92615acf565b50506127109056fea00a4448d1c98b3edafbf488446a8320c2cb278ba20dd49c7b5d41a7ebfd582bc2542ff58c47f8c0922a043c4b21423ecd816167eeab1dabfb51d56508d90a66f502c7eda43df8a8ec352065360db3486f90ce32849cf8182983d7939bfd3626af8f9d0e884d3306a083e846741a0bc4d75908e2b0ec63b558219652ae4c1b90d81f085560db5c809c425a15f00e3f2904e4fa46d6e8672ff2e671ccd6d9a231a26469706673582212201218bd554176af2c14f439812ccb6bf1f2c16cf5cfb74707ee37dae3741d0efa64736f6c63430008170033bb7b4a454dc3493923482f07822329ed19e8244eff582cc204f8554c3620c3fd",
  "linkReferences": {},
  "deployedLinkReferences": {}
}