{
  "_format": "hh-sol-artifact-1",
  "contractName": "TEMPL",
  "sourceName": "contracts/TEMPL.sol",
  "abi": [
    {
      "inputs": [
        {
          "internalType": "address",
          "name": "_priest",
          "type": "address"
        },
        {
          "internalType": "address",
          "name": "_protocolFeeRecipient",
          "type": "address"
        },
        {
          "internalType": "address",
          "name": "_token",
          "type": "address"
        },
        {
          "internalType": "uint256",
          "name": "_entryFee",
          "type": "uint256"
        }
      ],
      "stateMutability": "nonpayable",
      "type": "constructor"
    },
    {
      "inputs": [],
      "name": "ActiveProposalExists",
      "type": "error"
    },
    {
      "inputs": [],
      "name": "AlreadyExecuted",
      "type": "error"
    },
    {
      "inputs": [],
      "name": "AlreadyPurchased",
      "type": "error"
    },
    {
      "inputs": [],
      "name": "AmountZero",
      "type": "error"
    },
    {
      "inputs": [],
      "name": "CallDataRequired",
      "type": "error"
    },
    {
      "inputs": [],
      "name": "CallDataTooShort",
      "type": "error"
    },
    {
      "inputs": [],
      "name": "ContractPausedError",
      "type": "error"
    },
    {
      "inputs": [],
      "name": "DescriptionRequired",
      "type": "error"
    },
    {
      "inputs": [],
      "name": "EntryFeeTooSmall",
      "type": "error"
    },
    {
      "inputs": [],
      "name": "InsufficientBalance",
      "type": "error"
    },
    {
      "inputs": [],
      "name": "InsufficientPoolBalance",
      "type": "error"
    },
    {
      "inputs": [],
      "name": "InsufficientTreasuryBalance",
      "type": "error"
    },
    {
      "inputs": [],
      "name": "InvalidCallData",
      "type": "error"
    },
    {
      "inputs": [],
      "name": "InvalidEntryFee",
      "type": "error"
    },
    {
      "inputs": [],
      "name": "InvalidProposal",
      "type": "error"
    },
    {
      "inputs": [],
      "name": "InvalidRecipient",
      "type": "error"
    },
    {
      "inputs": [],
      "name": "InvalidSender",
      "type": "error"
    },
    {
      "inputs": [],
      "name": "JoinedAfterProposal",
      "type": "error"
    },
    {
      "inputs": [],
      "name": "LimitOutOfRange",
      "type": "error"
    },
    {
      "inputs": [],
      "name": "NoRewardsToClaim",
      "type": "error"
    },
    {
      "inputs": [],
      "name": "NoTreasuryFunds",
      "type": "error"
    },
    {
      "inputs": [],
      "name": "NotDAO",
      "type": "error"
    },
    {
      "inputs": [],
      "name": "NotMember",
      "type": "error"
    },
    {
      "inputs": [],
      "name": "ProposalExecutionFailed",
      "type": "error"
    },
    {
      "inputs": [],
      "name": "ProposalNotPassed",
      "type": "error"
    },
    {
      "inputs": [],
      "name": "ReentrancyGuardReentrantCall",
      "type": "error"
    },
    {
      "inputs": [
        {
          "internalType": "address",
          "name": "token",
          "type": "address"
        }
      ],
      "name": "SafeERC20FailedOperation",
      "type": "error"
    },
    {
      "inputs": [],
      "name": "TitleRequired",
      "type": "error"
    },
    {
      "inputs": [],
      "name": "TokenChangeDisabled",
      "type": "error"
    },
    {
      "inputs": [],
      "name": "VotingEnded",
      "type": "error"
    },
    {
      "inputs": [],
      "name": "VotingNotEnded",
      "type": "error"
    },
    {
      "inputs": [],
      "name": "VotingPeriodTooLong",
      "type": "error"
    },
    {
      "inputs": [],
      "name": "VotingPeriodTooShort",
      "type": "error"
    },
    {
      "anonymous": false,
      "inputs": [
        {
          "indexed": true,
          "internalType": "address",
          "name": "purchaser",
          "type": "address"
        },
        {
          "indexed": false,
          "internalType": "uint256",
          "name": "totalAmount",
          "type": "uint256"
        },
        {
          "indexed": false,
          "internalType": "uint256",
          "name": "burnedAmount",
          "type": "uint256"
        },
        {
          "indexed": false,
          "internalType": "uint256",
          "name": "treasuryAmount",
          "type": "uint256"
        },
        {
          "indexed": false,
          "internalType": "uint256",
          "name": "memberPoolAmount",
          "type": "uint256"
        },
        {
          "indexed": false,
          "internalType": "uint256",
          "name": "protocolAmount",
          "type": "uint256"
        },
        {
          "indexed": false,
          "internalType": "uint256",
          "name": "timestamp",
          "type": "uint256"
        },
        {
          "indexed": false,
          "internalType": "uint256",
          "name": "blockNumber",
          "type": "uint256"
        },
        {
          "indexed": false,
          "internalType": "uint256",
          "name": "purchaseId",
          "type": "uint256"
        }
      ],
      "name": "AccessPurchased",
      "type": "event"
    },
    {
      "anonymous": false,
      "inputs": [
        {
          "indexed": true,
          "internalType": "address",
          "name": "token",
          "type": "address"
        },
        {
          "indexed": false,
          "internalType": "uint256",
          "name": "entryFee",
          "type": "uint256"
        }
      ],
      "name": "ConfigUpdated",
      "type": "event"
    },
    {
      "anonymous": false,
      "inputs": [
        {
          "indexed": false,
          "internalType": "bool",
          "name": "isPaused",
          "type": "bool"
        }
      ],
      "name": "ContractPaused",
      "type": "event"
    },
    {
      "anonymous": false,
      "inputs": [
        {
          "indexed": true,
          "internalType": "address",
          "name": "member",
          "type": "address"
        },
        {
          "indexed": false,
          "internalType": "uint256",
          "name": "amount",
          "type": "uint256"
        },
        {
          "indexed": false,
          "internalType": "uint256",
          "name": "timestamp",
          "type": "uint256"
        }
      ],
      "name": "MemberPoolClaimed",
      "type": "event"
    },
    {
      "anonymous": false,
      "inputs": [
        {
          "indexed": true,
          "internalType": "uint256",
          "name": "proposalId",
          "type": "uint256"
        },
        {
          "indexed": true,
          "internalType": "address",
          "name": "proposer",
          "type": "address"
        },
        {
          "indexed": false,
          "internalType": "string",
          "name": "title",
          "type": "string"
        },
        {
          "indexed": false,
          "internalType": "uint256",
          "name": "endTime",
          "type": "uint256"
        }
      ],
      "name": "ProposalCreated",
      "type": "event"
    },
    {
      "anonymous": false,
      "inputs": [
        {
          "indexed": true,
          "internalType": "uint256",
          "name": "proposalId",
          "type": "uint256"
        },
        {
          "indexed": false,
          "internalType": "bool",
          "name": "success",
          "type": "bool"
        },
        {
          "indexed": false,
          "internalType": "bytes",
          "name": "returnData",
          "type": "bytes"
        }
      ],
      "name": "ProposalExecuted",
      "type": "event"
    },
    {
      "anonymous": false,
      "inputs": [
        {
          "indexed": true,
          "internalType": "uint256",
          "name": "proposalId",
          "type": "uint256"
        },
        {
          "indexed": true,
          "internalType": "address",
          "name": "recipient",
          "type": "address"
        },
        {
          "indexed": false,
          "internalType": "uint256",
          "name": "amount",
          "type": "uint256"
        },
        {
          "indexed": false,
          "internalType": "string",
          "name": "description",
          "type": "string"
        }
      ],
      "name": "TreasuryAction",
      "type": "event"
    },
    {
      "anonymous": false,
      "inputs": [
        {
          "indexed": true,
          "internalType": "uint256",
          "name": "proposalId",
          "type": "uint256"
        },
        {
          "indexed": true,
          "internalType": "address",
          "name": "voter",
          "type": "address"
        },
        {
          "indexed": false,
          "internalType": "bool",
          "name": "support",
          "type": "bool"
        },
        {
          "indexed": false,
          "internalType": "uint256",
          "name": "timestamp",
          "type": "uint256"
        }
      ],
      "name": "VoteCast",
      "type": "event"
    },
    {
      "inputs": [],
      "name": "DEFAULT_VOTING_PERIOD",
      "outputs": [
        {
          "internalType": "uint256",
          "name": "",
          "type": "uint256"
        }
      ],
      "stateMutability": "view",
      "type": "function"
    },
    {
      "inputs": [],
      "name": "MAX_VOTING_PERIOD",
      "outputs": [
        {
          "internalType": "uint256",
          "name": "",
          "type": "uint256"
        }
      ],
      "stateMutability": "view",
      "type": "function"
    },
    {
      "inputs": [],
      "name": "MIN_VOTING_PERIOD",
      "outputs": [
        {
          "internalType": "uint256",
          "name": "",
          "type": "uint256"
        }
      ],
      "stateMutability": "view",
      "type": "function"
    },
    {
      "inputs": [],
      "name": "accessToken",
      "outputs": [
        {
          "internalType": "address",
          "name": "",
          "type": "address"
        }
      ],
      "stateMutability": "view",
      "type": "function"
    },
    {
      "inputs": [
        {
          "internalType": "address",
          "name": "",
          "type": "address"
        }
      ],
      "name": "activeProposalId",
      "outputs": [
        {
          "internalType": "uint256",
          "name": "",
          "type": "uint256"
        }
      ],
      "stateMutability": "view",
      "type": "function"
    },
    {
      "inputs": [],
      "name": "claimMemberPool",
      "outputs": [],
      "stateMutability": "nonpayable",
      "type": "function"
    },
    {
      "inputs": [
        {
          "internalType": "string",
          "name": "_title",
          "type": "string"
        },
        {
          "internalType": "string",
          "name": "_description",
          "type": "string"
        },
        {
          "internalType": "bytes",
          "name": "_callData",
          "type": "bytes"
        },
        {
          "internalType": "uint256",
          "name": "_votingPeriod",
          "type": "uint256"
        }
      ],
      "name": "createProposal",
      "outputs": [
        {
          "internalType": "uint256",
          "name": "",
          "type": "uint256"
        }
      ],
      "stateMutability": "nonpayable",
      "type": "function"
    },
    {
      "inputs": [],
      "name": "cumulativeMemberRewards",
      "outputs": [
        {
          "internalType": "uint256",
          "name": "",
          "type": "uint256"
        }
      ],
      "stateMutability": "view",
      "type": "function"
    },
    {
      "inputs": [],
      "name": "entryFee",
      "outputs": [
        {
          "internalType": "uint256",
          "name": "",
          "type": "uint256"
        }
      ],
      "stateMutability": "view",
      "type": "function"
    },
    {
      "inputs": [
        {
          "internalType": "uint256",
          "name": "_proposalId",
          "type": "uint256"
        }
      ],
      "name": "executeProposal",
      "outputs": [],
      "stateMutability": "nonpayable",
      "type": "function"
    },
    {
      "inputs": [],
      "name": "getActiveProposals",
      "outputs": [
        {
          "internalType": "uint256[]",
          "name": "",
          "type": "uint256[]"
        }
      ],
      "stateMutability": "view",
      "type": "function"
    },
    {
      "inputs": [
        {
          "internalType": "uint256",
          "name": "offset",
          "type": "uint256"
        },
        {
          "internalType": "uint256",
          "name": "limit",
          "type": "uint256"
        }
      ],
      "name": "getActiveProposalsPaginated",
      "outputs": [
        {
          "internalType": "uint256[]",
          "name": "proposalIds",
          "type": "uint256[]"
        },
        {
          "internalType": "bool",
          "name": "hasMore",
          "type": "bool"
        }
      ],
      "stateMutability": "view",
      "type": "function"
    },
    {
      "inputs": [
        {
          "internalType": "address",
          "name": "member",
          "type": "address"
        }
      ],
      "name": "getClaimablePoolAmount",
      "outputs": [
        {
          "internalType": "uint256",
          "name": "",
          "type": "uint256"
        }
      ],
      "stateMutability": "view",
      "type": "function"
    },
    {
      "inputs": [],
      "name": "getConfig",
      "outputs": [
        {
          "internalType": "address",
          "name": "token",
          "type": "address"
        },
        {
          "internalType": "uint256",
          "name": "fee",
          "type": "uint256"
        },
        {
          "internalType": "bool",
          "name": "isPaused",
          "type": "bool"
        },
        {
          "internalType": "uint256",
          "name": "purchases",
          "type": "uint256"
        },
        {
          "internalType": "uint256",
          "name": "treasury",
          "type": "uint256"
        },
        {
          "internalType": "uint256",
          "name": "pool",
          "type": "uint256"
        }
      ],
      "stateMutability": "view",
      "type": "function"
    },
    {
      "inputs": [],
      "name": "getMemberCount",
      "outputs": [
        {
          "internalType": "uint256",
          "name": "",
          "type": "uint256"
        }
      ],
      "stateMutability": "view",
      "type": "function"
    },
    {
      "inputs": [
        {
          "internalType": "uint256",
          "name": "_proposalId",
          "type": "uint256"
        }
      ],
      "name": "getProposal",
      "outputs": [
        {
          "internalType": "address",
          "name": "proposer",
          "type": "address"
        },
        {
          "internalType": "string",
          "name": "title",
          "type": "string"
        },
        {
          "internalType": "string",
          "name": "description",
          "type": "string"
        },
        {
          "internalType": "uint256",
          "name": "yesVotes",
          "type": "uint256"
        },
        {
          "internalType": "uint256",
          "name": "noVotes",
          "type": "uint256"
        },
        {
          "internalType": "uint256",
          "name": "endTime",
          "type": "uint256"
        },
        {
          "internalType": "bool",
          "name": "executed",
          "type": "bool"
        },
        {
          "internalType": "bool",
          "name": "passed",
          "type": "bool"
        }
      ],
      "stateMutability": "view",
      "type": "function"
    },
    {
      "inputs": [
        {
          "internalType": "address",
          "name": "user",
          "type": "address"
        }
      ],
      "name": "getPurchaseDetails",
      "outputs": [
        {
          "internalType": "bool",
          "name": "purchased",
          "type": "bool"
        },
        {
          "internalType": "uint256",
          "name": "timestamp",
          "type": "uint256"
        },
        {
          "internalType": "uint256",
          "name": "blockNum",
          "type": "uint256"
        }
      ],
      "stateMutability": "view",
      "type": "function"
    },
    {
      "inputs": [],
      "name": "getTreasuryInfo",
      "outputs": [
        {
          "internalType": "uint256",
          "name": "treasury",
          "type": "uint256"
        },
        {
          "internalType": "uint256",
          "name": "memberPool",
          "type": "uint256"
        },
        {
          "internalType": "uint256",
          "name": "totalReceived",
          "type": "uint256"
        },
        {
          "internalType": "uint256",
          "name": "totalBurnedAmount",
          "type": "uint256"
        },
        {
          "internalType": "uint256",
          "name": "totalProtocolFees",
          "type": "uint256"
        },
        {
          "internalType": "address",
          "name": "protocolAddress",
          "type": "address"
        }
      ],
      "stateMutability": "view",
      "type": "function"
    },
    {
      "inputs": [
        {
          "internalType": "address",
          "name": "voter",
          "type": "address"
        }
      ],
      "name": "getVoteWeight",
      "outputs": [
        {
          "internalType": "uint256",
          "name": "",
          "type": "uint256"
        }
      ],
      "stateMutability": "view",
      "type": "function"
    },
    {
      "inputs": [
        {
          "internalType": "address",
          "name": "user",
          "type": "address"
        }
      ],
      "name": "hasAccess",
      "outputs": [
        {
          "internalType": "bool",
          "name": "",
          "type": "bool"
        }
      ],
      "stateMutability": "view",
      "type": "function"
    },
    {
      "inputs": [
        {
          "internalType": "address",
          "name": "",
          "type": "address"
        }
      ],
      "name": "hasActiveProposal",
      "outputs": [
        {
          "internalType": "bool",
          "name": "",
          "type": "bool"
        }
      ],
      "stateMutability": "view",
      "type": "function"
    },
    {
      "inputs": [
        {
          "internalType": "uint256",
          "name": "_proposalId",
          "type": "uint256"
        },
        {
          "internalType": "address",
          "name": "_voter",
          "type": "address"
        }
      ],
      "name": "hasVoted",
      "outputs": [
        {
          "internalType": "bool",
          "name": "voted",
          "type": "bool"
        },
        {
          "internalType": "bool",
          "name": "support",
          "type": "bool"
        }
      ],
      "stateMutability": "view",
      "type": "function"
    },
    {
      "inputs": [
        {
          "internalType": "address",
          "name": "",
          "type": "address"
        }
      ],
      "name": "memberIndex",
      "outputs": [
        {
          "internalType": "uint256",
          "name": "",
          "type": "uint256"
        }
      ],
      "stateMutability": "view",
      "type": "function"
    },
    {
      "inputs": [
        {
          "internalType": "uint256",
          "name": "",
          "type": "uint256"
        }
      ],
      "name": "memberList",
      "outputs": [
        {
          "internalType": "address",
          "name": "",
          "type": "address"
        }
      ],
      "stateMutability": "view",
      "type": "function"
    },
    {
      "inputs": [],
      "name": "memberPoolBalance",
      "outputs": [
        {
          "internalType": "uint256",
          "name": "",
          "type": "uint256"
        }
      ],
      "stateMutability": "view",
      "type": "function"
    },
    {
      "inputs": [
        {
          "internalType": "address",
          "name": "",
          "type": "address"
        }
      ],
      "name": "memberPoolClaims",
      "outputs": [
        {
          "internalType": "uint256",
          "name": "",
          "type": "uint256"
        }
      ],
      "stateMutability": "view",
      "type": "function"
    },
    {
      "inputs": [],
      "name": "memberRewardRemainder",
      "outputs": [
        {
          "internalType": "uint256",
          "name": "",
          "type": "uint256"
        }
      ],
      "stateMutability": "view",
      "type": "function"
    },
    {
      "inputs": [
        {
          "internalType": "address",
          "name": "",
          "type": "address"
        }
      ],
      "name": "members",
      "outputs": [
        {
          "internalType": "bool",
          "name": "purchased",
          "type": "bool"
        },
        {
          "internalType": "uint256",
          "name": "timestamp",
          "type": "uint256"
        },
        {
          "internalType": "uint256",
          "name": "block",
          "type": "uint256"
        },
        {
          "internalType": "uint256",
          "name": "rewardSnapshot",
          "type": "uint256"
        }
      ],
      "stateMutability": "view",
      "type": "function"
    },
    {
      "inputs": [],
      "name": "paused",
      "outputs": [
        {
          "internalType": "bool",
          "name": "",
          "type": "bool"
        }
      ],
      "stateMutability": "view",
      "type": "function"
    },
    {
      "inputs": [],
      "name": "priest",
      "outputs": [
        {
          "internalType": "address",
          "name": "",
          "type": "address"
        }
      ],
      "stateMutability": "view",
      "type": "function"
    },
    {
      "inputs": [],
      "name": "proposalCount",
      "outputs": [
        {
          "internalType": "uint256",
          "name": "",
          "type": "uint256"
        }
      ],
      "stateMutability": "view",
      "type": "function"
    },
    {
      "inputs": [
        {
          "internalType": "uint256",
          "name": "",
          "type": "uint256"
        }
      ],
      "name": "proposals",
      "outputs": [
        {
          "internalType": "uint256",
          "name": "id",
          "type": "uint256"
        },
        {
          "internalType": "address",
          "name": "proposer",
          "type": "address"
        },
        {
          "internalType": "string",
          "name": "title",
          "type": "string"
        },
        {
          "internalType": "string",
          "name": "description",
          "type": "string"
        },
        {
          "internalType": "bytes",
          "name": "callData",
          "type": "bytes"
        },
        {
          "internalType": "uint256",
          "name": "yesVotes",
          "type": "uint256"
        },
        {
          "internalType": "uint256",
          "name": "noVotes",
          "type": "uint256"
        },
        {
          "internalType": "uint256",
          "name": "endTime",
          "type": "uint256"
        },
        {
          "internalType": "uint256",
          "name": "createdAt",
          "type": "uint256"
        },
        {
          "internalType": "uint256",
          "name": "eligibleVoters",
          "type": "uint256"
        },
        {
          "internalType": "bool",
          "name": "executed",
          "type": "bool"
        }
      ],
      "stateMutability": "view",
      "type": "function"
    },
    {
      "inputs": [],
      "name": "protocolFeeRecipient",
      "outputs": [
        {
          "internalType": "address",
          "name": "",
          "type": "address"
        }
      ],
      "stateMutability": "view",
      "type": "function"
    },
    {
      "inputs": [],
      "name": "purchaseAccess",
      "outputs": [],
      "stateMutability": "nonpayable",
      "type": "function"
    },
    {
      "inputs": [
        {
          "internalType": "bool",
          "name": "_paused",
          "type": "bool"
        }
      ],
      "name": "setPausedDAO",
      "outputs": [],
      "stateMutability": "nonpayable",
      "type": "function"
    },
    {
      "inputs": [],
      "name": "totalBurned",
      "outputs": [
        {
          "internalType": "uint256",
          "name": "",
          "type": "uint256"
        }
      ],
      "stateMutability": "view",
      "type": "function"
    },
    {
      "inputs": [],
      "name": "totalPurchases",
      "outputs": [
        {
          "internalType": "uint256",
          "name": "",
          "type": "uint256"
        }
      ],
      "stateMutability": "view",
      "type": "function"
    },
    {
      "inputs": [],
      "name": "totalToMemberPool",
      "outputs": [
        {
          "internalType": "uint256",
          "name": "",
          "type": "uint256"
        }
      ],
      "stateMutability": "view",
      "type": "function"
    },
    {
      "inputs": [],
      "name": "totalToProtocol",
      "outputs": [
        {
          "internalType": "uint256",
          "name": "",
          "type": "uint256"
        }
      ],
      "stateMutability": "view",
      "type": "function"
    },
    {
      "inputs": [],
      "name": "totalToTreasury",
      "outputs": [
        {
          "internalType": "uint256",
          "name": "",
          "type": "uint256"
        }
      ],
      "stateMutability": "view",
      "type": "function"
    },
    {
      "inputs": [],
      "name": "treasuryBalance",
      "outputs": [
        {
          "internalType": "uint256",
          "name": "",
          "type": "uint256"
        }
      ],
      "stateMutability": "view",
      "type": "function"
    },
    {
      "inputs": [
        {
          "internalType": "address",
          "name": "_token",
          "type": "address"
        },
        {
          "internalType": "uint256",
          "name": "_entryFee",
          "type": "uint256"
        }
      ],
      "name": "updateConfigDAO",
      "outputs": [],
      "stateMutability": "nonpayable",
      "type": "function"
    },
    {
      "inputs": [
        {
          "internalType": "uint256",
          "name": "_proposalId",
          "type": "uint256"
        },
        {
          "internalType": "bool",
          "name": "_support",
          "type": "bool"
        }
      ],
      "name": "vote",
      "outputs": [],
      "stateMutability": "nonpayable",
      "type": "function"
    },
    {
      "inputs": [
        {
          "internalType": "address",
          "name": "recipient",
          "type": "address"
        },
        {
          "internalType": "string",
          "name": "reason",
          "type": "string"
        }
      ],
      "name": "withdrawAllTreasuryDAO",
      "outputs": [],
      "stateMutability": "nonpayable",
      "type": "function"
    },
    {
      "inputs": [
        {
          "internalType": "address",
          "name": "recipient",
          "type": "address"
        },
        {
          "internalType": "uint256",
          "name": "amount",
          "type": "uint256"
        },
        {
          "internalType": "string",
          "name": "reason",
          "type": "string"
        }
      ],
      "name": "withdrawTreasuryDAO",
      "outputs": [],
      "stateMutability": "nonpayable",
      "type": "function"
    },
    {
      "stateMutability": "payable",
      "type": "receive"
    }
  ],
  "bytecode": "0x60c06040526000196010553480156200001757600080fd5b5060405162002dbc38038062002dbc8339810160408190526200003a916200015a565b60016000556001600160a01b03841615806200005d57506001600160a01b038316155b806200007057506001600160a01b038216155b156200008f57604051634e46966960e11b815260040160405180910390fd5b80600003620000b1576040516365e52d5160e11b815260040160405180910390fd5b600a811015620000d457604051635eee050360e11b815260040160405180910390fd5b620000e1600a82620001ac565b156200010057604051636fe6a4c960e01b815260040160405180910390fd5b6001600160a01b0393841660805291831660a052600180546001600160a01b03191691909316179091556002556005805460ff19169055620001cf565b80516001600160a01b03811681146200015557600080fd5b919050565b600080600080608085870312156200017157600080fd5b6200017c856200013d565b93506200018c602086016200013d565b92506200019c604086016200013d565b6060959095015193969295505050565b600082620001ca57634e487b7160e01b600052601260045260246000fd5b500690565b60805160a051612bb96200020360003960008181610585015281816107cb0152611a9f015260006107750152612bb96000f3fe6080604052600436106102765760003560e01c80638f78bbc41161014f578063bebc8fc0116100c1578063d3493ced1161007a578063d3493ced146108d4578063d89135cd146108f4578063da35c6641461090a578063e243c5fb14610920578063f7158b2a14610940578063ffafe4ad1461095557600080fd5b8063bebc8fc014610763578063c1b57edb14610797578063c2939471146107ad578063c3f909d414610820578063c7f758a814610880578063c9d27afe146108b457600080fd5b8063a64e024a11610113578063a64e024a146106c9578063a730117e146106e0578063a81bbe3c14610700578063aedfe53f14610390578063b307fc6d1461072d578063bdb75b341461074d57600080fd5b80638f78bbc41461062257806395a078e814610650578063997072f71461068957806399e288d81461069e578063a51a46b9146106b357600080fd5b806354403801116101e85780635fa7ddf0116101ac5780635fa7ddf0146104f957806364653f291461050f57806364df049e14610573578063653724d6146105bf5780636898b19c146105df5780636ad18550146105f557600080fd5b806354403801146104615780635584c4f9146104815780635962a941146104a357806359c266ff146104b95780635c975abb146104cf57600080fd5b8063215809ca1161023a578063215809ca14610390578063313dab20146103a757806332d084bb146103bd5780633dd35279146103dd578063438596321461040a578063524ddc231461044157600080fd5b8063013cf08b14610282578063072ea61c146102c257806308ae4b0c146102e65780630d61b5191461034e5780631808022a1461037057600080fd5b3661027d57005b600080fd5b34801561028e57600080fd5b506102a261029d366004612422565b610985565b6040516102b99b9a9998979695949392919061248b565b60405180910390f35b3480156102ce57600080fd5b506102d860025481565b6040519081526020016102b9565b3480156102f257600080fd5b5061032c610301366004612535565b600660205260009081526040902080546001820154600283015460039093015460ff90921692909184565b60408051941515855260208501939093529183015260608201526080016102b9565b34801561035a57600080fd5b5061036e610369366004612422565b610b80565b005b34801561037c57600080fd5b506102d861038b366004612535565b610da7565b34801561039c57600080fd5b506102d862093a8081565b3480156103b357600080fd5b506102d860035481565b3480156103c957600080fd5b506102d86103d8366004612603565b610e0e565b3480156103e957600080fd5b506102d86103f8366004612535565b60086020526000908152604090205481565b34801561041657600080fd5b5061042a6104253660046126a7565b611118565b6040805192151583529015156020830152016102b9565b34801561044d57600080fd5b5061036e61045c3660046126d3565b611181565b34801561046d57600080fd5b5061036e61047c3660046126fd565b611285565b34801561048d57600080fd5b506104966113af565b6040516102b99190612790565b3480156104af57600080fd5b506102d860115481565b3480156104c557600080fd5b506102d860155481565b3480156104db57600080fd5b506005546104e99060ff1681565b60405190151581526020016102b9565b34801561050557600080fd5b506102d860045481565b34801561051b57600080fd5b5061055661052a366004612535565b6001600160a01b031660009081526006602052604090208054600182015460029092015460ff90911692565b6040805193151584526020840192909252908201526060016102b9565b34801561057f57600080fd5b506105a77f000000000000000000000000000000000000000000000000000000000000000081565b6040516001600160a01b0390911681526020016102b9565b3480156105cb57600080fd5b5061036e6105da3660046127b3565b6114d5565b3480156105eb57600080fd5b506102d8600a5481565b34801561060157600080fd5b506102d8610610366004612535565b600e6020526000908152604090205481565b34801561062e57600080fd5b5061064261063d3660046127ce565b61153c565b6040516102b99291906127f0565b34801561065c57600080fd5b506104e961066b366004612535565b6001600160a01b031660009081526006602052604090205460ff1690565b34801561069557600080fd5b506007546102d8565b3480156106aa57600080fd5b5061036e61176d565b3480156106bf57600080fd5b506102d8600b5481565b3480156106d557600080fd5b506102d862278d0081565b3480156106ec57600080fd5b506102d86106fb366004612535565b611b55565b34801561070c57600080fd5b506102d861071b366004612535565b60096020526000908152604090205481565b34801561073957600080fd5b506105a7610748366004612422565b611b85565b34801561075957600080fd5b506102d860145481565b34801561076f57600080fd5b506105a77f000000000000000000000000000000000000000000000000000000000000000081565b3480156107a357600080fd5b506102d860135481565b3480156107b957600080fd5b506003546004546013546012546015547f000000000000000000000000000000000000000000000000000000000000000060408051968752602087019590955293850192909252606084015260808301526001600160a01b031660a082015260c0016102b9565b34801561082c57600080fd5b50600154600254600554601154600354600454604080516001600160a01b039097168752602087019590955260ff9093161515938501939093526060840152608083019190915260a082015260c0016102b9565b34801561088c57600080fd5b506108a061089b366004612422565b611baf565b6040516102b9989796959493929190612814565b3480156108c057600080fd5b5061036e6108cf36600461287d565b611d76565b3480156108e057600080fd5b5061036e6108ef3660046128a0565b611f6f565b34801561090057600080fd5b506102d860125481565b34801561091657600080fd5b506102d8600c5481565b34801561092c57600080fd5b506001546105a7906001600160a01b031681565b34801561094c57600080fd5b5061036e612065565b34801561096157600080fd5b506104e9610970366004612535565b600f6020526000908152604090205460ff1681565b600d6020526000908152604090208054600182015460028301805492936001600160a01b03909216926109b7906128ee565b80601f01602080910402602001604051908101604052809291908181526020018280546109e3906128ee565b8015610a305780601f10610a0557610100808354040283529160200191610a30565b820191906000526020600020905b815481529060010190602001808311610a1357829003601f168201915b505050505090806003018054610a45906128ee565b80601f0160208091040260200160405190810160405280929190818152602001828054610a71906128ee565b8015610abe5780601f10610a9357610100808354040283529160200191610abe565b820191906000526020600020905b815481529060010190602001808311610aa157829003601f168201915b505050505090806004018054610ad3906128ee565b80601f0160208091040260200160405190810160405280929190818152602001828054610aff906128ee565b8015610b4c5780601f10610b2157610100808354040283529160200191610b4c565b820191906000526020600020905b815481529060010190602001808311610b2f57829003601f168201915b50505060058401546006850154600786015460088701546009880154600a9098015496979396929550909350919060ff168b565b610b886121ae565b600c548110610baa57604051631dc0650160e31b815260040160405180910390fd5b6000818152600d602052604090206007810154421015610bdd57604051633fc30bd160e11b815260040160405180910390fd5b600a81015460ff1615610c0357604051630dc1019760e01b815260040160405180910390fd5b8060060154816005015411610c2b5760405163c8c93ba360e01b815260040160405180910390fd5b600a8101805460ff191660019081179091558101546001600160a01b03166000818152600f602052604090205460ff168015610c7e57506001600160a01b0381166000908152600e602052604090205483145b15610caf576001600160a01b0381166000908152600f60209081526040808320805460ff19169055600e9091528120555b610cb883601055565b6000610d4f836004018054610ccc906128ee565b80601f0160208091040260200160405190810160405280929190818152602001828054610cf8906128ee565b8015610d455780601f10610d1a57610100808354040283529160200191610d45565b820191906000526020600020905b815481529060010190602001808311610d2857829003601f168201915b50505050506121d8565b9050610d5c600019601055565b837faf8f9d0e884d3306a083e846741a0bc4d75908e2b0ec63b558219652ae4c1b90600183604051610d8f929190612928565b60405180910390a2505050610da46001600055565b50565b6001600160a01b03811660009081526006602052604081205460ff16610dcf57506000919050565b600a546001600160a01b038316600090815260066020526040902060030154808211610dfc576000610e06565b610e068183612959565b949350505050565b3360009081526006602052604081205460ff16610e3e5760405163148fe22160e11b815260040160405180910390fd5b8451600003610e60576040516319d546f160e31b815260040160405180910390fd5b8351600003610e8257604051633e61080d60e01b815260040160405180910390fd5b8251600003610ea45760405163066e738d60e01b815260040160405180910390fd5b600483511015610ec757604051632d2b93ff60e01b815260040160405180910390fd5b60208301516000610ed7826122a3565b905080610ef757604051631c49f4d160e01b815260040160405180910390fd5b336000908152600f602052604090205460ff1615610f8857336000908152600e6020908152604080832054808452600d909252909120600a81015460ff16158015610f455750806007015442105b15610f635760405163792c310960e11b815260040160405180910390fd5b336000908152600f60209081526040808320805460ff19169055600e90915281205550505b836000819003610f98575062093a805b62093a80811015610fbc576040516331806aeb60e21b815260040160405180910390fd5b62278d00811115610fe05760405163eeeb962360e01b815260040160405180910390fd5b600c805460009182610ff18361296c565b909155506000818152600d602052604090208181556001810180546001600160a01b031916331790559091506002810161102b8b826129d5565b506003810161103a8a826129d5565b506004810161104989826129d5565b506110548342612a95565b6007808301918255426008840155546009830155600a8201805460ff19908116909155336000818152600b850160209081526040808320805486166001908117909155600c8801835281842080548716821790556005880181905560068801849055600f8352818420805490961617909455600e90528290208590559154905184917f98120a6aaa04295520ab4e01c6c1235dd316e822cc9ff31db7b3f197366d18bd91611103918f91612aa8565b60405180910390a35098975050505050505050565b600080600c54841061113d57604051631dc0650160e31b815260040160405180910390fd5b50506000828152600d602090815260408083206001600160a01b0385168452600b8101835281842054600c9091019092529091205460ff91821691165b9250929050565b3330146111a1576040516327568d2f60e11b815260040160405180910390fd5b6001600160a01b038216158015906111c757506001546001600160a01b03838116911614155b156111e55760405163b078ee9d60e01b815260040160405180910390fd5b801561123c57600a81101561120d57604051635eee050360e11b815260040160405180910390fd5b611218600a82612ae0565b1561123657604051636fe6a4c960e01b815260040160405180910390fd5b60028190555b6001546002546040519081526001600160a01b03909116907faf8839d80c9b3bbf95c97465eb8c8348db4098f5c15af186c3b425b1129981179060200160405180910390a25050565b3330146112a5576040516327568d2f60e11b815260040160405180910390fd5b6001600160a01b0383166112cc57604051634e46966960e11b815260040160405180910390fd5b816000036112ed576040516365e52d5160e11b815260040160405180910390fd5b60035482111561131057604051631c7b597b60e11b815260040160405180910390fd5b601054600c54811061133557604051631dc0650160e31b815260040160405180910390fd5b82600360008282546113479190612959565b92505081905550836001600160a01b0316817f1ba011ee074f0e08cc727335f32d75fb7ee71dc0a1e13bb9473e5650b0afd1a3858560405161138a929190612af4565b60405180910390a36001546113a9906001600160a01b03168585612310565b50505050565b60606000805b600c5481101561140c576000818152600d6020526040902060070154421080156113f157506000818152600d60205260409020600a015460ff16155b1561140457816114008161296c565b9250505b6001016113b5565b5060008167ffffffffffffffff81111561142857611428612557565b604051908082528060200260200182016040528015611451578160200160208202803683370190505b5090506000805b600c548110156114cc576000818152600d60205260409020600701544210801561149457506000818152600d60205260409020600a015460ff16155b156114c4578083836114a58161296c565b9450815181106114b7576114b7612b0d565b6020026020010181815250505b600101611458565b50909392505050565b3330146114f5576040516327568d2f60e11b815260040160405180910390fd5b6005805460ff19168215159081179091556040519081527f752d7e161ff5146f80e3820893176eb40532811e5e20400dfdde57455213706a9060200160405180910390a150565b6060600082158061154d5750606483115b1561156b576040516381f396b760e01b815260040160405180910390fd5b600c54841061158c575050604080516000808252602082019092529061117a565b60008367ffffffffffffffff8111156115a7576115a7612557565b6040519080825280602002602001820160405280156115d0578160200160208202803683370190505b509050600085805b600c54811080156115e857508683105b1561166e576000818152600d60205260409020600701544210801561161f57506000818152600d60205260409020600a015460ff16155b1561164f578084846116308161296c565b95508151811061164257611642612b0d565b6020026020010181815250505b61165a816001612a95565b9150806116668161296c565b9150506115d8565b5060009350600c548110156116d357805b600c548110156116d1576000818152600d6020526040902060070154421080156116bb57506000818152600d60205260409020600a015460ff16155b156116c957600194506116d1565b60010161167f565b505b8167ffffffffffffffff8111156116ec576116ec612557565b604051908082528060200260200182016040528015611715578160200160208202803683370190505b50945060005b828110156117625783818151811061173557611735612b0d565b602002602001015186828151811061174f5761174f612b0d565b602090810291909101015260010161171b565b505050509250929050565b60055460ff161561179157604051630eceade960e31b815260040160405180910390fd5b3033036117b157604051636edaef2f60e11b815260040160405180910390fd5b6117b96121ae565b336000908152600660205260409020805460ff16156117eb57604051630cd9ed5560e21b815260040160405180910390fd5b60006064600254601e6117fe9190612b23565b6118089190612b3a565b905060006064600254600a61181d9190612b23565b6118279190612b3a565b6002546001546040516370a0823160e01b815233600482015292935090916001600160a01b03909116906370a0823190602401602060405180830381865afa158015611877573d6000803e3d6000fd5b505050506040513d601f19601f8201168201806040525081019061189b9190612b4e565b10156118ba57604051631e9acf1760e31b815260040160405180910390fd5b825460ff19166001908117845542848201554360028501556007805433600081815260086020526040812083905593820183559183527fa66cc928b5edb82af9bd49922954155ab7b0942694bea4ce44661d9a8736c6880180546001600160a01b031916909117905560118054916119318361296c565b9091555050600754600110156119ac576000600b54836119519190612a95565b60075490915060009061196690600190612959565b6119709083612b3a565b60075490915061198290600190612959565b61198c9083612ae0565b600b8190555080600a60008282546119a49190612a95565b909155505050505b600a54836003018190555081600360008282546119c99190612a95565b9250508190555081600460008282546119e29190612a95565b9250508190555081601260008282546119fb9190612a95565b925050819055508160136000828254611a149190612a95565b925050819055508160146000828254611a2d9190612a95565b925050819055508060156000828254611a469190612a95565b90915550506001546001600160a01b0316611a65813361dead86612374565b611a7a6001600160a01b038216333086612374565b611a8f6001600160a01b038216333086612374565b611ac46001600160a01b038216337f000000000000000000000000000000000000000000000000000000000000000085612374565b336001600160a01b03167fe6d1c0e418a42a777d49c66571075fc47bc1d92e7f506007ddde08d1ff182bbc6002548586878742436001601154611b079190612959565b604080519889526020890197909752958701949094526060860192909252608085015260a084015260c083015260e08201526101000160405180910390a250505050611b536001600055565b565b6001600160a01b03811660009081526006602052604081205460ff16611b7d57506000919050565b506001919050565b60078181548110611b9557600080fd5b6000918252602090912001546001600160a01b0316905081565b60006060806000806000806000600c548910611bde57604051631dc0650160e31b815260040160405180910390fd5b6000898152600d6020526040902060078101544210801590611c07575080600601548160050154115b6001820154600583015460068401546007850154600a8601546002870180549698506001600160a01b0390951695600388019493929160ff169089908790611c4e906128ee565b80601f0160208091040260200160405190810160405280929190818152602001828054611c7a906128ee565b8015611cc75780601f10611c9c57610100808354040283529160200191611cc7565b820191906000526020600020905b815481529060010190602001808311611caa57829003601f168201915b50505050509650858054611cda906128ee565b80601f0160208091040260200160405190810160405280929190818152602001828054611d06906128ee565b8015611d535780601f10611d2857610100808354040283529160200191611d53565b820191906000526020600020905b815481529060010190602001808311611d3657829003601f168201915b505050505095509850985098509850985098509850985050919395975091939597565b3360009081526006602052604090205460ff16611da65760405163148fe22160e11b815260040160405180910390fd5b600c548210611dc857604051631dc0650160e31b815260040160405180910390fd5b6000828152600d6020526040902060078101544210611dfa57604051637a19ed0560e01b815260040160405180910390fd5b60088101543360009081526006602052604090206001015410611e305760405163f078ca7360e01b815260040160405180910390fd5b336000908152600b8201602090815260408083208054600c86019093529220805460ff198084166001179094558154861515941693909317905560ff908116911681611eb1578315611e9c576001836005016000828254611e919190612a95565b90915550611f2a9050565b6001836006016000828254611e919190612a95565b83151581151514611f2a578015611ef3576001836005016000828254611ed79190612959565b925050819055506001836006016000828254611e919190612a95565b6001836006016000828254611f089190612959565b925050819055506001836005016000828254611f249190612a95565b90915550505b604080518515158152426020820152339187917fcbdf6214089cba887ecbf35a0b6a734589959c9763342c756bb2a80ca2bc9f6e910160405180910390a35050505050565b333014611f8f576040516327568d2f60e11b815260040160405180910390fd5b6001600160a01b038216611fb657604051634e46966960e11b815260040160405180910390fd5b600354600003611fd957604051631ab9ebab60e01b815260040160405180910390fd5b601054600c548110611ffe57604051631dc0650160e31b815260040160405180910390fd5b6003805460009091556040516001600160a01b0385169083907f1ba011ee074f0e08cc727335f32d75fb7ee71dc0a1e13bb9473e5650b0afd1a3906120469085908890612af4565b60405180910390a36001546113a9906001600160a01b03168583612310565b3360009081526006602052604090205460ff166120955760405163148fe22160e11b815260040160405180910390fd5b61209d6121ae565b60006120a833610da7565b9050806000036120cb576040516373380d9960e01b815260040160405180910390fd5b6000600b546004546120dd9190612959565b9050818110156121005760405163bc6072f160e01b815260040160405180910390fd5b600a5433600090815260066020908152604080832060030193909355600990529081208054849290612133908490612a95565b92505081905550816004600082825461214c9190612959565b9091555050600154612168906001600160a01b03163384612310565b6040805183815242602082015233917fc4e740509dbfae3377bc9925dd7bcc8aaba69cd730316216d76b2d24725c6366910160405180910390a25050611b536001600055565b6002600054036121d157604051633ee5aeb560e01b815260040160405180910390fd5b6002600055565b602081015160609060006121eb826122a3565b90508061220b57604051631c49f4d160e01b815260040160405180910390fd5b600080306001600160a01b0316866040516122269190612b67565b6000604051808303816000865af19150503d8060008114612263576040519150601f19603f3d011682016040523d82523d6000602084013e612268565b606091505b50915091508161229a5780511561228157805160208201fd5b6040516331d436c760e01b815260040160405180910390fd5b95945050505050565b60006001600160e01b0319821663329b926b60e11b14806122d457506001600160e01b0319821663524ddc2360e01b145b806122ef57506001600160e01b03198216635440380160e01b145b8061230a57506001600160e01b0319821663d3493ced60e01b145b92915050565b6040516001600160a01b0383811660248301526044820183905261236f91859182169063a9059cbb906064015b604051602081830303815290604052915060e01b6020820180516001600160e01b0383818316178352505050506123ad565b505050565b6040516001600160a01b0384811660248301528381166044830152606482018390526113a99186918216906323b872dd9060840161233d565b600080602060008451602086016000885af1806123d0576040513d6000823e3d81fd5b50506000513d915081156123e85780600114156123f5565b6001600160a01b0384163b155b156113a957604051635274afe760e01b81526001600160a01b038516600482015260240160405180910390fd5b60006020828403121561243457600080fd5b5035919050565b60005b8381101561245657818101518382015260200161243e565b50506000910152565b6000815180845261247781602086016020860161243b565b601f01601f19169290920160200192915050565b8b81526001600160a01b038b166020820152610160604082018190526000906124b68382018d61245f565b905082810360608401526124ca818c61245f565b905082810360808401526124de818b61245f565b60a0840199909952505060c081019590955260e085019390935261010084019190915261012083015215156101409091015295945050505050565b80356001600160a01b038116811461253057600080fd5b919050565b60006020828403121561254757600080fd5b61255082612519565b9392505050565b634e487b7160e01b600052604160045260246000fd5b600067ffffffffffffffff8084111561258857612588612557565b604051601f8501601f19908116603f011681019082821181831017156125b0576125b0612557565b816040528093508581528686860111156125c957600080fd5b858560208301376000602087830101525050509392505050565b600082601f8301126125f457600080fd5b6125508383356020850161256d565b6000806000806080858703121561261957600080fd5b843567ffffffffffffffff8082111561263157600080fd5b61263d888389016125e3565b9550602087013591508082111561265357600080fd5b61265f888389016125e3565b9450604087013591508082111561267557600080fd5b508501601f8101871361268757600080fd5b6126968782356020840161256d565b949793965093946060013593505050565b600080604083850312156126ba57600080fd5b823591506126ca60208401612519565b90509250929050565b600080604083850312156126e657600080fd5b6126ef83612519565b946020939093013593505050565b60008060006060848603121561271257600080fd5b61271b84612519565b925060208401359150604084013567ffffffffffffffff81111561273e57600080fd5b61274a868287016125e3565b9150509250925092565b60008151808452602080850194506020840160005b8381101561278557815187529582019590820190600101612769565b509495945050505050565b6020815260006125506020830184612754565b8035801515811461253057600080fd5b6000602082840312156127c557600080fd5b612550826127a3565b600080604083850312156127e157600080fd5b50508035926020909101359150565b6040815260006128036040830185612754565b905082151560208301529392505050565b6001600160a01b0389168152610100602082018190526000906128398382018b61245f565b9050828103604084015261284d818a61245f565b60608401989098525050608081019490945260a0840192909252151560c0830152151560e0909101529392505050565b6000806040838503121561289057600080fd5b823591506126ca602084016127a3565b600080604083850312156128b357600080fd5b6128bc83612519565b9150602083013567ffffffffffffffff8111156128d857600080fd5b6128e4858286016125e3565b9150509250929050565b600181811c9082168061290257607f821691505b60208210810361292257634e487b7160e01b600052602260045260246000fd5b50919050565b8215158152604060208201526000610e06604083018461245f565b634e487b7160e01b600052601160045260246000fd5b8181038181111561230a5761230a612943565b60006001820161297e5761297e612943565b5060010190565b601f82111561236f576000816000526020600020601f850160051c810160208610156129ae5750805b601f850160051c820191505b818110156129cd578281556001016129ba565b505050505050565b815167ffffffffffffffff8111156129ef576129ef612557565b612a03816129fd84546128ee565b84612985565b602080601f831160018114612a385760008415612a205750858301515b600019600386901b1c1916600185901b1785556129cd565b600085815260208120601f198616915b82811015612a6757888601518255948401946001909101908401612a48565b5085821015612a855787850151600019600388901b60f8161c191681555b5050505050600190811b01905550565b8082018082111561230a5761230a612943565b604081526000612abb604083018561245f565b90508260208301529392505050565b634e487b7160e01b600052601260045260246000fd5b600082612aef57612aef612aca565b500690565b828152604060208201526000610e06604083018461245f565b634e487b7160e01b600052603260045260246000fd5b808202811582820484141761230a5761230a612943565b600082612b4957612b49612aca565b500490565b600060208284031215612b6057600080fd5b5051919050565b60008251612b7981846020870161243b565b919091019291505056fea26469706673582212204a37276169e98da62ee00bba2ac4d7345a7bce020b50bf5d37f90db7aa947bfc64736f6c63430008170033",
  "linkReferences": {},
  "deployedLinkReferences": {}
}