{
  "_format": "hh-sol-artifact-1",
  "contractName": "TemplFactory",
  "sourceName": "contracts/TemplFactory.sol",
  "abi": [
    {
      "inputs": [
        {
          "internalType": "address",
          "name": "_protocolFeeRecipient",
          "type": "address"
        },
        {
          "internalType": "uint256",
          "name": "_protocolPercent",
          "type": "uint256"
        }
      ],
      "stateMutability": "nonpayable",
      "type": "constructor"
    },
    {
      "inputs": [],
      "name": "EntryFeeTooSmall",
      "type": "error"
    },
    {
      "inputs": [],
      "name": "InvalidEntryFee",
      "type": "error"
    },
    {
      "inputs": [],
      "name": "InvalidPercentage",
      "type": "error"
    },
    {
      "inputs": [],
      "name": "InvalidPercentageSplit",
      "type": "error"
    },
    {
      "inputs": [],
      "name": "InvalidRecipient",
      "type": "error"
    },
    {
      "anonymous": false,
      "inputs": [
        {
          "indexed": true,
          "internalType": "address",
          "name": "templ",
          "type": "address"
        },
        {
          "indexed": true,
          "internalType": "address",
          "name": "creator",
          "type": "address"
        },
        {
          "indexed": true,
          "internalType": "address",
          "name": "priest",
          "type": "address"
        },
        {
          "indexed": false,
          "internalType": "address",
          "name": "token",
          "type": "address"
        },
        {
          "indexed": false,
          "internalType": "uint256",
          "name": "entryFee",
          "type": "uint256"
        },
        {
          "indexed": false,
          "internalType": "uint256",
          "name": "burnPercent",
          "type": "uint256"
        },
        {
          "indexed": false,
          "internalType": "uint256",
          "name": "treasuryPercent",
          "type": "uint256"
        },
        {
          "indexed": false,
          "internalType": "uint256",
          "name": "memberPoolPercent",
          "type": "uint256"
        },
        {
          "indexed": false,
          "internalType": "uint256",
          "name": "quorumPercent",
          "type": "uint256"
        },
        {
          "indexed": false,
          "internalType": "uint256",
          "name": "executionDelaySeconds",
          "type": "uint256"
        },
        {
          "indexed": false,
          "internalType": "address",
          "name": "burnAddress",
          "type": "address"
        },
        {
          "indexed": false,
          "internalType": "bool",
          "name": "priestIsDictator",
          "type": "bool"
        }
      ],
      "name": "TemplCreated",
      "type": "event"
    },
    {
      "inputs": [
        {
          "internalType": "address",
          "name": "_token",
          "type": "address"
        },
        {
          "internalType": "uint256",
          "name": "_entryFee",
          "type": "uint256"
        }
      ],
      "name": "createTempl",
      "outputs": [
        {
          "internalType": "address",
          "name": "templAddress",
          "type": "address"
        }
      ],
      "stateMutability": "nonpayable",
      "type": "function"
    },
    {
      "inputs": [
        {
          "components": [
            {
              "internalType": "address",
              "name": "priest",
              "type": "address"
            },
            {
              "internalType": "address",
              "name": "token",
              "type": "address"
            },
            {
              "internalType": "uint256",
              "name": "entryFee",
              "type": "uint256"
            },
            {
              "internalType": "uint256",
              "name": "burnPercent",
              "type": "uint256"
            },
            {
              "internalType": "uint256",
              "name": "treasuryPercent",
              "type": "uint256"
            },
            {
              "internalType": "uint256",
              "name": "memberPoolPercent",
              "type": "uint256"
            },
            {
              "internalType": "uint256",
              "name": "quorumPercent",
              "type": "uint256"
            },
            {
              "internalType": "uint256",
              "name": "executionDelaySeconds",
              "type": "uint256"
            },
            {
              "internalType": "address",
              "name": "burnAddress",
              "type": "address"
            },
            {
              "internalType": "bool",
              "name": "priestIsDictator",
              "type": "bool"
            }
          ],
          "internalType": "struct TemplFactory.CreateConfig",
          "name": "config",
          "type": "tuple"
        }
      ],
      "name": "createTemplWithConfig",
      "outputs": [
        {
          "internalType": "address",
          "name": "templAddress",
          "type": "address"
        }
      ],
      "stateMutability": "nonpayable",
      "type": "function"
    },
    {
      "inputs": [],
      "name": "protocolFeeRecipient",
      "outputs": [
        {
          "internalType": "address",
          "name": "",
          "type": "address"
        }
      ],
      "stateMutability": "view",
      "type": "function"
    },
    {
      "inputs": [],
      "name": "protocolPercent",
      "outputs": [
        {
          "internalType": "uint256",
          "name": "",
          "type": "uint256"
        }
      ],
      "stateMutability": "view",
      "type": "function"
    }
  ],
  "bytecode": "0x60c0346100c257601f614a8e38819003918201601f19168301916001600160401b038311848410176100c75780849260409485528339810103126100c25780516001600160a01b038116918282036100c2576020015191156100b0576064821161009e5760805260a0526040516149b090816100de823960805181818161028f0152610421015260a05181818160640152818161037101526104790152f35b60405163542c8df360e11b8152600490fd5b604051634e46966960e11b8152600490fd5b600080fd5b634e487b7160e01b600052604160045260246000fdfe608080604052600436101561001357600080fd5b600090813560e01c90816364df049e1461027b57508063b4c99cfd146101f6578063e6700f371461008a5763f0a827a41461004d57600080fd5b3461008757806003193601126100875760206040517f00000000000000000000000000000000000000000000000000000000000000008152f35b80fd5b503461008757610140366003190112610087576100a56102d9565b906100ae6102be565b808352906024356001600160a01b03811681036101f2576020840152604435604084015260643560608401819052608435608085015260a43560a085015260c43560c0850181905260e43560e08601819052919361010435936001600160a01b0385168503610087578461010088015261012435151561012435036100875761012435610120880152602061018288888888886001600160a01b038916156101ea575b156101de575b156101d0575b6001600160a01b0316156101c2575b15806101b8575b806101ae575b61019457610310565b6040516001600160a01b039091168152f35b601e6060820152601e6080820152601e60a0820152610310565b5060a43515610179565b5060843515610173565b61dead61010083015261016c565b62093a8060e084015261015d565b602160c0850152610157565b338552610151565b5080fd5b5034610087576040366003190112610087576020906102726102166102be565b9161021f6102d9565b9033825260018060a01b03809416858301526024356040830152601e6060830152601e6080830152601e60a0830152602160c083015262093a8060e083015261dead610100830152610120820152610310565b60405191168152f35b9050346101f257816003193601126101f2577f00000000000000000000000000000000000000000000000000000000000000006001600160a01b03168152602090f35b600435906001600160a01b03821682036102d457565b600080fd5b60405190610140820182811067ffffffffffffffff8211176102fa57604052565b634e487b7160e01b600052604160045260246000fd5b60208101519091906001600160a01b0316156105e557600a6040830151106105d357600a6040830151066105c157606460c0830151116105af57606461039661036f606085015161036a608087015160a0880151926105f7565b6105f7565b7f0000000000000000000000000000000000000000000000000000000000000000906105f7565b0361059d5760018060a01b0382511660018060a01b0360208401511660408401516060850151608086015160a087015160c08801519160e08901519360018060a01b036101008b015116956101208b0151151597604051998a61436081011067ffffffffffffffff6143608d0111176102fa576143606200061b8c396143608b015260018060a01b037f00000000000000000000000000000000000000000000000000000000000000001660206143608c01015260406143608b01015260606143608a01015260806143608901015260a06143608801015260c0614360870101527f000000000000000000000000000000000000000000000000000000000000000060e061436087010152610100614360860101526101206143608501015261014061436084010152610160614360830101526101808161436081010301906000f080156105915760018060a01b03169160018060a01b038151169060018060a01b03602082015116906040810151906060810151608082015160a083015160c08401519160e08501519361012060018060a01b0361010088015116960151151596604051988952602089015260408801526060870152608086015260a085015260c084015260e0830152610100820152837f8b529175b61588044cc631412991dbb2164e4502f7441df5ebb76d3646e1b2796101203393a4565b6040513d6000823e3d90fd5b60405163542c8df360e11b8152600490fd5b604051631f3b85d360e01b8152600490fd5b604051636fe6a4c960e01b8152600490fd5b604051635eee050360e11b8152600490fd5b604051634e46966960e11b8152600490fd5b9190820180921161060457565b634e487b7160e01b600052601160045260246000fdfe610120346200033957601f6200436038819003918201601f1916830191906001600160401b038311848410176200033e578161018092859260409586528339810103126200033957620000528262000354565b91620000616020820162000354565b6200006e83830162000354565b9360608301519260808101519560a082015160c083015160e084015191610100998a8601519361012087015195610160620000ad6101408a0162000354565b980151908115158203620003395760016000556001600160a01b039a808c161580156200032e575b6200031d5760a05260c05260e05260808190526064906200010490620000fe8681878762000369565b62000369565b036200030c5760015560025560035580620002e9575060216009555b80620002e3575062093a805b600a55808316620002dd575061dead5b8552168015620002cc578115620002bb57600a8210620002aa57600a82066200029957600480546001600160a01b0319169190911790556005556008805460ff1916905551613fd291826200038e8339608051828181610516015281816110af0152818161141e01528181612159015281816137d50152613824015260a0518281816111bf015281816115f40152611b43015260c0518281816103cf0152818161054f0152818161068d015281816110050152818161114a0152818161148301528181611f2e0152818161252401528181612ec8015281816132e2015281816135b6015281816137fb01526138b0015260e05182818161047d015281816105960152818161063e01528181610a2701528181610e390152818161187b015281816118f701528181611acc01528181611be401528181611e53015281816120c9015281816122c601526123790152518181816115c401526119ad0152f35b8251636fe6a4c960e01b8152600490fd5b8251635eee050360e11b8152600490fd5b82516365e52d5160e11b8152600490fd5b8251634e46966960e11b8152600490fd5b6200013c565b6200012c565b60648111620002fb5760095562000120565b8651631f3b85d360e01b8152600490fd5b895163542c8df360e11b8152600490fd5b8d51634e46966960e11b8152600490fd5b508b821615620000d5565b600080fd5b634e487b7160e01b600052604160045260246000fd5b51906001600160a01b03821682036200033957565b919082018092116200037757565b634e487b7160e01b600052601160045260246000fdfe6101c060405260048036101561001e575b50361561001c57600080fd5b005b60003560e01c908163013cf08b1461293f57816303807ee51461292157816304ef9d5814612903578163072ea61c146128e557816308ae4b0c146128845781630d61b5191461235a5781630f852b9a1461229f5781631808022a1461227c5781631df260a0146121b45781631f4b1acb1461209b578163215809ca146112e1578163240d3a0614611ee5578163313dab2014611ec757816332f974b314611e285781634385963214611db857816353eee21214611d8c5781635584c4f914611cca5781635962a94114611cac57816359c266ff14611c8e5781635c975abb14611c6b5781635fa7ddf014611c4d578163640c4fa214611bc857816364653f2914611b7257816364df049e14611b2d578163653724d614611ab15781636898b19c14611a935781636a49942714611a345781636ad18550146119fa5781637070ac48146119dc57816370d5ae051461199757816371e86b6a146118dc578163840634c5146118605781638f78bbc41461181e57816395a078e8146117df578163997072f7146117c157816399e288d81461139d578163a51a46b91461137f578163a64e024a14611361578163a730117e1461133e578163a81bbe3c14611304578163adadef27146112e6578163aedfe53f146112e1578163b307fc6d14611288578163bdb75b341461126a578163bebc8fc014611243578163c1b57edb14611225578163c293947114611114578163c3f909d414610fdd578163c470dd9014610df1578163c7f758a814610d10578163c9d27afe146109e7578163cfb5446014610967578163d402d4be146105f7578163d89135cd146105d9578163da35c664146105bb578163dddac8441461057e578163e243c5fb14610539578163f0a827a4146104fe578163f2be51ea14610462578163f7158b2a1461033757508063f81cbd26146103195763ffafe4ad146102d55738610010565b34610314576020366003190112610314576001600160a01b036102f6612ce4565b166000526013602052602060ff604060002054166040519015158152f35b600080fd5b34610314576000366003190112610314576020600954604051908152f35b346103145760003660031901126103145733600052600b60205260ff60406000205416156104535761036761322c565b61037033612e04565b9081156104445781610387600754600f5490612df7565b106104355750600e5433600052600b602052600360406000200155600d60205260406000206103b7828254612dd4565b90556103c581600754612df7565b6007556103fc81337f00000000000000000000000000000000000000000000000000000000000000006001600160a01b0316613b7c565b6040519081524260208201527fc4e740509dbfae3377bc9925dd7bcc8aaba69cd730316216d76b2d24725c636660403392a26001600055005b60405163bc6072f160e01b8152fd5b6040516373380d9960e01b8152fd5b60405163148fe22160e11b8152fd5b346103145760203660031901126103145761047b612ce4565b7f0000000000000000000000000000000000000000000000000000000000000000156104dd5730331415806104c9575b6104b95761001c91506132c9565b5060405163626243e960e01b8152fd5b5081546001600160a01b03163314156104ab565b3033036104ee5761001c91506132c9565b506040516327568d2f60e11b8152fd5b346103145760003660031901126103145760206040517f00000000000000000000000000000000000000000000000000000000000000008152f35b34610314576000366003190112610314576040517f00000000000000000000000000000000000000000000000000000000000000006001600160a01b03168152602090f35b346103145760003660031901126103145760206040517f000000000000000000000000000000000000000000000000000000000000000015158152f35b34610314576000366003190112610314576020601054604051908152f35b34610314576000366003190112610314576020601554604051908152f35b3461031457608036600319011261031457610610612ce4565b90610619612cfa565b60443560643567ffffffffffffffff81116103145761063b9036908501612d8d565b917f00000000000000000000000000000000000000000000000000000000000000001561094f57303314158061093b575b61092a575b6001600160a01b038181169590861561091957831561090857807f0000000000000000000000000000000000000000000000000000000000000000169116948186146000146107bf576040516370a0823160e01b81523082820152602081602481865afa9081156107b357600091610781575b50600754908181111561077057906106fb91612df7565b841161076157509161073a8160009593600080516020613f7d83398151915295610732600654808511158a1461075b578490612df7565b600655613b7c565b6107566040519283928352604060208401526040830190612ca4565b0390a4005b80612df7565b604051631c7b597b60e11b8152fd5b604051631c7b597b60e11b81528390fd5b90506020813d6020116107ab575b8161079c60209383612bc7565b810103126103145751886106e4565b3d915061078f565b6040513d6000823e3d90fd5b9190508461085457506000805260196020527fd2ac945fcc0096878c763e37d6929b78378c1a2defabde8ba7ee5ed1d6e7a5b25447908082111561084b5761080691612df7565b821161076157600080808085895af161081d612e70565b501561083c5750600091600080516020613f7d8339815191529161073a565b6040516331d436c760e01b8152fd5b50506000610806565b908460005260196020526040600020604051906370a0823160e01b825230838301526020826024818a5afa9182156107b3576000926108d4575b5054808211156108cb576108a191612df7565b8311610761575091816108c6600080516020613f7d8339815191529360009587613b7c565b61073a565b505060006108a1565b9091506020813d602011610900575b816108f060209383612bc7565b810103126103145751908861088e565b3d91506108e3565b6040516365e52d5160e11b81528690fd5b604051634e46966960e11b81528690fd5b60405163626243e960e01b81528490fd5b5083546001600160a01b031633141561066c565b333014610671576040516327568d2f60e11b81528490fd5b34610314576020366003190112610314578035906010548210156109d85750600052601160205260c0604060002060128101549060138101549060178101546015820154906014600e84015493015493604051958652602086015260408501526060840152608083015260a0820152f35b604051631dc0650160e31b8152fd5b346103145760403660031901126103145780356024803590811515938483036103145733600052600b9260209380855260ff6040600020541615610cff577f0000000000000000000000000000000000000000000000000000000000000000610cee57601054861015610cdd5785600052601192838652604060002093600d8501958654421015610ccc5733600052838852604060002094601487019586548015600014610ca85750610aa4906017890154600e8a015491613d4b565b610c97575b6010870133600052808a5260ff60406000205416848901808c5260ff60406000205416928c526040600020600160ff198254161790558b52610afb8360406000209060ff801983541691151516179055565b610c28575015610c105783860180549060018201809211610bfd57555b60ff6016870154161580610bf4575b610b62575b89898960405192835242908301527fcbdf6214089cba887ecbf35a0b6a734589959c9763342c756bb2a80ca2bc9f6e60403393a3005b6012860154918215159485610bac575b5050505050610b85575b80808080610b2c565b4290554360158201556013600c54910155610ba2600a5442612dd4565b9055838080610b7c565b90919293945086015493606485029480860460641490151715610be457505050610bd890600954613181565b11158780808080610b72565b634e487b7160e01b600052526000fd5b50845415610b27565b505091634e487b7160e01b600052526000fd5b600c860180549060018201809211610bfd5755610b18565b90508a81151503610c3a575b50610b18565b15610c6c578584018054600019810191908211610bfd5755600c860180549060018201809211610bfd57555b8a610c34565b600c86018054600019810191908211610bfd575583860180549060018201809211610bfd5755610c66565b60405163f078ca7360e01b81528490fd5b6015890154610cb692613d4b565b15610aa95760405163f078ca7360e01b81528490fd5b604051637a19ed0560e01b81528390fd5b604051631dc0650160e31b81528390fd5b60405163a8ef9e1960e01b81528390fd5b60405163148fe22160e11b81528390fd5b34610314576020366003190112610314578035906010548210156109d85750600052601160205260c0604060002060ff601682015416600014610db857600d81015442101580610da7575b60018060a01b0360018301541691600b81015490600c81015460ff600f600d840154930154169260405195865260208601526040850152606084015215156080830152151560a0820152f35b50600b810154600c82015410610d5b565b60148101548015610de957600a54610dcf91612dd4565b4210158015610d5b5750600b810154600c82015410610d5b565b506000610d5b565b346103145760a036600319011261031457610e0a612ce4565b90610e13612cfa565b906064359267ffffffffffffffff9384811161031457610e369036908401612d8d565b937f0000000000000000000000000000000000000000000000000000000000000000610cee576005610e69608435613943565b9095600194858301600160a11b60ff60a01b198254161790556002830160018060a01b0390816bffffffffffffffffffffffff60a01b931683825416179055600384019216908254161790556044358582015501928551918211610fc85750610ed28354612b8d565b601f8111610f81575b506020948590601f8311600114610f1f57928293918392600094610f14575b50501b916000199060031b1c19161790555b604051908152f35b015192508780610efa565b90601f198316918560005283826000209360005b87828210610f6957505010610f50575b505050811b019055610f0c565b015160001960f88460031b161c19169055858080610f43565b84860151875590950194938a01938692508a01610f33565b836000526020600020601f830160051c81019160208410610fbe575b601f0160051c01905b818110610fb35750610edb565b600081558301610fa6565b9091508190610f9d565b604190634e487b7160e01b6000525260246000fd5b34610314576000366003190112610314576040516370a0823160e01b815230918101919091527f00000000000000000000000000000000000000000000000000000000000000006001600160a01b0316602082602481845afa80156107b3576000906110e0575b60075461014093509081808211156110d65761105f91612df7565b905b6005549160ff6008541691601454916001549260025494600354966040519889526020890152151560408801526060870152608086015260a085015260c084015260e08301526101008201527f0000000000000000000000000000000000000000000000000000000000000000610120820152f35b5050600090611061565b506020823d60201161110c575b816110fa60209383612bc7565b81010312610314576101409151611044565b3d91506110ed565b34610314576000366003190112610314576040516370a0823160e01b815230918101919091526001600160a01b036020826024817f000000000000000000000000000000000000000000000000000000000000000085165afa9081156107b3576000916111f0575b60075460c093509182808211156111e65761119691612df7565b915b601654601554906018549260405195865260208601526040850152606084015260808301527f00000000000000000000000000000000000000000000000000000000000000001660a0820152f35b5050600091611198565b90506020823d60201161121d575b8161120b60209383612bc7565b810103126103145760c091519061117c565b3d91506111fe565b34610314576000366003190112610314576020601654604051908152f35b3461031457600036600319011261031457546040516001600160a01b039091168152602090f35b34610314576000366003190112610314576020601754604051908152f35b346103145760203660031901126103145735600c5481101561031457600c6000527fdf6966c971051c3d54ec59162606531493a51404a002842f56009d7e5cf4a8c701546040516001600160a01b039091168152602090f35b612d1f565b34610314576000366003190112610314576020600354604051908152f35b34610314576020366003190112610314576001600160a01b03611325612ce4565b16600052600d6020526020604060002054604051908152f35b34610314576020366003190112610314576020610f0c61135c612ce4565b613202565b3461031457600036600319011261031457602060405162278d008152f35b34610314576000366003190112610314576020600f54604051908152f35b346103145760003660031901126103145760ff600854166117b2573033146117a3576113c761322c565b336000526020600b815260406000209182549260ff8416611793576005549360019460646113f6875483613181565b04606461140560025484613181565b0491606461141560035483613181565b049360646114437f000000000000000000000000000000000000000000000000000000000000000084613181565b049561145c87611457886114578989612dd4565b612dd4565b83811061176d575b5061146f8686612dd4565b6040516370a0823160e01b8152338a8201527f00000000000000000000000000000000000000000000000000000000000000006001600160a01b031694919391908b81602481895afa9081156107b357600091611740575b501061172f5760ff19168a17815542818b0155436002820155600c54600160401b81101561171a578a810180600c5581101561170557600c6000527fdf6966c971051c3d54ec59162606531493a51404a002842f56009d7e5cf4a8c70180546001600160a01b031916331790556014548792919061154490612f68565b601455600c548b811161169a575b5061161b93916115f2916003600e5491015561157087600654612dd4565b60065561157f88600754612dd4565b60075561158e86601554612dd4565b60155561159d87601654612dd4565b6016556115ac88601754612dd4565b6017556115bb84601854612dd4565b6018556115ea867f00000000000000000000000000000000000000000000000000000000000000003386613cf2565b303384613cf2565b7f0000000000000000000000000000000000000000000000000000000000000000903390613cf2565b6005549560145495600019870196871161168557506040519687528601526040850152606084015260808301524260a08301524360c083015260e08201527fe6d1c0e418a42a777d49c66571075fc47bc1d92e7f506007ddde08d1ff182bbc6101003392a2600055005b601190634e487b7160e01b6000525260246000fd5b909192506116aa600f5488612dd4565b9060001981019081116116f0579261161b94926116e4836116d9876116d38e996115f298613194565b92612e50565b600f55600e54612dd4565b600e5591509193611552565b60118a634e487b7160e01b6000525260246000fd5b603289634e487b7160e01b6000525260246000fd5b604189634e487b7160e01b6000525260246000fd5b604051631e9acf1760e31b81528990fd5b90508b81813d8311611766575b6117578183612bc7565b8101031261031457518d6114c7565b503d61174d565b9461178c9061178661177f8887612df7565b8092612dd4565b96612dd4565b508a611464565b50604051630cd9ed5560e21b8152fd5b604051636edaef2f60e11b8152fd5b604051630eceade960e31b8152fd5b34610314576000366003190112610314576020600c54604051908152f35b34610314576020366003190112610314576001600160a01b03611800612ce4565b16600052600b602052602060ff604060002054166040519015158152f35b3461031457604036600319011261031457611840611854916024359035612feb565b604051928392604084526040840190612d3d565b90151560208301520390f35b3461031457602036600319011261031457611879612ce4565b7f0000000000000000000000000000000000000000000000000000000000000000156118cb5730331415806118b7575b6104b95761001c915061324f565b5081546001600160a01b03163314156118a9565b3033036104ee5761001c915061324f565b34610314576040366003190112610314576118f5612ce4565b7f00000000000000000000000000000000000000000000000000000000000000006119875790602091611929602435613943565b60018101805460ff60a01b1916600360a01b1790556002810180546001600160a01b0319166001600160a01b03948516179055925490929133911614611973575b50604051908152f35b601601805460ff191660011790558261196a565b5060405163a8ef9e1960e01b8152fd5b34610314576000366003190112610314576040517f00000000000000000000000000000000000000000000000000000000000000006001600160a01b03168152602090f35b34610314576000366003190112610314576020600a54604051908152f35b34610314576020366003190112610314576001600160a01b03611a1b612ce4565b1660005260126020526020604060002054604051908152f35b34610314576020366003190112610314576001600160a01b03611a55612ce4565b16600052601960205260406000208054611a8f60026001840154930154604051938493846040919493926060820195825260208201520152565b0390f35b34610314576000366003190112610314576020600e54604051908152f35b3461031457602036600319011261031457611aca612d10565b7f000000000000000000000000000000000000000000000000000000000000000015611b1c573033141580611b08575b6104b95761001c91506138d8565b5081546001600160a01b0316331415611afa565b3033036104ee5761001c91506138d8565b34610314576000366003190112610314576040517f00000000000000000000000000000000000000000000000000000000000000006001600160a01b03168152602090f35b34610314576020366003190112610314576001600160a01b03611b93612ce4565b16600052600b6020526060604060002060ff815416906002600182015491015490604051921515835260208301526040820152f35b3461031457604036600319011261031457611be1612d10565b907f0000000000000000000000000000000000000000000000000000000000000000611c3e5760206006610f0c84611c1a602435613943565b6001819592950160ff60a01b198154169055019060ff801983541691151516179055565b60405163a8ef9e1960e01b8152fd5b34610314576000366003190112610314576020600754604051908152f35b3461031457600036600319011261031457602060ff600854166040519015158152f35b34610314576000366003190112610314576020601854604051908152f35b34610314576000366003190112610314576020601454604051908152f35b34610314576000366003190112610314576010546000805b828110611d545750611cf390612f8f565b906000805b828110611d155760405160208082528190611a8f90820187612d3d565b806001916000526011602052611d2f426040600020613cd4565b611d3a575b01611cf8565b80611d4e611d4785612f68565b9487612fc1565b52611d34565b806000526011602052611d6b426040600020613cd4565b611d78575b600101611ce2565b90611d84600191612f68565b919050611d70565b34610314576040366003190112610314576020610f0c611daa612ce4565b611db2612cfa565b90612ea0565b34610314576040366003190112610314578035611dd3612cfa565b90601054811015610cdd57604092506000526011602052816000209060018060a01b031660005260108101602052601160ff836000205416910160205260ff8260002054168251911515825215156020820152f35b34610314576040366003190112610314576001600160a01b03611e49612ce4565b16908115611eb8577f0000000000000000000000000000000000000000000000000000000000000000611c3e576020600383611e86602435613943565b60018101805460ff60a01b1916600160a21b1790559290920180546001600160a01b0319169091179055604051908152f35b604051634e46966960e11b8152fd5b34610314576000366003190112610314576020600654604051908152f35b34610314576020908160031936011261031457611f00612ce4565b9133600052600b815260ff604060002054161561208b57611f1f61322c565b6001600160a01b0383811692907f000000000000000000000000000000000000000000000000000000000000000016831461207c57826000526019825260406000209360ff6003860154161561206c57611f799033612ea0565b93841561206c57805485811061205b5785611fd691600184015433600052601b8752604060002088600052875260406000205533600052601c865260406000208760005286526040600020611fcf838254612dd4565b9055612df7565b90558261202857600080808087335af1611fee612e70565b501561083c57507f26cd6ba06f6dc02c61247f710e95c768f4856af03b740594288907c36bb217e9905b6040519384523393a36001600055005b507f26cd6ba06f6dc02c61247f710e95c768f4856af03b740594288907c36bb217e990612056843385613b7c565b612018565b60405163bc6072f160e01b81528390fd5b506040516373380d9960e01b8152fd5b604051631c49f4d160e01b8152fd5b5060405163148fe22160e11b8152fd5b346103145760c0366003190112610314578035602435916044356064359060843580151593848203610314577f0000000000000000000000000000000000000000000000000000000000000000611c3e5785612185575b509160209591601693612154575b61210b60a435613943565b93909660018501600160a01b60ff60a01b19825416179055600785015560088401556009830155600a820155019061ff0082549160081b169061ff001916179055604051908152f35b6121807f0000000000000000000000000000000000000000000000000000000000000000838386613916565b612100565b600a86106121a557600a8606156120f257604051636fe6a4c960e01b8152fd5b604051635eee050360e11b8152fd5b346103145760003660031901126103145760405180601a5480835260208093018091601a6000527f057c384a7d1c54f3a1b2e5e67b2617b8224fdfd1ea7234eea573a6ff665ff63e9060005b8682821061225f57868661221682880383612bc7565b604051928392818401908285525180915260408401929160005b82811061223f57505050500390f35b83516001600160a01b031685528695509381019392810192600101612230565b83546001600160a01b031685529093019260019283019201612200565b34610314576020366003190112610314576020610f0c61229a612ce4565b612e04565b346103145760c0366003190112610314576122b8612ce4565b6044358015158103610314577f000000000000000000000000000000000000000000000000000000000000000015612338573033141580612324575b6123135761001c92505b60a4359160843591606435916024359061375f565b60405163626243e960e01b81528390fd5b5082546001600160a01b03163314156122f4565b3033036123495761001c92506122fe565b6040516327568d2f60e11b81528390fd5b34610314576020806003193601126103145781359161237761322c565b7f0000000000000000000000000000000000000000000000000000000000000000611c3e576010548310156109d857826000526011825260406000206016810160ff928382541615600014612869576014830154801561285957600a546123dd91612dd4565b421061284a575b600f83019081549185831661283a57600b850154600c860154101561282a57600160ff19809416179055846001850160018060a01b03938482541660005260138952826040600020541680612818575b6127f8575b505460a01c1660068110156127e357879080612490575050505050916124756060926006600080516020613f5d833981519152950154166138d8565b60408051916001835282015260006040820152a26001600055005b939593600181036124e55750505092826124e0926060956002600080516020613f5d83398151915298960154166007830154935493600884015492600a60098601549501549560081c169161375f565b612475565b91955091925060028103612782575050806002830154169181600382015416936125156005828401549301612bff565b928515612772578215612762577f00000000000000000000000000000000000000000000000000000000000000001690848203612627576040516370a0823160e01b815230828201528781602481865afa9081156107b3576000916125fa575b506007549081811115610770579061258c91612df7565b83116107615750600080516020613f7d8339815191528593836125d7600080516020613f5d8339815191529997956060998c966107326006548085111560001461075b578490612df7565b6125f260405192839283526040898401526040830190612ca4565b0390a4612475565b90508781813d8311612620575b6126118183612bc7565b81010312610314575189612575565b503d612607565b9050836126a3576000805260198652604060002047905480821160001461269a5761265191612df7565b821161076157600080808085895af1612668612e70565b501561083c57509185600080516020613f7d83398151915260609593600080516020613f5d83398151915297956125d7565b50506000612651565b83600052601986526040600020604051906370a0823160e01b825230838301528782602481895afa9182156107b357600092612733575b50548082111561272a576126ed91612df7565b821161076157509185600080516020613f7d833981519152859385612725600080516020613f5d833981519152999760609987613b7c565b6125d7565b505060006126ed565b9091508781813d831161275b575b61274b8183612bc7565b81010312610314575190896126da565b503d612741565b506040516365e52d5160e11b8152fd5b50604051634e46966960e11b8152fd5b909391929190600381036127b4575050606092600080516020613f5d833981519152949260026124e09301541661359c565b81929394501460001461207c5750916124e06060926003600080516020613f5d8339815191529501541661324f565b602182634e487b7160e01b6000525260246000fd5b601389526040600020908154169055601288526000604081205589612439565b50601289528960406000205414612434565b5060405163c8c93ba360e01b8152fd5b50604051630dc1019760e01b8152fd5b60405163a905056160e01b8152fd5b5060405163aa26a69360e01b8152fd5b600d8301544210156123e457604051633fc30bd160e11b8152fd5b34610314576020366003190112610314576001600160a01b036128a5612ce4565b16600052600b6020526080604060002060ff8154169060018101549060036002820154910154916040519315158452602084015260408301526060820152f35b34610314576000366003190112610314576020600554604051908152f35b34610314576000366003190112610314576020600254604051908152f35b34610314576000366003190112610314576020600154604051908152f35b3461031457602036600319011261031457803560009081526011602052604090206101a0819052805461012052600181015461016052600281015460038201548284015493926001600160a01b0392831692909116906129a190600501612bff565b9360ff60066101a0510154166101005260076101a05101549460086101a051015460096101a0510154600a6101a051015490600b6101a051015492600c6101a051015494600d6101a051015496600e6101a05101549860ff600f6101a0510154169a60126101a05101549c60136101a051015460805260146101a051015460c05260156101a05101546101805260166101a05101546101405260176101a051015460e05260405160a0526101205160a0515260018060a01b036101605116602060a0510152600660ff6101605160a01c161015612b78575090612abc93929160ff6101605160a01c16604060a0510152606060a0510152608060a051015260a08051015261030060c060a051015261030060a0510190612ca4565b9961010051151560e060a051015261010060a051015261012060a051015261014060a051015261016060a051015261018060a05101526101a060a05101526101c060a05101526101e060a0510152151561020060a051015261022060a051015260805161024060a051015260c05161026060a05101526101805161028060a051015260ff610140511615156102a060a051015260ff6101405160081c1615156102c060a051015260e0516102e060a051015260a051900360a051f35b602190634e487b7160e01b6000525260246000fd5b90600182811c92168015612bbd575b6020831014612ba757565b634e487b7160e01b600052602260045260246000fd5b91607f1691612b9c565b90601f8019910116810190811067ffffffffffffffff821117612be957604052565b634e487b7160e01b600052604160045260246000fd5b90604051918260008254612c1281612b8d565b90818452602094600191600181169081600014612c825750600114612c43575b505050612c4192500383612bc7565b565b600090815285812095935091905b818310612c6a575050612c419350820101388080612c32565b85548884018501529485019487945091830191612c51565b92505050612c4194925060ff191682840152151560051b820101388080612c32565b919082519283825260005b848110612cd0575050826000602080949584010152601f8019910116010190565b602081830181015184830182015201612caf565b600435906001600160a01b038216820361031457565b602435906001600160a01b038216820361031457565b60043590811515820361031457565b3461031457600036600319011261031457602060405162093a808152f35b90815180825260208080930193019160005b828110612d5d575050505090565b835185529381019392810192600101612d4f565b67ffffffffffffffff8111612be957601f01601f191660200190565b81601f8201121561031457803590612da482612d71565b92612db26040519485612bc7565b8284526020838301011161031457816000926020809301838601378301015290565b91908201809211612de157565b634e487b7160e01b600052601160045260246000fd5b91908203918211612de157565b6001600160a01b03166000908152600b60205260409020805460ff1615612e4a576003600e54910154808211600014612e4357612e4091612df7565b90565b5050600090565b50600090565b8115612e5a570690565b634e487b7160e01b600052601260045260246000fd5b3d15612e9b573d90612e8182612d71565b91612e8f6040519384612bc7565b82523d6000602084013e565b606090565b60018060a01b0380911690600092828452600b60205260ff60408520541615612f62578116907f0000000000000000000000000000000000000000000000000000000000000000168114612f55578083526019602052604083209060ff60038301541615612f6257828452600b602052612f2260408520600184015493613be8565b928452601b60205260408420908452602052604083205491808310612f5a575b5081811115612f5557612e409250612df7565b505090565b915038612f42565b50505090565b6000198114612de15760010190565b67ffffffffffffffff8111612be95760051b60200190565b90612f9982612f77565b612fa66040519182612bc7565b8281528092612fb7601f1991612f77565b0190602036910137565b8051821015612fd55760209160051b010190565b634e487b7160e01b600052603260045260246000fd5b916000908183158015613177575b6131655760105491828610156131235761301285612f8f565b928496805b8282108061311a575b1561308a575080865260118060205261303c4260408920613cd4565b613070575b600182019081831161305e57506130589091612f68565b90613017565b634e487b7160e01b8852600452602487fd5b8161308461307d8b612f68565b9a88612fc1565b52613041565b919296905096939296841480613111575b6130da575b50506130ab82612f8f565b925b8281106130bb575050509190565b806130c860019284612fc1565b516130d38287612fc1565b52016130ad565b818110156130a05780855260116020526130f74260408720613cd4565b613103576001016130da565b5050935060019338806130a0565b5081811061309b565b50878910613020565b9350505091506040516020810181811067ffffffffffffffff82111761315157604052828152823681379190565b634e487b7160e01b84526041600452602484fd5b6040516381f396b760e01b8152600490fd5b5060648411612ff9565b81810292918115918404141715612de157565b8115612e5a570490565b601a54600160401b811015612be9576001810180601a55811015612fd557601a6000527f057c384a7d1c54f3a1b2e5e67b2617b8224fdfd1ea7234eea573a6ff665ff63e0180546001600160a01b0319166001600160a01b03909216919091179055565b6001600160a01b03166000908152600b602052604090205460ff161561322757600190565b600090565b60026000541461323d576002600055565b604051633ee5aeb560e01b8152600490fd5b6001600160a01b039081169081156132b757600454908116908183146132a5576001600160a01b03191682176004557f0f3a6964a8ba1b7473a14630b029eae6d49bec6babf098223718bacaac7197cc600080a3565b604051631c49f4d160e01b8152600490fd5b604051634e46966960e11b8152600490fd5b600c5490811561358a576001600160a01b0381811692907f000000000000000000000000000000000000000000000000000000000000000016838114613484575060008361340e575047905b8360005260196020526040600020918254808211156133fc5761333791612df7565b80156133fc576133dd600080516020613f3d833981519152936000958787526019602052600360408820019081549160ff8316156133e2575b50505061337e838254612dd4565b81556133c060028201916133a7613396845487612dd4565b966133a18189613194565b97612e50565b8093600183016133b8898254612dd4565b905555613e1e565b604051938493846040919493926060820195825260208201520152565b0390a3565b60016133f49360ff191617905561319e565b388080613370565b604051631ab9ebab60e01b8152600490fd5b6040516370a0823160e01b8152306004820152602081602481885afa918215613478578092613440575b505090613315565b9091506020823d602011613470575b8161345c60209383612bc7565b8101031261346d5750513880613438565b80fd5b3d915061344f565b604051903d90823e3d90fd5b6040516370a0823160e01b8152306004820152919250602090829060249082905afa9081156107b357600091613558575b5060075491828211156133fc57826135026134e1600095600080516020613f3d83398151915295612df7565b80926134fa60065480841115891461075b578390612df7565b600655612dd4565b6007556133dd613528613517600f5484612dd4565b936135228186613194565b94612e50565b61353484600e54612dd4565b600e5580600f55604051938493846040919493926060820195825260208201520152565b90506020813d602011613582575b8161357360209383612bc7565b810103126103145751386134b5565b3d9150613566565b604051630292d7c360e51b8152600490fd5b90600c5491821561358a576001600160a01b0381811693907f0000000000000000000000000000000000000000000000000000000000000000168481146136b95750600084613652575047915b8460005260196020526040600020928354808211156133fc5761360b91612df7565b9081156133fc57600080516020613f3d833981519152936133dd9187600052601960205260036040600020019081549160ff8316156133e25750505061337e838254612dd4565b6040516370a0823160e01b8152306004820152602081602481895afa918215613478578092613684575b5050916135e9565b9091506020823d6020116136b1575b816136a060209383612bc7565b8101031261346d575051388061367c565b3d9150613693565b6040516370a0823160e01b81523060048201529250602090839060249082905afa9182156107b35760009261372b575b50600754808311156133fc5761350261371182600080516020613f3d83398151915295612df7565b80926134fa6006548084111560001461075b578390612df7565b9091506020813d602011613757575b8161374760209383612bc7565b81010312610314575190386136e9565b3d915061373a565b6001600160a01b03959493929190861680151590816138ab575b50613899578061385c575b5061381f575b5050507fa00a4448d1c98b3edafbf488446a8320c2cb278ba20dd49c7b5d41a7ebfd582b60a060055492600154600254600354916040519687526020870152604086015260608501527f000000000000000000000000000000000000000000000000000000000000000060808501527f00000000000000000000000000000000000000000000000000000000000000001692a2565b61384b7f0000000000000000000000000000000000000000000000000000000000000000848484613916565b60015560025560035538808061378a565b600a811061388757600a81066138755760055538613784565b604051636fe6a4c960e01b8152600490fd5b604051635eee050360e11b8152600490fd5b60405163b078ee9d60e01b8152600490fd5b9050867f000000000000000000000000000000000000000000000000000000000000000016141538613779565b60207f752d7e161ff5146f80e3820893176eb40532811e5e20400dfdde57455213706a91151560ff196008541660ff821617600855604051908152a1565b61392a926114576064959361145793612dd4565b0361393157565b60405163542c8df360e11b8152600490fd5b600091338352602091600b835260409060ff828620541615613b6b573385526013845260ff8286205416613afe575b80613af8575062093a80925b62093a808410613ae75762278d008411613ad6577f3417b456fad6209c73445d5efd446d686e75e4560f0f50c13b5a5cde976447b4601054916139c083612f68565b60105582968381526011825283856139f981842099838b5560018b01336bffffffffffffffffffffffff60a01b82541617905542612dd4565b92600d8a0193845542600e8b01554360178b0155600f8a0160ff199081815416905533825260108b01865282822060018282541617905560118b0186528282206001828254161790556001600b8c015581600c8c0155600c548060128d015560148c0183815560168d0183815416905581151580613ac0575b613a9d575b5050338252601386526001838320918254161790556012855220555493519384523393a3565b4290554360158d015560138c0155613ab7600a5442612dd4565b85553880613a77565b50613acd82600954613181565b60641015613a72565b815163eeeb962360e01b8152600490fd5b81516331806aeb60e21b8152600490fd5b9261397e565b601284939294528385205485526011835283852060ff600f82015416159081613b5d575b5015613b3957835163792c310960e11b8152600490fd5b929091923385526013845281852060ff198154169055601284528482812055613972565b600d91500154421038613b22565b815163148fe22160e11b8152600490fd5b60405163a9059cbb60e01b60208201526001600160a01b039092166024830152604480830193909352918152608081019167ffffffffffffffff831182841017612be957612c4192604052613ee0565b8054821015612fd55760005260206000209060011b0190600090565b906004808301918254938415613cc857506002810154600180920154906000955b808710613c395750505050508115612e43576000198201918211612de157600191613c3391613bcc565b50015490565b613c438188612dd4565b841c90613c508288613bcc565b505467ffffffffffffffff9081811680861015613c705750505050613c09565b929992851115613ca257505050838101809111613c8d5795613c09565b601185634e487b7160e01b6000525260246000fd5b91989160401c16841015613cb65750613c09565b9650838101809111613c8d5795613c09565b60010154949350505050565b90600d820154119081613ce5575090565b60ff9150600f0154161590565b6040516323b872dd60e01b60208201526001600160a01b03928316602482015292909116604483015260648083019390935291815260a081019181831067ffffffffffffffff841117612be957612c4192604052613ee0565b91908015613d8e576002830154818111613d8557149182613d77575b5050613d7257600090565b600190565b600101541190503880613d67565b50505050600190565b505050600090565b8054600160401b811015612be957613db391600182018155613bcc565b919091613e08578051825460208301516fffffffffffffffffffffffffffffffff1990911667ffffffffffffffff9290921691909117604091821b67ffffffffffffffff60401b161783556001910151910155565b634e487b7160e01b600052600060045260246000fd5b67ffffffffffffffff600182015490604051926060840184811083821117612be957604052814316845260046020850191834216835260408601948552019384548015613ed2576000198101908111612de157613e7b9086613bcc565b5094838654168483511614600014613ec35750505183546fffffffffffffffff00000000000000001916911660401b67ffffffffffffffff60401b1617825560019051910155565b9250925050612c419250613d96565b5092505050612c4191613d96565b906000602091828151910182855af1156107b3576000513d613f3357506001600160a01b0381163b155b613f115750565b604051635274afe760e01b81526001600160a01b039091166004820152602490fd5b60011415613f0a56fef502c7eda43df8a8ec352065360db3486f90ce32849cf8182983d7939bfd3626af8f9d0e884d3306a083e846741a0bc4d75908e2b0ec63b558219652ae4c1b90d81f085560db5c809c425a15f00e3f2904e4fa46d6e8672ff2e671ccd6d9a231a26469706673582212207fcbf7fe187f6a50bc8cda25f95c550e33fa316ccbc15b5197a87651770e422664736f6c63430008170033a2646970667358221220af77bc3ab3dbd22c1f9a24136971c91b0dc4df1a4da4a23e528205b8d0a543b364736f6c63430008170033",
  "linkReferences": {},
  "deployedLinkReferences": {}
}