{
  "_format": "hh-sol-artifact-1",
  "contractName": "TEMPL",
  "sourceName": "contracts/TEMPL.sol",
  "abi": [
    {
      "inputs": [
        {
          "internalType": "address",
          "name": "_priest",
          "type": "address"
        },
        {
          "internalType": "address",
          "name": "_protocolFeeRecipient",
          "type": "address"
        },
        {
          "internalType": "address",
          "name": "_token",
          "type": "address"
        },
        {
          "internalType": "uint256",
          "name": "_entryFee",
          "type": "uint256"
        },
        {
          "internalType": "uint256",
          "name": "_burnPercent",
          "type": "uint256"
        },
        {
          "internalType": "uint256",
          "name": "_treasuryPercent",
          "type": "uint256"
        },
        {
          "internalType": "uint256",
          "name": "_memberPoolPercent",
          "type": "uint256"
        },
        {
          "internalType": "uint256",
          "name": "_protocolPercent",
          "type": "uint256"
        },
        {
          "internalType": "uint256",
          "name": "_quorumPercent",
          "type": "uint256"
        },
        {
          "internalType": "uint256",
          "name": "_executionDelay",
          "type": "uint256"
        },
        {
          "internalType": "address",
          "name": "_burnAddress",
          "type": "address"
        },
        {
          "internalType": "bool",
          "name": "_priestIsDictator",
          "type": "bool"
        },
        {
          "internalType": "uint256",
          "name": "_maxMembers",
          "type": "uint256"
        },
        {
          "internalType": "string",
          "name": "_homeLink",
          "type": "string"
        }
      ],
      "stateMutability": "nonpayable",
      "type": "constructor"
    },
    {
      "inputs": [],
      "name": "ActiveProposalExists",
      "type": "error"
    },
    {
      "inputs": [],
      "name": "AlreadyExecuted",
      "type": "error"
    },
    {
      "inputs": [],
      "name": "AlreadyPurchased",
      "type": "error"
    },
    {
      "inputs": [],
      "name": "AmountZero",
      "type": "error"
    },
    {
      "inputs": [],
      "name": "ContractPausedError",
      "type": "error"
    },
    {
      "inputs": [],
      "name": "DictatorshipEnabled",
      "type": "error"
    },
    {
      "inputs": [],
      "name": "DictatorshipUnchanged",
      "type": "error"
    },
    {
      "inputs": [],
      "name": "EntryFeeTooSmall",
      "type": "error"
    },
    {
      "inputs": [],
      "name": "ExecutionDelayActive",
      "type": "error"
    },
    {
      "inputs": [],
      "name": "ExternalRewardLimitReached",
      "type": "error"
    },
    {
      "inputs": [],
      "name": "ExternalRewardsNotSettled",
      "type": "error"
    },
    {
      "inputs": [],
      "name": "InsufficientBalance",
      "type": "error"
    },
    {
      "inputs": [],
      "name": "InsufficientPoolBalance",
      "type": "error"
    },
    {
      "inputs": [],
      "name": "InsufficientTreasuryBalance",
      "type": "error"
    },
    {
      "inputs": [],
      "name": "InvalidCallData",
      "type": "error"
    },
    {
      "inputs": [],
      "name": "InvalidEntryFee",
      "type": "error"
    },
    {
      "inputs": [],
      "name": "InvalidPercentage",
      "type": "error"
    },
    {
      "inputs": [],
      "name": "InvalidPercentageSplit",
      "type": "error"
    },
    {
      "inputs": [],
      "name": "InvalidProposal",
      "type": "error"
    },
    {
      "inputs": [],
      "name": "InvalidRecipient",
      "type": "error"
    },
    {
      "inputs": [],
      "name": "InvalidSender",
      "type": "error"
    },
    {
      "inputs": [],
      "name": "JoinedAfterProposal",
      "type": "error"
    },
    {
      "inputs": [],
      "name": "LimitOutOfRange",
      "type": "error"
    },
    {
      "inputs": [],
      "name": "MemberLimitReached",
      "type": "error"
    },
    {
      "inputs": [],
      "name": "MemberLimitTooLow",
      "type": "error"
    },
    {
      "inputs": [],
      "name": "NoMembers",
      "type": "error"
    },
    {
      "inputs": [],
      "name": "NoRewardsToClaim",
      "type": "error"
    },
    {
      "inputs": [],
      "name": "NoTreasuryFunds",
      "type": "error"
    },
    {
      "inputs": [],
      "name": "NotDAO",
      "type": "error"
    },
    {
      "inputs": [],
      "name": "NotMember",
      "type": "error"
    },
    {
      "inputs": [],
      "name": "PriestOnly",
      "type": "error"
    },
    {
      "inputs": [],
      "name": "ProposalExecutionFailed",
      "type": "error"
    },
    {
      "inputs": [],
      "name": "ProposalNotPassed",
      "type": "error"
    },
    {
      "inputs": [],
      "name": "QuorumNotReached",
      "type": "error"
    },
    {
      "inputs": [],
      "name": "ReentrancyGuardReentrantCall",
      "type": "error"
    },
    {
      "inputs": [
        {
          "internalType": "address",
          "name": "token",
          "type": "address"
        }
      ],
      "name": "SafeERC20FailedOperation",
      "type": "error"
    },
    {
      "inputs": [],
      "name": "TokenChangeDisabled",
      "type": "error"
    },
    {
      "inputs": [],
      "name": "VotingEnded",
      "type": "error"
    },
    {
      "inputs": [],
      "name": "VotingNotEnded",
      "type": "error"
    },
    {
      "inputs": [],
      "name": "VotingPeriodTooLong",
      "type": "error"
    },
    {
      "inputs": [],
      "name": "VotingPeriodTooShort",
      "type": "error"
    },
    {
      "anonymous": false,
      "inputs": [
        {
          "indexed": true,
          "internalType": "address",
          "name": "purchaser",
          "type": "address"
        },
        {
          "indexed": false,
          "internalType": "uint256",
          "name": "totalAmount",
          "type": "uint256"
        },
        {
          "indexed": false,
          "internalType": "uint256",
          "name": "burnedAmount",
          "type": "uint256"
        },
        {
          "indexed": false,
          "internalType": "uint256",
          "name": "treasuryAmount",
          "type": "uint256"
        },
        {
          "indexed": false,
          "internalType": "uint256",
          "name": "memberPoolAmount",
          "type": "uint256"
        },
        {
          "indexed": false,
          "internalType": "uint256",
          "name": "protocolAmount",
          "type": "uint256"
        },
        {
          "indexed": false,
          "internalType": "uint256",
          "name": "timestamp",
          "type": "uint256"
        },
        {
          "indexed": false,
          "internalType": "uint256",
          "name": "blockNumber",
          "type": "uint256"
        },
        {
          "indexed": false,
          "internalType": "uint256",
          "name": "purchaseId",
          "type": "uint256"
        }
      ],
      "name": "AccessPurchased",
      "type": "event"
    },
    {
      "anonymous": false,
      "inputs": [
        {
          "indexed": true,
          "internalType": "address",
          "name": "token",
          "type": "address"
        },
        {
          "indexed": false,
          "internalType": "uint256",
          "name": "entryFee",
          "type": "uint256"
        },
        {
          "indexed": false,
          "internalType": "uint256",
          "name": "burnPercent",
          "type": "uint256"
        },
        {
          "indexed": false,
          "internalType": "uint256",
          "name": "treasuryPercent",
          "type": "uint256"
        },
        {
          "indexed": false,
          "internalType": "uint256",
          "name": "memberPoolPercent",
          "type": "uint256"
        },
        {
          "indexed": false,
          "internalType": "uint256",
          "name": "protocolPercent",
          "type": "uint256"
        }
      ],
      "name": "ConfigUpdated",
      "type": "event"
    },
    {
      "anonymous": false,
      "inputs": [
        {
          "indexed": false,
          "internalType": "bool",
          "name": "isPaused",
          "type": "bool"
        }
      ],
      "name": "ContractPaused",
      "type": "event"
    },
    {
      "anonymous": false,
      "inputs": [
        {
          "indexed": false,
          "internalType": "bool",
          "name": "enabled",
          "type": "bool"
        }
      ],
      "name": "DictatorshipModeChanged",
      "type": "event"
    },
    {
      "anonymous": false,
      "inputs": [
        {
          "indexed": true,
          "internalType": "address",
          "name": "token",
          "type": "address"
        },
        {
          "indexed": true,
          "internalType": "address",
          "name": "member",
          "type": "address"
        },
        {
          "indexed": false,
          "internalType": "uint256",
          "name": "amount",
          "type": "uint256"
        }
      ],
      "name": "ExternalRewardClaimed",
      "type": "event"
    },
    {
      "anonymous": false,
      "inputs": [
        {
          "indexed": false,
          "internalType": "uint256",
          "name": "maxMembers",
          "type": "uint256"
        }
      ],
      "name": "MaxMembersUpdated",
      "type": "event"
    },
    {
      "anonymous": false,
      "inputs": [
        {
          "indexed": true,
          "internalType": "address",
          "name": "member",
          "type": "address"
        },
        {
          "indexed": false,
          "internalType": "uint256",
          "name": "amount",
          "type": "uint256"
        },
        {
          "indexed": false,
          "internalType": "uint256",
          "name": "timestamp",
          "type": "uint256"
        }
      ],
      "name": "MemberPoolClaimed",
      "type": "event"
    },
    {
      "anonymous": false,
      "inputs": [
        {
          "indexed": true,
          "internalType": "address",
          "name": "oldPriest",
          "type": "address"
        },
        {
          "indexed": true,
          "internalType": "address",
          "name": "newPriest",
          "type": "address"
        }
      ],
      "name": "PriestChanged",
      "type": "event"
    },
    {
      "anonymous": false,
      "inputs": [
        {
          "indexed": true,
          "internalType": "uint256",
          "name": "proposalId",
          "type": "uint256"
        },
        {
          "indexed": true,
          "internalType": "address",
          "name": "proposer",
          "type": "address"
        },
        {
          "indexed": false,
          "internalType": "uint256",
          "name": "endTime",
          "type": "uint256"
        },
        {
          "indexed": false,
          "internalType": "string",
          "name": "title",
          "type": "string"
        },
        {
          "indexed": false,
          "internalType": "string",
          "name": "description",
          "type": "string"
        }
      ],
      "name": "ProposalCreated",
      "type": "event"
    },
    {
      "anonymous": false,
      "inputs": [
        {
          "indexed": true,
          "internalType": "uint256",
          "name": "proposalId",
          "type": "uint256"
        },
        {
          "indexed": false,
          "internalType": "bool",
          "name": "success",
          "type": "bool"
        },
        {
          "indexed": false,
          "internalType": "bytes",
          "name": "returnData",
          "type": "bytes"
        }
      ],
      "name": "ProposalExecuted",
      "type": "event"
    },
    {
      "anonymous": false,
      "inputs": [
        {
          "indexed": false,
          "internalType": "string",
          "name": "previousLink",
          "type": "string"
        },
        {
          "indexed": false,
          "internalType": "string",
          "name": "newLink",
          "type": "string"
        }
      ],
      "name": "TemplHomeLinkUpdated",
      "type": "event"
    },
    {
      "anonymous": false,
      "inputs": [
        {
          "indexed": true,
          "internalType": "uint256",
          "name": "proposalId",
          "type": "uint256"
        },
        {
          "indexed": true,
          "internalType": "address",
          "name": "token",
          "type": "address"
        },
        {
          "indexed": true,
          "internalType": "address",
          "name": "recipient",
          "type": "address"
        },
        {
          "indexed": false,
          "internalType": "uint256",
          "name": "amount",
          "type": "uint256"
        },
        {
          "indexed": false,
          "internalType": "string",
          "name": "description",
          "type": "string"
        }
      ],
      "name": "TreasuryAction",
      "type": "event"
    },
    {
      "anonymous": false,
      "inputs": [
        {
          "indexed": true,
          "internalType": "uint256",
          "name": "proposalId",
          "type": "uint256"
        },
        {
          "indexed": true,
          "internalType": "address",
          "name": "token",
          "type": "address"
        },
        {
          "indexed": false,
          "internalType": "uint256",
          "name": "amount",
          "type": "uint256"
        },
        {
          "indexed": false,
          "internalType": "uint256",
          "name": "perMember",
          "type": "uint256"
        },
        {
          "indexed": false,
          "internalType": "uint256",
          "name": "remainder",
          "type": "uint256"
        }
      ],
      "name": "TreasuryDisbanded",
      "type": "event"
    },
    {
      "anonymous": false,
      "inputs": [
        {
          "indexed": true,
          "internalType": "uint256",
          "name": "proposalId",
          "type": "uint256"
        },
        {
          "indexed": true,
          "internalType": "address",
          "name": "voter",
          "type": "address"
        },
        {
          "indexed": false,
          "internalType": "bool",
          "name": "support",
          "type": "bool"
        },
        {
          "indexed": false,
          "internalType": "uint256",
          "name": "timestamp",
          "type": "uint256"
        }
      ],
      "name": "VoteCast",
      "type": "event"
    },
    {
      "inputs": [],
      "name": "DEFAULT_VOTING_PERIOD",
      "outputs": [
        {
          "internalType": "uint256",
          "name": "",
          "type": "uint256"
        }
      ],
      "stateMutability": "view",
      "type": "function"
    },
    {
      "inputs": [],
      "name": "MAX_MEMBERS",
      "outputs": [
        {
          "internalType": "uint256",
          "name": "",
          "type": "uint256"
        }
      ],
      "stateMutability": "view",
      "type": "function"
    },
    {
      "inputs": [],
      "name": "MAX_VOTING_PERIOD",
      "outputs": [
        {
          "internalType": "uint256",
          "name": "",
          "type": "uint256"
        }
      ],
      "stateMutability": "view",
      "type": "function"
    },
    {
      "inputs": [],
      "name": "MIN_VOTING_PERIOD",
      "outputs": [
        {
          "internalType": "uint256",
          "name": "",
          "type": "uint256"
        }
      ],
      "stateMutability": "view",
      "type": "function"
    },
    {
      "inputs": [],
      "name": "accessToken",
      "outputs": [
        {
          "internalType": "address",
          "name": "",
          "type": "address"
        }
      ],
      "stateMutability": "view",
      "type": "function"
    },
    {
      "inputs": [
        {
          "internalType": "address",
          "name": "",
          "type": "address"
        }
      ],
      "name": "activeProposalId",
      "outputs": [
        {
          "internalType": "uint256",
          "name": "",
          "type": "uint256"
        }
      ],
      "stateMutability": "view",
      "type": "function"
    },
    {
      "inputs": [],
      "name": "burnAddress",
      "outputs": [
        {
          "internalType": "address",
          "name": "",
          "type": "address"
        }
      ],
      "stateMutability": "view",
      "type": "function"
    },
    {
      "inputs": [],
      "name": "burnPercent",
      "outputs": [
        {
          "internalType": "uint256",
          "name": "",
          "type": "uint256"
        }
      ],
      "stateMutability": "view",
      "type": "function"
    },
    {
      "inputs": [
        {
          "internalType": "address",
          "name": "newPriest",
          "type": "address"
        }
      ],
      "name": "changePriestDAO",
      "outputs": [],
      "stateMutability": "nonpayable",
      "type": "function"
    },
    {
      "inputs": [
        {
          "internalType": "address",
          "name": "token",
          "type": "address"
        }
      ],
      "name": "claimExternalToken",
      "outputs": [],
      "stateMutability": "nonpayable",
      "type": "function"
    },
    {
      "inputs": [],
      "name": "claimMemberPool",
      "outputs": [],
      "stateMutability": "nonpayable",
      "type": "function"
    },
    {
      "inputs": [
        {
          "internalType": "address",
          "name": "token",
          "type": "address"
        }
      ],
      "name": "cleanupExternalRewardToken",
      "outputs": [],
      "stateMutability": "nonpayable",
      "type": "function"
    },
    {
      "inputs": [
        {
          "internalType": "address",
          "name": "_newPriest",
          "type": "address"
        },
        {
          "internalType": "uint256",
          "name": "_votingPeriod",
          "type": "uint256"
        },
        {
          "internalType": "string",
          "name": "_title",
          "type": "string"
        },
        {
          "internalType": "string",
          "name": "_description",
          "type": "string"
        }
      ],
      "name": "createProposalChangePriest",
      "outputs": [
        {
          "internalType": "uint256",
          "name": "",
          "type": "uint256"
        }
      ],
      "stateMutability": "nonpayable",
      "type": "function"
    },
    {
      "inputs": [
        {
          "internalType": "address",
          "name": "_token",
          "type": "address"
        },
        {
          "internalType": "uint256",
          "name": "_votingPeriod",
          "type": "uint256"
        },
        {
          "internalType": "string",
          "name": "_title",
          "type": "string"
        },
        {
          "internalType": "string",
          "name": "_description",
          "type": "string"
        }
      ],
      "name": "createProposalDisbandTreasury",
      "outputs": [
        {
          "internalType": "uint256",
          "name": "",
          "type": "uint256"
        }
      ],
      "stateMutability": "nonpayable",
      "type": "function"
    },
    {
      "inputs": [
        {
          "internalType": "bool",
          "name": "_enable",
          "type": "bool"
        },
        {
          "internalType": "uint256",
          "name": "_votingPeriod",
          "type": "uint256"
        },
        {
          "internalType": "string",
          "name": "_title",
          "type": "string"
        },
        {
          "internalType": "string",
          "name": "_description",
          "type": "string"
        }
      ],
      "name": "createProposalSetDictatorship",
      "outputs": [
        {
          "internalType": "uint256",
          "name": "",
          "type": "uint256"
        }
      ],
      "stateMutability": "nonpayable",
      "type": "function"
    },
    {
      "inputs": [
        {
          "internalType": "string",
          "name": "_newLink",
          "type": "string"
        },
        {
          "internalType": "uint256",
          "name": "_votingPeriod",
          "type": "uint256"
        },
        {
          "internalType": "string",
          "name": "_title",
          "type": "string"
        },
        {
          "internalType": "string",
          "name": "_description",
          "type": "string"
        }
      ],
      "name": "createProposalSetHomeLink",
      "outputs": [
        {
          "internalType": "uint256",
          "name": "",
          "type": "uint256"
        }
      ],
      "stateMutability": "nonpayable",
      "type": "function"
    },
    {
      "inputs": [
        {
          "internalType": "uint256",
          "name": "_newMaxMembers",
          "type": "uint256"
        },
        {
          "internalType": "uint256",
          "name": "_votingPeriod",
          "type": "uint256"
        },
        {
          "internalType": "string",
          "name": "_title",
          "type": "string"
        },
        {
          "internalType": "string",
          "name": "_description",
          "type": "string"
        }
      ],
      "name": "createProposalSetMaxMembers",
      "outputs": [
        {
          "internalType": "uint256",
          "name": "",
          "type": "uint256"
        }
      ],
      "stateMutability": "nonpayable",
      "type": "function"
    },
    {
      "inputs": [
        {
          "internalType": "bool",
          "name": "_paused",
          "type": "bool"
        },
        {
          "internalType": "uint256",
          "name": "_votingPeriod",
          "type": "uint256"
        },
        {
          "internalType": "string",
          "name": "_title",
          "type": "string"
        },
        {
          "internalType": "string",
          "name": "_description",
          "type": "string"
        }
      ],
      "name": "createProposalSetPaused",
      "outputs": [
        {
          "internalType": "uint256",
          "name": "",
          "type": "uint256"
        }
      ],
      "stateMutability": "nonpayable",
      "type": "function"
    },
    {
      "inputs": [
        {
          "internalType": "uint256",
          "name": "_newEntryFee",
          "type": "uint256"
        },
        {
          "internalType": "uint256",
          "name": "_newBurnPercent",
          "type": "uint256"
        },
        {
          "internalType": "uint256",
          "name": "_newTreasuryPercent",
          "type": "uint256"
        },
        {
          "internalType": "uint256",
          "name": "_newMemberPoolPercent",
          "type": "uint256"
        },
        {
          "internalType": "bool",
          "name": "_updateFeeSplit",
          "type": "bool"
        },
        {
          "internalType": "uint256",
          "name": "_votingPeriod",
          "type": "uint256"
        },
        {
          "internalType": "string",
          "name": "_title",
          "type": "string"
        },
        {
          "internalType": "string",
          "name": "_description",
          "type": "string"
        }
      ],
      "name": "createProposalUpdateConfig",
      "outputs": [
        {
          "internalType": "uint256",
          "name": "",
          "type": "uint256"
        }
      ],
      "stateMutability": "nonpayable",
      "type": "function"
    },
    {
      "inputs": [
        {
          "internalType": "address",
          "name": "_token",
          "type": "address"
        },
        {
          "internalType": "address",
          "name": "_recipient",
          "type": "address"
        },
        {
          "internalType": "uint256",
          "name": "_amount",
          "type": "uint256"
        },
        {
          "internalType": "string",
          "name": "_reason",
          "type": "string"
        },
        {
          "internalType": "uint256",
          "name": "_votingPeriod",
          "type": "uint256"
        },
        {
          "internalType": "string",
          "name": "_title",
          "type": "string"
        },
        {
          "internalType": "string",
          "name": "_description",
          "type": "string"
        }
      ],
      "name": "createProposalWithdrawTreasury",
      "outputs": [
        {
          "internalType": "uint256",
          "name": "",
          "type": "uint256"
        }
      ],
      "stateMutability": "nonpayable",
      "type": "function"
    },
    {
      "inputs": [],
      "name": "cumulativeMemberRewards",
      "outputs": [
        {
          "internalType": "uint256",
          "name": "",
          "type": "uint256"
        }
      ],
      "stateMutability": "view",
      "type": "function"
    },
    {
      "inputs": [
        {
          "internalType": "address",
          "name": "token",
          "type": "address"
        }
      ],
      "name": "disbandTreasuryDAO",
      "outputs": [],
      "stateMutability": "nonpayable",
      "type": "function"
    },
    {
      "inputs": [],
      "name": "entryFee",
      "outputs": [
        {
          "internalType": "uint256",
          "name": "",
          "type": "uint256"
        }
      ],
      "stateMutability": "view",
      "type": "function"
    },
    {
      "inputs": [
        {
          "internalType": "uint256",
          "name": "_proposalId",
          "type": "uint256"
        }
      ],
      "name": "executeProposal",
      "outputs": [],
      "stateMutability": "nonpayable",
      "type": "function"
    },
    {
      "inputs": [],
      "name": "executionDelayAfterQuorum",
      "outputs": [
        {
          "internalType": "uint256",
          "name": "",
          "type": "uint256"
        }
      ],
      "stateMutability": "view",
      "type": "function"
    },
    {
      "inputs": [],
      "name": "getActiveProposals",
      "outputs": [
        {
          "internalType": "uint256[]",
          "name": "",
          "type": "uint256[]"
        }
      ],
      "stateMutability": "view",
      "type": "function"
    },
    {
      "inputs": [
        {
          "internalType": "uint256",
          "name": "offset",
          "type": "uint256"
        },
        {
          "internalType": "uint256",
          "name": "limit",
          "type": "uint256"
        }
      ],
      "name": "getActiveProposalsPaginated",
      "outputs": [
        {
          "internalType": "uint256[]",
          "name": "proposalIds",
          "type": "uint256[]"
        },
        {
          "internalType": "bool",
          "name": "hasMore",
          "type": "bool"
        }
      ],
      "stateMutability": "view",
      "type": "function"
    },
    {
      "inputs": [
        {
          "internalType": "address",
          "name": "member",
          "type": "address"
        },
        {
          "internalType": "address",
          "name": "token",
          "type": "address"
        }
      ],
      "name": "getClaimableExternalToken",
      "outputs": [
        {
          "internalType": "uint256",
          "name": "amount",
          "type": "uint256"
        }
      ],
      "stateMutability": "view",
      "type": "function"
    },
    {
      "inputs": [
        {
          "internalType": "address",
          "name": "member",
          "type": "address"
        }
      ],
      "name": "getClaimablePoolAmount",
      "outputs": [
        {
          "internalType": "uint256",
          "name": "",
          "type": "uint256"
        }
      ],
      "stateMutability": "view",
      "type": "function"
    },
    {
      "inputs": [],
      "name": "getConfig",
      "outputs": [
        {
          "internalType": "address",
          "name": "token",
          "type": "address"
        },
        {
          "internalType": "uint256",
          "name": "fee",
          "type": "uint256"
        },
        {
          "internalType": "bool",
          "name": "isPaused",
          "type": "bool"
        },
        {
          "internalType": "uint256",
          "name": "purchases",
          "type": "uint256"
        },
        {
          "internalType": "uint256",
          "name": "treasury",
          "type": "uint256"
        },
        {
          "internalType": "uint256",
          "name": "pool",
          "type": "uint256"
        },
        {
          "internalType": "uint256",
          "name": "burnPercentOut",
          "type": "uint256"
        },
        {
          "internalType": "uint256",
          "name": "treasuryPercentOut",
          "type": "uint256"
        },
        {
          "internalType": "uint256",
          "name": "memberPoolPercentOut",
          "type": "uint256"
        },
        {
          "internalType": "uint256",
          "name": "protocolPercentOut",
          "type": "uint256"
        }
      ],
      "stateMutability": "view",
      "type": "function"
    },
    {
      "inputs": [
        {
          "internalType": "address",
          "name": "token",
          "type": "address"
        }
      ],
      "name": "getExternalRewardState",
      "outputs": [
        {
          "internalType": "uint256",
          "name": "poolBalance",
          "type": "uint256"
        },
        {
          "internalType": "uint256",
          "name": "cumulativeRewards",
          "type": "uint256"
        },
        {
          "internalType": "uint256",
          "name": "remainder",
          "type": "uint256"
        }
      ],
      "stateMutability": "view",
      "type": "function"
    },
    {
      "inputs": [],
      "name": "getExternalRewardTokens",
      "outputs": [
        {
          "internalType": "address[]",
          "name": "tokens",
          "type": "address[]"
        }
      ],
      "stateMutability": "view",
      "type": "function"
    },
    {
      "inputs": [],
      "name": "getMemberCount",
      "outputs": [
        {
          "internalType": "uint256",
          "name": "",
          "type": "uint256"
        }
      ],
      "stateMutability": "view",
      "type": "function"
    },
    {
      "inputs": [
        {
          "internalType": "uint256",
          "name": "_proposalId",
          "type": "uint256"
        }
      ],
      "name": "getProposal",
      "outputs": [
        {
          "internalType": "address",
          "name": "proposer",
          "type": "address"
        },
        {
          "internalType": "uint256",
          "name": "yesVotes",
          "type": "uint256"
        },
        {
          "internalType": "uint256",
          "name": "noVotes",
          "type": "uint256"
        },
        {
          "internalType": "uint256",
          "name": "endTime",
          "type": "uint256"
        },
        {
          "internalType": "bool",
          "name": "executed",
          "type": "bool"
        },
        {
          "internalType": "bool",
          "name": "passed",
          "type": "bool"
        },
        {
          "internalType": "string",
          "name": "title",
          "type": "string"
        },
        {
          "internalType": "string",
          "name": "description",
          "type": "string"
        }
      ],
      "stateMutability": "view",
      "type": "function"
    },
    {
      "inputs": [
        {
          "internalType": "uint256",
          "name": "_proposalId",
          "type": "uint256"
        }
      ],
      "name": "getProposalSnapshots",
      "outputs": [
        {
          "internalType": "uint256",
          "name": "eligibleVotersPreQuorum",
          "type": "uint256"
        },
        {
          "internalType": "uint256",
          "name": "eligibleVotersPostQuorum",
          "type": "uint256"
        },
        {
          "internalType": "uint256",
          "name": "preQuorumSnapshotBlock",
          "type": "uint256"
        },
        {
          "internalType": "uint256",
          "name": "quorumSnapshotBlock",
          "type": "uint256"
        },
        {
          "internalType": "uint256",
          "name": "createdAt",
          "type": "uint256"
        },
        {
          "internalType": "uint256",
          "name": "quorumReachedAt",
          "type": "uint256"
        }
      ],
      "stateMutability": "view",
      "type": "function"
    },
    {
      "inputs": [
        {
          "internalType": "address",
          "name": "user",
          "type": "address"
        }
      ],
      "name": "getPurchaseDetails",
      "outputs": [
        {
          "internalType": "bool",
          "name": "purchased",
          "type": "bool"
        },
        {
          "internalType": "uint256",
          "name": "timestamp",
          "type": "uint256"
        },
        {
          "internalType": "uint256",
          "name": "blockNum",
          "type": "uint256"
        }
      ],
      "stateMutability": "view",
      "type": "function"
    },
    {
      "inputs": [],
      "name": "getTreasuryInfo",
      "outputs": [
        {
          "internalType": "uint256",
          "name": "treasury",
          "type": "uint256"
        },
        {
          "internalType": "uint256",
          "name": "memberPool",
          "type": "uint256"
        },
        {
          "internalType": "address",
          "name": "protocolAddress",
          "type": "address"
        }
      ],
      "stateMutability": "view",
      "type": "function"
    },
    {
      "inputs": [
        {
          "internalType": "address",
          "name": "voter",
          "type": "address"
        }
      ],
      "name": "getVoteWeight",
      "outputs": [
        {
          "internalType": "uint256",
          "name": "weight",
          "type": "uint256"
        }
      ],
      "stateMutability": "view",
      "type": "function"
    },
    {
      "inputs": [
        {
          "internalType": "address",
          "name": "user",
          "type": "address"
        }
      ],
      "name": "hasAccess",
      "outputs": [
        {
          "internalType": "bool",
          "name": "",
          "type": "bool"
        }
      ],
      "stateMutability": "view",
      "type": "function"
    },
    {
      "inputs": [
        {
          "internalType": "address",
          "name": "",
          "type": "address"
        }
      ],
      "name": "hasActiveProposal",
      "outputs": [
        {
          "internalType": "bool",
          "name": "",
          "type": "bool"
        }
      ],
      "stateMutability": "view",
      "type": "function"
    },
    {
      "inputs": [
        {
          "internalType": "uint256",
          "name": "_proposalId",
          "type": "uint256"
        },
        {
          "internalType": "address",
          "name": "_voter",
          "type": "address"
        }
      ],
      "name": "hasVoted",
      "outputs": [
        {
          "internalType": "bool",
          "name": "voted",
          "type": "bool"
        },
        {
          "internalType": "bool",
          "name": "support",
          "type": "bool"
        }
      ],
      "stateMutability": "view",
      "type": "function"
    },
    {
      "inputs": [],
      "name": "memberCount",
      "outputs": [
        {
          "internalType": "uint256",
          "name": "",
          "type": "uint256"
        }
      ],
      "stateMutability": "view",
      "type": "function"
    },
    {
      "inputs": [],
      "name": "memberPoolBalance",
      "outputs": [
        {
          "internalType": "uint256",
          "name": "",
          "type": "uint256"
        }
      ],
      "stateMutability": "view",
      "type": "function"
    },
    {
      "inputs": [
        {
          "internalType": "address",
          "name": "",
          "type": "address"
        }
      ],
      "name": "memberPoolClaims",
      "outputs": [
        {
          "internalType": "uint256",
          "name": "",
          "type": "uint256"
        }
      ],
      "stateMutability": "view",
      "type": "function"
    },
    {
      "inputs": [],
      "name": "memberPoolPercent",
      "outputs": [
        {
          "internalType": "uint256",
          "name": "",
          "type": "uint256"
        }
      ],
      "stateMutability": "view",
      "type": "function"
    },
    {
      "inputs": [],
      "name": "memberRewardRemainder",
      "outputs": [
        {
          "internalType": "uint256",
          "name": "",
          "type": "uint256"
        }
      ],
      "stateMutability": "view",
      "type": "function"
    },
    {
      "inputs": [
        {
          "internalType": "address",
          "name": "",
          "type": "address"
        }
      ],
      "name": "members",
      "outputs": [
        {
          "internalType": "bool",
          "name": "purchased",
          "type": "bool"
        },
        {
          "internalType": "uint256",
          "name": "timestamp",
          "type": "uint256"
        },
        {
          "internalType": "uint256",
          "name": "block",
          "type": "uint256"
        },
        {
          "internalType": "uint256",
          "name": "rewardSnapshot",
          "type": "uint256"
        }
      ],
      "stateMutability": "view",
      "type": "function"
    },
    {
      "inputs": [],
      "name": "paused",
      "outputs": [
        {
          "internalType": "bool",
          "name": "",
          "type": "bool"
        }
      ],
      "stateMutability": "view",
      "type": "function"
    },
    {
      "inputs": [],
      "name": "priest",
      "outputs": [
        {
          "internalType": "address",
          "name": "",
          "type": "address"
        }
      ],
      "stateMutability": "view",
      "type": "function"
    },
    {
      "inputs": [],
      "name": "priestIsDictator",
      "outputs": [
        {
          "internalType": "bool",
          "name": "",
          "type": "bool"
        }
      ],
      "stateMutability": "view",
      "type": "function"
    },
    {
      "inputs": [],
      "name": "proposalCount",
      "outputs": [
        {
          "internalType": "uint256",
          "name": "",
          "type": "uint256"
        }
      ],
      "stateMutability": "view",
      "type": "function"
    },
    {
      "inputs": [
        {
          "internalType": "uint256",
          "name": "",
          "type": "uint256"
        }
      ],
      "name": "proposals",
      "outputs": [
        {
          "internalType": "uint256",
          "name": "id",
          "type": "uint256"
        },
        {
          "internalType": "address",
          "name": "proposer",
          "type": "address"
        },
        {
          "internalType": "enum TemplBase.Action",
          "name": "action",
          "type": "uint8"
        },
        {
          "internalType": "address",
          "name": "token",
          "type": "address"
        },
        {
          "internalType": "address",
          "name": "recipient",
          "type": "address"
        },
        {
          "internalType": "uint256",
          "name": "amount",
          "type": "uint256"
        },
        {
          "internalType": "string",
          "name": "title",
          "type": "string"
        },
        {
          "internalType": "string",
          "name": "description",
          "type": "string"
        },
        {
          "internalType": "string",
          "name": "reason",
          "type": "string"
        },
        {
          "internalType": "bool",
          "name": "paused",
          "type": "bool"
        },
        {
          "internalType": "uint256",
          "name": "newEntryFee",
          "type": "uint256"
        },
        {
          "internalType": "uint256",
          "name": "newBurnPercent",
          "type": "uint256"
        },
        {
          "internalType": "uint256",
          "name": "newTreasuryPercent",
          "type": "uint256"
        },
        {
          "internalType": "uint256",
          "name": "newMemberPoolPercent",
          "type": "uint256"
        },
        {
          "internalType": "string",
          "name": "newHomeLink",
          "type": "string"
        },
        {
          "internalType": "uint256",
          "name": "newMaxMembers",
          "type": "uint256"
        },
        {
          "internalType": "uint256",
          "name": "yesVotes",
          "type": "uint256"
        },
        {
          "internalType": "uint256",
          "name": "noVotes",
          "type": "uint256"
        },
        {
          "internalType": "uint256",
          "name": "endTime",
          "type": "uint256"
        },
        {
          "internalType": "uint256",
          "name": "createdAt",
          "type": "uint256"
        },
        {
          "internalType": "bool",
          "name": "executed",
          "type": "bool"
        },
        {
          "internalType": "uint256",
          "name": "eligibleVoters",
          "type": "uint256"
        },
        {
          "internalType": "uint256",
          "name": "postQuorumEligibleVoters",
          "type": "uint256"
        },
        {
          "internalType": "uint256",
          "name": "quorumReachedAt",
          "type": "uint256"
        },
        {
          "internalType": "uint256",
          "name": "quorumSnapshotBlock",
          "type": "uint256"
        },
        {
          "internalType": "bool",
          "name": "quorumExempt",
          "type": "bool"
        },
        {
          "internalType": "bool",
          "name": "updateFeeSplit",
          "type": "bool"
        },
        {
          "internalType": "uint256",
          "name": "preQuorumSnapshotBlock",
          "type": "uint256"
        },
        {
          "internalType": "bool",
          "name": "setDictatorship",
          "type": "bool"
        }
      ],
      "stateMutability": "view",
      "type": "function"
    },
    {
      "inputs": [],
      "name": "protocolFeeRecipient",
      "outputs": [
        {
          "internalType": "address",
          "name": "",
          "type": "address"
        }
      ],
      "stateMutability": "view",
      "type": "function"
    },
    {
      "inputs": [],
      "name": "protocolPercent",
      "outputs": [
        {
          "internalType": "uint256",
          "name": "",
          "type": "uint256"
        }
      ],
      "stateMutability": "view",
      "type": "function"
    },
    {
      "inputs": [
        {
          "internalType": "uint256",
          "name": "maxRemovals",
          "type": "uint256"
        }
      ],
      "name": "pruneInactiveProposals",
      "outputs": [
        {
          "internalType": "uint256",
          "name": "removed",
          "type": "uint256"
        }
      ],
      "stateMutability": "nonpayable",
      "type": "function"
    },
    {
      "inputs": [],
      "name": "purchaseAccess",
      "outputs": [],
      "stateMutability": "nonpayable",
      "type": "function"
    },
    {
      "inputs": [],
      "name": "quorumPercent",
      "outputs": [
        {
          "internalType": "uint256",
          "name": "",
          "type": "uint256"
        }
      ],
      "stateMutability": "view",
      "type": "function"
    },
    {
      "inputs": [
        {
          "internalType": "bool",
          "name": "enabled",
          "type": "bool"
        }
      ],
      "name": "setDictatorshipDAO",
      "outputs": [],
      "stateMutability": "nonpayable",
      "type": "function"
    },
    {
      "inputs": [
        {
          "internalType": "uint256",
          "name": "_maxMembers",
          "type": "uint256"
        }
      ],
      "name": "setMaxMembersDAO",
      "outputs": [],
      "stateMutability": "nonpayable",
      "type": "function"
    },
    {
      "inputs": [
        {
          "internalType": "bool",
          "name": "_paused",
          "type": "bool"
        }
      ],
      "name": "setPausedDAO",
      "outputs": [],
      "stateMutability": "nonpayable",
      "type": "function"
    },
    {
      "inputs": [
        {
          "internalType": "string",
          "name": "newLink",
          "type": "string"
        }
      ],
      "name": "setTemplHomeLinkDAO",
      "outputs": [],
      "stateMutability": "nonpayable",
      "type": "function"
    },
    {
      "inputs": [],
      "name": "templHomeLink",
      "outputs": [
        {
          "internalType": "string",
          "name": "",
          "type": "string"
        }
      ],
      "stateMutability": "view",
      "type": "function"
    },
    {
      "inputs": [],
      "name": "totalPurchases",
      "outputs": [
        {
          "internalType": "uint256",
          "name": "",
          "type": "uint256"
        }
      ],
      "stateMutability": "view",
      "type": "function"
    },
    {
      "inputs": [],
      "name": "treasuryBalance",
      "outputs": [
        {
          "internalType": "uint256",
          "name": "",
          "type": "uint256"
        }
      ],
      "stateMutability": "view",
      "type": "function"
    },
    {
      "inputs": [],
      "name": "treasuryPercent",
      "outputs": [
        {
          "internalType": "uint256",
          "name": "",
          "type": "uint256"
        }
      ],
      "stateMutability": "view",
      "type": "function"
    },
    {
      "inputs": [
        {
          "internalType": "address",
          "name": "_token",
          "type": "address"
        },
        {
          "internalType": "uint256",
          "name": "_entryFee",
          "type": "uint256"
        },
        {
          "internalType": "bool",
          "name": "_updateFeeSplit",
          "type": "bool"
        },
        {
          "internalType": "uint256",
          "name": "_burnPercent",
          "type": "uint256"
        },
        {
          "internalType": "uint256",
          "name": "_treasuryPercent",
          "type": "uint256"
        },
        {
          "internalType": "uint256",
          "name": "_memberPoolPercent",
          "type": "uint256"
        }
      ],
      "name": "updateConfigDAO",
      "outputs": [],
      "stateMutability": "nonpayable",
      "type": "function"
    },
    {
      "inputs": [
        {
          "internalType": "uint256",
          "name": "_proposalId",
          "type": "uint256"
        },
        {
          "internalType": "bool",
          "name": "_support",
          "type": "bool"
        }
      ],
      "name": "vote",
      "outputs": [],
      "stateMutability": "nonpayable",
      "type": "function"
    },
    {
      "inputs": [
        {
          "internalType": "address",
          "name": "token",
          "type": "address"
        },
        {
          "internalType": "address",
          "name": "recipient",
          "type": "address"
        },
        {
          "internalType": "uint256",
          "name": "amount",
          "type": "uint256"
        },
        {
          "internalType": "string",
          "name": "reason",
          "type": "string"
        }
      ],
      "name": "withdrawTreasuryDAO",
      "outputs": [],
      "stateMutability": "nonpayable",
      "type": "function"
    },
    {
      "stateMutability": "payable",
      "type": "receive"
    }
  ],
  "bytecode": "0x61010060405234620007865762005b03803803806200001e816200078b565b9283398101906101c08183031262000786576200003b81620007b1565b6200004960208301620007b1565b926200005860408401620007b1565b606084015194608085015160a086015160c087015160e0880151610100890151936101208a0151956200008f6101408c01620007b1565b976101608c015191821515830362000786576101808d01516101a08e0151909d6001600160401b0382116200078657018b601f82011215620007865780519b6001600160401b038d1162000673578c90620000f4601f8301601f19166020016200078b565b9d8e5260208284010111620007865762000115916020808f019101620007c6565b60016000556001600160a01b03811615801562000774575b620004d65760a05260c0526004549060ff60a01b90151560a01b169060ff60a01b191617600455809184938095829362000178846200017285620001728686620007eb565b620007eb565b90612710820362000707575b5050505050620001a681612710926080526200017286620001728787620007eb565b03620006f55760015560025560035580620006955750610ce4600a555b806200068f575062093a805b600b556001600160a01b03811662000689575061dead5b60e05280516001600160401b0381116200067357600c54600181811c9116801562000668575b60208210146200065257601f8111620005e8575b50806020601f82116001146200055e5760009162000552575b508160011b916000199060031b1c191617600c555b8051620004e8575b506001600160a01b0316918215620004d6578015620004c457600a8110620004b257600a8106620004a0578260018060a01b0319600454161760045560055560ff19918260085416600855600052600d602052604060002060018382541617815542600182015543600282015560036010549101556001600e558015159081620003d3575b6040516153099081620007fa8239608051818181610545015281816107f50152818161123b0152818161186901528181612854015281816128a301528181612b480152612b9a015260a05181818161132f015281816119f00152612102015260c051818181610405015281816106d40152818161092b0152818161118c015281816112d4015281816118cf0152818161198c015281816119bd01528181611a120152818161229f0152818161259f0152818161287a0152818161290b01528181612b6e01528181612c0f01528181612c7c01528181613a1001528181614b420152614e83015260e05181818161196a0152611f520152f35b818062000495575b6200048357806009557fb63bcc75a862434e97db3146b78681478a2692253df1de5623d497ee61fac7996020604051838152a18162000476575b508062000468575b6200042b575b8080620002db565b60019060085416176008557f752d7e161ff5146f80e3820893176eb40532811e5e20400dfdde57455213706a602060405160018152a13862000423565b5060ff60085416156200041d565b9050600110153862000415565b604051633161e99d60e11b8152600490fd5b5060018110620003db565b604051636fe6a4c960e01b8152600490fd5b604051635eee050360e11b8152600490fd5b6040516365e52d5160e11b8152600490fd5b604051634e46966960e11b8152600490fd5b7f71e57b89fe30fe66cb93427236f86ec18c6ec404e26b5c0914ee88193dd07da590608060405180926040825260006040830152606060208301526200053e8151809281606086015260208686019101620007c6565b601f01601f19168101030190a13862000256565b90508201513862000239565b600c600090815292507fdf6966c971051c3d54ec59162606531493a51404a002842f56009d7e5cf4a8c7905b601f1983168410620005cf576001935082601f19811610620005b5575b5050811b01600c556200024e565b84015160001960f88460031b161c191690553880620005a7565b848101518255602093840193600190920191016200058a565b600c6000527fdf6966c971051c3d54ec59162606531493a51404a002842f56009d7e5cf4a8c7601f830160051c8101916020841062000647575b601f0160051c01905b8181106200063a575062000220565b600081556001016200062b565b909150819062000622565b634e487b7160e01b600052602260045260246000fd5b90607f16906200020c565b634e487b7160e01b600052604160045260246000fd5b620001e6565b620001cf565b806064811115620006c7575b506127108111620006b557600a55620001c3565b604051631f3b85d360e01b8152600490fd5b905060648102908104606403620006df5738620006a1565b634e487b7160e01b600052601160045260246000fd5b60405163542c8df360e11b8152600490fd5b9397509195509350606492508203620006f55781810290808204831490151715620006df579181810290808204831490151715620006df579281810290808204831490151715620006df5793818102918183041490151715620006df57620001a661271038808062000184565b506001600160a01b038216156200012d565b600080fd5b6040519190601f01601f191682016001600160401b038111838210176200067357604052565b51906001600160a01b03821682036200078657565b60005b838110620007da5750506000910152565b8181015183820152602001620007c9565b91908201809211620006df5756fe6102e0604052600436101561001c575b361561001a57600080fd5b005b60003560e01c8063013cf08b1461328f57806303807ee51461327157806304ef9d5814613253578063072ea61c1461323557806308ae4b0c146131d45780630d61b519146129615780630f852b9a1461279057806311aee38014611b9a5780631808022a1461276d5780631df260a0146126a5578063215809ca14611659578063240d3a0614612557578063313dab201461253957806343859632146124ca5780634902e4271461243557806353eee212146124095780635584c4f9146123435780635962a941146123285780635998e845146122785780635c975abb146122555780635fa7ddf01461223757806361c896d21461218757806364653f291461213157806364df049e146120ec578063653724d6146120525780636898b19c146120345780636a49942714611fd95780636ad1855014611f9f5780637070ac4814611f8157806370d5ae0514611f3c57806373023e6414611dcb578063840634c514611d025780638b0e837914611c395780638f78bbc414611bf757806395a078e814611bb8578063997072f714611b9a57806399e288d8146117e9578063a51a46b9146117cb578063a64e024a146117ad578063a730117e1461178a578063a81bbe3c14611750578063aa5c442b1461169a578063ab99a0d31461167c578063adadef271461165e578063aedfe53f14611659578063b488616b14611629578063be893a1f1461144c578063bebc8fc014611423578063c17db3f214611395578063c2939471146112a0578063c3f909d414611166578063c7f758a814610fd0578063c851776c14610f71578063c9d27afe14610c5c578063cfb5446014610bda578063d402d4be146108a8578063da35c6641461088a578063dddac84414610864578063e1a2c9bf14610703578063e243c5fb146106be578063e4b5d7ba14610632578063ea0e35b114610614578063eccceda614610568578063f0a827a41461052d578063f2be51ea146104a1578063f7158b2a1461036f578063f81cbd26146103515763ffafe4ad0361000f573461034c57602036600319011261034c576001600160a01b0361032e613779565b166000526015602052602060ff604060002054166040519015158152f35b600080fd5b3461034c57600036600319011261034c576020600a54604051908152f35b3461034c57600036600319011261034c5733600052600d60205260ff604060002054161561048f5761039f613ea7565b6103a83361396f565b801561047d57806103be60075460115490613962565b1061046b5760105433600052600d602052600360406000200155600f60205260406000206103ed828254613942565b90556103fb81600754613962565b60075561043281337f00000000000000000000000000000000000000000000000000000000000000006001600160a01b0316613fc6565b6040519081524260208201527fc4e740509dbfae3377bc9925dd7bcc8aaba69cd730316216d76b2d24725c636660403392a26001600055005b60405163bc6072f160e01b8152600490fd5b6040516373380d9960e01b8152600490fd5b60405163148fe22160e11b8152600490fd5b3461034c57602036600319011261034c576104ba613779565b60045460ff8160a01c1660001461050a573033141590816104f6575b506104e45761001a90614b29565b60405163626243e960e01b8152600490fd5b6001600160a01b03163314159050826104d6565b5030330361051b5761001a90614b29565b6040516327568d2f60e11b8152600490fd5b3461034c57600036600319011261034c5760206040517f00000000000000000000000000000000000000000000000000000000000000008152f35b3461034c57610576366137ff565b929490936001600160a01b039091169283156106025760ff60045460a01c166105f0576105b86003956105b06020986105be9636916138b0565b9236916138b0565b91614015565b60018101805460ff60a01b1916600160a21b1790559290920180546001600160a01b0319169091179055604051908152f35b60405163a8ef9e1960e01b8152600490fd5b604051634e46966960e11b8152600490fd5b3461034c57600036600319011261034c576020600954604051908152f35b3461034c5761064036613905565b949190929360ff60045460a01c16831515901515146106ac576020956105b86106a4956105b0601c986106749636916138b0565b60018101805460ff60a01b1916600560a01b17905593909301805491151560ff1660ff1992909216919091179055565b604051908152f35b6040516305548b1760e41b8152600490fd5b3461034c57600036600319011261034c576040517f00000000000000000000000000000000000000000000000000000000000000006001600160a01b03168152602090f35b3461034c5761010036600319011261034c5760843560043581151560243560643560443583860361034c576001600160401b0360c43581811161034c5761074e9036906004016137d2565b9160e43590811161034c576107679036906004016137d2565b92909860ff60045460a01c166105f05788610821575b6020996105b06107a794601a999897969461079e946107f0575b36916138b0565b9060a435614015565b93909660018501600160a01b60ff60a01b198254161790556009850155600a840155600b830155600c820155019061ff0082549160081b169061ff001916179055604051908152f35b61081c7f00000000000000000000000000000000000000000000000000000000000000008a8a8d614af6565b610797565b9594939290600a891061085257600a890661084057909293949561077d565b604051636fe6a4c960e01b8152600490fd5b604051635eee050360e11b8152600490fd5b3461034c57600036600319011261034c57602060ff60045460a01c166040519015158152f35b3461034c57600036600319011261034c576020601254604051908152f35b3461034c57608036600319011261034c576108c1613779565b6108c961378f565b604435906064356001600160401b03811161034c576108ec9036906004016138e7565b9260045460ff8160a01c16600014610bc057303314159081610bac575b506104e4575b6001600160a01b0382811694908515610602578415610b9a57807f000000000000000000000000000000000000000000000000000000000000000016921693828514600014610a4b576040516370a0823160e01b8152306004820152602081602481875afa908115610a3f57600091610a0d575b50600754808211156109fb5761099891613962565b81116109fb576109d4816000956000805160206152b4833981519152956109cc600654808511158a146109f5578490613962565b600655613fc6565b6109f06040519283928352604060208401526040830190613739565b0390a4005b80613962565b604051631c7b597b60e11b8152600490fd5b90506020813d602011610a37575b81610a28602093836135c1565b8101031261034c575187610983565b3d9150610a1b565b6040513d6000823e3d90fd5b9150918315600014610ae657506000805260186020527f999d26de3473317ead3eeaf34ca78057f1439db67b6953469c3c96ce9caf6bd754479080821115610add57610a9691613962565b81116109fb57600080808084885af1610aad6139b8565b5015610acb576000916000805160206152b4833981519152916109d4565b6040516331d436c760e01b8152600490fd5b50506000610a96565b90918360005260186020526040600020604051906370a0823160e01b8252306004830152602082602481895afa918215610a3f57600092610b66575b505480821115610b5d57610b3591613962565b83116109fb5782610b586000946000805160206152b48339815191529487613fc6565b6109d4565b50506000610b35565b9091506020813d602011610b92575b81610b82602093836135c1565b8101031261034c57519087610b22565b3d9150610b75565b6040516365e52d5160e11b8152600490fd5b6001600160a01b0316331415905085610909565b5033301461090f576040516327568d2f60e11b8152600490fd5b3461034c57602036600319011261034c57600435601254811015610c4a57600052601360205260c06040600020601681015490601781015490601b8101546019820154906018601284015493015493604051958652602086015260408501526060840152608083015260a0820152f35b604051631dc0650160e31b8152600490fd5b3461034c57604036600319011261034c5760248035801515916004359183810361034c5733600052602091600d835260ff9182604060002054161561048f57601254851015610c4a5784600052601384526040600020918360045460a01c1680610f3f575b6105f0576011808401948554421015610f2d5733600052600d8752604060002093601886019485548015600014610f085750610d0790601b880154601289015491614aab565b610ef6575b6014860133600052808952826040600020541660158801808b528460406000205416928b526040600020600160ff198254161790558a52610d5d8360406000209060ff801983541691151516179055565b610e85575015610e6d57600f850180549060018201809211610e5857555b601a850154161580610e4f575b610dc3575b87878760405192835242908301527fcbdf6214089cba887ecbf35a0b6a734589959c9763342c756bb2a80ca2bc9f6e60403393a3005b60168401548015159283610e08575b505050610de1575b8080610d8d565b4290554360198201556017600e54910155610dfe600b5442613942565b9055838080610dda565b600f8601546127108082029550929391928115918604141715610e3d575050610e3390600a5461394f565b1115878080610dd2565b634e487b7160e01b6000526004526000fd5b50825415610d88565b505050634e487b7160e01b6000526004526000fd5b6010850180549060018201809211610e585755610d7b565b90508981151503610e97575b50610d7b565b15610eca57600f85018054600019810191908211610e5857556010850180549060018201809211610e5857555b89610e91565b601085018054600019810191908211610e585755600f850180549060018201809211610e585755610ec4565b60405163f078ca7360e01b8152600490fd5b6019880154610f1692614aab565b15610d0c5760405163f078ca7360e01b8152600490fd5b604051637a19ed0560e01b8152600490fd5b5083600184015460a01c166009811015610f5c5760051415610cc1565b50634e487b7160e01b60009081526021600452fd5b3461034c57610f7f36613905565b949190929360ff60045460a01c166105f0576020956105b86106a4956105b0600898610fac9636916138b0565b6001819592950160ff60a01b198154169055019060ff801983541691151516179055565b3461034c57602036600319011261034c57600435601254811015610c4a576000526013602052604060002060ff601a820154166000146110bb576011810154421015806110aa575b905b6110a660018060a01b0360018301541692611098600f8401549360108101549560118201549360ff601384015416611060600661105960058701613696565b9501613696565b95604051998a99610100958b5260208b015260408a0152606089015215156080880152151560a08701528060c0870152850190613739565b9083820360e0850152613739565b0390f35b50600f810154601082015410611018565b6018810154801561115d576016820154908115918215611113575b50600b546110e391613942565b421015908161110b575b50806110fa575b9061101a565b50600f8101546010820154106110f4565b9050826110ed565b909150600f830154612710908181029181830414901517156111475761113e6110e392600a5461394f565b111591906110d6565b634e487b7160e01b600052601160045260246000fd5b5060009061101a565b3461034c57600036600319011261034c576040516370a0823160e01b81523060048201527f00000000000000000000000000000000000000000000000000000000000000006001600160a01b0316602082602481845afa8015610a3f5760009061126c575b6007546101409350908180821115611262576111e691613962565b905b6005549160ff60085416916111fb613ba0565b916001549260025494600354966040519889526020890152151560408801526060870152608086015260a085015260c084015260e08301526101008201527f0000000000000000000000000000000000000000000000000000000000000000610120820152f35b50506000906111e8565b506020823d602011611298575b81611286602093836135c1565b8101031261034c5761014091516111cb565b3d9150611279565b3461034c57600036600319011261034c576040516370a0823160e01b81523060048201526001600160a01b036020826024817f000000000000000000000000000000000000000000000000000000000000000085165afa908115610a3f57600091611360575b600754606093509182808211156113565761132091613962565b915b60405192835260208301527f0000000000000000000000000000000000000000000000000000000000000000166040820152f35b5050600091611322565b90506020823d60201161138d575b8161137b602093836135c1565b8101031261034c576060915190611306565b3d915061136e565b3461034c57602036600319011261034c576004356001600160401b03811161034c576113c59036906004016137d2565b60045460ff8160a01c1660001461140e573033141590816113fa575b506104e45761001a916113f59136916138b0565b614847565b6001600160a01b03163314159050836113e1565b5030330361051b5761001a916113f591610797565b3461034c57600036600319011261034c576004546040516001600160a01b039091168152602090f35b3461034c5760e036600319011261034c57611465613779565b61146d61378f565b6001600160401b039060643582811161034c5761148e9036906004016138e7565b9160a43581811161034c576114a79036906004016137d2565b60c43583811161034c576114bf9036906004016137d2565b909260ff60045460a01c166105f0576007936105b06114e3926114ec9536916138b0565b90608435614015565b6001808201805460ff60a01b1916600160a11b1790556002820180546001600160a01b03199081166001600160a01b039a8b1617909155600383018054909116989096169790971790945560443560048501558451909391909101918111611613576020946115658261155f8554613587565b85613bb8565b8590601f83116001146115ad575081906115989394956000926115a2575b50508160011b916000199060031b1c19161790565b9055604051908152f35b015190508680611583565b90601f198316958460005281600020926000905b8882106115fc575050836001959697106115e3575b505050811b0190556106a4565b015160001960f88460031b161c191690558580806115d6565b8284015185559384019392890192908901906115c1565b634e487b7160e01b600052604160045260246000fd5b3461034c57600036600319011261034c576110a66116456135e2565b604051918291602083526020830190613739565b6137b4565b3461034c57600036600319011261034c576020600354604051908152f35b3461034c57602036600319011261034c5760206106a4600435613df9565b3461034c57602036600319011261034c576116b36137a5565b60045460ff8160a01c169182600014611737573033141580611724575b6104e4575b151580921515146106ac5760ff60a01b191660a082901b60ff60a01b16176004556040519081527fa8adfe89c6bc95edbe7049ed316f0473a03af92b1fd027ce1ac670082467c62390602090a1005b50336001600160a01b03831614156116d0565b3330146116d5576040516327568d2f60e11b8152600490fd5b3461034c57602036600319011261034c576001600160a01b03611771613779565b16600052600f6020526020604060002054604051908152f35b3461034c57602036600319011261034c5760206106a46117a8613779565b613dcf565b3461034c57600036600319011261034c57602060405162278d008152f35b3461034c57600036600319011261034c576020601154604051908152f35b3461034c57600036600319011261034c5760ff60085416611b8857303314611b7657611813613ea7565b33600052600d602052604060002060ff815416611b6457600e54906009548015159081611b59575b50611b475781611b3a575b6005549061185660015483614718565b9261186360035484614718565b9061188e7f000000000000000000000000000000000000000000000000000000000000000085614718565b926118a6846118a1856118a18a8a613962565b613962565b946118b18487613942565b6040516370a0823160e01b81523360048201529091906020816024817f00000000000000000000000000000000000000000000000000000000000000006001600160a01b03165afa908115610a3f57600091611b08575b5010611af657600160ff198354161782554260018301554360028301556001830191828411611147576119ea92600e5583611ac0575b600360105491015561195286600654613942565b60065561196184600754613942565b6007556119b9877f0000000000000000000000000000000000000000000000000000000000000000337f00000000000000000000000000000000000000000000000000000000000000006001600160a01b0316614793565b30337f00000000000000000000000000000000000000000000000000000000000000006001600160a01b0316614793565b611a3f837f0000000000000000000000000000000000000000000000000000000000000000337f00000000000000000000000000000000000000000000000000000000000000006001600160a01b0316614793565b80611aae57506000925b6005549460405195865260208601526040850152606084015260808301524260a08301524360c083015260e08201527fe6d1c0e418a42a777d49c66571075fc47bc1d92e7f506007ddde08d1ff182bbc6101003392a2611aa76147eb565b6001600055005b60001981019081116111475792611a49565b611aee611acf60115487613942565b611ae386611add8184613da5565b92613dc5565b601155601054613942565b60105561193e565b604051631e9acf1760e31b8152600490fd5b90506020813d602011611b32575b81611b23602093836135c1565b8101031261034c575189611908565b3d9150611b16565b611b42614676565b611846565b6040516382b675f560e01b8152600490fd5b90508210158361183b565b604051630cd9ed5560e21b8152600490fd5b604051636edaef2f60e11b8152600490fd5b604051630eceade960e31b8152600490fd5b3461034c57600036600319011261034c576020600e54604051908152f35b3461034c57602036600319011261034c576001600160a01b03611bd9613779565b16600052600d602052602060ff604060002054166040519015158152f35b3461034c57604036600319011261034c57611c2d611c19602435600435613c0e565b604051928392604084526040840190613861565b90151560208301520390f35b3461034c57602036600319011261034c5760043560045460ff8160a01c16600014611ce857303314159081611cd4575b506104e4575b600e548115159081611cca575b50611cb8576020817fb63bcc75a862434e97db3146b78681478a2692253df1de5623d497ee61fac79992600955604051908152a161001a6147eb565b604051633161e99d60e11b8152600490fd5b9050811082611c7c565b6001600160a01b0316331415905082611c69565b50333014611c6f576040516327568d2f60e11b8152600490fd5b3461034c57602036600319011261034c57611d1b613779565b60045460ff8160a01c16600014611db2573033141580611d9f575b6104e4575b6001600160a01b0391821691821561060257811690818314611d8d576001600160a01b03191682176004557f0f3a6964a8ba1b7473a14630b029eae6d49bec6babf098223718bacaac7197cc600080a3005b604051631c49f4d160e01b8152600490fd5b50336001600160a01b0382161415611d36565b333014611d3b576040516327568d2f60e11b8152600490fd5b3461034c57608036600319011261034c576001600160401b0360043581811161034c57611dfc9036906004016137d2565b909160443581811161034c57611e169036906004016137d2565b9060643583811161034c57611e2f9036906004016137d2565b919060ff60045460a01c166105f0576105b0611e5092611e599536916138b0565b90602435614015565b6001818101805460ff60a01b1916600760a01b1790559193600d9190910192909190821161161357611e8f8261155f8554613587565b600090601f8311600114611ece5750908061159892602096600092611ec35750508160011b916000199060031b1c19161790565b013590508680611583565b90601f198316846000526020926020600020936000915b838310611f25575050509583929160019460209810611f0b57505050811b0190556106a4565b0135600019600384901b60f8161c191690558580806115d6565b898501358655948501949381019391810191611ee5565b3461034c57600036600319011261034c576040517f00000000000000000000000000000000000000000000000000000000000000006001600160a01b03168152602090f35b3461034c57600036600319011261034c576020600b54604051908152f35b3461034c57602036600319011261034c576001600160a01b03611fc0613779565b1660005260146020526020604060002054604051908152f35b3461034c57602036600319011261034c576001600160a01b03611ffa613779565b166000526018602052604060002080546110a660026001840154930154604051938493846040919493926060820195825260208201520152565b3461034c57600036600319011261034c576020601054604051908152f35b3461034c57602036600319011261034c5761206b6137a5565b60045460ff8160a01c166000146120cd573033141590816120b9575b506104e4576020600080516020615294833981519152915b151560ff196008541660ff821617600855604051908152a1005b6001600160a01b0316331415905082612087565b5030330361051b5760206000805160206152948339815191529161209f565b3461034c57600036600319011261034c576040517f00000000000000000000000000000000000000000000000000000000000000006001600160a01b03168152602090f35b3461034c57602036600319011261034c576001600160a01b03612152613779565b16600052600d6020526060604060002060ff815416906002600182015491015490604051921515835260208301526040820152f35b3461034c57608036600319011261034c576001600160401b0360043560443582811161034c576121bb9036906004016137d2565b91909260643590811161034c576121d69036906004016137d2565b60ff60049492945460a01c166105f0578215158061222c575b611cb857611e50600e946105b060209761220a9536916138b0565b60018101805460ff60a01b1916600360a11b1790559290920155604051908152f35b50600e5483106121ef565b3461034c57600036600319011261034c576020600754604051908152f35b3461034c57600036600319011261034c57602060ff600854166040519015158152f35b3461034c57602036600319011261034c57612291613779565b6001600160a01b03818116907f0000000000000000000000000000000000000000000000000000000000000000168114611d8d57600052601860205260406000209060038201805460ff811615611d8d5783541580159061231b575b6123095760006002858261001a9755015560ff19169055614575565b60405163dda495d160e01b8152600490fd5b50600284015415156122ed565b3461034c57600036600319011261034c5760206106a4613ba0565b3461034c57600036600319011261034c5760165461236081613ac7565b9060009060005b8181106123b957505061237981613ac7565b9160005b82811061239a57604051602080825281906110a690820187613861565b806123a760019284613b8c565b516123b28287613b8c565b520161237d565b806123c5600192613af9565b90549060031b1c8060005260136020526123e3426040600020614557565b6123ef575b5001612367565b6124026123fb86613b7d565b9587613b8c565b52856123e8565b3461034c57604036600319011261034c5760206106a4612427613779565b61242f61378f565b906139e8565b3461034c57612443366137ff565b909493919260ff60045460a01c166105f0576020956105b06105b89261246a9636916138b0565b60018101805460ff60a01b1916600360a01b1790556002810180546001600160a01b0319166001600160a01b0394851617905560045491929091339116146124b6575b50604051908152f35b601a01805460ff19166001179055826124ad565b3461034c57604036600319011261034c576004356124e661378f565b601254821015610c4a576040916000526013602052816000209060018060a01b031660005260148101602052601560ff836000205416910160205260ff8260002054168251911515825215156020820152f35b3461034c57600036600319011261034c576020600654604051908152f35b3461034c5760208060031936011261034c57612571613779565b9033600052600d815260ff604060002054161561048f57612590613ea7565b6001600160a01b0382811691907f0000000000000000000000000000000000000000000000000000000000000000168214611d8d57816000526018815260406000209260ff6003850154161561047d576125ea90336139e8565b92831561047d57805484811061046b578461262291600184015433600052601b86526040600020876000528652604060002055613962565b90558161267357600080808086335af161263a6139b8565b5015610acb577f26cd6ba06f6dc02c61247f710e95c768f4856af03b740594288907c36bb217e9905b6040519384523393a36001600055005b7f26cd6ba06f6dc02c61247f710e95c768f4856af03b740594288907c36bb217e9906126a0843385613fc6565b612663565b3461034c57600036600319011261034c57604051806019548083526020809301809160196000527f944998273e477b495144fb8794c914197f3ccb46be2900f4698fd0ef743c96959060005b86828210612750578686612707828803836135c1565b604051928392818401908285525180915260408401929160005b82811061273057505050500390f35b83516001600160a01b031685528695509381019392810192600101612721565b83546001600160a01b0316855290930192600192830192016126f1565b3461034c57602036600319011261034c5760206106a461278b613779565b61396f565b3461034c5760c036600319011261034c576127a9613779565b602435604435801515810361034c576064356084359160a4359360045460ff8160a01c1660001461294757303314159081612933575b506104e4575b6001600160a01b039586168015159081612906575b506128f457806128db575b5061289e575b837fa00a4448d1c98b3edafbf488446a8320c2cb278ba20dd49c7b5d41a7ebfd582b60a060055492600154600254600354916040519687526020870152604086015260608501527f000000000000000000000000000000000000000000000000000000000000000060808501527f00000000000000000000000000000000000000000000000000000000000000001692a2005b6128ca7f0000000000000000000000000000000000000000000000000000000000000000848484614af6565b60015560025560035581808061280b565b600a811061085257600a81066108405760055585612805565b60405163b078ee9d60e01b8152600490fd5b9050867f0000000000000000000000000000000000000000000000000000000000000000161415876127fa565b6001600160a01b03163314159050876127df565b503330146127e5576040516327568d2f60e11b8152600490fd5b3461034c5760208060031936011261034c576004359061297f613ea7565b601254821015610c4a57816000526013815260406000209160ff600454908060a092831c16806131b8575b6105f057601a850194818654168080916131ab575b6131995715613116575b601381019586549383851661310457600f830154601084015410156130f2576001978860ff19809716179055878301918460018060a01b03938481541660005260158a528160406000205416806130e0575b6130c1575b54831c1660098110156130ab5780612a98575050505084600080516020615294833981519152612a93968695856000805160206152748339815191529660086060970154161515916008541690821617600855604051908152a15b604080519188835282015260006040820152a2613eca565b600055005b92955090939291888103612c37575084600283015416926009830154915460081c16600a83015491600c600b850154940154948015159081612c0a575b506128f45780612bd1575b5060008051602061527483398151915294606094612a9399948998947fa00a4448d1c98b3edafbf488446a8320c2cb278ba20dd49c7b5d41a7ebfd582b94612b95575b505050600554928a5460025460035491604051968752878701526040860152868501527f000000000000000000000000000000000000000000000000000000000000000060808501527f00000000000000000000000000000000000000000000000000000000000000001692a2612a7b565b612bc17f0000000000000000000000000000000000000000000000000000000000000000848484614af6565b8c556002556003558a8080612b23565b90939792959194600a821061085257600a8206610840576005919091559196909491939092600080516020615274833981519152612ae0565b9050877f00000000000000000000000000000000000000000000000000000000000000001614158b612ad5565b9050600281979492959714600014612ec25750505083600283015416938060038401541691612c6d600760048601549501613696565b918315610602578415610b9a577f00000000000000000000000000000000000000000000000000000000000000001692868403612d7f576040516370a0823160e01b81523060048201528281602481885afa908115610a3f57600091612d52575b50600754808211156109fb57612ce391613962565b85116109fb57612a9396866000805160206152b483398151915260609588612d2f849a876000805160206152748339815191529b6109cc600654808511156000146109f5578490613962565b612d4a60405192839283526040898401526040830190613739565b0390a4612a7b565b90508281813d8311612d78575b612d6981836135c1565b8101031261034c575189612cce565b503d612d5f565b959391925083612e005760008052601881526040600020479054808211600014612df757612dac91613962565b82116109fb576000808080858a5af1612dc36139b8565b5015610acb57612a93958594856000805160206152b483398151915260008051602061527483398151915296606096612d2f565b50506000612dac565b83600052601881526040600020604051906370a0823160e01b82523060048301528282602481895afa918215610a3f57600092612e93575b505480821115612e8a57612e4b91613962565b82116109fb578584866000805160206152b48339815191526000805160206152748339815191529686612e85606098612a939d869c613fc6565b612d2f565b50506000612e4b565b9091508281813d8311612ebb575b612eab81836135c1565b8101031261034c57519089612e38565b503d612ea1565b9295939260038103612efc575050506060612a9394612ef7858095600260008051602061527483398151915296015416614e69565b612a7b565b9193929160048103612f7f575050600301548116915081156106025760045490811690818314611d8d57612a9394836000805160206152748339815191529386956060946bffffffffffffffffffffffff60a01b16176004557f0f3a6964a8ba1b7473a14630b029eae6d49bec6babf098223718bacaac7197cc600080a3612a7b565b909250600581036130055750601c01546004549290811615159083831c16151581146106ac5760ff60a01b199092169082901b60ff60a01b1617600455604051908152612a93928291600080516020615274833981519152916060917fa8adfe89c6bc95edbe7049ed316f0473a03af92b1fd027ce1ac670082467c623908290a1612a7b565b90925090506006810361307f5750600e0154600e548115159081613075575b50611cb8576000805160206152748339815191526060847fb63bcc75a862434e97db3146b78681478a2692253df1de5623d497ee61fac799612a9396858796600955604051908152a1612ef76147eb565b9050811085613024565b600703611d8d576000805160206152748339815191526060612a9394612ef76113f5600d879601613696565b634e487b7160e01b600052602160045260246000fd5b60158a52604060002088815416905560148a5260006040812055612a20565b5060148a528860406000205414612a1b565b60405163c8c93ba360e01b8152600490fd5b604051630dc1019760e01b8152600490fd5b6018810154801561314957600b5461312d91613942565b4210613187576016810154801515908161315b575b50156129c9575b60405163aa26a69360e01b8152600490fd5b600f830154612710808202935081159184041417156111475761318090600a5461394f565b1187613142565b60405163a905056160e01b8152600490fd5b604051633fc30bd160e11b8152600490fd5b50601182015442106129bf565b50806001860154831c1660098110156130ab57600514156129aa565b3461034c57602036600319011261034c576001600160a01b036131f5613779565b16600052600d6020526080604060002060ff8154169060018101549060036002820154910154916040519315158452602084015260408301526060820152f35b3461034c57600036600319011261034c576020600554604051908152f35b3461034c57600036600319011261034c576020600254604051908152f35b3461034c57600036600319011261034c576020600154604051908152f35b3461034c57602036600319011261034c576004803560009081526013602052604090206102608190528054600182015460028301546001600160a01b0390811661024052600384015416610160529282015461022052906132f290600501613696565b9161330260066102605101613696565b6101405261331560076102605101613696565b6102805261026051600881015460ff166102c0526009810154600a8201546102a052600b820154600c83015490959261335090600d01613696565b90600e61026051015461012052600f61026051015496601061026051015495601161026051015497601261026051015460805260ff60136102605101541660a052601661026051015460e05260176102605101546102005260186102605101546101e05260196102605101546101c052601a6102605101546101a052601b6102605101546101805260ff601c610260510154166101005260405160c05260c0515260018060a01b038116602060c0510152600960ff8260a01c1610156130ab576134776134626134d29760ff61348d9460a01c16604060c051015261024051606060c051015261016051608060c05101526102205160a060c05101526103a060c0805101526103a060c0510190613739565b60c051810360e060c051015261014051613739565b60c051810361010060c051015261028051613739565b936102c051151561012060c051015261014060c05101526102a05161016060c051015261018060c05101526101a060c051015260c05182036101c060c0510152613739565b92610120516101e060c051015261020060c051015261022060c051015261024060c051015260805161026060c051015260a051151561028060c051015260e0516102a060c0510152610200516102c060c05101526101e0516102e060c05101526101c05161030060c051015260ff6101a05116151561032060c051015260ff6101a05160081c16151561034060c05101526101805161036060c051015261010051151561038060c051015260c051900360c051f35b90600182811c921680156135b7575b60208310146135a157565b634e487b7160e01b600052602260045260246000fd5b91607f1691613596565b90601f801991011681019081106001600160401b0382111761161357604052565b60405190600082600c54916135f683613587565b808352926020906001908181169081156136725750600114613623575b5050613621925003836135c1565b565b915092600c600052600080516020615234833981519152936000925b82841061365a57506136219450505081016020013880613613565b8554888501830152948501948794509281019261363f565b9150506020925061362194915060ff191682840152151560051b8201013880613613565b906040519182600082546136a981613587565b9081845260209460019160018116908160001461371757506001146136d8575b505050613621925003836135c1565b600090815285812095935091905b8183106136ff57505061362193508201013880806136c9565b855488840185015294850194879450918301916136e6565b9250505061362194925060ff191682840152151560051b8201013880806136c9565b919082519283825260005b848110613765575050826000602080949584010152601f8019910116010190565b602081830181015184830182015201613744565b600435906001600160a01b038216820361034c57565b602435906001600160a01b038216820361034c57565b60043590811515820361034c57565b3461034c57600036600319011261034c57602060405162093a808152f35b9181601f8401121561034c578235916001600160401b03831161034c576020838186019501011161034c57565b608060031982011261034c576004356001600160a01b038116810361034c5791602435916001600160401b039160443583811161034c5782613843916004016137d2565b9390939260643591821161034c5761385d916004016137d2565b9091565b90815180825260208080930193019160005b828110613881575050505090565b835185529381019392810192600101613873565b6001600160401b03811161161357601f01601f191660200190565b9291926138bc82613895565b916138ca60405193846135c1565b82948184528183011161034c578281602093846000960137010152565b9080601f8301121561034c57816020613902933591016138b0565b90565b608060031982011261034c57600435801515810361034c5791602435916001600160401b039160443583811161034c5782613843916004016137d2565b9190820180921161114757565b8181029291811591840414171561114757565b9190820391821161114757565b6001600160a01b03166000908152600d60205260409020805460ff16156139b25760036010549101548082116000146139ab5761390291613962565b5050600090565b50600090565b3d156139e3573d906139c982613895565b916139d760405193846135c1565b82523d6000602084013e565b606090565b60018060a01b0380911690600092828452600d60205260ff60408520541615613aaa578116907f0000000000000000000000000000000000000000000000000000000000000000168114613a9d578083526018602052604083209060ff60038301541615613aaa57828452600d602052613a6a6040852060018401549361446c565b928452601b60205260408420908452602052604083205491808310613aa2575b5081811115613a9d576139029250613962565b505090565b915038613a8a565b50505090565b6001600160401b0381116116135760051b60200190565b90613ad182613ab0565b613ade60405191826135c1565b8281528092613aef601f1991613ab0565b0190602036910137565b601654811015613b305760166000527fd833147d7dc355ba459fc788f669e58cfaf9dc25ddcd0702e87d69c7b51242890190600090565b634e487b7160e01b600052603260045260246000fd5b601954811015613b305760196000527f944998273e477b495144fb8794c914197f3ccb46be2900f4698fd0ef743c96950190600090565b60001981146111475760010190565b8051821015613b305760209160051b010190565b600e5480156139b25760001981019081116111475790565b90601f8111613bc657505050565b6000916000526020600020906020601f850160051c83019410613c04575b601f0160051c01915b828110613bf957505050565b818155600101613bed565b9092508290613be4565b919080158015613d9b575b613d89576016549160009360005b848110613d42575084811015613d1257613c4083613ac7565b916000958694875b8888821080613d09575b15613cbc575080613c65613cb192613af9565b90549060031b1c806000526013602052613c83426040600020614557565b15613cb65786613c928a613b7d565b9910613cb657613cab613ca48c613b7d565b9b89613b8c565b52613b7d565b613c48565b50613b7d565b9397505050929350613ccd91613942565b1092613cd881613ac7565b9160005b828110613cea575050509190565b80613cf760019284613b8c565b51613d028287613b8c565b5201613cdc565b50828110613c52565b5092505050604051602081018181106001600160401b038211176116135760405260008152600036813790600090565b613d4b81613af9565b90549060031b1c6000526013602052613d68426040600020614557565b613d75575b600101613c27565b94613d81600191613b7d565b959050613d6d565b6040516381f396b760e01b8152600490fd5b5060648111613c19565b8115613daf570490565b634e487b7160e01b600052601260045260246000fd5b8115613daf570690565b6001600160a01b03166000908152600d602052604090205460ff1615613df457600190565b600090565b906000906000908315613ea057601693601654908115613e975793905b80151580613e8e575b15613e72576000198101908111613e7a57613e3990613af9565b90549060031b1c8084526013602052613e554260408620614557565b613e725790613e66613e6b92613eca565b613b7d565b8454613e16565b509350915050565b634e487b7160e01b84526011600452602484fd5b50848210613e1f565b50509250905090565b9250905090565b600260005414613eb8576002600055565b604051633ee5aeb560e01b8152600490fd5b600090808252601760205260408220548015613fc15760001990808201818111613fad57601654838101908111613f9957808203613f4d575b5050506016548015613f3957810190613f1b82613af9565b909182549160031b1b19169055601655815260176020526040812055565b634e487b7160e01b84526031600452602484fd5b613f6c91613f5d613f8592613af9565b90549060031b1c928391613af9565b90919082549060031b91821b91600019901b1916179055565b845260176020526040842055388080613f03565b634e487b7160e01b86526011600452602486fd5b634e487b7160e01b85526011600452602485fd5b505050565b60405163a9059cbb60e01b60208201526001600160a01b03909216602483015260448083019390935291815260808101916001600160401b03831182841017611613576136219260405261508f565b919290926000923384526020600d815260409160ff83872054161561443f573386526015825260ff83872054166143cf575b806143c9575062093a80955b62093a8087106143b85762278d0087116143a7576012549261407484613b7d565b601255839784885260138452818820978589556140ad600192838b01336bffffffffffffffffffffffff60a01b82541617905542613942565b9160118a019283554260128b015560058a018551906001600160401b0391828111614393576140e6816140e08454613587565b84613bb8565b88601f821160011461433657908061411392879161432b575b508160011b916000199060031b1c19161790565b90555b885160068c0191811161427357614131816140e08454613587565b87601f82116001146142cc57908061415d9286916142c157508160011b916000199060031b1c19161790565b90555b43601b8b015560138a019060ff199182815416905533835260148b018752848320818382541617905560158b018752848320818382541617905580600f8c01558260108c0155600e548060168d015560188c01848155601a8d01848154169055811515806142aa575b614287575b5050601654600160401b81101561427357857f0a3d356d942a35213f2f2e42f5c07221391ae9a4f16edaa23278b9f8068be7729897969461425f94846142228d613f6c8761426e9c99839901601655613af9565b60165485845260178c528484205533835260158b528383209182541617905560148952205554936060835196879687528601526060850190613739565b90838203908401523396613739565b0390a3565b634e487b7160e01b84526041600452602484fd5b4290554360198d015560178c01556142a1600b5442613942565b845538806141ce565b506142b782600a5461394f565b61271010156141c9565b90508b0151386140ff565b828552888520849291601f198316878c8f5b8383106143145750505083116142fb575b5050811b019055614160565b8c015160001960f88460031b161c1916905538806142ef565b840151855588969094019392830192018c8f6142de565b9050890151386140ff565b828652898620859291601f198316885b8d8d83831061437e575050508311614365575b5050811b019055614116565b8a015160001960f88460031b161c191690553880614359565b84015185558996909401939283019201614346565b634e487b7160e01b85526041600452602485fd5b825163eeeb962360e01b8152600490fd5b82516331806aeb60e21b8152600490fd5b95614053565b6014829695949396528585205485526013825285852060ff601382015416159081614431575b501561440c57855163792c310960e11b8152600490fd5b94919293943386526015825282862060ff198154169055601482528583812055614047565b6011915001544210386143f5565b825163148fe22160e11b8152600490fd5b8054821015613b305760005260206000209060011b0190600090565b90600480830191825493841561454b57506002810154600180920154906000955b8087106144bd57505050505081156139ab576000198201918211611147576001916144b791614450565b50015490565b6144c78188613942565b841c906144d48288614450565b50546001600160401b0390818116808610156144f3575050505061448d565b92999285111561452557505050838101809111614510579561448d565b601185634e487b7160e01b6000525260246000fd5b91989160401c16841015614539575061448d565b9650838101809111614510579561448d565b60010154949350505050565b906011820154119081614568575090565b60ff915060130154161590565b6001600160a01b039081166000818152601a602052604081205490929080156146705760001990808201818111613f99576019549083820191821161465c57908181869303614609575b5050505060195480156145f55701906145d782613b46565b909182549160031b1b191690556019558152601a6020526040812055565b634e487b7160e01b85526031600452602485fd5b6146299261461961464793613b46565b90549060031b1c16928391613b46565b90919060018060a01b038084549260031b9316831b921b1916179055565b8552601a6020526040852055388281806145bf565b634e487b7160e01b87526011600452602487fd5b50505050565b600e54801561471557601954906000805b8381106146945750505050565b806146a0600192613b46565b838060a01b0391549060031b1c1683526018602052836040842060028101805490811561470c576146d18483613da5565b918215614702576146fc946146e591613dc5565b90556146f5858301918254613942565b9055615172565b01614687565b50505050506146fc565b505050506146fc565b50565b9060001981830981830291828083109203918083039214614788576127109082821115614775577fbc01a36e2eb1c432ca57a786c226809d495182a9930be0ded288ce703afb7e91940990828211900360fc1b910360041c170290565b634e487b7160005260116020526024601cfd5b505061271091500490565b6040516323b872dd60e01b60208201526001600160a01b03928316602482015292909116604483015260648083019390935291815260a08101918183106001600160401b03841117611613576136219260405261508f565b600954801515908161483a575b508061482d575b61480557565b600160ff196008541617600855600080516020615294833981519152602060405160018152a1565b5060ff60085416156147ff565b9050600e541015386147f8565b604051600091600c805461485a81613587565b80855260209485810191816001988986168981600014614a905750600114614a45575b614889925003826135c1565b51902083518585012014614a3e5761489f6135e2565b948351916001600160401b038311611613576148ba90613587565b601f81116149ea575b508490601f83116001146149525750926149429261491e8361493597947f71e57b89fe30fe66cb93427236f86ec18c6ec404e26b5c0914ee88193dd07da5999760009161494757508160011b916000199060031b1c19161790565b90555b604051948594604086526040860190613739565b9184830390850152613739565b0390a1565b9050840151386140ff565b9190601f19821690846000526000805160206152348339815191529160005b8181106149d55750926149429592614935989592827f71e57b89fe30fe66cb93427236f86ec18c6ec404e26b5c0914ee88193dd07da59b9996106149bc575b5050811b019055614921565b85015160001960f88460031b161c1916905538806149b0565b87830151845592850192918801918801614971565b83600052600080516020615234833981519152601f840160051c810191878510614a34575b601f0160051c019082905b828110614a285750506148c3565b60008155018290614a1a565b9091508190614a0f565b5050505050565b50508460005281876000805160206152348339815191528a6000915b858310614a77575050614889935082010161487d565b80919294505483858801015201910188908a8593614a61565b9150506148899260ff1987168652151560051b82010161487d565b91908015614aee576002830154818111614ae557149182614ad7575b5050614ad257600090565b600190565b600101541190503880614ac7565b50505050600190565b505050600090565b614b1092614b0b6127109593614b0b93613942565b613942565b03614b1757565b60405163542c8df360e11b8152600490fd5b600e54908115614e57576001600160a01b0381811692907f000000000000000000000000000000000000000000000000000000000000000016838114614d3f5750600083614cc9575047915b836000526018602052604092836000209081549081811115614cb85790614b9b91613962565b9185600052601860205260038560002001805460ff811615614c3b575b5050509061426e82600095614bde84600080516020615254833981519152979654613942565b8255614c206002830192614c07614bf6855488613942565b97614c01818a613da5565b98613dc5565b809460018301614c188a8254613942565b905555615172565b51938493846040919493926060820195825260208201520152565b610100601996959496541015614ca75760ff1916600117905560195493600160401b85101561161357600095614c8d61426e936146298860016000805160206152548339815191529a01601955613b46565b601954888852601a60205281882055958193949550614bb8565b8651636ff5066b60e11b8152600490fd5b8551631ab9ebab60e01b8152600490fd5b6040516370a0823160e01b8152306004820152602081602481885afa918215614d33578092614cfb575b505091614b75565b9091506020823d602011614d2b575b81614d17602093836135c1565b81010312614d285750513880614cf3565b80fd5b3d9150614d0a565b604051903d90823e3d90fd5b6040516370a0823160e01b8152306004820152919250602090829060249082905afa908115610a3f57600091614e25575b506007549182821115614e135782614dbd614d9c60009560008051602061525483398151915295613962565b8092614db56006548084111589146109f5578390613962565b600655613942565b60075561426e614de3614dd260115484613942565b93614ddd8186613da5565b94613dc5565b614def84601054613942565b60105580601155604051938493846040919493926060820195825260208201520152565b604051631ab9ebab60e01b8152600490fd5b90506020813d602011614e4f575b81614e40602093836135c1565b8101031261034c575138614d70565b3d9150614e33565b604051630292d7c360e51b8152600490fd5b90600e54918215614e57576001600160a01b0381811693907f000000000000000000000000000000000000000000000000000000000000000016848114614fe95750600084614f82575047915b846000526018602052604092836000209081549081811115614cb85790614edc91613962565b9186600052601860205260038560002001805460ff811615614f1b575b5050508060008051602061525483398151915294614bde8461426e9454613942565b6101006019949394541015614ca75760ff1916600117905560195494600160401b86101561161357614f6961426e936146298860016000805160206152548339815191529a01601955613b46565b60195488600052601a6020528160002055948192614ef9565b6040516370a0823160e01b8152306004820152602081602481895afa918215614d33578092614fb4575b505091614eb6565b9091506020823d602011614fe1575b81614fd0602093836135c1565b81010312614d285750513880614fac565b3d9150614fc3565b6040516370a0823160e01b81523060048201529250602090839060249082905afa918215610a3f5760009261505b575b5060075480831115614e1357614dbd6150418260008051602061525483398151915295613962565b8092614db5600654808411156000146109f5578390613962565b9091506020813d602011615087575b81615077602093836135c1565b8101031261034c57519038615019565b3d915061506a565b906000602091828151910182855af115610a3f576000513d6150e257506001600160a01b0381163b155b6150c05750565b604051635274afe760e01b81526001600160a01b039091166004820152602490fd5b600114156150b9565b8054600160401b8110156116135761510891600182018155614450565b91909161515c578051825460208301516fffffffffffffffffffffffffffffffff199091166001600160401b039290921691909117604091821b67ffffffffffffffff60401b161783556001910151910155565b634e487b7160e01b600052600060045260246000fd5b6001600160401b0360018201549060405192606084018481108382111761161357604052814316845260046020850191834216835260408601948552019384548015615225576000198101908111611147576151ce9086614450565b50948386541684835116146000146152165750505183546fffffffffffffffff00000000000000001916911660401b67ffffffffffffffff60401b1617825560019051910155565b925092505061362192506150eb565b5092505050613621916150eb56fedf6966c971051c3d54ec59162606531493a51404a002842f56009d7e5cf4a8c7f502c7eda43df8a8ec352065360db3486f90ce32849cf8182983d7939bfd3626af8f9d0e884d3306a083e846741a0bc4d75908e2b0ec63b558219652ae4c1b90752d7e161ff5146f80e3820893176eb40532811e5e20400dfdde57455213706ad81f085560db5c809c425a15f00e3f2904e4fa46d6e8672ff2e671ccd6d9a231a26469706673582212203c33614b5742092597d22f79a55cdac42964a3adb4a0cb4106f02e719a4c3d7664736f6c63430008170033",
  "linkReferences": {},
  "deployedLinkReferences": {}
}