{
  "_format": "hh-sol-artifact-1",
  "contractName": "TEMPL",
  "sourceName": "contracts/TEMPL.sol",
  "abi": [
    {
      "inputs": [
        {
          "internalType": "address",
          "name": "_priest",
          "type": "address"
        },
        {
          "internalType": "address",
          "name": "_protocolFeeRecipient",
          "type": "address"
        },
        {
          "internalType": "address",
          "name": "_token",
          "type": "address"
        },
        {
          "internalType": "uint256",
          "name": "_entryFee",
          "type": "uint256"
        },
        {
          "internalType": "uint256",
          "name": "_burnPercent",
          "type": "uint256"
        },
        {
          "internalType": "uint256",
          "name": "_treasuryPercent",
          "type": "uint256"
        },
        {
          "internalType": "uint256",
          "name": "_memberPoolPercent",
          "type": "uint256"
        },
        {
          "internalType": "uint256",
          "name": "_protocolPercent",
          "type": "uint256"
        },
        {
          "internalType": "uint256",
          "name": "_quorumPercent",
          "type": "uint256"
        },
        {
          "internalType": "uint256",
          "name": "_executionDelay",
          "type": "uint256"
        },
        {
          "internalType": "address",
          "name": "_burnAddress",
          "type": "address"
        },
        {
          "internalType": "bool",
          "name": "_priestIsDictator",
          "type": "bool"
        },
        {
          "internalType": "uint256",
          "name": "_maxMembers",
          "type": "uint256"
        },
        {
          "internalType": "string",
          "name": "_homeLink",
          "type": "string"
        }
      ],
      "stateMutability": "nonpayable",
      "type": "constructor"
    },
    {
      "inputs": [],
      "name": "ActiveProposalExists",
      "type": "error"
    },
    {
      "inputs": [],
      "name": "AlreadyExecuted",
      "type": "error"
    },
    {
      "inputs": [],
      "name": "AmountZero",
      "type": "error"
    },
    {
      "inputs": [],
      "name": "DictatorshipEnabled",
      "type": "error"
    },
    {
      "inputs": [],
      "name": "DictatorshipUnchanged",
      "type": "error"
    },
    {
      "inputs": [],
      "name": "EntryFeeTooSmall",
      "type": "error"
    },
    {
      "inputs": [],
      "name": "ExecutionDelayActive",
      "type": "error"
    },
    {
      "inputs": [],
      "name": "ExternalRewardLimitReached",
      "type": "error"
    },
    {
      "inputs": [],
      "name": "ExternalRewardsNotSettled",
      "type": "error"
    },
    {
      "inputs": [],
      "name": "InsufficientBalance",
      "type": "error"
    },
    {
      "inputs": [],
      "name": "InsufficientPoolBalance",
      "type": "error"
    },
    {
      "inputs": [],
      "name": "InsufficientTreasuryBalance",
      "type": "error"
    },
    {
      "inputs": [],
      "name": "InvalidCallData",
      "type": "error"
    },
    {
      "inputs": [],
      "name": "InvalidEntryFee",
      "type": "error"
    },
    {
      "inputs": [],
      "name": "InvalidFeeCurve",
      "type": "error"
    },
    {
      "inputs": [],
      "name": "InvalidPercentage",
      "type": "error"
    },
    {
      "inputs": [],
      "name": "InvalidPercentageSplit",
      "type": "error"
    },
    {
      "inputs": [],
      "name": "InvalidProposal",
      "type": "error"
    },
    {
      "inputs": [],
      "name": "InvalidRecipient",
      "type": "error"
    },
    {
      "inputs": [],
      "name": "InvalidSender",
      "type": "error"
    },
    {
      "inputs": [],
      "name": "JoinIntakePaused",
      "type": "error"
    },
    {
      "inputs": [],
      "name": "JoinedAfterProposal",
      "type": "error"
    },
    {
      "inputs": [],
      "name": "LimitOutOfRange",
      "type": "error"
    },
    {
      "inputs": [],
      "name": "MemberAlreadyJoined",
      "type": "error"
    },
    {
      "inputs": [],
      "name": "MemberLimitReached",
      "type": "error"
    },
    {
      "inputs": [],
      "name": "MemberLimitTooLow",
      "type": "error"
    },
    {
      "inputs": [],
      "name": "NoMembers",
      "type": "error"
    },
    {
      "inputs": [],
      "name": "NoRewardsToClaim",
      "type": "error"
    },
    {
      "inputs": [],
      "name": "NoTreasuryFunds",
      "type": "error"
    },
    {
      "inputs": [],
      "name": "NotDAO",
      "type": "error"
    },
    {
      "inputs": [],
      "name": "NotMember",
      "type": "error"
    },
    {
      "inputs": [],
      "name": "PriestOnly",
      "type": "error"
    },
    {
      "inputs": [],
      "name": "ProposalExecutionFailed",
      "type": "error"
    },
    {
      "inputs": [],
      "name": "ProposalNotPassed",
      "type": "error"
    },
    {
      "inputs": [],
      "name": "QuorumNotReached",
      "type": "error"
    },
    {
      "inputs": [],
      "name": "ReentrancyGuardReentrantCall",
      "type": "error"
    },
    {
      "inputs": [
        {
          "internalType": "address",
          "name": "token",
          "type": "address"
        }
      ],
      "name": "SafeERC20FailedOperation",
      "type": "error"
    },
    {
      "inputs": [],
      "name": "TokenChangeDisabled",
      "type": "error"
    },
    {
      "inputs": [],
      "name": "VotingEnded",
      "type": "error"
    },
    {
      "inputs": [],
      "name": "VotingNotEnded",
      "type": "error"
    },
    {
      "inputs": [],
      "name": "VotingPeriodTooLong",
      "type": "error"
    },
    {
      "inputs": [],
      "name": "VotingPeriodTooShort",
      "type": "error"
    },
    {
      "anonymous": false,
      "inputs": [
        {
          "indexed": true,
          "internalType": "address",
          "name": "token",
          "type": "address"
        },
        {
          "indexed": false,
          "internalType": "uint256",
          "name": "entryFee",
          "type": "uint256"
        },
        {
          "indexed": false,
          "internalType": "uint256",
          "name": "burnPercent",
          "type": "uint256"
        },
        {
          "indexed": false,
          "internalType": "uint256",
          "name": "treasuryPercent",
          "type": "uint256"
        },
        {
          "indexed": false,
          "internalType": "uint256",
          "name": "memberPoolPercent",
          "type": "uint256"
        },
        {
          "indexed": false,
          "internalType": "uint256",
          "name": "protocolPercent",
          "type": "uint256"
        }
      ],
      "name": "ConfigUpdated",
      "type": "event"
    },
    {
      "anonymous": false,
      "inputs": [
        {
          "indexed": false,
          "internalType": "bool",
          "name": "enabled",
          "type": "bool"
        }
      ],
      "name": "DictatorshipModeChanged",
      "type": "event"
    },
    {
      "anonymous": false,
      "inputs": [
        {
          "indexed": true,
          "internalType": "address",
          "name": "token",
          "type": "address"
        },
        {
          "indexed": true,
          "internalType": "address",
          "name": "member",
          "type": "address"
        },
        {
          "indexed": false,
          "internalType": "uint256",
          "name": "amount",
          "type": "uint256"
        }
      ],
      "name": "ExternalRewardClaimed",
      "type": "event"
    },
    {
      "anonymous": false,
      "inputs": [
        {
          "indexed": false,
          "internalType": "enum TemplBase.FeeCurveFormula",
          "name": "formula",
          "type": "uint8"
        },
        {
          "indexed": false,
          "internalType": "uint256",
          "name": "slope",
          "type": "uint256"
        },
        {
          "indexed": false,
          "internalType": "uint256",
          "name": "scale",
          "type": "uint256"
        }
      ],
      "name": "FeeCurveUpdated",
      "type": "event"
    },
    {
      "anonymous": false,
      "inputs": [
        {
          "indexed": false,
          "internalType": "bool",
          "name": "joinPaused",
          "type": "bool"
        }
      ],
      "name": "JoinPauseUpdated",
      "type": "event"
    },
    {
      "anonymous": false,
      "inputs": [
        {
          "indexed": false,
          "internalType": "uint256",
          "name": "maxMembers",
          "type": "uint256"
        }
      ],
      "name": "MaxMembersUpdated",
      "type": "event"
    },
    {
      "anonymous": false,
      "inputs": [
        {
          "indexed": true,
          "internalType": "address",
          "name": "payer",
          "type": "address"
        },
        {
          "indexed": true,
          "internalType": "address",
          "name": "member",
          "type": "address"
        },
        {
          "indexed": false,
          "internalType": "uint256",
          "name": "totalAmount",
          "type": "uint256"
        },
        {
          "indexed": false,
          "internalType": "uint256",
          "name": "burnedAmount",
          "type": "uint256"
        },
        {
          "indexed": false,
          "internalType": "uint256",
          "name": "treasuryAmount",
          "type": "uint256"
        },
        {
          "indexed": false,
          "internalType": "uint256",
          "name": "memberPoolAmount",
          "type": "uint256"
        },
        {
          "indexed": false,
          "internalType": "uint256",
          "name": "protocolAmount",
          "type": "uint256"
        },
        {
          "indexed": false,
          "internalType": "uint256",
          "name": "timestamp",
          "type": "uint256"
        },
        {
          "indexed": false,
          "internalType": "uint256",
          "name": "blockNumber",
          "type": "uint256"
        },
        {
          "indexed": false,
          "internalType": "uint256",
          "name": "joinId",
          "type": "uint256"
        }
      ],
      "name": "MemberJoined",
      "type": "event"
    },
    {
      "anonymous": false,
      "inputs": [
        {
          "indexed": true,
          "internalType": "address",
          "name": "member",
          "type": "address"
        },
        {
          "indexed": false,
          "internalType": "uint256",
          "name": "amount",
          "type": "uint256"
        },
        {
          "indexed": false,
          "internalType": "uint256",
          "name": "timestamp",
          "type": "uint256"
        }
      ],
      "name": "MemberRewardsClaimed",
      "type": "event"
    },
    {
      "anonymous": false,
      "inputs": [
        {
          "indexed": true,
          "internalType": "address",
          "name": "oldPriest",
          "type": "address"
        },
        {
          "indexed": true,
          "internalType": "address",
          "name": "newPriest",
          "type": "address"
        }
      ],
      "name": "PriestChanged",
      "type": "event"
    },
    {
      "anonymous": false,
      "inputs": [
        {
          "indexed": true,
          "internalType": "uint256",
          "name": "proposalId",
          "type": "uint256"
        },
        {
          "indexed": true,
          "internalType": "address",
          "name": "proposer",
          "type": "address"
        },
        {
          "indexed": false,
          "internalType": "uint256",
          "name": "endTime",
          "type": "uint256"
        },
        {
          "indexed": false,
          "internalType": "string",
          "name": "title",
          "type": "string"
        },
        {
          "indexed": false,
          "internalType": "string",
          "name": "description",
          "type": "string"
        }
      ],
      "name": "ProposalCreated",
      "type": "event"
    },
    {
      "anonymous": false,
      "inputs": [
        {
          "indexed": true,
          "internalType": "uint256",
          "name": "proposalId",
          "type": "uint256"
        },
        {
          "indexed": false,
          "internalType": "bool",
          "name": "success",
          "type": "bool"
        },
        {
          "indexed": false,
          "internalType": "bytes",
          "name": "returnData",
          "type": "bytes"
        }
      ],
      "name": "ProposalExecuted",
      "type": "event"
    },
    {
      "anonymous": false,
      "inputs": [
        {
          "indexed": false,
          "internalType": "string",
          "name": "previousLink",
          "type": "string"
        },
        {
          "indexed": false,
          "internalType": "string",
          "name": "newLink",
          "type": "string"
        }
      ],
      "name": "TemplHomeLinkUpdated",
      "type": "event"
    },
    {
      "anonymous": false,
      "inputs": [
        {
          "indexed": true,
          "internalType": "uint256",
          "name": "proposalId",
          "type": "uint256"
        },
        {
          "indexed": true,
          "internalType": "address",
          "name": "token",
          "type": "address"
        },
        {
          "indexed": true,
          "internalType": "address",
          "name": "recipient",
          "type": "address"
        },
        {
          "indexed": false,
          "internalType": "uint256",
          "name": "amount",
          "type": "uint256"
        },
        {
          "indexed": false,
          "internalType": "string",
          "name": "description",
          "type": "string"
        }
      ],
      "name": "TreasuryAction",
      "type": "event"
    },
    {
      "anonymous": false,
      "inputs": [
        {
          "indexed": true,
          "internalType": "uint256",
          "name": "proposalId",
          "type": "uint256"
        },
        {
          "indexed": true,
          "internalType": "address",
          "name": "token",
          "type": "address"
        },
        {
          "indexed": false,
          "internalType": "uint256",
          "name": "amount",
          "type": "uint256"
        },
        {
          "indexed": false,
          "internalType": "uint256",
          "name": "perMember",
          "type": "uint256"
        },
        {
          "indexed": false,
          "internalType": "uint256",
          "name": "remainder",
          "type": "uint256"
        }
      ],
      "name": "TreasuryDisbanded",
      "type": "event"
    },
    {
      "anonymous": false,
      "inputs": [
        {
          "indexed": true,
          "internalType": "uint256",
          "name": "proposalId",
          "type": "uint256"
        },
        {
          "indexed": true,
          "internalType": "address",
          "name": "voter",
          "type": "address"
        },
        {
          "indexed": false,
          "internalType": "bool",
          "name": "support",
          "type": "bool"
        },
        {
          "indexed": false,
          "internalType": "uint256",
          "name": "timestamp",
          "type": "uint256"
        }
      ],
      "name": "VoteCast",
      "type": "event"
    },
    {
      "inputs": [],
      "name": "DEFAULT_VOTING_PERIOD",
      "outputs": [
        {
          "internalType": "uint256",
          "name": "",
          "type": "uint256"
        }
      ],
      "stateMutability": "view",
      "type": "function"
    },
    {
      "inputs": [],
      "name": "MAX_MEMBERS",
      "outputs": [
        {
          "internalType": "uint256",
          "name": "",
          "type": "uint256"
        }
      ],
      "stateMutability": "view",
      "type": "function"
    },
    {
      "inputs": [],
      "name": "MAX_VOTING_PERIOD",
      "outputs": [
        {
          "internalType": "uint256",
          "name": "",
          "type": "uint256"
        }
      ],
      "stateMutability": "view",
      "type": "function"
    },
    {
      "inputs": [],
      "name": "MIN_VOTING_PERIOD",
      "outputs": [
        {
          "internalType": "uint256",
          "name": "",
          "type": "uint256"
        }
      ],
      "stateMutability": "view",
      "type": "function"
    },
    {
      "inputs": [],
      "name": "accessToken",
      "outputs": [
        {
          "internalType": "address",
          "name": "",
          "type": "address"
        }
      ],
      "stateMutability": "view",
      "type": "function"
    },
    {
      "inputs": [
        {
          "internalType": "address",
          "name": "",
          "type": "address"
        }
      ],
      "name": "activeProposalId",
      "outputs": [
        {
          "internalType": "uint256",
          "name": "",
          "type": "uint256"
        }
      ],
      "stateMutability": "view",
      "type": "function"
    },
    {
      "inputs": [],
      "name": "burnAddress",
      "outputs": [
        {
          "internalType": "address",
          "name": "",
          "type": "address"
        }
      ],
      "stateMutability": "view",
      "type": "function"
    },
    {
      "inputs": [],
      "name": "burnPercent",
      "outputs": [
        {
          "internalType": "uint256",
          "name": "",
          "type": "uint256"
        }
      ],
      "stateMutability": "view",
      "type": "function"
    },
    {
      "inputs": [
        {
          "internalType": "address",
          "name": "newPriest",
          "type": "address"
        }
      ],
      "name": "changePriestDAO",
      "outputs": [],
      "stateMutability": "nonpayable",
      "type": "function"
    },
    {
      "inputs": [
        {
          "internalType": "address",
          "name": "token",
          "type": "address"
        }
      ],
      "name": "claimExternalReward",
      "outputs": [],
      "stateMutability": "nonpayable",
      "type": "function"
    },
    {
      "inputs": [],
      "name": "claimMemberRewards",
      "outputs": [],
      "stateMutability": "nonpayable",
      "type": "function"
    },
    {
      "inputs": [
        {
          "internalType": "address",
          "name": "token",
          "type": "address"
        }
      ],
      "name": "cleanupExternalRewardToken",
      "outputs": [],
      "stateMutability": "nonpayable",
      "type": "function"
    },
    {
      "inputs": [
        {
          "internalType": "address",
          "name": "_newPriest",
          "type": "address"
        },
        {
          "internalType": "uint256",
          "name": "_votingPeriod",
          "type": "uint256"
        },
        {
          "internalType": "string",
          "name": "_title",
          "type": "string"
        },
        {
          "internalType": "string",
          "name": "_description",
          "type": "string"
        }
      ],
      "name": "createProposalChangePriest",
      "outputs": [
        {
          "internalType": "uint256",
          "name": "",
          "type": "uint256"
        }
      ],
      "stateMutability": "nonpayable",
      "type": "function"
    },
    {
      "inputs": [
        {
          "internalType": "address",
          "name": "_token",
          "type": "address"
        },
        {
          "internalType": "uint256",
          "name": "_votingPeriod",
          "type": "uint256"
        },
        {
          "internalType": "string",
          "name": "_title",
          "type": "string"
        },
        {
          "internalType": "string",
          "name": "_description",
          "type": "string"
        }
      ],
      "name": "createProposalDisbandTreasury",
      "outputs": [
        {
          "internalType": "uint256",
          "name": "",
          "type": "uint256"
        }
      ],
      "stateMutability": "nonpayable",
      "type": "function"
    },
    {
      "inputs": [
        {
          "internalType": "bool",
          "name": "_enable",
          "type": "bool"
        },
        {
          "internalType": "uint256",
          "name": "_votingPeriod",
          "type": "uint256"
        },
        {
          "internalType": "string",
          "name": "_title",
          "type": "string"
        },
        {
          "internalType": "string",
          "name": "_description",
          "type": "string"
        }
      ],
      "name": "createProposalSetDictatorship",
      "outputs": [
        {
          "internalType": "uint256",
          "name": "",
          "type": "uint256"
        }
      ],
      "stateMutability": "nonpayable",
      "type": "function"
    },
    {
      "inputs": [
        {
          "internalType": "enum TemplBase.FeeCurveFormula",
          "name": "_formula",
          "type": "uint8"
        },
        {
          "internalType": "uint256",
          "name": "_slope",
          "type": "uint256"
        },
        {
          "internalType": "uint256",
          "name": "_scale",
          "type": "uint256"
        },
        {
          "internalType": "uint256",
          "name": "_votingPeriod",
          "type": "uint256"
        },
        {
          "internalType": "string",
          "name": "_title",
          "type": "string"
        },
        {
          "internalType": "string",
          "name": "_description",
          "type": "string"
        }
      ],
      "name": "createProposalSetFeeCurve",
      "outputs": [
        {
          "internalType": "uint256",
          "name": "",
          "type": "uint256"
        }
      ],
      "stateMutability": "nonpayable",
      "type": "function"
    },
    {
      "inputs": [
        {
          "internalType": "string",
          "name": "_newLink",
          "type": "string"
        },
        {
          "internalType": "uint256",
          "name": "_votingPeriod",
          "type": "uint256"
        },
        {
          "internalType": "string",
          "name": "_title",
          "type": "string"
        },
        {
          "internalType": "string",
          "name": "_description",
          "type": "string"
        }
      ],
      "name": "createProposalSetHomeLink",
      "outputs": [
        {
          "internalType": "uint256",
          "name": "",
          "type": "uint256"
        }
      ],
      "stateMutability": "nonpayable",
      "type": "function"
    },
    {
      "inputs": [
        {
          "internalType": "bool",
          "name": "_paused",
          "type": "bool"
        },
        {
          "internalType": "uint256",
          "name": "_votingPeriod",
          "type": "uint256"
        },
        {
          "internalType": "string",
          "name": "_title",
          "type": "string"
        },
        {
          "internalType": "string",
          "name": "_description",
          "type": "string"
        }
      ],
      "name": "createProposalSetJoinPaused",
      "outputs": [
        {
          "internalType": "uint256",
          "name": "",
          "type": "uint256"
        }
      ],
      "stateMutability": "nonpayable",
      "type": "function"
    },
    {
      "inputs": [
        {
          "internalType": "uint256",
          "name": "_newMaxMembers",
          "type": "uint256"
        },
        {
          "internalType": "uint256",
          "name": "_votingPeriod",
          "type": "uint256"
        },
        {
          "internalType": "string",
          "name": "_title",
          "type": "string"
        },
        {
          "internalType": "string",
          "name": "_description",
          "type": "string"
        }
      ],
      "name": "createProposalSetMaxMembers",
      "outputs": [
        {
          "internalType": "uint256",
          "name": "",
          "type": "uint256"
        }
      ],
      "stateMutability": "nonpayable",
      "type": "function"
    },
    {
      "inputs": [
        {
          "internalType": "uint256",
          "name": "_newEntryFee",
          "type": "uint256"
        },
        {
          "internalType": "uint256",
          "name": "_newBurnPercent",
          "type": "uint256"
        },
        {
          "internalType": "uint256",
          "name": "_newTreasuryPercent",
          "type": "uint256"
        },
        {
          "internalType": "uint256",
          "name": "_newMemberPoolPercent",
          "type": "uint256"
        },
        {
          "internalType": "bool",
          "name": "_updateFeeSplit",
          "type": "bool"
        },
        {
          "internalType": "uint256",
          "name": "_votingPeriod",
          "type": "uint256"
        },
        {
          "internalType": "string",
          "name": "_title",
          "type": "string"
        },
        {
          "internalType": "string",
          "name": "_description",
          "type": "string"
        }
      ],
      "name": "createProposalUpdateConfig",
      "outputs": [
        {
          "internalType": "uint256",
          "name": "",
          "type": "uint256"
        }
      ],
      "stateMutability": "nonpayable",
      "type": "function"
    },
    {
      "inputs": [
        {
          "internalType": "address",
          "name": "_token",
          "type": "address"
        },
        {
          "internalType": "address",
          "name": "_recipient",
          "type": "address"
        },
        {
          "internalType": "uint256",
          "name": "_amount",
          "type": "uint256"
        },
        {
          "internalType": "string",
          "name": "_reason",
          "type": "string"
        },
        {
          "internalType": "uint256",
          "name": "_votingPeriod",
          "type": "uint256"
        },
        {
          "internalType": "string",
          "name": "_title",
          "type": "string"
        },
        {
          "internalType": "string",
          "name": "_description",
          "type": "string"
        }
      ],
      "name": "createProposalWithdrawTreasury",
      "outputs": [
        {
          "internalType": "uint256",
          "name": "",
          "type": "uint256"
        }
      ],
      "stateMutability": "nonpayable",
      "type": "function"
    },
    {
      "inputs": [],
      "name": "cumulativeMemberRewards",
      "outputs": [
        {
          "internalType": "uint256",
          "name": "",
          "type": "uint256"
        }
      ],
      "stateMutability": "view",
      "type": "function"
    },
    {
      "inputs": [
        {
          "internalType": "address",
          "name": "token",
          "type": "address"
        }
      ],
      "name": "disbandTreasuryDAO",
      "outputs": [],
      "stateMutability": "nonpayable",
      "type": "function"
    },
    {
      "inputs": [],
      "name": "entryFee",
      "outputs": [
        {
          "internalType": "uint256",
          "name": "",
          "type": "uint256"
        }
      ],
      "stateMutability": "view",
      "type": "function"
    },
    {
      "inputs": [
        {
          "internalType": "uint256",
          "name": "_proposalId",
          "type": "uint256"
        }
      ],
      "name": "executeProposal",
      "outputs": [],
      "stateMutability": "nonpayable",
      "type": "function"
    },
    {
      "inputs": [],
      "name": "executionDelayAfterQuorum",
      "outputs": [
        {
          "internalType": "uint256",
          "name": "",
          "type": "uint256"
        }
      ],
      "stateMutability": "view",
      "type": "function"
    },
    {
      "inputs": [],
      "name": "feeCurve",
      "outputs": [
        {
          "internalType": "enum TemplBase.FeeCurveFormula",
          "name": "formula",
          "type": "uint8"
        },
        {
          "internalType": "uint256",
          "name": "slope",
          "type": "uint256"
        },
        {
          "internalType": "uint256",
          "name": "scale",
          "type": "uint256"
        }
      ],
      "stateMutability": "view",
      "type": "function"
    },
    {
      "inputs": [],
      "name": "getActiveProposals",
      "outputs": [
        {
          "internalType": "uint256[]",
          "name": "",
          "type": "uint256[]"
        }
      ],
      "stateMutability": "view",
      "type": "function"
    },
    {
      "inputs": [
        {
          "internalType": "uint256",
          "name": "offset",
          "type": "uint256"
        },
        {
          "internalType": "uint256",
          "name": "limit",
          "type": "uint256"
        }
      ],
      "name": "getActiveProposalsPaginated",
      "outputs": [
        {
          "internalType": "uint256[]",
          "name": "proposalIds",
          "type": "uint256[]"
        },
        {
          "internalType": "bool",
          "name": "hasMore",
          "type": "bool"
        }
      ],
      "stateMutability": "view",
      "type": "function"
    },
    {
      "inputs": [
        {
          "internalType": "address",
          "name": "member",
          "type": "address"
        },
        {
          "internalType": "address",
          "name": "token",
          "type": "address"
        }
      ],
      "name": "getClaimableExternalReward",
      "outputs": [
        {
          "internalType": "uint256",
          "name": "amount",
          "type": "uint256"
        }
      ],
      "stateMutability": "view",
      "type": "function"
    },
    {
      "inputs": [
        {
          "internalType": "address",
          "name": "member",
          "type": "address"
        }
      ],
      "name": "getClaimableMemberRewards",
      "outputs": [
        {
          "internalType": "uint256",
          "name": "",
          "type": "uint256"
        }
      ],
      "stateMutability": "view",
      "type": "function"
    },
    {
      "inputs": [],
      "name": "getConfig",
      "outputs": [
        {
          "internalType": "address",
          "name": "token",
          "type": "address"
        },
        {
          "internalType": "uint256",
          "name": "fee",
          "type": "uint256"
        },
        {
          "internalType": "bool",
          "name": "joinPaused",
          "type": "bool"
        },
        {
          "internalType": "uint256",
          "name": "joins",
          "type": "uint256"
        },
        {
          "internalType": "uint256",
          "name": "treasury",
          "type": "uint256"
        },
        {
          "internalType": "uint256",
          "name": "pool",
          "type": "uint256"
        },
        {
          "internalType": "uint256",
          "name": "burnPercentOut",
          "type": "uint256"
        },
        {
          "internalType": "uint256",
          "name": "treasuryPercentOut",
          "type": "uint256"
        },
        {
          "internalType": "uint256",
          "name": "memberPoolPercentOut",
          "type": "uint256"
        },
        {
          "internalType": "uint256",
          "name": "protocolPercentOut",
          "type": "uint256"
        }
      ],
      "stateMutability": "view",
      "type": "function"
    },
    {
      "inputs": [
        {
          "internalType": "address",
          "name": "token",
          "type": "address"
        }
      ],
      "name": "getExternalRewardState",
      "outputs": [
        {
          "internalType": "uint256",
          "name": "poolBalance",
          "type": "uint256"
        },
        {
          "internalType": "uint256",
          "name": "cumulativeRewards",
          "type": "uint256"
        },
        {
          "internalType": "uint256",
          "name": "remainder",
          "type": "uint256"
        }
      ],
      "stateMutability": "view",
      "type": "function"
    },
    {
      "inputs": [],
      "name": "getExternalRewardTokens",
      "outputs": [
        {
          "internalType": "address[]",
          "name": "tokens",
          "type": "address[]"
        }
      ],
      "stateMutability": "view",
      "type": "function"
    },
    {
      "inputs": [
        {
          "internalType": "address",
          "name": "user",
          "type": "address"
        }
      ],
      "name": "getJoinDetails",
      "outputs": [
        {
          "internalType": "bool",
          "name": "joined",
          "type": "bool"
        },
        {
          "internalType": "uint256",
          "name": "timestamp",
          "type": "uint256"
        },
        {
          "internalType": "uint256",
          "name": "blockNumber",
          "type": "uint256"
        }
      ],
      "stateMutability": "view",
      "type": "function"
    },
    {
      "inputs": [],
      "name": "getMemberCount",
      "outputs": [
        {
          "internalType": "uint256",
          "name": "",
          "type": "uint256"
        }
      ],
      "stateMutability": "view",
      "type": "function"
    },
    {
      "inputs": [
        {
          "internalType": "uint256",
          "name": "_proposalId",
          "type": "uint256"
        }
      ],
      "name": "getProposal",
      "outputs": [
        {
          "internalType": "address",
          "name": "proposer",
          "type": "address"
        },
        {
          "internalType": "uint256",
          "name": "yesVotes",
          "type": "uint256"
        },
        {
          "internalType": "uint256",
          "name": "noVotes",
          "type": "uint256"
        },
        {
          "internalType": "uint256",
          "name": "endTime",
          "type": "uint256"
        },
        {
          "internalType": "bool",
          "name": "executed",
          "type": "bool"
        },
        {
          "internalType": "bool",
          "name": "passed",
          "type": "bool"
        },
        {
          "internalType": "string",
          "name": "title",
          "type": "string"
        },
        {
          "internalType": "string",
          "name": "description",
          "type": "string"
        }
      ],
      "stateMutability": "view",
      "type": "function"
    },
    {
      "inputs": [
        {
          "internalType": "uint256",
          "name": "_proposalId",
          "type": "uint256"
        }
      ],
      "name": "getProposalSnapshots",
      "outputs": [
        {
          "internalType": "uint256",
          "name": "eligibleVotersPreQuorum",
          "type": "uint256"
        },
        {
          "internalType": "uint256",
          "name": "eligibleVotersPostQuorum",
          "type": "uint256"
        },
        {
          "internalType": "uint256",
          "name": "preQuorumSnapshotBlock",
          "type": "uint256"
        },
        {
          "internalType": "uint256",
          "name": "quorumSnapshotBlock",
          "type": "uint256"
        },
        {
          "internalType": "uint256",
          "name": "createdAt",
          "type": "uint256"
        },
        {
          "internalType": "uint256",
          "name": "quorumReachedAt",
          "type": "uint256"
        }
      ],
      "stateMutability": "view",
      "type": "function"
    },
    {
      "inputs": [],
      "name": "getTreasuryInfo",
      "outputs": [
        {
          "internalType": "uint256",
          "name": "treasury",
          "type": "uint256"
        },
        {
          "internalType": "uint256",
          "name": "memberPool",
          "type": "uint256"
        },
        {
          "internalType": "address",
          "name": "protocolAddress",
          "type": "address"
        }
      ],
      "stateMutability": "view",
      "type": "function"
    },
    {
      "inputs": [
        {
          "internalType": "address",
          "name": "voter",
          "type": "address"
        }
      ],
      "name": "getVoteWeight",
      "outputs": [
        {
          "internalType": "uint256",
          "name": "weight",
          "type": "uint256"
        }
      ],
      "stateMutability": "view",
      "type": "function"
    },
    {
      "inputs": [
        {
          "internalType": "address",
          "name": "",
          "type": "address"
        }
      ],
      "name": "hasActiveProposal",
      "outputs": [
        {
          "internalType": "bool",
          "name": "",
          "type": "bool"
        }
      ],
      "stateMutability": "view",
      "type": "function"
    },
    {
      "inputs": [
        {
          "internalType": "uint256",
          "name": "_proposalId",
          "type": "uint256"
        },
        {
          "internalType": "address",
          "name": "_voter",
          "type": "address"
        }
      ],
      "name": "hasVoted",
      "outputs": [
        {
          "internalType": "bool",
          "name": "voted",
          "type": "bool"
        },
        {
          "internalType": "bool",
          "name": "support",
          "type": "bool"
        }
      ],
      "stateMutability": "view",
      "type": "function"
    },
    {
      "inputs": [
        {
          "internalType": "address",
          "name": "user",
          "type": "address"
        }
      ],
      "name": "isMember",
      "outputs": [
        {
          "internalType": "bool",
          "name": "",
          "type": "bool"
        }
      ],
      "stateMutability": "view",
      "type": "function"
    },
    {
      "inputs": [],
      "name": "join",
      "outputs": [],
      "stateMutability": "nonpayable",
      "type": "function"
    },
    {
      "inputs": [
        {
          "internalType": "address",
          "name": "recipient",
          "type": "address"
        }
      ],
      "name": "joinFor",
      "outputs": [],
      "stateMutability": "nonpayable",
      "type": "function"
    },
    {
      "inputs": [],
      "name": "joinPaused",
      "outputs": [
        {
          "internalType": "bool",
          "name": "",
          "type": "bool"
        }
      ],
      "stateMutability": "view",
      "type": "function"
    },
    {
      "inputs": [],
      "name": "memberCount",
      "outputs": [
        {
          "internalType": "uint256",
          "name": "",
          "type": "uint256"
        }
      ],
      "stateMutability": "view",
      "type": "function"
    },
    {
      "inputs": [],
      "name": "memberPoolBalance",
      "outputs": [
        {
          "internalType": "uint256",
          "name": "",
          "type": "uint256"
        }
      ],
      "stateMutability": "view",
      "type": "function"
    },
    {
      "inputs": [
        {
          "internalType": "address",
          "name": "",
          "type": "address"
        }
      ],
      "name": "memberPoolClaims",
      "outputs": [
        {
          "internalType": "uint256",
          "name": "",
          "type": "uint256"
        }
      ],
      "stateMutability": "view",
      "type": "function"
    },
    {
      "inputs": [],
      "name": "memberPoolPercent",
      "outputs": [
        {
          "internalType": "uint256",
          "name": "",
          "type": "uint256"
        }
      ],
      "stateMutability": "view",
      "type": "function"
    },
    {
      "inputs": [],
      "name": "memberRewardRemainder",
      "outputs": [
        {
          "internalType": "uint256",
          "name": "",
          "type": "uint256"
        }
      ],
      "stateMutability": "view",
      "type": "function"
    },
    {
      "inputs": [
        {
          "internalType": "address",
          "name": "",
          "type": "address"
        }
      ],
      "name": "members",
      "outputs": [
        {
          "internalType": "bool",
          "name": "joined",
          "type": "bool"
        },
        {
          "internalType": "uint256",
          "name": "timestamp",
          "type": "uint256"
        },
        {
          "internalType": "uint256",
          "name": "blockNumber",
          "type": "uint256"
        },
        {
          "internalType": "uint256",
          "name": "rewardSnapshot",
          "type": "uint256"
        }
      ],
      "stateMutability": "view",
      "type": "function"
    },
    {
      "inputs": [],
      "name": "priest",
      "outputs": [
        {
          "internalType": "address",
          "name": "",
          "type": "address"
        }
      ],
      "stateMutability": "view",
      "type": "function"
    },
    {
      "inputs": [],
      "name": "priestIsDictator",
      "outputs": [
        {
          "internalType": "bool",
          "name": "",
          "type": "bool"
        }
      ],
      "stateMutability": "view",
      "type": "function"
    },
    {
      "inputs": [],
      "name": "proposalCount",
      "outputs": [
        {
          "internalType": "uint256",
          "name": "",
          "type": "uint256"
        }
      ],
      "stateMutability": "view",
      "type": "function"
    },
    {
      "inputs": [
        {
          "internalType": "uint256",
          "name": "",
          "type": "uint256"
        }
      ],
      "name": "proposals",
      "outputs": [
        {
          "internalType": "uint256",
          "name": "id",
          "type": "uint256"
        },
        {
          "internalType": "address",
          "name": "proposer",
          "type": "address"
        },
        {
          "internalType": "enum TemplBase.Action",
          "name": "action",
          "type": "uint8"
        },
        {
          "internalType": "address",
          "name": "token",
          "type": "address"
        },
        {
          "internalType": "address",
          "name": "recipient",
          "type": "address"
        },
        {
          "internalType": "uint256",
          "name": "amount",
          "type": "uint256"
        },
        {
          "internalType": "string",
          "name": "title",
          "type": "string"
        },
        {
          "internalType": "string",
          "name": "description",
          "type": "string"
        },
        {
          "internalType": "string",
          "name": "reason",
          "type": "string"
        },
        {
          "internalType": "bool",
          "name": "joinPaused",
          "type": "bool"
        },
        {
          "internalType": "uint256",
          "name": "newEntryFee",
          "type": "uint256"
        },
        {
          "internalType": "uint256",
          "name": "newBurnPercent",
          "type": "uint256"
        },
        {
          "internalType": "uint256",
          "name": "newTreasuryPercent",
          "type": "uint256"
        },
        {
          "internalType": "uint256",
          "name": "newMemberPoolPercent",
          "type": "uint256"
        },
        {
          "internalType": "enum TemplBase.FeeCurveFormula",
          "name": "newFeeCurveFormula",
          "type": "uint8"
        },
        {
          "internalType": "uint256",
          "name": "newFeeCurveSlope",
          "type": "uint256"
        },
        {
          "internalType": "uint256",
          "name": "newFeeCurveScale",
          "type": "uint256"
        },
        {
          "internalType": "string",
          "name": "newHomeLink",
          "type": "string"
        },
        {
          "internalType": "uint256",
          "name": "newMaxMembers",
          "type": "uint256"
        },
        {
          "internalType": "uint256",
          "name": "yesVotes",
          "type": "uint256"
        },
        {
          "internalType": "uint256",
          "name": "noVotes",
          "type": "uint256"
        },
        {
          "internalType": "uint256",
          "name": "endTime",
          "type": "uint256"
        },
        {
          "internalType": "uint256",
          "name": "createdAt",
          "type": "uint256"
        },
        {
          "internalType": "bool",
          "name": "executed",
          "type": "bool"
        },
        {
          "internalType": "uint256",
          "name": "eligibleVoters",
          "type": "uint256"
        },
        {
          "internalType": "uint256",
          "name": "postQuorumEligibleVoters",
          "type": "uint256"
        },
        {
          "internalType": "uint256",
          "name": "quorumReachedAt",
          "type": "uint256"
        },
        {
          "internalType": "uint256",
          "name": "quorumSnapshotBlock",
          "type": "uint256"
        },
        {
          "internalType": "bool",
          "name": "quorumExempt",
          "type": "bool"
        },
        {
          "internalType": "bool",
          "name": "updateFeeSplit",
          "type": "bool"
        },
        {
          "internalType": "uint256",
          "name": "preQuorumSnapshotBlock",
          "type": "uint256"
        },
        {
          "internalType": "bool",
          "name": "setDictatorship",
          "type": "bool"
        }
      ],
      "stateMutability": "view",
      "type": "function"
    },
    {
      "inputs": [],
      "name": "protocolFeeRecipient",
      "outputs": [
        {
          "internalType": "address",
          "name": "",
          "type": "address"
        }
      ],
      "stateMutability": "view",
      "type": "function"
    },
    {
      "inputs": [],
      "name": "protocolPercent",
      "outputs": [
        {
          "internalType": "uint256",
          "name": "",
          "type": "uint256"
        }
      ],
      "stateMutability": "view",
      "type": "function"
    },
    {
      "inputs": [
        {
          "internalType": "uint256",
          "name": "maxRemovals",
          "type": "uint256"
        }
      ],
      "name": "pruneInactiveProposals",
      "outputs": [
        {
          "internalType": "uint256",
          "name": "removed",
          "type": "uint256"
        }
      ],
      "stateMutability": "nonpayable",
      "type": "function"
    },
    {
      "inputs": [],
      "name": "quorumPercent",
      "outputs": [
        {
          "internalType": "uint256",
          "name": "",
          "type": "uint256"
        }
      ],
      "stateMutability": "view",
      "type": "function"
    },
    {
      "inputs": [
        {
          "internalType": "bool",
          "name": "enabled",
          "type": "bool"
        }
      ],
      "name": "setDictatorshipDAO",
      "outputs": [],
      "stateMutability": "nonpayable",
      "type": "function"
    },
    {
      "inputs": [
        {
          "internalType": "enum TemplBase.FeeCurveFormula",
          "name": "formula",
          "type": "uint8"
        },
        {
          "internalType": "uint256",
          "name": "slope",
          "type": "uint256"
        },
        {
          "internalType": "uint256",
          "name": "scale",
          "type": "uint256"
        }
      ],
      "name": "setFeeCurveDAO",
      "outputs": [],
      "stateMutability": "nonpayable",
      "type": "function"
    },
    {
      "inputs": [
        {
          "internalType": "bool",
          "name": "_paused",
          "type": "bool"
        }
      ],
      "name": "setJoinPausedDAO",
      "outputs": [],
      "stateMutability": "nonpayable",
      "type": "function"
    },
    {
      "inputs": [
        {
          "internalType": "uint256",
          "name": "_maxMembers",
          "type": "uint256"
        }
      ],
      "name": "setMaxMembersDAO",
      "outputs": [],
      "stateMutability": "nonpayable",
      "type": "function"
    },
    {
      "inputs": [
        {
          "internalType": "string",
          "name": "newLink",
          "type": "string"
        }
      ],
      "name": "setTemplHomeLinkDAO",
      "outputs": [],
      "stateMutability": "nonpayable",
      "type": "function"
    },
    {
      "inputs": [],
      "name": "templHomeLink",
      "outputs": [
        {
          "internalType": "string",
          "name": "",
          "type": "string"
        }
      ],
      "stateMutability": "view",
      "type": "function"
    },
    {
      "inputs": [],
      "name": "totalJoins",
      "outputs": [
        {
          "internalType": "uint256",
          "name": "",
          "type": "uint256"
        }
      ],
      "stateMutability": "view",
      "type": "function"
    },
    {
      "inputs": [],
      "name": "treasuryBalance",
      "outputs": [
        {
          "internalType": "uint256",
          "name": "",
          "type": "uint256"
        }
      ],
      "stateMutability": "view",
      "type": "function"
    },
    {
      "inputs": [],
      "name": "treasuryPercent",
      "outputs": [
        {
          "internalType": "uint256",
          "name": "",
          "type": "uint256"
        }
      ],
      "stateMutability": "view",
      "type": "function"
    },
    {
      "inputs": [
        {
          "internalType": "address",
          "name": "_token",
          "type": "address"
        },
        {
          "internalType": "uint256",
          "name": "_entryFee",
          "type": "uint256"
        },
        {
          "internalType": "bool",
          "name": "_updateFeeSplit",
          "type": "bool"
        },
        {
          "internalType": "uint256",
          "name": "_burnPercent",
          "type": "uint256"
        },
        {
          "internalType": "uint256",
          "name": "_treasuryPercent",
          "type": "uint256"
        },
        {
          "internalType": "uint256",
          "name": "_memberPoolPercent",
          "type": "uint256"
        }
      ],
      "name": "updateConfigDAO",
      "outputs": [],
      "stateMutability": "nonpayable",
      "type": "function"
    },
    {
      "inputs": [
        {
          "internalType": "uint256",
          "name": "_proposalId",
          "type": "uint256"
        },
        {
          "internalType": "bool",
          "name": "_support",
          "type": "bool"
        }
      ],
      "name": "vote",
      "outputs": [],
      "stateMutability": "nonpayable",
      "type": "function"
    },
    {
      "inputs": [
        {
          "internalType": "address",
          "name": "token",
          "type": "address"
        },
        {
          "internalType": "address",
          "name": "recipient",
          "type": "address"
        },
        {
          "internalType": "uint256",
          "name": "amount",
          "type": "uint256"
        },
        {
          "internalType": "string",
          "name": "reason",
          "type": "string"
        }
      ],
      "name": "withdrawTreasuryDAO",
      "outputs": [],
      "stateMutability": "nonpayable",
      "type": "function"
    },
    {
      "stateMutability": "payable",
      "type": "receive"
    }
  ],
  "bytecode": "0x61012060405234620007f2576200619280380390816200001f81620007f7565b9182396101c0818381010312620007f2576200003b816200081d565b916200004a602083016200081d565b9062000059604084016200081d565b606084015192608085015160a086015160c087015160e0880151610100890151936101208a015195620000906101408c016200081d565b976101608c0151918215158303620007f2576101808d01516101a08e01516001600160401b03610100819052919e918111620007f2578101908c8101601f83011215620007f25781519c8d610100511062000576578d91620000fc601f8401601f1916602001620007f7565b9e8f520160208284010111620007f2576200011e916020808f01910162000832565b60016000556001600160a01b038116158015620007e0575b620005645760a05260c0526004549060ff60a01b90151560a01b169060ff60a01b191617600455809184938095829362000181846200017b856200017b868662000857565b62000857565b90612710820362000773575b5050505050620001af81612710926080526200017b866200017b878762000857565b03620007615760015560025560035580620007015750610ce4600d555b80620006fb575062093a805b600e556001600160a01b038116620006f5575061dead5b60e05280516101005181116200057657600f54600181811c91168015620006ea575b6020821014620006d457601f81116200067b575b50806020601f82116001146200060257600091620005f6575b508160011b916000199060031b1c191617600f555b80516200058c575b5060405192606084019380851061010051861117620005765760607f715b42020a9e5afec6d7d52b6af5b5d5700d17eea68f26a5e4896e940f7f677491604096875260028152670f43fc2c04ee000090816020820152670de0b6b3a7640000978891015260ff1996600288600a541617600a5581600b5580600c55604051916002835260208301526040820152a16001600160a01b0316908115620005645780156200055257600a81106200054057600a81066200052e578160018060a01b0319600454161760045560055582600854166008556000526010602052604060002060018382541617815542600182015543600282015560036013549101556001601155801515908162000461575b60405161590c90816200086682396080518181816104c60152818161074e015281816112e8015281816127cb0152818161281a01528181612abf01528181612b1101526147ed015260a0518181816113dc01528181612096015261495f015260c05181818161062d0152818161090e0152818161119001528181611240015281816113810152818161195101528181612210015281816127f10152818161288201528181612ae501528181612b8601528181612bf301528181613a7b015281816148520152818161490a015281816149340152818161498201528181614e020152615143015260e051818181611f8001526148e70152f35b818062000523575b6200051157806009557fb63bcc75a862434e97db3146b78681478a2692253df1de5623d497ee61fac7996020604051838152a18162000504575b5080620004f6575b620004b9575b808062000369565b60019060085416176008557fc2542ff58c47f8c0922a043c4b21423ecd816167eeab1dabfb51d56508d90a66602060405160018152a138620004b1565b5060ff6008541615620004ab565b90506001101538620004a3565b604051633161e99d60e11b8152600490fd5b506001811062000469565b604051636fe6a4c960e01b8152600490fd5b604051635eee050360e11b8152600490fd5b6040516365e52d5160e11b8152600490fd5b604051634e46966960e11b8152600490fd5b634e487b7160e01b600052604160045260246000fd5b7f71e57b89fe30fe66cb93427236f86ec18c6ec404e26b5c0914ee88193dd07da59060806040518092604082526000604083015260606020830152620005e2815180928160608601526020868601910162000832565b601f01601f19168101030190a1386200025b565b9050820151386200023e565b600f6000908152925060008051602062006172833981519152905b601f198316841062000662576001935082601f1981161062000648575b5050811b01600f5562000253565b84015160001960f88460031b161c1916905538806200063a565b848101518255602093840193600190920191016200061d565b600f60005260008051602062006172833981519152601f830160051c81019160208410620006c9575b601f0160051c01905b818110620006bc575062000225565b60008155600101620006ad565b9091508190620006a4565b634e487b7160e01b600052602260045260246000fd5b90607f169062000211565b620001ef565b620001d8565b80606481111562000733575b5061271081116200072157600d55620001cc565b604051631f3b85d360e01b8152600490fd5b9050606481029081046064036200074b57386200070d565b634e487b7160e01b600052601160045260246000fd5b60405163542c8df360e11b8152600490fd5b93975091955093506064925082036200076157818102908082048314901517156200074b5791818102908082048314901517156200074b5792818102908082048314901517156200074b57938181029181830414901517156200074b57620001af6127103880806200018d565b506001600160a01b0382161562000136565b600080fd5b6040519190601f01601f191682016001600160401b038111838210176200057657604052565b51906001600160a01b0382168203620007f257565b60005b838110620008465750506000910152565b818101518382015260200162000835565b919082018092116200074b5756fe6103e0604052600436101561001c575b361561001a57600080fd5b005b60003560e01c8063013cf08b146132c557806303807ee5146132a757806304ef9d5814613289578063072ea61c1461326b57806308ae4b0c1461320a5780630d61b519146128d85780630f852b9a1461270757806311aee38014611a695780631df260a01461263f5780631f26ac7b14612613578063215809ca1461173a5780632164d3f814612579578063313dab201461255b57806343859632146124ec5780634628047c146123f45780634902e4271461235f5780635584c4f9146122995780635998e845146121e95780635ece653a146121935780635fa7ddf01461217557806361c896d2146120c557806364df049e146120805780636898b19c146120625780636a499427146120075780636ad1855014611fcd5780637070ac4814611faf57806370d5ae0514611f6a57806373023e6414611df95780637518927914611dd65780638022e55c14611dbb578063840634c514611d04578063856695ea14611cd75780638b0e837914611c0e5780638f78bbc414611bcc578063989fbb7614611a87578063997072f714611a695780639ddeddf914611909578063a230c524146118ca578063a51a46b9146118ac578063a64e024a1461188e578063a730117e1461186b578063a81bbe3c14611831578063aa5c442b1461177b578063ab99a0d31461175d578063adadef271461173f578063aedfe53f1461173a578063b488616b1461170a578063b688a363146116d6578063be893a1f146114f9578063bebc8fc0146114d0578063c17db3f214611442578063c29394711461134d578063c3f909d41461121a578063c556a02b146110fa578063c7f758a814610f64578063c9d27afe14610c3f578063cfb5446014610bbd578063d402d4be1461088b578063d6f8387614610824578063d8257b2d14610801578063da35c664146107e3578063dddac844146107bd578063e1a2c9bf1461065c578063e243c5fb14610617578063e4b5d7ba14610593578063ea0e35b114610575578063eccceda6146104e9578063f0a827a4146104ae578063f2be51ea14610422578063f81cbd2614610404578063fef638211461037d5763ffafe4ad0361000f5734610378576020366003190112610378576001600160a01b0361035a613840565b166000526018602052602060ff604060002054166040519015158152f35b600080fd5b346103785761038b366139e9565b949190929360ff60045460a01c166103f2576020956103c06103ea956103b86008986103c6963691613994565b923691613994565b916141c0565b6001819592950160ff60a01b198154169055019060ff801983541691151516179055565b604051908152f35b60405163a8ef9e1960e01b8152600490fd5b34610378576000366003190112610378576020600d54604051908152f35b346103785760203660031901126103785761043b613840565b60045460ff8160a01c1660001461048b57303314159081610477575b506104655761001a90614de9565b60405163626243e960e01b8152600490fd5b6001600160a01b0316331415905082610457565b5030330361049c5761001a90614de9565b6040516327568d2f60e11b8152600490fd5b346103785760003660031901126103785760206040517f00000000000000000000000000000000000000000000000000000000000000008152f35b34610378576104f7366138c6565b929490936001600160a01b039091169283156105635760ff60045460a01c166103f2576103c06003956103b8602098610531963691613994565b60018101805460ff60a01b1916600160a21b1790559290920180546001600160a01b0319169091179055604051908152f35b604051634e46966960e11b8152600490fd5b34610378576000366003190112610378576020600954604051908152f35b34610378576105a1366139e9565b949190929360ff60045460a01c1683151590151514610605576020956103c06103ea956103b8601f986105d5963691613994565b60018101805460ff60a01b1916600560a01b17905593909301805491151560ff1660ff1992909216919091179055565b6040516305548b1760e41b8152600490fd5b34610378576000366003190112610378576040517f00000000000000000000000000000000000000000000000000000000000000006001600160a01b03168152602090f35b346103785761010036600319011261037857608435600435811515602435606435604435838603610378576001600160401b0360c435818111610378576106a7903690600401613899565b9160e435908111610378576106c0903690600401613899565b92909860ff60045460a01c166103f2578861077a575b6020996103b861070094601d99989796946106f794610749575b3691613994565b9060a4356141c0565b93909660018501600160a01b60ff60a01b198254161790556009850155600a840155600b830155600c820155019061ff0082549160081b169061ff001916179055604051908152f35b6107757f00000000000000000000000000000000000000000000000000000000000000008a8a8d614db6565b6106f0565b9594939290600a89106107ab57600a89066107995790929394956106d6565b604051636fe6a4c960e01b8152600490fd5b604051635eee050360e11b8152600490fd5b3461037857600036600319011261037857602060ff60045460a01c166040519015158152f35b34610378576000366003190112610378576020601554604051908152f35b346103785760203660031901126103785760206103ea61081f613840565b613f37565b346103785760203660031901126103785761083d613840565b60ff6008541661087957303314610867576108609061085a613f9a565b3361477f565b6001600055005b604051636edaef2f60e11b8152600490fd5b604051636f45999160e11b8152600490fd5b34610378576080366003190112610378576108a4613840565b6108ac613856565b604435906064356001600160401b038111610378576108cf9036906004016139cb565b9260045460ff8160a01c16600014610ba357303314159081610b8f575b50610465575b6001600160a01b0382811694908515610563578415610b7d57807f000000000000000000000000000000000000000000000000000000000000000016921693828514600014610a2e576040516370a0823160e01b8152306004820152602081602481875afa908115610a22576000916109f0575b50600754808211156109de5761097b91613a46565b81116109de576109b781600095600080516020615897833981519152956109af600654808511158a146109d8578490613a46565b600655614726565b6109d360405192839283526040602084015260408301906137f3565b0390a4005b80613a46565b604051631c7b597b60e11b8152600490fd5b90506020813d602011610a1a575b81610a0b6020938361367b565b81010312610378575187610966565b3d91506109fe565b6040513d6000823e3d90fd5b9150918315600014610ac9575060008052601b6020527f584f46c60af19681376031579adb04a2416e54ee5505351c2a8435e3766026ea54479080821115610ac057610a7991613a46565b81116109de57600080808084885af1610a90613e2f565b5015610aae57600091600080516020615897833981519152916109b7565b6040516331d436c760e01b8152600490fd5b50506000610a79565b909183600052601b6020526040600020604051906370a0823160e01b8252306004830152602082602481895afa918215610a2257600092610b49575b505480821115610b4057610b1891613a46565b83116109de5782610b3b6000946000805160206158978339815191529487614726565b6109b7565b50506000610b18565b9091506020813d602011610b75575b81610b656020938361367b565b8101031261037857519087610b05565b3d9150610b58565b6040516365e52d5160e11b8152600490fd5b6001600160a01b03163314159050856108ec565b503330146108f2576040516327568d2f60e11b8152600490fd5b3461037857602036600319011261037857600435601554811015610c2d57600052601660205260c06040600020601981015490601a81015490601e810154601c82015490601b601584015493015493604051958652602086015260408501526060840152608083015260a0820152f35b604051631dc0650160e31b8152600490fd5b346103785760403660031901126103785760248035801515916004359183810361037857336000526020916010835260ff91826040600020541615610f5257601554851015610c2d5784600052601684526040600020918360045460a01c1680610f20575b6103f25760148301938454421015610f0e573360005260108652604060002092601b85019384548015600014610ee95750610ce990601e870154601588015491614d6b565b610ed7575b6017850133600052808852826040600020541660188701808a528460406000205416928a526040600020600160ff198254161790558952610d3f8360406000209060ff801983541691151516179055565b610e66575015610e4e576012840180549060018201809211610e3957555b601d840154161580610e30575b610da6575b5050505060405192835242908301527fcbdf6214089cba887ecbf35a0b6a734589959c9763342c756bb2a80ca2bc9f6e60403393a3005b6019830154908115159182610dea575b5050610dc3575b80610d6f565b42905543601c820155601a601154910155610de0600e5442613a26565b9055838080610dbd565b601285015461271080820294509192918115918504141715610e1c5750610e1390600d54613a33565b11158780610db6565b634e487b7160e01b60009081526011600452fd5b50815415610d6a565b83634e487b7160e01b60005260116004526000fd5b6013840180549060018201809211610e395755610d5d565b90508881151503610e78575b50610d5d565b15610eab57601284018054600019810191908211610e3957556013840180549060018201809211610e3957555b88610e72565b601384018054600019810191908211610e3957556012840180549060018201809211610e395755610ea5565b60405163f078ca7360e01b8152600490fd5b601c870154610ef792614d6b565b15610cee5760405163f078ca7360e01b8152600490fd5b604051637a19ed0560e01b8152600490fd5b5083600184015460a01c16600a811015610f3d5760051415610ca4565b50634e487b7160e01b60009081526021600452fd5b60405163148fe22160e11b8152600490fd5b3461037857602036600319011261037857600435601554811015610c2d576000526016602052604060002060ff601d8201541660001461104f5760148101544210158061103e575b905b61103a60018060a01b036001830154169261102c60128401549360138101549560148201549360ff601684015416610ff46006610fed60058701613750565b9501613750565b95604051998a99610100958b5260208b015260408a0152606089015215156080880152151560a08701528060c08701528501906137f3565b9083820360e08501526137f3565b0390f35b506012810154601382015410610fac565b601b81015480156110f15760198201549081159182156110a7575b50600e5461107791613a26565b421015908161109f575b508061108e575b90610fae565b506012810154601382015410611088565b905082611081565b9091506012830154612710908181029181830414901517156110db576110d261107792600d54613a33565b1115919061106a565b634e487b7160e01b600052601160045260246000fd5b50600090610fae565b346103785760003660031901126103785733600052601060205260ff6040600020541615610f525761112a613f9a565b61113333613f37565b8015611208578061114960075460145490613a46565b106111f65760135433600052601060205260036040600020015560126020526040600020611178828254613a26565b905561118681600754613a46565b6007556111bd81337f00000000000000000000000000000000000000000000000000000000000000006001600160a01b0316614726565b6040519081524260208201527f1c643327a899ca112a3300de75dd241ef8452e4f603609b53a20332da48b54e660403392a26001600055005b60405163bc6072f160e01b8152600490fd5b6040516373380d9960e01b8152600490fd5b34610378576000366003190112610378576040516370a0823160e01b81523060048201527f00000000000000000000000000000000000000000000000000000000000000006001600160a01b0316602082602481845afa8015610a2257600090611319575b600754610140935090818082111561130f5761129a91613a46565b905b600554916112a8613c7a565b916001549160025493600354956040519788526020880152600060408801526060870152608086015260a085015260c084015260e08301526101008201527f0000000000000000000000000000000000000000000000000000000000000000610120820152f35b505060009061129c565b506020823d602011611345575b816113336020938361367b565b8101031261037857610140915161127f565b3d9150611326565b34610378576000366003190112610378576040516370a0823160e01b81523060048201526001600160a01b036020826024817f000000000000000000000000000000000000000000000000000000000000000085165afa908115610a225760009161140d575b60075460609350918280821115611403576113cd91613a46565b915b60405192835260208301527f0000000000000000000000000000000000000000000000000000000000000000166040820152f35b50506000916113cf565b90506020823d60201161143a575b816114286020938361367b565b810103126103785760609151906113b3565b3d915061141b565b34610378576020366003190112610378576004356001600160401b03811161037857611472903690600401613899565b60045460ff8160a01c166000146114bb573033141590816114a7575b506104655761001a916114a2913691613994565b614b07565b6001600160a01b031633141590508361148e565b5030330361049c5761001a916114a2916106f0565b34610378576000366003190112610378576004546040516001600160a01b039091168152602090f35b346103785760e036600319011261037857611512613840565b61151a613856565b6001600160401b03906064358281116103785761153b9036906004016139cb565b9160a43581811161037857611554903690600401613899565b60c4358381116103785761156c903690600401613899565b909260ff60045460a01c166103f2576007936103b861159092611599953691613994565b906084356141c0565b6001808201805460ff60a01b1916600160a11b1790556002820180546001600160a01b03199081166001600160a01b039a8b16179091556003830180549091169890961697909717909455604435600485015584519093919091019181116116c0576020946116128261160c8554613626565b85613c24565b8590601f831160011461165a5750819061164593949560009261164f575b50508160011b916000199060031b1c19161790565b9055604051908152f35b015190508680611630565b90601f198316958460005281600020926000905b8882106116a957505083600195969710611690575b505050811b0190556103ea565b015160001960f88460031b161c19169055858080611683565b82840151855593840193928901929089019061166e565b634e487b7160e01b600052604160045260246000fd5b346103785760003660031901126103785760ff600854166108795730331461086757611700613f9a565b610860333361477f565b346103785760003660031901126103785761103a61172661369c565b6040519182916020835260208301906137f3565b61387b565b34610378576000366003190112610378576020600354604051908152f35b346103785760203660031901126103785760206103ea600435613e89565b346103785760203660031901126103785761179461386c565b60045460ff8160a01c169182600014611818573033141580611805575b610465575b151580921515146106055760ff60a01b191660a082901b60ff60a01b16176004556040519081527fa8adfe89c6bc95edbe7049ed316f0473a03af92b1fd027ce1ac670082467c62390602090a1005b50336001600160a01b03831614156117b1565b3330146117b6576040516327568d2f60e11b8152600490fd5b34610378576020366003190112610378576001600160a01b03611852613840565b1660005260126020526020604060002054604051908152f35b346103785760203660031901126103785760206103ea611889613840565b613e5f565b3461037857600036600319011261037857602060405162278d008152f35b34610378576000366003190112610378576020601454604051908152f35b34610378576020366003190112610378576001600160a01b036118eb613840565b166000526010602052602060ff604060002054166040519015158152f35b346103785760208060031936011261037857611923613840565b90336000526010815260ff6040600020541615610f5257611942613f9a565b6001600160a01b0382811691907f0000000000000000000000000000000000000000000000000000000000000000168214611a575781600052601b815260406000209260ff600385015416156112085761199c9033613a53565b9283156112085780548481106111f657846119d491600184015433600052601e86526040600020876000528652604060002055613a46565b905581611a2557600080808086335af16119ec613e2f565b5015610aae577f26cd6ba06f6dc02c61247f710e95c768f4856af03b740594288907c36bb217e9905b6040519384523393a36001600055005b7f26cd6ba06f6dc02c61247f710e95c768f4856af03b740594288907c36bb217e990611a52843385614726565b611a15565b604051631c49f4d160e01b8152600490fd5b34610378576000366003190112610378576020601154604051908152f35b34610378576060366003190112610378576004356003811015610378576024356044359160045460ff8160a01c16600014611bb257303314159081611b9e575b50610465575b8215611b7b57801580611b95575b611b7b576002811480611b8d575b611b7b57604051611af981613660565b611b03828261471a565b6020810193838552604082019181835251916003831015611b65577f715b42020a9e5afec6d7d52b6af5b5d5700d17eea68f26a5e4896e940f7f677495611b4c611b6094613b1b565b51600b5551600c556040519384938461395c565b0390a1005b634e487b7160e01b600052602160045260246000fd5b604051635682e36760e11b8152600490fd5b508115611ae9565b50811515611adb565b6001600160a01b0316331415905084611ac7565b50333014611acd576040516327568d2f60e11b8152600490fd5b3461037857604036600319011261037857611c02611bee602435600435613c98565b604051928392604084526040840190613928565b90151560208301520390f35b346103785760203660031901126103785760043560045460ff8160a01c16600014611cbd57303314159081611ca9575b50610465575b6011548115159081611c9f575b50611c8d576020817fb63bcc75a862434e97db3146b78681478a2692253df1de5623d497ee61fac79992600955604051908152a161001a61534f565b604051633161e99d60e11b8152600490fd5b9050811082611c51565b6001600160a01b0316331415905082611c3e565b50333014611c44576040516327568d2f60e11b8152600490fd5b346103785760003660031901126103785760ff600a5416600b549061103a600c546040519384938461395c565b3461037857602036600319011261037857611d1d613840565b60045460ff8160a01c16600014611da2573033141580611d8f575b610465575b6001600160a01b0391821691821561056357811690818314611a57576001600160a01b03191682176004557f0f3a6964a8ba1b7473a14630b029eae6d49bec6babf098223718bacaac7197cc600080a3005b50336001600160a01b0382161415611d38565b333014611d3d576040516327568d2f60e11b8152600490fd5b346103785760003660031901126103785760206103ea613c7a565b3461037857600036600319011261037857602060ff600854166040519015158152f35b34610378576080366003190112610378576001600160401b0360043581811161037857611e2a903690600401613899565b909160443581811161037857611e44903690600401613899565b9060643583811161037857611e5d903690600401613899565b919060ff60045460a01c166103f2576103b8611e7e92611e87953691613994565b906024356141c0565b6001818101805460ff60a01b1916600760a01b17905591936010919091019290919082116116c057611ebd8261160c8554613626565b600090601f8311600114611efc5750908061164592602096600092611ef15750508160011b916000199060031b1c19161790565b013590508680611630565b90601f198316846000526020926020600020936000915b838310611f53575050509583929160019460209810611f3957505050811b0190556103ea565b0135600019600384901b60f8161c19169055858080611683565b898501358655948501949381019391810191611f13565b34610378576000366003190112610378576040517f00000000000000000000000000000000000000000000000000000000000000006001600160a01b03168152602090f35b34610378576000366003190112610378576020600e54604051908152f35b34610378576020366003190112610378576001600160a01b03611fee613840565b1660005260176020526020604060002054604051908152f35b34610378576020366003190112610378576001600160a01b03612028613840565b16600052601b6020526040600020805461103a60026001840154930154604051938493846040919493926060820195825260208201520152565b34610378576000366003190112610378576020601354604051908152f35b34610378576000366003190112610378576040517f00000000000000000000000000000000000000000000000000000000000000006001600160a01b03168152602090f35b34610378576080366003190112610378576001600160401b03600435604435828111610378576120f9903690600401613899565b91909260643590811161037857612114903690600401613899565b60ff60049492945460a01c166103f2578215158061216a575b611c8d57611e7e6011946103b8602097612148953691613994565b60018101805460ff60a01b1916600360a11b1790559290920155604051908152f35b50601154831061212d565b34610378576000366003190112610378576020600754604051908152f35b34610378576020366003190112610378576001600160a01b036121b4613840565b1660005260106020526060604060002060ff815416906002600182015491015490604051921515835260208301526040820152f35b3461037857602036600319011261037857612202613840565b6001600160a01b03818116907f0000000000000000000000000000000000000000000000000000000000000000168114611a5757600052601b60205260406000209060038201805460ff811615611a575783541580159061228c575b61227a5760006002858261001a9755015560ff19169055614619565b60405163dda495d160e01b8152600490fd5b506002840154151561225e565b34610378576000366003190112610378576019546122b681613b4b565b9060009060005b81811061230f5750506122cf81613b4b565b9160005b8281106122f0576040516020808252819061103a90820187613928565b806122fd60019284613c10565b516123088287613c10565b52016122d3565b8061231b600192613b7d565b90549060031b1c8060005260166020526123394260406000206145fb565b612345575b50016122bd565b61235861235186613c01565b9587613c10565b528561233e565b346103785761236d366138c6565b909493919260ff60045460a01c166103f2576020956103b86103c092612394963691613994565b60018101805460ff60a01b1916600360a01b1790556002810180546001600160a01b0319166001600160a01b0394851617905560045491929091339116146123e0575b50604051908152f35b601d01805460ff19166001179055826123d7565b346103785760c0366003190112610378576004356003811015610378576001600160401b039060443560243560843584811161037857612438903690600401613899565b91909460a43590811161037857612453903690600401613899565b60ff60049492945460a01c166103f2578415611b7b578515806124e3575b611b7b5760028614806124db575b611b7b5761249a600f946103b86020996124a3953691613994565b906064356141c0565b91909460018301600160a31b60ff60a01b19825416179055600d83019060ff80198354169116179055600e8201550155604051908152f35b50821561247f565b50821515612471565b3461037857604036600319011261037857600435612508613856565b601554821015610c2d576040916000526016602052816000209060018060a01b031660005260178101602052601860ff836000205416910160205260ff8260002054168251911515825215156020820152f35b34610378576000366003190112610378576020600654604051908152f35b346103785760203660031901126103785761259261386c565b60045460ff8160a01c166000146125f4573033141590816125e0575b50610465576020600080516020615837833981519152915b151560ff196008541660ff821617600855604051908152a1005b6001600160a01b03163314159050826125ae565b5030330361049c576020600080516020615837833981519152916125c6565b346103785760403660031901126103785760206103ea612631613840565b612639613856565b90613a53565b346103785760003660031901126103785760405180601c5480835260208093018091601c6000527f0e4562a10381dec21b205ed72637e6b1b523bdd0e4d4d50af5cd23dd4500a2119060005b868282106126ea5786866126a18288038361367b565b604051928392818401908285525180915260408401929160005b8281106126ca57505050500390f35b83516001600160a01b0316855286955093810193928101926001016126bb565b83546001600160a01b03168552909301926001928301920161268b565b346103785760c036600319011261037857612720613840565b6024356044358015158103610378576064356084359160a4359360045460ff8160a01c166000146128be573033141590816128aa575b50610465575b6001600160a01b03958616801515908161287d575b5061286b5780612852575b50612815575b837fa00a4448d1c98b3edafbf488446a8320c2cb278ba20dd49c7b5d41a7ebfd582b60a060055492600154600254600354916040519687526020870152604086015260608501527f000000000000000000000000000000000000000000000000000000000000000060808501527f00000000000000000000000000000000000000000000000000000000000000001692a2005b6128417f0000000000000000000000000000000000000000000000000000000000000000848484614db6565b600155600255600355818080612782565b600a81106107ab57600a8106610799576005558561277c565b60405163b078ee9d60e01b8152600490fd5b9050867f000000000000000000000000000000000000000000000000000000000000000016141587612771565b6001600160a01b0316331415905087612756565b5033301461275c576040516327568d2f60e11b8152600490fd5b346103785760208060031936011261037857600435906128f6613f9a565b601554821015610c2d57816000526016815260406000209160ff600454908060a092831c16806131ee575b6103f257601d850194818654168080916131e1575b6131cf571561314c575b601681019586549383851661313a57601283015460138401541015613128576001978860ff19809716179055878301918460018060a01b03938481541660005260188a52816040600020541680613116575b6130f7575b54831c16600a811015611b655780612a0f575050505084600080516020615837833981519152612a0a968695856000805160206158778339815191529660086060970154161515916008541690821617600855604051908152a15b604080519188835282015260006040820152a2613fbd565b600055005b92955090939291888103612bae575084600283015416926009830154915460081c16600a83015491600c600b850154940154948015159081612b81575b5061286b5780612b48575b5060008051602061587783398151915294606094612a0a99948998947fa00a4448d1c98b3edafbf488446a8320c2cb278ba20dd49c7b5d41a7ebfd582b94612b0c575b505050600554928a5460025460035491604051968752878701526040860152868501527f000000000000000000000000000000000000000000000000000000000000000060808501527f00000000000000000000000000000000000000000000000000000000000000001692a26129f2565b612b387f0000000000000000000000000000000000000000000000000000000000000000848484614db6565b8c556002556003558a8080612a9a565b90939792959194600a82106107ab57600a8206610799576005919091559196909491939092600080516020615877833981519152612a57565b9050877f00000000000000000000000000000000000000000000000000000000000000001614158b612a4c565b9050600281979492959714600014612e395750505083600283015416938060038401541691612be4600760048601549501613750565b918315610563578415610b7d577f00000000000000000000000000000000000000000000000000000000000000001692868403612cf6576040516370a0823160e01b81523060048201528281602481885afa908115610a2257600091612cc9575b50600754808211156109de57612c5a91613a46565b85116109de57612a0a968660008051602061589783398151915260609588612ca6849a876000805160206158778339815191529b6109af600654808511156000146109d8578490613a46565b612cc1604051928392835260408984015260408301906137f3565b0390a46129f2565b90508281813d8311612cef575b612ce0818361367b565b81010312610378575189612c45565b503d612cd6565b959391925083612d775760008052601b81526040600020479054808211600014612d6e57612d2391613a46565b82116109de576000808080858a5af1612d3a613e2f565b5015610aae57612a0a9585948560008051602061589783398151915260008051602061587783398151915296606096612ca6565b50506000612d23565b83600052601b81526040600020604051906370a0823160e01b82523060048301528282602481895afa918215610a2257600092612e0a575b505480821115612e0157612dc291613a46565b82116109de578584866000805160206158978339815191526000805160206158778339815191529686612dfc606098612a0a9d869c614726565b612ca6565b50506000612dc2565b9091508281813d8311612e32575b612e22818361367b565b8101031261037857519089612daf565b503d612e18565b9295939260038103612e73575050506060612a0a94612e6e858095600260008051602061587783398151915296015416615129565b6129f2565b92939260048103612ef657505050600381920154169081156105635760045490811690818314611a5757612a0a94836000805160206158778339815191529386956060946bffffffffffffffffffffffff60a01b16176004557f0f3a6964a8ba1b7473a14630b029eae6d49bec6babf098223718bacaac7197cc600080a36129f2565b9192509060058103612f7f575090601f819301541691600454921515809184841c161515146106055760ff60a01b199092169082901b60ff60a01b1617600455604051908152612a0a928291600080516020615877833981519152916060917fa8adfe89c6bc95edbe7049ed316f0473a03af92b1fd027ce1ac670082467c623908290a16129f2565b905060068103612ff7575050601101546011548115159081612fed575b50611c8d576000805160206158778339815191526060847fb63bcc75a862434e97db3146b78681478a2692253df1de5623d497ee61fac799612a0a96858796600955604051908152a1612e6e61534f565b9050811085612f9c565b600781036130265750506000805160206158778339815191526060612a0a94612e6e6114a26010879601613750565b600803611a5757600d8201541692600f600e830154920154908115611b7b576003851015611b65578415806130ee575b611b7b5760028514806130e6575b611b7b576040519061307582613660565b61307f868361471a565b808201848152604083019284845251946003861015611b6557612a0a976130de600080516020615877833981519152966060967f715b42020a9e5afec6d7d52b6af5b5d5700d17eea68f26a5e4896e940f7f677495611b4c8c9b613b1b565b0390a16129f2565b508215613064565b50821515613056565b60188a52604060002088815416905560178a5260006040812055612997565b5060178a528860406000205414612992565b60405163c8c93ba360e01b8152600490fd5b604051630dc1019760e01b8152600490fd5b601b810154801561317f57600e5461316391613a26565b42106131bd5760198101548015159081613191575b5015612940575b60405163aa26a69360e01b8152600490fd5b6012830154612710808202935081159184041417156110db576131b690600d54613a33565b1187613178565b60405163a905056160e01b8152600490fd5b604051633fc30bd160e11b8152600490fd5b5060148201544210612936565b50806001860154831c16600a811015611b655760051415612921565b34610378576020366003190112610378576001600160a01b0361322b613840565b1660005260106020526080604060002060ff8154169060018101549060036002820154910154916040519315158452602084015260408301526060820152f35b34610378576000366003190112610378576020600554604051908152f35b34610378576000366003190112610378576020600254604051908152f35b34610378576000366003190112610378576020600154604051908152f35b346103785760203660031901126103785760048035600090815260166020526040902061038081905280546101205260018101546103205260028101546001600160a01b039081166103c05260038201541661014052908101546103a05261332f90600501613750565b6102805261334260066103805101613750565b6103405261335560076103805101613750565b6103605260ff600861038051015416610300526009610380510154600a61038051015490600b61038051015491600c61038051015460ff600d6103805101541690600e6103805101546102a052600f6103805101546102c0526133bd60106103805101613750565b6102e052610380516011810154610100526012810154608052601381015460c052601481015461026052601581015461024052601681015460ff90811661022052601982015461020052601a8201546101e052601b8201546101c052601c8201546101a052601d82015461018052601e82015461016052601f90910154811660e05260405160a081815261012051909152610320805182516001600160a01b039091166020919091015251600a911c9091161015611b6557613566946135389360ff6103205160a01c16604060a05101526103c051606060a051015261014051608060a05101526103a05160a08051015261040060c060a05101526134fc6134e66134d161040060a05101610280516137f3565b60a051810360e060a0510152610340516137f3565b60a051810361010060a0510152610360516137f3565b9561030051151561012060a051015261014060a051015261016060a051015261018060a05101526101a060a05101526101c060a0510190613833565b6102a0516101e060a05101526102c05161020060a051015260a051810361022060a05101526102e0516137f3565b6101005161024060a051015260805161026060a051015260c05161028060a0510152610260516102a060a0510152610240516102c060a05101526102205115156102e060a05101526102005161030060a05101526101e05161032060a05101526101c05161034060a05101526101a05161036060a051015260ff6101805116151561038060a051015260ff6101805160081c1615156103a060a0510152610160516103c060a051015260e05115156103e060a051015260a051900360a051f35b90600182811c92168015613656575b602083101461364057565b634e487b7160e01b600052602260045260246000fd5b91607f1691613635565b606081019081106001600160401b038211176116c057604052565b90601f801991011681019081106001600160401b038211176116c057604052565b60405190600082600f54916136b083613626565b8083529260209060019081811690811561372c57506001146136dd575b50506136db9250038361367b565b565b915092600f6000526000805160206158b7833981519152936000925b82841061371457506136db94505050810160200138806136cd565b855488850183015294850194879450928101926136f9565b915050602092506136db94915060ff191682840152151560051b82010138806136cd565b9060405191826000825461376381613626565b908184526020946001916001811690816000146137d15750600114613792575b5050506136db9250038361367b565b600090815285812095935091905b8183106137b95750506136db9350820101388080613783565b855488840185015294850194879450918301916137a0565b925050506136db94925060ff191682840152151560051b820101388080613783565b919082519283825260005b84811061381f575050826000602080949584010152601f8019910116010190565b6020818301810151848301820152016137fe565b906003821015611b655752565b600435906001600160a01b038216820361037857565b602435906001600160a01b038216820361037857565b60043590811515820361037857565b3461037857600036600319011261037857602060405162093a808152f35b9181601f84011215610378578235916001600160401b038311610378576020838186019501011161037857565b6080600319820112610378576004356001600160a01b03811681036103785791602435916001600160401b0391604435838111610378578261390a91600401613899565b939093926064359182116103785761392491600401613899565b9091565b90815180825260208080930193019160005b828110613948575050505090565b83518552938101939281019260010161393a565b604091949392613970826060810197613833565b60208201520152565b6001600160401b0381116116c057601f01601f191660200190565b9291926139a082613979565b916139ae604051938461367b565b829481845281830111610378578281602093846000960137010152565b9080601f83011215610378578160206139e693359101613994565b90565b60806003198201126103785760043580151581036103785791602435916001600160401b0391604435838111610378578261390a91600401613899565b919082018092116110db57565b818102929181159184041417156110db57565b919082039182116110db57565b60018060a01b0380911690600092828452601060205260ff60408520541615613b15578116907f0000000000000000000000000000000000000000000000000000000000000000168114613b0857808352601b602052604083209060ff60038301541615613b15578284526010602052613ad5604085206001840154936140d5565b928452601e60205260408420908452602052604083205491808310613b0d575b5081811115613b08576139e69250613a46565b505090565b915038613af5565b50505090565b6003811015611b655760ff8019600a5416911617600a55565b6001600160401b0381116116c05760051b60200190565b90613b5582613b34565b613b62604051918261367b565b8281528092613b73601f1991613b34565b0190602036910137565b601954811015613bb45760196000527f944998273e477b495144fb8794c914197f3ccb46be2900f4698fd0ef743c96950190600090565b634e487b7160e01b600052603260045260246000fd5b601c54811015613bb457601c6000527f0e4562a10381dec21b205ed72637e6b1b523bdd0e4d4d50af5cd23dd4500a2110190600090565b60001981146110db5760010190565b8051821015613bb45760209160051b010190565b90601f8111613c3257505050565b6000916000526020600020906020601f850160051c83019410613c70575b601f0160051c01915b828110613c6557505050565b818155600101613c59565b9092508290613c50565b6011548015613c925760001981019081116110db5790565b50600090565b919080158015613e25575b613e13576019549160009360005b848110613dcc575084811015613d9c57613cca83613b4b565b916000958694875b8888821080613d93575b15613d46575080613cef613d3b92613b7d565b90549060031b1c806000526016602052613d0d4260406000206145fb565b15613d405786613d1c8a613c01565b9910613d4057613d35613d2e8c613c01565b9b89613c10565b52613c01565b613cd2565b50613c01565b9397505050929350613d5791613a26565b1092613d6281613b4b565b9160005b828110613d74575050509190565b80613d8160019284613c10565b51613d8c8287613c10565b5201613d66565b50828110613cdc565b5092505050604051602081018181106001600160401b038211176116c05760405260008152600036813790600090565b613dd581613b7d565b90549060031b1c6000526016602052613df24260406000206145fb565b613dff575b600101613cb1565b94613e0b600191613c01565b959050613df7565b6040516381f396b760e01b8152600490fd5b5060648111613ca3565b3d15613e5a573d90613e4082613979565b91613e4e604051938461367b565b82523d6000602084013e565b606090565b6001600160a01b031660009081526010602052604090205460ff1615613e8457600190565b600090565b906000906000908315613f3057601993601954908115613f275793905b80151580613f1e575b15613f02576000198101908111613f0a57613ec990613b7d565b90549060031b1c8084526016602052613ee542604086206145fb565b613f025790613ef6613efb92613fbd565b613c01565b8454613ea6565b509350915050565b634e487b7160e01b84526011600452602484fd5b50848210613eaf565b50509250905090565b9250905090565b6001600160a01b03166000908152601060205260409020805460ff1615613c92576003601354910154808211600014613f73576139e691613a46565b5050600090565b8115613f84570690565b634e487b7160e01b600052601260045260246000fd5b600260005414613fab576002600055565b604051633ee5aeb560e01b8152600490fd5b600090808252601a602052604082205480156140b457600019908082018181116140a05760195483810190811161408c57808203614040575b505050601954801561402c5781019061400e82613b7d565b909182549160031b1b191690556019558152601a6020526040812055565b634e487b7160e01b84526031600452602484fd5b61405f9161405061407892613b7d565b90549060031b1c928391613b7d565b90919082549060031b91821b91600019901b1916179055565b8452601a6020526040842055388080613ff6565b634e487b7160e01b86526011600452602486fd5b634e487b7160e01b85526011600452602485fd5b505050565b8054821015613bb45760005260206000209060011b0190600090565b9060048083019182549384156141b457506002810154600180920154906000955b8087106141265750505050508115613f735760001982019182116110db57600191614120916140b9565b50015490565b6141308188613a26565b841c9061413d82886140b9565b50546001600160401b03908181168086101561415c57505050506140f6565b92999285111561418e5750505083810180911161417957956140f6565b601185634e487b7160e01b6000525260246000fd5b91989160401c168410156141a257506140f6565b965083810180911161417957956140f6565b60010154949350505050565b9192909260009233845260206010815260409160ff8387205416156145ea573386526018825260ff838720541661457a575b80614574575062093a80955b62093a8087106145635762278d008711614552576015549261421f84613c01565b60155583978488526016845281882097858955614258600192838b01336bffffffffffffffffffffffff60a01b82541617905542613a26565b9160148a019283554260158b015560058a018551906001600160401b039182811161453e576142918161428b8454613626565b84613c24565b88601f82116001146144e15790806142be9287916144d6575b508160011b916000199060031b1c19161790565b90555b885160068c0191811161441e576142dc8161428b8454613626565b87601f821160011461447757908061430892869161446c57508160011b916000199060031b1c19161790565b90555b43601e8b015560168a019060ff199182815416905533835260178b018752848320818382541617905560188b01875284832081838254161790558060128c01558260138c01556011548060198d0155601b8c01848155601d8d0184815416905581151580614455575b614432575b5050601954600160401b81101561441e57857f0a3d356d942a35213f2f2e42f5c07221391ae9a4f16edaa23278b9f8068be7729897969461440a94846143cd8d61405f876144199c99839901601955613b7d565b601954858452601a8c528484205533835260188b5283832091825416179055601789522055549360608351968796875286015260608501906137f3565b908382039084015233966137f3565b0390a3565b634e487b7160e01b84526041600452602484fd5b42905543601c8d0155601a8c015561444c600e5442613a26565b84553880614379565b5061446282600d54613a33565b6127101015614374565b90508b0151386142aa565b828552888520849291601f198316878c8f5b8383106144bf5750505083116144a6575b5050811b01905561430b565b8c015160001960f88460031b161c19169055388061449a565b840151855588969094019392830192018c8f614489565b9050890151386142aa565b828652898620859291601f198316885b8d8d838310614529575050508311614510575b5050811b0190556142c1565b8a015160001960f88460031b161c191690553880614504565b840151855589969094019392830192016144f1565b634e487b7160e01b85526041600452602485fd5b825163eeeb962360e01b8152600490fd5b82516331806aeb60e21b8152600490fd5b956141fe565b6017829695949396528585205485526016825285852060ff6016820154161590816145dc575b50156145b757855163792c310960e11b8152600490fd5b94919293943386526018825282862060ff1981541690556017825285838120556141f2565b6014915001544210386145a0565b825163148fe22160e11b8152600490fd5b90601482015411908161460c575090565b60ff915060160154161590565b6001600160a01b039081166000818152601d60205260408120549092908015614714576000199080820181811161408c57601c5490838201918211614700579081818693036146ad575b50505050601c54801561469957019061467b82613bca565b909182549160031b1b19169055601c558152601d6020526040812055565b634e487b7160e01b85526031600452602485fd5b6146cd926146bd6146eb93613bca565b90549060031b1c16928391613bca565b90919060018060a01b038084549260031b9316831b921b1916179055565b8552601d602052604085205538828180614663565b634e487b7160e01b87526011600452602487fd5b50505050565b6003821015611b655752565b60405163a9059cbb60e01b60208201526001600160a01b03909216602483015260448083019390935291815260808101916001600160401b038311828410176116c0576136db926040526153ab565b8115613f84570490565b6001600160a01b039182169182156105635782600052601060205260406000209060ff825416614af557601154926009548015159081614aea575b50614ad85783614acb575b6147ce846154a9565b936147db60015486615587565b906147e860035487615587565b6148127f000000000000000000000000000000000000000000000000000000000000000088615587565b9161482a8361482584614825888d613a46565b613a46565b966148358389613a26565b6040516370a0823160e01b815287891660048201526020816024817f00000000000000000000000000000000000000000000000000000000000000008d165afa8015610a22578b91600091614a96575b5010614a8457600160ff1983541617825542600183015543600283015560018301918284116110db576149599260115583614a4e575b60036013549101556148cf89600654613a26565b6006556148de84600754613a26565b60075561492f867f0000000000000000000000000000000000000000000000000000000000000000898b7f00000000000000000000000000000000000000000000000000000000000000001661569f565b3087897f00000000000000000000000000000000000000000000000000000000000000001661569f565b6149a7837f000000000000000000000000000000000000000000000000000000000000000087897f00000000000000000000000000000000000000000000000000000000000000001661569f565b80614a11575090610100949392917f1e609b99246f156bec3eb747e01ae03549c74e403e03208c30200ec52f26ade0966000935b604051998a5260208a01526040890152606088015260808701524260a08701524360c087015260e08601521692a36136db61534f565b600019810195949392919086116110db577f1e609b99246f156bec3eb747e01ae03549c74e403e03208c30200ec52f26ade09661010096936149db565b614a7c614a5d60145487613a26565b614a7186614a6b8184614775565b92613f7a565b601455601354613a26565b6013556148bb565b604051631e9acf1760e31b8152600490fd5b9150506020813d602011614ac3575b81614ab26020938361367b565b81010312610378578a905138614885565b3d9150614aa5565b614ad3615407565b6147c5565b6040516382b675f560e01b8152600490fd5b9050841015386147ba565b604051636826b7b960e11b8152600490fd5b604051600091600f8054614b1a81613626565b80855260209485810191816001988986168981600014614d505750600114614d05575b614b499250038261367b565b51902083518585012014614cfe57614b5f61369c565b948351916001600160401b0383116116c057614b7a90613626565b601f8111614caa575b508490601f8311600114614c12575092614c0292614bde83614bf597947f71e57b89fe30fe66cb93427236f86ec18c6ec404e26b5c0914ee88193dd07da59997600091614c0757508160011b916000199060031b1c19161790565b90555b6040519485946040865260408601906137f3565b91848303908501526137f3565b0390a1565b9050840151386142aa565b9190601f19821690846000526000805160206158b78339815191529160005b818110614c95575092614c029592614bf5989592827f71e57b89fe30fe66cb93427236f86ec18c6ec404e26b5c0914ee88193dd07da59b999610614c7c575b5050811b019055614be1565b85015160001960f88460031b161c191690553880614c70565b87830151845592850192918801918801614c31565b836000526000805160206158b7833981519152601f840160051c810191878510614cf4575b601f0160051c019082905b828110614ce8575050614b83565b60008155018290614cda565b9091508190614ccf565b5050505050565b50508460005281876000805160206158b78339815191528a6000915b858310614d37575050614b499350820101614b3d565b80919294505483858801015201910188908a8593614d21565b915050614b499260ff1987168652151560051b820101614b3d565b91908015614dae576002830154818111614da557149182614d97575b5050614d9257600090565b600190565b600101541190503880614d87565b50505050600190565b505050600090565b614dd092614dcb6127109593614dcb93613a26565b613a26565b03614dd757565b60405163542c8df360e11b8152600490fd5b601154908115615117576001600160a01b0381811692907f000000000000000000000000000000000000000000000000000000000000000016838114614fff5750600083614f89575047915b83600052601b602052604092836000209081549081811115614f785790614e5b91613a46565b9185600052601b60205260038560002001805460ff811615614efb575b5050509061441982600095614e9e84600080516020615857833981519152979654613a26565b8255614ee06002830192614ec7614eb6855488613a26565b97614ec1818a614775565b98613f7a565b809460018301614ed88a8254613a26565b90555561577e565b51938493846040919493926060820195825260208201520152565b610100601c96959496541015614f675760ff19166001179055601c5493600160401b8510156116c057600095614f4d614419936146cd8860016000805160206158578339815191529a01601c55613bca565b601c54888852601d60205281882055958193949550614e78565b8651636ff5066b60e11b8152600490fd5b8551631ab9ebab60e01b8152600490fd5b6040516370a0823160e01b8152306004820152602081602481885afa918215614ff3578092614fbb575b505091614e35565b9091506020823d602011614feb575b81614fd76020938361367b565b81010312614fe85750513880614fb3565b80fd5b3d9150614fca565b604051903d90823e3d90fd5b6040516370a0823160e01b8152306004820152919250602090829060249082905afa908115610a22576000916150e5575b5060075491828211156150d3578261507d61505c60009560008051602061585783398151915295613a46565b80926150756006548084111589146109d8578390613a46565b600655613a26565b6007556144196150a361509260145484613a26565b9361509d8186614775565b94613f7a565b6150af84601354613a26565b60135580601455604051938493846040919493926060820195825260208201520152565b604051631ab9ebab60e01b8152600490fd5b90506020813d60201161510f575b816151006020938361367b565b81010312610378575138615030565b3d91506150f3565b604051630292d7c360e51b8152600490fd5b90601154918215615117576001600160a01b0381811693907f0000000000000000000000000000000000000000000000000000000000000000168481146152a95750600084615242575047915b84600052601b602052604092836000209081549081811115614f78579061519c91613a46565b9186600052601b60205260038560002001805460ff8116156151db575b5050508060008051602061585783398151915294614e9e846144199454613a26565b610100601c949394541015614f675760ff19166001179055601c5494600160401b8610156116c057615229614419936146cd8860016000805160206158578339815191529a01601c55613bca565b601c5488600052601d60205281600020559481926151b9565b6040516370a0823160e01b8152306004820152602081602481895afa918215614ff3578092615274575b505091615176565b9091506020823d6020116152a1575b816152906020938361367b565b81010312614fe8575051388061526c565b3d9150615283565b6040516370a0823160e01b81523060048201529250602090839060249082905afa918215610a225760009261531b575b50600754808311156150d35761507d6153018260008051602061585783398151915295613a46565b8092615075600654808411156000146109d8578390613a46565b9091506020813d602011615347575b816153376020938361367b565b81010312610378575190386152d9565b3d915061532a565b600954801515908161539e575b5080615391575b61536957565b600160ff196008541617600855600080516020615837833981519152602060405160018152a1565b5060ff6008541615615363565b905060115410153861535c565b906000602091828151910182855af115610a22576000513d6153fe57506001600160a01b0381163b155b6153dc5750565b604051635274afe760e01b81526001600160a01b039091166004820152602490fd5b600114156153d5565b60115480156154a657601c54906000805b8381106154255750505050565b80615431600192613bca565b838060a01b0391549060031b1c168352601b602052836040842060028101805490811561549d576154628483614775565b9182156154935761548d9461547691613f7a565b9055615486858301918254613a26565b905561577e565b01615418565b505050505061548d565b5050505061548d565b50565b90604051916154b783613660565b6154c660ff600a54168461471a565b600b549060208401918252600c546040850190815284516003811015611b65571561557d578451946003861015611b6557600180961461556057516003811015611b655760021461552357604051635682e36760e11b8152600490fd5b93909351915182946000915b81831061554757505050506139e69192600554615602565b90919261555685838399615602565b969301919061552f565b50906139e69394506155759251915191615602565b600554613a26565b5050600554925050565b90600019818309818302918280831092039180830392146155f75761271090828211156155e4577fbc01a36e2eb1c432ca57a786c226809d495182a9930be0ded288ce703afb7e91940990828211900360fc1b910360041c170290565b634e487b7160005260116020526024601cfd5b505061271091500490565b909160001983830992808302928380861095039480860395146156925784831115615679579082910981600003821680920460028082600302188083028203028083028203028083028203028083028203028083028203028092029003029360018380600003040190848311900302920304170290565b82634e487b71600052156003026011186020526024601cfd5b5050906139e69250614775565b6040516323b872dd60e01b60208201526001600160a01b03928316602482015292909116604483015260648083019390935291815260a08101918183106001600160401b038411176116c0576136db926040526153ab565b8054600160401b8110156116c057615714916001820181556140b9565b919091615768578051825460208301516fffffffffffffffffffffffffffffffff199091166001600160401b039290921691909117604091821b67ffffffffffffffff60401b161783556001910151910155565b634e487b7160e01b600052600060045260246000fd5b6001600160401b036001820154906040519261579984613660565b8143168452600460208501918342168352604086019485520193845480156158285760001981019081116110db576157d190866140b9565b50948386541684835116146000146158195750505183546fffffffffffffffff00000000000000001916911660401b67ffffffffffffffff60401b1617825560019051910155565b92509250506136db92506156f7565b50925050506136db916156f756fec2542ff58c47f8c0922a043c4b21423ecd816167eeab1dabfb51d56508d90a66f502c7eda43df8a8ec352065360db3486f90ce32849cf8182983d7939bfd3626af8f9d0e884d3306a083e846741a0bc4d75908e2b0ec63b558219652ae4c1b90d81f085560db5c809c425a15f00e3f2904e4fa46d6e8672ff2e671ccd6d9a2318d1108e10bcb7c27dddfc02ed9d693a074039d026cf4ea4240b40f7d581ac802a264697066735822122028f2c956acdd9bb7fa1af4deda0ff60d15e0cb91d66b98c56e6e3f9a6c32a88d64736f6c634300081700338d1108e10bcb7c27dddfc02ed9d693a074039d026cf4ea4240b40f7d581ac802",
  "linkReferences": {},
  "deployedLinkReferences": {}
}