{
  "_format": "hh-sol-artifact-1",
  "contractName": "TEMPL",
  "sourceName": "contracts/TEMPL.sol",
  "abi": [
    {
      "inputs": [
        {
          "internalType": "address",
          "name": "_priest",
          "type": "address"
        },
        {
          "internalType": "address",
          "name": "_protocolFeeRecipient",
          "type": "address"
        },
        {
          "internalType": "address",
          "name": "_token",
          "type": "address"
        },
        {
          "internalType": "uint256",
          "name": "_entryFee",
          "type": "uint256"
        }
      ],
      "stateMutability": "nonpayable",
      "type": "constructor"
    },
    {
      "inputs": [],
      "name": "ActiveProposalExists",
      "type": "error"
    },
    {
      "inputs": [],
      "name": "AlreadyExecuted",
      "type": "error"
    },
    {
      "inputs": [],
      "name": "AlreadyPurchased",
      "type": "error"
    },
    {
      "inputs": [],
      "name": "AmountZero",
      "type": "error"
    },
    {
      "inputs": [],
      "name": "ContractPausedError",
      "type": "error"
    },
    {
      "inputs": [],
      "name": "EntryFeeTooSmall",
      "type": "error"
    },
    {
      "inputs": [],
      "name": "ExecutionDelayActive",
      "type": "error"
    },
    {
      "inputs": [],
      "name": "InsufficientBalance",
      "type": "error"
    },
    {
      "inputs": [],
      "name": "InsufficientPoolBalance",
      "type": "error"
    },
    {
      "inputs": [],
      "name": "InsufficientTreasuryBalance",
      "type": "error"
    },
    {
      "inputs": [],
      "name": "InvalidCallData",
      "type": "error"
    },
    {
      "inputs": [],
      "name": "InvalidEntryFee",
      "type": "error"
    },
    {
      "inputs": [],
      "name": "InvalidProposal",
      "type": "error"
    },
    {
      "inputs": [],
      "name": "InvalidRecipient",
      "type": "error"
    },
    {
      "inputs": [],
      "name": "InvalidSender",
      "type": "error"
    },
    {
      "inputs": [],
      "name": "JoinedAfterProposal",
      "type": "error"
    },
    {
      "inputs": [],
      "name": "LimitOutOfRange",
      "type": "error"
    },
    {
      "inputs": [],
      "name": "NoMembers",
      "type": "error"
    },
    {
      "inputs": [],
      "name": "NoRewardsToClaim",
      "type": "error"
    },
    {
      "inputs": [],
      "name": "NoTreasuryFunds",
      "type": "error"
    },
    {
      "inputs": [],
      "name": "NotDAO",
      "type": "error"
    },
    {
      "inputs": [],
      "name": "NotMember",
      "type": "error"
    },
    {
      "inputs": [],
      "name": "ProposalExecutionFailed",
      "type": "error"
    },
    {
      "inputs": [],
      "name": "ProposalNotPassed",
      "type": "error"
    },
    {
      "inputs": [],
      "name": "QuorumNotReached",
      "type": "error"
    },
    {
      "inputs": [],
      "name": "ReentrancyGuardReentrantCall",
      "type": "error"
    },
    {
      "inputs": [
        {
          "internalType": "address",
          "name": "token",
          "type": "address"
        }
      ],
      "name": "SafeERC20FailedOperation",
      "type": "error"
    },
    {
      "inputs": [],
      "name": "TokenChangeDisabled",
      "type": "error"
    },
    {
      "inputs": [],
      "name": "VotingEnded",
      "type": "error"
    },
    {
      "inputs": [],
      "name": "VotingNotEnded",
      "type": "error"
    },
    {
      "inputs": [],
      "name": "VotingPeriodTooLong",
      "type": "error"
    },
    {
      "inputs": [],
      "name": "VotingPeriodTooShort",
      "type": "error"
    },
    {
      "anonymous": false,
      "inputs": [
        {
          "indexed": true,
          "internalType": "address",
          "name": "purchaser",
          "type": "address"
        },
        {
          "indexed": false,
          "internalType": "uint256",
          "name": "totalAmount",
          "type": "uint256"
        },
        {
          "indexed": false,
          "internalType": "uint256",
          "name": "burnedAmount",
          "type": "uint256"
        },
        {
          "indexed": false,
          "internalType": "uint256",
          "name": "treasuryAmount",
          "type": "uint256"
        },
        {
          "indexed": false,
          "internalType": "uint256",
          "name": "memberPoolAmount",
          "type": "uint256"
        },
        {
          "indexed": false,
          "internalType": "uint256",
          "name": "protocolAmount",
          "type": "uint256"
        },
        {
          "indexed": false,
          "internalType": "uint256",
          "name": "timestamp",
          "type": "uint256"
        },
        {
          "indexed": false,
          "internalType": "uint256",
          "name": "blockNumber",
          "type": "uint256"
        },
        {
          "indexed": false,
          "internalType": "uint256",
          "name": "purchaseId",
          "type": "uint256"
        }
      ],
      "name": "AccessPurchased",
      "type": "event"
    },
    {
      "anonymous": false,
      "inputs": [
        {
          "indexed": true,
          "internalType": "address",
          "name": "token",
          "type": "address"
        },
        {
          "indexed": false,
          "internalType": "uint256",
          "name": "entryFee",
          "type": "uint256"
        }
      ],
      "name": "ConfigUpdated",
      "type": "event"
    },
    {
      "anonymous": false,
      "inputs": [
        {
          "indexed": false,
          "internalType": "bool",
          "name": "isPaused",
          "type": "bool"
        }
      ],
      "name": "ContractPaused",
      "type": "event"
    },
    {
      "anonymous": false,
      "inputs": [
        {
          "indexed": true,
          "internalType": "address",
          "name": "member",
          "type": "address"
        },
        {
          "indexed": false,
          "internalType": "uint256",
          "name": "amount",
          "type": "uint256"
        },
        {
          "indexed": false,
          "internalType": "uint256",
          "name": "timestamp",
          "type": "uint256"
        }
      ],
      "name": "MemberPoolClaimed",
      "type": "event"
    },
    {
      "anonymous": false,
      "inputs": [
        {
          "indexed": true,
          "internalType": "address",
          "name": "oldPriest",
          "type": "address"
        },
        {
          "indexed": true,
          "internalType": "address",
          "name": "newPriest",
          "type": "address"
        }
      ],
      "name": "PriestChanged",
      "type": "event"
    },
    {
      "anonymous": false,
      "inputs": [
        {
          "indexed": true,
          "internalType": "uint256",
          "name": "proposalId",
          "type": "uint256"
        },
        {
          "indexed": true,
          "internalType": "address",
          "name": "proposer",
          "type": "address"
        },
        {
          "indexed": false,
          "internalType": "uint256",
          "name": "endTime",
          "type": "uint256"
        }
      ],
      "name": "ProposalCreated",
      "type": "event"
    },
    {
      "anonymous": false,
      "inputs": [
        {
          "indexed": true,
          "internalType": "uint256",
          "name": "proposalId",
          "type": "uint256"
        },
        {
          "indexed": false,
          "internalType": "bool",
          "name": "success",
          "type": "bool"
        },
        {
          "indexed": false,
          "internalType": "bytes",
          "name": "returnData",
          "type": "bytes"
        }
      ],
      "name": "ProposalExecuted",
      "type": "event"
    },
    {
      "anonymous": false,
      "inputs": [
        {
          "indexed": true,
          "internalType": "uint256",
          "name": "proposalId",
          "type": "uint256"
        },
        {
          "indexed": true,
          "internalType": "address",
          "name": "token",
          "type": "address"
        },
        {
          "indexed": true,
          "internalType": "address",
          "name": "recipient",
          "type": "address"
        },
        {
          "indexed": false,
          "internalType": "uint256",
          "name": "amount",
          "type": "uint256"
        },
        {
          "indexed": false,
          "internalType": "string",
          "name": "description",
          "type": "string"
        }
      ],
      "name": "TreasuryAction",
      "type": "event"
    },
    {
      "anonymous": false,
      "inputs": [
        {
          "indexed": true,
          "internalType": "uint256",
          "name": "proposalId",
          "type": "uint256"
        },
        {
          "indexed": false,
          "internalType": "uint256",
          "name": "amount",
          "type": "uint256"
        },
        {
          "indexed": false,
          "internalType": "uint256",
          "name": "perMember",
          "type": "uint256"
        },
        {
          "indexed": false,
          "internalType": "uint256",
          "name": "remainder",
          "type": "uint256"
        }
      ],
      "name": "TreasuryDisbanded",
      "type": "event"
    },
    {
      "anonymous": false,
      "inputs": [
        {
          "indexed": true,
          "internalType": "uint256",
          "name": "proposalId",
          "type": "uint256"
        },
        {
          "indexed": true,
          "internalType": "address",
          "name": "voter",
          "type": "address"
        },
        {
          "indexed": false,
          "internalType": "bool",
          "name": "support",
          "type": "bool"
        },
        {
          "indexed": false,
          "internalType": "uint256",
          "name": "timestamp",
          "type": "uint256"
        }
      ],
      "name": "VoteCast",
      "type": "event"
    },
    {
      "inputs": [],
      "name": "DEFAULT_VOTING_PERIOD",
      "outputs": [
        {
          "internalType": "uint256",
          "name": "",
          "type": "uint256"
        }
      ],
      "stateMutability": "view",
      "type": "function"
    },
    {
      "inputs": [],
      "name": "MAX_VOTING_PERIOD",
      "outputs": [
        {
          "internalType": "uint256",
          "name": "",
          "type": "uint256"
        }
      ],
      "stateMutability": "view",
      "type": "function"
    },
    {
      "inputs": [],
      "name": "MIN_VOTING_PERIOD",
      "outputs": [
        {
          "internalType": "uint256",
          "name": "",
          "type": "uint256"
        }
      ],
      "stateMutability": "view",
      "type": "function"
    },
    {
      "inputs": [],
      "name": "accessToken",
      "outputs": [
        {
          "internalType": "address",
          "name": "",
          "type": "address"
        }
      ],
      "stateMutability": "view",
      "type": "function"
    },
    {
      "inputs": [
        {
          "internalType": "address",
          "name": "",
          "type": "address"
        }
      ],
      "name": "activeProposalId",
      "outputs": [
        {
          "internalType": "uint256",
          "name": "",
          "type": "uint256"
        }
      ],
      "stateMutability": "view",
      "type": "function"
    },
    {
      "inputs": [
        {
          "internalType": "address",
          "name": "newPriest",
          "type": "address"
        }
      ],
      "name": "changePriestDAO",
      "outputs": [],
      "stateMutability": "nonpayable",
      "type": "function"
    },
    {
      "inputs": [],
      "name": "claimMemberPool",
      "outputs": [],
      "stateMutability": "nonpayable",
      "type": "function"
    },
    {
      "inputs": [
        {
          "internalType": "address",
          "name": "_newPriest",
          "type": "address"
        },
        {
          "internalType": "uint256",
          "name": "_votingPeriod",
          "type": "uint256"
        }
      ],
      "name": "createProposalChangePriest",
      "outputs": [
        {
          "internalType": "uint256",
          "name": "",
          "type": "uint256"
        }
      ],
      "stateMutability": "nonpayable",
      "type": "function"
    },
    {
      "inputs": [
        {
          "internalType": "uint256",
          "name": "_votingPeriod",
          "type": "uint256"
        }
      ],
      "name": "createProposalDisbandTreasury",
      "outputs": [
        {
          "internalType": "uint256",
          "name": "",
          "type": "uint256"
        }
      ],
      "stateMutability": "nonpayable",
      "type": "function"
    },
    {
      "inputs": [
        {
          "internalType": "address",
          "name": "_token",
          "type": "address"
        },
        {
          "internalType": "uint256",
          "name": "_votingPeriod",
          "type": "uint256"
        }
      ],
      "name": "createProposalDisbandTreasury",
      "outputs": [
        {
          "internalType": "uint256",
          "name": "",
          "type": "uint256"
        }
      ],
      "stateMutability": "nonpayable",
      "type": "function"
    },
    {
      "inputs": [
        {
          "internalType": "bool",
          "name": "_paused",
          "type": "bool"
        },
        {
          "internalType": "uint256",
          "name": "_votingPeriod",
          "type": "uint256"
        }
      ],
      "name": "createProposalSetPaused",
      "outputs": [
        {
          "internalType": "uint256",
          "name": "",
          "type": "uint256"
        }
      ],
      "stateMutability": "nonpayable",
      "type": "function"
    },
    {
      "inputs": [
        {
          "internalType": "uint256",
          "name": "_newEntryFee",
          "type": "uint256"
        },
        {
          "internalType": "uint256",
          "name": "_votingPeriod",
          "type": "uint256"
        }
      ],
      "name": "createProposalUpdateConfig",
      "outputs": [
        {
          "internalType": "uint256",
          "name": "",
          "type": "uint256"
        }
      ],
      "stateMutability": "nonpayable",
      "type": "function"
    },
    {
      "inputs": [
        {
          "internalType": "address",
          "name": "_token",
          "type": "address"
        },
        {
          "internalType": "address",
          "name": "_recipient",
          "type": "address"
        },
        {
          "internalType": "uint256",
          "name": "_amount",
          "type": "uint256"
        },
        {
          "internalType": "string",
          "name": "_reason",
          "type": "string"
        },
        {
          "internalType": "uint256",
          "name": "_votingPeriod",
          "type": "uint256"
        }
      ],
      "name": "createProposalWithdrawTreasury",
      "outputs": [
        {
          "internalType": "uint256",
          "name": "",
          "type": "uint256"
        }
      ],
      "stateMutability": "nonpayable",
      "type": "function"
    },
    {
      "inputs": [],
      "name": "cumulativeMemberRewards",
      "outputs": [
        {
          "internalType": "uint256",
          "name": "",
          "type": "uint256"
        }
      ],
      "stateMutability": "view",
      "type": "function"
    },
    {
      "inputs": [],
      "name": "disbandTreasuryDAO",
      "outputs": [],
      "stateMutability": "nonpayable",
      "type": "function"
    },
    {
      "inputs": [
        {
          "internalType": "address",
          "name": "token",
          "type": "address"
        }
      ],
      "name": "disbandTreasuryDAO",
      "outputs": [],
      "stateMutability": "nonpayable",
      "type": "function"
    },
    {
      "inputs": [],
      "name": "entryFee",
      "outputs": [
        {
          "internalType": "uint256",
          "name": "",
          "type": "uint256"
        }
      ],
      "stateMutability": "view",
      "type": "function"
    },
    {
      "inputs": [
        {
          "internalType": "uint256",
          "name": "_proposalId",
          "type": "uint256"
        }
      ],
      "name": "executeProposal",
      "outputs": [],
      "stateMutability": "nonpayable",
      "type": "function"
    },
    {
      "inputs": [],
      "name": "executionDelayAfterQuorum",
      "outputs": [
        {
          "internalType": "uint256",
          "name": "",
          "type": "uint256"
        }
      ],
      "stateMutability": "view",
      "type": "function"
    },
    {
      "inputs": [],
      "name": "getActiveProposals",
      "outputs": [
        {
          "internalType": "uint256[]",
          "name": "",
          "type": "uint256[]"
        }
      ],
      "stateMutability": "view",
      "type": "function"
    },
    {
      "inputs": [
        {
          "internalType": "uint256",
          "name": "offset",
          "type": "uint256"
        },
        {
          "internalType": "uint256",
          "name": "limit",
          "type": "uint256"
        }
      ],
      "name": "getActiveProposalsPaginated",
      "outputs": [
        {
          "internalType": "uint256[]",
          "name": "proposalIds",
          "type": "uint256[]"
        },
        {
          "internalType": "bool",
          "name": "hasMore",
          "type": "bool"
        }
      ],
      "stateMutability": "view",
      "type": "function"
    },
    {
      "inputs": [
        {
          "internalType": "address",
          "name": "member",
          "type": "address"
        }
      ],
      "name": "getClaimablePoolAmount",
      "outputs": [
        {
          "internalType": "uint256",
          "name": "",
          "type": "uint256"
        }
      ],
      "stateMutability": "view",
      "type": "function"
    },
    {
      "inputs": [],
      "name": "getConfig",
      "outputs": [
        {
          "internalType": "address",
          "name": "token",
          "type": "address"
        },
        {
          "internalType": "uint256",
          "name": "fee",
          "type": "uint256"
        },
        {
          "internalType": "bool",
          "name": "isPaused",
          "type": "bool"
        },
        {
          "internalType": "uint256",
          "name": "purchases",
          "type": "uint256"
        },
        {
          "internalType": "uint256",
          "name": "treasury",
          "type": "uint256"
        },
        {
          "internalType": "uint256",
          "name": "pool",
          "type": "uint256"
        }
      ],
      "stateMutability": "view",
      "type": "function"
    },
    {
      "inputs": [],
      "name": "getMemberCount",
      "outputs": [
        {
          "internalType": "uint256",
          "name": "",
          "type": "uint256"
        }
      ],
      "stateMutability": "view",
      "type": "function"
    },
    {
      "inputs": [
        {
          "internalType": "uint256",
          "name": "_proposalId",
          "type": "uint256"
        }
      ],
      "name": "getProposal",
      "outputs": [
        {
          "internalType": "address",
          "name": "proposer",
          "type": "address"
        },
        {
          "internalType": "uint256",
          "name": "yesVotes",
          "type": "uint256"
        },
        {
          "internalType": "uint256",
          "name": "noVotes",
          "type": "uint256"
        },
        {
          "internalType": "uint256",
          "name": "endTime",
          "type": "uint256"
        },
        {
          "internalType": "bool",
          "name": "executed",
          "type": "bool"
        },
        {
          "internalType": "bool",
          "name": "passed",
          "type": "bool"
        }
      ],
      "stateMutability": "view",
      "type": "function"
    },
    {
      "inputs": [
        {
          "internalType": "address",
          "name": "user",
          "type": "address"
        }
      ],
      "name": "getPurchaseDetails",
      "outputs": [
        {
          "internalType": "bool",
          "name": "purchased",
          "type": "bool"
        },
        {
          "internalType": "uint256",
          "name": "timestamp",
          "type": "uint256"
        },
        {
          "internalType": "uint256",
          "name": "blockNum",
          "type": "uint256"
        }
      ],
      "stateMutability": "view",
      "type": "function"
    },
    {
      "inputs": [],
      "name": "getTreasuryInfo",
      "outputs": [
        {
          "internalType": "uint256",
          "name": "treasury",
          "type": "uint256"
        },
        {
          "internalType": "uint256",
          "name": "memberPool",
          "type": "uint256"
        },
        {
          "internalType": "uint256",
          "name": "totalReceived",
          "type": "uint256"
        },
        {
          "internalType": "uint256",
          "name": "totalBurnedAmount",
          "type": "uint256"
        },
        {
          "internalType": "uint256",
          "name": "totalProtocolFees",
          "type": "uint256"
        },
        {
          "internalType": "address",
          "name": "protocolAddress",
          "type": "address"
        }
      ],
      "stateMutability": "view",
      "type": "function"
    },
    {
      "inputs": [
        {
          "internalType": "address",
          "name": "voter",
          "type": "address"
        }
      ],
      "name": "getVoteWeight",
      "outputs": [
        {
          "internalType": "uint256",
          "name": "",
          "type": "uint256"
        }
      ],
      "stateMutability": "view",
      "type": "function"
    },
    {
      "inputs": [
        {
          "internalType": "address",
          "name": "user",
          "type": "address"
        }
      ],
      "name": "hasAccess",
      "outputs": [
        {
          "internalType": "bool",
          "name": "",
          "type": "bool"
        }
      ],
      "stateMutability": "view",
      "type": "function"
    },
    {
      "inputs": [
        {
          "internalType": "address",
          "name": "",
          "type": "address"
        }
      ],
      "name": "hasActiveProposal",
      "outputs": [
        {
          "internalType": "bool",
          "name": "",
          "type": "bool"
        }
      ],
      "stateMutability": "view",
      "type": "function"
    },
    {
      "inputs": [
        {
          "internalType": "uint256",
          "name": "_proposalId",
          "type": "uint256"
        },
        {
          "internalType": "address",
          "name": "_voter",
          "type": "address"
        }
      ],
      "name": "hasVoted",
      "outputs": [
        {
          "internalType": "bool",
          "name": "voted",
          "type": "bool"
        },
        {
          "internalType": "bool",
          "name": "support",
          "type": "bool"
        }
      ],
      "stateMutability": "view",
      "type": "function"
    },
    {
      "inputs": [
        {
          "internalType": "uint256",
          "name": "",
          "type": "uint256"
        }
      ],
      "name": "memberList",
      "outputs": [
        {
          "internalType": "address",
          "name": "",
          "type": "address"
        }
      ],
      "stateMutability": "view",
      "type": "function"
    },
    {
      "inputs": [],
      "name": "memberPoolBalance",
      "outputs": [
        {
          "internalType": "uint256",
          "name": "",
          "type": "uint256"
        }
      ],
      "stateMutability": "view",
      "type": "function"
    },
    {
      "inputs": [
        {
          "internalType": "address",
          "name": "",
          "type": "address"
        }
      ],
      "name": "memberPoolClaims",
      "outputs": [
        {
          "internalType": "uint256",
          "name": "",
          "type": "uint256"
        }
      ],
      "stateMutability": "view",
      "type": "function"
    },
    {
      "inputs": [],
      "name": "memberRewardRemainder",
      "outputs": [
        {
          "internalType": "uint256",
          "name": "",
          "type": "uint256"
        }
      ],
      "stateMutability": "view",
      "type": "function"
    },
    {
      "inputs": [
        {
          "internalType": "address",
          "name": "",
          "type": "address"
        }
      ],
      "name": "members",
      "outputs": [
        {
          "internalType": "bool",
          "name": "purchased",
          "type": "bool"
        },
        {
          "internalType": "uint256",
          "name": "timestamp",
          "type": "uint256"
        },
        {
          "internalType": "uint256",
          "name": "block",
          "type": "uint256"
        },
        {
          "internalType": "uint256",
          "name": "rewardSnapshot",
          "type": "uint256"
        }
      ],
      "stateMutability": "view",
      "type": "function"
    },
    {
      "inputs": [],
      "name": "paused",
      "outputs": [
        {
          "internalType": "bool",
          "name": "",
          "type": "bool"
        }
      ],
      "stateMutability": "view",
      "type": "function"
    },
    {
      "inputs": [],
      "name": "priest",
      "outputs": [
        {
          "internalType": "address",
          "name": "",
          "type": "address"
        }
      ],
      "stateMutability": "view",
      "type": "function"
    },
    {
      "inputs": [],
      "name": "proposalCount",
      "outputs": [
        {
          "internalType": "uint256",
          "name": "",
          "type": "uint256"
        }
      ],
      "stateMutability": "view",
      "type": "function"
    },
    {
      "inputs": [
        {
          "internalType": "uint256",
          "name": "",
          "type": "uint256"
        }
      ],
      "name": "proposals",
      "outputs": [
        {
          "internalType": "uint256",
          "name": "id",
          "type": "uint256"
        },
        {
          "internalType": "address",
          "name": "proposer",
          "type": "address"
        },
        {
          "internalType": "enum TEMPL.Action",
          "name": "action",
          "type": "uint8"
        },
        {
          "internalType": "address",
          "name": "token",
          "type": "address"
        },
        {
          "internalType": "address",
          "name": "recipient",
          "type": "address"
        },
        {
          "internalType": "uint256",
          "name": "amount",
          "type": "uint256"
        },
        {
          "internalType": "string",
          "name": "reason",
          "type": "string"
        },
        {
          "internalType": "bool",
          "name": "paused",
          "type": "bool"
        },
        {
          "internalType": "uint256",
          "name": "newEntryFee",
          "type": "uint256"
        },
        {
          "internalType": "uint256",
          "name": "yesVotes",
          "type": "uint256"
        },
        {
          "internalType": "uint256",
          "name": "noVotes",
          "type": "uint256"
        },
        {
          "internalType": "uint256",
          "name": "endTime",
          "type": "uint256"
        },
        {
          "internalType": "uint256",
          "name": "createdAt",
          "type": "uint256"
        },
        {
          "internalType": "bool",
          "name": "executed",
          "type": "bool"
        },
        {
          "internalType": "uint256",
          "name": "eligibleVoters",
          "type": "uint256"
        },
        {
          "internalType": "uint256",
          "name": "quorumReachedAt",
          "type": "uint256"
        },
        {
          "internalType": "bool",
          "name": "quorumExempt",
          "type": "bool"
        }
      ],
      "stateMutability": "view",
      "type": "function"
    },
    {
      "inputs": [],
      "name": "protocolFeeRecipient",
      "outputs": [
        {
          "internalType": "address",
          "name": "",
          "type": "address"
        }
      ],
      "stateMutability": "view",
      "type": "function"
    },
    {
      "inputs": [],
      "name": "purchaseAccess",
      "outputs": [],
      "stateMutability": "nonpayable",
      "type": "function"
    },
    {
      "inputs": [],
      "name": "quorumPercent",
      "outputs": [
        {
          "internalType": "uint256",
          "name": "",
          "type": "uint256"
        }
      ],
      "stateMutability": "view",
      "type": "function"
    },
    {
      "inputs": [
        {
          "internalType": "bool",
          "name": "_paused",
          "type": "bool"
        }
      ],
      "name": "setPausedDAO",
      "outputs": [],
      "stateMutability": "nonpayable",
      "type": "function"
    },
    {
      "inputs": [],
      "name": "totalBurned",
      "outputs": [
        {
          "internalType": "uint256",
          "name": "",
          "type": "uint256"
        }
      ],
      "stateMutability": "view",
      "type": "function"
    },
    {
      "inputs": [],
      "name": "totalPurchases",
      "outputs": [
        {
          "internalType": "uint256",
          "name": "",
          "type": "uint256"
        }
      ],
      "stateMutability": "view",
      "type": "function"
    },
    {
      "inputs": [],
      "name": "totalToMemberPool",
      "outputs": [
        {
          "internalType": "uint256",
          "name": "",
          "type": "uint256"
        }
      ],
      "stateMutability": "view",
      "type": "function"
    },
    {
      "inputs": [],
      "name": "totalToProtocol",
      "outputs": [
        {
          "internalType": "uint256",
          "name": "",
          "type": "uint256"
        }
      ],
      "stateMutability": "view",
      "type": "function"
    },
    {
      "inputs": [],
      "name": "totalToTreasury",
      "outputs": [
        {
          "internalType": "uint256",
          "name": "",
          "type": "uint256"
        }
      ],
      "stateMutability": "view",
      "type": "function"
    },
    {
      "inputs": [],
      "name": "treasuryBalance",
      "outputs": [
        {
          "internalType": "uint256",
          "name": "",
          "type": "uint256"
        }
      ],
      "stateMutability": "view",
      "type": "function"
    },
    {
      "inputs": [
        {
          "internalType": "address",
          "name": "_token",
          "type": "address"
        },
        {
          "internalType": "uint256",
          "name": "_entryFee",
          "type": "uint256"
        }
      ],
      "name": "updateConfigDAO",
      "outputs": [],
      "stateMutability": "nonpayable",
      "type": "function"
    },
    {
      "inputs": [
        {
          "internalType": "uint256",
          "name": "_proposalId",
          "type": "uint256"
        },
        {
          "internalType": "bool",
          "name": "_support",
          "type": "bool"
        }
      ],
      "name": "vote",
      "outputs": [],
      "stateMutability": "nonpayable",
      "type": "function"
    },
    {
      "inputs": [
        {
          "internalType": "address",
          "name": "token",
          "type": "address"
        },
        {
          "internalType": "address",
          "name": "recipient",
          "type": "address"
        },
        {
          "internalType": "uint256",
          "name": "amount",
          "type": "uint256"
        },
        {
          "internalType": "string",
          "name": "reason",
          "type": "string"
        }
      ],
      "name": "withdrawTreasuryDAO",
      "outputs": [],
      "stateMutability": "nonpayable",
      "type": "function"
    },
    {
      "stateMutability": "payable",
      "type": "receive"
    }
  ],
  "bytecode": "0x60c034620001c757601f620031b938819003918201601f191683019291906001600160401b03841183851017620001cc578160809284926040968752833981010312620001c7576200005181620001e2565b906200006060208201620001e2565b60606200006f858401620001e2565b9201516001600055602160065562093a80600755926001600160a01b03908116908115908115620001bb575b8115620001af575b506200019e5783156200018d57600a84106200017c57600a84066200016b57600180546001600160a01b03191691909117905560805260a0526002556005805460ff1916905551612fc19081620001f88239608051818181610f37015281816112f201526116c6015260a05181818161036701528181610449015281816105a801528181610dc901528181610ec4015281816111750152818161182c01528181611b1801528181611cdc01528181611f16015281816129c801528181612b7c0152612bf40152f35b8451636fe6a4c960e01b8152600490fd5b8451635eee050360e11b8152600490fd5b84516365e52d5160e11b8152600490fd5b8451634e46966960e11b8152600490fd5b905083161538620000a3565b8381161591506200009b565b600080fd5b634e487b7160e01b600052604160045260246000fd5b51906001600160a01b0382168203620001c75756fe60a060405260048036101561001d575b50361561001b57600080fd5b005b60003560e01c908163013cf08b146121fe578163072ea61c146121e057816308ae4b0c1461217f5781630d61b51914611b6e5781631808022a14611b4b578163215809ca146110425781632833788614611afb578163313dab2014611add57816332f974b314611a4c57816343859632146119cb578163524ddc231461199e5781635584c4f9146118cf5781635962a941146118b157816359c266ff146118935781635c975abb146118705781635daae9d5146117d05781635fa7ddf0146117b3578163640c4fa21461174b57816364653f29146116f557816364df049e146116b0578163653724d6146116875781636898b19c146116695781636ad185501461162f5781637070ac481461161157816371e86b6a14611574578163840634c51461154b5781638f78bbc41461151157816395a078e8146114d2578163997072f7146114b457816399e288d8146110e0578163a51a46b9146110c2578163a64e024a146110a4578163a730117e14611081578163a81bbe3c14611047578163aedfe53f14611042578163b307fc6d14611002578163bdb75b3414610fe4578163bebc8fc014610fbb578163c1b57edb14610f9d578163c293947114610e90578163c3f909d414610da3578163c470dd9014610bb2578163c7f758a814610ac2578163c9d27afe14610808578163d402d4be14610540578163d89135cd14610522578163da35c66414610504578163dbb37a2e14610478578163e243c5fb14610433578163f2be51ea146103fa578163f7158b2a146102d357508063f81cbd26146102b55763ffafe4ad14610271573861000f565b346102b05760203660031901126102b0576001600160a01b036102926124ef565b166000526010602052602060ff604060002054166040519015158152f35b600080fd5b346102b05760003660031901126102b0576020600654604051908152f35b346102b05760003660031901126102b05733600052600860205260ff60406000205416156103eb57610303612921565b61030c33612672565b9081156103dc57816103228254600c5490612665565b106103cd57600b54336000526008602052600360406000200155600a6020526040600020610351838254612642565b905561035e828254612665565b905561039481337f00000000000000000000000000000000000000000000000000000000000000006001600160a01b0316612ea3565b6040519081524260208201527fc4e740509dbfae3377bc9925dd7bcc8aaba69cd730316216d76b2d24725c636660403392a26001600055005b60405163bc6072f160e01b8152fd5b6040516373380d9960e01b8152fd5b60405163148fe22160e11b8152fd5b346102b05760203660031901126102b0576104136124ef565b3033036104235761001b906129be565b506040516327568d2f60e11b8152fd5b346102b05760003660031901126102b0576040517f00000000000000000000000000000000000000000000000000000000000000006001600160a01b03168152602090f35b346102b0576104863661257c565b909133600052600860205260ff60406000205416156103eb57826104d5575b60206007846104b385612c5a565b60018101805460ff60a01b1916600160a01b1790559290920155604051908152f35b600a83106104f557600a8306156104a557604051636fe6a4c960e01b8152fd5b604051635eee050360e11b8152fd5b346102b05760003660031901126102b0576020600d54604051908152f35b346102b05760003660031901126102b0576020601254604051908152f35b346102b05760803660031901126102b0576105596124ef565b90610562612505565b60443560643567ffffffffffffffff81116102b05761058490369085016125fb565b913033036107f7576001600160a01b03818116959086156107e65783156107d557807f0000000000000000000000000000000000000000000000000000000000000000169116948186146000146106d9576040516370a0823160e01b81523082820152602081602481865afa9081156106cd5760009161069b575b508154908181111561068a579061061591612665565b841161067b5750916106548160009593600080516020612f6c8339815191529561064c600354808511158a14610675578490612665565b600355612ea3565b61067060405192839283526040602084015260408301906124af565b0390a4005b80612665565b604051631c7b597b60e11b8152fd5b604051631c7b597b60e11b81528390fd5b90506020813d6020116106c5575b816106b6602093836123e8565b810103126102b05751886105ff565b3d91506106a9565b6040513d6000823e3d90fd5b9190508461074d575047821161067b57600080808085895af13d15610748573d610702816125df565b9061071060405192836123e8565b8152600060203d92013e5b156107395750600091600080516020612f6c83398151915291610654565b6040516331d436c760e01b8152fd5b61071b565b906040516370a0823160e01b81523082820152602081602481895afa9081156106cd576000916107a3575b50831161067b5750918161079e600080516020612f6c8339815191529360009587612ea3565b610654565b90506020813d6020116107cd575b816107be602093836123e8565b810103126102b0575187610778565b3d91506107b1565b6040516365e52d5160e11b81528690fd5b604051634e46966960e11b81528690fd5b6040516327568d2f60e11b81528490fd5b346102b05760403660031901126102b05780356024918235801515938482036102b0573360005260089260209380855260ff6040600020541615610ab257600d54861015610aa25785600052600e8552604060002092600a8401948554421015610a91576011908186019060ff8254161580610a84575b610a59575b600d870133600052808a5260ff60406000205416600e8901808c5260ff60406000205416928c526040600020600160ff198254161790558b526108d78360406000209060ff801983541691151516179055565b6109e15750156109c657838601805490600182018092116109b2575560ff905b541615806109a6575b61093b575b88888860405192835242908301527fcbdf6214089cba887ecbf35a0b6a734589959c9763342c756bb2a80ca2bc9f6e60403393a3005b6009549283600f870155850154936064850294808604606414901517156109965750505061096b906006546128ba565b111561097b575b80808080610905565b60104291015561098d60075442612642565b90558380610972565b634e487b7160e01b600052526000fd5b50601085015415610900565b50505083634e487b7160e01b600052526000fd5b60098601805490600182018092116109b2575560ff906108f7565b90508a811515036109f6575b5060ff906108f7565b15610a2b5785840180546000198101919082116109b2575560098601805490600182018092116109b2575560ff905b906109ed565b6009860180546000198101919082116109b25755838601805490600182018092116109b2575560ff90610a25565b336000528489526001604060002001546010880154116108845760405163f078ca7360e01b81528690fd5b506010870154151561087f565b604051637a19ed0560e01b81528490fd5b50604051631dc0650160e31b8152fd5b5060405163148fe22160e11b8152fd5b346102b05760203660031901126102b057803590600d54821015610ba35750600052600e60205260c0604060002060ff601182015416600014610b6a57600a81015442101580610b59575b60018060a01b0360018301541691600881015490600981015460ff600c600a840154930154169260405195865260208601526040850152606084015215156080830152151560a0820152f35b506008810154600982015410610b0d565b60108101548015610b9b57600754610b8191612642565b4210158015610b0d57506008810154600982015410610b0d565b506000610b0d565b604051631dc0650160e31b8152fd5b346102b05760a03660031901126102b057610bcb6124ef565b90610bd4612505565b906064359267ffffffffffffffff938481116102b057610bf790369084016125fb565b93336000526020946008865260ff6040600020541615610d92576005610c1e608435612c5a565b9096600195868301600160a11b60ff60a01b198254161790556002830160018060a01b0390816bffffffffffffffffffffffff60a01b931683825416179055600384019216908254161790556044358682015501938151928311610d7d5750610c87845461237c565b601f8111610d34575b508590601f8311600114610cd157928293918392600094610cc6575b50501b916000199060031b1c19161790555b604051908152f35b015192508780610cac565b90601f198316918560005283886000209360005b8a88838310610d1d5750505010610d04575b505050811b019055610cbe565b015160001960f88460031b161c19169055858080610cf7565b868601518855909601959485019487935001610ce5565b8460005286600020601f840160051c810191888510610d73575b601f0160051c019084905b828110610d67575050610c90565b60008155018490610d59565b9091508190610d4e565b604190634e487b7160e01b6000525260246000fd5b60405163148fe22160e11b81528490fd5b346102b05760003660031901126102b0576040516370a0823160e01b81523082820152907f00000000000000000000000000000000000000000000000000000000000000006001600160a01b031690602083602481855afa9081156106cd57600091610e5b575b5460c09350908180821115610e5257610e2291612665565b60025460ff60055416601154916040519586526020860152151560408501526060840152608083015260a0820152f35b50506000610e22565b90506020833d602011610e88575b81610e76602093836123e8565b810103126102b05760c0925190610e0a565b3d9150610e69565b346102b05760003660031901126102b0576040516370a0823160e01b81523081830152906001600160a01b036020836024817f000000000000000000000000000000000000000000000000000000000000000085165afa9182156106cd57600092610f68575b5460c09350918280821115610f5e57610f0e91612665565b915b601354601254906015549260405195865260208601526040850152606084015260808301527f00000000000000000000000000000000000000000000000000000000000000001660a0820152f35b5050600091610f10565b91506020833d602011610f95575b81610f83602093836123e8565b810103126102b05760c0925191610ef6565b3d9150610f76565b346102b05760003660031901126102b0576020601354604051908152f35b346102b05760003660031901126102b0576001546040516001600160a01b039091168152602090f35b346102b05760003660031901126102b0576020601454604051908152f35b346102b05760203660031901126102b057356009548110156102b057611029602091612592565b905460405160039290921b1c6001600160a01b03168152f35b61251b565b346102b05760203660031901126102b0576001600160a01b036110686124ef565b16600052600a6020526020604060002054604051908152f35b346102b05760203660031901126102b0576020610cbe61109f6124ef565b6128f7565b346102b05760003660031901126102b057602060405162278d008152f35b346102b05760003660031901126102b0576020600c54604051908152f35b346102b05760003660031901126102b05760ff600554166114a5573033146114965761110a612921565b3360005260209060088252604060002091825460ff811661148557600254601e9283820291801593818404861485171561147057606480940493603c830295838704603c1481171561145b57600a840290848204600a14171561145b578190049660018060a01b03807f00000000000000000000000000000000000000000000000000000000000000001693604051956370a0823160e01b8752338c880152602496888189818a5afa9081156106cd5760009161142e575b501061141d5760019060ff1916178b554260018c01554360028c015560095468010000000000000000811015611409578060016112029201600955612592565b819291549060031b9133831b921b19161790556011996112228b54612708565b8b556009546001811161139a575b506003600b5491015560025481810291818304149015171561138757916112f08289936113199504986112658a600354612642565b6003556112738a8d54612642565b8c5561128189601254612642565b6012556112908a601354612642565b60135561129f8a601454612642565b6014556112ae85601554612642565b6015556112e76040516323b872dd60e01b8a820152338982015261dead60448201528a848201528381526112e1816123b6565b85612eef565b04303384612e5c565b7f0000000000000000000000000000000000000000000000000000000000000000903390612e5c565b60025496805496600019880197881161099657505050604051958652850152806040850152606084015260808301524260a08301524360c083015260e08201527fe6d1c0e418a42a777d49c66571075fc47bc1d92e7f506007ddde08d1ff182bbc6101003392a26001600055005b838a8a634e487b7160e01b600052526000fd5b600254838102908082048514901517156113f6576113bd9085600c549104612642565b9060001981019081116113f657906113e2826113dc6113ed94846128cd565b926128ed565b600c55600b54612642565b600b558b611230565b868d8d634e487b7160e01b600052526000fd5b8560418c634e487b7160e01b600052526000fd5b604051631e9acf1760e31b81528b90fd5b90508881813d8311611454575b61144581836123e8565b810103126102b057518e6111c2565b503d61143b565b601189634e487b7160e01b6000525260246000fd5b601187634e487b7160e01b6000525260246000fd5b604051630cd9ed5560e21b81528390fd5b604051636edaef2f60e11b8152fd5b604051630eceade960e31b8152fd5b346102b05760003660031901126102b0576020600954604051908152f35b346102b05760203660031901126102b0576001600160a01b036114f36124ef565b166000526008602052602060ff604060002054166040519015158152f35b346102b05761153f61152b6115253661257c565b9061272b565b604051928392604084526040840190612539565b90151560208301520390f35b346102b05760203660031901126102b0576115646124ef565b3033036104235761001b90612944565b346102b05760403660031901126102b05761158d6124ef565b33600052600860205260ff6040600020541615610ab2576020906115b2602435612c5a565b6001808201805460ff60a01b1916600360a01b1790556002820180546001600160a01b0319166001600160a01b039586161790555491929091339116146115fd575b50604051908152f35b601101805460ff19166001179055826115f4565b346102b05760003660031901126102b0576020600754604051908152f35b346102b05760203660031901126102b0576001600160a01b036116506124ef565b16600052600f6020526020604060002054604051908152f35b346102b05760003660031901126102b0576020600b54604051908152f35b346102b05760203660031901126102b0576116a061256d565b3033036104235761001b90612c1c565b346102b05760003660031901126102b0576040517f00000000000000000000000000000000000000000000000000000000000000006001600160a01b03168152602090f35b346102b05760203660031901126102b0576001600160a01b036117166124ef565b1660005260086020526060604060002060ff815416906002600182015491015490604051921515835260208301526040820152f35b346102b05760403660031901126102b05761176461256d565b9033600052600860205260ff60406000205416156103eb5760206006610cbe8461178f602435612c5a565b6001819592950160ff60a01b198154169055019060ff801983541691151516179055565b346102b05760003660031901126102b05760209054604051908152f35b346102b05760203660031901126102b05733600052600860205260ff60406000205416156103eb5761180460209135612c5a565b6001818101805460ff60a01b1916600360a01b1790556002820180546001600160a01b0319167f00000000000000000000000000000000000000000000000000000000000000006001600160a01b03908116919091179091559054339116146115fd5750604051908152f35b346102b05760003660031901126102b057602060ff600554166040519015158152f35b346102b05760003660031901126102b0576020601554604051908152f35b346102b05760003660031901126102b0576020601154604051908152f35b346102b05760003660031901126102b057600d546118ec816126d6565b9060009060005b818110611949575050611905816126d6565b9160005b82811061192a576040516020808252819061192690820187612539565b0390f35b8061193760019284612717565b516119428287612717565b5201611909565b80600191600052600e6020526040600020600a8101544210908161198e575b50611974575b016118f3565b8061198861198186612708565b9587612717565b5261196e565b60ff9150600c0154161586611968565b346102b05760403660031901126102b0576119b76124ef565b3033036104235761001b9060243590612b2b565b346102b05760403660031901126102b05780356119e6612505565b90600d54811015611a3b5760409250600052600e602052816000209060018060a01b0316600052600d8101602052600e60ff836000205416910160205260ff8260002054168251911515825215156020820152f35b604051631dc0650160e31b81528390fd5b346102b05760403660031901126102b057611a656124ef565b33600052600860205260ff6040600020541615610ab2576001600160a01b0316908115611ace576020600383611a9c602435612c5a565b60018101805460ff60a01b1916600160a21b1790559290920180546001600160a01b0319169091179055604051908152f35b604051634e46966960e11b8152fd5b346102b05760003660031901126102b0576020600354604051908152f35b346102b05760003660031901126102b057303303611b3c5761001b7f00000000000000000000000000000000000000000000000000000000000000006129be565b6040516327568d2f60e11b8152fd5b346102b05760203660031901126102b0576020610cbe611b696124ef565b612672565b346102b0576020806003193601126102b057813591611b8b612921565b600d54831015610ba35782600052600e825260406000209060ff60118301541660001461214257600a8201544210612133575b600c82019081549160ff83166121235760088401546009850154101561211357600160ff1980941617905560ff6001840160018060a01b03938482541660005260108752826040600020541680612101575b6120e1575b505460a01c1660058110156120cc5780611c6957505050600080516020612f4c83398151915291611c4e60ff6006606094015416612c1c565b60408051916001835282015260006040820152a26001600055005b60018103611ca057505091611c9b826007600080516020612f4c83398151915295600260609601541691015490612b2b565b611c4e565b90929060028103611f0757509080600283015416918160038201541693611ccd600582840154930161240a565b928515611ef7578215611ee7577f00000000000000000000000000000000000000000000000000000000000000001690848203611dde576040516370a0823160e01b815230828201528781602481865afa9081156106cd57600091611db1575b508154908181111561068a5790611d4391612665565b831161067b5750600080516020612f6c833981519152859383611d8e600080516020612f4c8339815191529997956060998c9661064c60035480851115600014610675578490612665565b611da9604051928392835260408984015260408301906124af565b0390a4611c4e565b90508781813d8311611dd7575b611dc881836123e8565b810103126102b0575189611d2d565b503d611dbe565b905083611e535747821161067b57600080808085895af13d15611e4e573d611e05816125df565b90611e1360405192836123e8565b81526000883d92013e5b1561073957509185600080516020612f6c83398151915260609593600080516020612f4c8339815191529795611d8e565b611e1d565b6040516370a0823160e01b815230828201528681602481885afa9081156106cd57600091611eba575b50821161067b57509185600080516020612f6c833981519152859385611eb5600080516020612f4c833981519152999760609987612ea3565b611d8e565b90508681813d8311611ee0575b611ed181836123e8565b810103126102b0575188611e7c565b503d611ec7565b506040516365e52d5160e11b8152fd5b50604051634e46966960e11b8152fd5b600381036120915750600201547f0000000000000000000000000000000000000000000000000000000000000000821691168190036120815782602491604051928380926370a0823160e01b825230878301525afa9081156106cd57600091612054575b50815490818111156120435781611f8191612665565b9160095491821561203357606084600080516020612f4c83398151915296948894611fe984987f8b887c99365b16ec127c895b4fbfab96273b2a79191ed7b42b9724cd8a695ae996611fe160035480841115600014610675578390612665565b600355612642565b9055611fff611ff882846128cd565b91836128ed565b9061200c81600b54612642565b600b5561201b82600c54612642565b600c55604051928352868301526040820152a2611c4e565b50604051630292d7c360e51b8152fd5b604051631ab9ebab60e01b81528390fd5b90508281813d831161207a575b61206b81836123e8565b810103126102b0575184611f6b565b503d612061565b50604051631c49f4d160e01b8152fd5b9192909181036120bd575091611c9b6060926003600080516020612f4c83398151915295015416612944565b604051631c49f4d160e01b8152fd5b602182634e487b7160e01b6000525260246000fd5b601087526040600020908154169055600f86526000604081205587611c15565b50600f87528760406000205414611c10565b5060405163c8c93ba360e01b8152fd5b50604051630dc1019760e01b8152fd5b604051633fc30bd160e11b8152fd5b6010820154801561216f5760075461215991612642565b421015611bbe5760405163a905056160e01b8152fd5b5060405163aa26a69360e01b8152fd5b346102b05760203660031901126102b0576001600160a01b036121a06124ef565b1660005260086020526080604060002060ff8154169060018101549060036002820154910154916040519315158452602084015260408301526060820152f35b346102b05760003660031901126102b0576020600254604051908152f35b346102b05760203660031901126102b05780356000908152600e60205260409020805460018201546002830154600384015484860154959394938493909290916001600160a01b0391821691166122576005860161240a565b97600686015460ff1698600787015490600888015492600989015494600a8a015496600b8b015498600c8c015460ff169a600f8d01549c601001549d6011015460ff169e60405160805260805152600160a01b600190038216608051602001528160a01c60ff166005111561236757509060ff6123079594939260a01c16604060805101526060608051015260808051015260a0608051015261022060c0608051015261022060805101906124af565b99151560e060805101526101006080510152610120608051015261014060805101526101606080510152610180608051015215156101a060805101526101c060805101526101e06080510152151561020060805101526080519003608051f35b602190634e487b7160e01b6000525260246000fd5b90600182811c921680156123ac575b602083101461239657565b634e487b7160e01b600052602260045260246000fd5b91607f169161238b565b60a0810190811067ffffffffffffffff8211176123d257604052565b634e487b7160e01b600052604160045260246000fd5b90601f8019910116810190811067ffffffffffffffff8211176123d257604052565b9060405191826000825461241d8161237c565b9081845260209460019160018116908160001461248d575060011461244e575b50505061244c925003836123e8565b565b600090815285812095935091905b81831061247557505061244c935082010138808061243d565b8554888401850152948501948794509183019161245c565b9250505061244c94925060ff191682840152151560051b82010138808061243d565b919082519283825260005b8481106124db575050826000602080949584010152601f8019910116010190565b6020818301810151848301820152016124ba565b600435906001600160a01b03821682036102b057565b602435906001600160a01b03821682036102b057565b346102b05760003660031901126102b057602060405162093a808152f35b90815180825260208080930193019160005b828110612559575050505090565b83518552938101939281019260010161254b565b6004359081151582036102b057565b60409060031901126102b0576004359060243590565b6009548110156125c95760096000527f6e1540171b6c0c960b71a7020d9f60077f6af931a8bbf590da0223dacf75c7af0190600090565b634e487b7160e01b600052603260045260246000fd5b67ffffffffffffffff81116123d257601f01601f191660200190565b81601f820112156102b057803590612612826125df565b9261262060405194856123e8565b828452602083830101116102b057816000926020809301838601378301015290565b9190820180921161264f57565b634e487b7160e01b600052601160045260246000fd5b9190820391821161264f57565b6001600160a01b03166000908152600860205260409020805460ff16156126b8576003600b549101548082116000146126b1576126ae91612665565b90565b5050600090565b50600090565b67ffffffffffffffff81116123d25760051b60200190565b906126e0826126be565b6126ed60405191826123e8565b82815280926126fe601f19916126be565b0190602036910137565b600019811461264f5760010190565b80518210156125c95760209160051b010190565b91811580156128b0575b61289e57600d548084101561286e5761274d836126d6565b91600091855b81871080612865575b156127c9575085600052600e6020526040600020600a810154421090816127b9575b5061279f575b6001860180871161264f576127999096612708565b95612753565b856127b36127ac85612708565b9486612717565b52612784565b60ff9150600c015416153861277e565b9550909350600094818110612815575b50506127e4816126d6565b9160005b8281106127f6575050509190565b8061280360019284612717565b5161280e8287612717565b52016127e8565b5b818110156127d95780600052600e6020526040600020600a81015442109081612855575b5061284757600101612816565b5050925060019238806127d9565b60ff9150600c015416153861283a565b5085841061275c565b509150506040516020810181811067ffffffffffffffff8211176123d25760405260008152600036813790600090565b6040516381f396b760e01b8152600490fd5b5060648211612735565b8181029291811591840414171561264f57565b81156128d7570490565b634e487b7160e01b600052601260045260246000fd5b81156128d7570690565b6001600160a01b031660009081526008602052604090205460ff161561291c57600190565b600090565b600260005414612932576002600055565b604051633ee5aeb560e01b8152600490fd5b6001600160a01b039081169081156129ac576001549081169081831461299a576001600160a01b03191682176001557f0f3a6964a8ba1b7473a14630b029eae6d49bec6babf098223718bacaac7197cc600080a3565b604051631c49f4d160e01b8152600490fd5b604051634e46966960e11b8152600490fd5b6001600160a01b037f00000000000000000000000000000000000000000000000000000000000000008116911681900361299a57602460206040928351928380926370a0823160e01b82523060048301525afa908115612b2057600091612aee575b506004549081811115612add5781612a3791612665565b91600954918215612acc57927f8b887c99365b16ec127c895b4fbfab96273b2a79191ed7b42b9724cd8a695ae992606092612a8683600097611fe1600354808411158b14610675578390612665565b600455612a9d612a9683856128cd565b92846128ed565b91612aaa81600b54612642565b600b55612ab983600c54612642565b600c5581519384526020840152820152a2565b8151630292d7c360e51b8152600490fd5b8251631ab9ebab60e01b8152600490fd5b90506020813d602011612b18575b81612b09602093836123e8565b810103126102b0575138612a20565b3d9150612afc565b82513d6000823e3d90fd5b6001600160a01b03919082168015159081612bef575b50612bdd5780612ba0575b507faf8839d80c9b3bbf95c97465eb8c8348db4098f5c15af186c3b425b1129981176020600254926040519384527f00000000000000000000000000000000000000000000000000000000000000001692a2565b600a8110612bcb57600a8106612bb95760025538612b4c565b604051636fe6a4c960e01b8152600490fd5b604051635eee050360e11b8152600490fd5b60405163b078ee9d60e01b8152600490fd5b9050827f000000000000000000000000000000000000000000000000000000000000000016141538612b41565b60207f752d7e161ff5146f80e3820893176eb40532811e5e20400dfdde57455213706a91151560ff196005541660ff821617600555604051908152a1565b6000913383526020916010835260409060ff8286205416612def575b80612de9575062093a80925b62093a808410612dd85762278d008411612dc7577f3417b456fad6209c73445d5efd446d686e75e4560f0f50c13b5a5cde976447b4600d5491612cc483612708565b600d558296838152600e82528385612cfd81842099838b5560018b01336bffffffffffffffffffffffff60a01b82541617905542612642565b92600a8a0193845542600b8b0155600c8a0160ff1990818154169055338252600d8b018652828220600182825416179055600e8b018652828220600182825416179055600160088c01558160098c015560095480600f8d015560108c0183815560118d0183815416905581612d93575b505033825260108652600183832091825416179055600f855220555493519384523393a3565b6006549091612da1916128ba565b60641015612db0575b80612d6d565b429055612dbf60075442612642565b855538612daa565b815163eeeb962360e01b8152600490fd5b81516331806aeb60e21b8152600490fd5b92612c82565b600f8493929452838520548552600e835283852060ff600c82015416159081612e4e575b5015612e2a57835163792c310960e11b8152600490fd5b929091923385526010845281852060ff198154169055600f84528482812055612c76565b600a91500154421038612e13565b6040516323b872dd60e01b60208201526001600160a01b03928316602482015292909116604483015260648083019390935291815261244c91612e9e826123b6565b612eef565b60405163a9059cbb60e01b60208201526001600160a01b039092166024830152604480830193909352918152608081019167ffffffffffffffff8311828410176123d25761244c926040525b906000602091828151910182855af1156106cd576000513d612f4257506001600160a01b0381163b155b612f205750565b604051635274afe760e01b81526001600160a01b039091166004820152602490fd5b60011415612f1956feaf8f9d0e884d3306a083e846741a0bc4d75908e2b0ec63b558219652ae4c1b90d81f085560db5c809c425a15f00e3f2904e4fa46d6e8672ff2e671ccd6d9a231a26469706673582212201796e10828502af5795ff53c7eb793b4bb148b92e3ccb9bd87885687152a7b1864736f6c63430008170033",
  "linkReferences": {},
  "deployedLinkReferences": {}
}