{
  "_format": "hh-sol-artifact-1",
  "contractName": "TEMPL",
  "sourceName": "contracts/TEMPL.sol",
  "abi": [
    {
      "inputs": [
        {
          "internalType": "address",
          "name": "_priest",
          "type": "address"
        },
        {
          "internalType": "address",
          "name": "_protocolFeeRecipient",
          "type": "address"
        },
        {
          "internalType": "address",
          "name": "_token",
          "type": "address"
        },
        {
          "internalType": "uint256",
          "name": "_entryFee",
          "type": "uint256"
        },
        {
          "internalType": "uint256",
          "name": "_priestVoteWeight",
          "type": "uint256"
        },
        {
          "internalType": "uint256",
          "name": "_priestWeightThreshold",
          "type": "uint256"
        }
      ],
      "stateMutability": "nonpayable",
      "type": "constructor"
    },
    {
      "inputs": [],
      "name": "ActiveProposalExists",
      "type": "error"
    },
    {
      "inputs": [],
      "name": "AlreadyExecuted",
      "type": "error"
    },
    {
      "inputs": [],
      "name": "AlreadyPurchased",
      "type": "error"
    },
    {
      "inputs": [],
      "name": "AlreadyVoted",
      "type": "error"
    },
    {
      "inputs": [],
      "name": "AmountZero",
      "type": "error"
    },
    {
      "inputs": [],
      "name": "CallDataRequired",
      "type": "error"
    },
    {
      "inputs": [],
      "name": "CallDataTooShort",
      "type": "error"
    },
    {
      "inputs": [],
      "name": "ContractPausedError",
      "type": "error"
    },
    {
      "inputs": [],
      "name": "DescriptionRequired",
      "type": "error"
    },
    {
      "inputs": [],
      "name": "EntryFeeTooSmall",
      "type": "error"
    },
    {
      "inputs": [],
      "name": "InsufficientBalance",
      "type": "error"
    },
    {
      "inputs": [],
      "name": "InsufficientPoolBalance",
      "type": "error"
    },
    {
      "inputs": [],
      "name": "InsufficientTreasuryBalance",
      "type": "error"
    },
    {
      "inputs": [],
      "name": "InvalidCallData",
      "type": "error"
    },
    {
      "inputs": [],
      "name": "InvalidEntryFee",
      "type": "error"
    },
    {
      "inputs": [],
      "name": "InvalidProposal",
      "type": "error"
    },
    {
      "inputs": [],
      "name": "InvalidRecipient",
      "type": "error"
    },
    {
      "inputs": [],
      "name": "InvalidSender",
      "type": "error"
    },
    {
      "inputs": [],
      "name": "JoinedAfterProposal",
      "type": "error"
    },
    {
      "inputs": [],
      "name": "LimitOutOfRange",
      "type": "error"
    },
    {
      "inputs": [],
      "name": "NoRewardsToClaim",
      "type": "error"
    },
    {
      "inputs": [],
      "name": "NoTreasuryFunds",
      "type": "error"
    },
    {
      "inputs": [],
      "name": "NonZeroBalances",
      "type": "error"
    },
    {
      "inputs": [],
      "name": "NotDAO",
      "type": "error"
    },
    {
      "inputs": [],
      "name": "NotMember",
      "type": "error"
    },
    {
      "inputs": [],
      "name": "ProposalExecutionFailed",
      "type": "error"
    },
    {
      "inputs": [],
      "name": "ProposalNotPassed",
      "type": "error"
    },
    {
      "inputs": [],
      "name": "ReentrantCall",
      "type": "error"
    },
    {
      "inputs": [
        {
          "internalType": "address",
          "name": "token",
          "type": "address"
        }
      ],
      "name": "SafeERC20FailedOperation",
      "type": "error"
    },
    {
      "inputs": [],
      "name": "TitleRequired",
      "type": "error"
    },
    {
      "inputs": [],
      "name": "VotingEnded",
      "type": "error"
    },
    {
      "inputs": [],
      "name": "VotingNotEnded",
      "type": "error"
    },
    {
      "inputs": [],
      "name": "VotingPeriodTooLong",
      "type": "error"
    },
    {
      "inputs": [],
      "name": "VotingPeriodTooShort",
      "type": "error"
    },
    {
      "anonymous": false,
      "inputs": [
        {
          "indexed": true,
          "internalType": "address",
          "name": "purchaser",
          "type": "address"
        },
        {
          "indexed": false,
          "internalType": "uint256",
          "name": "totalAmount",
          "type": "uint256"
        },
        {
          "indexed": false,
          "internalType": "uint256",
          "name": "burnedAmount",
          "type": "uint256"
        },
        {
          "indexed": false,
          "internalType": "uint256",
          "name": "treasuryAmount",
          "type": "uint256"
        },
        {
          "indexed": false,
          "internalType": "uint256",
          "name": "memberPoolAmount",
          "type": "uint256"
        },
        {
          "indexed": false,
          "internalType": "uint256",
          "name": "protocolAmount",
          "type": "uint256"
        },
        {
          "indexed": false,
          "internalType": "uint256",
          "name": "timestamp",
          "type": "uint256"
        },
        {
          "indexed": false,
          "internalType": "uint256",
          "name": "blockNumber",
          "type": "uint256"
        },
        {
          "indexed": false,
          "internalType": "uint256",
          "name": "purchaseId",
          "type": "uint256"
        }
      ],
      "name": "AccessPurchased",
      "type": "event"
    },
    {
      "anonymous": false,
      "inputs": [
        {
          "indexed": true,
          "internalType": "address",
          "name": "token",
          "type": "address"
        },
        {
          "indexed": false,
          "internalType": "uint256",
          "name": "entryFee",
          "type": "uint256"
        }
      ],
      "name": "ConfigUpdated",
      "type": "event"
    },
    {
      "anonymous": false,
      "inputs": [
        {
          "indexed": false,
          "internalType": "bool",
          "name": "isPaused",
          "type": "bool"
        }
      ],
      "name": "ContractPaused",
      "type": "event"
    },
    {
      "anonymous": false,
      "inputs": [
        {
          "indexed": true,
          "internalType": "address",
          "name": "member",
          "type": "address"
        },
        {
          "indexed": false,
          "internalType": "uint256",
          "name": "amount",
          "type": "uint256"
        },
        {
          "indexed": false,
          "internalType": "uint256",
          "name": "timestamp",
          "type": "uint256"
        }
      ],
      "name": "MemberPoolClaimed",
      "type": "event"
    },
    {
      "anonymous": false,
      "inputs": [
        {
          "indexed": true,
          "internalType": "uint256",
          "name": "proposalId",
          "type": "uint256"
        },
        {
          "indexed": true,
          "internalType": "address",
          "name": "proposer",
          "type": "address"
        },
        {
          "indexed": false,
          "internalType": "string",
          "name": "title",
          "type": "string"
        },
        {
          "indexed": false,
          "internalType": "uint256",
          "name": "endTime",
          "type": "uint256"
        }
      ],
      "name": "ProposalCreated",
      "type": "event"
    },
    {
      "anonymous": false,
      "inputs": [
        {
          "indexed": true,
          "internalType": "uint256",
          "name": "proposalId",
          "type": "uint256"
        },
        {
          "indexed": false,
          "internalType": "bool",
          "name": "success",
          "type": "bool"
        },
        {
          "indexed": false,
          "internalType": "bytes",
          "name": "returnData",
          "type": "bytes"
        }
      ],
      "name": "ProposalExecuted",
      "type": "event"
    },
    {
      "anonymous": false,
      "inputs": [
        {
          "indexed": true,
          "internalType": "uint256",
          "name": "proposalId",
          "type": "uint256"
        },
        {
          "indexed": true,
          "internalType": "address",
          "name": "recipient",
          "type": "address"
        },
        {
          "indexed": false,
          "internalType": "uint256",
          "name": "amount",
          "type": "uint256"
        },
        {
          "indexed": false,
          "internalType": "string",
          "name": "description",
          "type": "string"
        }
      ],
      "name": "TreasuryAction",
      "type": "event"
    },
    {
      "anonymous": false,
      "inputs": [
        {
          "indexed": true,
          "internalType": "uint256",
          "name": "proposalId",
          "type": "uint256"
        },
        {
          "indexed": true,
          "internalType": "address",
          "name": "voter",
          "type": "address"
        },
        {
          "indexed": false,
          "internalType": "bool",
          "name": "support",
          "type": "bool"
        },
        {
          "indexed": false,
          "internalType": "uint256",
          "name": "timestamp",
          "type": "uint256"
        }
      ],
      "name": "VoteCast",
      "type": "event"
    },
    {
      "inputs": [],
      "name": "DEFAULT_VOTING_PERIOD",
      "outputs": [
        {
          "internalType": "uint256",
          "name": "",
          "type": "uint256"
        }
      ],
      "stateMutability": "view",
      "type": "function"
    },
    {
      "inputs": [],
      "name": "MAX_VOTING_PERIOD",
      "outputs": [
        {
          "internalType": "uint256",
          "name": "",
          "type": "uint256"
        }
      ],
      "stateMutability": "view",
      "type": "function"
    },
    {
      "inputs": [],
      "name": "MIN_VOTING_PERIOD",
      "outputs": [
        {
          "internalType": "uint256",
          "name": "",
          "type": "uint256"
        }
      ],
      "stateMutability": "view",
      "type": "function"
    },
    {
      "inputs": [],
      "name": "accessToken",
      "outputs": [
        {
          "internalType": "address",
          "name": "",
          "type": "address"
        }
      ],
      "stateMutability": "view",
      "type": "function"
    },
    {
      "inputs": [
        {
          "internalType": "address",
          "name": "",
          "type": "address"
        }
      ],
      "name": "activeProposalId",
      "outputs": [
        {
          "internalType": "uint256",
          "name": "",
          "type": "uint256"
        }
      ],
      "stateMutability": "view",
      "type": "function"
    },
    {
      "inputs": [],
      "name": "claimMemberPool",
      "outputs": [],
      "stateMutability": "nonpayable",
      "type": "function"
    },
    {
      "inputs": [
        {
          "internalType": "string",
          "name": "_title",
          "type": "string"
        },
        {
          "internalType": "string",
          "name": "_description",
          "type": "string"
        },
        {
          "internalType": "bytes",
          "name": "_callData",
          "type": "bytes"
        },
        {
          "internalType": "uint256",
          "name": "_votingPeriod",
          "type": "uint256"
        }
      ],
      "name": "createProposal",
      "outputs": [
        {
          "internalType": "uint256",
          "name": "",
          "type": "uint256"
        }
      ],
      "stateMutability": "nonpayable",
      "type": "function"
    },
    {
      "inputs": [],
      "name": "cumulativeMemberRewards",
      "outputs": [
        {
          "internalType": "uint256",
          "name": "",
          "type": "uint256"
        }
      ],
      "stateMutability": "view",
      "type": "function"
    },
    {
      "inputs": [],
      "name": "entryFee",
      "outputs": [
        {
          "internalType": "uint256",
          "name": "",
          "type": "uint256"
        }
      ],
      "stateMutability": "view",
      "type": "function"
    },
    {
      "inputs": [
        {
          "internalType": "uint256",
          "name": "_proposalId",
          "type": "uint256"
        }
      ],
      "name": "executeProposal",
      "outputs": [],
      "stateMutability": "nonpayable",
      "type": "function"
    },
    {
      "inputs": [],
      "name": "getActiveProposals",
      "outputs": [
        {
          "internalType": "uint256[]",
          "name": "",
          "type": "uint256[]"
        }
      ],
      "stateMutability": "view",
      "type": "function"
    },
    {
      "inputs": [
        {
          "internalType": "uint256",
          "name": "offset",
          "type": "uint256"
        },
        {
          "internalType": "uint256",
          "name": "limit",
          "type": "uint256"
        }
      ],
      "name": "getActiveProposalsPaginated",
      "outputs": [
        {
          "internalType": "uint256[]",
          "name": "proposalIds",
          "type": "uint256[]"
        },
        {
          "internalType": "bool",
          "name": "hasMore",
          "type": "bool"
        }
      ],
      "stateMutability": "view",
      "type": "function"
    },
    {
      "inputs": [
        {
          "internalType": "address",
          "name": "member",
          "type": "address"
        }
      ],
      "name": "getClaimablePoolAmount",
      "outputs": [
        {
          "internalType": "uint256",
          "name": "",
          "type": "uint256"
        }
      ],
      "stateMutability": "view",
      "type": "function"
    },
    {
      "inputs": [],
      "name": "getConfig",
      "outputs": [
        {
          "internalType": "address",
          "name": "token",
          "type": "address"
        },
        {
          "internalType": "uint256",
          "name": "fee",
          "type": "uint256"
        },
        {
          "internalType": "bool",
          "name": "isPaused",
          "type": "bool"
        },
        {
          "internalType": "uint256",
          "name": "purchases",
          "type": "uint256"
        },
        {
          "internalType": "uint256",
          "name": "treasury",
          "type": "uint256"
        },
        {
          "internalType": "uint256",
          "name": "pool",
          "type": "uint256"
        }
      ],
      "stateMutability": "view",
      "type": "function"
    },
    {
      "inputs": [],
      "name": "getMemberCount",
      "outputs": [
        {
          "internalType": "uint256",
          "name": "",
          "type": "uint256"
        }
      ],
      "stateMutability": "view",
      "type": "function"
    },
    {
      "inputs": [
        {
          "internalType": "uint256",
          "name": "_proposalId",
          "type": "uint256"
        }
      ],
      "name": "getProposal",
      "outputs": [
        {
          "internalType": "address",
          "name": "proposer",
          "type": "address"
        },
        {
          "internalType": "string",
          "name": "title",
          "type": "string"
        },
        {
          "internalType": "string",
          "name": "description",
          "type": "string"
        },
        {
          "internalType": "uint256",
          "name": "yesVotes",
          "type": "uint256"
        },
        {
          "internalType": "uint256",
          "name": "noVotes",
          "type": "uint256"
        },
        {
          "internalType": "uint256",
          "name": "endTime",
          "type": "uint256"
        },
        {
          "internalType": "bool",
          "name": "executed",
          "type": "bool"
        },
        {
          "internalType": "bool",
          "name": "passed",
          "type": "bool"
        }
      ],
      "stateMutability": "view",
      "type": "function"
    },
    {
      "inputs": [
        {
          "internalType": "address",
          "name": "user",
          "type": "address"
        }
      ],
      "name": "getPurchaseDetails",
      "outputs": [
        {
          "internalType": "bool",
          "name": "purchased",
          "type": "bool"
        },
        {
          "internalType": "uint256",
          "name": "timestamp",
          "type": "uint256"
        },
        {
          "internalType": "uint256",
          "name": "blockNum",
          "type": "uint256"
        }
      ],
      "stateMutability": "view",
      "type": "function"
    },
    {
      "inputs": [],
      "name": "getTreasuryInfo",
      "outputs": [
        {
          "internalType": "uint256",
          "name": "treasury",
          "type": "uint256"
        },
        {
          "internalType": "uint256",
          "name": "memberPool",
          "type": "uint256"
        },
        {
          "internalType": "uint256",
          "name": "totalReceived",
          "type": "uint256"
        },
        {
          "internalType": "uint256",
          "name": "totalBurnedAmount",
          "type": "uint256"
        },
        {
          "internalType": "uint256",
          "name": "totalProtocolFees",
          "type": "uint256"
        },
        {
          "internalType": "address",
          "name": "protocolAddress",
          "type": "address"
        }
      ],
      "stateMutability": "view",
      "type": "function"
    },
    {
      "inputs": [
        {
          "internalType": "address",
          "name": "voter",
          "type": "address"
        }
      ],
      "name": "getVoteWeight",
      "outputs": [
        {
          "internalType": "uint256",
          "name": "",
          "type": "uint256"
        }
      ],
      "stateMutability": "view",
      "type": "function"
    },
    {
      "inputs": [
        {
          "internalType": "address",
          "name": "user",
          "type": "address"
        }
      ],
      "name": "hasAccess",
      "outputs": [
        {
          "internalType": "bool",
          "name": "",
          "type": "bool"
        }
      ],
      "stateMutability": "view",
      "type": "function"
    },
    {
      "inputs": [
        {
          "internalType": "address",
          "name": "",
          "type": "address"
        }
      ],
      "name": "hasActiveProposal",
      "outputs": [
        {
          "internalType": "bool",
          "name": "",
          "type": "bool"
        }
      ],
      "stateMutability": "view",
      "type": "function"
    },
    {
      "inputs": [
        {
          "internalType": "uint256",
          "name": "_proposalId",
          "type": "uint256"
        },
        {
          "internalType": "address",
          "name": "_voter",
          "type": "address"
        }
      ],
      "name": "hasVoted",
      "outputs": [
        {
          "internalType": "bool",
          "name": "voted",
          "type": "bool"
        },
        {
          "internalType": "bool",
          "name": "support",
          "type": "bool"
        }
      ],
      "stateMutability": "view",
      "type": "function"
    },
    {
      "inputs": [
        {
          "internalType": "address",
          "name": "",
          "type": "address"
        }
      ],
      "name": "memberIndex",
      "outputs": [
        {
          "internalType": "uint256",
          "name": "",
          "type": "uint256"
        }
      ],
      "stateMutability": "view",
      "type": "function"
    },
    {
      "inputs": [
        {
          "internalType": "uint256",
          "name": "",
          "type": "uint256"
        }
      ],
      "name": "memberList",
      "outputs": [
        {
          "internalType": "address",
          "name": "",
          "type": "address"
        }
      ],
      "stateMutability": "view",
      "type": "function"
    },
    {
      "inputs": [],
      "name": "memberPoolBalance",
      "outputs": [
        {
          "internalType": "uint256",
          "name": "",
          "type": "uint256"
        }
      ],
      "stateMutability": "view",
      "type": "function"
    },
    {
      "inputs": [
        {
          "internalType": "address",
          "name": "",
          "type": "address"
        }
      ],
      "name": "memberPoolClaims",
      "outputs": [
        {
          "internalType": "uint256",
          "name": "",
          "type": "uint256"
        }
      ],
      "stateMutability": "view",
      "type": "function"
    },
    {
      "inputs": [],
      "name": "memberRewardRemainder",
      "outputs": [
        {
          "internalType": "uint256",
          "name": "",
          "type": "uint256"
        }
      ],
      "stateMutability": "view",
      "type": "function"
    },
    {
      "inputs": [
        {
          "internalType": "address",
          "name": "",
          "type": "address"
        }
      ],
      "name": "members",
      "outputs": [
        {
          "internalType": "bool",
          "name": "purchased",
          "type": "bool"
        },
        {
          "internalType": "uint256",
          "name": "timestamp",
          "type": "uint256"
        },
        {
          "internalType": "uint256",
          "name": "block",
          "type": "uint256"
        },
        {
          "internalType": "uint256",
          "name": "rewardSnapshot",
          "type": "uint256"
        }
      ],
      "stateMutability": "view",
      "type": "function"
    },
    {
      "inputs": [],
      "name": "paused",
      "outputs": [
        {
          "internalType": "bool",
          "name": "",
          "type": "bool"
        }
      ],
      "stateMutability": "view",
      "type": "function"
    },
    {
      "inputs": [],
      "name": "priest",
      "outputs": [
        {
          "internalType": "address",
          "name": "",
          "type": "address"
        }
      ],
      "stateMutability": "view",
      "type": "function"
    },
    {
      "inputs": [],
      "name": "priestVoteWeight",
      "outputs": [
        {
          "internalType": "uint256",
          "name": "",
          "type": "uint256"
        }
      ],
      "stateMutability": "view",
      "type": "function"
    },
    {
      "inputs": [],
      "name": "priestWeightThreshold",
      "outputs": [
        {
          "internalType": "uint256",
          "name": "",
          "type": "uint256"
        }
      ],
      "stateMutability": "view",
      "type": "function"
    },
    {
      "inputs": [],
      "name": "proposalCount",
      "outputs": [
        {
          "internalType": "uint256",
          "name": "",
          "type": "uint256"
        }
      ],
      "stateMutability": "view",
      "type": "function"
    },
    {
      "inputs": [
        {
          "internalType": "uint256",
          "name": "",
          "type": "uint256"
        }
      ],
      "name": "proposals",
      "outputs": [
        {
          "internalType": "uint256",
          "name": "id",
          "type": "uint256"
        },
        {
          "internalType": "address",
          "name": "proposer",
          "type": "address"
        },
        {
          "internalType": "string",
          "name": "title",
          "type": "string"
        },
        {
          "internalType": "string",
          "name": "description",
          "type": "string"
        },
        {
          "internalType": "bytes",
          "name": "callData",
          "type": "bytes"
        },
        {
          "internalType": "uint256",
          "name": "yesVotes",
          "type": "uint256"
        },
        {
          "internalType": "uint256",
          "name": "noVotes",
          "type": "uint256"
        },
        {
          "internalType": "uint256",
          "name": "endTime",
          "type": "uint256"
        },
        {
          "internalType": "uint256",
          "name": "createdAt",
          "type": "uint256"
        },
        {
          "internalType": "uint256",
          "name": "eligibleVoters",
          "type": "uint256"
        },
        {
          "internalType": "bool",
          "name": "executed",
          "type": "bool"
        }
      ],
      "stateMutability": "view",
      "type": "function"
    },
    {
      "inputs": [],
      "name": "protocolFeeRecipient",
      "outputs": [
        {
          "internalType": "address",
          "name": "",
          "type": "address"
        }
      ],
      "stateMutability": "view",
      "type": "function"
    },
    {
      "inputs": [],
      "name": "purchaseAccess",
      "outputs": [],
      "stateMutability": "nonpayable",
      "type": "function"
    },
    {
      "inputs": [
        {
          "internalType": "bool",
          "name": "_paused",
          "type": "bool"
        }
      ],
      "name": "setPausedDAO",
      "outputs": [],
      "stateMutability": "nonpayable",
      "type": "function"
    },
    {
      "inputs": [
        {
          "internalType": "address",
          "name": "recipient",
          "type": "address"
        }
      ],
      "name": "sweepMemberRewardRemainderDAO",
      "outputs": [],
      "stateMutability": "nonpayable",
      "type": "function"
    },
    {
      "inputs": [],
      "name": "totalBurned",
      "outputs": [
        {
          "internalType": "uint256",
          "name": "",
          "type": "uint256"
        }
      ],
      "stateMutability": "view",
      "type": "function"
    },
    {
      "inputs": [],
      "name": "totalPurchases",
      "outputs": [
        {
          "internalType": "uint256",
          "name": "",
          "type": "uint256"
        }
      ],
      "stateMutability": "view",
      "type": "function"
    },
    {
      "inputs": [],
      "name": "totalToMemberPool",
      "outputs": [
        {
          "internalType": "uint256",
          "name": "",
          "type": "uint256"
        }
      ],
      "stateMutability": "view",
      "type": "function"
    },
    {
      "inputs": [],
      "name": "totalToProtocol",
      "outputs": [
        {
          "internalType": "uint256",
          "name": "",
          "type": "uint256"
        }
      ],
      "stateMutability": "view",
      "type": "function"
    },
    {
      "inputs": [],
      "name": "totalToTreasury",
      "outputs": [
        {
          "internalType": "uint256",
          "name": "",
          "type": "uint256"
        }
      ],
      "stateMutability": "view",
      "type": "function"
    },
    {
      "inputs": [],
      "name": "treasuryBalance",
      "outputs": [
        {
          "internalType": "uint256",
          "name": "",
          "type": "uint256"
        }
      ],
      "stateMutability": "view",
      "type": "function"
    },
    {
      "inputs": [
        {
          "internalType": "address",
          "name": "_token",
          "type": "address"
        },
        {
          "internalType": "uint256",
          "name": "_entryFee",
          "type": "uint256"
        }
      ],
      "name": "updateConfigDAO",
      "outputs": [],
      "stateMutability": "nonpayable",
      "type": "function"
    },
    {
      "inputs": [
        {
          "internalType": "uint256",
          "name": "_proposalId",
          "type": "uint256"
        },
        {
          "internalType": "bool",
          "name": "_support",
          "type": "bool"
        }
      ],
      "name": "vote",
      "outputs": [],
      "stateMutability": "nonpayable",
      "type": "function"
    },
    {
      "inputs": [
        {
          "internalType": "address",
          "name": "recipient",
          "type": "address"
        },
        {
          "internalType": "string",
          "name": "reason",
          "type": "string"
        }
      ],
      "name": "withdrawAllTreasuryDAO",
      "outputs": [],
      "stateMutability": "nonpayable",
      "type": "function"
    },
    {
      "inputs": [
        {
          "internalType": "address",
          "name": "recipient",
          "type": "address"
        },
        {
          "internalType": "uint256",
          "name": "amount",
          "type": "uint256"
        },
        {
          "internalType": "string",
          "name": "reason",
          "type": "string"
        }
      ],
      "name": "withdrawETHDAO",
      "outputs": [],
      "stateMutability": "nonpayable",
      "type": "function"
    },
    {
      "inputs": [
        {
          "internalType": "address",
          "name": "token",
          "type": "address"
        },
        {
          "internalType": "address",
          "name": "recipient",
          "type": "address"
        },
        {
          "internalType": "uint256",
          "name": "amount",
          "type": "uint256"
        },
        {
          "internalType": "string",
          "name": "reason",
          "type": "string"
        }
      ],
      "name": "withdrawTokenDAO",
      "outputs": [],
      "stateMutability": "nonpayable",
      "type": "function"
    },
    {
      "inputs": [
        {
          "internalType": "address",
          "name": "recipient",
          "type": "address"
        },
        {
          "internalType": "uint256",
          "name": "amount",
          "type": "uint256"
        },
        {
          "internalType": "string",
          "name": "reason",
          "type": "string"
        }
      ],
      "name": "withdrawTreasuryDAO",
      "outputs": [],
      "stateMutability": "nonpayable",
      "type": "function"
    },
    {
      "stateMutability": "payable",
      "type": "receive"
    }
  ],
  "bytecode": "0x6101006040526000196010553480156200001857600080fd5b506040516200350c3803806200350c8339810160408190526200003b91620001a5565b6001600160a01b03861615806200005957506001600160a01b038516155b806200006c57506001600160a01b038416155b156200008b57604051634e46966960e11b815260040160405180910390fd5b82600003620000ad576040516365e52d5160e11b815260040160405180910390fd5b600a831015620000d057604051635eee050360e11b815260040160405180910390fd5b620000dd600a846200020b565b15620000fc57604051636fe6a4c960e01b815260040160405180910390fd5b816000036200011e576040516365e52d5160e11b815260040160405180910390fd5b8060000362000140576040516365e52d5160e11b815260040160405180910390fd5b6001600160a01b0395861660805293851660a052600180546001600160a01b0319169390951692909217845560025560c05260e0526005805460ff191690556000556200022e565b80516001600160a01b0381168114620001a057600080fd5b919050565b60008060008060008060c08789031215620001bf57600080fd5b620001ca8762000188565b9550620001da6020880162000188565b9450620001ea6040880162000188565b9350606087015192506080870151915060a087015190509295509295509295565b6000826200022957634e487b7160e01b600052601260045260246000fd5b500690565b60805160a05160c05160e05161326c620002a0600039600081816104aa01528181611f9501526124a701526000818161091d01528181611fbe01526124d0015260008181610630015281816108b60152611df801526000818161086001528181611f56015261247a015261326c6000f3fe6080604052600436106102cd5760003560e01c806395a078e811610175578063bebc8fc0116100dc578063c9d27afe11610095578063da35c6641161006f578063da35c66414610a29578063e243c5fb14610a3f578063f7158b2a14610a5f578063ffafe4ad14610a7457600080fd5b8063c9d27afe146109d3578063d3493ced146109f3578063d89135cd14610a1357600080fd5b8063bebc8fc01461084e578063c1b57edb14610882578063c293947114610898578063c34b55801461090b578063c3f909d41461093f578063c7f758a81461099f57600080fd5b8063a730117e1161012e578063a730117e146107ab578063a81bbe3c146107cb578063aedfe53f146103e7578063b307fc6d146107f8578063bc2a268414610818578063bdb75b341461083857600080fd5b806395a078e8146106fb578063997072f71461073457806399e288d8146107495780639b14c83c1461075e578063a51a46b91461077e578063a64e024a1461079457600080fd5b8063524ddc23116102345780635fa7ddf0116101ed578063653724d6116101c7578063653724d61461066a5780636898b19c1461068a5780636ad18550146106a05780638f78bbc4146106cd57600080fd5b80635fa7ddf0146105a457806364653f29146105ba57806364df049e1461061e57600080fd5b8063524ddc23146104ec578063544038011461050c5780635584c4f91461052c5780635962a9411461054e57806359c266ff146105645780635c975abb1461057a57600080fd5b8063313dab2011610286578063313dab20146103fe57806332d084bb146104145780633dd352791461043457806343859632146104615780634c78afc8146104985780634c8260aa146104cc57600080fd5b8063013cf08b146102d9578063072ea61c1461031957806308ae4b0c1461033d5780630d61b519146103a55780631808022a146103c7578063215809ca146103e757600080fd5b366102d457005b600080fd5b3480156102e557600080fd5b506102f96102f4366004612a47565b610aa4565b6040516103109b9a99989796959493929190612ab0565b60405180910390f35b34801561032557600080fd5b5061032f60025481565b604051908152602001610310565b34801561034957600080fd5b50610383610358366004612b5a565b600660205260009081526040902080546001820154600283015460039093015460ff90921692909184565b6040805194151585526020850193909352918301526060820152608001610310565b3480156103b157600080fd5b506103c56103c0366004612a47565b610c9f565b005b3480156103d357600080fd5b5061032f6103e2366004612b5a565b610ee1565b3480156103f357600080fd5b5061032f62093a8081565b34801561040a57600080fd5b5061032f60035481565b34801561042057600080fd5b5061032f61042f366004612c28565b610f48565b34801561044057600080fd5b5061032f61044f366004612b5a565b60086020526000908152604090205481565b34801561046d57600080fd5b5061048161047c366004612ccc565b6112dc565b604080519215158352901515602083015201610310565b3480156104a457600080fd5b5061032f7f000000000000000000000000000000000000000000000000000000000000000081565b3480156104d857600080fd5b506103c56104e7366004612cf8565b611345565b3480156104f857600080fd5b506103c5610507366004612d4f565b6114a0565b34801561051857600080fd5b506103c5610527366004612cf8565b6115d1565b34801561053857600080fd5b506105416116e9565b6040516103109190612db5565b34801561055a57600080fd5b5061032f60115481565b34801561057057600080fd5b5061032f60155481565b34801561058657600080fd5b506005546105949060ff1681565b6040519015158152602001610310565b3480156105b057600080fd5b5061032f60045481565b3480156105c657600080fd5b506106016105d5366004612b5a565b6001600160a01b031660009081526006602052604090208054600182015460029092015460ff90911692565b604080519315158452602084019290925290820152606001610310565b34801561062a57600080fd5b506106527f000000000000000000000000000000000000000000000000000000000000000081565b6040516001600160a01b039091168152602001610310565b34801561067657600080fd5b506103c5610685366004612dd8565b61180f565b34801561069657600080fd5b5061032f600a5481565b3480156106ac57600080fd5b5061032f6106bb366004612b5a565b600e6020526000908152604090205481565b3480156106d957600080fd5b506106ed6106e8366004612df3565b611876565b604051610310929190612e15565b34801561070757600080fd5b50610594610716366004612b5a565b6001600160a01b031660009081526006602052604090205460ff1690565b34801561074057600080fd5b5060075461032f565b34801561075557600080fd5b506103c5611aa7565b34801561076a57600080fd5b506103c5610779366004612b5a565b611e9b565b34801561078a57600080fd5b5061032f600b5481565b3480156107a057600080fd5b5061032f62278d0081565b3480156107b757600080fd5b5061032f6107c6366004612b5a565b611f2c565b3480156107d757600080fd5b5061032f6107e6366004612b5a565b60096020526000908152604090205481565b34801561080457600080fd5b50610652610813366004612a47565b611fea565b34801561082457600080fd5b506103c5610833366004612e39565b612014565b34801561084457600080fd5b5061032f60145481565b34801561085a57600080fd5b506106527f000000000000000000000000000000000000000000000000000000000000000081565b34801561088e57600080fd5b5061032f60135481565b3480156108a457600080fd5b506003546004546013546012546015547f000000000000000000000000000000000000000000000000000000000000000060408051968752602087019590955293850192909252606084015260808301526001600160a01b031660a082015260c001610310565b34801561091757600080fd5b5061032f7f000000000000000000000000000000000000000000000000000000000000000081565b34801561094b57600080fd5b50600154600254600554601154600354600454604080516001600160a01b039097168752602087019590955260ff9093161515938501939093526060840152608083019190915260a082015260c001610310565b3480156109ab57600080fd5b506109bf6109ba366004612a47565b612184565b604051610310989796959493929190612ea1565b3480156109df57600080fd5b506103c56109ee366004612f0a565b61234b565b3480156109ff57600080fd5b506103c5610a0e366004612f2d565b612573565b348015610a1f57600080fd5b5061032f60125481565b348015610a3557600080fd5b5061032f600c5481565b348015610a4b57600080fd5b50600154610652906001600160a01b031681565b348015610a6b57600080fd5b506103c5612657565b348015610a8057600080fd5b50610594610a8f366004612b5a565b600f6020526000908152604090205460ff1681565b600d6020526000908152604090208054600182015460028301805492936001600160a01b0390921692610ad690612f7b565b80601f0160208091040260200160405190810160405280929190818152602001828054610b0290612f7b565b8015610b4f5780601f10610b2457610100808354040283529160200191610b4f565b820191906000526020600020905b815481529060010190602001808311610b3257829003601f168201915b505050505090806003018054610b6490612f7b565b80601f0160208091040260200160405190810160405280929190818152602001828054610b9090612f7b565b8015610bdd5780601f10610bb257610100808354040283529160200191610bdd565b820191906000526020600020905b815481529060010190602001808311610bc057829003601f168201915b505050505090806004018054610bf290612f7b565b80601f0160208091040260200160405190810160405280929190818152602001828054610c1e90612f7b565b8015610c6b5780601f10610c4057610100808354040283529160200191610c6b565b820191906000526020600020905b815481529060010190602001808311610c4e57829003601f168201915b50505060058401546006850154600786015460088701546009880154600a9098015496979396929550909350919060ff168b565b600260005403610cc2576040516306fda65d60e31b815260040160405180910390fd5b6002600055600c548110610ce957604051631dc0650160e31b815260040160405180910390fd5b6000818152600d602052604090206007810154421015610d1c57604051633fc30bd160e11b815260040160405180910390fd5b600a81015460ff1615610d4257604051630dc1019760e01b815260040160405180910390fd5b8060060154816005015411610d6a5760405163c8c93ba360e01b815260040160405180910390fd5b600a8101805460ff191660019081179091558101546001600160a01b03166000818152600f602052604090205460ff168015610dbd57506001600160a01b0381166000908152600e602052604090205483145b15610dee576001600160a01b0381166000908152600f60209081526040808320805460ff19169055600e9091528120555b610df783601055565b6000610e8e836004018054610e0b90612f7b565b80601f0160208091040260200160405190810160405280929190818152602001828054610e3790612f7b565b8015610e845780601f10610e5957610100808354040283529160200191610e84565b820191906000526020600020905b815481529060010190602001808311610e6757829003601f168201915b50505050506127bd565b9050610e9b600019601055565b837faf8f9d0e884d3306a083e846741a0bc4d75908e2b0ec63b558219652ae4c1b90600183604051610ece929190612fb5565b60405180910390a2505060016000555050565b6001600160a01b03811660009081526006602052604081205460ff16610f0957506000919050565b600a546001600160a01b038316600090815260066020526040902060030154808211610f36576000610f40565b610f408183612fe6565b949350505050565b3360009081526006602052604081205460ff16610f785760405163148fe22160e11b815260040160405180910390fd5b8451600003610f9a576040516319d546f160e31b815260040160405180910390fd5b8351600003610fbc57604051633e61080d60e01b815260040160405180910390fd5b8251600003610fde5760405163066e738d60e01b815260040160405180910390fd5b60048351101561100157604051632d2b93ff60e01b815260040160405180910390fd5b602083015160006001600160e01b0319821663329b926b60e11b148061103757506001600160e01b0319821663524ddc2360e01b145b8061105257506001600160e01b03198216635440380160e01b145b8061106d57506001600160e01b0319821663d3493ced60e01b145b8061108857506001600160e01b03198216632f0a89a160e21b145b806110a357506001600160e01b03198216632641305560e11b145b806110be57506001600160e01b031982166326c5320f60e21b145b9050806110de57604051631c49f4d160e01b815260040160405180910390fd5b336000908152600f602052604090205460ff161561116f57336000908152600e6020908152604080832054808452600d909252909120600a81015460ff1615801561112c5750806007015442105b1561114a5760405163792c310960e11b815260040160405180910390fd5b336000908152600f60209081526040808320805460ff19169055600e90915281205550505b83600081900361117f575062093a805b62093a808110156111a3576040516331806aeb60e21b815260040160405180910390fd5b62278d008111156111c75760405163eeeb962360e01b815260040160405180910390fd5b600c8054600091826111d883612fff565b909155506000818152600d602052604090208181556001810180546001600160a01b03191633179055909150600281016112128b82613068565b50600381016112218a82613068565b50600481016112308982613068565b5061123b8342613128565b6007808301918255426008840155546009830155600a8201805460ff199081169091556000600584018190556006840181905533808252600f602090815260408084208054909516600117909455600e9052908290208590559154905184917f98120a6aaa04295520ab4e01c6c1235dd316e822cc9ff31db7b3f197366d18bd916112c7918f9161313b565b60405180910390a35098975050505050505050565b600080600c54841061130157604051631dc0650160e31b815260040160405180910390fd5b50506000828152600d602090815260408083206001600160a01b0385168452600b8101835281842054600c9091019092529091205460ff91821691165b9250929050565b333014611365576040516327568d2f60e11b815260040160405180910390fd5b6001600160a01b03831661138c57604051634e46966960e11b815260040160405180910390fd5b816000036113ad576040516365e52d5160e11b815260040160405180910390fd5b814710156113ce57604051631e9acf1760e31b815260040160405180910390fd5b601054600c5481106113f357604051631dc0650160e31b815260040160405180910390fd5b836001600160a01b031681600080516020613217833981519152858560405161141d92919061315d565b60405180910390a36000846001600160a01b03168460405160006040518083038185875af1925050503d8060008114611472576040519150601f19603f3d011682016040523d82523d6000602084013e611477565b606091505b5050905080611499576040516331d436c760e01b815260040160405180910390fd5b5050505050565b3330146114c0576040516327568d2f60e11b815260040160405180910390fd5b6001600160a01b03821615611531576001546001600160a01b0383811691161461153157600060035411806114f757506000600454115b156115155760405163d38466ab60e01b815260040160405180910390fd5b600180546001600160a01b0319166001600160a01b0384161790555b801561158857600a81101561155957604051635eee050360e11b815260040160405180910390fd5b611564600a8261318c565b1561158257604051636fe6a4c960e01b815260040160405180910390fd5b60028190555b6001546002546040519081526001600160a01b03909116907faf8839d80c9b3bbf95c97465eb8c8348db4098f5c15af186c3b425b1129981179060200160405180910390a25050565b3330146115f1576040516327568d2f60e11b815260040160405180910390fd5b6001600160a01b03831661161857604051634e46966960e11b815260040160405180910390fd5b81600003611639576040516365e52d5160e11b815260040160405180910390fd5b60035482111561165c57604051631c7b597b60e11b815260040160405180910390fd5b601054600c54811061168157604051631dc0650160e31b815260040160405180910390fd5b82600360008282546116939190612fe6565b92505081905550836001600160a01b03168160008051602061321783398151915285856040516116c492919061315d565b60405180910390a36001546116e3906001600160a01b03168585612935565b50505050565b60606000805b600c54811015611746576000818152600d60205260409020600701544210801561172b57506000818152600d60205260409020600a015460ff16155b1561173e578161173a81612fff565b9250505b6001016116ef565b5060008167ffffffffffffffff81111561176257611762612b7c565b60405190808252806020026020018201604052801561178b578160200160208202803683370190505b5090506000805b600c54811015611806576000818152600d6020526040902060070154421080156117ce57506000818152600d60205260409020600a015460ff16155b156117fe578083836117df81612fff565b9450815181106117f1576117f16131a0565b6020026020010181815250505b600101611792565b50909392505050565b33301461182f576040516327568d2f60e11b815260040160405180910390fd5b6005805460ff19168215159081179091556040519081527f752d7e161ff5146f80e3820893176eb40532811e5e20400dfdde57455213706a9060200160405180910390a150565b606060008215806118875750606483115b156118a5576040516381f396b760e01b815260040160405180910390fd5b600c5484106118c6575050604080516000808252602082019092529061133e565b60008367ffffffffffffffff8111156118e1576118e1612b7c565b60405190808252806020026020018201604052801561190a578160200160208202803683370190505b509050600085805b600c548110801561192257508683105b156119a8576000818152600d60205260409020600701544210801561195957506000818152600d60205260409020600a015460ff16155b156119895780848461196a81612fff565b95508151811061197c5761197c6131a0565b6020026020010181815250505b611994816001613128565b9150806119a081612fff565b915050611912565b5060009350600c54811015611a0d57805b600c54811015611a0b576000818152600d6020526040902060070154421080156119f557506000818152600d60205260409020600a015460ff16155b15611a035760019450611a0b565b6001016119b9565b505b8167ffffffffffffffff811115611a2657611a26612b7c565b604051908082528060200260200182016040528015611a4f578160200160208202803683370190505b50945060005b82811015611a9c57838181518110611a6f57611a6f6131a0565b6020026020010151868281518110611a8957611a896131a0565b6020908102919091010152600101611a55565b505050509250929050565b60055460ff1615611acb57604051630eceade960e31b815260040160405180910390fd5b303303611aeb57604051636edaef2f60e11b815260040160405180910390fd5b600260005403611b0e576040516306fda65d60e31b815260040160405180910390fd5b60026000908155338152600660205260409020805460ff1615611b4457604051630cd9ed5560e21b815260040160405180910390fd5b60006064600254601e611b5791906131b6565b611b6191906131cd565b905060006064600254600a611b7691906131b6565b611b8091906131cd565b6002546001546040516370a0823160e01b815233600482015292935090916001600160a01b03909116906370a0823190602401602060405180830381865afa158015611bd0573d6000803e3d6000fd5b505050506040513d601f19601f82011682018060405250810190611bf491906131e1565b1015611c1357604051631e9acf1760e31b815260040160405180910390fd5b825460ff19166001908117845542848201554360028501556007805433600081815260086020526040812083905593820183559183527fa66cc928b5edb82af9bd49922954155ab7b0942694bea4ce44661d9a8736c6880180546001600160a01b03191690911790556011805491611c8a83612fff565b909155505060075460011015611d05576000600b5483611caa9190613128565b600754909150600090611cbf90600190612fe6565b611cc990836131cd565b600754909150611cdb90600190612fe6565b611ce5908361318c565b600b8190555080600a6000828254611cfd9190613128565b909155505050505b600a5483600301819055508160036000828254611d229190613128565b925050819055508160046000828254611d3b9190613128565b925050819055508160126000828254611d549190613128565b925050819055508160136000828254611d6d9190613128565b925050819055508160146000828254611d869190613128565b925050819055508060156000828254611d9f9190613128565b90915550506001546001600160a01b0316611dbe813361dead86612999565b611dd36001600160a01b038216333086612999565b611de86001600160a01b038216333086612999565b611e1d6001600160a01b038216337f000000000000000000000000000000000000000000000000000000000000000085612999565b336001600160a01b03167fe6d1c0e418a42a777d49c66571075fc47bc1d92e7f506007ddde08d1ff182bbc6002548586878742436001601154611e609190612fe6565b604080519889526020890197909752958701949094526060860192909252608085015260a084015260c083015260e082015261010001610ece565b333014611ebb576040516327568d2f60e11b815260040160405180910390fd5b6001600160a01b038116611ee257604051634e46966960e11b815260040160405180910390fd5b6004546000819003611f07576040516365e52d5160e11b815260040160405180910390fd5b60006004819055600b55600154611f28906001600160a01b03168383612935565b5050565b6001600160a01b03811660009081526006602052604081205460ff16611f5457506000919050565b7f00000000000000000000000000000000000000000000000000000000000000006001600160a01b0316826001600160a01b0316148015611fb657506007547f0000000000000000000000000000000000000000000000000000000000000000115b15611fe257507f0000000000000000000000000000000000000000000000000000000000000000919050565b506001919050565b60078181548110611ffa57600080fd5b6000918252602090912001546001600160a01b0316905081565b333014612034576040516327568d2f60e11b815260040160405180910390fd5b6001600160a01b038416158061205157506001600160a01b038316155b1561206f57604051634e46966960e11b815260040160405180910390fd5b81600003612090576040516365e52d5160e11b815260040160405180910390fd5b6040516370a0823160e01b815230600482015282906001600160a01b038616906370a0823190602401602060405180830381865afa1580156120d6573d6000803e3d6000fd5b505050506040513d601f19601f820116820180604052508101906120fa91906131e1565b101561211957604051631e9acf1760e31b815260040160405180910390fd5b601054600c54811061213e57604051631dc0650160e31b815260040160405180910390fd5b836001600160a01b031681600080516020613217833981519152858560405161216892919061315d565b60405180910390a36114996001600160a01b0386168585612935565b60006060806000806000806000600c5489106121b357604051631dc0650160e31b815260040160405180910390fd5b6000898152600d60205260409020600781015442108015906121dc575080600601548160050154115b6001820154600583015460068401546007850154600a8601546002870180549698506001600160a01b0390951695600388019493929160ff16908990879061222390612f7b565b80601f016020809104026020016040519081016040528092919081815260200182805461224f90612f7b565b801561229c5780601f106122715761010080835404028352916020019161229c565b820191906000526020600020905b81548152906001019060200180831161227f57829003601f168201915b505050505096508580546122af90612f7b565b80601f01602080910402602001604051908101604052809291908181526020018280546122db90612f7b565b80156123285780601f106122fd57610100808354040283529160200191612328565b820191906000526020600020905b81548152906001019060200180831161230b57829003601f168201915b505050505095509850985098509850985098509850985050919395975091939597565b3360009081526006602052604090205460ff1661237b5760405163148fe22160e11b815260040160405180910390fd5b600c54821061239d57604051631dc0650160e31b815260040160405180910390fd5b6000828152600d60205260409020600781015442106123cf57604051637a19ed0560e01b815260040160405180910390fd5b336000908152600b8201602052604090205460ff161561240257604051637c9a1cf960e01b815260040160405180910390fd5b600881015433600090815260066020526040902060010154106124385760405163f078ca7360e01b815260040160405180910390fd5b336000818152600b8301602090815260408083208054600160ff199182168117909255600c870190935292208054909116851515179055906001600160a01b037f0000000000000000000000000000000000000000000000000000000000000000161480156124c857506007547f0000000000000000000000000000000000000000000000000000000000000000115b156124f057507f00000000000000000000000000000000000000000000000000000000000000005b8215612515578082600501600082825461250a9190613128565b9091555061252f9050565b808260060160008282546125299190613128565b90915550505b604080518415158152426020820152339186917fcbdf6214089cba887ecbf35a0b6a734589959c9763342c756bb2a80ca2bc9f6e910160405180910390a350505050565b333014612593576040516327568d2f60e11b815260040160405180910390fd5b6001600160a01b0382166125ba57604051634e46966960e11b815260040160405180910390fd5b6003546000036125dd57604051631ab9ebab60e01b815260040160405180910390fd5b601054600c54811061260257604051631dc0650160e31b815260040160405180910390fd5b6003805460009091556040516001600160a01b03851690839060008051602061321783398151915290612638908590889061315d565b60405180910390a36001546116e3906001600160a01b03168583612935565b3360009081526006602052604090205460ff166126875760405163148fe22160e11b815260040160405180910390fd5b6002600054036126aa576040516306fda65d60e31b815260040160405180910390fd5b600260009081556126ba33610ee1565b9050806000036126dd576040516373380d9960e01b815260040160405180910390fd5b6000600b546004546126ef9190612fe6565b9050818110156127125760405163bc6072f160e01b815260040160405180910390fd5b600a5433600090815260066020908152604080832060030193909355600990529081208054849290612745908490613128565b92505081905550816004600082825461275e9190612fe6565b909155505060015461277a906001600160a01b03163384612935565b6040805183815242602082015233917fc4e740509dbfae3377bc9925dd7bcc8aaba69cd730316216d76b2d24725c6366910160405180910390a250506001600055565b602081015160609060006001600160e01b0319821663329b926b60e11b14806127f657506001600160e01b0319821663524ddc2360e01b145b8061281157506001600160e01b03198216635440380160e01b145b8061282c57506001600160e01b0319821663d3493ced60e01b145b8061284757506001600160e01b03198216632f0a89a160e21b145b8061286257506001600160e01b03198216632641305560e11b145b8061287d57506001600160e01b031982166326c5320f60e21b145b90508061289d57604051631c49f4d160e01b815260040160405180910390fd5b600080306001600160a01b0316866040516128b891906131fa565b6000604051808303816000865af19150503d80600081146128f5576040519150601f19603f3d011682016040523d82523d6000602084013e6128fa565b606091505b50915091508161292c5780511561291357805160208201fd5b6040516331d436c760e01b815260040160405180910390fd5b95945050505050565b6040516001600160a01b0383811660248301526044820183905261299491859182169063a9059cbb906064015b604051602081830303815290604052915060e01b6020820180516001600160e01b0383818316178352505050506129d2565b505050565b6040516001600160a01b0384811660248301528381166044830152606482018390526116e39186918216906323b872dd90608401612962565b600080602060008451602086016000885af1806129f5576040513d6000823e3d81fd5b50506000513d91508115612a0d578060011415612a1a565b6001600160a01b0384163b155b156116e357604051635274afe760e01b81526001600160a01b038516600482015260240160405180910390fd5b600060208284031215612a5957600080fd5b5035919050565b60005b83811015612a7b578181015183820152602001612a63565b50506000910152565b60008151808452612a9c816020860160208601612a60565b601f01601f19169290920160200192915050565b8b81526001600160a01b038b16602082015261016060408201819052600090612adb8382018d612a84565b90508281036060840152612aef818c612a84565b90508281036080840152612b03818b612a84565b60a0840199909952505060c081019590955260e085019390935261010084019190915261012083015215156101409091015295945050505050565b80356001600160a01b0381168114612b5557600080fd5b919050565b600060208284031215612b6c57600080fd5b612b7582612b3e565b9392505050565b634e487b7160e01b600052604160045260246000fd5b600067ffffffffffffffff80841115612bad57612bad612b7c565b604051601f8501601f19908116603f01168101908282118183101715612bd557612bd5612b7c565b81604052809350858152868686011115612bee57600080fd5b858560208301376000602087830101525050509392505050565b600082601f830112612c1957600080fd5b612b7583833560208501612b92565b60008060008060808587031215612c3e57600080fd5b843567ffffffffffffffff80821115612c5657600080fd5b612c6288838901612c08565b95506020870135915080821115612c7857600080fd5b612c8488838901612c08565b94506040870135915080821115612c9a57600080fd5b508501601f81018713612cac57600080fd5b612cbb87823560208401612b92565b949793965093946060013593505050565b60008060408385031215612cdf57600080fd5b82359150612cef60208401612b3e565b90509250929050565b600080600060608486031215612d0d57600080fd5b612d1684612b3e565b925060208401359150604084013567ffffffffffffffff811115612d3957600080fd5b612d4586828701612c08565b9150509250925092565b60008060408385031215612d6257600080fd5b612d6b83612b3e565b946020939093013593505050565b60008151808452602080850194506020840160005b83811015612daa57815187529582019590820190600101612d8e565b509495945050505050565b602081526000612b756020830184612d79565b80358015158114612b5557600080fd5b600060208284031215612dea57600080fd5b612b7582612dc8565b60008060408385031215612e0657600080fd5b50508035926020909101359150565b604081526000612e286040830185612d79565b905082151560208301529392505050565b60008060008060808587031215612e4f57600080fd5b612e5885612b3e565b9350612e6660208601612b3e565b925060408501359150606085013567ffffffffffffffff811115612e8957600080fd5b612e9587828801612c08565b91505092959194509250565b6001600160a01b038916815261010060208201819052600090612ec68382018b612a84565b90508281036040840152612eda818a612a84565b60608401989098525050608081019490945260a0840192909252151560c0830152151560e0909101529392505050565b60008060408385031215612f1d57600080fd5b82359150612cef60208401612dc8565b60008060408385031215612f4057600080fd5b612f4983612b3e565b9150602083013567ffffffffffffffff811115612f6557600080fd5b612f7185828601612c08565b9150509250929050565b600181811c90821680612f8f57607f821691505b602082108103612faf57634e487b7160e01b600052602260045260246000fd5b50919050565b8215158152604060208201526000610f406040830184612a84565b634e487b7160e01b600052601160045260246000fd5b81810381811115612ff957612ff9612fd0565b92915050565b60006001820161301157613011612fd0565b5060010190565b601f821115612994576000816000526020600020601f850160051c810160208610156130415750805b601f850160051c820191505b818110156130605782815560010161304d565b505050505050565b815167ffffffffffffffff81111561308257613082612b7c565b613096816130908454612f7b565b84613018565b602080601f8311600181146130cb57600084156130b35750858301515b600019600386901b1c1916600185901b178555613060565b600085815260208120601f198616915b828110156130fa578886015182559484019460019091019084016130db565b50858210156131185787850151600019600388901b60f8161c191681555b5050505050600190811b01905550565b80820180821115612ff957612ff9612fd0565b60408152600061314e6040830185612a84565b90508260208301529392505050565b828152604060208201526000610f406040830184612a84565b634e487b7160e01b600052601260045260246000fd5b60008261319b5761319b613176565b500690565b634e487b7160e01b600052603260045260246000fd5b8082028115828204841417612ff957612ff9612fd0565b6000826131dc576131dc613176565b500490565b6000602082840312156131f357600080fd5b5051919050565b6000825161320c818460208701612a60565b919091019291505056fe1ba011ee074f0e08cc727335f32d75fb7ee71dc0a1e13bb9473e5650b0afd1a3a2646970667358221220241c6409c2c968915e4820d7f26c542ad88432f7cfa344773f3f713309ad315764736f6c63430008170033",
  "linkReferences": {},
  "deployedLinkReferences": {}
}