{
  "_format": "hh-sol-artifact-1",
  "contractName": "TEMPL",
  "sourceName": "contracts/TEMPL.sol",
  "abi": [
    {
      "inputs": [
        {
          "internalType": "address",
          "name": "_priest",
          "type": "address"
        },
        {
          "internalType": "address",
          "name": "_protocolFeeRecipient",
          "type": "address"
        },
        {
          "internalType": "address",
          "name": "_token",
          "type": "address"
        },
        {
          "internalType": "uint256",
          "name": "_entryFee",
          "type": "uint256"
        },
        {
          "internalType": "uint256",
          "name": "_burnPercent",
          "type": "uint256"
        },
        {
          "internalType": "uint256",
          "name": "_treasuryPercent",
          "type": "uint256"
        },
        {
          "internalType": "uint256",
          "name": "_memberPoolPercent",
          "type": "uint256"
        },
        {
          "internalType": "uint256",
          "name": "_protocolPercent",
          "type": "uint256"
        },
        {
          "internalType": "uint256",
          "name": "_quorumPercent",
          "type": "uint256"
        },
        {
          "internalType": "uint256",
          "name": "_executionDelay",
          "type": "uint256"
        },
        {
          "internalType": "address",
          "name": "_burnAddress",
          "type": "address"
        }
      ],
      "stateMutability": "nonpayable",
      "type": "constructor"
    },
    {
      "inputs": [],
      "name": "ActiveProposalExists",
      "type": "error"
    },
    {
      "inputs": [],
      "name": "AlreadyExecuted",
      "type": "error"
    },
    {
      "inputs": [],
      "name": "AlreadyPurchased",
      "type": "error"
    },
    {
      "inputs": [],
      "name": "AmountZero",
      "type": "error"
    },
    {
      "inputs": [],
      "name": "ContractPausedError",
      "type": "error"
    },
    {
      "inputs": [],
      "name": "EntryFeeTooSmall",
      "type": "error"
    },
    {
      "inputs": [],
      "name": "ExecutionDelayActive",
      "type": "error"
    },
    {
      "inputs": [],
      "name": "InsufficientBalance",
      "type": "error"
    },
    {
      "inputs": [],
      "name": "InsufficientPoolBalance",
      "type": "error"
    },
    {
      "inputs": [],
      "name": "InsufficientTreasuryBalance",
      "type": "error"
    },
    {
      "inputs": [],
      "name": "InvalidCallData",
      "type": "error"
    },
    {
      "inputs": [],
      "name": "InvalidEntryFee",
      "type": "error"
    },
    {
      "inputs": [],
      "name": "InvalidPercentage",
      "type": "error"
    },
    {
      "inputs": [],
      "name": "InvalidPercentageSplit",
      "type": "error"
    },
    {
      "inputs": [],
      "name": "InvalidProposal",
      "type": "error"
    },
    {
      "inputs": [],
      "name": "InvalidRecipient",
      "type": "error"
    },
    {
      "inputs": [],
      "name": "InvalidSender",
      "type": "error"
    },
    {
      "inputs": [],
      "name": "JoinedAfterProposal",
      "type": "error"
    },
    {
      "inputs": [],
      "name": "LimitOutOfRange",
      "type": "error"
    },
    {
      "inputs": [],
      "name": "NoMembers",
      "type": "error"
    },
    {
      "inputs": [],
      "name": "NoRewardsToClaim",
      "type": "error"
    },
    {
      "inputs": [],
      "name": "NoTreasuryFunds",
      "type": "error"
    },
    {
      "inputs": [],
      "name": "NotDAO",
      "type": "error"
    },
    {
      "inputs": [],
      "name": "NotMember",
      "type": "error"
    },
    {
      "inputs": [],
      "name": "ProposalExecutionFailed",
      "type": "error"
    },
    {
      "inputs": [],
      "name": "ProposalNotPassed",
      "type": "error"
    },
    {
      "inputs": [],
      "name": "QuorumNotReached",
      "type": "error"
    },
    {
      "inputs": [],
      "name": "ReentrancyGuardReentrantCall",
      "type": "error"
    },
    {
      "inputs": [
        {
          "internalType": "address",
          "name": "token",
          "type": "address"
        }
      ],
      "name": "SafeERC20FailedOperation",
      "type": "error"
    },
    {
      "inputs": [],
      "name": "TokenChangeDisabled",
      "type": "error"
    },
    {
      "inputs": [],
      "name": "VotingEnded",
      "type": "error"
    },
    {
      "inputs": [],
      "name": "VotingNotEnded",
      "type": "error"
    },
    {
      "inputs": [],
      "name": "VotingPeriodTooLong",
      "type": "error"
    },
    {
      "inputs": [],
      "name": "VotingPeriodTooShort",
      "type": "error"
    },
    {
      "anonymous": false,
      "inputs": [
        {
          "indexed": true,
          "internalType": "address",
          "name": "purchaser",
          "type": "address"
        },
        {
          "indexed": false,
          "internalType": "uint256",
          "name": "totalAmount",
          "type": "uint256"
        },
        {
          "indexed": false,
          "internalType": "uint256",
          "name": "burnedAmount",
          "type": "uint256"
        },
        {
          "indexed": false,
          "internalType": "uint256",
          "name": "treasuryAmount",
          "type": "uint256"
        },
        {
          "indexed": false,
          "internalType": "uint256",
          "name": "memberPoolAmount",
          "type": "uint256"
        },
        {
          "indexed": false,
          "internalType": "uint256",
          "name": "protocolAmount",
          "type": "uint256"
        },
        {
          "indexed": false,
          "internalType": "uint256",
          "name": "timestamp",
          "type": "uint256"
        },
        {
          "indexed": false,
          "internalType": "uint256",
          "name": "blockNumber",
          "type": "uint256"
        },
        {
          "indexed": false,
          "internalType": "uint256",
          "name": "purchaseId",
          "type": "uint256"
        }
      ],
      "name": "AccessPurchased",
      "type": "event"
    },
    {
      "anonymous": false,
      "inputs": [
        {
          "indexed": true,
          "internalType": "address",
          "name": "token",
          "type": "address"
        },
        {
          "indexed": false,
          "internalType": "uint256",
          "name": "entryFee",
          "type": "uint256"
        },
        {
          "indexed": false,
          "internalType": "uint256",
          "name": "burnPercent",
          "type": "uint256"
        },
        {
          "indexed": false,
          "internalType": "uint256",
          "name": "treasuryPercent",
          "type": "uint256"
        },
        {
          "indexed": false,
          "internalType": "uint256",
          "name": "memberPoolPercent",
          "type": "uint256"
        },
        {
          "indexed": false,
          "internalType": "uint256",
          "name": "protocolPercent",
          "type": "uint256"
        }
      ],
      "name": "ConfigUpdated",
      "type": "event"
    },
    {
      "anonymous": false,
      "inputs": [
        {
          "indexed": false,
          "internalType": "bool",
          "name": "isPaused",
          "type": "bool"
        }
      ],
      "name": "ContractPaused",
      "type": "event"
    },
    {
      "anonymous": false,
      "inputs": [
        {
          "indexed": true,
          "internalType": "address",
          "name": "token",
          "type": "address"
        },
        {
          "indexed": true,
          "internalType": "address",
          "name": "member",
          "type": "address"
        },
        {
          "indexed": false,
          "internalType": "uint256",
          "name": "amount",
          "type": "uint256"
        }
      ],
      "name": "ExternalRewardClaimed",
      "type": "event"
    },
    {
      "anonymous": false,
      "inputs": [
        {
          "indexed": true,
          "internalType": "address",
          "name": "member",
          "type": "address"
        },
        {
          "indexed": false,
          "internalType": "uint256",
          "name": "amount",
          "type": "uint256"
        },
        {
          "indexed": false,
          "internalType": "uint256",
          "name": "timestamp",
          "type": "uint256"
        }
      ],
      "name": "MemberPoolClaimed",
      "type": "event"
    },
    {
      "anonymous": false,
      "inputs": [
        {
          "indexed": true,
          "internalType": "address",
          "name": "oldPriest",
          "type": "address"
        },
        {
          "indexed": true,
          "internalType": "address",
          "name": "newPriest",
          "type": "address"
        }
      ],
      "name": "PriestChanged",
      "type": "event"
    },
    {
      "anonymous": false,
      "inputs": [
        {
          "indexed": true,
          "internalType": "uint256",
          "name": "proposalId",
          "type": "uint256"
        },
        {
          "indexed": true,
          "internalType": "address",
          "name": "proposer",
          "type": "address"
        },
        {
          "indexed": false,
          "internalType": "uint256",
          "name": "endTime",
          "type": "uint256"
        }
      ],
      "name": "ProposalCreated",
      "type": "event"
    },
    {
      "anonymous": false,
      "inputs": [
        {
          "indexed": true,
          "internalType": "uint256",
          "name": "proposalId",
          "type": "uint256"
        },
        {
          "indexed": false,
          "internalType": "bool",
          "name": "success",
          "type": "bool"
        },
        {
          "indexed": false,
          "internalType": "bytes",
          "name": "returnData",
          "type": "bytes"
        }
      ],
      "name": "ProposalExecuted",
      "type": "event"
    },
    {
      "anonymous": false,
      "inputs": [
        {
          "indexed": true,
          "internalType": "uint256",
          "name": "proposalId",
          "type": "uint256"
        },
        {
          "indexed": true,
          "internalType": "address",
          "name": "token",
          "type": "address"
        },
        {
          "indexed": true,
          "internalType": "address",
          "name": "recipient",
          "type": "address"
        },
        {
          "indexed": false,
          "internalType": "uint256",
          "name": "amount",
          "type": "uint256"
        },
        {
          "indexed": false,
          "internalType": "string",
          "name": "description",
          "type": "string"
        }
      ],
      "name": "TreasuryAction",
      "type": "event"
    },
    {
      "anonymous": false,
      "inputs": [
        {
          "indexed": true,
          "internalType": "uint256",
          "name": "proposalId",
          "type": "uint256"
        },
        {
          "indexed": true,
          "internalType": "address",
          "name": "token",
          "type": "address"
        },
        {
          "indexed": false,
          "internalType": "uint256",
          "name": "amount",
          "type": "uint256"
        },
        {
          "indexed": false,
          "internalType": "uint256",
          "name": "perMember",
          "type": "uint256"
        },
        {
          "indexed": false,
          "internalType": "uint256",
          "name": "remainder",
          "type": "uint256"
        }
      ],
      "name": "TreasuryDisbanded",
      "type": "event"
    },
    {
      "anonymous": false,
      "inputs": [
        {
          "indexed": true,
          "internalType": "uint256",
          "name": "proposalId",
          "type": "uint256"
        },
        {
          "indexed": true,
          "internalType": "address",
          "name": "voter",
          "type": "address"
        },
        {
          "indexed": false,
          "internalType": "bool",
          "name": "support",
          "type": "bool"
        },
        {
          "indexed": false,
          "internalType": "uint256",
          "name": "timestamp",
          "type": "uint256"
        }
      ],
      "name": "VoteCast",
      "type": "event"
    },
    {
      "inputs": [],
      "name": "DEFAULT_VOTING_PERIOD",
      "outputs": [
        {
          "internalType": "uint256",
          "name": "",
          "type": "uint256"
        }
      ],
      "stateMutability": "view",
      "type": "function"
    },
    {
      "inputs": [],
      "name": "MAX_VOTING_PERIOD",
      "outputs": [
        {
          "internalType": "uint256",
          "name": "",
          "type": "uint256"
        }
      ],
      "stateMutability": "view",
      "type": "function"
    },
    {
      "inputs": [],
      "name": "MIN_VOTING_PERIOD",
      "outputs": [
        {
          "internalType": "uint256",
          "name": "",
          "type": "uint256"
        }
      ],
      "stateMutability": "view",
      "type": "function"
    },
    {
      "inputs": [],
      "name": "accessToken",
      "outputs": [
        {
          "internalType": "address",
          "name": "",
          "type": "address"
        }
      ],
      "stateMutability": "view",
      "type": "function"
    },
    {
      "inputs": [
        {
          "internalType": "address",
          "name": "",
          "type": "address"
        }
      ],
      "name": "activeProposalId",
      "outputs": [
        {
          "internalType": "uint256",
          "name": "",
          "type": "uint256"
        }
      ],
      "stateMutability": "view",
      "type": "function"
    },
    {
      "inputs": [],
      "name": "burnAddress",
      "outputs": [
        {
          "internalType": "address",
          "name": "",
          "type": "address"
        }
      ],
      "stateMutability": "view",
      "type": "function"
    },
    {
      "inputs": [],
      "name": "burnPercent",
      "outputs": [
        {
          "internalType": "uint256",
          "name": "",
          "type": "uint256"
        }
      ],
      "stateMutability": "view",
      "type": "function"
    },
    {
      "inputs": [
        {
          "internalType": "address",
          "name": "newPriest",
          "type": "address"
        }
      ],
      "name": "changePriestDAO",
      "outputs": [],
      "stateMutability": "nonpayable",
      "type": "function"
    },
    {
      "inputs": [
        {
          "internalType": "address",
          "name": "token",
          "type": "address"
        }
      ],
      "name": "claimExternalToken",
      "outputs": [],
      "stateMutability": "nonpayable",
      "type": "function"
    },
    {
      "inputs": [],
      "name": "claimMemberPool",
      "outputs": [],
      "stateMutability": "nonpayable",
      "type": "function"
    },
    {
      "inputs": [
        {
          "internalType": "address",
          "name": "_newPriest",
          "type": "address"
        },
        {
          "internalType": "uint256",
          "name": "_votingPeriod",
          "type": "uint256"
        }
      ],
      "name": "createProposalChangePriest",
      "outputs": [
        {
          "internalType": "uint256",
          "name": "",
          "type": "uint256"
        }
      ],
      "stateMutability": "nonpayable",
      "type": "function"
    },
    {
      "inputs": [
        {
          "internalType": "address",
          "name": "_token",
          "type": "address"
        },
        {
          "internalType": "uint256",
          "name": "_votingPeriod",
          "type": "uint256"
        }
      ],
      "name": "createProposalDisbandTreasury",
      "outputs": [
        {
          "internalType": "uint256",
          "name": "",
          "type": "uint256"
        }
      ],
      "stateMutability": "nonpayable",
      "type": "function"
    },
    {
      "inputs": [
        {
          "internalType": "bool",
          "name": "_paused",
          "type": "bool"
        },
        {
          "internalType": "uint256",
          "name": "_votingPeriod",
          "type": "uint256"
        }
      ],
      "name": "createProposalSetPaused",
      "outputs": [
        {
          "internalType": "uint256",
          "name": "",
          "type": "uint256"
        }
      ],
      "stateMutability": "nonpayable",
      "type": "function"
    },
    {
      "inputs": [
        {
          "internalType": "uint256",
          "name": "_newEntryFee",
          "type": "uint256"
        },
        {
          "internalType": "uint256",
          "name": "_newBurnPercent",
          "type": "uint256"
        },
        {
          "internalType": "uint256",
          "name": "_newTreasuryPercent",
          "type": "uint256"
        },
        {
          "internalType": "uint256",
          "name": "_newMemberPoolPercent",
          "type": "uint256"
        },
        {
          "internalType": "bool",
          "name": "_updateFeeSplit",
          "type": "bool"
        },
        {
          "internalType": "uint256",
          "name": "_votingPeriod",
          "type": "uint256"
        }
      ],
      "name": "createProposalUpdateConfig",
      "outputs": [
        {
          "internalType": "uint256",
          "name": "",
          "type": "uint256"
        }
      ],
      "stateMutability": "nonpayable",
      "type": "function"
    },
    {
      "inputs": [
        {
          "internalType": "address",
          "name": "_token",
          "type": "address"
        },
        {
          "internalType": "address",
          "name": "_recipient",
          "type": "address"
        },
        {
          "internalType": "uint256",
          "name": "_amount",
          "type": "uint256"
        },
        {
          "internalType": "string",
          "name": "_reason",
          "type": "string"
        },
        {
          "internalType": "uint256",
          "name": "_votingPeriod",
          "type": "uint256"
        }
      ],
      "name": "createProposalWithdrawTreasury",
      "outputs": [
        {
          "internalType": "uint256",
          "name": "",
          "type": "uint256"
        }
      ],
      "stateMutability": "nonpayable",
      "type": "function"
    },
    {
      "inputs": [],
      "name": "cumulativeMemberRewards",
      "outputs": [
        {
          "internalType": "uint256",
          "name": "",
          "type": "uint256"
        }
      ],
      "stateMutability": "view",
      "type": "function"
    },
    {
      "inputs": [
        {
          "internalType": "address",
          "name": "token",
          "type": "address"
        }
      ],
      "name": "disbandTreasuryDAO",
      "outputs": [],
      "stateMutability": "nonpayable",
      "type": "function"
    },
    {
      "inputs": [],
      "name": "entryFee",
      "outputs": [
        {
          "internalType": "uint256",
          "name": "",
          "type": "uint256"
        }
      ],
      "stateMutability": "view",
      "type": "function"
    },
    {
      "inputs": [
        {
          "internalType": "uint256",
          "name": "_proposalId",
          "type": "uint256"
        }
      ],
      "name": "executeProposal",
      "outputs": [],
      "stateMutability": "nonpayable",
      "type": "function"
    },
    {
      "inputs": [],
      "name": "executionDelayAfterQuorum",
      "outputs": [
        {
          "internalType": "uint256",
          "name": "",
          "type": "uint256"
        }
      ],
      "stateMutability": "view",
      "type": "function"
    },
    {
      "inputs": [],
      "name": "getActiveProposals",
      "outputs": [
        {
          "internalType": "uint256[]",
          "name": "",
          "type": "uint256[]"
        }
      ],
      "stateMutability": "view",
      "type": "function"
    },
    {
      "inputs": [
        {
          "internalType": "uint256",
          "name": "offset",
          "type": "uint256"
        },
        {
          "internalType": "uint256",
          "name": "limit",
          "type": "uint256"
        }
      ],
      "name": "getActiveProposalsPaginated",
      "outputs": [
        {
          "internalType": "uint256[]",
          "name": "proposalIds",
          "type": "uint256[]"
        },
        {
          "internalType": "bool",
          "name": "hasMore",
          "type": "bool"
        }
      ],
      "stateMutability": "view",
      "type": "function"
    },
    {
      "inputs": [
        {
          "internalType": "address",
          "name": "member",
          "type": "address"
        },
        {
          "internalType": "address",
          "name": "token",
          "type": "address"
        }
      ],
      "name": "getClaimableExternalToken",
      "outputs": [
        {
          "internalType": "uint256",
          "name": "",
          "type": "uint256"
        }
      ],
      "stateMutability": "view",
      "type": "function"
    },
    {
      "inputs": [
        {
          "internalType": "address",
          "name": "member",
          "type": "address"
        }
      ],
      "name": "getClaimablePoolAmount",
      "outputs": [
        {
          "internalType": "uint256",
          "name": "",
          "type": "uint256"
        }
      ],
      "stateMutability": "view",
      "type": "function"
    },
    {
      "inputs": [],
      "name": "getConfig",
      "outputs": [
        {
          "internalType": "address",
          "name": "token",
          "type": "address"
        },
        {
          "internalType": "uint256",
          "name": "fee",
          "type": "uint256"
        },
        {
          "internalType": "bool",
          "name": "isPaused",
          "type": "bool"
        },
        {
          "internalType": "uint256",
          "name": "purchases",
          "type": "uint256"
        },
        {
          "internalType": "uint256",
          "name": "treasury",
          "type": "uint256"
        },
        {
          "internalType": "uint256",
          "name": "pool",
          "type": "uint256"
        },
        {
          "internalType": "uint256",
          "name": "burnPercentOut",
          "type": "uint256"
        },
        {
          "internalType": "uint256",
          "name": "treasuryPercentOut",
          "type": "uint256"
        },
        {
          "internalType": "uint256",
          "name": "memberPoolPercentOut",
          "type": "uint256"
        },
        {
          "internalType": "uint256",
          "name": "protocolPercentOut",
          "type": "uint256"
        }
      ],
      "stateMutability": "view",
      "type": "function"
    },
    {
      "inputs": [
        {
          "internalType": "address",
          "name": "token",
          "type": "address"
        }
      ],
      "name": "getExternalRewardState",
      "outputs": [
        {
          "internalType": "uint256",
          "name": "poolBalance",
          "type": "uint256"
        },
        {
          "internalType": "uint256",
          "name": "cumulativeRewards",
          "type": "uint256"
        },
        {
          "internalType": "uint256",
          "name": "remainder",
          "type": "uint256"
        }
      ],
      "stateMutability": "view",
      "type": "function"
    },
    {
      "inputs": [],
      "name": "getExternalRewardTokens",
      "outputs": [
        {
          "internalType": "address[]",
          "name": "",
          "type": "address[]"
        }
      ],
      "stateMutability": "view",
      "type": "function"
    },
    {
      "inputs": [],
      "name": "getMemberCount",
      "outputs": [
        {
          "internalType": "uint256",
          "name": "",
          "type": "uint256"
        }
      ],
      "stateMutability": "view",
      "type": "function"
    },
    {
      "inputs": [
        {
          "internalType": "uint256",
          "name": "_proposalId",
          "type": "uint256"
        }
      ],
      "name": "getProposal",
      "outputs": [
        {
          "internalType": "address",
          "name": "proposer",
          "type": "address"
        },
        {
          "internalType": "uint256",
          "name": "yesVotes",
          "type": "uint256"
        },
        {
          "internalType": "uint256",
          "name": "noVotes",
          "type": "uint256"
        },
        {
          "internalType": "uint256",
          "name": "endTime",
          "type": "uint256"
        },
        {
          "internalType": "bool",
          "name": "executed",
          "type": "bool"
        },
        {
          "internalType": "bool",
          "name": "passed",
          "type": "bool"
        }
      ],
      "stateMutability": "view",
      "type": "function"
    },
    {
      "inputs": [
        {
          "internalType": "uint256",
          "name": "_proposalId",
          "type": "uint256"
        }
      ],
      "name": "getProposalSnapshots",
      "outputs": [
        {
          "internalType": "uint256",
          "name": "eligibleVotersPreQuorum",
          "type": "uint256"
        },
        {
          "internalType": "uint256",
          "name": "eligibleVotersPostQuorum",
          "type": "uint256"
        },
        {
          "internalType": "uint256",
          "name": "preQuorumSnapshotBlock",
          "type": "uint256"
        },
        {
          "internalType": "uint256",
          "name": "quorumSnapshotBlock",
          "type": "uint256"
        },
        {
          "internalType": "uint256",
          "name": "createdAt",
          "type": "uint256"
        },
        {
          "internalType": "uint256",
          "name": "quorumReachedAt",
          "type": "uint256"
        }
      ],
      "stateMutability": "view",
      "type": "function"
    },
    {
      "inputs": [
        {
          "internalType": "address",
          "name": "user",
          "type": "address"
        }
      ],
      "name": "getPurchaseDetails",
      "outputs": [
        {
          "internalType": "bool",
          "name": "purchased",
          "type": "bool"
        },
        {
          "internalType": "uint256",
          "name": "timestamp",
          "type": "uint256"
        },
        {
          "internalType": "uint256",
          "name": "blockNum",
          "type": "uint256"
        }
      ],
      "stateMutability": "view",
      "type": "function"
    },
    {
      "inputs": [],
      "name": "getTreasuryInfo",
      "outputs": [
        {
          "internalType": "uint256",
          "name": "treasury",
          "type": "uint256"
        },
        {
          "internalType": "uint256",
          "name": "memberPool",
          "type": "uint256"
        },
        {
          "internalType": "uint256",
          "name": "totalReceived",
          "type": "uint256"
        },
        {
          "internalType": "uint256",
          "name": "totalBurnedAmount",
          "type": "uint256"
        },
        {
          "internalType": "uint256",
          "name": "totalProtocolFees",
          "type": "uint256"
        },
        {
          "internalType": "address",
          "name": "protocolAddress",
          "type": "address"
        }
      ],
      "stateMutability": "view",
      "type": "function"
    },
    {
      "inputs": [
        {
          "internalType": "address",
          "name": "voter",
          "type": "address"
        }
      ],
      "name": "getVoteWeight",
      "outputs": [
        {
          "internalType": "uint256",
          "name": "",
          "type": "uint256"
        }
      ],
      "stateMutability": "view",
      "type": "function"
    },
    {
      "inputs": [
        {
          "internalType": "address",
          "name": "user",
          "type": "address"
        }
      ],
      "name": "hasAccess",
      "outputs": [
        {
          "internalType": "bool",
          "name": "",
          "type": "bool"
        }
      ],
      "stateMutability": "view",
      "type": "function"
    },
    {
      "inputs": [
        {
          "internalType": "address",
          "name": "",
          "type": "address"
        }
      ],
      "name": "hasActiveProposal",
      "outputs": [
        {
          "internalType": "bool",
          "name": "",
          "type": "bool"
        }
      ],
      "stateMutability": "view",
      "type": "function"
    },
    {
      "inputs": [
        {
          "internalType": "uint256",
          "name": "_proposalId",
          "type": "uint256"
        },
        {
          "internalType": "address",
          "name": "_voter",
          "type": "address"
        }
      ],
      "name": "hasVoted",
      "outputs": [
        {
          "internalType": "bool",
          "name": "voted",
          "type": "bool"
        },
        {
          "internalType": "bool",
          "name": "support",
          "type": "bool"
        }
      ],
      "stateMutability": "view",
      "type": "function"
    },
    {
      "inputs": [
        {
          "internalType": "uint256",
          "name": "",
          "type": "uint256"
        }
      ],
      "name": "memberList",
      "outputs": [
        {
          "internalType": "address",
          "name": "",
          "type": "address"
        }
      ],
      "stateMutability": "view",
      "type": "function"
    },
    {
      "inputs": [],
      "name": "memberPoolBalance",
      "outputs": [
        {
          "internalType": "uint256",
          "name": "",
          "type": "uint256"
        }
      ],
      "stateMutability": "view",
      "type": "function"
    },
    {
      "inputs": [
        {
          "internalType": "address",
          "name": "",
          "type": "address"
        }
      ],
      "name": "memberPoolClaims",
      "outputs": [
        {
          "internalType": "uint256",
          "name": "",
          "type": "uint256"
        }
      ],
      "stateMutability": "view",
      "type": "function"
    },
    {
      "inputs": [],
      "name": "memberPoolPercent",
      "outputs": [
        {
          "internalType": "uint256",
          "name": "",
          "type": "uint256"
        }
      ],
      "stateMutability": "view",
      "type": "function"
    },
    {
      "inputs": [],
      "name": "memberRewardRemainder",
      "outputs": [
        {
          "internalType": "uint256",
          "name": "",
          "type": "uint256"
        }
      ],
      "stateMutability": "view",
      "type": "function"
    },
    {
      "inputs": [
        {
          "internalType": "address",
          "name": "",
          "type": "address"
        }
      ],
      "name": "members",
      "outputs": [
        {
          "internalType": "bool",
          "name": "purchased",
          "type": "bool"
        },
        {
          "internalType": "uint256",
          "name": "timestamp",
          "type": "uint256"
        },
        {
          "internalType": "uint256",
          "name": "block",
          "type": "uint256"
        },
        {
          "internalType": "uint256",
          "name": "rewardSnapshot",
          "type": "uint256"
        }
      ],
      "stateMutability": "view",
      "type": "function"
    },
    {
      "inputs": [],
      "name": "paused",
      "outputs": [
        {
          "internalType": "bool",
          "name": "",
          "type": "bool"
        }
      ],
      "stateMutability": "view",
      "type": "function"
    },
    {
      "inputs": [],
      "name": "priest",
      "outputs": [
        {
          "internalType": "address",
          "name": "",
          "type": "address"
        }
      ],
      "stateMutability": "view",
      "type": "function"
    },
    {
      "inputs": [],
      "name": "proposalCount",
      "outputs": [
        {
          "internalType": "uint256",
          "name": "",
          "type": "uint256"
        }
      ],
      "stateMutability": "view",
      "type": "function"
    },
    {
      "inputs": [
        {
          "internalType": "uint256",
          "name": "",
          "type": "uint256"
        }
      ],
      "name": "proposals",
      "outputs": [
        {
          "internalType": "uint256",
          "name": "id",
          "type": "uint256"
        },
        {
          "internalType": "address",
          "name": "proposer",
          "type": "address"
        },
        {
          "internalType": "enum TemplBase.Action",
          "name": "action",
          "type": "uint8"
        },
        {
          "internalType": "address",
          "name": "token",
          "type": "address"
        },
        {
          "internalType": "address",
          "name": "recipient",
          "type": "address"
        },
        {
          "internalType": "uint256",
          "name": "amount",
          "type": "uint256"
        },
        {
          "internalType": "string",
          "name": "reason",
          "type": "string"
        },
        {
          "internalType": "bool",
          "name": "paused",
          "type": "bool"
        },
        {
          "internalType": "uint256",
          "name": "newEntryFee",
          "type": "uint256"
        },
        {
          "internalType": "uint256",
          "name": "newBurnPercent",
          "type": "uint256"
        },
        {
          "internalType": "uint256",
          "name": "newTreasuryPercent",
          "type": "uint256"
        },
        {
          "internalType": "uint256",
          "name": "newMemberPoolPercent",
          "type": "uint256"
        },
        {
          "internalType": "uint256",
          "name": "yesVotes",
          "type": "uint256"
        },
        {
          "internalType": "uint256",
          "name": "noVotes",
          "type": "uint256"
        },
        {
          "internalType": "uint256",
          "name": "endTime",
          "type": "uint256"
        },
        {
          "internalType": "uint256",
          "name": "createdAt",
          "type": "uint256"
        },
        {
          "internalType": "bool",
          "name": "executed",
          "type": "bool"
        },
        {
          "internalType": "uint256",
          "name": "eligibleVoters",
          "type": "uint256"
        },
        {
          "internalType": "uint256",
          "name": "postQuorumEligibleVoters",
          "type": "uint256"
        },
        {
          "internalType": "uint256",
          "name": "quorumReachedAt",
          "type": "uint256"
        },
        {
          "internalType": "uint256",
          "name": "quorumSnapshotBlock",
          "type": "uint256"
        },
        {
          "internalType": "bool",
          "name": "quorumExempt",
          "type": "bool"
        },
        {
          "internalType": "bool",
          "name": "updateFeeSplit",
          "type": "bool"
        },
        {
          "internalType": "uint256",
          "name": "preQuorumSnapshotBlock",
          "type": "uint256"
        }
      ],
      "stateMutability": "view",
      "type": "function"
    },
    {
      "inputs": [],
      "name": "protocolFeeRecipient",
      "outputs": [
        {
          "internalType": "address",
          "name": "",
          "type": "address"
        }
      ],
      "stateMutability": "view",
      "type": "function"
    },
    {
      "inputs": [],
      "name": "protocolPercent",
      "outputs": [
        {
          "internalType": "uint256",
          "name": "",
          "type": "uint256"
        }
      ],
      "stateMutability": "view",
      "type": "function"
    },
    {
      "inputs": [],
      "name": "purchaseAccess",
      "outputs": [],
      "stateMutability": "nonpayable",
      "type": "function"
    },
    {
      "inputs": [],
      "name": "quorumPercent",
      "outputs": [
        {
          "internalType": "uint256",
          "name": "",
          "type": "uint256"
        }
      ],
      "stateMutability": "view",
      "type": "function"
    },
    {
      "inputs": [
        {
          "internalType": "bool",
          "name": "_paused",
          "type": "bool"
        }
      ],
      "name": "setPausedDAO",
      "outputs": [],
      "stateMutability": "nonpayable",
      "type": "function"
    },
    {
      "inputs": [],
      "name": "totalBurned",
      "outputs": [
        {
          "internalType": "uint256",
          "name": "",
          "type": "uint256"
        }
      ],
      "stateMutability": "view",
      "type": "function"
    },
    {
      "inputs": [],
      "name": "totalPurchases",
      "outputs": [
        {
          "internalType": "uint256",
          "name": "",
          "type": "uint256"
        }
      ],
      "stateMutability": "view",
      "type": "function"
    },
    {
      "inputs": [],
      "name": "totalToMemberPool",
      "outputs": [
        {
          "internalType": "uint256",
          "name": "",
          "type": "uint256"
        }
      ],
      "stateMutability": "view",
      "type": "function"
    },
    {
      "inputs": [],
      "name": "totalToProtocol",
      "outputs": [
        {
          "internalType": "uint256",
          "name": "",
          "type": "uint256"
        }
      ],
      "stateMutability": "view",
      "type": "function"
    },
    {
      "inputs": [],
      "name": "totalToTreasury",
      "outputs": [
        {
          "internalType": "uint256",
          "name": "",
          "type": "uint256"
        }
      ],
      "stateMutability": "view",
      "type": "function"
    },
    {
      "inputs": [],
      "name": "treasuryBalance",
      "outputs": [
        {
          "internalType": "uint256",
          "name": "",
          "type": "uint256"
        }
      ],
      "stateMutability": "view",
      "type": "function"
    },
    {
      "inputs": [],
      "name": "treasuryPercent",
      "outputs": [
        {
          "internalType": "uint256",
          "name": "",
          "type": "uint256"
        }
      ],
      "stateMutability": "view",
      "type": "function"
    },
    {
      "inputs": [
        {
          "internalType": "address",
          "name": "_token",
          "type": "address"
        },
        {
          "internalType": "uint256",
          "name": "_entryFee",
          "type": "uint256"
        },
        {
          "internalType": "bool",
          "name": "_updateFeeSplit",
          "type": "bool"
        },
        {
          "internalType": "uint256",
          "name": "_burnPercent",
          "type": "uint256"
        },
        {
          "internalType": "uint256",
          "name": "_treasuryPercent",
          "type": "uint256"
        },
        {
          "internalType": "uint256",
          "name": "_memberPoolPercent",
          "type": "uint256"
        }
      ],
      "name": "updateConfigDAO",
      "outputs": [],
      "stateMutability": "nonpayable",
      "type": "function"
    },
    {
      "inputs": [
        {
          "internalType": "uint256",
          "name": "_proposalId",
          "type": "uint256"
        },
        {
          "internalType": "bool",
          "name": "_support",
          "type": "bool"
        }
      ],
      "name": "vote",
      "outputs": [],
      "stateMutability": "nonpayable",
      "type": "function"
    },
    {
      "inputs": [
        {
          "internalType": "address",
          "name": "token",
          "type": "address"
        },
        {
          "internalType": "address",
          "name": "recipient",
          "type": "address"
        },
        {
          "internalType": "uint256",
          "name": "amount",
          "type": "uint256"
        },
        {
          "internalType": "string",
          "name": "reason",
          "type": "string"
        }
      ],
      "name": "withdrawTreasuryDAO",
      "outputs": [],
      "stateMutability": "nonpayable",
      "type": "function"
    },
    {
      "stateMutability": "payable",
      "type": "receive"
    }
  ],
  "bytecode": "0x61010034620002ce57601f62003fad38819003918201601f191683019291906001600160401b03841183851017620002d357816101609284926040968752833981010312620002ce576200005381620002e9565b6200006160208301620002e9565b906200006f848401620002e9565b606084015193608081015160a082015160c08301519060e08401519261010085015193620000a76101406101208801519701620002e9565b60016000556001600160a01b0399909790808b16158015620002c3575b620002b25791620000f39160649360a05260c05280608052620000ed86620000ed8787620002fe565b620002fe565b03620002a157600155600255600355806200027e575060216009555b8062000278575062093a805b600a5580831662000272575061dead5b60e052168015620002615781156200025057600a82106200023f57600a82066200022e57600480546001600160a01b0319169190911790556005556008805460ff1916905551613c8a90816200032382396080518181816104a801528181610f4f015281816112be01528181611ea6015281816134ab01526134fa015260a05181818161105f015281816114940152611907015260c0518181816103c4015281816104e1015281816105b401528181610ea501528181610fea0152818161132301528181611ca0015281816121e801528181612b8c01528181612fb80152818161328c015281816134d10152613586015260e05181818161146401526117c40152f35b8251636fe6a4c960e01b8152600490fd5b8251635eee050360e11b8152600490fd5b82516365e52d5160e11b8152600490fd5b8251634e46966960e11b8152600490fd5b6200012b565b6200011b565b6064811162000290576009556200010f565b8651631f3b85d360e01b8152600490fd5b895163542c8df360e11b8152600490fd5b8c51634e46966960e11b8152600490fd5b508a821615620000c4565b600080fd5b634e487b7160e01b600052604160045260246000fd5b51906001600160a01b0382168203620002ce57565b919082018092116200030c57565b634e487b7160e01b600052601160045260246000fdfe6101c060405260048036101561001e575b50361561001c57600080fd5b005b60003560e01c908163013cf08b1461260357816303807ee5146125e557816304ef9d58146125c7578163072ea61c146125a957816308ae4b0c146125485781630d61b519146120435781630f852b9a14611fec5781631808022a14611fc95781631df260a014611f015781631f4b1acb14611e0d578163215809ca14611181578163240d3a0614611c57578163313dab2014611c3957816332f974b314611bbf5781634385963214611b4f57816353eee21214611b235781635584c4f914611a585781635962a94114611a3a57816359c266ff14611a1c5781635c975abb146119f95781635fa7ddf0146119db578163640c4fa21461198c57816364653f291461193657816364df049e146118f1578163653724d6146118c85781636898b19c146118aa5781636a4994271461184b5781636ad18550146118115781637070ac48146117f357816370d5ae05146117ae57816371e86b6a14611729578163840634c5146117005781638f78bbc4146116be57816395a078e81461167f578163997072f71461166157816399e288d81461123d578163a51a46b91461121f578163a64e024a14611201578163a730117e146111de578163a81bbe3c146111a4578163adadef2714611186578163aedfe53f14611181578163b307fc6d14611128578163bdb75b341461110a578163bebc8fc0146110e3578163c1b57edb146110c5578163c293947114610fb4578163c3f909d414610e7d578163c470dd9014610cb6578163c7f758a814610bd5578163c9d27afe146108e2578163cfb5446014610862578163d402d4be1461054c578163d89135cd1461052e578163da35c66414610510578163e243c5fb146104cb578163f0a827a414610490578163f2be51ea14610457578163f7158b2a1461032c57508063f81cbd261461030e5763ffafe4ad146102ca5738610010565b34610309576020366003190112610309576001600160a01b036102eb6129a8565b166000526013602052602060ff604060002054166040519015158152f35b600080fd5b34610309576000366003190112610309576020600954604051908152f35b346103095760003660031901126103095733600052600b60205260ff60406000205416156104485761035c612f02565b61036533612ac8565b908115610439578161037c600754600f5490612abb565b1061042a5750600e5433600052600b602052600360406000200155600d60205260406000206103ac828254612a98565b90556103ba81600754612abb565b6007556103f181337f00000000000000000000000000000000000000000000000000000000000000006001600160a01b0316613852565b6040519081524260208201527fc4e740509dbfae3377bc9925dd7bcc8aaba69cd730316216d76b2d24725c636660403392a26001600055005b60405163bc6072f160e01b8152fd5b6040516373380d9960e01b8152fd5b60405163148fe22160e11b8152fd5b34610309576020366003190112610309576104706129a8565b3033036104805761001c90612f9f565b506040516327568d2f60e11b8152fd5b346103095760003660031901126103095760206040517f00000000000000000000000000000000000000000000000000000000000000008152f35b34610309576000366003190112610309576040517f00000000000000000000000000000000000000000000000000000000000000006001600160a01b03168152602090f35b34610309576000366003190112610309576020601054604051908152f35b34610309576000366003190112610309576020601554604051908152f35b34610309576080366003190112610309576105656129a8565b9061056e6129be565b60443560643567ffffffffffffffff8111610309576105909036908501612a51565b91303303610851576001600160a01b038181169590861561084057831561082f57807f0000000000000000000000000000000000000000000000000000000000000000169116948186146000146106e6576040516370a0823160e01b81523082820152602081602481865afa9081156106da576000916106a8575b506007549081811115610697579061062291612abb565b84116106885750916106618160009593600080516020613c3583398151915295610659600654808511158a14610682578490612abb565b600655613852565b61067d6040519283928352604060208401526040830190612968565b0390a4005b80612abb565b604051631c7b597b60e11b8152fd5b604051631c7b597b60e11b81528390fd5b90506020813d6020116106d2575b816106c36020938361288b565b8101031261030957518861060b565b3d91506106b6565b6040513d6000823e3d90fd5b9190508461077b57506000805260196020527fd2ac945fcc0096878c763e37d6929b78378c1a2defabde8ba7ee5ed1d6e7a5b2544790808211156107725761072d91612abb565b821161068857600080808085895af1610744612b34565b50156107635750600091600080516020613c3583398151915291610661565b6040516331d436c760e01b8152fd5b5050600061072d565b908460005260196020526040600020604051906370a0823160e01b825230838301526020826024818a5afa9182156106da576000926107fb575b5054808211156107f2576107c891612abb565b8311610688575091816107ed600080516020613c358339815191529360009587613852565b610661565b505060006107c8565b9091506020813d602011610827575b816108176020938361288b565b81010312610309575190886107b5565b3d915061080a565b6040516365e52d5160e11b81528690fd5b604051634e46966960e11b81528690fd5b6040516327568d2f60e11b81528490fd5b34610309576020366003190112610309578035906010548210156108d35750600052601160205260c0604060002060128101549060138101549060178101546015820154906014600e84015493015493604051958652602086015260408501526060840152608083015260a0820152f35b604051631dc0650160e31b8152fd5b346103095760403660031901126103095780356024803590811515938483036103095733600052600b9260209380855260ff6040600020541615610bc457601054861015610bb35785600052601192838652604060002093600d8501958654421015610ba25733600052838852604060002094601487019586548015600014610b7e575061097a906017890154600e8a015491613a03565b610b6d575b6010870133600052808a5260ff60406000205416848901808c5260ff60406000205416928c526040600020600160ff198254161790558b526109d18360406000209060ff801983541691151516179055565b610afe575015610ae65783860180549060018201809211610ad357555b60ff6016870154161580610aca575b610a38575b89898960405192835242908301527fcbdf6214089cba887ecbf35a0b6a734589959c9763342c756bb2a80ca2bc9f6e60403393a3005b6012860154918215159485610a82575b5050505050610a5b575b80808080610a02565b4290554360158201556013600c54910155610a78600a5442612a98565b9055838080610a52565b90919293945086015493606485029480860460641490151715610aba57505050610aae90600954612e57565b11158780808080610a48565b634e487b7160e01b600052526000fd5b508454156109fd565b505091634e487b7160e01b600052526000fd5b600c860180549060018201809211610ad357556109ee565b90508a81151503610b10575b506109ee565b15610b42578584018054600019810191908211610ad35755600c860180549060018201809211610ad357555b8a610b0a565b600c86018054600019810191908211610ad3575583860180549060018201809211610ad35755610b3c565b60405163f078ca7360e01b81528490fd5b6015890154610b8c92613a03565b1561097f5760405163f078ca7360e01b81528490fd5b604051637a19ed0560e01b81528390fd5b604051631dc0650160e31b81528390fd5b60405163148fe22160e11b81528390fd5b34610309576020366003190112610309578035906010548210156108d35750600052601160205260c0604060002060ff601682015416600014610c7d57600d81015442101580610c6c575b60018060a01b0360018301541691600b81015490600c81015460ff600f600d840154930154169260405195865260208601526040850152606084015215156080830152151560a0820152f35b50600b810154600c82015410610c20565b60148101548015610cae57600a54610c9491612a98565b4210158015610c205750600b810154600c82015410610c20565b506000610c20565b346103095760a036600319011261030957610ccf6129a8565b90610cd86129be565b906064359267ffffffffffffffff9384811161030957610cfb9036908401612a51565b936005610d09608435613619565b9095600194858301600160a11b60ff60a01b198254161790556002830160018060a01b0390816bffffffffffffffffffffffff60a01b931683825416179055600384019216908254161790556044358582015501928551918211610e685750610d728354612851565b601f8111610e21575b506020948590601f8311600114610dbf57928293918392600094610db4575b50501b916000199060031b1c19161790555b604051908152f35b015192508780610d9a565b90601f198316918560005283826000209360005b87828210610e0957505010610df0575b505050811b019055610dac565b015160001960f88460031b161c19169055858080610de3565b84860151875590950194938a01938692508a01610dd3565b836000526020600020601f830160051c81019160208410610e5e575b601f0160051c01905b818110610e535750610d7b565b600081558301610e46565b9091508190610e3d565b604190634e487b7160e01b6000525260246000fd5b34610309576000366003190112610309576040516370a0823160e01b815230918101919091527f00000000000000000000000000000000000000000000000000000000000000006001600160a01b0316602082602481845afa80156106da57600090610f80575b6007546101409350908180821115610f7657610eff91612abb565b905b6005549160ff6008541691601454916001549260025494600354966040519889526020890152151560408801526060870152608086015260a085015260c084015260e08301526101008201527f0000000000000000000000000000000000000000000000000000000000000000610120820152f35b5050600090610f01565b506020823d602011610fac575b81610f9a6020938361288b565b81010312610309576101409151610ee4565b3d9150610f8d565b34610309576000366003190112610309576040516370a0823160e01b815230918101919091526001600160a01b036020826024817f000000000000000000000000000000000000000000000000000000000000000085165afa9081156106da57600091611090575b60075460c093509182808211156110865761103691612abb565b915b601654601554906018549260405195865260208601526040850152606084015260808301527f00000000000000000000000000000000000000000000000000000000000000001660a0820152f35b5050600091611038565b90506020823d6020116110bd575b816110ab6020938361288b565b810103126103095760c091519061101c565b3d915061109e565b34610309576000366003190112610309576020601654604051908152f35b3461030957600036600319011261030957546040516001600160a01b039091168152602090f35b34610309576000366003190112610309576020601754604051908152f35b346103095760203660031901126103095735600c5481101561030957600c6000527fdf6966c971051c3d54ec59162606531493a51404a002842f56009d7e5cf4a8c701546040516001600160a01b039091168152602090f35b6129e3565b34610309576000366003190112610309576020600354604051908152f35b34610309576020366003190112610309576001600160a01b036111c56129a8565b16600052600d6020526020604060002054604051908152f35b34610309576020366003190112610309576020610dac6111fc6129a8565b612ed8565b3461030957600036600319011261030957602060405162278d008152f35b34610309576000366003190112610309576020600f54604051908152f35b346103095760003660031901126103095760ff600854166116525730331461164357611267612f02565b336000526020600b815260406000209182549260ff841661163357600554936001946064611296875483612e57565b0460646112a560025484612e57565b049160646112b560035483612e57565b049360646112e37f000000000000000000000000000000000000000000000000000000000000000084612e57565b04956112fc876112f7886112f78989612a98565b612a98565b83811061160d575b5061130f8686612a98565b6040516370a0823160e01b8152338a8201527f00000000000000000000000000000000000000000000000000000000000000006001600160a01b031694919391908b81602481895afa9081156106da576000916115e0575b50106115cf5760ff19168a17815542818b0155436002820155600c54600160401b8110156115ba578a810180600c558110156115a557600c6000527fdf6966c971051c3d54ec59162606531493a51404a002842f56009d7e5cf4a8c70180546001600160a01b03191633179055601454879291906113e490612c76565b601455600c548b811161153a575b506114bb9391611492916003600e5491015561141087600654612a98565b60065561141f88600754612a98565b60075561142e86601554612a98565b60155561143d87601654612a98565b60165561144c88601754612a98565b60175561145b84601854612a98565b60185561148a867f000000000000000000000000000000000000000000000000000000000000000033866139aa565b3033846139aa565b7f00000000000000000000000000000000000000000000000000000000000000009033906139aa565b6005549560145495600019870196871161152557506040519687528601526040850152606084015260808301524260a08301524360c083015260e08201527fe6d1c0e418a42a777d49c66571075fc47bc1d92e7f506007ddde08d1ff182bbc6101003392a2600055005b601190634e487b7160e01b6000525260246000fd5b9091925061154a600f5488612a98565b90600019810190811161159057926114bb949261158483611579876115738e9961149298612e6a565b92612b14565b600f55600e54612a98565b600e55915091936113f2565b60118a634e487b7160e01b6000525260246000fd5b603289634e487b7160e01b6000525260246000fd5b604189634e487b7160e01b6000525260246000fd5b604051631e9acf1760e31b81528990fd5b90508b81813d8311611606575b6115f7818361288b565b8101031261030957518d611367565b503d6115ed565b9461162c9061162661161f8887612abb565b8092612a98565b96612a98565b508a611304565b50604051630cd9ed5560e21b8152fd5b604051636edaef2f60e11b8152fd5b604051630eceade960e31b8152fd5b34610309576000366003190112610309576020600c54604051908152f35b34610309576020366003190112610309576001600160a01b036116a06129a8565b16600052600b602052602060ff604060002054166040519015158152f35b34610309576040366003190112610309576116e06116f4916024359035612caf565b604051928392604084526040840190612a01565b90151560208301520390f35b34610309576020366003190112610309576117196129a8565b3033036104805761001c90612f25565b34610309576040366003190112610309576020906117456129a8565b611750602435613619565b60018101805460ff60a01b1916600360a01b1790556002810180546001600160a01b0319166001600160a01b0394851617905592549092913391161461179a575b50604051908152f35b601601805460ff1916600117905582611791565b34610309576000366003190112610309576040517f00000000000000000000000000000000000000000000000000000000000000006001600160a01b03168152602090f35b34610309576000366003190112610309576020600a54604051908152f35b34610309576020366003190112610309576001600160a01b036118326129a8565b1660005260126020526020604060002054604051908152f35b34610309576020366003190112610309576001600160a01b0361186c6129a8565b166000526019602052604060002080546118a660026001840154930154604051938493846040919493926060820195825260208201520152565b0390f35b34610309576000366003190112610309576020600e54604051908152f35b34610309576020366003190112610309576118e16129d4565b3033036104805761001c906135ae565b34610309576000366003190112610309576040517f00000000000000000000000000000000000000000000000000000000000000006001600160a01b03168152602090f35b34610309576020366003190112610309576001600160a01b036119576129a8565b16600052600b6020526060604060002060ff815416906002600182015491015490604051921515835260208301526040820152f35b346103095760403660031901126103095760206006610dac6119ac6129d4565b6119b7602435613619565b6001819592950160ff60a01b198154169055019060ff801983541691151516179055565b34610309576000366003190112610309576020600754604051908152f35b3461030957600036600319011261030957602060ff600854166040519015158152f35b34610309576000366003190112610309576020601854604051908152f35b34610309576000366003190112610309576020601454604051908152f35b3461030957600036600319011261030957601054611a7581612c44565b9060009060005b818110611ace575050611a8e81612c44565b9160005b828110611aaf57604051602080825281906118a690820187612a01565b80611abc60019284612c85565b51611ac78287612c85565b5201611a92565b8060019160005260116020526040600020600d81015442109081611b13575b50611af9575b01611a7c565b80611b0d611b0686612c76565b9587612c85565b52611af3565b60ff9150600f0154161586611aed565b34610309576040366003190112610309576020610dac611b416129a8565b611b496129be565b90612b64565b34610309576040366003190112610309578035611b6a6129be565b90601054811015610bb357604092506000526011602052816000209060018060a01b031660005260108101602052601160ff836000205416910160205260ff8260002054168251911515825215156020820152f35b34610309576040366003190112610309576001600160a01b03611be06129a8565b16908115611c2a576020600383611bf8602435613619565b60018101805460ff60a01b1916600160a21b1790559290920180546001600160a01b0319169091179055604051908152f35b604051634e46966960e11b8152fd5b34610309576000366003190112610309576020600654604051908152f35b34610309576020908160031936011261030957611c726129a8565b9133600052600b815260ff6040600020541615611dfd57611c91612f02565b6001600160a01b0383811692907f0000000000000000000000000000000000000000000000000000000000000000168314611dee57826000526019825260406000209360ff60038601541615611dde57611ceb9033612b64565b938415611dde578054858110611dcd5785611d4891600184015433600052601b8752604060002088600052875260406000205533600052601c865260406000208760005286526040600020611d41838254612a98565b9055612abb565b905582611d9a57600080808087335af1611d60612b34565b501561076357507f26cd6ba06f6dc02c61247f710e95c768f4856af03b740594288907c36bb217e9905b6040519384523393a36001600055005b507f26cd6ba06f6dc02c61247f710e95c768f4856af03b740594288907c36bb217e990611dc8843385613852565b611d8a565b60405163bc6072f160e01b81528390fd5b506040516373380d9960e01b8152fd5b604051631c49f4d160e01b8152fd5b5060405163148fe22160e11b8152fd5b346103095760c03660031901126103095780356024359160443560643590608435801515938482036103095785611ed2575b509160209591601693611ea1575b611e5860a435613619565b93909660018501600160a01b60ff60a01b19825416179055600785015560088401556009830155600a820155019061ff0082549160081b169061ff001916179055604051908152f35b611ecd7f00000000000000000000000000000000000000000000000000000000000000008383866135ec565b611e4d565b600a8610611ef257600a860615611e3f57604051636fe6a4c960e01b8152fd5b604051635eee050360e11b8152fd5b346103095760003660031901126103095760405180601a5480835260208093018091601a6000527f057c384a7d1c54f3a1b2e5e67b2617b8224fdfd1ea7234eea573a6ff665ff63e9060005b86828210611fac578686611f638288038361288b565b604051928392818401908285525180915260408401929160005b828110611f8c57505050500390f35b83516001600160a01b031685528695509381019392810192600101611f7d565b83546001600160a01b031685529093019260019283019201611f4d565b34610309576020366003190112610309576020610dac611fe76129a8565b612ac8565b346103095760c0366003190112610309576120056129a8565b6044358015158103610309573033036120325761001c925060a43591608435916064359160243590613435565b6040516327568d2f60e11b81528390fd5b346103095760208060031936011261030957813591612060612f02565b6010548310156108d357826000526011825260406000206016810160ff92838254161560001461252d576014830154801561251d57600a546120a191612a98565b421061250e575b600f8301908154918583166124fe57600b850154600c86015410156124ee57600160ff19809416179055846001850160018060a01b039384825416600052601389528260406000205416806124dc575b6124bc575b505460a01c1660068110156124a757879080612154575050505050916121396060926006600080516020613c15833981519152950154166135ae565b60408051916001835282015260006040820152a26001600055005b939593600181036121a95750505092826121a4926060956002600080516020613c1583398151915298960154166007830154935493600884015492600a60098601549501549560081c1691613435565b612139565b91955091925060028103612446575050806002830154169181600382015416936121d960058284015493016128c3565b928515612436578215612426577f000000000000000000000000000000000000000000000000000000000000000016908482036122eb576040516370a0823160e01b815230828201528781602481865afa9081156106da576000916122be575b506007549081811115610697579061225091612abb565b83116106885750600080516020613c3583398151915285938361229b600080516020613c158339815191529997956060998c9661065960065480851115600014610682578490612abb565b6122b660405192839283526040898401526040830190612968565b0390a4612139565b90508781813d83116122e4575b6122d5818361288b565b81010312610309575189612239565b503d6122cb565b905083612367576000805260198652604060002047905480821160001461235e5761231591612abb565b821161068857600080808085895af161232c612b34565b501561076357509185600080516020613c3583398151915260609593600080516020613c15833981519152979561229b565b50506000612315565b83600052601986526040600020604051906370a0823160e01b825230838301528782602481895afa9182156106da576000926123f7575b5054808211156123ee576123b191612abb565b821161068857509185600080516020613c358339815191528593856123e9600080516020613c15833981519152999760609987613852565b61229b565b505060006123b1565b9091508781813d831161241f575b61240f818361288b565b810103126103095751908961239e565b503d612405565b506040516365e52d5160e11b8152fd5b50604051634e46966960e11b8152fd5b90939192919060038103612478575050606092600080516020613c15833981519152949260026121a493015416613272565b819293945014600014611dee5750916121a46060926003600080516020613c1583398151915295015416612f25565b602182634e487b7160e01b6000525260246000fd5b6013895260406000209081541690556012885260006040812055896120fd565b506012895289604060002054146120f8565b5060405163c8c93ba360e01b8152fd5b50604051630dc1019760e01b8152fd5b60405163a905056160e01b8152fd5b5060405163aa26a69360e01b8152fd5b600d8301544210156120a857604051633fc30bd160e11b8152fd5b34610309576020366003190112610309576001600160a01b036125696129a8565b16600052600b6020526080604060002060ff8154169060018101549060036002820154910154916040519315158452602084015260408301526060820152f35b34610309576000366003190112610309576020600554604051908152f35b34610309576000366003190112610309576020600254604051908152f35b34610309576000366003190112610309576020600154604051908152f35b3461030957602036600319011261030957803560009081526011602052604090206101a0819052805461012052600181015461016052600281015460038201548284015493926001600160a01b039283169290911690612665906005016128c3565b9360ff60066101a0510154166101005260076101a05101549460086101a051015460096101a0510154600a6101a051015490600b6101a051015492600c6101a051015494600d6101a051015496600e6101a05101549860ff600f6101a0510154169a60126101a05101549c60136101a051015460805260146101a051015460c05260156101a05101546101805260166101a05101546101405260176101a051015460e05260405160a0526101205160a0515260018060a01b036101605116602060a0510152600660ff6101605160a01c16101561283c57509061278093929160ff6101605160a01c16604060a0510152606060a0510152608060a051015260a08051015261030060c060a051015261030060a0510190612968565b9961010051151560e060a051015261010060a051015261012060a051015261014060a051015261016060a051015261018060a05101526101a060a05101526101c060a05101526101e060a0510152151561020060a051015261022060a051015260805161024060a051015260c05161026060a05101526101805161028060a051015260ff610140511615156102a060a051015260ff6101405160081c1615156102c060a051015260e0516102e060a051015260a051900360a051f35b602190634e487b7160e01b6000525260246000fd5b90600182811c92168015612881575b602083101461286b57565b634e487b7160e01b600052602260045260246000fd5b91607f1691612860565b90601f8019910116810190811067ffffffffffffffff8211176128ad57604052565b634e487b7160e01b600052604160045260246000fd5b906040519182600082546128d681612851565b908184526020946001916001811690816000146129465750600114612907575b5050506129059250038361288b565b565b600090815285812095935091905b81831061292e57505061290593508201013880806128f6565b85548884018501529485019487945091830191612915565b9250505061290594925060ff191682840152151560051b8201013880806128f6565b919082519283825260005b848110612994575050826000602080949584010152601f8019910116010190565b602081830181015184830182015201612973565b600435906001600160a01b038216820361030957565b602435906001600160a01b038216820361030957565b60043590811515820361030957565b3461030957600036600319011261030957602060405162093a808152f35b90815180825260208080930193019160005b828110612a21575050505090565b835185529381019392810192600101612a13565b67ffffffffffffffff81116128ad57601f01601f191660200190565b81601f8201121561030957803590612a6882612a35565b92612a76604051948561288b565b8284526020838301011161030957816000926020809301838601378301015290565b91908201809211612aa557565b634e487b7160e01b600052601160045260246000fd5b91908203918211612aa557565b6001600160a01b03166000908152600b60205260409020805460ff1615612b0e576003600e54910154808211600014612b0757612b0491612abb565b90565b5050600090565b50600090565b8115612b1e570690565b634e487b7160e01b600052601260045260246000fd5b3d15612b5f573d90612b4582612a35565b91612b53604051938461288b565b82523d6000602084013e565b606090565b60018060a01b0380911690600092828452600b60205260ff60408520541615612c26578116907f0000000000000000000000000000000000000000000000000000000000000000168114612c19578083526019602052604083209060ff60038301541615612c2657828452600b602052612be6604085206001840154936138be565b928452601b60205260408420908452602052604083205491808310612c1e575b5081811115612c1957612b049250612abb565b505090565b915038612c06565b50505090565b67ffffffffffffffff81116128ad5760051b60200190565b90612c4e82612c2c565b612c5b604051918261288b565b8281528092612c6c601f1991612c2c565b0190602036910137565b6000198114612aa55760010190565b8051821015612c995760209160051b010190565b634e487b7160e01b600052603260045260246000fd5b9181158015612e4d575b612e3b576010549283811015612e0b57612cd283612c44565b91600094825b81841080612e02575b15612d655750826000526011806020526040600020600d81015442109081612d55575b50612d3b575b6001840190818511612d275750612d219093612c76565b92612cd8565b634e487b7160e01b60005260045260246000fd5b83612d4f612d4889612c76565b9887612c85565b52612d0a565b60ff9150600f0154161538612d04565b959250909350600094818110612db2575b5050612d8181612c44565b9160005b828110612d93575050509190565b80612da060019284612c85565b51612dab8287612c85565b5201612d85565b5b81811015612d76578060005260116020526040600020600d81015442109081612df2575b50612de457600101612db3565b505092506001923880612d76565b60ff9150600f0154161538612dd7565b50858710612ce1565b509150506040516020810181811067ffffffffffffffff8211176128ad5760405260008152600036813790600090565b6040516381f396b760e01b8152600490fd5b5060648211612cb9565b81810292918115918404141715612aa557565b8115612b1e570490565b601a54600160401b8110156128ad576001810180601a55811015612c9957601a6000527f057c384a7d1c54f3a1b2e5e67b2617b8224fdfd1ea7234eea573a6ff665ff63e0180546001600160a01b0319166001600160a01b03909216919091179055565b6001600160a01b03166000908152600b602052604090205460ff1615612efd57600190565b600090565b600260005414612f13576002600055565b604051633ee5aeb560e01b8152600490fd5b6001600160a01b03908116908115612f8d5760045490811690818314612f7b576001600160a01b03191682176004557f0f3a6964a8ba1b7473a14630b029eae6d49bec6babf098223718bacaac7197cc600080a3565b604051631c49f4d160e01b8152600490fd5b604051634e46966960e11b8152600490fd5b600c54908115613260576001600160a01b0381811692907f00000000000000000000000000000000000000000000000000000000000000001683811461315a57506000836130e4575047905b8360005260196020526040600020918254808211156130d25761300d91612abb565b80156130d2576130b3600080516020613bf5833981519152936000958787526019602052600360408820019081549160ff8316156130b8575b505050613054838254612a98565b8155613096600282019161307d61306c845487612a98565b966130778189612e6a565b97612b14565b80936001830161308e898254612a98565b905555613ad6565b604051938493846040919493926060820195825260208201520152565b0390a3565b60016130ca9360ff1916179055612e74565b388080613046565b604051631ab9ebab60e01b8152600490fd5b6040516370a0823160e01b8152306004820152602081602481885afa91821561314e578092613116575b505090612feb565b9091506020823d602011613146575b816131326020938361288b565b81010312613143575051388061310e565b80fd5b3d9150613125565b604051903d90823e3d90fd5b6040516370a0823160e01b8152306004820152919250602090829060249082905afa9081156106da5760009161322e575b5060075491828211156130d257826131d86131b7600095600080516020613bf583398151915295612abb565b80926131d0600654808411158914610682578390612abb565b600655612a98565b6007556130b36131fe6131ed600f5484612a98565b936131f88186612e6a565b94612b14565b61320a84600e54612a98565b600e5580600f55604051938493846040919493926060820195825260208201520152565b90506020813d602011613258575b816132496020938361288b565b8101031261030957513861318b565b3d915061323c565b604051630292d7c360e51b8152600490fd5b90600c54918215613260576001600160a01b0381811693907f00000000000000000000000000000000000000000000000000000000000000001684811461338f5750600084613328575047915b8460005260196020526040600020928354808211156130d2576132e191612abb565b9081156130d257600080516020613bf5833981519152936130b39187600052601960205260036040600020019081549160ff8316156130b857505050613054838254612a98565b6040516370a0823160e01b8152306004820152602081602481895afa91821561314e57809261335a575b5050916132bf565b9091506020823d602011613387575b816133766020938361288b565b810103126131435750513880613352565b3d9150613369565b6040516370a0823160e01b81523060048201529250602090839060249082905afa9182156106da57600092613401575b50600754808311156130d2576131d86133e782600080516020613bf583398151915295612abb565b80926131d060065480841115600014610682578390612abb565b9091506020813d60201161342d575b8161341d6020938361288b565b81010312610309575190386133bf565b3d9150613410565b6001600160a01b0395949392919086168015159081613581575b5061356f5780613532575b506134f5575b5050507fa00a4448d1c98b3edafbf488446a8320c2cb278ba20dd49c7b5d41a7ebfd582b60a060055492600154600254600354916040519687526020870152604086015260608501527f000000000000000000000000000000000000000000000000000000000000000060808501527f00000000000000000000000000000000000000000000000000000000000000001692a2565b6135217f00000000000000000000000000000000000000000000000000000000000000008484846135ec565b600155600255600355388080613460565b600a811061355d57600a810661354b576005553861345a565b604051636fe6a4c960e01b8152600490fd5b604051635eee050360e11b8152600490fd5b60405163b078ee9d60e01b8152600490fd5b9050867f00000000000000000000000000000000000000000000000000000000000000001614153861344f565b60207f752d7e161ff5146f80e3820893176eb40532811e5e20400dfdde57455213706a91151560ff196008541660ff821617600855604051908152a1565b613600926112f7606495936112f793612a98565b0361360757565b60405163542c8df360e11b8152600490fd5b600091338352602091600b835260409060ff828620541615613841573385526013845260ff82862054166137d4575b806137ce575062093a80925b62093a8084106137bd5762278d0084116137ac577f3417b456fad6209c73445d5efd446d686e75e4560f0f50c13b5a5cde976447b46010549161369683612c76565b60105582968381526011825283856136cf81842099838b5560018b01336bffffffffffffffffffffffff60a01b82541617905542612a98565b92600d8a0193845542600e8b01554360178b0155600f8a0160ff199081815416905533825260108b01865282822060018282541617905560118b0186528282206001828254161790556001600b8c015581600c8c0155600c548060128d015560148c0183815560168d0183815416905581151580613796575b613773575b5050338252601386526001838320918254161790556012855220555493519384523393a3565b4290554360158d015560138c015561378d600a5442612a98565b8555388061374d565b506137a382600954612e57565b60641015613748565b815163eeeb962360e01b8152600490fd5b81516331806aeb60e21b8152600490fd5b92613654565b601284939294528385205485526011835283852060ff600f82015416159081613833575b501561380f57835163792c310960e11b8152600490fd5b929091923385526013845281852060ff198154169055601284528482812055613648565b600d915001544210386137f8565b815163148fe22160e11b8152600490fd5b60405163a9059cbb60e01b60208201526001600160a01b039092166024830152604480830193909352918152608081019167ffffffffffffffff8311828410176128ad5761290592604052613b98565b8054821015612c995760005260206000209060011b0190600090565b90600480830191825493841561399e57506002810154600180920154906000955b80871061390f5750505050508115612b07576000198201918211612aa557600191613909916138a2565b50015490565b6139198188612a98565b841c9061392682886138a2565b505467ffffffffffffffff908181168086101561394657505050506138df565b9299928511156139785750505083810180911161396357956138df565b601185634e487b7160e01b6000525260246000fd5b91989160401c1684101561398c57506138df565b965083810180911161396357956138df565b60010154949350505050565b6040516323b872dd60e01b60208201526001600160a01b03928316602482015292909116604483015260648083019390935291815260a081019181831067ffffffffffffffff8411176128ad5761290592604052613b98565b91908015613a46576002830154818111613a3d57149182613a2f575b5050613a2a57600090565b600190565b600101541190503880613a1f565b50505050600190565b505050600090565b8054600160401b8110156128ad57613a6b916001820181556138a2565b919091613ac0578051825460208301516fffffffffffffffffffffffffffffffff1990911667ffffffffffffffff9290921691909117604091821b67ffffffffffffffff60401b161783556001910151910155565b634e487b7160e01b600052600060045260246000fd5b67ffffffffffffffff6001820154906040519260608401848110838211176128ad57604052814316845260046020850191834216835260408601948552019384548015613b8a576000198101908111612aa557613b3390866138a2565b5094838654168483511614600014613b7b5750505183546fffffffffffffffff00000000000000001916911660401b67ffffffffffffffff60401b1617825560019051910155565b92509250506129059250613a4e565b509250505061290591613a4e565b906000602091828151910182855af1156106da576000513d613beb57506001600160a01b0381163b155b613bc95750565b604051635274afe760e01b81526001600160a01b039091166004820152602490fd5b60011415613bc256fef502c7eda43df8a8ec352065360db3486f90ce32849cf8182983d7939bfd3626af8f9d0e884d3306a083e846741a0bc4d75908e2b0ec63b558219652ae4c1b90d81f085560db5c809c425a15f00e3f2904e4fa46d6e8672ff2e671ccd6d9a231a26469706673582212207b9e9fd85c3159840835ca10631b3797f247b1e3d3ee3a9dade65d94ae39b68464736f6c63430008170033",
  "linkReferences": {},
  "deployedLinkReferences": {}
}