{
  "_format": "hh-sol-artifact-1",
  "contractName": "TEMPL",
  "sourceName": "contracts/TEMPL.sol",
  "abi": [
    {
      "inputs": [
        {
          "internalType": "address",
          "name": "_priest",
          "type": "address"
        },
        {
          "internalType": "address",
          "name": "_protocolFeeRecipient",
          "type": "address"
        },
        {
          "internalType": "address",
          "name": "_token",
          "type": "address"
        },
        {
          "internalType": "uint256",
          "name": "_entryFee",
          "type": "uint256"
        },
        {
          "internalType": "uint256",
          "name": "_burnPercent",
          "type": "uint256"
        },
        {
          "internalType": "uint256",
          "name": "_treasuryPercent",
          "type": "uint256"
        },
        {
          "internalType": "uint256",
          "name": "_memberPoolPercent",
          "type": "uint256"
        },
        {
          "internalType": "uint256",
          "name": "_protocolPercent",
          "type": "uint256"
        },
        {
          "internalType": "uint256",
          "name": "_quorumPercent",
          "type": "uint256"
        },
        {
          "internalType": "uint256",
          "name": "_executionDelay",
          "type": "uint256"
        },
        {
          "internalType": "address",
          "name": "_burnAddress",
          "type": "address"
        },
        {
          "internalType": "bool",
          "name": "_priestIsDictator",
          "type": "bool"
        },
        {
          "internalType": "uint256",
          "name": "_maxMembers",
          "type": "uint256"
        },
        {
          "internalType": "string",
          "name": "_homeLink",
          "type": "string"
        }
      ],
      "stateMutability": "nonpayable",
      "type": "constructor"
    },
    {
      "inputs": [],
      "name": "ActiveProposalExists",
      "type": "error"
    },
    {
      "inputs": [],
      "name": "AlreadyExecuted",
      "type": "error"
    },
    {
      "inputs": [],
      "name": "AlreadyPurchased",
      "type": "error"
    },
    {
      "inputs": [],
      "name": "AmountZero",
      "type": "error"
    },
    {
      "inputs": [],
      "name": "ContractPausedError",
      "type": "error"
    },
    {
      "inputs": [],
      "name": "DictatorshipEnabled",
      "type": "error"
    },
    {
      "inputs": [],
      "name": "DictatorshipUnchanged",
      "type": "error"
    },
    {
      "inputs": [],
      "name": "EntryFeeTooSmall",
      "type": "error"
    },
    {
      "inputs": [],
      "name": "ExecutionDelayActive",
      "type": "error"
    },
    {
      "inputs": [],
      "name": "ExternalRewardLimitReached",
      "type": "error"
    },
    {
      "inputs": [],
      "name": "InsufficientBalance",
      "type": "error"
    },
    {
      "inputs": [],
      "name": "InsufficientPoolBalance",
      "type": "error"
    },
    {
      "inputs": [],
      "name": "InsufficientTreasuryBalance",
      "type": "error"
    },
    {
      "inputs": [],
      "name": "InvalidCallData",
      "type": "error"
    },
    {
      "inputs": [],
      "name": "InvalidEntryFee",
      "type": "error"
    },
    {
      "inputs": [],
      "name": "InvalidPercentage",
      "type": "error"
    },
    {
      "inputs": [],
      "name": "InvalidPercentageSplit",
      "type": "error"
    },
    {
      "inputs": [],
      "name": "InvalidProposal",
      "type": "error"
    },
    {
      "inputs": [],
      "name": "InvalidRecipient",
      "type": "error"
    },
    {
      "inputs": [],
      "name": "InvalidSender",
      "type": "error"
    },
    {
      "inputs": [],
      "name": "JoinedAfterProposal",
      "type": "error"
    },
    {
      "inputs": [],
      "name": "LimitOutOfRange",
      "type": "error"
    },
    {
      "inputs": [],
      "name": "MemberLimitReached",
      "type": "error"
    },
    {
      "inputs": [],
      "name": "MemberLimitTooLow",
      "type": "error"
    },
    {
      "inputs": [],
      "name": "NoMembers",
      "type": "error"
    },
    {
      "inputs": [],
      "name": "NoRewardsToClaim",
      "type": "error"
    },
    {
      "inputs": [],
      "name": "NoTreasuryFunds",
      "type": "error"
    },
    {
      "inputs": [],
      "name": "NotDAO",
      "type": "error"
    },
    {
      "inputs": [],
      "name": "NotMember",
      "type": "error"
    },
    {
      "inputs": [],
      "name": "PriestOnly",
      "type": "error"
    },
    {
      "inputs": [],
      "name": "ProposalExecutionFailed",
      "type": "error"
    },
    {
      "inputs": [],
      "name": "ProposalNotPassed",
      "type": "error"
    },
    {
      "inputs": [],
      "name": "QuorumNotReached",
      "type": "error"
    },
    {
      "inputs": [],
      "name": "ReentrancyGuardReentrantCall",
      "type": "error"
    },
    {
      "inputs": [
        {
          "internalType": "address",
          "name": "token",
          "type": "address"
        }
      ],
      "name": "SafeERC20FailedOperation",
      "type": "error"
    },
    {
      "inputs": [],
      "name": "TokenChangeDisabled",
      "type": "error"
    },
    {
      "inputs": [],
      "name": "VotingEnded",
      "type": "error"
    },
    {
      "inputs": [],
      "name": "VotingNotEnded",
      "type": "error"
    },
    {
      "inputs": [],
      "name": "VotingPeriodTooLong",
      "type": "error"
    },
    {
      "inputs": [],
      "name": "VotingPeriodTooShort",
      "type": "error"
    },
    {
      "anonymous": false,
      "inputs": [
        {
          "indexed": true,
          "internalType": "address",
          "name": "purchaser",
          "type": "address"
        },
        {
          "indexed": false,
          "internalType": "uint256",
          "name": "totalAmount",
          "type": "uint256"
        },
        {
          "indexed": false,
          "internalType": "uint256",
          "name": "burnedAmount",
          "type": "uint256"
        },
        {
          "indexed": false,
          "internalType": "uint256",
          "name": "treasuryAmount",
          "type": "uint256"
        },
        {
          "indexed": false,
          "internalType": "uint256",
          "name": "memberPoolAmount",
          "type": "uint256"
        },
        {
          "indexed": false,
          "internalType": "uint256",
          "name": "protocolAmount",
          "type": "uint256"
        },
        {
          "indexed": false,
          "internalType": "uint256",
          "name": "timestamp",
          "type": "uint256"
        },
        {
          "indexed": false,
          "internalType": "uint256",
          "name": "blockNumber",
          "type": "uint256"
        },
        {
          "indexed": false,
          "internalType": "uint256",
          "name": "purchaseId",
          "type": "uint256"
        }
      ],
      "name": "AccessPurchased",
      "type": "event"
    },
    {
      "anonymous": false,
      "inputs": [
        {
          "indexed": true,
          "internalType": "address",
          "name": "token",
          "type": "address"
        },
        {
          "indexed": false,
          "internalType": "uint256",
          "name": "entryFee",
          "type": "uint256"
        },
        {
          "indexed": false,
          "internalType": "uint256",
          "name": "burnPercent",
          "type": "uint256"
        },
        {
          "indexed": false,
          "internalType": "uint256",
          "name": "treasuryPercent",
          "type": "uint256"
        },
        {
          "indexed": false,
          "internalType": "uint256",
          "name": "memberPoolPercent",
          "type": "uint256"
        },
        {
          "indexed": false,
          "internalType": "uint256",
          "name": "protocolPercent",
          "type": "uint256"
        }
      ],
      "name": "ConfigUpdated",
      "type": "event"
    },
    {
      "anonymous": false,
      "inputs": [
        {
          "indexed": false,
          "internalType": "bool",
          "name": "isPaused",
          "type": "bool"
        }
      ],
      "name": "ContractPaused",
      "type": "event"
    },
    {
      "anonymous": false,
      "inputs": [
        {
          "indexed": false,
          "internalType": "bool",
          "name": "enabled",
          "type": "bool"
        }
      ],
      "name": "DictatorshipModeChanged",
      "type": "event"
    },
    {
      "anonymous": false,
      "inputs": [
        {
          "indexed": true,
          "internalType": "address",
          "name": "token",
          "type": "address"
        },
        {
          "indexed": true,
          "internalType": "address",
          "name": "member",
          "type": "address"
        },
        {
          "indexed": false,
          "internalType": "uint256",
          "name": "amount",
          "type": "uint256"
        }
      ],
      "name": "ExternalRewardClaimed",
      "type": "event"
    },
    {
      "anonymous": false,
      "inputs": [
        {
          "indexed": false,
          "internalType": "uint256",
          "name": "maxMembers",
          "type": "uint256"
        }
      ],
      "name": "MaxMembersUpdated",
      "type": "event"
    },
    {
      "anonymous": false,
      "inputs": [
        {
          "indexed": true,
          "internalType": "address",
          "name": "member",
          "type": "address"
        },
        {
          "indexed": false,
          "internalType": "uint256",
          "name": "amount",
          "type": "uint256"
        },
        {
          "indexed": false,
          "internalType": "uint256",
          "name": "timestamp",
          "type": "uint256"
        }
      ],
      "name": "MemberPoolClaimed",
      "type": "event"
    },
    {
      "anonymous": false,
      "inputs": [
        {
          "indexed": true,
          "internalType": "address",
          "name": "oldPriest",
          "type": "address"
        },
        {
          "indexed": true,
          "internalType": "address",
          "name": "newPriest",
          "type": "address"
        }
      ],
      "name": "PriestChanged",
      "type": "event"
    },
    {
      "anonymous": false,
      "inputs": [
        {
          "indexed": true,
          "internalType": "uint256",
          "name": "proposalId",
          "type": "uint256"
        },
        {
          "indexed": true,
          "internalType": "address",
          "name": "proposer",
          "type": "address"
        },
        {
          "indexed": false,
          "internalType": "uint256",
          "name": "endTime",
          "type": "uint256"
        },
        {
          "indexed": false,
          "internalType": "string",
          "name": "title",
          "type": "string"
        },
        {
          "indexed": false,
          "internalType": "string",
          "name": "description",
          "type": "string"
        }
      ],
      "name": "ProposalCreated",
      "type": "event"
    },
    {
      "anonymous": false,
      "inputs": [
        {
          "indexed": true,
          "internalType": "uint256",
          "name": "proposalId",
          "type": "uint256"
        },
        {
          "indexed": false,
          "internalType": "bool",
          "name": "success",
          "type": "bool"
        },
        {
          "indexed": false,
          "internalType": "bytes",
          "name": "returnData",
          "type": "bytes"
        }
      ],
      "name": "ProposalExecuted",
      "type": "event"
    },
    {
      "anonymous": false,
      "inputs": [
        {
          "indexed": false,
          "internalType": "string",
          "name": "previousLink",
          "type": "string"
        },
        {
          "indexed": false,
          "internalType": "string",
          "name": "newLink",
          "type": "string"
        }
      ],
      "name": "TemplHomeLinkUpdated",
      "type": "event"
    },
    {
      "anonymous": false,
      "inputs": [
        {
          "indexed": true,
          "internalType": "uint256",
          "name": "proposalId",
          "type": "uint256"
        },
        {
          "indexed": true,
          "internalType": "address",
          "name": "token",
          "type": "address"
        },
        {
          "indexed": true,
          "internalType": "address",
          "name": "recipient",
          "type": "address"
        },
        {
          "indexed": false,
          "internalType": "uint256",
          "name": "amount",
          "type": "uint256"
        },
        {
          "indexed": false,
          "internalType": "string",
          "name": "description",
          "type": "string"
        }
      ],
      "name": "TreasuryAction",
      "type": "event"
    },
    {
      "anonymous": false,
      "inputs": [
        {
          "indexed": true,
          "internalType": "uint256",
          "name": "proposalId",
          "type": "uint256"
        },
        {
          "indexed": true,
          "internalType": "address",
          "name": "token",
          "type": "address"
        },
        {
          "indexed": false,
          "internalType": "uint256",
          "name": "amount",
          "type": "uint256"
        },
        {
          "indexed": false,
          "internalType": "uint256",
          "name": "perMember",
          "type": "uint256"
        },
        {
          "indexed": false,
          "internalType": "uint256",
          "name": "remainder",
          "type": "uint256"
        }
      ],
      "name": "TreasuryDisbanded",
      "type": "event"
    },
    {
      "anonymous": false,
      "inputs": [
        {
          "indexed": true,
          "internalType": "uint256",
          "name": "proposalId",
          "type": "uint256"
        },
        {
          "indexed": true,
          "internalType": "address",
          "name": "voter",
          "type": "address"
        },
        {
          "indexed": false,
          "internalType": "bool",
          "name": "support",
          "type": "bool"
        },
        {
          "indexed": false,
          "internalType": "uint256",
          "name": "timestamp",
          "type": "uint256"
        }
      ],
      "name": "VoteCast",
      "type": "event"
    },
    {
      "inputs": [],
      "name": "DEFAULT_VOTING_PERIOD",
      "outputs": [
        {
          "internalType": "uint256",
          "name": "",
          "type": "uint256"
        }
      ],
      "stateMutability": "view",
      "type": "function"
    },
    {
      "inputs": [],
      "name": "MAX_MEMBERS",
      "outputs": [
        {
          "internalType": "uint256",
          "name": "",
          "type": "uint256"
        }
      ],
      "stateMutability": "view",
      "type": "function"
    },
    {
      "inputs": [],
      "name": "MAX_VOTING_PERIOD",
      "outputs": [
        {
          "internalType": "uint256",
          "name": "",
          "type": "uint256"
        }
      ],
      "stateMutability": "view",
      "type": "function"
    },
    {
      "inputs": [],
      "name": "MIN_VOTING_PERIOD",
      "outputs": [
        {
          "internalType": "uint256",
          "name": "",
          "type": "uint256"
        }
      ],
      "stateMutability": "view",
      "type": "function"
    },
    {
      "inputs": [],
      "name": "accessToken",
      "outputs": [
        {
          "internalType": "address",
          "name": "",
          "type": "address"
        }
      ],
      "stateMutability": "view",
      "type": "function"
    },
    {
      "inputs": [
        {
          "internalType": "address",
          "name": "",
          "type": "address"
        }
      ],
      "name": "activeProposalId",
      "outputs": [
        {
          "internalType": "uint256",
          "name": "",
          "type": "uint256"
        }
      ],
      "stateMutability": "view",
      "type": "function"
    },
    {
      "inputs": [],
      "name": "burnAddress",
      "outputs": [
        {
          "internalType": "address",
          "name": "",
          "type": "address"
        }
      ],
      "stateMutability": "view",
      "type": "function"
    },
    {
      "inputs": [],
      "name": "burnPercent",
      "outputs": [
        {
          "internalType": "uint256",
          "name": "",
          "type": "uint256"
        }
      ],
      "stateMutability": "view",
      "type": "function"
    },
    {
      "inputs": [
        {
          "internalType": "address",
          "name": "newPriest",
          "type": "address"
        }
      ],
      "name": "changePriestDAO",
      "outputs": [],
      "stateMutability": "nonpayable",
      "type": "function"
    },
    {
      "inputs": [
        {
          "internalType": "address",
          "name": "token",
          "type": "address"
        }
      ],
      "name": "claimExternalToken",
      "outputs": [],
      "stateMutability": "nonpayable",
      "type": "function"
    },
    {
      "inputs": [],
      "name": "claimMemberPool",
      "outputs": [],
      "stateMutability": "nonpayable",
      "type": "function"
    },
    {
      "inputs": [
        {
          "internalType": "address",
          "name": "_newPriest",
          "type": "address"
        },
        {
          "internalType": "uint256",
          "name": "_votingPeriod",
          "type": "uint256"
        },
        {
          "internalType": "string",
          "name": "_title",
          "type": "string"
        },
        {
          "internalType": "string",
          "name": "_description",
          "type": "string"
        }
      ],
      "name": "createProposalChangePriest",
      "outputs": [
        {
          "internalType": "uint256",
          "name": "",
          "type": "uint256"
        }
      ],
      "stateMutability": "nonpayable",
      "type": "function"
    },
    {
      "inputs": [
        {
          "internalType": "address",
          "name": "_token",
          "type": "address"
        },
        {
          "internalType": "uint256",
          "name": "_votingPeriod",
          "type": "uint256"
        },
        {
          "internalType": "string",
          "name": "_title",
          "type": "string"
        },
        {
          "internalType": "string",
          "name": "_description",
          "type": "string"
        }
      ],
      "name": "createProposalDisbandTreasury",
      "outputs": [
        {
          "internalType": "uint256",
          "name": "",
          "type": "uint256"
        }
      ],
      "stateMutability": "nonpayable",
      "type": "function"
    },
    {
      "inputs": [
        {
          "internalType": "bool",
          "name": "_enable",
          "type": "bool"
        },
        {
          "internalType": "uint256",
          "name": "_votingPeriod",
          "type": "uint256"
        },
        {
          "internalType": "string",
          "name": "_title",
          "type": "string"
        },
        {
          "internalType": "string",
          "name": "_description",
          "type": "string"
        }
      ],
      "name": "createProposalSetDictatorship",
      "outputs": [
        {
          "internalType": "uint256",
          "name": "",
          "type": "uint256"
        }
      ],
      "stateMutability": "nonpayable",
      "type": "function"
    },
    {
      "inputs": [
        {
          "internalType": "string",
          "name": "_newLink",
          "type": "string"
        },
        {
          "internalType": "uint256",
          "name": "_votingPeriod",
          "type": "uint256"
        },
        {
          "internalType": "string",
          "name": "_title",
          "type": "string"
        },
        {
          "internalType": "string",
          "name": "_description",
          "type": "string"
        }
      ],
      "name": "createProposalSetHomeLink",
      "outputs": [
        {
          "internalType": "uint256",
          "name": "",
          "type": "uint256"
        }
      ],
      "stateMutability": "nonpayable",
      "type": "function"
    },
    {
      "inputs": [
        {
          "internalType": "uint256",
          "name": "_newMaxMembers",
          "type": "uint256"
        },
        {
          "internalType": "uint256",
          "name": "_votingPeriod",
          "type": "uint256"
        },
        {
          "internalType": "string",
          "name": "_title",
          "type": "string"
        },
        {
          "internalType": "string",
          "name": "_description",
          "type": "string"
        }
      ],
      "name": "createProposalSetMaxMembers",
      "outputs": [
        {
          "internalType": "uint256",
          "name": "",
          "type": "uint256"
        }
      ],
      "stateMutability": "nonpayable",
      "type": "function"
    },
    {
      "inputs": [
        {
          "internalType": "bool",
          "name": "_paused",
          "type": "bool"
        },
        {
          "internalType": "uint256",
          "name": "_votingPeriod",
          "type": "uint256"
        },
        {
          "internalType": "string",
          "name": "_title",
          "type": "string"
        },
        {
          "internalType": "string",
          "name": "_description",
          "type": "string"
        }
      ],
      "name": "createProposalSetPaused",
      "outputs": [
        {
          "internalType": "uint256",
          "name": "",
          "type": "uint256"
        }
      ],
      "stateMutability": "nonpayable",
      "type": "function"
    },
    {
      "inputs": [
        {
          "internalType": "uint256",
          "name": "_newEntryFee",
          "type": "uint256"
        },
        {
          "internalType": "uint256",
          "name": "_newBurnPercent",
          "type": "uint256"
        },
        {
          "internalType": "uint256",
          "name": "_newTreasuryPercent",
          "type": "uint256"
        },
        {
          "internalType": "uint256",
          "name": "_newMemberPoolPercent",
          "type": "uint256"
        },
        {
          "internalType": "bool",
          "name": "_updateFeeSplit",
          "type": "bool"
        },
        {
          "internalType": "uint256",
          "name": "_votingPeriod",
          "type": "uint256"
        },
        {
          "internalType": "string",
          "name": "_title",
          "type": "string"
        },
        {
          "internalType": "string",
          "name": "_description",
          "type": "string"
        }
      ],
      "name": "createProposalUpdateConfig",
      "outputs": [
        {
          "internalType": "uint256",
          "name": "",
          "type": "uint256"
        }
      ],
      "stateMutability": "nonpayable",
      "type": "function"
    },
    {
      "inputs": [
        {
          "internalType": "address",
          "name": "_token",
          "type": "address"
        },
        {
          "internalType": "address",
          "name": "_recipient",
          "type": "address"
        },
        {
          "internalType": "uint256",
          "name": "_amount",
          "type": "uint256"
        },
        {
          "internalType": "string",
          "name": "_reason",
          "type": "string"
        },
        {
          "internalType": "uint256",
          "name": "_votingPeriod",
          "type": "uint256"
        },
        {
          "internalType": "string",
          "name": "_title",
          "type": "string"
        },
        {
          "internalType": "string",
          "name": "_description",
          "type": "string"
        }
      ],
      "name": "createProposalWithdrawTreasury",
      "outputs": [
        {
          "internalType": "uint256",
          "name": "",
          "type": "uint256"
        }
      ],
      "stateMutability": "nonpayable",
      "type": "function"
    },
    {
      "inputs": [],
      "name": "cumulativeMemberRewards",
      "outputs": [
        {
          "internalType": "uint256",
          "name": "",
          "type": "uint256"
        }
      ],
      "stateMutability": "view",
      "type": "function"
    },
    {
      "inputs": [
        {
          "internalType": "address",
          "name": "token",
          "type": "address"
        }
      ],
      "name": "disbandTreasuryDAO",
      "outputs": [],
      "stateMutability": "nonpayable",
      "type": "function"
    },
    {
      "inputs": [],
      "name": "entryFee",
      "outputs": [
        {
          "internalType": "uint256",
          "name": "",
          "type": "uint256"
        }
      ],
      "stateMutability": "view",
      "type": "function"
    },
    {
      "inputs": [
        {
          "internalType": "uint256",
          "name": "_proposalId",
          "type": "uint256"
        }
      ],
      "name": "executeProposal",
      "outputs": [],
      "stateMutability": "nonpayable",
      "type": "function"
    },
    {
      "inputs": [],
      "name": "executionDelayAfterQuorum",
      "outputs": [
        {
          "internalType": "uint256",
          "name": "",
          "type": "uint256"
        }
      ],
      "stateMutability": "view",
      "type": "function"
    },
    {
      "inputs": [],
      "name": "getActiveProposals",
      "outputs": [
        {
          "internalType": "uint256[]",
          "name": "",
          "type": "uint256[]"
        }
      ],
      "stateMutability": "view",
      "type": "function"
    },
    {
      "inputs": [
        {
          "internalType": "uint256",
          "name": "offset",
          "type": "uint256"
        },
        {
          "internalType": "uint256",
          "name": "limit",
          "type": "uint256"
        }
      ],
      "name": "getActiveProposalsPaginated",
      "outputs": [
        {
          "internalType": "uint256[]",
          "name": "proposalIds",
          "type": "uint256[]"
        },
        {
          "internalType": "bool",
          "name": "hasMore",
          "type": "bool"
        }
      ],
      "stateMutability": "view",
      "type": "function"
    },
    {
      "inputs": [
        {
          "internalType": "address",
          "name": "member",
          "type": "address"
        },
        {
          "internalType": "address",
          "name": "token",
          "type": "address"
        }
      ],
      "name": "getClaimableExternalToken",
      "outputs": [
        {
          "internalType": "uint256",
          "name": "amount",
          "type": "uint256"
        }
      ],
      "stateMutability": "view",
      "type": "function"
    },
    {
      "inputs": [
        {
          "internalType": "address",
          "name": "member",
          "type": "address"
        }
      ],
      "name": "getClaimablePoolAmount",
      "outputs": [
        {
          "internalType": "uint256",
          "name": "",
          "type": "uint256"
        }
      ],
      "stateMutability": "view",
      "type": "function"
    },
    {
      "inputs": [],
      "name": "getConfig",
      "outputs": [
        {
          "internalType": "address",
          "name": "token",
          "type": "address"
        },
        {
          "internalType": "uint256",
          "name": "fee",
          "type": "uint256"
        },
        {
          "internalType": "bool",
          "name": "isPaused",
          "type": "bool"
        },
        {
          "internalType": "uint256",
          "name": "purchases",
          "type": "uint256"
        },
        {
          "internalType": "uint256",
          "name": "treasury",
          "type": "uint256"
        },
        {
          "internalType": "uint256",
          "name": "pool",
          "type": "uint256"
        },
        {
          "internalType": "uint256",
          "name": "burnPercentOut",
          "type": "uint256"
        },
        {
          "internalType": "uint256",
          "name": "treasuryPercentOut",
          "type": "uint256"
        },
        {
          "internalType": "uint256",
          "name": "memberPoolPercentOut",
          "type": "uint256"
        },
        {
          "internalType": "uint256",
          "name": "protocolPercentOut",
          "type": "uint256"
        }
      ],
      "stateMutability": "view",
      "type": "function"
    },
    {
      "inputs": [
        {
          "internalType": "address",
          "name": "token",
          "type": "address"
        }
      ],
      "name": "getExternalRewardState",
      "outputs": [
        {
          "internalType": "uint256",
          "name": "poolBalance",
          "type": "uint256"
        },
        {
          "internalType": "uint256",
          "name": "cumulativeRewards",
          "type": "uint256"
        },
        {
          "internalType": "uint256",
          "name": "remainder",
          "type": "uint256"
        }
      ],
      "stateMutability": "view",
      "type": "function"
    },
    {
      "inputs": [],
      "name": "getExternalRewardTokens",
      "outputs": [
        {
          "internalType": "address[]",
          "name": "tokens",
          "type": "address[]"
        }
      ],
      "stateMutability": "view",
      "type": "function"
    },
    {
      "inputs": [],
      "name": "getMemberCount",
      "outputs": [
        {
          "internalType": "uint256",
          "name": "",
          "type": "uint256"
        }
      ],
      "stateMutability": "view",
      "type": "function"
    },
    {
      "inputs": [
        {
          "internalType": "uint256",
          "name": "_proposalId",
          "type": "uint256"
        }
      ],
      "name": "getProposal",
      "outputs": [
        {
          "internalType": "address",
          "name": "proposer",
          "type": "address"
        },
        {
          "internalType": "uint256",
          "name": "yesVotes",
          "type": "uint256"
        },
        {
          "internalType": "uint256",
          "name": "noVotes",
          "type": "uint256"
        },
        {
          "internalType": "uint256",
          "name": "endTime",
          "type": "uint256"
        },
        {
          "internalType": "bool",
          "name": "executed",
          "type": "bool"
        },
        {
          "internalType": "bool",
          "name": "passed",
          "type": "bool"
        },
        {
          "internalType": "string",
          "name": "title",
          "type": "string"
        },
        {
          "internalType": "string",
          "name": "description",
          "type": "string"
        }
      ],
      "stateMutability": "view",
      "type": "function"
    },
    {
      "inputs": [
        {
          "internalType": "uint256",
          "name": "_proposalId",
          "type": "uint256"
        }
      ],
      "name": "getProposalSnapshots",
      "outputs": [
        {
          "internalType": "uint256",
          "name": "eligibleVotersPreQuorum",
          "type": "uint256"
        },
        {
          "internalType": "uint256",
          "name": "eligibleVotersPostQuorum",
          "type": "uint256"
        },
        {
          "internalType": "uint256",
          "name": "preQuorumSnapshotBlock",
          "type": "uint256"
        },
        {
          "internalType": "uint256",
          "name": "quorumSnapshotBlock",
          "type": "uint256"
        },
        {
          "internalType": "uint256",
          "name": "createdAt",
          "type": "uint256"
        },
        {
          "internalType": "uint256",
          "name": "quorumReachedAt",
          "type": "uint256"
        }
      ],
      "stateMutability": "view",
      "type": "function"
    },
    {
      "inputs": [
        {
          "internalType": "address",
          "name": "user",
          "type": "address"
        }
      ],
      "name": "getPurchaseDetails",
      "outputs": [
        {
          "internalType": "bool",
          "name": "purchased",
          "type": "bool"
        },
        {
          "internalType": "uint256",
          "name": "timestamp",
          "type": "uint256"
        },
        {
          "internalType": "uint256",
          "name": "blockNum",
          "type": "uint256"
        }
      ],
      "stateMutability": "view",
      "type": "function"
    },
    {
      "inputs": [],
      "name": "getTreasuryInfo",
      "outputs": [
        {
          "internalType": "uint256",
          "name": "treasury",
          "type": "uint256"
        },
        {
          "internalType": "uint256",
          "name": "memberPool",
          "type": "uint256"
        },
        {
          "internalType": "address",
          "name": "protocolAddress",
          "type": "address"
        }
      ],
      "stateMutability": "view",
      "type": "function"
    },
    {
      "inputs": [
        {
          "internalType": "address",
          "name": "voter",
          "type": "address"
        }
      ],
      "name": "getVoteWeight",
      "outputs": [
        {
          "internalType": "uint256",
          "name": "weight",
          "type": "uint256"
        }
      ],
      "stateMutability": "view",
      "type": "function"
    },
    {
      "inputs": [
        {
          "internalType": "address",
          "name": "user",
          "type": "address"
        }
      ],
      "name": "hasAccess",
      "outputs": [
        {
          "internalType": "bool",
          "name": "",
          "type": "bool"
        }
      ],
      "stateMutability": "view",
      "type": "function"
    },
    {
      "inputs": [
        {
          "internalType": "address",
          "name": "",
          "type": "address"
        }
      ],
      "name": "hasActiveProposal",
      "outputs": [
        {
          "internalType": "bool",
          "name": "",
          "type": "bool"
        }
      ],
      "stateMutability": "view",
      "type": "function"
    },
    {
      "inputs": [
        {
          "internalType": "uint256",
          "name": "_proposalId",
          "type": "uint256"
        },
        {
          "internalType": "address",
          "name": "_voter",
          "type": "address"
        }
      ],
      "name": "hasVoted",
      "outputs": [
        {
          "internalType": "bool",
          "name": "voted",
          "type": "bool"
        },
        {
          "internalType": "bool",
          "name": "support",
          "type": "bool"
        }
      ],
      "stateMutability": "view",
      "type": "function"
    },
    {
      "inputs": [],
      "name": "memberCount",
      "outputs": [
        {
          "internalType": "uint256",
          "name": "",
          "type": "uint256"
        }
      ],
      "stateMutability": "view",
      "type": "function"
    },
    {
      "inputs": [],
      "name": "memberPoolBalance",
      "outputs": [
        {
          "internalType": "uint256",
          "name": "",
          "type": "uint256"
        }
      ],
      "stateMutability": "view",
      "type": "function"
    },
    {
      "inputs": [
        {
          "internalType": "address",
          "name": "",
          "type": "address"
        }
      ],
      "name": "memberPoolClaims",
      "outputs": [
        {
          "internalType": "uint256",
          "name": "",
          "type": "uint256"
        }
      ],
      "stateMutability": "view",
      "type": "function"
    },
    {
      "inputs": [],
      "name": "memberPoolPercent",
      "outputs": [
        {
          "internalType": "uint256",
          "name": "",
          "type": "uint256"
        }
      ],
      "stateMutability": "view",
      "type": "function"
    },
    {
      "inputs": [],
      "name": "memberRewardRemainder",
      "outputs": [
        {
          "internalType": "uint256",
          "name": "",
          "type": "uint256"
        }
      ],
      "stateMutability": "view",
      "type": "function"
    },
    {
      "inputs": [
        {
          "internalType": "address",
          "name": "",
          "type": "address"
        }
      ],
      "name": "members",
      "outputs": [
        {
          "internalType": "bool",
          "name": "purchased",
          "type": "bool"
        },
        {
          "internalType": "uint256",
          "name": "timestamp",
          "type": "uint256"
        },
        {
          "internalType": "uint256",
          "name": "block",
          "type": "uint256"
        },
        {
          "internalType": "uint256",
          "name": "rewardSnapshot",
          "type": "uint256"
        }
      ],
      "stateMutability": "view",
      "type": "function"
    },
    {
      "inputs": [],
      "name": "paused",
      "outputs": [
        {
          "internalType": "bool",
          "name": "",
          "type": "bool"
        }
      ],
      "stateMutability": "view",
      "type": "function"
    },
    {
      "inputs": [],
      "name": "priest",
      "outputs": [
        {
          "internalType": "address",
          "name": "",
          "type": "address"
        }
      ],
      "stateMutability": "view",
      "type": "function"
    },
    {
      "inputs": [],
      "name": "priestIsDictator",
      "outputs": [
        {
          "internalType": "bool",
          "name": "",
          "type": "bool"
        }
      ],
      "stateMutability": "view",
      "type": "function"
    },
    {
      "inputs": [],
      "name": "proposalCount",
      "outputs": [
        {
          "internalType": "uint256",
          "name": "",
          "type": "uint256"
        }
      ],
      "stateMutability": "view",
      "type": "function"
    },
    {
      "inputs": [
        {
          "internalType": "uint256",
          "name": "",
          "type": "uint256"
        }
      ],
      "name": "proposals",
      "outputs": [
        {
          "internalType": "uint256",
          "name": "id",
          "type": "uint256"
        },
        {
          "internalType": "address",
          "name": "proposer",
          "type": "address"
        },
        {
          "internalType": "enum TemplBase.Action",
          "name": "action",
          "type": "uint8"
        },
        {
          "internalType": "address",
          "name": "token",
          "type": "address"
        },
        {
          "internalType": "address",
          "name": "recipient",
          "type": "address"
        },
        {
          "internalType": "uint256",
          "name": "amount",
          "type": "uint256"
        },
        {
          "internalType": "string",
          "name": "title",
          "type": "string"
        },
        {
          "internalType": "string",
          "name": "description",
          "type": "string"
        },
        {
          "internalType": "string",
          "name": "reason",
          "type": "string"
        },
        {
          "internalType": "bool",
          "name": "paused",
          "type": "bool"
        },
        {
          "internalType": "uint256",
          "name": "newEntryFee",
          "type": "uint256"
        },
        {
          "internalType": "uint256",
          "name": "newBurnPercent",
          "type": "uint256"
        },
        {
          "internalType": "uint256",
          "name": "newTreasuryPercent",
          "type": "uint256"
        },
        {
          "internalType": "uint256",
          "name": "newMemberPoolPercent",
          "type": "uint256"
        },
        {
          "internalType": "string",
          "name": "newHomeLink",
          "type": "string"
        },
        {
          "internalType": "uint256",
          "name": "newMaxMembers",
          "type": "uint256"
        },
        {
          "internalType": "uint256",
          "name": "yesVotes",
          "type": "uint256"
        },
        {
          "internalType": "uint256",
          "name": "noVotes",
          "type": "uint256"
        },
        {
          "internalType": "uint256",
          "name": "endTime",
          "type": "uint256"
        },
        {
          "internalType": "uint256",
          "name": "createdAt",
          "type": "uint256"
        },
        {
          "internalType": "bool",
          "name": "executed",
          "type": "bool"
        },
        {
          "internalType": "uint256",
          "name": "eligibleVoters",
          "type": "uint256"
        },
        {
          "internalType": "uint256",
          "name": "postQuorumEligibleVoters",
          "type": "uint256"
        },
        {
          "internalType": "uint256",
          "name": "quorumReachedAt",
          "type": "uint256"
        },
        {
          "internalType": "uint256",
          "name": "quorumSnapshotBlock",
          "type": "uint256"
        },
        {
          "internalType": "bool",
          "name": "quorumExempt",
          "type": "bool"
        },
        {
          "internalType": "bool",
          "name": "updateFeeSplit",
          "type": "bool"
        },
        {
          "internalType": "uint256",
          "name": "preQuorumSnapshotBlock",
          "type": "uint256"
        },
        {
          "internalType": "bool",
          "name": "setDictatorship",
          "type": "bool"
        }
      ],
      "stateMutability": "view",
      "type": "function"
    },
    {
      "inputs": [],
      "name": "protocolFeeRecipient",
      "outputs": [
        {
          "internalType": "address",
          "name": "",
          "type": "address"
        }
      ],
      "stateMutability": "view",
      "type": "function"
    },
    {
      "inputs": [],
      "name": "protocolPercent",
      "outputs": [
        {
          "internalType": "uint256",
          "name": "",
          "type": "uint256"
        }
      ],
      "stateMutability": "view",
      "type": "function"
    },
    {
      "inputs": [
        {
          "internalType": "uint256",
          "name": "maxRemovals",
          "type": "uint256"
        }
      ],
      "name": "pruneInactiveProposals",
      "outputs": [
        {
          "internalType": "uint256",
          "name": "removed",
          "type": "uint256"
        }
      ],
      "stateMutability": "nonpayable",
      "type": "function"
    },
    {
      "inputs": [],
      "name": "purchaseAccess",
      "outputs": [],
      "stateMutability": "nonpayable",
      "type": "function"
    },
    {
      "inputs": [],
      "name": "quorumPercent",
      "outputs": [
        {
          "internalType": "uint256",
          "name": "",
          "type": "uint256"
        }
      ],
      "stateMutability": "view",
      "type": "function"
    },
    {
      "inputs": [
        {
          "internalType": "bool",
          "name": "enabled",
          "type": "bool"
        }
      ],
      "name": "setDictatorshipDAO",
      "outputs": [],
      "stateMutability": "nonpayable",
      "type": "function"
    },
    {
      "inputs": [
        {
          "internalType": "uint256",
          "name": "_maxMembers",
          "type": "uint256"
        }
      ],
      "name": "setMaxMembersDAO",
      "outputs": [],
      "stateMutability": "nonpayable",
      "type": "function"
    },
    {
      "inputs": [
        {
          "internalType": "bool",
          "name": "_paused",
          "type": "bool"
        }
      ],
      "name": "setPausedDAO",
      "outputs": [],
      "stateMutability": "nonpayable",
      "type": "function"
    },
    {
      "inputs": [
        {
          "internalType": "string",
          "name": "newLink",
          "type": "string"
        }
      ],
      "name": "setTemplHomeLinkDAO",
      "outputs": [],
      "stateMutability": "nonpayable",
      "type": "function"
    },
    {
      "inputs": [],
      "name": "templHomeLink",
      "outputs": [
        {
          "internalType": "string",
          "name": "",
          "type": "string"
        }
      ],
      "stateMutability": "view",
      "type": "function"
    },
    {
      "inputs": [],
      "name": "totalPurchases",
      "outputs": [
        {
          "internalType": "uint256",
          "name": "",
          "type": "uint256"
        }
      ],
      "stateMutability": "view",
      "type": "function"
    },
    {
      "inputs": [],
      "name": "treasuryBalance",
      "outputs": [
        {
          "internalType": "uint256",
          "name": "",
          "type": "uint256"
        }
      ],
      "stateMutability": "view",
      "type": "function"
    },
    {
      "inputs": [],
      "name": "treasuryPercent",
      "outputs": [
        {
          "internalType": "uint256",
          "name": "",
          "type": "uint256"
        }
      ],
      "stateMutability": "view",
      "type": "function"
    },
    {
      "inputs": [
        {
          "internalType": "address",
          "name": "_token",
          "type": "address"
        },
        {
          "internalType": "uint256",
          "name": "_entryFee",
          "type": "uint256"
        },
        {
          "internalType": "bool",
          "name": "_updateFeeSplit",
          "type": "bool"
        },
        {
          "internalType": "uint256",
          "name": "_burnPercent",
          "type": "uint256"
        },
        {
          "internalType": "uint256",
          "name": "_treasuryPercent",
          "type": "uint256"
        },
        {
          "internalType": "uint256",
          "name": "_memberPoolPercent",
          "type": "uint256"
        }
      ],
      "name": "updateConfigDAO",
      "outputs": [],
      "stateMutability": "nonpayable",
      "type": "function"
    },
    {
      "inputs": [
        {
          "internalType": "uint256",
          "name": "_proposalId",
          "type": "uint256"
        },
        {
          "internalType": "bool",
          "name": "_support",
          "type": "bool"
        }
      ],
      "name": "vote",
      "outputs": [],
      "stateMutability": "nonpayable",
      "type": "function"
    },
    {
      "inputs": [
        {
          "internalType": "address",
          "name": "token",
          "type": "address"
        },
        {
          "internalType": "address",
          "name": "recipient",
          "type": "address"
        },
        {
          "internalType": "uint256",
          "name": "amount",
          "type": "uint256"
        },
        {
          "internalType": "string",
          "name": "reason",
          "type": "string"
        }
      ],
      "name": "withdrawTreasuryDAO",
      "outputs": [],
      "stateMutability": "nonpayable",
      "type": "function"
    },
    {
      "stateMutability": "payable",
      "type": "receive"
    }
  ],
  "bytecode": "0x610100604052346200077f5762005923803803806200001e8162000784565b9283398101906101c0818303126200077f576200003b81620007aa565b6200004960208301620007aa565b926200005860408401620007aa565b606084015194608085015160a086015160c087015160e0880151610100890151936101208a0151956200008f6101408c01620007aa565b976101608c01519182151583036200077f576101808d01516101a08e0151909d6001600160401b0382116200077f57018b601f820112156200077f5780519b6001600160401b038d116200066c578c90620000f4601f8301601f191660200162000784565b9d8e52602082840101116200077f5762000115916020808f019101620007bf565b60016000556001600160a01b0381161580156200076d575b620004cf5760a05260c0526004549060ff60a01b90151560a01b169060ff60a01b191617600455809184938095829362000178846200017285620001728686620007e4565b620007e4565b90612710820362000700575b5050505050620001a681612710926080526200017286620001728787620007e4565b03620006ee57600155600255600355806200068e5750610ce4600a555b8062000688575062093a805b600b556001600160a01b03811662000682575061dead5b60e05280516001600160401b0381116200066c57600c54600181811c9116801562000661575b60208210146200064b57601f8111620005e1575b50806020601f821160011462000557576000916200054b575b508160011b916000199060031b1c191617600c555b8051620004e1575b506001600160a01b0316918215620004cf578015620004bd57600a8110620004ab57600a810662000499578260018060a01b0319600454161760045560055560ff19918260085416600855600052600d602052604060002060018382541617815542600182015543600282015560036010549101556001600e558015159081620003cc575b6040516151309081620007f3823960805181818161053a015281816107ea015281816112300152818161185e01528181612799015281816127e801528181612a8d0152612adf015260a051818181611324015281816119e501526120f7015260c0518181816103fa015281816106c90152818161092001528181611181015281816112c9015281816118c401528181611981015281816119b201528181611a07015281816124e4015281816127bf0152818161285001528181612ab301528181612b5401528181612bc101528181613955015281816149850152614cb3015260e05181818161195f0152611f470152f35b81806200048e575b6200047c57806009557fb63bcc75a862434e97db3146b78681478a2692253df1de5623d497ee61fac7996020604051838152a1816200046f575b508062000461575b62000424575b8080620002db565b60019060085416176008557f752d7e161ff5146f80e3820893176eb40532811e5e20400dfdde57455213706a602060405160018152a1386200041c565b5060ff600854161562000416565b905060011015386200040e565b604051633161e99d60e11b8152600490fd5b5060018110620003d4565b604051636fe6a4c960e01b8152600490fd5b604051635eee050360e11b8152600490fd5b6040516365e52d5160e11b8152600490fd5b604051634e46966960e11b8152600490fd5b7f71e57b89fe30fe66cb93427236f86ec18c6ec404e26b5c0914ee88193dd07da59060806040518092604082526000604083015260606020830152620005378151809281606086015260208686019101620007bf565b601f01601f19168101030190a13862000256565b90508201513862000239565b600c600090815292507fdf6966c971051c3d54ec59162606531493a51404a002842f56009d7e5cf4a8c7905b601f1983168410620005c8576001935082601f19811610620005ae575b5050811b01600c556200024e565b84015160001960f88460031b161c191690553880620005a0565b8481015182556020938401936001909201910162000583565b600c6000527fdf6966c971051c3d54ec59162606531493a51404a002842f56009d7e5cf4a8c7601f830160051c8101916020841062000640575b601f0160051c01905b81811062000633575062000220565b6000815560010162000624565b90915081906200061b565b634e487b7160e01b600052602260045260246000fd5b90607f16906200020c565b634e487b7160e01b600052604160045260246000fd5b620001e6565b620001cf565b806064811115620006c0575b506127108111620006ae57600a55620001c3565b604051631f3b85d360e01b8152600490fd5b905060648102908104606403620006d857386200069a565b634e487b7160e01b600052601160045260246000fd5b60405163542c8df360e11b8152600490fd5b9397509195509350606492508203620006ee5781810290808204831490151715620006d8579181810290808204831490151715620006d8579281810290808204831490151715620006d85793818102918183041490151715620006d857620001a661271038808062000184565b506001600160a01b038216156200012d565b600080fd5b6040519190601f01601f191682016001600160401b038111838210176200066c57604052565b51906001600160a01b03821682036200077f57565b60005b838110620007d35750506000910152565b8181015183820152602001620007c2565b91908201809211620006d85756fe6102e0604052600436101561001c575b361561001a57600080fd5b005b60003560e01c8063013cf08b146131d457806303807ee5146131b657806304ef9d5814613198578063072ea61c1461317a57806308ae4b0c146131195780630d61b519146128a65780630f852b9a146126d557806311aee38014611b8f5780631808022a146126b25780631df260a0146125ea578063215809ca1461164e578063240d3a061461249c578063313dab201461247e578063438596321461240f5780634902e4271461237a57806353eee2121461234e5780635584c4f9146122885780635962a9411461226d5780635c975abb1461224a5780635fa7ddf01461222c57806361c896d21461217c57806364653f291461212657806364df049e146120e1578063653724d6146120475780636898b19c146120295780636a49942714611fce5780636ad1855014611f945780637070ac4814611f7657806370d5ae0514611f3157806373023e6414611dc0578063840634c514611cf75780638b0e837914611c2e5780638f78bbc414611bec57806395a078e814611bad578063997072f714611b8f57806399e288d8146117de578063a51a46b9146117c0578063a64e024a146117a2578063a730117e1461177f578063a81bbe3c14611745578063aa5c442b1461168f578063ab99a0d314611671578063adadef2714611653578063aedfe53f1461164e578063b488616b1461161e578063be893a1f14611441578063bebc8fc014611418578063c17db3f21461138a578063c293947114611295578063c3f909d41461115b578063c7f758a814610fc5578063c851776c14610f66578063c9d27afe14610c51578063cfb5446014610bcf578063d402d4be1461089d578063da35c6641461087f578063dddac84414610859578063e1a2c9bf146106f8578063e243c5fb146106b3578063e4b5d7ba14610627578063ea0e35b114610609578063eccceda61461055d578063f0a827a414610522578063f2be51ea14610496578063f7158b2a14610364578063f81cbd26146103465763ffafe4ad0361000f5734610341576020366003190112610341576001600160a01b036103236136be565b166000526015602052602060ff604060002054166040519015158152f35b600080fd5b34610341576000366003190112610341576020600a54604051908152f35b346103415760003660031901126103415733600052600d60205260ff604060002054161561048457610394613dec565b61039d336138b4565b801561047257806103b3600754601154906138a7565b106104605760105433600052600d602052600360406000200155600f60205260406000206103e2828254613887565b90556103f0816007546138a7565b60075561042781337f00000000000000000000000000000000000000000000000000000000000000006001600160a01b0316613f0b565b6040519081524260208201527fc4e740509dbfae3377bc9925dd7bcc8aaba69cd730316216d76b2d24725c636660403392a26001600055005b60405163bc6072f160e01b8152600490fd5b6040516373380d9960e01b8152600490fd5b60405163148fe22160e11b8152600490fd5b34610341576020366003190112610341576104af6136be565b60045460ff8160a01c166000146104ff573033141590816104eb575b506104d95761001a9061496d565b60405163626243e960e01b8152600490fd5b6001600160a01b03163314159050826104cb565b503033036105105761001a9061496d565b6040516327568d2f60e11b8152600490fd5b346103415760003660031901126103415760206040517f00000000000000000000000000000000000000000000000000000000000000008152f35b346103415761056b36613744565b929490936001600160a01b039091169283156105f75760ff60045460a01c166105e5576105ad6003956105a56020986105b39636916137f5565b9236916137f5565b91613f5a565b60018101805460ff60a01b1916600160a21b1790559290920180546001600160a01b0319169091179055604051908152f35b60405163a8ef9e1960e01b8152600490fd5b604051634e46966960e11b8152600490fd5b34610341576000366003190112610341576020600954604051908152f35b34610341576106353661384a565b949190929360ff60045460a01c16831515901515146106a1576020956105ad610699956105a5601c986106699636916137f5565b60018101805460ff60a01b1916600560a01b17905593909301805491151560ff1660ff1992909216919091179055565b604051908152f35b6040516305548b1760e41b8152600490fd5b34610341576000366003190112610341576040517f00000000000000000000000000000000000000000000000000000000000000006001600160a01b03168152602090f35b346103415761010036600319011261034157608435600435811515602435606435604435838603610341576001600160401b0360c43581811161034157610743903690600401613717565b9160e4359081116103415761075c903690600401613717565b92909860ff60045460a01c166105e55788610816575b6020996105a561079c94601a9998979694610793946107e5575b36916137f5565b9060a435613f5a565b93909660018501600160a01b60ff60a01b198254161790556009850155600a840155600b830155600c820155019061ff0082549160081b169061ff001916179055604051908152f35b6108117f00000000000000000000000000000000000000000000000000000000000000008a8a8d61493a565b61078c565b9594939290600a891061084757600a8906610835579092939495610772565b604051636fe6a4c960e01b8152600490fd5b604051635eee050360e11b8152600490fd5b3461034157600036600319011261034157602060ff60045460a01c166040519015158152f35b34610341576000366003190112610341576020601254604051908152f35b34610341576080366003190112610341576108b66136be565b6108be6136d4565b604435906064356001600160401b038111610341576108e190369060040161382c565b9260045460ff8160a01c16600014610bb557303314159081610ba1575b506104d9575b6001600160a01b03828116949085156105f7578415610b8f57807f000000000000000000000000000000000000000000000000000000000000000016921693828514600014610a40576040516370a0823160e01b8152306004820152602081602481875afa908115610a3457600091610a02575b50600754808211156109f05761098d916138a7565b81116109f0576109c9816000956000805160206150db833981519152956109c1600654808511158a146109ea5784906138a7565b600655613f0b565b6109e5604051928392835260406020840152604083019061367e565b0390a4005b806138a7565b604051631c7b597b60e11b8152600490fd5b90506020813d602011610a2c575b81610a1d60209383613506565b81010312610341575187610978565b3d9150610a10565b6040513d6000823e3d90fd5b9150918315600014610adb57506000805260186020527f999d26de3473317ead3eeaf34ca78057f1439db67b6953469c3c96ce9caf6bd754479080821115610ad257610a8b916138a7565b81116109f057600080808084885af1610aa26138fd565b5015610ac0576000916000805160206150db833981519152916109c9565b6040516331d436c760e01b8152600490fd5b50506000610a8b565b90918360005260186020526040600020604051906370a0823160e01b8252306004830152602082602481895afa918215610a3457600092610b5b575b505480821115610b5257610b2a916138a7565b83116109f05782610b4d6000946000805160206150db8339815191529487613f0b565b6109c9565b50506000610b2a565b9091506020813d602011610b87575b81610b7760209383613506565b8101031261034157519087610b17565b3d9150610b6a565b6040516365e52d5160e11b8152600490fd5b6001600160a01b03163314159050856108fe565b50333014610904576040516327568d2f60e11b8152600490fd5b3461034157602036600319011261034157600435601254811015610c3f57600052601360205260c06040600020601681015490601781015490601b8101546019820154906018601284015493015493604051958652602086015260408501526060840152608083015260a0820152f35b604051631dc0650160e31b8152600490fd5b34610341576040366003190112610341576024803580151591600435918381036103415733600052602091600d835260ff9182604060002054161561048457601254851015610c3f5784600052601384526040600020918360045460a01c1680610f34575b6105e5576011808401948554421015610f225733600052600d8752604060002093601886019485548015600014610efd5750610cfc90601b8801546012890154916148ef565b610eeb575b6014860133600052808952826040600020541660158801808b528460406000205416928b526040600020600160ff198254161790558a52610d528360406000209060ff801983541691151516179055565b610e7a575015610e6257600f850180549060018201809211610e4d57555b601a850154161580610e44575b610db8575b87878760405192835242908301527fcbdf6214089cba887ecbf35a0b6a734589959c9763342c756bb2a80ca2bc9f6e60403393a3005b60168401548015159283610dfd575b505050610dd6575b8080610d82565b4290554360198201556017600e54910155610df3600b5442613887565b9055838080610dcf565b600f8601546127108082029550929391928115918604141715610e32575050610e2890600a54613894565b1115878080610dc7565b634e487b7160e01b6000526004526000fd5b50825415610d7d565b505050634e487b7160e01b6000526004526000fd5b6010850180549060018201809211610e4d5755610d70565b90508981151503610e8c575b50610d70565b15610ebf57600f85018054600019810191908211610e4d57556010850180549060018201809211610e4d57555b89610e86565b601085018054600019810191908211610e4d5755600f850180549060018201809211610e4d5755610eb9565b60405163f078ca7360e01b8152600490fd5b6019880154610f0b926148ef565b15610d015760405163f078ca7360e01b8152600490fd5b604051637a19ed0560e01b8152600490fd5b5083600184015460a01c166009811015610f515760051415610cb6565b50634e487b7160e01b60009081526021600452fd5b3461034157610f743661384a565b949190929360ff60045460a01c166105e5576020956105ad610699956105a5600898610fa19636916137f5565b6001819592950160ff60a01b198154169055019060ff801983541691151516179055565b3461034157602036600319011261034157600435601254811015610c3f576000526013602052604060002060ff601a820154166000146110b05760118101544210158061109f575b905b61109b60018060a01b036001830154169261108d600f8401549360108101549560118201549360ff601384015416611055600661104e600587016135db565b95016135db565b95604051998a99610100958b5260208b015260408a0152606089015215156080880152151560a08701528060c087015285019061367e565b9083820360e085015261367e565b0390f35b50600f81015460108201541061100d565b60188101548015611152576016820154908115918215611108575b50600b546110d891613887565b4210159081611100575b50806110ef575b9061100f565b50600f8101546010820154106110e9565b9050826110e2565b909150600f8301546127109081810291818304149015171561113c576111336110d892600a54613894565b111591906110cb565b634e487b7160e01b600052601160045260246000fd5b5060009061100f565b34610341576000366003190112610341576040516370a0823160e01b81523060048201527f00000000000000000000000000000000000000000000000000000000000000006001600160a01b0316602082602481845afa8015610a3457600090611261575b6007546101409350908180821115611257576111db916138a7565b905b6005549160ff60085416916111f0613ae5565b916001549260025494600354966040519889526020890152151560408801526060870152608086015260a085015260c084015260e08301526101008201527f0000000000000000000000000000000000000000000000000000000000000000610120820152f35b50506000906111dd565b506020823d60201161128d575b8161127b60209383613506565b810103126103415761014091516111c0565b3d915061126e565b34610341576000366003190112610341576040516370a0823160e01b81523060048201526001600160a01b036020826024817f000000000000000000000000000000000000000000000000000000000000000085165afa908115610a3457600091611355575b6007546060935091828082111561134b57611315916138a7565b915b60405192835260208301527f0000000000000000000000000000000000000000000000000000000000000000166040820152f35b5050600091611317565b90506020823d602011611382575b8161137060209383613506565b810103126103415760609151906112fb565b3d9150611363565b34610341576020366003190112610341576004356001600160401b038111610341576113ba903690600401613717565b60045460ff8160a01c16600014611403573033141590816113ef575b506104d95761001a916113ea9136916137f5565b61468b565b6001600160a01b03163314159050836113d6565b503033036105105761001a916113ea9161078c565b34610341576000366003190112610341576004546040516001600160a01b039091168152602090f35b346103415760e03660031901126103415761145a6136be565b6114626136d4565b6001600160401b03906064358281116103415761148390369060040161382c565b9160a4358181116103415761149c903690600401613717565b60c435838111610341576114b4903690600401613717565b909260ff60045460a01c166105e5576007936105a56114d8926114e19536916137f5565b90608435613f5a565b6001808201805460ff60a01b1916600160a11b1790556002820180546001600160a01b03199081166001600160a01b039a8b16179091556003830180549091169890961697909717909455604435600485015584519093919091019181116116085760209461155a8261155485546134cc565b85613afd565b8590601f83116001146115a25750819061158d939495600092611597575b50508160011b916000199060031b1c19161790565b9055604051908152f35b015190508680611578565b90601f198316958460005281600020926000905b8882106115f1575050836001959697106115d8575b505050811b019055610699565b015160001960f88460031b161c191690558580806115cb565b8284015185559384019392890192908901906115b6565b634e487b7160e01b600052604160045260246000fd5b346103415760003660031901126103415761109b61163a613527565b60405191829160208352602083019061367e565b6136f9565b34610341576000366003190112610341576020600354604051908152f35b34610341576020366003190112610341576020610699600435613d3e565b34610341576020366003190112610341576116a86136ea565b60045460ff8160a01c16918260001461172c573033141580611719575b6104d9575b151580921515146106a15760ff60a01b191660a082901b60ff60a01b16176004556040519081527fa8adfe89c6bc95edbe7049ed316f0473a03af92b1fd027ce1ac670082467c62390602090a1005b50336001600160a01b03831614156116c5565b3330146116ca576040516327568d2f60e11b8152600490fd5b34610341576020366003190112610341576001600160a01b036117666136be565b16600052600f6020526020604060002054604051908152f35b3461034157602036600319011261034157602061069961179d6136be565b613d14565b3461034157600036600319011261034157602060405162278d008152f35b34610341576000366003190112610341576020601154604051908152f35b346103415760003660031901126103415760ff60085416611b7d57303314611b6b57611808613dec565b33600052600d602052604060002060ff815416611b5957600e54906009548015159081611b4e575b50611b3c5781611b2f575b6005549061184b6001548361455c565b926118586003548461455c565b906118837f00000000000000000000000000000000000000000000000000000000000000008561455c565b9261189b84611896856118968a8a6138a7565b6138a7565b946118a68487613887565b6040516370a0823160e01b81523360048201529091906020816024817f00000000000000000000000000000000000000000000000000000000000000006001600160a01b03165afa908115610a3457600091611afd575b5010611aeb57600160ff19835416178255426001830155436002830155600183019182841161113c576119df92600e5583611ab5575b600360105491015561194786600654613887565b60065561195684600754613887565b6007556119ae877f0000000000000000000000000000000000000000000000000000000000000000337f00000000000000000000000000000000000000000000000000000000000000006001600160a01b03166145d7565b30337f00000000000000000000000000000000000000000000000000000000000000006001600160a01b03166145d7565b611a34837f0000000000000000000000000000000000000000000000000000000000000000337f00000000000000000000000000000000000000000000000000000000000000006001600160a01b03166145d7565b80611aa357506000925b6005549460405195865260208601526040850152606084015260808301524260a08301524360c083015260e08201527fe6d1c0e418a42a777d49c66571075fc47bc1d92e7f506007ddde08d1ff182bbc6101003392a2611a9c61462f565b6001600055005b600019810190811161113c5792611a3e565b611ae3611ac460115487613887565b611ad886611ad28184613cea565b92613d0a565b601155601054613887565b601055611933565b604051631e9acf1760e31b8152600490fd5b90506020813d602011611b27575b81611b1860209383613506565b810103126103415751896118fd565b3d9150611b0b565b611b376144ba565b61183b565b6040516382b675f560e01b8152600490fd5b905082101583611830565b604051630cd9ed5560e21b8152600490fd5b604051636edaef2f60e11b8152600490fd5b604051630eceade960e31b8152600490fd5b34610341576000366003190112610341576020600e54604051908152f35b34610341576020366003190112610341576001600160a01b03611bce6136be565b16600052600d602052602060ff604060002054166040519015158152f35b3461034157604036600319011261034157611c22611c0e602435600435613b53565b6040519283926040845260408401906137a6565b90151560208301520390f35b346103415760203660031901126103415760043560045460ff8160a01c16600014611cdd57303314159081611cc9575b506104d9575b600e548115159081611cbf575b50611cad576020817fb63bcc75a862434e97db3146b78681478a2692253df1de5623d497ee61fac79992600955604051908152a161001a61462f565b604051633161e99d60e11b8152600490fd5b9050811082611c71565b6001600160a01b0316331415905082611c5e565b50333014611c64576040516327568d2f60e11b8152600490fd5b3461034157602036600319011261034157611d106136be565b60045460ff8160a01c16600014611da7573033141580611d94575b6104d9575b6001600160a01b039182169182156105f757811690818314611d82576001600160a01b03191682176004557f0f3a6964a8ba1b7473a14630b029eae6d49bec6babf098223718bacaac7197cc600080a3005b604051631c49f4d160e01b8152600490fd5b50336001600160a01b0382161415611d2b565b333014611d30576040516327568d2f60e11b8152600490fd5b34610341576080366003190112610341576001600160401b0360043581811161034157611df1903690600401613717565b909160443581811161034157611e0b903690600401613717565b9060643583811161034157611e24903690600401613717565b919060ff60045460a01c166105e5576105a5611e4592611e4e9536916137f5565b90602435613f5a565b6001818101805460ff60a01b1916600760a01b1790559193600d9190910192909190821161160857611e848261155485546134cc565b600090601f8311600114611ec35750908061158d92602096600092611eb85750508160011b916000199060031b1c19161790565b013590508680611578565b90601f198316846000526020926020600020936000915b838310611f1a575050509583929160019460209810611f0057505050811b019055610699565b0135600019600384901b60f8161c191690558580806115cb565b898501358655948501949381019391810191611eda565b34610341576000366003190112610341576040517f00000000000000000000000000000000000000000000000000000000000000006001600160a01b03168152602090f35b34610341576000366003190112610341576020600b54604051908152f35b34610341576020366003190112610341576001600160a01b03611fb56136be565b1660005260146020526020604060002054604051908152f35b34610341576020366003190112610341576001600160a01b03611fef6136be565b1660005260186020526040600020805461109b60026001840154930154604051938493846040919493926060820195825260208201520152565b34610341576000366003190112610341576020601054604051908152f35b34610341576020366003190112610341576120606136ea565b60045460ff8160a01c166000146120c2573033141590816120ae575b506104d95760206000805160206150bb833981519152915b151560ff196008541660ff821617600855604051908152a1005b6001600160a01b031633141590508261207c565b503033036105105760206000805160206150bb83398151915291612094565b34610341576000366003190112610341576040517f00000000000000000000000000000000000000000000000000000000000000006001600160a01b03168152602090f35b34610341576020366003190112610341576001600160a01b036121476136be565b16600052600d6020526060604060002060ff815416906002600182015491015490604051921515835260208301526040820152f35b34610341576080366003190112610341576001600160401b03600435604435828111610341576121b0903690600401613717565b919092606435908111610341576121cb903690600401613717565b60ff60049492945460a01c166105e55782151580612221575b611cad57611e45600e946105a56020976121ff9536916137f5565b60018101805460ff60a01b1916600360a11b1790559290920155604051908152f35b50600e5483106121e4565b34610341576000366003190112610341576020600754604051908152f35b3461034157600036600319011261034157602060ff600854166040519015158152f35b34610341576000366003190112610341576020610699613ae5565b34610341576000366003190112610341576016546122a581613a0c565b9060009060005b8181106122fe5750506122be81613a0c565b9160005b8281106122df576040516020808252819061109b908201876137a6565b806122ec60019284613ad1565b516122f78287613ad1565b52016122c2565b8061230a600192613a3e565b90549060031b1c80600052601360205261232842604060002061449c565b612334575b50016122ac565b61234761234086613ac2565b9587613ad1565b528561232d565b3461034157604036600319011261034157602061069961236c6136be565b6123746136d4565b9061392d565b346103415761238836613744565b909493919260ff60045460a01c166105e5576020956105a56105ad926123af9636916137f5565b60018101805460ff60a01b1916600360a01b1790556002810180546001600160a01b0319166001600160a01b0394851617905560045491929091339116146123fb575b50604051908152f35b601a01805460ff19166001179055826123f2565b346103415760403660031901126103415760043561242b6136d4565b601254821015610c3f576040916000526013602052816000209060018060a01b031660005260148101602052601560ff836000205416910160205260ff8260002054168251911515825215156020820152f35b34610341576000366003190112610341576020600654604051908152f35b3461034157602080600319360112610341576124b66136be565b9033600052600d815260ff6040600020541615610484576124d5613dec565b6001600160a01b0382811691907f0000000000000000000000000000000000000000000000000000000000000000168214611d8257816000526018815260406000209260ff600385015416156104725761252f903361392d565b928315610472578054848110610460578461256791600184015433600052601a865260406000208760005286526040600020556138a7565b9055816125b857600080808086335af161257f6138fd565b5015610ac0577f26cd6ba06f6dc02c61247f710e95c768f4856af03b740594288907c36bb217e9905b6040519384523393a36001600055005b7f26cd6ba06f6dc02c61247f710e95c768f4856af03b740594288907c36bb217e9906125e5843385613f0b565b6125a8565b3461034157600036600319011261034157604051806019548083526020809301809160196000527f944998273e477b495144fb8794c914197f3ccb46be2900f4698fd0ef743c96959060005b8682821061269557868661264c82880383613506565b604051928392818401908285525180915260408401929160005b82811061267557505050500390f35b83516001600160a01b031685528695509381019392810192600101612666565b83546001600160a01b031685529093019260019283019201612636565b346103415760203660031901126103415760206106996126d06136be565b6138b4565b346103415760c0366003190112610341576126ee6136be565b6024356044358015158103610341576064356084359160a4359360045460ff8160a01c1660001461288c57303314159081612878575b506104d9575b6001600160a01b03958616801515908161284b575b506128395780612820575b506127e3575b837fa00a4448d1c98b3edafbf488446a8320c2cb278ba20dd49c7b5d41a7ebfd582b60a060055492600154600254600354916040519687526020870152604086015260608501527f000000000000000000000000000000000000000000000000000000000000000060808501527f00000000000000000000000000000000000000000000000000000000000000001692a2005b61280f7f000000000000000000000000000000000000000000000000000000000000000084848461493a565b600155600255600355818080612750565b600a811061084757600a8106610835576005558561274a565b60405163b078ee9d60e01b8152600490fd5b9050867f00000000000000000000000000000000000000000000000000000000000000001614158761273f565b6001600160a01b0316331415905087612724565b5033301461272a576040516327568d2f60e11b8152600490fd5b346103415760208060031936011261034157600435906128c4613dec565b601254821015610c3f57816000526013815260406000209160ff600454908060a092831c16806130fd575b6105e557601a850194818654168080916130f0575b6130de571561305b575b601381019586549383851661304957600f83015460108401541015613037576001978860ff19809716179055878301918460018060a01b03938481541660005260158a52816040600020541680613025575b613006575b54831c166009811015612ff057806129dd5750505050846000805160206150bb8339815191526129d89686958560008051602061509b8339815191529660086060970154161515916008541690821617600855604051908152a15b604080519188835282015260006040820152a2613e0f565b600055005b92955090939291888103612b7c575084600283015416926009830154915460081c16600a83015491600c600b850154940154948015159081612b4f575b506128395780612b16575b5060008051602061509b833981519152946060946129d899948998947fa00a4448d1c98b3edafbf488446a8320c2cb278ba20dd49c7b5d41a7ebfd582b94612ada575b505050600554928a5460025460035491604051968752878701526040860152868501527f000000000000000000000000000000000000000000000000000000000000000060808501527f00000000000000000000000000000000000000000000000000000000000000001692a26129c0565b612b067f000000000000000000000000000000000000000000000000000000000000000084848461493a565b8c556002556003558a8080612a68565b90939792959194600a821061084757600a820661083557600591909155919690949193909260008051602061509b833981519152612a25565b9050877f00000000000000000000000000000000000000000000000000000000000000001614158b612a1a565b9050600281979492959714600014612e075750505083600283015416938060038401541691612bb26007600486015495016135db565b9183156105f7578415610b8f577f00000000000000000000000000000000000000000000000000000000000000001692868403612cc4576040516370a0823160e01b81523060048201528281602481885afa908115610a3457600091612c97575b50600754808211156109f057612c28916138a7565b85116109f0576129d896866000805160206150db83398151915260609588612c74849a8760008051602061509b8339815191529b6109c1600654808511156000146109ea5784906138a7565b612c8f6040519283928352604089840152604083019061367e565b0390a46129c0565b90508281813d8311612cbd575b612cae8183613506565b81010312610341575189612c13565b503d612ca4565b959391925083612d455760008052601881526040600020479054808211600014612d3c57612cf1916138a7565b82116109f0576000808080858a5af1612d086138fd565b5015610ac0576129d8958594856000805160206150db83398151915260008051602061509b83398151915296606096612c74565b50506000612cf1565b83600052601881526040600020604051906370a0823160e01b82523060048301528282602481895afa918215610a3457600092612dd8575b505480821115612dcf57612d90916138a7565b82116109f0578584866000805160206150db83398151915260008051602061509b8339815191529686612dca6060986129d89d869c613f0b565b612c74565b50506000612d90565b9091508281813d8311612e00575b612df08183613506565b8101031261034157519089612d7d565b503d612de6565b9295939260038103612e415750505060606129d894612e3c858095600260008051602061509b83398151915296015416614c9a565b6129c0565b9193929160048103612ec4575050600301548116915081156105f75760045490811690818314611d82576129d8948360008051602061509b8339815191529386956060946bffffffffffffffffffffffff60a01b16176004557f0f3a6964a8ba1b7473a14630b029eae6d49bec6babf098223718bacaac7197cc600080a36129c0565b90925060058103612f4a5750601c01546004549290811615159083831c16151581146106a15760ff60a01b199092169082901b60ff60a01b16176004556040519081526129d892829160008051602061509b833981519152916060917fa8adfe89c6bc95edbe7049ed316f0473a03af92b1fd027ce1ac670082467c623908290a16129c0565b909250905060068103612fc45750600e0154600e548115159081612fba575b50611cad5760008051602061509b8339815191526060847fb63bcc75a862434e97db3146b78681478a2692253df1de5623d497ee61fac7996129d896858796600955604051908152a1612e3c61462f565b9050811085612f69565b600703611d825760008051602061509b83398151915260606129d894612e3c6113ea600d8796016135db565b634e487b7160e01b600052602160045260246000fd5b60158a52604060002088815416905560148a5260006040812055612965565b5060148a528860406000205414612960565b60405163c8c93ba360e01b8152600490fd5b604051630dc1019760e01b8152600490fd5b6018810154801561308e57600b5461307291613887565b42106130cc57601681015480151590816130a0575b501561290e575b60405163aa26a69360e01b8152600490fd5b600f8301546127108082029350811591840414171561113c576130c590600a54613894565b1187613087565b60405163a905056160e01b8152600490fd5b604051633fc30bd160e11b8152600490fd5b5060118201544210612904565b50806001860154831c166009811015612ff057600514156128ef565b34610341576020366003190112610341576001600160a01b0361313a6136be565b16600052600d6020526080604060002060ff8154169060018101549060036002820154910154916040519315158452602084015260408301526060820152f35b34610341576000366003190112610341576020600554604051908152f35b34610341576000366003190112610341576020600254604051908152f35b34610341576000366003190112610341576020600154604051908152f35b34610341576020366003190112610341576004803560009081526013602052604090206102608190528054600182015460028301546001600160a01b039081166102405260038401541661016052928201546102205290613237906005016135db565b91613247600661026051016135db565b6101405261325a600761026051016135db565b6102805261026051600881015460ff166102c0526009810154600a8201546102a052600b820154600c83015490959261329590600d016135db565b90600e61026051015461012052600f61026051015496601061026051015495601161026051015497601261026051015460805260ff60136102605101541660a052601661026051015460e05260176102605101546102005260186102605101546101e05260196102605101546101c052601a6102605101546101a052601b6102605101546101805260ff601c610260510154166101005260405160c05260c0515260018060a01b038116602060c0510152600960ff8260a01c161015612ff0576133bc6133a76134179760ff6133d29460a01c16604060c051015261024051606060c051015261016051608060c05101526102205160a060c05101526103a060c0805101526103a060c051019061367e565b60c051810360e060c05101526101405161367e565b60c051810361010060c05101526102805161367e565b936102c051151561012060c051015261014060c05101526102a05161016060c051015261018060c05101526101a060c051015260c05182036101c060c051015261367e565b92610120516101e060c051015261020060c051015261022060c051015261024060c051015260805161026060c051015260a051151561028060c051015260e0516102a060c0510152610200516102c060c05101526101e0516102e060c05101526101c05161030060c051015260ff6101a05116151561032060c051015260ff6101a05160081c16151561034060c05101526101805161036060c051015261010051151561038060c051015260c051900360c051f35b90600182811c921680156134fc575b60208310146134e657565b634e487b7160e01b600052602260045260246000fd5b91607f16916134db565b90601f801991011681019081106001600160401b0382111761160857604052565b60405190600082600c549161353b836134cc565b808352926020906001908181169081156135b75750600114613568575b505061356692500383613506565b565b915092600c60005260008051602061505b833981519152936000925b82841061359f57506135669450505081016020013880613558565b85548885018301529485019487945092810192613584565b9150506020925061356694915060ff191682840152151560051b8201013880613558565b906040519182600082546135ee816134cc565b9081845260209460019160018116908160001461365c575060011461361d575b50505061356692500383613506565b600090815285812095935091905b818310613644575050613566935082010138808061360e565b8554888401850152948501948794509183019161362b565b9250505061356694925060ff191682840152151560051b82010138808061360e565b919082519283825260005b8481106136aa575050826000602080949584010152601f8019910116010190565b602081830181015184830182015201613689565b600435906001600160a01b038216820361034157565b602435906001600160a01b038216820361034157565b60043590811515820361034157565b3461034157600036600319011261034157602060405162093a808152f35b9181601f84011215610341578235916001600160401b038311610341576020838186019501011161034157565b6080600319820112610341576004356001600160a01b03811681036103415791602435916001600160401b0391604435838111610341578261378891600401613717565b93909392606435918211610341576137a291600401613717565b9091565b90815180825260208080930193019160005b8281106137c6575050505090565b8351855293810193928101926001016137b8565b6001600160401b03811161160857601f01601f191660200190565b929192613801826137da565b9161380f6040519384613506565b829481845281830111610341578281602093846000960137010152565b9080601f8301121561034157816020613847933591016137f5565b90565b60806003198201126103415760043580151581036103415791602435916001600160401b0391604435838111610341578261378891600401613717565b9190820180921161113c57565b8181029291811591840414171561113c57565b9190820391821161113c57565b6001600160a01b03166000908152600d60205260409020805460ff16156138f75760036010549101548082116000146138f057613847916138a7565b5050600090565b50600090565b3d15613928573d9061390e826137da565b9161391c6040519384613506565b82523d6000602084013e565b606090565b60018060a01b0380911690600092828452600d60205260ff604085205416156139ef578116907f00000000000000000000000000000000000000000000000000000000000000001681146139e2578083526018602052604083209060ff600383015416156139ef57828452600d6020526139af604085206001840154936143b1565b928452601a602052604084209084526020526040832054918083106139e7575b50818111156139e25761384792506138a7565b505090565b9150386139cf565b50505090565b6001600160401b0381116116085760051b60200190565b90613a16826139f5565b613a236040519182613506565b8281528092613a34601f19916139f5565b0190602036910137565b601654811015613a755760166000527fd833147d7dc355ba459fc788f669e58cfaf9dc25ddcd0702e87d69c7b51242890190600090565b634e487b7160e01b600052603260045260246000fd5b601954811015613a755760196000527f944998273e477b495144fb8794c914197f3ccb46be2900f4698fd0ef743c96950190600090565b600019811461113c5760010190565b8051821015613a755760209160051b010190565b600e5480156138f757600019810190811161113c5790565b90601f8111613b0b57505050565b6000916000526020600020906020601f850160051c83019410613b49575b601f0160051c01915b828110613b3e57505050565b818155600101613b32565b9092508290613b29565b919080158015613ce0575b613cce576016549160009360005b848110613c87575084811015613c5757613b8583613a0c565b916000958694875b8888821080613c4e575b15613c01575080613baa613bf692613a3e565b90549060031b1c806000526013602052613bc842604060002061449c565b15613bfb5786613bd78a613ac2565b9910613bfb57613bf0613be98c613ac2565b9b89613ad1565b52613ac2565b613b8d565b50613ac2565b9397505050929350613c1291613887565b1092613c1d81613a0c565b9160005b828110613c2f575050509190565b80613c3c60019284613ad1565b51613c478287613ad1565b5201613c21565b50828110613b97565b5092505050604051602081018181106001600160401b038211176116085760405260008152600036813790600090565b613c9081613a3e565b90549060031b1c6000526013602052613cad42604060002061449c565b613cba575b600101613b6c565b94613cc6600191613ac2565b959050613cb2565b6040516381f396b760e01b8152600490fd5b5060648111613b5e565b8115613cf4570490565b634e487b7160e01b600052601260045260246000fd5b8115613cf4570690565b6001600160a01b03166000908152600d602052604090205460ff1615613d3957600190565b600090565b906000906000908315613de557601693601654908115613ddc5793905b80151580613dd3575b15613db7576000198101908111613dbf57613d7e90613a3e565b90549060031b1c8084526013602052613d9a426040862061449c565b613db75790613dab613db092613e0f565b613ac2565b8454613d5b565b509350915050565b634e487b7160e01b84526011600452602484fd5b50848210613d64565b50509250905090565b9250905090565b600260005414613dfd576002600055565b604051633ee5aeb560e01b8152600490fd5b600090808252601760205260408220548015613f065760001990808201818111613ef257601654838101908111613ede57808203613e92575b5050506016548015613e7e57810190613e6082613a3e565b909182549160031b1b19169055601655815260176020526040812055565b634e487b7160e01b84526031600452602484fd5b613eb191613ea2613eca92613a3e565b90549060031b1c928391613a3e565b90919082549060031b91821b91600019901b1916179055565b845260176020526040842055388080613e48565b634e487b7160e01b86526011600452602486fd5b634e487b7160e01b85526011600452602485fd5b505050565b60405163a9059cbb60e01b60208201526001600160a01b03909216602483015260448083019390935291815260808101916001600160401b038311828410176116085761356692604052614eb6565b919290926000923384526020600d815260409160ff838720541615614384573386526015825260ff8387205416614314575b8061430e575062093a80955b62093a8087106142fd5762278d0087116142ec5760125492613fb984613ac2565b60125583978488526013845281882097858955613ff2600192838b01336bffffffffffffffffffffffff60a01b82541617905542613887565b9160118a019283554260128b015560058a018551906001600160401b03918281116142d85761402b8161402584546134cc565b84613afd565b88601f821160011461427b579080614058928791614270575b508160011b916000199060031b1c19161790565b90555b885160068c019181116141b8576140768161402584546134cc565b87601f82116001146142115790806140a292869161420657508160011b916000199060031b1c19161790565b90555b43601b8b015560138a019060ff199182815416905533835260148b018752848320818382541617905560158b018752848320818382541617905580600f8c01558260108c0155600e548060168d015560188c01848155601a8d01848154169055811515806141ef575b6141cc575b5050601654600160401b8110156141b857857f0a3d356d942a35213f2f2e42f5c07221391ae9a4f16edaa23278b9f8068be772989796946141a494846141678d613eb1876141b39c99839901601655613a3e565b60165485845260178c528484205533835260158b52838320918254161790556014895220555493606083519687968752860152606085019061367e565b9083820390840152339661367e565b0390a3565b634e487b7160e01b84526041600452602484fd5b4290554360198d015560178c01556141e6600b5442613887565b84553880614113565b506141fc82600a54613894565b612710101561410e565b90508b015138614044565b828552888520849291601f198316878c8f5b838310614259575050508311614240575b5050811b0190556140a5565b8c015160001960f88460031b161c191690553880614234565b840151855588969094019392830192018c8f614223565b905089015138614044565b828652898620859291601f198316885b8d8d8383106142c35750505083116142aa575b5050811b01905561405b565b8a015160001960f88460031b161c19169055388061429e565b8401518555899690940193928301920161428b565b634e487b7160e01b85526041600452602485fd5b825163eeeb962360e01b8152600490fd5b82516331806aeb60e21b8152600490fd5b95613f98565b6014829695949396528585205485526013825285852060ff601382015416159081614376575b501561435157855163792c310960e11b8152600490fd5b94919293943386526015825282862060ff198154169055601482528583812055613f8c565b60119150015442103861433a565b825163148fe22160e11b8152600490fd5b8054821015613a755760005260206000209060011b0190600090565b90600480830191825493841561449057506002810154600180920154906000955b80871061440257505050505081156138f057600019820191821161113c576001916143fc91614395565b50015490565b61440c8188613887565b841c906144198288614395565b50546001600160401b03908181168086101561443857505050506143d2565b92999285111561446a5750505083810180911161445557956143d2565b601185634e487b7160e01b6000525260246000fd5b91989160401c1684101561447e57506143d2565b965083810180911161445557956143d2565b60010154949350505050565b9060118201541190816144ad575090565b60ff915060130154161590565b600e54801561455957601954906000805b8381106144d85750505050565b806144e4600192613a8b565b838060a01b0391549060031b1c16835260186020528360408420600281018054908115614550576145158483613cea565b918215614546576145409461452991613d0a565b9055614539858301918254613887565b9055614f99565b016144cb565b5050505050614540565b50505050614540565b50565b90600019818309818302918280831092039180830392146145cc5761271090828211156145b9577fbc01a36e2eb1c432ca57a786c226809d495182a9930be0ded288ce703afb7e91940990828211900360fc1b910360041c170290565b634e487b7160005260116020526024601cfd5b505061271091500490565b6040516323b872dd60e01b60208201526001600160a01b03928316602482015292909116604483015260648083019390935291815260a08101918183106001600160401b038411176116085761356692604052614eb6565b600954801515908161467e575b5080614671575b61464957565b600160ff1960085416176008556000805160206150bb833981519152602060405160018152a1565b5060ff6008541615614643565b9050600e5410153861463c565b604051600091600c805461469e816134cc565b808552602094858101918160019889861689816000146148d45750600114614889575b6146cd92500382613506565b51902083518585012014614882576146e3613527565b948351916001600160401b038311611608576146fe906134cc565b601f811161482e575b508490601f8311600114614796575092614786926147628361477997947f71e57b89fe30fe66cb93427236f86ec18c6ec404e26b5c0914ee88193dd07da5999760009161478b57508160011b916000199060031b1c19161790565b90555b60405194859460408652604086019061367e565b918483039085015261367e565b0390a1565b905084015138614044565b9190601f198216908460005260008051602061505b8339815191529160005b8181106148195750926147869592614779989592827f71e57b89fe30fe66cb93427236f86ec18c6ec404e26b5c0914ee88193dd07da59b999610614800575b5050811b019055614765565b85015160001960f88460031b161c1916905538806147f4565b878301518455928501929188019188016147b5565b8360005260008051602061505b833981519152601f840160051c810191878510614878575b601f0160051c019082905b82811061486c575050614707565b6000815501829061485e565b9091508190614853565b5050505050565b505084600052818760008051602061505b8339815191528a6000915b8583106148bb5750506146cd93508201016146c1565b80919294505483858801015201910188908a85936148a5565b9150506146cd9260ff1987168652151560051b8201016146c1565b919080156149325760028301548181116149295714918261491b575b505061491657600090565b600190565b60010154119050388061490b565b50505050600190565b505050600090565b6149549261494f612710959361494f93613887565b613887565b0361495b57565b60405163542c8df360e11b8152600490fd5b600e548015614c88576001600160a01b0391821691907f00000000000000000000000000000000000000000000000000000000000000008216838114614b825750600083614b0c575047915b836000526018602052604060002092835480821115614afa576149db916138a7565b908460005260186020526003604060002001805460ff811615614a7d575b50505090816141b384614a1e60008051602061507b8339815191529560009754613887565b8155614a606002820191614a47614a36845487613887565b96614a418189613cea565b97613d0a565b809360018301614a58898254613887565b905555614f99565b604051938493846040919493926060820195825260208201520152565b610100601995949395541015614ae85760ff19166001179055601954600160401b8110156116085760009460008051602061507b83398151915294614acb8360016141b39501601955613a8b565b819291549060031b918a831b921b191617905594829394506149f9565b604051636ff5066b60e11b8152600490fd5b604051631ab9ebab60e01b8152600490fd5b6040516370a0823160e01b8152306004820152602081602481885afa918215614b76578092614b3e575b5050916149b9565b9091506020823d602011614b6e575b81614b5a60209383613506565b81010312614b6b5750513880614b36565b80fd5b3d9150614b4d565b604051903d90823e3d90fd5b6040516370a0823160e01b8152306004820152919250602090829060249082905afa908115610a3457600091614c56575b506007549182821115614afa5782614c00614bdf60009560008051602061507b833981519152956138a7565b8092614bf86006548084111589146109ea5783906138a7565b600655613887565b6007556141b3614c26614c1560115484613887565b93614c208186613cea565b94613d0a565b614c3284601054613887565b60105580601155604051938493846040919493926060820195825260208201520152565b90506020813d602011614c80575b81614c7160209383613506565b81010312610341575138614bb3565b3d9150614c64565b604051630292d7c360e51b8152600490fd5b90600e548015614c88576001600160a01b0392831692907f00000000000000000000000000000000000000000000000000000000000000008216848114614e105750600084614daa5750475b846000526018602052604060002090815480821115614afa57614d08916138a7565b908560005260186020526003604060002001805460ff811615614d48575b505060008051602061507b833981519152935080614a1e836141b39354613887565b6101006019541015614ae85760ff1916600117905560195490600160401b8210156116085760008051602061507b83398151915294614d908360016141b39501601955613a8b565b819291549060031b918a831b921b19161790559038614d26565b6040516370a0823160e01b8152306004820152602081602481895afa918215614b76578092614ddb575b5050614ce6565b9091506020823d602011614e08575b81614df760209383613506565b81010312614b6b5750513880614dd4565b3d9150614dea565b6040516370a0823160e01b81523060048201529250602090839060249082905afa918215610a3457600092614e82575b5060075480831115614afa57614c00614e688260008051602061507b833981519152956138a7565b8092614bf8600654808411156000146109ea5783906138a7565b9091506020813d602011614eae575b81614e9e60209383613506565b8101031261034157519038614e40565b3d9150614e91565b906000602091828151910182855af115610a34576000513d614f0957506001600160a01b0381163b155b614ee75750565b604051635274afe760e01b81526001600160a01b039091166004820152602490fd5b60011415614ee0565b8054600160401b81101561160857614f2f91600182018155614395565b919091614f83578051825460208301516fffffffffffffffffffffffffffffffff199091166001600160401b039290921691909117604091821b67ffffffffffffffff60401b161783556001910151910155565b634e487b7160e01b600052600060045260246000fd5b6001600160401b036001820154906040519260608401848110838211176116085760405281431684526004602085019183421683526040860194855201938454801561504c57600019810190811161113c57614ff59086614395565b509483865416848351161460001461503d5750505183546fffffffffffffffff00000000000000001916911660401b67ffffffffffffffff60401b1617825560019051910155565b92509250506135669250614f12565b509250505061356691614f1256fedf6966c971051c3d54ec59162606531493a51404a002842f56009d7e5cf4a8c7f502c7eda43df8a8ec352065360db3486f90ce32849cf8182983d7939bfd3626af8f9d0e884d3306a083e846741a0bc4d75908e2b0ec63b558219652ae4c1b90752d7e161ff5146f80e3820893176eb40532811e5e20400dfdde57455213706ad81f085560db5c809c425a15f00e3f2904e4fa46d6e8672ff2e671ccd6d9a231a26469706673582212201b445ad2e1e632ba16d8373e521aca07f448befc11411a2cc51168aef1ac0da664736f6c63430008170033",
  "linkReferences": {},
  "deployedLinkReferences": {}
}