{
  "_format": "hh-sol-artifact-1",
  "contractName": "TEMPL",
  "sourceName": "contracts/TEMPL.sol",
  "abi": [
    {
      "inputs": [
        {
          "internalType": "address",
          "name": "_priest",
          "type": "address"
        },
        {
          "internalType": "address",
          "name": "_protocolFeeRecipient",
          "type": "address"
        },
        {
          "internalType": "address",
          "name": "_token",
          "type": "address"
        },
        {
          "internalType": "uint256",
          "name": "_entryFee",
          "type": "uint256"
        }
      ],
      "stateMutability": "nonpayable",
      "type": "constructor"
    },
    {
      "inputs": [],
      "name": "ActiveProposalExists",
      "type": "error"
    },
    {
      "inputs": [],
      "name": "AlreadyExecuted",
      "type": "error"
    },
    {
      "inputs": [],
      "name": "AlreadyPurchased",
      "type": "error"
    },
    {
      "inputs": [],
      "name": "AmountZero",
      "type": "error"
    },
    {
      "inputs": [],
      "name": "ContractPausedError",
      "type": "error"
    },
    {
      "inputs": [],
      "name": "DescriptionRequired",
      "type": "error"
    },
    {
      "inputs": [],
      "name": "EntryFeeTooSmall",
      "type": "error"
    },
    {
      "inputs": [],
      "name": "ExecutionDelayActive",
      "type": "error"
    },
    {
      "inputs": [],
      "name": "InsufficientBalance",
      "type": "error"
    },
    {
      "inputs": [],
      "name": "InsufficientPoolBalance",
      "type": "error"
    },
    {
      "inputs": [],
      "name": "InsufficientTreasuryBalance",
      "type": "error"
    },
    {
      "inputs": [],
      "name": "InvalidCallData",
      "type": "error"
    },
    {
      "inputs": [],
      "name": "InvalidEntryFee",
      "type": "error"
    },
    {
      "inputs": [],
      "name": "InvalidProposal",
      "type": "error"
    },
    {
      "inputs": [],
      "name": "InvalidRecipient",
      "type": "error"
    },
    {
      "inputs": [],
      "name": "InvalidSender",
      "type": "error"
    },
    {
      "inputs": [],
      "name": "JoinedAfterProposal",
      "type": "error"
    },
    {
      "inputs": [],
      "name": "LimitOutOfRange",
      "type": "error"
    },
    {
      "inputs": [],
      "name": "NoMembers",
      "type": "error"
    },
    {
      "inputs": [],
      "name": "NoRewardsToClaim",
      "type": "error"
    },
    {
      "inputs": [],
      "name": "NoTreasuryFunds",
      "type": "error"
    },
    {
      "inputs": [],
      "name": "NotDAO",
      "type": "error"
    },
    {
      "inputs": [],
      "name": "NotMember",
      "type": "error"
    },
    {
      "inputs": [],
      "name": "ProposalExecutionFailed",
      "type": "error"
    },
    {
      "inputs": [],
      "name": "ProposalNotPassed",
      "type": "error"
    },
    {
      "inputs": [],
      "name": "QuorumNotReached",
      "type": "error"
    },
    {
      "inputs": [],
      "name": "ReentrancyGuardReentrantCall",
      "type": "error"
    },
    {
      "inputs": [
        {
          "internalType": "address",
          "name": "token",
          "type": "address"
        }
      ],
      "name": "SafeERC20FailedOperation",
      "type": "error"
    },
    {
      "inputs": [],
      "name": "TitleRequired",
      "type": "error"
    },
    {
      "inputs": [],
      "name": "TokenChangeDisabled",
      "type": "error"
    },
    {
      "inputs": [],
      "name": "VotingEnded",
      "type": "error"
    },
    {
      "inputs": [],
      "name": "VotingNotEnded",
      "type": "error"
    },
    {
      "inputs": [],
      "name": "VotingPeriodTooLong",
      "type": "error"
    },
    {
      "inputs": [],
      "name": "VotingPeriodTooShort",
      "type": "error"
    },
    {
      "anonymous": false,
      "inputs": [
        {
          "indexed": true,
          "internalType": "address",
          "name": "purchaser",
          "type": "address"
        },
        {
          "indexed": false,
          "internalType": "uint256",
          "name": "totalAmount",
          "type": "uint256"
        },
        {
          "indexed": false,
          "internalType": "uint256",
          "name": "burnedAmount",
          "type": "uint256"
        },
        {
          "indexed": false,
          "internalType": "uint256",
          "name": "treasuryAmount",
          "type": "uint256"
        },
        {
          "indexed": false,
          "internalType": "uint256",
          "name": "memberPoolAmount",
          "type": "uint256"
        },
        {
          "indexed": false,
          "internalType": "uint256",
          "name": "protocolAmount",
          "type": "uint256"
        },
        {
          "indexed": false,
          "internalType": "uint256",
          "name": "timestamp",
          "type": "uint256"
        },
        {
          "indexed": false,
          "internalType": "uint256",
          "name": "blockNumber",
          "type": "uint256"
        },
        {
          "indexed": false,
          "internalType": "uint256",
          "name": "purchaseId",
          "type": "uint256"
        }
      ],
      "name": "AccessPurchased",
      "type": "event"
    },
    {
      "anonymous": false,
      "inputs": [
        {
          "indexed": true,
          "internalType": "address",
          "name": "token",
          "type": "address"
        },
        {
          "indexed": false,
          "internalType": "uint256",
          "name": "entryFee",
          "type": "uint256"
        }
      ],
      "name": "ConfigUpdated",
      "type": "event"
    },
    {
      "anonymous": false,
      "inputs": [
        {
          "indexed": false,
          "internalType": "bool",
          "name": "isPaused",
          "type": "bool"
        }
      ],
      "name": "ContractPaused",
      "type": "event"
    },
    {
      "anonymous": false,
      "inputs": [
        {
          "indexed": true,
          "internalType": "address",
          "name": "member",
          "type": "address"
        },
        {
          "indexed": false,
          "internalType": "uint256",
          "name": "amount",
          "type": "uint256"
        },
        {
          "indexed": false,
          "internalType": "uint256",
          "name": "timestamp",
          "type": "uint256"
        }
      ],
      "name": "MemberPoolClaimed",
      "type": "event"
    },
    {
      "anonymous": false,
      "inputs": [
        {
          "indexed": true,
          "internalType": "uint256",
          "name": "proposalId",
          "type": "uint256"
        },
        {
          "indexed": true,
          "internalType": "address",
          "name": "proposer",
          "type": "address"
        },
        {
          "indexed": false,
          "internalType": "string",
          "name": "title",
          "type": "string"
        },
        {
          "indexed": false,
          "internalType": "uint256",
          "name": "endTime",
          "type": "uint256"
        }
      ],
      "name": "ProposalCreated",
      "type": "event"
    },
    {
      "anonymous": false,
      "inputs": [
        {
          "indexed": true,
          "internalType": "uint256",
          "name": "proposalId",
          "type": "uint256"
        },
        {
          "indexed": false,
          "internalType": "bool",
          "name": "success",
          "type": "bool"
        },
        {
          "indexed": false,
          "internalType": "bytes",
          "name": "returnData",
          "type": "bytes"
        }
      ],
      "name": "ProposalExecuted",
      "type": "event"
    },
    {
      "anonymous": false,
      "inputs": [
        {
          "indexed": true,
          "internalType": "uint256",
          "name": "proposalId",
          "type": "uint256"
        },
        {
          "indexed": true,
          "internalType": "address",
          "name": "token",
          "type": "address"
        },
        {
          "indexed": true,
          "internalType": "address",
          "name": "recipient",
          "type": "address"
        },
        {
          "indexed": false,
          "internalType": "uint256",
          "name": "amount",
          "type": "uint256"
        },
        {
          "indexed": false,
          "internalType": "string",
          "name": "description",
          "type": "string"
        }
      ],
      "name": "TreasuryAction",
      "type": "event"
    },
    {
      "anonymous": false,
      "inputs": [
        {
          "indexed": true,
          "internalType": "uint256",
          "name": "proposalId",
          "type": "uint256"
        },
        {
          "indexed": false,
          "internalType": "uint256",
          "name": "amount",
          "type": "uint256"
        },
        {
          "indexed": false,
          "internalType": "uint256",
          "name": "perMember",
          "type": "uint256"
        },
        {
          "indexed": false,
          "internalType": "uint256",
          "name": "remainder",
          "type": "uint256"
        }
      ],
      "name": "TreasuryDisbanded",
      "type": "event"
    },
    {
      "anonymous": false,
      "inputs": [
        {
          "indexed": true,
          "internalType": "uint256",
          "name": "proposalId",
          "type": "uint256"
        },
        {
          "indexed": true,
          "internalType": "address",
          "name": "voter",
          "type": "address"
        },
        {
          "indexed": false,
          "internalType": "bool",
          "name": "support",
          "type": "bool"
        },
        {
          "indexed": false,
          "internalType": "uint256",
          "name": "timestamp",
          "type": "uint256"
        }
      ],
      "name": "VoteCast",
      "type": "event"
    },
    {
      "inputs": [],
      "name": "DEFAULT_VOTING_PERIOD",
      "outputs": [
        {
          "internalType": "uint256",
          "name": "",
          "type": "uint256"
        }
      ],
      "stateMutability": "view",
      "type": "function"
    },
    {
      "inputs": [],
      "name": "MAX_VOTING_PERIOD",
      "outputs": [
        {
          "internalType": "uint256",
          "name": "",
          "type": "uint256"
        }
      ],
      "stateMutability": "view",
      "type": "function"
    },
    {
      "inputs": [],
      "name": "MIN_VOTING_PERIOD",
      "outputs": [
        {
          "internalType": "uint256",
          "name": "",
          "type": "uint256"
        }
      ],
      "stateMutability": "view",
      "type": "function"
    },
    {
      "inputs": [],
      "name": "accessToken",
      "outputs": [
        {
          "internalType": "address",
          "name": "",
          "type": "address"
        }
      ],
      "stateMutability": "view",
      "type": "function"
    },
    {
      "inputs": [
        {
          "internalType": "address",
          "name": "",
          "type": "address"
        }
      ],
      "name": "activeProposalId",
      "outputs": [
        {
          "internalType": "uint256",
          "name": "",
          "type": "uint256"
        }
      ],
      "stateMutability": "view",
      "type": "function"
    },
    {
      "inputs": [],
      "name": "claimMemberPool",
      "outputs": [],
      "stateMutability": "nonpayable",
      "type": "function"
    },
    {
      "inputs": [
        {
          "internalType": "string",
          "name": "_title",
          "type": "string"
        },
        {
          "internalType": "string",
          "name": "_description",
          "type": "string"
        },
        {
          "internalType": "uint256",
          "name": "_votingPeriod",
          "type": "uint256"
        }
      ],
      "name": "createProposalDisbandTreasury",
      "outputs": [
        {
          "internalType": "uint256",
          "name": "",
          "type": "uint256"
        }
      ],
      "stateMutability": "nonpayable",
      "type": "function"
    },
    {
      "inputs": [
        {
          "internalType": "string",
          "name": "_title",
          "type": "string"
        },
        {
          "internalType": "string",
          "name": "_description",
          "type": "string"
        },
        {
          "internalType": "bool",
          "name": "_paused",
          "type": "bool"
        },
        {
          "internalType": "uint256",
          "name": "_votingPeriod",
          "type": "uint256"
        }
      ],
      "name": "createProposalSetPaused",
      "outputs": [
        {
          "internalType": "uint256",
          "name": "",
          "type": "uint256"
        }
      ],
      "stateMutability": "nonpayable",
      "type": "function"
    },
    {
      "inputs": [
        {
          "internalType": "string",
          "name": "_title",
          "type": "string"
        },
        {
          "internalType": "string",
          "name": "_description",
          "type": "string"
        },
        {
          "internalType": "uint256",
          "name": "_newEntryFee",
          "type": "uint256"
        },
        {
          "internalType": "uint256",
          "name": "_votingPeriod",
          "type": "uint256"
        }
      ],
      "name": "createProposalUpdateConfig",
      "outputs": [
        {
          "internalType": "uint256",
          "name": "",
          "type": "uint256"
        }
      ],
      "stateMutability": "nonpayable",
      "type": "function"
    },
    {
      "inputs": [
        {
          "internalType": "string",
          "name": "_title",
          "type": "string"
        },
        {
          "internalType": "string",
          "name": "_description",
          "type": "string"
        },
        {
          "internalType": "address",
          "name": "_token",
          "type": "address"
        },
        {
          "internalType": "address",
          "name": "_recipient",
          "type": "address"
        },
        {
          "internalType": "string",
          "name": "_reason",
          "type": "string"
        },
        {
          "internalType": "uint256",
          "name": "_votingPeriod",
          "type": "uint256"
        }
      ],
      "name": "createProposalWithdrawAllTreasury",
      "outputs": [
        {
          "internalType": "uint256",
          "name": "",
          "type": "uint256"
        }
      ],
      "stateMutability": "nonpayable",
      "type": "function"
    },
    {
      "inputs": [
        {
          "internalType": "string",
          "name": "_title",
          "type": "string"
        },
        {
          "internalType": "string",
          "name": "_description",
          "type": "string"
        },
        {
          "internalType": "address",
          "name": "_token",
          "type": "address"
        },
        {
          "internalType": "address",
          "name": "_recipient",
          "type": "address"
        },
        {
          "internalType": "uint256",
          "name": "_amount",
          "type": "uint256"
        },
        {
          "internalType": "string",
          "name": "_reason",
          "type": "string"
        },
        {
          "internalType": "uint256",
          "name": "_votingPeriod",
          "type": "uint256"
        }
      ],
      "name": "createProposalWithdrawTreasury",
      "outputs": [
        {
          "internalType": "uint256",
          "name": "",
          "type": "uint256"
        }
      ],
      "stateMutability": "nonpayable",
      "type": "function"
    },
    {
      "inputs": [],
      "name": "cumulativeMemberRewards",
      "outputs": [
        {
          "internalType": "uint256",
          "name": "",
          "type": "uint256"
        }
      ],
      "stateMutability": "view",
      "type": "function"
    },
    {
      "inputs": [],
      "name": "disbandTreasuryDAO",
      "outputs": [],
      "stateMutability": "nonpayable",
      "type": "function"
    },
    {
      "inputs": [],
      "name": "entryFee",
      "outputs": [
        {
          "internalType": "uint256",
          "name": "",
          "type": "uint256"
        }
      ],
      "stateMutability": "view",
      "type": "function"
    },
    {
      "inputs": [
        {
          "internalType": "uint256",
          "name": "_proposalId",
          "type": "uint256"
        }
      ],
      "name": "executeProposal",
      "outputs": [],
      "stateMutability": "nonpayable",
      "type": "function"
    },
    {
      "inputs": [],
      "name": "executionDelayAfterQuorum",
      "outputs": [
        {
          "internalType": "uint256",
          "name": "",
          "type": "uint256"
        }
      ],
      "stateMutability": "view",
      "type": "function"
    },
    {
      "inputs": [],
      "name": "getActiveProposals",
      "outputs": [
        {
          "internalType": "uint256[]",
          "name": "",
          "type": "uint256[]"
        }
      ],
      "stateMutability": "view",
      "type": "function"
    },
    {
      "inputs": [
        {
          "internalType": "uint256",
          "name": "offset",
          "type": "uint256"
        },
        {
          "internalType": "uint256",
          "name": "limit",
          "type": "uint256"
        }
      ],
      "name": "getActiveProposalsPaginated",
      "outputs": [
        {
          "internalType": "uint256[]",
          "name": "proposalIds",
          "type": "uint256[]"
        },
        {
          "internalType": "bool",
          "name": "hasMore",
          "type": "bool"
        }
      ],
      "stateMutability": "view",
      "type": "function"
    },
    {
      "inputs": [
        {
          "internalType": "address",
          "name": "member",
          "type": "address"
        }
      ],
      "name": "getClaimablePoolAmount",
      "outputs": [
        {
          "internalType": "uint256",
          "name": "",
          "type": "uint256"
        }
      ],
      "stateMutability": "view",
      "type": "function"
    },
    {
      "inputs": [],
      "name": "getConfig",
      "outputs": [
        {
          "internalType": "address",
          "name": "token",
          "type": "address"
        },
        {
          "internalType": "uint256",
          "name": "fee",
          "type": "uint256"
        },
        {
          "internalType": "bool",
          "name": "isPaused",
          "type": "bool"
        },
        {
          "internalType": "uint256",
          "name": "purchases",
          "type": "uint256"
        },
        {
          "internalType": "uint256",
          "name": "treasury",
          "type": "uint256"
        },
        {
          "internalType": "uint256",
          "name": "pool",
          "type": "uint256"
        }
      ],
      "stateMutability": "view",
      "type": "function"
    },
    {
      "inputs": [],
      "name": "getMemberCount",
      "outputs": [
        {
          "internalType": "uint256",
          "name": "",
          "type": "uint256"
        }
      ],
      "stateMutability": "view",
      "type": "function"
    },
    {
      "inputs": [
        {
          "internalType": "uint256",
          "name": "_proposalId",
          "type": "uint256"
        }
      ],
      "name": "getProposal",
      "outputs": [
        {
          "internalType": "address",
          "name": "proposer",
          "type": "address"
        },
        {
          "internalType": "string",
          "name": "title",
          "type": "string"
        },
        {
          "internalType": "string",
          "name": "description",
          "type": "string"
        },
        {
          "internalType": "uint256",
          "name": "yesVotes",
          "type": "uint256"
        },
        {
          "internalType": "uint256",
          "name": "noVotes",
          "type": "uint256"
        },
        {
          "internalType": "uint256",
          "name": "endTime",
          "type": "uint256"
        },
        {
          "internalType": "bool",
          "name": "executed",
          "type": "bool"
        },
        {
          "internalType": "bool",
          "name": "passed",
          "type": "bool"
        }
      ],
      "stateMutability": "view",
      "type": "function"
    },
    {
      "inputs": [
        {
          "internalType": "address",
          "name": "user",
          "type": "address"
        }
      ],
      "name": "getPurchaseDetails",
      "outputs": [
        {
          "internalType": "bool",
          "name": "purchased",
          "type": "bool"
        },
        {
          "internalType": "uint256",
          "name": "timestamp",
          "type": "uint256"
        },
        {
          "internalType": "uint256",
          "name": "blockNum",
          "type": "uint256"
        }
      ],
      "stateMutability": "view",
      "type": "function"
    },
    {
      "inputs": [],
      "name": "getTreasuryInfo",
      "outputs": [
        {
          "internalType": "uint256",
          "name": "treasury",
          "type": "uint256"
        },
        {
          "internalType": "uint256",
          "name": "memberPool",
          "type": "uint256"
        },
        {
          "internalType": "uint256",
          "name": "totalReceived",
          "type": "uint256"
        },
        {
          "internalType": "uint256",
          "name": "totalBurnedAmount",
          "type": "uint256"
        },
        {
          "internalType": "uint256",
          "name": "totalProtocolFees",
          "type": "uint256"
        },
        {
          "internalType": "address",
          "name": "protocolAddress",
          "type": "address"
        }
      ],
      "stateMutability": "view",
      "type": "function"
    },
    {
      "inputs": [
        {
          "internalType": "address",
          "name": "voter",
          "type": "address"
        }
      ],
      "name": "getVoteWeight",
      "outputs": [
        {
          "internalType": "uint256",
          "name": "",
          "type": "uint256"
        }
      ],
      "stateMutability": "view",
      "type": "function"
    },
    {
      "inputs": [
        {
          "internalType": "address",
          "name": "user",
          "type": "address"
        }
      ],
      "name": "hasAccess",
      "outputs": [
        {
          "internalType": "bool",
          "name": "",
          "type": "bool"
        }
      ],
      "stateMutability": "view",
      "type": "function"
    },
    {
      "inputs": [
        {
          "internalType": "address",
          "name": "",
          "type": "address"
        }
      ],
      "name": "hasActiveProposal",
      "outputs": [
        {
          "internalType": "bool",
          "name": "",
          "type": "bool"
        }
      ],
      "stateMutability": "view",
      "type": "function"
    },
    {
      "inputs": [
        {
          "internalType": "uint256",
          "name": "_proposalId",
          "type": "uint256"
        },
        {
          "internalType": "address",
          "name": "_voter",
          "type": "address"
        }
      ],
      "name": "hasVoted",
      "outputs": [
        {
          "internalType": "bool",
          "name": "voted",
          "type": "bool"
        },
        {
          "internalType": "bool",
          "name": "support",
          "type": "bool"
        }
      ],
      "stateMutability": "view",
      "type": "function"
    },
    {
      "inputs": [
        {
          "internalType": "uint256",
          "name": "",
          "type": "uint256"
        }
      ],
      "name": "memberList",
      "outputs": [
        {
          "internalType": "address",
          "name": "",
          "type": "address"
        }
      ],
      "stateMutability": "view",
      "type": "function"
    },
    {
      "inputs": [],
      "name": "memberPoolBalance",
      "outputs": [
        {
          "internalType": "uint256",
          "name": "",
          "type": "uint256"
        }
      ],
      "stateMutability": "view",
      "type": "function"
    },
    {
      "inputs": [
        {
          "internalType": "address",
          "name": "",
          "type": "address"
        }
      ],
      "name": "memberPoolClaims",
      "outputs": [
        {
          "internalType": "uint256",
          "name": "",
          "type": "uint256"
        }
      ],
      "stateMutability": "view",
      "type": "function"
    },
    {
      "inputs": [],
      "name": "memberRewardRemainder",
      "outputs": [
        {
          "internalType": "uint256",
          "name": "",
          "type": "uint256"
        }
      ],
      "stateMutability": "view",
      "type": "function"
    },
    {
      "inputs": [
        {
          "internalType": "address",
          "name": "",
          "type": "address"
        }
      ],
      "name": "members",
      "outputs": [
        {
          "internalType": "bool",
          "name": "purchased",
          "type": "bool"
        },
        {
          "internalType": "uint256",
          "name": "timestamp",
          "type": "uint256"
        },
        {
          "internalType": "uint256",
          "name": "block",
          "type": "uint256"
        },
        {
          "internalType": "uint256",
          "name": "rewardSnapshot",
          "type": "uint256"
        }
      ],
      "stateMutability": "view",
      "type": "function"
    },
    {
      "inputs": [],
      "name": "paused",
      "outputs": [
        {
          "internalType": "bool",
          "name": "",
          "type": "bool"
        }
      ],
      "stateMutability": "view",
      "type": "function"
    },
    {
      "inputs": [],
      "name": "priest",
      "outputs": [
        {
          "internalType": "address",
          "name": "",
          "type": "address"
        }
      ],
      "stateMutability": "view",
      "type": "function"
    },
    {
      "inputs": [],
      "name": "proposalCount",
      "outputs": [
        {
          "internalType": "uint256",
          "name": "",
          "type": "uint256"
        }
      ],
      "stateMutability": "view",
      "type": "function"
    },
    {
      "inputs": [
        {
          "internalType": "uint256",
          "name": "",
          "type": "uint256"
        }
      ],
      "name": "proposals",
      "outputs": [
        {
          "internalType": "uint256",
          "name": "id",
          "type": "uint256"
        },
        {
          "internalType": "address",
          "name": "proposer",
          "type": "address"
        },
        {
          "internalType": "string",
          "name": "title",
          "type": "string"
        },
        {
          "internalType": "string",
          "name": "description",
          "type": "string"
        },
        {
          "internalType": "enum TEMPL.Action",
          "name": "action",
          "type": "uint8"
        },
        {
          "internalType": "address",
          "name": "token",
          "type": "address"
        },
        {
          "internalType": "address",
          "name": "recipient",
          "type": "address"
        },
        {
          "internalType": "uint256",
          "name": "amount",
          "type": "uint256"
        },
        {
          "internalType": "string",
          "name": "reason",
          "type": "string"
        },
        {
          "internalType": "bool",
          "name": "paused",
          "type": "bool"
        },
        {
          "internalType": "uint256",
          "name": "newEntryFee",
          "type": "uint256"
        },
        {
          "internalType": "uint256",
          "name": "yesVotes",
          "type": "uint256"
        },
        {
          "internalType": "uint256",
          "name": "noVotes",
          "type": "uint256"
        },
        {
          "internalType": "uint256",
          "name": "endTime",
          "type": "uint256"
        },
        {
          "internalType": "uint256",
          "name": "createdAt",
          "type": "uint256"
        },
        {
          "internalType": "bool",
          "name": "executed",
          "type": "bool"
        },
        {
          "internalType": "uint256",
          "name": "eligibleVoters",
          "type": "uint256"
        },
        {
          "internalType": "uint256",
          "name": "quorumReachedAt",
          "type": "uint256"
        },
        {
          "internalType": "bool",
          "name": "quorumExempt",
          "type": "bool"
        }
      ],
      "stateMutability": "view",
      "type": "function"
    },
    {
      "inputs": [],
      "name": "protocolFeeRecipient",
      "outputs": [
        {
          "internalType": "address",
          "name": "",
          "type": "address"
        }
      ],
      "stateMutability": "view",
      "type": "function"
    },
    {
      "inputs": [],
      "name": "purchaseAccess",
      "outputs": [],
      "stateMutability": "nonpayable",
      "type": "function"
    },
    {
      "inputs": [],
      "name": "quorumPercent",
      "outputs": [
        {
          "internalType": "uint256",
          "name": "",
          "type": "uint256"
        }
      ],
      "stateMutability": "view",
      "type": "function"
    },
    {
      "inputs": [
        {
          "internalType": "bool",
          "name": "_paused",
          "type": "bool"
        }
      ],
      "name": "setPausedDAO",
      "outputs": [],
      "stateMutability": "nonpayable",
      "type": "function"
    },
    {
      "inputs": [],
      "name": "totalBurned",
      "outputs": [
        {
          "internalType": "uint256",
          "name": "",
          "type": "uint256"
        }
      ],
      "stateMutability": "view",
      "type": "function"
    },
    {
      "inputs": [],
      "name": "totalPurchases",
      "outputs": [
        {
          "internalType": "uint256",
          "name": "",
          "type": "uint256"
        }
      ],
      "stateMutability": "view",
      "type": "function"
    },
    {
      "inputs": [],
      "name": "totalToMemberPool",
      "outputs": [
        {
          "internalType": "uint256",
          "name": "",
          "type": "uint256"
        }
      ],
      "stateMutability": "view",
      "type": "function"
    },
    {
      "inputs": [],
      "name": "totalToProtocol",
      "outputs": [
        {
          "internalType": "uint256",
          "name": "",
          "type": "uint256"
        }
      ],
      "stateMutability": "view",
      "type": "function"
    },
    {
      "inputs": [],
      "name": "totalToTreasury",
      "outputs": [
        {
          "internalType": "uint256",
          "name": "",
          "type": "uint256"
        }
      ],
      "stateMutability": "view",
      "type": "function"
    },
    {
      "inputs": [],
      "name": "treasuryBalance",
      "outputs": [
        {
          "internalType": "uint256",
          "name": "",
          "type": "uint256"
        }
      ],
      "stateMutability": "view",
      "type": "function"
    },
    {
      "inputs": [
        {
          "internalType": "address",
          "name": "_token",
          "type": "address"
        },
        {
          "internalType": "uint256",
          "name": "_entryFee",
          "type": "uint256"
        }
      ],
      "name": "updateConfigDAO",
      "outputs": [],
      "stateMutability": "nonpayable",
      "type": "function"
    },
    {
      "inputs": [
        {
          "internalType": "uint256",
          "name": "_proposalId",
          "type": "uint256"
        },
        {
          "internalType": "bool",
          "name": "_support",
          "type": "bool"
        }
      ],
      "name": "vote",
      "outputs": [],
      "stateMutability": "nonpayable",
      "type": "function"
    },
    {
      "inputs": [
        {
          "internalType": "address",
          "name": "token",
          "type": "address"
        },
        {
          "internalType": "address",
          "name": "recipient",
          "type": "address"
        },
        {
          "internalType": "string",
          "name": "reason",
          "type": "string"
        }
      ],
      "name": "withdrawAllTreasuryDAO",
      "outputs": [],
      "stateMutability": "nonpayable",
      "type": "function"
    },
    {
      "inputs": [
        {
          "internalType": "address",
          "name": "token",
          "type": "address"
        },
        {
          "internalType": "address",
          "name": "recipient",
          "type": "address"
        },
        {
          "internalType": "uint256",
          "name": "amount",
          "type": "uint256"
        },
        {
          "internalType": "string",
          "name": "reason",
          "type": "string"
        }
      ],
      "name": "withdrawTreasuryDAO",
      "outputs": [],
      "stateMutability": "nonpayable",
      "type": "function"
    },
    {
      "stateMutability": "payable",
      "type": "receive"
    }
  ],
  "bytecode": "0x60e034620001cb57601f6200372e38819003918201601f191683019291906001600160401b03841183851017620001d0578160809284926040968752833981010312620001cb576200005181620001e6565b906200006060208201620001e6565b60606200006f858401620001e6565b9201516001600055602160055562093a80600655926001600160a01b0380821615908115620001bf575b8115620001b3575b50620001a25783156200019157600a84106200018057600a84066200016f5760805260a05260c05260015560ff1960045416600455516135329081620001fc8239608051818181610ce20152611b71015260a051818181610c480152818161128c015261170e015260c05181818161034a015281816103fc015281816104cf01528181610ada01528181610bd3015281816110b90152818161122301528181611256015281816112ae01528181611c8b015281816120820152818161229401528181612e030152612e570152f35b8451636fe6a4c960e01b8152600490fd5b8451635eee050360e11b8152600490fd5b84516365e52d5160e11b8152600490fd5b8451634e46966960e11b8152600490fd5b905083161538620000a1565b83811615915062000099565b600080fd5b634e487b7160e01b600052604160045260246000fd5b51906001600160a01b0382168203620001cb5756fe610120604052600436101561001c575b361561001a57600080fd5b005b60003560e01c8063013cf08b1461261c578063072ea61c146125fe57806308ae4b0c1461259d5780630d61b51914611f125780631808022a14611eef578063215809ca14610d715780632833788614611e32578063313dab2014611e145780633ccae22a14611c2c5780634385963214611bbd5780634a87169d14611aea578063524ddc2314611abd5780635584c4f9146119ec57806356e4a9a8146118105780635962a941146117f257806359c266ff146117d45780635c975abb146117b15780635fa7ddf01461179357806364653f291461173d57806364df049e146116f8578063653724d6146116cb5780636898b19c146116ad5780636ad18550146116735780637070ac4814611655578063843257a6146115b05780638e3a3d98146114da5780638f78bbc41461149857806395a078e814611459578063997072f71461143b57806399e288d814611020578063a51a46b914611002578063a64e024a14610fe4578063a730117e14610fc1578063a81bbe3c14610f87578063ae79d21714610d76578063aedfe53f14610d71578063b307fc6d14610d2f578063bdb75b3414610d11578063bebc8fc014610ccc578063c1b57edb14610cae578063c293947114610b9f578063c3f909d414610ab4578063c7f758a814610993578063c9d27afe14610702578063d402d4be14610467578063d89135cd14610449578063da35c6641461042b578063e243c5fb146103e6578063f7158b2a146102b4578063f81cbd26146102965763ffafe4ad0361000f5734610291576020366003190112610291576001600160a01b0361027361293a565b16600052600f602052602060ff604060002054166040519015158152f35b600080fd5b34610291576000366003190112610291576020600554604051908152f35b346102915760003660031901126102915733600052600760205260ff60406000205416156103d4576102e4612d5f565b6102ed33612aad565b80156103c25780610303600354600b5490612aa0565b106103b057600a5433600052600760205260036040600020015560096020526040600020610332828254612a93565b905561034081600354612aa0565b60035561037781337f00000000000000000000000000000000000000000000000000000000000000006001600160a01b0316613415565b6040519081524260208201527fc4e740509dbfae3377bc9925dd7bcc8aaba69cd730316216d76b2d24725c636660403392a26001600055005b60405163bc6072f160e01b8152600490fd5b6040516373380d9960e01b8152600490fd5b60405163148fe22160e11b8152600490fd5b34610291576000366003190112610291576040517f00000000000000000000000000000000000000000000000000000000000000006001600160a01b03168152602090f35b34610291576000366003190112610291576020600c54604051908152f35b34610291576000366003190112610291576020601154604051908152f35b346102915760803660031901126102915761048061293a565b610488612950565b604435906064356001600160401b038111610291576104ab9036906004016129cb565b923033036106f0576001600160a01b03828116949085156106de5784156106cc57807f0000000000000000000000000000000000000000000000000000000000000000169216938285146000146105ef576040516370a0823160e01b8152306004820152602081602481875afa9081156105e3576000916105b1575b506003548082111561059f5761053c91612aa0565b811161059f57610578816000956000805160206134dd83398151915295610570600254808511158a14610599578490612aa0565b600255613415565b61059460405192839283526040602084015260408301906128fa565b0390a4005b80612aa0565b604051631c7b597b60e11b8152600490fd5b90506020813d6020116105db575b816105cc60209383612834565b81010312610291575187610527565b3d91506105bf565b6040513d6000823e3d90fd5b9150918315600014610644575047811161059f57600080808084885af1610614612d82565b5015610632576000916000805160206134dd83398151915291610578565b6040516331d436c760e01b8152600490fd5b90916040516370a0823160e01b8152306004820152602081602481885afa9081156105e35760009161069a575b50831161059f57826106956000946000805160206134dd8339815191529487613415565b610578565b90506020813d6020116106c4575b816106b560209383612834565b81010312610291575186610671565b3d91506106a8565b6040516365e52d5160e11b8152600490fd5b604051634e46966960e11b8152600490fd5b6040516327568d2f60e11b8152600490fd5b346102915760403660031901126102915760248035801515916004359183810361029157336000526020916007835260ff60406000205416156103d457600c548410156109815783600052600d8352604060002090600c820192835442101561096f5733600052600785526001908160406000200154600d850154111561095d57600f84013360005280875260ff604060002054166010860180895260ff6040600020541692895260406000208560ff1982541617905588526107d58360406000209060ff801983541691151516179055565b6108d95750156108c357600a830180549182018092116108ae57555b60ff60138301541615806108a2575b61083b575b50505060405192835242908301527fcbdf6214089cba887ecbf35a0b6a734589959c9763342c756bb2a80ca2bc9f6e60403393a3005b600a8201549060648202918083046064149015171561088e5750610866600554601184015490612d18565b1115610873575b80610805565b60124291015561088560065442612a93565b9055838061086d565b634e487b7160e01b60009081526011600452fd5b50601282015415610800565b82634e487b7160e01b60005260116004526000fd5b600b830180549182018092116108ae57556107f1565b905087811515036108ec575b50506107f1565b1561093357600a8301805460001981019190821161091e5755600b830180549182018092116108ae57555b86806108e5565b83634e487b7160e01b60005260116004526000fd5b600b8301805460001981019190821161091e5755600a830180549182018092116108ae5755610917565b60405163f078ca7360e01b8152600490fd5b604051637a19ed0560e01b8152600490fd5b604051631dc0650160e31b8152600490fd5b3461029157602036600319011261029157600435600c5481101561098157600052600d602052604060002060ff601382015416600014610a7b57600c81015442101580610a6a575b60018060a01b0360018301541690600a83015490600b840154600c85015460ff600e8701541691610a48610a1d6003610a1660028b01612855565b9901612855565b610a3a604051998a99610100908b528060208c01528a01906128fa565b9088820360408a01526128fa565b946060870152608086015260a0850152151560c0840152151560e08301520390f35b50600a810154600b820154106109db565b60128101548015610aac57600654610a9291612a93565b42101580156109db5750600a810154600b820154106109db565b5060006109db565b34610291576000366003190112610291576040516370a0823160e01b81523060048201527f00000000000000000000000000000000000000000000000000000000000000006001600160a01b0316602082602481845afa80156105e357600090610b6c575b60035460c09350908180821115610b6357610b3391612aa0565b60015460ff60045416601054916040519586526020860152151560408501526060840152608083015260a0820152f35b50506000610b33565b506020823d602011610b97575b81610b8660209383612834565b810103126102915760c09151610b19565b3d9150610b79565b34610291576000366003190112610291576040516370a0823160e01b81523060048201526001600160a01b036020826024817f000000000000000000000000000000000000000000000000000000000000000085165afa9081156105e357600091610c79575b60035460c09350918280821115610c6f57610c1f91612aa0565b915b601254601154906014549260405195865260208601526040850152606084015260808301527f00000000000000000000000000000000000000000000000000000000000000001660a0820152f35b5050600091610c21565b90506020823d602011610ca6575b81610c9460209383612834565b810103126102915760c0915190610c05565b3d9150610c87565b34610291576000366003190112610291576020601254604051908152f35b34610291576000366003190112610291576040517f00000000000000000000000000000000000000000000000000000000000000006001600160a01b03168152602090f35b34610291576000366003190112610291576020601354604051908152f35b346102915760203660031901126102915760043560085481101561029157610d58602091612a46565b905460405160039290921b1c6001600160a01b03168152f35b612992565b346102915760c0366003190112610291576001600160401b0360043581811161029157610da79036906004016129cb565b60243582811161029157610dbf9036906004016129cb565b91610dc8612966565b90610dd161297c565b9360843582811161029157610dea9036906004016129cb565b93336000526020956007875260ff60406000205416156103d457610e17610e459260079460a43591612ebd565b6004810180546001600160a81b03191660089890981b610100600160a81b0316979097176003179096559491565b6005820180546001600160a01b0319166001600160a01b0390921691909117905584519101918111610f7157610e7b82546127df565b601f8111610f2b575b508493601f8211600114610ec7579381929394600092610ebc575b50508160011b916000199060031b1c19161790555b604051908152f35b015190508580610e9f565b601f1982169483600052866000209160005b88888210610f1557505083600195969710610efc575b505050811b019055610eb4565b015160001960f88460031b161c19169055858080610eef565b6001849582939585015181550194019201610ed9565b8260005285600020601f830160051c810191878410610f67575b601f0160051c01905b818110610f5b5750610e84565b60008155600101610f4e565b9091508190610f45565b634e487b7160e01b600052604160045260246000fd5b34610291576020366003190112610291576001600160a01b03610fa861293a565b1660005260096020526020604060002054604051908152f35b34610291576020366003190112610291576020610eb4610fdf61293a565b612d35565b3461029157600036600319011261029157602060405162278d008152f35b34610291576000366003190112610291576020600b54604051908152f35b346102915760003660031901126102915760ff60045416611429573033146114175761104a612d5f565b3360005260076020526040600020805460ff811661140557600191825490601e820290821593838304601e1485171561134c5783603c810204603c1485171561134c57600a840294848604600a14171561134c576040516370a0823160e01b81523360048201526020816024817f00000000000000000000000000000000000000000000000000000000000000006001600160a01b03165afa80156105e35785916000916113d0575b50106113be5760ff191685178155428186015543600282015560085468010000000000000000811015610f7157808661112f9201600855612a46565b81546001600160a01b0360039290921b91821b19163390911b17905560105461115790612b42565b601055600854858111611362575b506003600a549101558354601e810290808204601e149015171561134c576064603c8161128393049461119a86600254612a93565b6002556111a986600354612a93565b6003556111ba838604601154612a93565b6011556111c986601254612a93565b6012556111d886601354612a93565b6013556111e9838804601454612a93565b6014556040516323b872dd60e01b602082015233602482015261dead6044820152838604848201528381526112509061122181612819565b7f00000000000000000000000000000000000000000000000000000000000000006001600160a01b0316613460565b020430337f00000000000000000000000000000000000000000000000000000000000000006001600160a01b03166133ce565b6112db606484047f0000000000000000000000000000000000000000000000000000000000000000337f00000000000000000000000000000000000000000000000000000000000000006001600160a01b03166133ce565b83549260105492600019840193841161134c576064809360405196875204602086015280604086015260608501520460808301524260a08301524360c083015260e08201527fe6d1c0e418a42a777d49c66571075fc47bc1d92e7f506007ddde08d1ff182bbc6101003392a2600055005b634e487b7160e01b600052601160045260246000fd5b8554601e810290808204601e149015171561134c57611387906064600b549104612a93565b600019820191821161134c576113aa826113a46113b59484612d2b565b92612b65565b600b55600a54612a93565b600a5585611165565b604051631e9acf1760e31b8152600490fd5b9150506020813d6020116113fd575b816113ec60209383612834565b8101031261029157849051886110f3565b3d91506113df565b604051630cd9ed5560e21b8152600490fd5b604051636edaef2f60e11b8152600490fd5b604051630eceade960e31b8152600490fd5b34610291576000366003190112610291576020600854604051908152f35b34610291576020366003190112610291576001600160a01b0361147a61293a565b166000526007602052602060ff604060002054166040519015158152f35b34610291576040366003190112610291576114ce6114ba602435600435612b85565b604051928392604084526040840190612a12565b90151560208301520390f35b34610291576080366003190112610291576001600160401b036004358181116102915761150b9036906004016129cb565b90602435908111610291576115249036906004016129cb565b906044359133600052600760205260ff60406000205416156103d45782611575575b9161155960099260209460643591612ebd565b60048101805460ff191660011790559290920155604051908152f35b91600a811061159e57600a810661158c5791611546565b604051636fe6a4c960e01b8152600490fd5b604051635eee050360e11b8152600490fd5b34610291576080366003190112610291576001600160401b03600435818111610291576115e19036906004016129cb565b90602435908111610291576115fa9036906004016129cb565b6044359182151583036102915733600052600760205260ff60406000205416156103d457602092611634610eb49260089460643591612ebd565b6004819592950160ff198154169055019060ff801983541691151516179055565b34610291576000366003190112610291576020600654604051908152f35b34610291576020366003190112610291576001600160a01b0361169461293a565b16600052600e6020526020604060002054604051908152f35b34610291576000366003190112610291576020600a54604051908152f35b34610291576020366003190112610291576004358015158103610291573033036106f05761001a90612e7f565b34610291576000366003190112610291576040517f00000000000000000000000000000000000000000000000000000000000000006001600160a01b03168152602090f35b34610291576020366003190112610291576001600160a01b0361175e61293a565b1660005260076020526060604060002060ff815416906002600182015491015490604051921515835260208301526040820152f35b34610291576000366003190112610291576020600354604051908152f35b3461029157600036600319011261029157602060ff600454166040519015158152f35b34610291576000366003190112610291576020601454604051908152f35b34610291576000366003190112610291576020601054604051908152f35b346102915760e0366003190112610291576001600160401b03600435818111610291576118419036906004016129cb565b602435828111610291576118599036906004016129cb565b91611862612966565b9061186b61297c565b9360a435828111610291576118849036906004016129cb565b93336000526020956007875260ff60406000205416156103d4576118b16118df9260079460c43591612ebd565b6004810180546001600160a81b03191660089890981b610100600160a81b0316979097176002179096559491565b6005820180546001600160a01b0319166001600160a01b03909216919091179055608435600682015584519101918111610f715761191d82546127df565b601f81116119a6575b508493601f821160011461195c579381929394600092610ebc5750508160011b916000199060031b1c1916179055604051908152f35b601f1982169483600052866000209160005b8888821061199057505083600195969710610efc57505050811b019055610eb4565b600184958293958501518155019401920161196e565b8260005285600020601f830160051c8101918784106119e2575b601f0160051c01905b8181106119d65750611926565b600081556001016119c9565b90915081906119c0565b3461029157600036600319011261029157600c805490611a0b82612b10565b9160009160005b828110611a6957505050611a2581612b10565b9160005b828110611a4a5760405160208082528190611a4690820187612a12565b0390f35b80611a5760019284612b51565b51611a628287612b51565b5201611a29565b80600191600052600d60205260406000208381015442109081611aad575b50611a93575b01611a12565b80611aa7611aa087612b42565b9688612b51565b52611a8d565b60ff9150600e0154161587611a87565b3461029157604036600319011261029157611ad661293a565b3033036106f05761001a9060243590612db2565b34610291576060366003190112610291576001600160401b0360043581811161029157611b1b9036906004016129cb565b9060243590811161029157611b349036906004016129cb565b33600052600760205260ff60406000205416156103d457602091611b5b9160443591612ebd565b6004818101805460ff19908116909217905590337f00000000000000000000000000000000000000000000000000000000000000006001600160a01b031614611ba9575b5050604051908152f35b601360019101918254161790558280611b9f565b3461029157604036600319011261029157600435611bd9612950565b600c5482101561098157604091600052600d602052816000209060018060a01b0316600052600f8101602052601060ff836000205416910160205260ff8260002054168251911515825215156020820152f35b3461029157606036600319011261029157611c4561293a565b611c4d612950565b906044356001600160401b03811161029157611c6d9036906004016129cb565b903033036106f0576001600160a01b03838116939084156106de57807f000000000000000000000000000000000000000000000000000000000000000016921692828414600014611d6f576040516370a0823160e01b815230600482015291602083602481875afa9283156105e357600093611d3b575b5060035480841115611d2957600094611d0f610578926000805160206134dd83398151915296612aa0565b928391610570600254808511158a14610599578490612aa0565b604051631ab9ebab60e01b8152600490fd5b9092506020813d602011611d67575b81611d5760209383612834565b8101031261029157519186611ce4565b3d9150611d4a565b915082611d8f5750478015611d2957600080808084885af1610614612d82565b6040516370a0823160e01b81523060048201529091602082602481875afa9182156105e357600092611de0575b50818215611d29576106956000805160206134dd8339815191529360009587613415565b9091506020813d602011611e0c575b81611dfc60209383612834565b8101031261029157519085611dbc565b3d9150611def565b34610291576000366003190112610291576020600254604051908152f35b34610291576000366003190112610291573033036106f0576002548015611d2957600854908115611edd5760607f8b887c99365b16ec127c895b4fbfab96273b2a79191ed7b42b9724cd8a695ae99160009384600255611e9482600354612a93565b600355611eab611ea48284612d2b565b9183612b65565b90611eb881600a54612a93565b600a55611ec782600b54612a93565b600b5560405192835260208301526040820152a2005b604051630292d7c360e51b8152600490fd5b34610291576020366003190112610291576020610eb4611f0d61293a565b612aad565b34610291576020806003193601126102915760043590611f30612d5f565b600c548210156109815781600052600d8152604060002060ff60138201541660001461255b57600c8101544210612549575b600e810180549060ff821661253757600a830154600b840154101561252557600160ff1980931617905560018060a01b039081600184015416600052600f845260ff6040600020541680612513575b6124f3575b506004820160ff81541660058110156124dd578061200e575050506000805160206134bd83398151915291611ff360ff6008606094015416612e7f565b60408051916001835282015260006040820152a26001600055005b60018103612044575060609260096000805160206134bd833981519152959361203f935460081c1691015490612db2565b611ff3565b91939160029190828103612264575084905460081c168460058501541691612073600760068701549601612855565b9583156106de5785156106cc577f000000000000000000000000000000000000000000000000000000000000000016828103612186576040516370a0823160e01b81523060048201528581602481855afa9081156105e357600091612159575b506003548082111561059f576120e891612aa0565b861161059f576000805160206134bd8339815191529686612136606098876000805160206134dd833981519152958761212f8f995480861115600014610599578590612aa0565b9055613415565b612151604051928392835260408984015260408301906128fa565b0390a4611ff3565b90508581813d831161217f575b6121708183612834565b810103126102915751896120d3565b503d612166565b5050806121d35747841161059f57600080808087865af16121a5612d82565b501561063257856000805160206134dd8339815191526000805160206134bd83398151915296606096612136565b6040516370a0823160e01b81523060048201528381602481855afa9081156105e357600091612237575b50841161059f57856000805160206134dd8339815191526000805160206134bd83398151915296866122326060988787613415565b612136565b90508381813d831161225d575b61224e8183612834565b810103126102915751876121fd565b503d612244565b9194939160038103612421575083905460081c1661228b6007856005850154169301612855565b9382156106de577f0000000000000000000000000000000000000000000000000000000000000000169481860361236e576040516370a0823160e01b81523060048201529484866024818a5afa9586156105e35760009661233f575b506003549081871115611d29576000805160206134bd833981519152976121368a94876123256000805160206134dd8339815191529660609c612aa0565b938261212f86945480861115600014610599578590612aa0565b9095508481813d8311612367575b6123578183612834565b81010312610291575194886122e7565b503d61234d565b50929350826123905747928315611d2957600080808087865af16121a5612d82565b6040516370a0823160e01b815230600482015293928285602481845afa9485156105e3576000956123f2575b50848515611d29576000805160206134dd83398151915260609588926122326000805160206134bd833981519152998787613415565b9094508281813d831161241a575b61240a8183612834565b81010312610291575193866123bc565b503d612400565b9294935050506004036124cb578054918215611d2957600854928315611edd577f8b887c99365b16ec127c895b4fbfab96273b2a79191ed7b42b9724cd8a695ae9606086926000805160206134bd83398151915296600083975561248782600354612a93565b600355612497611ea48284612d2b565b906124a481600a54612a93565b600a556124b382600b54612a93565b600b55604051928352868301526040820152a2611ff3565b604051631c49f4d160e01b8152600490fd5b634e487b7160e01b600052602160045260246000fd5b600f84526040600020908154169055600e83526000604081205584611fb6565b50600e84528460406000205414611fb1565b60405163c8c93ba360e01b8152600490fd5b604051630dc1019760e01b8152600490fd5b604051633fc30bd160e11b8152600490fd5b6012810154801561258b5760065461257291612a93565b421015611f625760405163a905056160e01b8152600490fd5b60405163aa26a69360e01b8152600490fd5b34610291576020366003190112610291576001600160a01b036125be61293a565b1660005260076020526080604060002060ff8154169060018101549060036002820154910154916040519315158452602084015260408301526060820152f35b34610291576000366003190112610291576020600154604051908152f35b34610291576020366003190112610291576004356000908152600d6020526040902080546101005260018101546001600160a01b03169061265f60028201612855565b9161266c60038301612855565b600483015460e052600583015460068401546001600160a01b0390911694919061269860078601612855565b90600886015460ff1660c052600986015496600a87015490600b88015492600c89015494600d8a015496600e8b015460ff169860118c01549a60128d01549c6013015460ff1660805260405160a052610260906101005160a0515260a051602001528060a0516040015260a0510161270f916128fa565b60a051810360a05160600152612724916128fa565b9160e05160ff16600511156124dd576127789360ff60e05116608060a051015260018060a01b0360e05160081c1660a08051015260c060a051015260e060a051015260a051820361010060a05101526128fa565b9760c051151561012060a051015261014060a051015261016060a051015261018060a05101526101a060a05101526101c060a051015215156101e060a051015261020060a051015261022060a0510152608051151561024060a051015260a051900360a051f35b90600182811c9216801561280f575b60208310146127f957565b634e487b7160e01b600052602260045260246000fd5b91607f16916127ee565b60a081019081106001600160401b03821117610f7157604052565b90601f801991011681019081106001600160401b03821117610f7157604052565b90604051918260008254612868816127df565b908184526020946001916001811690816000146128d85750600114612899575b50505061289792500383612834565b565b600090815285812095935091905b8183106128c05750506128979350820101388080612888565b855488840185015294850194879450918301916128a7565b9250505061289794925060ff191682840152151560051b820101388080612888565b919082519283825260005b848110612926575050826000602080949584010152601f8019910116010190565b602081830181015184830182015201612905565b600435906001600160a01b038216820361029157565b602435906001600160a01b038216820361029157565b604435906001600160a01b038216820361029157565b606435906001600160a01b038216820361029157565b3461029157600036600319011261029157602060405162093a808152f35b6001600160401b038111610f7157601f01601f191660200190565b81601f82011215610291578035906129e2826129b0565b926129f06040519485612834565b8284526020838301011161029157816000926020809301838601378301015290565b90815180825260208080930193019160005b828110612a32575050505090565b835185529381019392810192600101612a24565b600854811015612a7d5760086000527ff3f7a9fe364faab93b216da50a3214154f22a0a2b415b23a84c8169e8b636ee30190600090565b634e487b7160e01b600052603260045260246000fd5b9190820180921161134c57565b9190820391821161134c57565b6001600160a01b03166000908152600760205260409020805460ff1615612af3576003600a54910154808211600014612aec57612ae991612aa0565b90565b5050600090565b50600090565b6001600160401b038111610f715760051b60200190565b90612b1a82612af9565b612b276040519182612834565b8281528092612b38601f1991612af9565b0190602036910137565b600019811461134c5760010190565b8051821015612a7d5760209160051b010190565b8115612b6f570690565b634e487b7160e01b600052601260045260246000fd5b9181158015612d0e575b612cfc57600c80549081851015612ccc57612ba984612b10565b92600092865b81881080612cc3575b15612c24575086600052600d60205260406000208381015442109081612c14575b50612bfa575b6001870180881161134c57612bf49097612b42565b96612baf565b86612c0e612c0786612b42565b9587612b51565b52612bdf565b60ff9150600e0154161538612bd9565b965091909450600095828110612c72575b505050612c4181612b10565b9160005b828110612c53575050509190565b80612c6060019284612b51565b51612c6b8287612b51565b5201612c45565b5b82811015612c355780600052600d60205260406000208281015442109081612cb3575b50612ca357600101612c73565b5050509250600192388080612c35565b60ff9150600e0154161538612c96565b50868510612bb8565b5050915050604051602081018181106001600160401b03821117610f715760405260008152600036813790600090565b6040516381f396b760e01b8152600490fd5b5060648211612b8f565b8181029291811591840414171561134c57565b8115612b6f570490565b6001600160a01b031660009081526007602052604090205460ff1615612d5a57600190565b600090565b600260005414612d70576002600055565b604051633ee5aeb560e01b8152600490fd5b3d15612dad573d90612d93826129b0565b91612da16040519384612834565b82523d6000602084013e565b606090565b6001600160a01b03919082168015159081612e52575b50612e405780612e27575b507faf8839d80c9b3bbf95c97465eb8c8348db4098f5c15af186c3b425b1129981176020600154926040519384527f00000000000000000000000000000000000000000000000000000000000000001692a2565b600a811061159e57600a810661158c5760015538612dd3565b60405163b078ee9d60e01b8152600490fd5b9050827f000000000000000000000000000000000000000000000000000000000000000016141538612dc8565b60207f752d7e161ff5146f80e3820893176eb40532811e5e20400dfdde57455213706a91151560ff196004541660ff821617600455604051908152a1565b919290928251600090156133bc578451156133aa57338152602091600f835260409060ff8284205416613339575b80613333575062093a80945b62093a8086106133225762278d00861161331157600c5492612f1884612b42565b600c558397848252600d865283822097858955600191828a01336bffffffffffffffffffffffff60a01b82541617905560028a018551906001600160401b03918281116132fd57612f6982546127df565b601f81116132b7575b50808b601f821160011461325857889161324d575b50600019600383901b1c191690861b1790555b60038b019180519182116132395792828c95928a99989795612fbd8d96546127df565b601f81116131bf575b508590601f831160011461310b5761302b88957f98120a6aaa04295520ab4e01c6c1235dd316e822cc9ff31db7b3f197366d18bd9d9895858e99968996600b966130c09f9e92613100575b5050600019600383901b1c191690871b1790555b42612a93565b97600c810198895542600d820155600e81019460ff1995868154169055338452600f820181528784208587825416179055601082019052868320848682541617905583600a82015501558d600854908160118201556013601282019186835501848154169055816130cc575b5050338352600f8c5283832091825416179055600e8a52205554918351938085528401906128fa565b948201528033940390a3565b60055490916130da91612d18565b606410156130e9575b80613097565b4290556130f860065442612a93565b8655386130e3565b015190503880613011565b90601f9b98999a9b1983169184895287892092895b8181106131915750956130c09a9895887f98120a6aaa04295520ab4e01c6c1235dd316e822cc9ff31db7b3f197366d18bd9f9e9d9b98968f9a9796600b9661302b96838d9a10613178575b505050811b019055613025565b015160001960f88460031b161c1916905538808061316b565b95989296999b5092879a5096819497878493015181550195019301928f99979491928d9996938f9895613120565b92955092958098999a508591949750528a8720601f840160051c8101918c851061322f575b928c95928f989592601f8e9d9c9b99960160051c01905b8181106132085750612fc6565b889a9b9c5086995080929598919497509592955501928a99989795928c95928f98956131fb565b90915081906131e4565b634e487b7160e01b86526041600452602486fd5b905088015138612f87565b8389528c892088935090601f1983168a8f5b8d8383106132a1575050508311613288575b5050811b019055612f9a565b8a015160001960f88460031b161c19169055388061327c565b84015185558b969094019392830192018f61326a565b8288528b8820601f830160051c8101918d84106132f3575b601f0160051c019087905b8281106132e8575050612f72565b8981550187906132da565b90915081906132cf565b634e487b7160e01b87526041600452602487fd5b815163eeeb962360e01b8152600490fd5b81516331806aeb60e21b8152600490fd5b94612ef7565b600e84939296959452858220548252600d835285822060ff600e8201541615908161339c575b501561337657855163792c310960e11b8152600490fd5b949091929394338352600f845281832060ff198154169055600e84528282812055612eeb565b600c9150015442103861335f565b604051633e61080d60e01b8152600490fd5b6040516319d546f160e31b8152600490fd5b6040516323b872dd60e01b60208201526001600160a01b0392831660248201529290911660448301526064808301939093529181526128979161341082612819565b613460565b60405163a9059cbb60e01b60208201526001600160a01b03909216602483015260448083019390935291815260808101916001600160401b03831182841017610f7157612897926040525b906000602091828151910182855af1156105e3576000513d6134b357506001600160a01b0381163b155b6134915750565b604051635274afe760e01b81526001600160a01b039091166004820152602490fd5b6001141561348a56feaf8f9d0e884d3306a083e846741a0bc4d75908e2b0ec63b558219652ae4c1b90d81f085560db5c809c425a15f00e3f2904e4fa46d6e8672ff2e671ccd6d9a231a2646970667358221220ab95fa07bc4a5ec1e27f0fda40eee68c54ec40986c037186fb0e71dc943ab2d764736f6c63430008170033",
  "linkReferences": {},
  "deployedLinkReferences": {}
}