{
  "_format": "hh-sol-artifact-1",
  "contractName": "TemplFactory",
  "sourceName": "contracts/TemplFactory.sol",
  "abi": [
    {
      "inputs": [
        {
          "internalType": "address",
          "name": "_protocolFeeRecipient",
          "type": "address"
        },
        {
          "internalType": "uint256",
          "name": "_protocolPercent",
          "type": "uint256"
        }
      ],
      "stateMutability": "nonpayable",
      "type": "constructor"
    },
    {
      "inputs": [],
      "name": "EntryFeeTooSmall",
      "type": "error"
    },
    {
      "inputs": [],
      "name": "InvalidEntryFee",
      "type": "error"
    },
    {
      "inputs": [],
      "name": "InvalidPercentage",
      "type": "error"
    },
    {
      "inputs": [],
      "name": "InvalidPercentageSplit",
      "type": "error"
    },
    {
      "inputs": [],
      "name": "InvalidRecipient",
      "type": "error"
    },
    {
      "anonymous": false,
      "inputs": [
        {
          "indexed": true,
          "internalType": "address",
          "name": "templ",
          "type": "address"
        },
        {
          "indexed": true,
          "internalType": "address",
          "name": "creator",
          "type": "address"
        },
        {
          "indexed": true,
          "internalType": "address",
          "name": "priest",
          "type": "address"
        },
        {
          "indexed": false,
          "internalType": "address",
          "name": "token",
          "type": "address"
        },
        {
          "indexed": false,
          "internalType": "uint256",
          "name": "entryFee",
          "type": "uint256"
        },
        {
          "indexed": false,
          "internalType": "uint256",
          "name": "burnPercent",
          "type": "uint256"
        },
        {
          "indexed": false,
          "internalType": "uint256",
          "name": "treasuryPercent",
          "type": "uint256"
        },
        {
          "indexed": false,
          "internalType": "uint256",
          "name": "memberPoolPercent",
          "type": "uint256"
        },
        {
          "indexed": false,
          "internalType": "uint256",
          "name": "quorumPercent",
          "type": "uint256"
        },
        {
          "indexed": false,
          "internalType": "uint256",
          "name": "executionDelaySeconds",
          "type": "uint256"
        },
        {
          "indexed": false,
          "internalType": "address",
          "name": "burnAddress",
          "type": "address"
        },
        {
          "indexed": false,
          "internalType": "bool",
          "name": "priestIsDictator",
          "type": "bool"
        },
        {
          "indexed": false,
          "internalType": "uint256",
          "name": "maxMembers",
          "type": "uint256"
        }
      ],
      "name": "TemplCreated",
      "type": "event"
    },
    {
      "inputs": [
        {
          "internalType": "address",
          "name": "_token",
          "type": "address"
        },
        {
          "internalType": "uint256",
          "name": "_entryFee",
          "type": "uint256"
        }
      ],
      "name": "createTempl",
      "outputs": [
        {
          "internalType": "address",
          "name": "templAddress",
          "type": "address"
        }
      ],
      "stateMutability": "nonpayable",
      "type": "function"
    },
    {
      "inputs": [
        {
          "components": [
            {
              "internalType": "address",
              "name": "priest",
              "type": "address"
            },
            {
              "internalType": "address",
              "name": "token",
              "type": "address"
            },
            {
              "internalType": "uint256",
              "name": "entryFee",
              "type": "uint256"
            },
            {
              "internalType": "int256",
              "name": "burnPercent",
              "type": "int256"
            },
            {
              "internalType": "int256",
              "name": "treasuryPercent",
              "type": "int256"
            },
            {
              "internalType": "int256",
              "name": "memberPoolPercent",
              "type": "int256"
            },
            {
              "internalType": "uint256",
              "name": "quorumPercent",
              "type": "uint256"
            },
            {
              "internalType": "uint256",
              "name": "executionDelaySeconds",
              "type": "uint256"
            },
            {
              "internalType": "address",
              "name": "burnAddress",
              "type": "address"
            },
            {
              "internalType": "bool",
              "name": "priestIsDictator",
              "type": "bool"
            },
            {
              "internalType": "uint256",
              "name": "maxMembers",
              "type": "uint256"
            }
          ],
          "internalType": "struct TemplFactory.CreateConfig",
          "name": "config",
          "type": "tuple"
        }
      ],
      "name": "createTemplWithConfig",
      "outputs": [
        {
          "internalType": "address",
          "name": "templAddress",
          "type": "address"
        }
      ],
      "stateMutability": "nonpayable",
      "type": "function"
    },
    {
      "inputs": [],
      "name": "protocolFeeRecipient",
      "outputs": [
        {
          "internalType": "address",
          "name": "",
          "type": "address"
        }
      ],
      "stateMutability": "view",
      "type": "function"
    },
    {
      "inputs": [],
      "name": "protocolPercent",
      "outputs": [
        {
          "internalType": "uint256",
          "name": "",
          "type": "uint256"
        }
      ],
      "stateMutability": "view",
      "type": "function"
    }
  ],
  "bytecode": "0x60c0346100c257601f614cc038819003918201601f19168301916001600160401b038311848410176100c75780849260409485528339810103126100c25780516001600160a01b038116918282036100c2576020015191156100b0576064821161009e5760805260a052604051614be290816100de823960805181818161012501526103c7015260a05181818160610152818161032a015261041b0152f35b60405163542c8df360e11b8152600490fd5b604051634e46966960e11b8152600490fd5b600080fd5b634e487b7160e01b600052604160045260246000fdfe604060808152600436101561001357600080fd5b600090813560e01c806322bd415c1461015457806364df049e14610111578063b4c99cfd146100885763f0a827a41461004b57600080fd5b34610084578160031936011261008457602090517f00000000000000000000000000000000000000000000000000000000000000008152f35b5080fd5b50346100845780600319360112610084576020916101096100a761025d565b916100b0610278565b9033825260018060a01b038094168683015260243585830152601e6060830152601e6080830152601e60a0830152602160c083015262093a8060e083015261dead610100830152806101208301526101408201526102af565b915191168152f35b5034610084578160031936011261008457517f00000000000000000000000000000000000000000000000000000000000000006001600160a01b03168152602090f35b5034610084576101603660031901126100845761016f610278565b9161017861025d565b8084526001600160a01b03916024358381168103610084576020860152604435848601526064356060860152608435608086015260a43560a086015260c43560c0860181815260e4359060e088019282845261010435958787169586880361025a576101008b019788526101243590811515820361025a57509188610109989694928c98969461012060209e0152610144356101408a01521615610252575b15610248575b501561023c575b5015610231575b506102af565b61dead90523861022b565b62093a80905238610224565b602190523861021d565b338752610217565b80fd5b600435906001600160a01b038216820361027357565b600080fd5b60405190610160820182811067ffffffffffffffff82111761029957604052565b634e487b7160e01b600052604160045260246000fd5b60208101519091906001600160a01b03161561058257600a60408301511061057057600a60408301510661055e57606460c08301511161054c576102f66060830151610594565b6103036080840151610594565b61031060a0850151610594565b606461034f6103288361032386886105ae565b6105ae565b7f0000000000000000000000000000000000000000000000000000000000000000906105ae565b0361053a578451602086015160408088015160c089015160e08a01516101008b01516101208c01516101408d01519551979596901515956001600160a01b039283169593949392918216911667ffffffffffffffff6145db8a01908111908a1117610299576145db620005d28a396145db89019081527f00000000000000000000000000000000000000000000000000000000000000006001600160a01b0316602082015260408101919091526060810191909152608081018a905260a0810189905260c081018890527f000000000000000000000000000000000000000000000000000000000000000060e08201526101008101919091526101208101919091526101408101919091526101608101919091526101808101919091528190036101a001906000f0801561052e5760018060a01b03169460018060a01b038151169360018060a01b036020830151169360408301519360c08401519060e08501519260018060a01b036101008701511694610140610120880151151597015197604051998a5260208a015260408901526060880152608087015260a086015260c085015260e0840152610100830152610120820152837fffbf26bc05da55b66c6d3e9b5e5277963f65ea3c40112e4ce7c09b13065687b16101403393a4565b6040513d6000823e3d90fd5b60405163542c8df360e11b8152600490fd5b604051631f3b85d360e01b8152600490fd5b604051636fe6a4c960e01b8152600490fd5b604051635eee050360e11b8152600490fd5b604051634e46966960e11b8152600490fd5b60001981146105a8576000811261054c5790565b50601e90565b919082018092116105bb57565b634e487b7160e01b600052601160045260246000fdfe61010034620003c957601f620045db38819003918201601f191683019291906001600160401b03841183851017620003ce57816101a09284926040968752833981010312620003c9576200005381620003e4565b906200006260208201620003e4565b9162000070848301620003e4565b92606083015191608084015160a08501519060c08601519160e0870151926101008801519161012089015193620000ab6101408b01620003e4565b956101608b01519a8b1515809c03620003c957610180015160016000559b6001600160a01b0399808b16158015620003be575b620003ad5791620001289160649360a05260c05260049c8d549060ff60a01b9060a01b169060ff60a01b1916178d55806080526200012286620001228787620003f9565b620003f9565b036200039d57600155600255600355806200037b57506021600a555b8062000375575062093a805b600b558083166200036f575061dead5b60e0521680156200035f5781156200034f57600a82106200033f57600a82066200032f5782546001600160a01b0319161782556005556008805460ff1916908190559180151591826200026d575b84516141bd90816200041e823960805181818161053a0152818161111a015281816114f201528181612205015281816139160152613965015260a051818181611228015281816116cd0152611c14015260c0518181816103fa01528181610591015281816106a601528181611070015281816111b30152818161155a015281816120220152818161258e01528181612f9101528181613423015281816136f70152818161393c01526139cd015260e05181818161169d0152611a920152f35b600d5490838062000325575b620003175750816009557fb63bcc75a862434e97db3146b78681478a2692253df1de5623d497ee61fac79960208651848152a1826200030b575b50508062000302575b620002cb575b808080620001ae565b6001176008557f752d7e161ff5146f80e3820893176eb40532811e5e20400dfdde57455213706a6020825160018152a138620002c2565b506001620002bc565b101590503880620002b3565b8551633161e99d60e11b8152fd5b5081831062000279565b8451636fe6a4c960e01b81528390fd5b8451635eee050360e11b81528390fd5b84516365e52d5160e11b81528390fd5b8451634e46966960e11b81528390fd5b62000160565b62000150565b606481116200038d57600a5562000144565b8851631f3b85d360e01b81528790fd5b8b5163542c8df360e11b81528a90fd5b8e51634e46966960e11b8152600490fd5b508a821615620000de565b600080fd5b634e487b7160e01b600052604160045260246000fd5b51906001600160a01b0382168203620003c957565b919082018092116200040757565b634e487b7160e01b600052601160045260246000fdfe610220604052600436101561001c575b361561001a57600080fd5b005b60003560e01c8063013cf08b146129fe57806303807ee5146129e057806304ef9d58146129c2578063072ea61c146129a457806308ae4b0c146129435780630d61b519146123df5780630f852b9a146123595780631808022a146123365780631df260a01461226e5780631f4b1acb1461215f578063215809ca1461134e578063240d3a0614611fda5780633072f78614611f65578063313dab2014611f4757806332f974b314611ed05780634385963214611e6157806353eee21214611e355780635584c4f914611d735780635962a94114611d5557806359c266ff14611d375780635c975abb14611d145780635fa7ddf014611cf6578063640c4fa214611c9957806364653f2914611c4357806364df049e14611bfe578063653724d614611b965780636898b19c14611b785780636a49942714611b195780636ad1855014611adf5780637070ac4814611ac157806370d5ae0514611a7c57806371e86b6a146119e8578063840634c5146119805780638b0e8379146119145780638f78bbc4146118da57806395a078e81461189b578063997072f71461187d57806399e288d814611472578063a51a46b914611454578063a64e024a14611436578063a730117e14611413578063a81bbe3c146113d9578063aa5c442b14611371578063adadef2714611353578063aedfe53f1461134e578063b307fc6d146112f3578063bdb75b34146112d5578063bebc8fc0146112ac578063c1b57edb1461128e578063c29394711461117f578063c3f909d41461104a578063c470dd9014610e76578063c7f758a814610d96578063c9d27afe14610a72578063cf3264c1146109e9578063cfb5446014610967578063d402d4be14610622578063d89135cd14610604578063da35c664146105e6578063dddac844146105c0578063e243c5fb1461057b578063ea0e35b11461055d578063f0a827a414610522578063f2be51ea14610496578063f7158b2a14610364578063f81cbd26146103465763ffafe4ad0361000f5734610341576020366003190112610341576001600160a01b03610323612dad565b166000526014602052602060ff604060002054166040519015158152f35b600080fd5b34610341576000366003190112610341576020600a54604051908152f35b346103415760003660031901126103415733600052600c60205260ff6040600020541615610484576103946132e4565b61039d33612ecd565b801561047257806103b360075460105490612ec0565b1061046057600f5433600052600c602052600360406000200155600e60205260406000206103e2828254612eb3565b90556103f081600754612ec0565b60075561042781337f00000000000000000000000000000000000000000000000000000000000000006001600160a01b0316613cf9565b6040519081524260208201527fc4e740509dbfae3377bc9925dd7bcc8aaba69cd730316216d76b2d24725c636660403392a26001600055005b60405163bc6072f160e01b8152600490fd5b6040516373380d9960e01b8152600490fd5b60405163148fe22160e11b8152600490fd5b34610341576020366003190112610341576104af612dad565b60045460ff8160a01c166000146104ff573033141590816104eb575b506104d95761001a9061340a565b60405163626243e960e01b8152600490fd5b6001600160a01b03163314159050826104cb565b503033036105105761001a9061340a565b6040516327568d2f60e11b8152600490fd5b346103415760003660031901126103415760206040517f00000000000000000000000000000000000000000000000000000000000000008152f35b34610341576000366003190112610341576020600954604051908152f35b34610341576000366003190112610341576040517f00000000000000000000000000000000000000000000000000000000000000006001600160a01b03168152602090f35b3461034157600036600319011261034157602060ff60045460a01c166040519015158152f35b34610341576000366003190112610341576020601154604051908152f35b34610341576000366003190112610341576020601654604051908152f35b346103415760803660031901126103415761063b612dad565b610643612dc3565b6044359060643567ffffffffffffffff811161034157610667903690600401612e6c565b9260045460ff8160a01c1660001461094d57303314159081610939575b506104d9575b6001600160a01b038281169490851561092757841561091557807f0000000000000000000000000000000000000000000000000000000000000000169216938285146000146107c6576040516370a0823160e01b8152306004820152602081602481875afa9081156107ba57600091610788575b50600754808211156107765761071391612ec0565b81116107765761074f8160009560008051602061416883398151915295610747600654808511158a14610770578490612ec0565b600655613cf9565b61076b6040519283928352604060208401526040830190612d6d565b0390a4005b80612ec0565b604051631c7b597b60e11b8152600490fd5b90506020813d6020116107b2575b816107a360209383612ca6565b810103126103415751876106fe565b3d9150610796565b6040513d6000823e3d90fd5b9150918315600014610861575060008052601a6020527fb75ecc04ed35f89790e98640e901bda41eceff0cb896cf2765fb697680253750544790808211156108585761081191612ec0565b811161077657600080808084885af1610828612f39565b5015610846576000916000805160206141688339815191529161074f565b6040516331d436c760e01b8152600490fd5b50506000610811565b909183600052601a6020526040600020604051906370a0823160e01b8252306004830152602082602481895afa9182156107ba576000926108e1575b5054808211156108d8576108b091612ec0565b831161077657826108d36000946000805160206141688339815191529487613cf9565b61074f565b505060006108b0565b9091506020813d60201161090d575b816108fd60209383612ca6565b810103126103415751908761089d565b3d91506108f0565b6040516365e52d5160e11b8152600490fd5b604051634e46966960e11b8152600490fd5b6001600160a01b0316331415905085610684565b5033301461068a576040516327568d2f60e11b8152600490fd5b34610341576020366003190112610341576004356011548110156109d757600052601260205260c0604060002060138101549060148101549060188101546016820154906015600f84015493015493604051958652602086015260408501526060840152608083015260a0820152f35b604051631dc0650160e31b8152600490fd5b3461034157604036600319011261034157610a02612dd9565b60045460a01c60ff16151581151514610a60576019610a58602092610a28602435613ac0565b60018101805460ff60a01b1916600560a01b17905593909301805491151560ff1660ff1992909216919091179055565b604051908152f35b6040516305548b1760e41b8152600490fd5b34610341576040366003190112610341576004356024908135801515928382036103415733600052600c9060209282845260ff9283604060002054161561048457601180548710156109d75786600052601286526040600020938560045460a01c1680610d64575b610d5257600e8501958654421015610d405733600052838852604060002094601587019586548015600014610d1b5750610b1e906018890154600f8a015491613f36565b610d09575b83870133600052808a52826040600020541660128901808c528460406000205416928c526040600020600160ff198254161790558b52610b738360406000209060ff801983541691151516179055565b610c9a575015610c825783860180549060018201809211610c6e57555b6017860154161580610c65575b610bd8575b88888860405192835242908301527fcbdf6214089cba887ecbf35a0b6a734589959c9763342c756bb2a80ca2bc9f6e60403393a3005b6013850154908115159384610c20575b50505050610bf9575b808080610ba2565b4290554360168201556014600d54910155610c16600b5442612eb3565b9055838080610bf1565b86015460648082029550929391928115918604141715610c53575050610c4890600a54613239565b111587808080610be8565b634e487b7160e01b6000526004526000fd5b50835415610b9d565b8385634e487b7160e01b6000526004526000fd5b600d860180549060018201809211610c6e5755610b90565b90508a81151503610cac575b50610b90565b15610cde578584018054600019810191908211610c6e5755600d860180549060018201809211610c6e57555b8a610ca6565b600d86018054600019810191908211610c6e575583860180549060018201809211610c6e5755610cd8565b60405163f078ca7360e01b8152600490fd5b6016890154610d2992613f36565b15610b235760405163f078ca7360e01b8152600490fd5b604051637a19ed0560e01b8152600490fd5b60405163a8ef9e1960e01b8152600490fd5b5085600186015460a01c166008811015610d815760051415610ada565b50634e487b7160e01b60009081526021600452fd5b34610341576020366003190112610341576004356011548110156109d757600052601260205260c0604060002060ff601782015416600014610e3d57600e81015442101580610e2c575b60018060a01b0360018301541691600c81015490600d81015460ff6010600e840154930154169260405195865260208601526040850152606084015215156080830152151560a0820152f35b50600c810154600d82015410610de0565b60158101548015610e6e57600b54610e5491612eb3565b4210158015610de05750600c810154600d82015410610de0565b506000610de0565b346103415760a036600319011261034157610e8f612dad565b610e97612dc3565b67ffffffffffffffff60643581811161034157610eb8903690600401612e6c565b9260ff60045460a01c16610d52576005610ed3608435613ac0565b6001808201805460ff60a01b1916600160a11b1790556002820180546001600160a01b03199081166001600160a01b039788161790915560038301805490911695909716949094179095556044356004860155855190949190910192811161103457610f3f8354612c6c565b601f8111610fed575b506020948590601f8311600114610f8b57928293918392600094610f80575b50501b916000199060031b1c1916179055604051908152f35b015192508780610f67565b90601f198316918560005283826000209360005b87828210610fd557505010610fbc575b505050811b019055610a58565b015160001960f88460031b161c19169055858080610faf565b84860151875590950194938a01938692508a01610f9f565b836000526020600020601f830160051c8101916020841061102a575b601f0160051c01905b81811061101f5750610f48565b600081558301611012565b9091508190611009565b634e487b7160e01b600052604160045260246000fd5b34610341576000366003190112610341576040516370a0823160e01b81523060048201527f00000000000000000000000000000000000000000000000000000000000000006001600160a01b0316602082602481845afa80156107ba5760009061114b575b6007546101409350908180821115611141576110ca91612ec0565b905b6005549160ff6008541691601554916001549260025494600354966040519889526020890152151560408801526060870152608086015260a085015260c084015260e08301526101008201527f0000000000000000000000000000000000000000000000000000000000000000610120820152f35b50506000906110cc565b506020823d602011611177575b8161116560209383612ca6565b810103126103415761014091516110af565b3d9150611158565b34610341576000366003190112610341576040516370a0823160e01b81523060048201526001600160a01b036020826024817f000000000000000000000000000000000000000000000000000000000000000085165afa9081156107ba57600091611259575b60075460c0935091828082111561124f576111ff91612ec0565b915b601754601654906019549260405195865260208601526040850152606084015260808301527f00000000000000000000000000000000000000000000000000000000000000001660a0820152f35b5050600091611201565b90506020823d602011611286575b8161127460209383612ca6565b810103126103415760c09151906111e5565b3d9150611267565b34610341576000366003190112610341576020601754604051908152f35b34610341576000366003190112610341576004546040516001600160a01b039091168152602090f35b34610341576000366003190112610341576020601854604051908152f35b3461034157602036600319011261034157600435600d5481101561034157600d6000527fd7b6990105719101dabeb77144f2a3385c8033acd3af97e9423a695e81ad1eb501546040516001600160a01b039091168152602090f35b612de8565b34610341576000366003190112610341576020600354604051908152f35b346103415760203660031901126103415761138a612dd9565b60045460ff8160a01c166000146113c8573033141590816113b4575b506104d95761001a9061335a565b6001600160a01b03163314159050826113a6565b503033036105105761001a9061335a565b34610341576020366003190112610341576001600160a01b036113fa612dad565b16600052600e6020526020604060002054604051908152f35b34610341576020366003190112610341576020610a58611431612dad565b6132ba565b3461034157600036600319011261034157602060405162278d008152f35b34610341576000366003190112610341576020601054604051908152f35b346103415760003660031901126103415760ff6008541661186b573033146118595761149c6132e4565b336000526020600c8152604060002080549160ff83166118475760055460019360646114c9865484613239565b049360646114d960025485613239565b049060646114e960035486613239565b049260646115177f000000000000000000000000000000000000000000000000000000000000000087613239565b04946115308661152b8761152b888d612eb3565b612eb3565b818110611821575b506115438585612eb3565b6040516370a0823160e01b815233600482015290927f00000000000000000000000000000000000000000000000000000000000000006001600160a01b03169290918981602481875afa9081156107ba576000916117f4575b50106117e25760ff19168917835542838a0155436002840155600d5491600160401b8310156110345789830180600d558310156117cc578692600d6000527fd7b6990105719101dabeb77144f2a3385c8033acd3af97e9423a695e81ad1eb501336bffffffffffffffffffffffff60a01b82541617905561161e601554613031565b601555600d548a811161177b575b506116cb906116f4946003600f5491015561164986600654612eb3565b60065561165887600754612eb3565b6007556116678a601654612eb3565b60165561167686601754612eb3565b60175561168587601854612eb3565b60185561169484601954612eb3565b6019556116c38a7f00000000000000000000000000000000000000000000000000000000000000003386613e6f565b303384613e6f565b7f0000000000000000000000000000000000000000000000000000000000000000903390613e6f565b60055494601554946000198601958611611765576040519687528601526040850152606084015260808301524260a08301524360c083015260e08201527fe6d1c0e418a42a777d49c66571075fc47bc1d92e7f506007ddde08d1ff182bbc6101003392a2611760613ec8565b600055005b634e487b7160e01b600052601160045260246000fd5b925061178960105487612eb3565b906000198401938411611765576116f4946117c1836117b6876117b08d996116cb9861324c565b92612f19565b601055600f54612eb3565b600f5594509061162c565b634e487b7160e01b600052603260045260246000fd5b604051631e9acf1760e31b8152600490fd5b90508981813d831161181a575b61180b8183612ca6565b8101031261034157518c61159c565b503d611801565b936118409061183a6118338785612ec0565b8092612eb3565b95612eb3565b5089611538565b604051630cd9ed5560e21b8152600490fd5b604051636edaef2f60e11b8152600490fd5b604051630eceade960e31b8152600490fd5b34610341576000366003190112610341576020600d54604051908152f35b34610341576020366003190112610341576001600160a01b036118bc612dad565b16600052600c602052602060ff604060002054166040519015158152f35b34610341576119086118f46118ee36612e06565b9061309e565b604051928392604084526040840190612e1c565b90151560208301520390f35b346103415760203660031901126103415760045460ff8160a01c1660001461196657303314159081611952575b506104d9575b61001a600435613307565b6001600160a01b0316331415905081611941565b50333014611947576040516327568d2f60e11b8152600490fd5b3461034157602036600319011261034157611999612dad565b60045460ff8160a01c166000146119d7573033141590816119c3575b506104d95761001a906133b4565b6001600160a01b03163314159050826119b5565b503033036105105761001a906133b4565b3461034157604036600319011261034157611a01612dad565b60ff60045460a01c16610d5257602090611a1c602435613ac0565b60018101805460ff60a01b1916600360a01b1790556002810180546001600160a01b0319166001600160a01b039485161790556004549192909133911614611a68575b50604051908152f35b601701805460ff1916600117905582611a5f565b34610341576000366003190112610341576040517f00000000000000000000000000000000000000000000000000000000000000006001600160a01b03168152602090f35b34610341576000366003190112610341576020600b54604051908152f35b34610341576020366003190112610341576001600160a01b03611b00612dad565b1660005260136020526020604060002054604051908152f35b34610341576020366003190112610341576001600160a01b03611b3a612dad565b16600052601a60205260406000208054611b7460026001840154930154604051938493846040919493926060820195825260208201520152565b0390f35b34610341576000366003190112610341576020600f54604051908152f35b3461034157602036600319011261034157611baf612dd9565b60045460ff8160a01c16600014611bed57303314159081611bd9575b506104d95761001a906139f5565b6001600160a01b0316331415905082611bcb565b503033036105105761001a906139f5565b34610341576000366003190112610341576040517f00000000000000000000000000000000000000000000000000000000000000006001600160a01b03168152602090f35b34610341576020366003190112610341576001600160a01b03611c64612dad565b16600052600c6020526060604060002060ff815416906002600182015491015490604051921515835260208301526040820152f35b3461034157604036600319011261034157611cb2612dd9565b60ff60045460a01c16610d52576006610a58602092611cd2602435613ac0565b6001819592950160ff60a01b198154169055019060ff801983541691151516179055565b34610341576000366003190112610341576020600754604051908152f35b3461034157600036600319011261034157602060ff600854166040519015158152f35b34610341576000366003190112610341576020601954604051908152f35b34610341576000366003190112610341576020601554604051908152f35b34610341576000366003190112610341576011546000805b828110611dfd5750611d9c90613058565b906000805b828110611dbe5760405160208082528190611b7490820187612e1c565b806001916000526012602052611dd8426040600020613e51565b611de3575b01611da1565b80611df7611df085613031565b948761308a565b52611ddd565b806000526012602052611e14426040600020613e51565b611e21575b600101611d8b565b90611e2d600191613031565b919050611e19565b34610341576040366003190112610341576020610a58611e53612dad565b611e5b612dc3565b90612f69565b3461034157604036600319011261034157600435611e7d612dc3565b6011548210156109d7576040916000526012602052816000209060018060a01b031660005260118101602052601260ff836000205416910160205260ff8260002054168251911515825215156020820152f35b34610341576040366003190112610341576001600160a01b03611ef1612dad565b1680156109275760ff60045460a01c16610d52576003602091611f15602435613ac0565b60018101805460ff60a01b1916600160a21b1790559290920180546001600160a01b0319169091179055604051908152f35b34610341576000366003190112610341576020600654604051908152f35b3461034157611f7336612e06565b60ff60045460a01c16610d525781151580611fcf575b611fbd57602091611f9b600b92613ac0565b60018101805460ff60a01b1916600360a11b1790559290920155604051908152f35b604051633161e99d60e11b8152600490fd5b50600d548210611f89565b346103415760208060031936011261034157611ff4612dad565b9033600052600c815260ff6040600020541615610484576120136132e4565b6001600160a01b0382811691907f000000000000000000000000000000000000000000000000000000000000000016821461214d5781600052601a815260406000209260ff600385015416156104725761206d9033612f69565b92831561047257805484811061046057846120ca91600184015433600052601c8652604060002087600052865260406000205533600052601d8552604060002086600052855260406000206120c3838254612eb3565b9055612ec0565b90558161211b57600080808086335af16120e2612f39565b5015610846577f26cd6ba06f6dc02c61247f710e95c768f4856af03b740594288907c36bb217e9905b6040519384523393a36001600055005b7f26cd6ba06f6dc02c61247f710e95c768f4856af03b740594288907c36bb217e990612148843385613cf9565b61210b565b604051631c49f4d160e01b8152600490fd5b346103415760c0366003190112610341576044356004356084358015159060243590606435908381036103415760ff60045460a01c16610d525784612231575b9060209560179392612200575b6121b760a435613ac0565b93909660018501600160a01b60ff60a01b19825416179055600785015560088401556009830155600a820155019061ff0082549160081b169061ff001916179055604051908152f35b61222c7f0000000000000000000000000000000000000000000000000000000000000000838386613a93565b6121ac565b9190600a851061225c57600a850661224a57909161219f565b604051636fe6a4c960e01b8152600490fd5b604051635eee050360e11b8152600490fd5b346103415760003660031901126103415760405180601b5480835260208093018091601b6000527f3ad8aa4f87544323a9d1e5dd902f40c356527a7955687113db5f9a85ad579dc19060005b868282106123195786866122d082880383612ca6565b604051928392818401908285525180915260408401929160005b8281106122f957505050500390f35b83516001600160a01b0316855286955093810193928101926001016122ea565b83546001600160a01b0316855290930192600192830192016122ba565b34610341576020366003190112610341576020610a58612354612dad565b612ecd565b346103415760c036600319011261034157612372612dad565b6044359081151582036103415760045460ff8160a01c166000146123ce573033141590816123ba575b506104d95761001a915b60a435916084359160643591602435906138a0565b6001600160a01b031633141590508361239b565b503033036105105761001a916123a5565b346103415760208060031936011261034157600435906123fd6132e4565b6011548210156109d757816000526012815260406000209060ff8060045460a01c1680612926575b610d5257601783018054821661290857601584015480156128f657600b5461244c91612eb3565b42106128e4575b601084018054908382166128d257600c860154600d87015410156128c057600160ff19809316179055826001860160018060a01b039283825416600052601487528260406000205416806128ae575b61288e575b505460a01c166008811015612878578690806124fd5750505050906124e26060926006600080516020614148833981519152950154166139f5565b60408051916001835282015260006040820152a26001600055005b6001810361254d57505091846125489260609594600260008051602061414883398151915298015416926007830154915460081c16600883015491600a6009850154940154946138a0565b6124e2565b91949390925090600281036127c15750505081600284015416826003850154169061257f600560048701549601612cc8565b938215610927578515610915577f0000000000000000000000000000000000000000000000000000000000000000169481860361268c576040516370a0823160e01b815230600482015284816024818a5afa9081156107ba5760009161265f575b5060075480821115610776576125f591612ec0565b8111610776576000805160206141688339815191526060958261263c8a94876000805160206141488339815191529b61074760065480851115600014610770578490612ec0565b61265760405192839283526040898401526040830190612d6d565b0390a46124e2565b90508481813d8311612685575b6126768183612ca6565b810103126103415751886125e0565b503d61266c565b939450806127055760008052601a835260406000204790548082116000146126fc576126b791612ec0565b841161077657600080808087865af16126ce612f39565b501561084657856000805160206141688339815191526000805160206141488339815191529660609661263c565b505060006126b7565b80600052601a83526040600020604051906370a0823160e01b82523060048301528482602481865afa9182156107ba57600092612792575b5054808211156127895761275091612ec0565b8411610776578560008051602061416883398151915260008051602061414883398151915296866127846060988787613cf9565b61263c565b50506000612750565b9091508481813d83116127ba575b6127aa8183612ca6565b810103126103415751908861273d565b503d6127a0565b9294919392600381036127f257505060609260008051602061414883398151915294926002612548930154166136dd565b929350909160048103612822575050916125486060926003600080516020614148833981519152950154166133b4565b9092506005810361284f57509161254860609260196000805160206141488339815191529501541661335a565b90915060060361214d5760008051602061414883398151915291612548600b6060930154613307565b634e487b7160e01b600052602160045260246000fd5b6014875260406000209081541690556013865260006040812055886124a7565b506013875288604060002054146124a2565b60405163c8c93ba360e01b8152600490fd5b604051630dc1019760e01b8152600490fd5b60405163a905056160e01b8152600490fd5b60405163aa26a69360e01b8152600490fd5b600e84015442101561245357604051633fc30bd160e11b8152600490fd5b5080600184015460a01c1660088110156128785760051415612425565b34610341576020366003190112610341576001600160a01b03612964612dad565b16600052600c6020526080604060002060ff8154169060018101549060036002820154910154916040519315158452602084015260408301526060820152f35b34610341576000366003190112610341576020600554604051908152f35b34610341576000366003190112610341576020600254604051908152f35b34610341576000366003190112610341576020600154604051908152f35b3461034157602036600319011261034157600480356000908152601260205260409020610200819052805460018201546101405260028201546001600160a01b03908116610160526003830154166101a052918101549190612a6290600501612cc8565b60ff6006610200510154166101205260076102005101549260086102005101546009610200510154600a610200510154600b61020051015490600c61020051015492600d61020051015494600e61020051015496600f6102005101549860ff6010610200510154169a6013610200510154608052601461020051015460a052601561020051015460e05260166102005101546101e05260176102005101546101c05260186102005101546101805260ff6019610200510154166101005260405160c05260c0515260018060a01b036101405116602060c0510152600860ff6101405160a01c16101561287857612b969160ff6101405160a01c16604060c051015261016051606060c05101526101a051608060c051015260a060c051015261034060c08051015261034060c0510190612d6d565b9961012051151560e060c051015261010060c051015261012060c051015261014060c051015261016060c051015261018060c05101526101a060c05101526101c060c05101526101e060c051015261020060c0510152151561022060c051015260805161024060c051015260a05161026060c051015260e05161028060c05101526101e0516102a060c051015260ff6101c0511615156102c060c051015260ff6101c05160081c1615156102e060c05101526101805161030060c051015261010051151561032060c051015260c051900360c051f35b90600182811c92168015612c9c575b6020831014612c8657565b634e487b7160e01b600052602260045260246000fd5b91607f1691612c7b565b90601f8019910116810190811067ffffffffffffffff82111761103457604052565b90604051918260008254612cdb81612c6c565b90818452602094600191600181169081600014612d4b5750600114612d0c575b505050612d0a92500383612ca6565b565b600090815285812095935091905b818310612d33575050612d0a9350820101388080612cfb565b85548884018501529485019487945091830191612d1a565b92505050612d0a94925060ff191682840152151560051b820101388080612cfb565b919082519283825260005b848110612d99575050826000602080949584010152601f8019910116010190565b602081830181015184830182015201612d78565b600435906001600160a01b038216820361034157565b602435906001600160a01b038216820361034157565b60043590811515820361034157565b3461034157600036600319011261034157602060405162093a808152f35b6040906003190112610341576004359060243590565b90815180825260208080930193019160005b828110612e3c575050505090565b835185529381019392810192600101612e2e565b67ffffffffffffffff811161103457601f01601f191660200190565b81601f8201121561034157803590612e8382612e50565b92612e916040519485612ca6565b8284526020838301011161034157816000926020809301838601378301015290565b9190820180921161176557565b9190820391821161176557565b6001600160a01b03166000908152600c60205260409020805460ff1615612f13576003600f54910154808211600014612f0c57612f0991612ec0565b90565b5050600090565b50600090565b8115612f23570690565b634e487b7160e01b600052601260045260246000fd5b3d15612f64573d90612f4a82612e50565b91612f586040519384612ca6565b82523d6000602084013e565b606090565b60018060a01b0380911690600092828452600c60205260ff6040852054161561302b578116907f000000000000000000000000000000000000000000000000000000000000000016811461301e57808352601a602052604083209060ff6003830154161561302b57828452600c602052612feb60408520600184015493613d65565b928452601c60205260408420908452602052604083205491808310613023575b508181111561301e57612f099250612ec0565b505090565b91503861300b565b50505090565b60001981146117655760010190565b67ffffffffffffffff81116110345760051b60200190565b9061306282613040565b61306f6040519182612ca6565b8281528092613080601f1991613040565b0190602036910137565b80518210156117cc5760209160051b010190565b6000926000918315801561322f575b61321d5760119460115492838310156131da576130c986613058565b938593805b828210806131d1575b15613140575080875260126020526130f24260408920613e51565b613126575b600181018082116131125761310c9091613031565b906130ce565b634e487b7160e01b885260048a9052602488fd5b8061313a61313387613031565b968861308a565b526130f7565b929791939850509392938414806131c8575b613191575b505061316282613058565b925b828110613172575050509190565b8061317f6001928461308a565b5161318a828761308a565b5201613164565b818110156131575780855260126020526131ae4260408720613e51565b6131ba57600101613191565b505093506001933880613157565b50818110613152565b508886106130d7565b945050505091506040516020810181811067ffffffffffffffff82111761320957604052828152823681379190565b634e487b7160e01b84526041600452602484fd5b6040516381f396b760e01b8152600490fd5b50606484116130ad565b8181029291811591840414171561176557565b8115612f23570490565b601b54600160401b811015611034576001810180601b558110156117cc57601b6000527f3ad8aa4f87544323a9d1e5dd902f40c356527a7955687113db5f9a85ad579dc10180546001600160a01b0319166001600160a01b03909216919091179055565b6001600160a01b03166000908152600c602052604090205460ff16156132df57600190565b600090565b6002600054146132f5576002600055565b604051633ee5aeb560e01b8152600490fd5b600d548115159081613350575b50611fbd576020817fb63bcc75a862434e97db3146b78681478a2692253df1de5623d497ee61fac79992600955604051908152a1612d0a613ec8565b9050811038613314565b600454901515908160ff8260a01c16151514610a605760ff60a01b191660a082901b60ff60a01b16176004556040519081527fa8adfe89c6bc95edbe7049ed316f0473a03af92b1fd027ce1ac670082467c62390602090a1565b6001600160a01b03908116908115610927576004549081169081831461214d576001600160a01b03191682176004557f0f3a6964a8ba1b7473a14630b029eae6d49bec6babf098223718bacaac7197cc600080a3565b600d549081156136cb576001600160a01b0381811692907f0000000000000000000000000000000000000000000000000000000000000000168381146135c5575060008361354f575047905b83600052601a60205260406000209182548082111561353d5761347891612ec0565b801561353d5761351e60008051602061412883398151915293600095878752601a602052600360408820019081549160ff831615613523575b5050506134bf838254612eb3565b815561350160028201916134e86134d7845487612eb3565b966134e2818961324c565b97612f19565b8093600183016134f9898254612eb3565b905555614009565b604051938493846040919493926060820195825260208201520152565b0390a3565b60016135359360ff1916179055613256565b3880806134b1565b604051631ab9ebab60e01b8152600490fd5b6040516370a0823160e01b8152306004820152602081602481885afa9182156135b9578092613581575b505090613456565b9091506020823d6020116135b1575b8161359d60209383612ca6565b810103126135ae5750513880613579565b80fd5b3d9150613590565b604051903d90823e3d90fd5b6040516370a0823160e01b8152306004820152919250602090829060249082905afa9081156107ba57600091613699575b50600754918282111561353d578261364361362260009560008051602061412883398151915295612ec0565b809261363b600654808411158914610770578390612ec0565b600655612eb3565b60075561351e61366961365860105484612eb3565b93613663818661324c565b94612f19565b61367584600f54612eb3565b600f5580601055604051938493846040919493926060820195825260208201520152565b90506020813d6020116136c3575b816136b460209383612ca6565b810103126103415751386135f6565b3d91506136a7565b604051630292d7c360e51b8152600490fd5b90600d549182156136cb576001600160a01b0381811693907f0000000000000000000000000000000000000000000000000000000000000000168481146137fa5750600084613793575047915b84600052601a60205260406000209283548082111561353d5761374c91612ec0565b90811561353d576000805160206141288339815191529361351e9187600052601a60205260036040600020019081549160ff831615613523575050506134bf838254612eb3565b6040516370a0823160e01b8152306004820152602081602481895afa9182156135b95780926137c5575b50509161372a565b9091506020823d6020116137f2575b816137e160209383612ca6565b810103126135ae57505138806137bd565b3d91506137d4565b6040516370a0823160e01b81523060048201529250602090839060249082905afa9182156107ba5760009261386c575b506007548083111561353d576136436138528260008051602061412883398151915295612ec0565b809261363b60065480841115600014610770578390612ec0565b9091506020813d602011613898575b8161388860209383612ca6565b810103126103415751903861382a565b3d915061387b565b6001600160a01b03959493929190861680151590816139c8575b506139b6578061399d575b50613960575b5050507fa00a4448d1c98b3edafbf488446a8320c2cb278ba20dd49c7b5d41a7ebfd582b60a060055492600154600254600354916040519687526020870152604086015260608501527f000000000000000000000000000000000000000000000000000000000000000060808501527f00000000000000000000000000000000000000000000000000000000000000001692a2565b61398c7f0000000000000000000000000000000000000000000000000000000000000000848484613a93565b6001556002556003553880806138cb565b600a811061225c57600a810661224a57600555386138c5565b60405163b078ee9d60e01b8152600490fd5b9050867f0000000000000000000000000000000000000000000000000000000000000000161415386138ba565b60207f752d7e161ff5146f80e3820893176eb40532811e5e20400dfdde57455213706a911580159080613a88575b80613a7a575b613a46575b60ff196008541660ff821617600855604051908152a1565b60006009557fb63bcc75a862434e97db3146b78681478a2692253df1de5623d497ee61fac7998260405160008152a1613a2e565b50600d546009541115613a29565b506009541515613a23565b613aa79261152b6064959361152b93612eb3565b03613aae57565b60405163542c8df360e11b8152600490fd5b600091338352602091600c835260409060ff828620541615613ce8573385526014845260ff8286205416613c7b575b80613c75575062093a80925b62093a808410613c645762278d008411613c53577f3417b456fad6209c73445d5efd446d686e75e4560f0f50c13b5a5cde976447b460115491613b3d83613031565b6011558296838152601282528385613b7681842099838b5560018b01336bffffffffffffffffffffffff60a01b82541617905542612eb3565b92600e8a0193845542600f8b01554360188b015560108a0160ff199081815416905533825260118b01865282822060018282541617905560128b0186528282206001828254161790556001600c8c015581600d8c0155600d548060138d015560158c0183815560178d0183815416905581151580613c3d575b613c1a575b5050338252601486526001838320918254161790556013855220555493519384523393a3565b4290554360168d015560148c0155613c34600b5442612eb3565b85553880613bf4565b50613c4a82600a54613239565b60641015613bef565b815163eeeb962360e01b8152600490fd5b81516331806aeb60e21b8152600490fd5b92613afb565b601384939294528385205485526012835283852060ff601082015416159081613cda575b5015613cb657835163792c310960e11b8152600490fd5b929091923385526014845281852060ff198154169055601384528482812055613aef565b600e91500154421038613c9f565b815163148fe22160e11b8152600490fd5b60405163a9059cbb60e01b60208201526001600160a01b039092166024830152604480830193909352918152608081019167ffffffffffffffff83118284101761103457612d0a926040526140cb565b80548210156117cc5760005260206000209060011b0190600090565b906004808301918254938415613e4557506002810154600180920154906000955b808710613db65750505050508115612f0c57600019820191821161176557600191613db091613d49565b50015490565b613dc08188612eb3565b841c90613dcd8288613d49565b505467ffffffffffffffff9081811680861015613ded5750505050613d86565b929992851115613e1f57505050838101809111613e0a5795613d86565b601185634e487b7160e01b6000525260246000fd5b91989160401c16841015613e335750613d86565b9650838101809111613e0a5795613d86565b60010154949350505050565b90600e820154119081613e62575090565b60ff915060100154161590565b6040516323b872dd60e01b60208201526001600160a01b03928316602482015292909116604483015260648083019390935291815260a081019181831067ffffffffffffffff84111761103457612d0a926040526140cb565b6009548015159081613f29575b5080613f1c575b613ee257565b600160ff1960085416176008557f752d7e161ff5146f80e3820893176eb40532811e5e20400dfdde57455213706a602060405160018152a1565b5060ff6008541615613edc565b9050600d54101538613ed5565b91908015613f79576002830154818111613f7057149182613f62575b5050613f5d57600090565b600190565b600101541190503880613f52565b50505050600190565b505050600090565b8054600160401b81101561103457613f9e91600182018155613d49565b919091613ff3578051825460208301516fffffffffffffffffffffffffffffffff1990911667ffffffffffffffff9290921691909117604091821b67ffffffffffffffff60401b161783556001910151910155565b634e487b7160e01b600052600060045260246000fd5b67ffffffffffffffff600182015490604051926060840184811083821117611034576040528143168452600460208501918342168352604086019485520193845480156140bd576000198101908111611765576140669086613d49565b50948386541684835116146000146140ae5750505183546fffffffffffffffff00000000000000001916911660401b67ffffffffffffffff60401b1617825560019051910155565b9250925050612d0a9250613f81565b5092505050612d0a91613f81565b906000602091828151910182855af1156107ba576000513d61411e57506001600160a01b0381163b155b6140fc5750565b604051635274afe760e01b81526001600160a01b039091166004820152602490fd5b600114156140f556fef502c7eda43df8a8ec352065360db3486f90ce32849cf8182983d7939bfd3626af8f9d0e884d3306a083e846741a0bc4d75908e2b0ec63b558219652ae4c1b90d81f085560db5c809c425a15f00e3f2904e4fa46d6e8672ff2e671ccd6d9a231a2646970667358221220c7c450d23f8e03d732562720ac338d59bbf6e7be7023a1df837134dbd0f1c00764736f6c63430008170033a26469706673582212203816c95f3ed1a18c79abcc628776494e18428c53ac6dfb2925851482bc0d8b7564736f6c63430008170033",
  "linkReferences": {},
  "deployedLinkReferences": {}
}