{
  "_format": "hh-sol-artifact-1",
  "contractName": "TEMPL",
  "sourceName": "contracts/TEMPL.sol",
  "abi": [
    {
      "inputs": [
        {
          "internalType": "address",
          "name": "_priest",
          "type": "address"
        },
        {
          "internalType": "address",
          "name": "_protocolFeeRecipient",
          "type": "address"
        },
        {
          "internalType": "address",
          "name": "_token",
          "type": "address"
        },
        {
          "internalType": "uint256",
          "name": "_entryFee",
          "type": "uint256"
        },
        {
          "internalType": "uint256",
          "name": "_burnPercent",
          "type": "uint256"
        },
        {
          "internalType": "uint256",
          "name": "_treasuryPercent",
          "type": "uint256"
        },
        {
          "internalType": "uint256",
          "name": "_memberPoolPercent",
          "type": "uint256"
        },
        {
          "internalType": "uint256",
          "name": "_protocolPercent",
          "type": "uint256"
        },
        {
          "internalType": "uint256",
          "name": "_quorumPercent",
          "type": "uint256"
        },
        {
          "internalType": "uint256",
          "name": "_executionDelay",
          "type": "uint256"
        },
        {
          "internalType": "address",
          "name": "_burnAddress",
          "type": "address"
        },
        {
          "internalType": "bool",
          "name": "_priestIsDictator",
          "type": "bool"
        },
        {
          "internalType": "uint256",
          "name": "_maxMembers",
          "type": "uint256"
        },
        {
          "internalType": "string",
          "name": "_homeLink",
          "type": "string"
        }
      ],
      "stateMutability": "nonpayable",
      "type": "constructor"
    },
    {
      "inputs": [],
      "name": "ActiveProposalExists",
      "type": "error"
    },
    {
      "inputs": [],
      "name": "AlreadyExecuted",
      "type": "error"
    },
    {
      "inputs": [],
      "name": "AlreadyPurchased",
      "type": "error"
    },
    {
      "inputs": [],
      "name": "AmountZero",
      "type": "error"
    },
    {
      "inputs": [],
      "name": "ContractPausedError",
      "type": "error"
    },
    {
      "inputs": [],
      "name": "DictatorshipEnabled",
      "type": "error"
    },
    {
      "inputs": [],
      "name": "DictatorshipUnchanged",
      "type": "error"
    },
    {
      "inputs": [],
      "name": "DisbandLockActive",
      "type": "error"
    },
    {
      "inputs": [],
      "name": "EntryFeeTooSmall",
      "type": "error"
    },
    {
      "inputs": [],
      "name": "ExecutionDelayActive",
      "type": "error"
    },
    {
      "inputs": [],
      "name": "InsufficientBalance",
      "type": "error"
    },
    {
      "inputs": [],
      "name": "InsufficientPoolBalance",
      "type": "error"
    },
    {
      "inputs": [],
      "name": "InsufficientTreasuryBalance",
      "type": "error"
    },
    {
      "inputs": [],
      "name": "InvalidCallData",
      "type": "error"
    },
    {
      "inputs": [],
      "name": "InvalidEntryFee",
      "type": "error"
    },
    {
      "inputs": [],
      "name": "InvalidPercentage",
      "type": "error"
    },
    {
      "inputs": [],
      "name": "InvalidPercentageSplit",
      "type": "error"
    },
    {
      "inputs": [],
      "name": "InvalidProposal",
      "type": "error"
    },
    {
      "inputs": [],
      "name": "InvalidRecipient",
      "type": "error"
    },
    {
      "inputs": [],
      "name": "InvalidSender",
      "type": "error"
    },
    {
      "inputs": [],
      "name": "JoinedAfterProposal",
      "type": "error"
    },
    {
      "inputs": [],
      "name": "LimitOutOfRange",
      "type": "error"
    },
    {
      "inputs": [],
      "name": "MemberLimitReached",
      "type": "error"
    },
    {
      "inputs": [],
      "name": "MemberLimitTooLow",
      "type": "error"
    },
    {
      "inputs": [],
      "name": "NoMembers",
      "type": "error"
    },
    {
      "inputs": [],
      "name": "NoRewardsToClaim",
      "type": "error"
    },
    {
      "inputs": [],
      "name": "NoTreasuryFunds",
      "type": "error"
    },
    {
      "inputs": [],
      "name": "NotDAO",
      "type": "error"
    },
    {
      "inputs": [],
      "name": "NotMember",
      "type": "error"
    },
    {
      "inputs": [],
      "name": "PriestOnly",
      "type": "error"
    },
    {
      "inputs": [],
      "name": "ProposalExecutionFailed",
      "type": "error"
    },
    {
      "inputs": [],
      "name": "ProposalNotPassed",
      "type": "error"
    },
    {
      "inputs": [],
      "name": "QuorumNotReached",
      "type": "error"
    },
    {
      "inputs": [],
      "name": "ReentrancyGuardReentrantCall",
      "type": "error"
    },
    {
      "inputs": [
        {
          "internalType": "address",
          "name": "token",
          "type": "address"
        }
      ],
      "name": "SafeERC20FailedOperation",
      "type": "error"
    },
    {
      "inputs": [],
      "name": "TokenChangeDisabled",
      "type": "error"
    },
    {
      "inputs": [],
      "name": "VotingEnded",
      "type": "error"
    },
    {
      "inputs": [],
      "name": "VotingNotEnded",
      "type": "error"
    },
    {
      "inputs": [],
      "name": "VotingPeriodTooLong",
      "type": "error"
    },
    {
      "inputs": [],
      "name": "VotingPeriodTooShort",
      "type": "error"
    },
    {
      "anonymous": false,
      "inputs": [
        {
          "indexed": true,
          "internalType": "address",
          "name": "purchaser",
          "type": "address"
        },
        {
          "indexed": false,
          "internalType": "uint256",
          "name": "totalAmount",
          "type": "uint256"
        },
        {
          "indexed": false,
          "internalType": "uint256",
          "name": "burnedAmount",
          "type": "uint256"
        },
        {
          "indexed": false,
          "internalType": "uint256",
          "name": "treasuryAmount",
          "type": "uint256"
        },
        {
          "indexed": false,
          "internalType": "uint256",
          "name": "memberPoolAmount",
          "type": "uint256"
        },
        {
          "indexed": false,
          "internalType": "uint256",
          "name": "protocolAmount",
          "type": "uint256"
        },
        {
          "indexed": false,
          "internalType": "uint256",
          "name": "timestamp",
          "type": "uint256"
        },
        {
          "indexed": false,
          "internalType": "uint256",
          "name": "blockNumber",
          "type": "uint256"
        },
        {
          "indexed": false,
          "internalType": "uint256",
          "name": "purchaseId",
          "type": "uint256"
        }
      ],
      "name": "AccessPurchased",
      "type": "event"
    },
    {
      "anonymous": false,
      "inputs": [
        {
          "indexed": true,
          "internalType": "address",
          "name": "token",
          "type": "address"
        },
        {
          "indexed": false,
          "internalType": "uint256",
          "name": "entryFee",
          "type": "uint256"
        },
        {
          "indexed": false,
          "internalType": "uint256",
          "name": "burnPercent",
          "type": "uint256"
        },
        {
          "indexed": false,
          "internalType": "uint256",
          "name": "treasuryPercent",
          "type": "uint256"
        },
        {
          "indexed": false,
          "internalType": "uint256",
          "name": "memberPoolPercent",
          "type": "uint256"
        },
        {
          "indexed": false,
          "internalType": "uint256",
          "name": "protocolPercent",
          "type": "uint256"
        }
      ],
      "name": "ConfigUpdated",
      "type": "event"
    },
    {
      "anonymous": false,
      "inputs": [
        {
          "indexed": false,
          "internalType": "bool",
          "name": "isPaused",
          "type": "bool"
        }
      ],
      "name": "ContractPaused",
      "type": "event"
    },
    {
      "anonymous": false,
      "inputs": [
        {
          "indexed": false,
          "internalType": "bool",
          "name": "enabled",
          "type": "bool"
        }
      ],
      "name": "DictatorshipModeChanged",
      "type": "event"
    },
    {
      "anonymous": false,
      "inputs": [
        {
          "indexed": true,
          "internalType": "address",
          "name": "token",
          "type": "address"
        },
        {
          "indexed": true,
          "internalType": "address",
          "name": "member",
          "type": "address"
        },
        {
          "indexed": false,
          "internalType": "uint256",
          "name": "amount",
          "type": "uint256"
        }
      ],
      "name": "ExternalRewardClaimed",
      "type": "event"
    },
    {
      "anonymous": false,
      "inputs": [
        {
          "indexed": false,
          "internalType": "uint256",
          "name": "maxMembers",
          "type": "uint256"
        }
      ],
      "name": "MaxMembersUpdated",
      "type": "event"
    },
    {
      "anonymous": false,
      "inputs": [
        {
          "indexed": true,
          "internalType": "address",
          "name": "member",
          "type": "address"
        },
        {
          "indexed": false,
          "internalType": "uint256",
          "name": "amount",
          "type": "uint256"
        },
        {
          "indexed": false,
          "internalType": "uint256",
          "name": "timestamp",
          "type": "uint256"
        }
      ],
      "name": "MemberPoolClaimed",
      "type": "event"
    },
    {
      "anonymous": false,
      "inputs": [
        {
          "indexed": true,
          "internalType": "address",
          "name": "oldPriest",
          "type": "address"
        },
        {
          "indexed": true,
          "internalType": "address",
          "name": "newPriest",
          "type": "address"
        }
      ],
      "name": "PriestChanged",
      "type": "event"
    },
    {
      "anonymous": false,
      "inputs": [
        {
          "indexed": true,
          "internalType": "uint256",
          "name": "proposalId",
          "type": "uint256"
        },
        {
          "indexed": true,
          "internalType": "address",
          "name": "proposer",
          "type": "address"
        },
        {
          "indexed": false,
          "internalType": "uint256",
          "name": "endTime",
          "type": "uint256"
        },
        {
          "indexed": false,
          "internalType": "string",
          "name": "title",
          "type": "string"
        },
        {
          "indexed": false,
          "internalType": "string",
          "name": "description",
          "type": "string"
        }
      ],
      "name": "ProposalCreated",
      "type": "event"
    },
    {
      "anonymous": false,
      "inputs": [
        {
          "indexed": true,
          "internalType": "uint256",
          "name": "proposalId",
          "type": "uint256"
        },
        {
          "indexed": false,
          "internalType": "bool",
          "name": "success",
          "type": "bool"
        },
        {
          "indexed": false,
          "internalType": "bytes",
          "name": "returnData",
          "type": "bytes"
        }
      ],
      "name": "ProposalExecuted",
      "type": "event"
    },
    {
      "anonymous": false,
      "inputs": [
        {
          "indexed": false,
          "internalType": "string",
          "name": "previousLink",
          "type": "string"
        },
        {
          "indexed": false,
          "internalType": "string",
          "name": "newLink",
          "type": "string"
        }
      ],
      "name": "TemplHomeLinkUpdated",
      "type": "event"
    },
    {
      "anonymous": false,
      "inputs": [
        {
          "indexed": true,
          "internalType": "uint256",
          "name": "proposalId",
          "type": "uint256"
        },
        {
          "indexed": true,
          "internalType": "address",
          "name": "token",
          "type": "address"
        },
        {
          "indexed": true,
          "internalType": "address",
          "name": "recipient",
          "type": "address"
        },
        {
          "indexed": false,
          "internalType": "uint256",
          "name": "amount",
          "type": "uint256"
        },
        {
          "indexed": false,
          "internalType": "string",
          "name": "description",
          "type": "string"
        }
      ],
      "name": "TreasuryAction",
      "type": "event"
    },
    {
      "anonymous": false,
      "inputs": [
        {
          "indexed": true,
          "internalType": "uint256",
          "name": "proposalId",
          "type": "uint256"
        },
        {
          "indexed": true,
          "internalType": "address",
          "name": "token",
          "type": "address"
        },
        {
          "indexed": false,
          "internalType": "uint256",
          "name": "amount",
          "type": "uint256"
        },
        {
          "indexed": false,
          "internalType": "uint256",
          "name": "perMember",
          "type": "uint256"
        },
        {
          "indexed": false,
          "internalType": "uint256",
          "name": "remainder",
          "type": "uint256"
        }
      ],
      "name": "TreasuryDisbanded",
      "type": "event"
    },
    {
      "anonymous": false,
      "inputs": [
        {
          "indexed": true,
          "internalType": "uint256",
          "name": "proposalId",
          "type": "uint256"
        },
        {
          "indexed": true,
          "internalType": "address",
          "name": "voter",
          "type": "address"
        },
        {
          "indexed": false,
          "internalType": "bool",
          "name": "support",
          "type": "bool"
        },
        {
          "indexed": false,
          "internalType": "uint256",
          "name": "timestamp",
          "type": "uint256"
        }
      ],
      "name": "VoteCast",
      "type": "event"
    },
    {
      "inputs": [],
      "name": "DEFAULT_VOTING_PERIOD",
      "outputs": [
        {
          "internalType": "uint256",
          "name": "",
          "type": "uint256"
        }
      ],
      "stateMutability": "view",
      "type": "function"
    },
    {
      "inputs": [],
      "name": "MAX_MEMBERS",
      "outputs": [
        {
          "internalType": "uint256",
          "name": "",
          "type": "uint256"
        }
      ],
      "stateMutability": "view",
      "type": "function"
    },
    {
      "inputs": [],
      "name": "MAX_VOTING_PERIOD",
      "outputs": [
        {
          "internalType": "uint256",
          "name": "",
          "type": "uint256"
        }
      ],
      "stateMutability": "view",
      "type": "function"
    },
    {
      "inputs": [],
      "name": "MIN_VOTING_PERIOD",
      "outputs": [
        {
          "internalType": "uint256",
          "name": "",
          "type": "uint256"
        }
      ],
      "stateMutability": "view",
      "type": "function"
    },
    {
      "inputs": [],
      "name": "accessToken",
      "outputs": [
        {
          "internalType": "address",
          "name": "",
          "type": "address"
        }
      ],
      "stateMutability": "view",
      "type": "function"
    },
    {
      "inputs": [],
      "name": "activeDisbandJoinLocks",
      "outputs": [
        {
          "internalType": "uint256",
          "name": "",
          "type": "uint256"
        }
      ],
      "stateMutability": "view",
      "type": "function"
    },
    {
      "inputs": [
        {
          "internalType": "address",
          "name": "",
          "type": "address"
        }
      ],
      "name": "activeProposalId",
      "outputs": [
        {
          "internalType": "uint256",
          "name": "",
          "type": "uint256"
        }
      ],
      "stateMutability": "view",
      "type": "function"
    },
    {
      "inputs": [],
      "name": "burnAddress",
      "outputs": [
        {
          "internalType": "address",
          "name": "",
          "type": "address"
        }
      ],
      "stateMutability": "view",
      "type": "function"
    },
    {
      "inputs": [],
      "name": "burnPercent",
      "outputs": [
        {
          "internalType": "uint256",
          "name": "",
          "type": "uint256"
        }
      ],
      "stateMutability": "view",
      "type": "function"
    },
    {
      "inputs": [
        {
          "internalType": "address",
          "name": "newPriest",
          "type": "address"
        }
      ],
      "name": "changePriestDAO",
      "outputs": [],
      "stateMutability": "nonpayable",
      "type": "function"
    },
    {
      "inputs": [
        {
          "internalType": "address",
          "name": "token",
          "type": "address"
        }
      ],
      "name": "claimExternalToken",
      "outputs": [],
      "stateMutability": "nonpayable",
      "type": "function"
    },
    {
      "inputs": [],
      "name": "claimMemberPool",
      "outputs": [],
      "stateMutability": "nonpayable",
      "type": "function"
    },
    {
      "inputs": [
        {
          "internalType": "address",
          "name": "_newPriest",
          "type": "address"
        },
        {
          "internalType": "uint256",
          "name": "_votingPeriod",
          "type": "uint256"
        },
        {
          "internalType": "string",
          "name": "_title",
          "type": "string"
        },
        {
          "internalType": "string",
          "name": "_description",
          "type": "string"
        }
      ],
      "name": "createProposalChangePriest",
      "outputs": [
        {
          "internalType": "uint256",
          "name": "",
          "type": "uint256"
        }
      ],
      "stateMutability": "nonpayable",
      "type": "function"
    },
    {
      "inputs": [
        {
          "internalType": "address",
          "name": "_token",
          "type": "address"
        },
        {
          "internalType": "uint256",
          "name": "_votingPeriod",
          "type": "uint256"
        },
        {
          "internalType": "string",
          "name": "_title",
          "type": "string"
        },
        {
          "internalType": "string",
          "name": "_description",
          "type": "string"
        }
      ],
      "name": "createProposalDisbandTreasury",
      "outputs": [
        {
          "internalType": "uint256",
          "name": "",
          "type": "uint256"
        }
      ],
      "stateMutability": "nonpayable",
      "type": "function"
    },
    {
      "inputs": [
        {
          "internalType": "bool",
          "name": "_enable",
          "type": "bool"
        },
        {
          "internalType": "uint256",
          "name": "_votingPeriod",
          "type": "uint256"
        },
        {
          "internalType": "string",
          "name": "_title",
          "type": "string"
        },
        {
          "internalType": "string",
          "name": "_description",
          "type": "string"
        }
      ],
      "name": "createProposalSetDictatorship",
      "outputs": [
        {
          "internalType": "uint256",
          "name": "",
          "type": "uint256"
        }
      ],
      "stateMutability": "nonpayable",
      "type": "function"
    },
    {
      "inputs": [
        {
          "internalType": "string",
          "name": "_newLink",
          "type": "string"
        },
        {
          "internalType": "uint256",
          "name": "_votingPeriod",
          "type": "uint256"
        },
        {
          "internalType": "string",
          "name": "_title",
          "type": "string"
        },
        {
          "internalType": "string",
          "name": "_description",
          "type": "string"
        }
      ],
      "name": "createProposalSetHomeLink",
      "outputs": [
        {
          "internalType": "uint256",
          "name": "",
          "type": "uint256"
        }
      ],
      "stateMutability": "nonpayable",
      "type": "function"
    },
    {
      "inputs": [
        {
          "internalType": "uint256",
          "name": "_newMaxMembers",
          "type": "uint256"
        },
        {
          "internalType": "uint256",
          "name": "_votingPeriod",
          "type": "uint256"
        },
        {
          "internalType": "string",
          "name": "_title",
          "type": "string"
        },
        {
          "internalType": "string",
          "name": "_description",
          "type": "string"
        }
      ],
      "name": "createProposalSetMaxMembers",
      "outputs": [
        {
          "internalType": "uint256",
          "name": "",
          "type": "uint256"
        }
      ],
      "stateMutability": "nonpayable",
      "type": "function"
    },
    {
      "inputs": [
        {
          "internalType": "bool",
          "name": "_paused",
          "type": "bool"
        },
        {
          "internalType": "uint256",
          "name": "_votingPeriod",
          "type": "uint256"
        },
        {
          "internalType": "string",
          "name": "_title",
          "type": "string"
        },
        {
          "internalType": "string",
          "name": "_description",
          "type": "string"
        }
      ],
      "name": "createProposalSetPaused",
      "outputs": [
        {
          "internalType": "uint256",
          "name": "",
          "type": "uint256"
        }
      ],
      "stateMutability": "nonpayable",
      "type": "function"
    },
    {
      "inputs": [
        {
          "internalType": "uint256",
          "name": "_newEntryFee",
          "type": "uint256"
        },
        {
          "internalType": "uint256",
          "name": "_newBurnPercent",
          "type": "uint256"
        },
        {
          "internalType": "uint256",
          "name": "_newTreasuryPercent",
          "type": "uint256"
        },
        {
          "internalType": "uint256",
          "name": "_newMemberPoolPercent",
          "type": "uint256"
        },
        {
          "internalType": "bool",
          "name": "_updateFeeSplit",
          "type": "bool"
        },
        {
          "internalType": "uint256",
          "name": "_votingPeriod",
          "type": "uint256"
        },
        {
          "internalType": "string",
          "name": "_title",
          "type": "string"
        },
        {
          "internalType": "string",
          "name": "_description",
          "type": "string"
        }
      ],
      "name": "createProposalUpdateConfig",
      "outputs": [
        {
          "internalType": "uint256",
          "name": "",
          "type": "uint256"
        }
      ],
      "stateMutability": "nonpayable",
      "type": "function"
    },
    {
      "inputs": [
        {
          "internalType": "address",
          "name": "_token",
          "type": "address"
        },
        {
          "internalType": "address",
          "name": "_recipient",
          "type": "address"
        },
        {
          "internalType": "uint256",
          "name": "_amount",
          "type": "uint256"
        },
        {
          "internalType": "string",
          "name": "_reason",
          "type": "string"
        },
        {
          "internalType": "uint256",
          "name": "_votingPeriod",
          "type": "uint256"
        },
        {
          "internalType": "string",
          "name": "_title",
          "type": "string"
        },
        {
          "internalType": "string",
          "name": "_description",
          "type": "string"
        }
      ],
      "name": "createProposalWithdrawTreasury",
      "outputs": [
        {
          "internalType": "uint256",
          "name": "",
          "type": "uint256"
        }
      ],
      "stateMutability": "nonpayable",
      "type": "function"
    },
    {
      "inputs": [],
      "name": "cumulativeMemberRewards",
      "outputs": [
        {
          "internalType": "uint256",
          "name": "",
          "type": "uint256"
        }
      ],
      "stateMutability": "view",
      "type": "function"
    },
    {
      "inputs": [
        {
          "internalType": "address",
          "name": "token",
          "type": "address"
        }
      ],
      "name": "disbandTreasuryDAO",
      "outputs": [],
      "stateMutability": "nonpayable",
      "type": "function"
    },
    {
      "inputs": [],
      "name": "entryFee",
      "outputs": [
        {
          "internalType": "uint256",
          "name": "",
          "type": "uint256"
        }
      ],
      "stateMutability": "view",
      "type": "function"
    },
    {
      "inputs": [
        {
          "internalType": "uint256",
          "name": "_proposalId",
          "type": "uint256"
        }
      ],
      "name": "executeProposal",
      "outputs": [],
      "stateMutability": "nonpayable",
      "type": "function"
    },
    {
      "inputs": [],
      "name": "executionDelayAfterQuorum",
      "outputs": [
        {
          "internalType": "uint256",
          "name": "",
          "type": "uint256"
        }
      ],
      "stateMutability": "view",
      "type": "function"
    },
    {
      "inputs": [],
      "name": "getActiveProposals",
      "outputs": [
        {
          "internalType": "uint256[]",
          "name": "",
          "type": "uint256[]"
        }
      ],
      "stateMutability": "view",
      "type": "function"
    },
    {
      "inputs": [
        {
          "internalType": "uint256",
          "name": "offset",
          "type": "uint256"
        },
        {
          "internalType": "uint256",
          "name": "limit",
          "type": "uint256"
        }
      ],
      "name": "getActiveProposalsPaginated",
      "outputs": [
        {
          "internalType": "uint256[]",
          "name": "proposalIds",
          "type": "uint256[]"
        },
        {
          "internalType": "bool",
          "name": "hasMore",
          "type": "bool"
        }
      ],
      "stateMutability": "view",
      "type": "function"
    },
    {
      "inputs": [
        {
          "internalType": "address",
          "name": "member",
          "type": "address"
        },
        {
          "internalType": "address",
          "name": "token",
          "type": "address"
        }
      ],
      "name": "getClaimableExternalToken",
      "outputs": [
        {
          "internalType": "uint256",
          "name": "",
          "type": "uint256"
        }
      ],
      "stateMutability": "view",
      "type": "function"
    },
    {
      "inputs": [
        {
          "internalType": "address",
          "name": "member",
          "type": "address"
        }
      ],
      "name": "getClaimablePoolAmount",
      "outputs": [
        {
          "internalType": "uint256",
          "name": "",
          "type": "uint256"
        }
      ],
      "stateMutability": "view",
      "type": "function"
    },
    {
      "inputs": [],
      "name": "getConfig",
      "outputs": [
        {
          "internalType": "address",
          "name": "token",
          "type": "address"
        },
        {
          "internalType": "uint256",
          "name": "fee",
          "type": "uint256"
        },
        {
          "internalType": "bool",
          "name": "isPaused",
          "type": "bool"
        },
        {
          "internalType": "uint256",
          "name": "purchases",
          "type": "uint256"
        },
        {
          "internalType": "uint256",
          "name": "treasury",
          "type": "uint256"
        },
        {
          "internalType": "uint256",
          "name": "pool",
          "type": "uint256"
        },
        {
          "internalType": "uint256",
          "name": "burnPercentOut",
          "type": "uint256"
        },
        {
          "internalType": "uint256",
          "name": "treasuryPercentOut",
          "type": "uint256"
        },
        {
          "internalType": "uint256",
          "name": "memberPoolPercentOut",
          "type": "uint256"
        },
        {
          "internalType": "uint256",
          "name": "protocolPercentOut",
          "type": "uint256"
        }
      ],
      "stateMutability": "view",
      "type": "function"
    },
    {
      "inputs": [
        {
          "internalType": "address",
          "name": "token",
          "type": "address"
        }
      ],
      "name": "getExternalRewardState",
      "outputs": [
        {
          "internalType": "uint256",
          "name": "poolBalance",
          "type": "uint256"
        },
        {
          "internalType": "uint256",
          "name": "cumulativeRewards",
          "type": "uint256"
        },
        {
          "internalType": "uint256",
          "name": "remainder",
          "type": "uint256"
        }
      ],
      "stateMutability": "view",
      "type": "function"
    },
    {
      "inputs": [],
      "name": "getExternalRewardTokens",
      "outputs": [
        {
          "internalType": "address[]",
          "name": "",
          "type": "address[]"
        }
      ],
      "stateMutability": "view",
      "type": "function"
    },
    {
      "inputs": [],
      "name": "getMemberCount",
      "outputs": [
        {
          "internalType": "uint256",
          "name": "",
          "type": "uint256"
        }
      ],
      "stateMutability": "view",
      "type": "function"
    },
    {
      "inputs": [
        {
          "internalType": "uint256",
          "name": "_proposalId",
          "type": "uint256"
        }
      ],
      "name": "getProposal",
      "outputs": [
        {
          "internalType": "address",
          "name": "proposer",
          "type": "address"
        },
        {
          "internalType": "uint256",
          "name": "yesVotes",
          "type": "uint256"
        },
        {
          "internalType": "uint256",
          "name": "noVotes",
          "type": "uint256"
        },
        {
          "internalType": "uint256",
          "name": "endTime",
          "type": "uint256"
        },
        {
          "internalType": "bool",
          "name": "executed",
          "type": "bool"
        },
        {
          "internalType": "bool",
          "name": "passed",
          "type": "bool"
        },
        {
          "internalType": "string",
          "name": "title",
          "type": "string"
        },
        {
          "internalType": "string",
          "name": "description",
          "type": "string"
        }
      ],
      "stateMutability": "view",
      "type": "function"
    },
    {
      "inputs": [
        {
          "internalType": "uint256",
          "name": "_proposalId",
          "type": "uint256"
        }
      ],
      "name": "getProposalSnapshots",
      "outputs": [
        {
          "internalType": "uint256",
          "name": "eligibleVotersPreQuorum",
          "type": "uint256"
        },
        {
          "internalType": "uint256",
          "name": "eligibleVotersPostQuorum",
          "type": "uint256"
        },
        {
          "internalType": "uint256",
          "name": "preQuorumSnapshotBlock",
          "type": "uint256"
        },
        {
          "internalType": "uint256",
          "name": "quorumSnapshotBlock",
          "type": "uint256"
        },
        {
          "internalType": "uint256",
          "name": "createdAt",
          "type": "uint256"
        },
        {
          "internalType": "uint256",
          "name": "quorumReachedAt",
          "type": "uint256"
        }
      ],
      "stateMutability": "view",
      "type": "function"
    },
    {
      "inputs": [
        {
          "internalType": "address",
          "name": "user",
          "type": "address"
        }
      ],
      "name": "getPurchaseDetails",
      "outputs": [
        {
          "internalType": "bool",
          "name": "purchased",
          "type": "bool"
        },
        {
          "internalType": "uint256",
          "name": "timestamp",
          "type": "uint256"
        },
        {
          "internalType": "uint256",
          "name": "blockNum",
          "type": "uint256"
        }
      ],
      "stateMutability": "view",
      "type": "function"
    },
    {
      "inputs": [],
      "name": "getTreasuryInfo",
      "outputs": [
        {
          "internalType": "uint256",
          "name": "treasury",
          "type": "uint256"
        },
        {
          "internalType": "uint256",
          "name": "memberPool",
          "type": "uint256"
        },
        {
          "internalType": "address",
          "name": "protocolAddress",
          "type": "address"
        }
      ],
      "stateMutability": "view",
      "type": "function"
    },
    {
      "inputs": [
        {
          "internalType": "address",
          "name": "voter",
          "type": "address"
        }
      ],
      "name": "getVoteWeight",
      "outputs": [
        {
          "internalType": "uint256",
          "name": "",
          "type": "uint256"
        }
      ],
      "stateMutability": "view",
      "type": "function"
    },
    {
      "inputs": [
        {
          "internalType": "address",
          "name": "user",
          "type": "address"
        }
      ],
      "name": "hasAccess",
      "outputs": [
        {
          "internalType": "bool",
          "name": "",
          "type": "bool"
        }
      ],
      "stateMutability": "view",
      "type": "function"
    },
    {
      "inputs": [
        {
          "internalType": "address",
          "name": "",
          "type": "address"
        }
      ],
      "name": "hasActiveProposal",
      "outputs": [
        {
          "internalType": "bool",
          "name": "",
          "type": "bool"
        }
      ],
      "stateMutability": "view",
      "type": "function"
    },
    {
      "inputs": [
        {
          "internalType": "uint256",
          "name": "_proposalId",
          "type": "uint256"
        },
        {
          "internalType": "address",
          "name": "_voter",
          "type": "address"
        }
      ],
      "name": "hasVoted",
      "outputs": [
        {
          "internalType": "bool",
          "name": "voted",
          "type": "bool"
        },
        {
          "internalType": "bool",
          "name": "support",
          "type": "bool"
        }
      ],
      "stateMutability": "view",
      "type": "function"
    },
    {
      "inputs": [],
      "name": "memberCount",
      "outputs": [
        {
          "internalType": "uint256",
          "name": "",
          "type": "uint256"
        }
      ],
      "stateMutability": "view",
      "type": "function"
    },
    {
      "inputs": [],
      "name": "memberPoolBalance",
      "outputs": [
        {
          "internalType": "uint256",
          "name": "",
          "type": "uint256"
        }
      ],
      "stateMutability": "view",
      "type": "function"
    },
    {
      "inputs": [
        {
          "internalType": "address",
          "name": "",
          "type": "address"
        }
      ],
      "name": "memberPoolClaims",
      "outputs": [
        {
          "internalType": "uint256",
          "name": "",
          "type": "uint256"
        }
      ],
      "stateMutability": "view",
      "type": "function"
    },
    {
      "inputs": [],
      "name": "memberPoolPercent",
      "outputs": [
        {
          "internalType": "uint256",
          "name": "",
          "type": "uint256"
        }
      ],
      "stateMutability": "view",
      "type": "function"
    },
    {
      "inputs": [],
      "name": "memberRewardRemainder",
      "outputs": [
        {
          "internalType": "uint256",
          "name": "",
          "type": "uint256"
        }
      ],
      "stateMutability": "view",
      "type": "function"
    },
    {
      "inputs": [
        {
          "internalType": "address",
          "name": "",
          "type": "address"
        }
      ],
      "name": "members",
      "outputs": [
        {
          "internalType": "bool",
          "name": "purchased",
          "type": "bool"
        },
        {
          "internalType": "uint256",
          "name": "timestamp",
          "type": "uint256"
        },
        {
          "internalType": "uint256",
          "name": "block",
          "type": "uint256"
        },
        {
          "internalType": "uint256",
          "name": "rewardSnapshot",
          "type": "uint256"
        }
      ],
      "stateMutability": "view",
      "type": "function"
    },
    {
      "inputs": [],
      "name": "paused",
      "outputs": [
        {
          "internalType": "bool",
          "name": "",
          "type": "bool"
        }
      ],
      "stateMutability": "view",
      "type": "function"
    },
    {
      "inputs": [],
      "name": "priest",
      "outputs": [
        {
          "internalType": "address",
          "name": "",
          "type": "address"
        }
      ],
      "stateMutability": "view",
      "type": "function"
    },
    {
      "inputs": [],
      "name": "priestIsDictator",
      "outputs": [
        {
          "internalType": "bool",
          "name": "",
          "type": "bool"
        }
      ],
      "stateMutability": "view",
      "type": "function"
    },
    {
      "inputs": [],
      "name": "proposalCount",
      "outputs": [
        {
          "internalType": "uint256",
          "name": "",
          "type": "uint256"
        }
      ],
      "stateMutability": "view",
      "type": "function"
    },
    {
      "inputs": [
        {
          "internalType": "uint256",
          "name": "",
          "type": "uint256"
        }
      ],
      "name": "proposals",
      "outputs": [
        {
          "internalType": "uint256",
          "name": "id",
          "type": "uint256"
        },
        {
          "internalType": "address",
          "name": "proposer",
          "type": "address"
        },
        {
          "internalType": "enum TemplBase.Action",
          "name": "action",
          "type": "uint8"
        },
        {
          "internalType": "address",
          "name": "token",
          "type": "address"
        },
        {
          "internalType": "address",
          "name": "recipient",
          "type": "address"
        },
        {
          "internalType": "uint256",
          "name": "amount",
          "type": "uint256"
        },
        {
          "internalType": "string",
          "name": "title",
          "type": "string"
        },
        {
          "internalType": "string",
          "name": "description",
          "type": "string"
        },
        {
          "internalType": "string",
          "name": "reason",
          "type": "string"
        },
        {
          "internalType": "bool",
          "name": "paused",
          "type": "bool"
        },
        {
          "internalType": "uint256",
          "name": "newEntryFee",
          "type": "uint256"
        },
        {
          "internalType": "uint256",
          "name": "newBurnPercent",
          "type": "uint256"
        },
        {
          "internalType": "uint256",
          "name": "newTreasuryPercent",
          "type": "uint256"
        },
        {
          "internalType": "uint256",
          "name": "newMemberPoolPercent",
          "type": "uint256"
        },
        {
          "internalType": "string",
          "name": "newHomeLink",
          "type": "string"
        },
        {
          "internalType": "uint256",
          "name": "newMaxMembers",
          "type": "uint256"
        },
        {
          "internalType": "uint256",
          "name": "yesVotes",
          "type": "uint256"
        },
        {
          "internalType": "uint256",
          "name": "noVotes",
          "type": "uint256"
        },
        {
          "internalType": "uint256",
          "name": "endTime",
          "type": "uint256"
        },
        {
          "internalType": "uint256",
          "name": "createdAt",
          "type": "uint256"
        },
        {
          "internalType": "bool",
          "name": "executed",
          "type": "bool"
        },
        {
          "internalType": "uint256",
          "name": "eligibleVoters",
          "type": "uint256"
        },
        {
          "internalType": "uint256",
          "name": "postQuorumEligibleVoters",
          "type": "uint256"
        },
        {
          "internalType": "uint256",
          "name": "quorumReachedAt",
          "type": "uint256"
        },
        {
          "internalType": "uint256",
          "name": "quorumSnapshotBlock",
          "type": "uint256"
        },
        {
          "internalType": "bool",
          "name": "quorumExempt",
          "type": "bool"
        },
        {
          "internalType": "bool",
          "name": "updateFeeSplit",
          "type": "bool"
        },
        {
          "internalType": "uint256",
          "name": "preQuorumSnapshotBlock",
          "type": "uint256"
        },
        {
          "internalType": "bool",
          "name": "setDictatorship",
          "type": "bool"
        },
        {
          "internalType": "bool",
          "name": "disbandJoinLock",
          "type": "bool"
        }
      ],
      "stateMutability": "view",
      "type": "function"
    },
    {
      "inputs": [],
      "name": "protocolFeeRecipient",
      "outputs": [
        {
          "internalType": "address",
          "name": "",
          "type": "address"
        }
      ],
      "stateMutability": "view",
      "type": "function"
    },
    {
      "inputs": [],
      "name": "protocolPercent",
      "outputs": [
        {
          "internalType": "uint256",
          "name": "",
          "type": "uint256"
        }
      ],
      "stateMutability": "view",
      "type": "function"
    },
    {
      "inputs": [
        {
          "internalType": "uint256",
          "name": "maxRemovals",
          "type": "uint256"
        }
      ],
      "name": "pruneInactiveProposals",
      "outputs": [
        {
          "internalType": "uint256",
          "name": "removed",
          "type": "uint256"
        }
      ],
      "stateMutability": "nonpayable",
      "type": "function"
    },
    {
      "inputs": [],
      "name": "purchaseAccess",
      "outputs": [],
      "stateMutability": "nonpayable",
      "type": "function"
    },
    {
      "inputs": [],
      "name": "quorumPercent",
      "outputs": [
        {
          "internalType": "uint256",
          "name": "",
          "type": "uint256"
        }
      ],
      "stateMutability": "view",
      "type": "function"
    },
    {
      "inputs": [
        {
          "internalType": "bool",
          "name": "enabled",
          "type": "bool"
        }
      ],
      "name": "setDictatorshipDAO",
      "outputs": [],
      "stateMutability": "nonpayable",
      "type": "function"
    },
    {
      "inputs": [
        {
          "internalType": "uint256",
          "name": "_maxMembers",
          "type": "uint256"
        }
      ],
      "name": "setMaxMembersDAO",
      "outputs": [],
      "stateMutability": "nonpayable",
      "type": "function"
    },
    {
      "inputs": [
        {
          "internalType": "bool",
          "name": "_paused",
          "type": "bool"
        }
      ],
      "name": "setPausedDAO",
      "outputs": [],
      "stateMutability": "nonpayable",
      "type": "function"
    },
    {
      "inputs": [
        {
          "internalType": "string",
          "name": "newLink",
          "type": "string"
        }
      ],
      "name": "setTemplHomeLinkDAO",
      "outputs": [],
      "stateMutability": "nonpayable",
      "type": "function"
    },
    {
      "inputs": [],
      "name": "templHomeLink",
      "outputs": [
        {
          "internalType": "string",
          "name": "",
          "type": "string"
        }
      ],
      "stateMutability": "view",
      "type": "function"
    },
    {
      "inputs": [],
      "name": "totalPurchases",
      "outputs": [
        {
          "internalType": "uint256",
          "name": "",
          "type": "uint256"
        }
      ],
      "stateMutability": "view",
      "type": "function"
    },
    {
      "inputs": [],
      "name": "treasuryBalance",
      "outputs": [
        {
          "internalType": "uint256",
          "name": "",
          "type": "uint256"
        }
      ],
      "stateMutability": "view",
      "type": "function"
    },
    {
      "inputs": [],
      "name": "treasuryPercent",
      "outputs": [
        {
          "internalType": "uint256",
          "name": "",
          "type": "uint256"
        }
      ],
      "stateMutability": "view",
      "type": "function"
    },
    {
      "inputs": [
        {
          "internalType": "address",
          "name": "_token",
          "type": "address"
        },
        {
          "internalType": "uint256",
          "name": "_entryFee",
          "type": "uint256"
        },
        {
          "internalType": "bool",
          "name": "_updateFeeSplit",
          "type": "bool"
        },
        {
          "internalType": "uint256",
          "name": "_burnPercent",
          "type": "uint256"
        },
        {
          "internalType": "uint256",
          "name": "_treasuryPercent",
          "type": "uint256"
        },
        {
          "internalType": "uint256",
          "name": "_memberPoolPercent",
          "type": "uint256"
        }
      ],
      "name": "updateConfigDAO",
      "outputs": [],
      "stateMutability": "nonpayable",
      "type": "function"
    },
    {
      "inputs": [
        {
          "internalType": "uint256",
          "name": "_proposalId",
          "type": "uint256"
        },
        {
          "internalType": "bool",
          "name": "_support",
          "type": "bool"
        }
      ],
      "name": "vote",
      "outputs": [],
      "stateMutability": "nonpayable",
      "type": "function"
    },
    {
      "inputs": [
        {
          "internalType": "address",
          "name": "token",
          "type": "address"
        },
        {
          "internalType": "address",
          "name": "recipient",
          "type": "address"
        },
        {
          "internalType": "uint256",
          "name": "amount",
          "type": "uint256"
        },
        {
          "internalType": "string",
          "name": "reason",
          "type": "string"
        }
      ],
      "name": "withdrawTreasuryDAO",
      "outputs": [],
      "stateMutability": "nonpayable",
      "type": "function"
    },
    {
      "stateMutability": "payable",
      "type": "receive"
    }
  ],
  "bytecode": "0x610100604052346200075d5762005d17803803806200001e8162000762565b9283398101906101c0818303126200075d576200003b8162000788565b620000496020830162000788565b92620000586040840162000788565b606084015194608085015160a086015160c087015160e0880151610100890151936101208a0151956200008f6101408c0162000788565b976101608c01519182151583036200075d576101808d01516101a08e0151909d6001600160401b0382116200075d57018b601f820112156200075d5780519b6001600160401b038d116200064a578c90620000f4601f8301601f191660200162000762565b9d8e52602082840101116200075d5762000115916020808f0191016200079d565b60016000556001600160a01b0381161580156200074b575b620004cf5760a05260c0526004549060ff60a01b90151560a01b169060ff60a01b191617600455809184938095829362000178846200017285620001728686620007c2565b620007c2565b906127108203620006de575b5050505050620001a681612710926080526200017286620001728787620007c2565b03620006cc57600155600255600355806200066c5750610ce4600d555b8062000666575062093a805b600e556001600160a01b03811662000660575061dead5b60e05280516001600160401b0381116200064a57600f54600181811c911680156200063f575b60208210146200062957601f8111620005d0575b50806020601f821160011462000557576000916200054b575b508160011b916000199060031b1c191617600f555b8051620004e1575b506001600160a01b0316918215620004cf578015620004bd57600a8110620004ab57600a810662000499578260018060a01b0319600454161760045560055560ff1991826008541660085560005260106020526040600020600183825416178155426001820155436002820155600360135491015560016011558015159081620003cc575b6040516155269081620007d18239608051818181610545015281816107f501528181611256015281816118930152818161281c0152818161286b01528181612b100152612b62015260a05181818161134a01528181611a1a015261215c015260c051818181610405015281816106d40152818161092b015281816111a7015281816112ef015281816118f9015281816119b6015281816119e701528181611a3c0152818161254201528181612842015281816128d301528181612b3601528181612bd701528181612c4401528181613a0d01528181614ce90152614ff9015260e0518181816119940152611f8e0152f35b81806200048e575b6200047c5780600c557fb63bcc75a862434e97db3146b78681478a2692253df1de5623d497ee61fac7996020604051838152a1816200046f575b508062000461575b62000424575b8080620002db565b60019060085416176008557f752d7e161ff5146f80e3820893176eb40532811e5e20400dfdde57455213706a602060405160018152a1386200041c565b5060ff600854161562000416565b905060011015386200040e565b604051633161e99d60e11b8152600490fd5b5060018110620003d4565b604051636fe6a4c960e01b8152600490fd5b604051635eee050360e11b8152600490fd5b6040516365e52d5160e11b8152600490fd5b604051634e46966960e11b8152600490fd5b7f71e57b89fe30fe66cb93427236f86ec18c6ec404e26b5c0914ee88193dd07da590608060405180926040825260006040830152606060208301526200053781518092816060860152602086860191016200079d565b601f01601f19168101030190a13862000256565b90508201513862000239565b600f6000908152925060008051602062005cf7833981519152905b601f1983168410620005b7576001935082601f198116106200059d575b5050811b01600f556200024e565b84015160001960f88460031b161c1916905538806200058f565b8481015182556020938401936001909201910162000572565b600f60005260008051602062005cf7833981519152601f830160051c810191602084106200061e575b601f0160051c01905b81811062000611575062000220565b6000815560010162000602565b9091508190620005f9565b634e487b7160e01b600052602260045260246000fd5b90607f16906200020c565b634e487b7160e01b600052604160045260246000fd5b620001e6565b620001cf565b8060648111156200069e575b5061271081116200068c57600d55620001c3565b604051631f3b85d360e01b8152600490fd5b905060648102908104606403620006b6573862000678565b634e487b7160e01b600052601160045260246000fd5b60405163542c8df360e11b8152600490fd5b9397509195509350606492508203620006cc5781810290808204831490151715620006b6579181810290808204831490151715620006b6579281810290808204831490151715620006b65793818102918183041490151715620006b657620001a661271038808062000184565b506001600160a01b038216156200012d565b600080fd5b6040519190601f01601f191682016001600160401b038111838210176200064a57604052565b51906001600160a01b03821682036200075d57565b60005b838110620007b15750506000910152565b8181015183820152602001620007a0565b91908201809211620006b65756fe610300604052600436101561001c575b361561001a57600080fd5b005b60003560e01c8063013cf08b1461325e57806303807ee51461324057806304ef9d5814613222578063072ea61c1461320457806308ae4b0c146131a35780630d61b519146129295780630f852b9a1461275857806311aee38014611bd65780631808022a146127355780631df260a01461266d578063215809ca14611674578063240d3a06146124fa578063313dab20146124dc578063438596321461246d5780634902e427146123df57806353eee212146123b35780635584c4f9146122ed5780635962a941146122d25780635c975abb146122af5780635fa7ddf01461229157806361c896d2146121e157806364653f291461218b57806364df049e14612146578063653724d6146120ac5780636898b19c1461208e5780636a499427146120335780636ad1855014611ff95780636f739e4f14611fdb5780637070ac4814611fbd57806370d5ae0514611f7857806373023e6414611e07578063840634c514611d3e5780638b0e837914611c755780638f78bbc414611c3357806395a078e814611bf4578063997072f714611bd657806399e288d814611804578063a51a46b9146117e6578063a64e024a146117c8578063a730117e146117a5578063a81bbe3c1461176b578063aa5c442b146116b5578063ab99a0d314611697578063adadef2714611679578063aedfe53f14611674578063b488616b14611644578063be893a1f14611467578063bebc8fc01461143e578063c17db3f2146113b0578063c2939471146112bb578063c3f909d414611181578063c7f758a814610feb578063c851776c14610f8c578063c9d27afe14610c5c578063cfb5446014610bda578063d402d4be146108a8578063da35c6641461088a578063dddac84414610864578063e1a2c9bf14610703578063e243c5fb146106be578063e4b5d7ba14610632578063ea0e35b114610614578063eccceda614610568578063f0a827a41461052d578063f2be51ea146104a1578063f7158b2a1461036f578063f81cbd26146103515763ffafe4ad0361000f573461034c57602036600319011261034c576001600160a01b0361032e613776565b166000526018602052602060ff604060002054166040519015158152f35b600080fd5b3461034c57600036600319011261034c576020600d54604051908152f35b3461034c57600036600319011261034c5733600052601060205260ff604060002054161561048f5761039f613f6f565b6103a83361396c565b801561047d57806103be6007546014549061395f565b1061046b57601354336000526010602052600360406000200155601260205260406000206103ed82825461393f565b90556103fb8160075461395f565b60075561043281337f00000000000000000000000000000000000000000000000000000000000000006001600160a01b0316614166565b6040519081524260208201527fc4e740509dbfae3377bc9925dd7bcc8aaba69cd730316216d76b2d24725c636660403392a26001600055005b60405163bc6072f160e01b8152600490fd5b6040516373380d9960e01b8152600490fd5b60405163148fe22160e11b8152600490fd5b3461034c57602036600319011261034c576104ba613776565b60045460ff8160a01c1660001461050a573033141590816104f6575b506104e45761001a90614cd1565b60405163626243e960e01b8152600490fd5b6001600160a01b03163314159050826104d6565b5030330361051b5761001a90614cd1565b6040516327568d2f60e11b8152600490fd5b3461034c57600036600319011261034c5760206040517f00000000000000000000000000000000000000000000000000000000000000008152f35b3461034c57610576366137fc565b929490936001600160a01b039091169283156106025760ff60045460a01c166105f0576105b86003956105b06020986105be9636916138ad565b9236916138ad565b916141b5565b60018101805460ff60a01b1916600160a21b1790559290920180546001600160a01b0319169091179055604051908152f35b60405163a8ef9e1960e01b8152600490fd5b604051634e46966960e11b8152600490fd5b3461034c57600036600319011261034c576020600c54604051908152f35b3461034c5761064036613902565b949190929360ff60045460a01c16831515901515146106ac576020956105b86106a4956105b0601c986106749636916138ad565b60018101805460ff60a01b1916600560a01b17905593909301805491151560ff1660ff1992909216919091179055565b604051908152f35b6040516305548b1760e41b8152600490fd5b3461034c57600036600319011261034c576040517f00000000000000000000000000000000000000000000000000000000000000006001600160a01b03168152602090f35b3461034c5761010036600319011261034c5760843560043581151560243560643560443583860361034c576001600160401b0360c43581811161034c5761074e9036906004016137cf565b9160e43590811161034c576107679036906004016137cf565b92909860ff60045460a01c166105f05788610821575b6020996105b06107a794601a999897969461079e946107f0575b36916138ad565b9060a4356141b5565b93909660018501600160a01b60ff60a01b198254161790556009850155600a840155600b830155600c820155019061ff0082549160081b169061ff001916179055604051908152f35b61081c7f00000000000000000000000000000000000000000000000000000000000000008a8a8d614c9e565b610797565b9594939290600a891061085257600a890661084057909293949561077d565b604051636fe6a4c960e01b8152600490fd5b604051635eee050360e11b8152600490fd5b3461034c57600036600319011261034c57602060ff60045460a01c166040519015158152f35b3461034c57600036600319011261034c576020601554604051908152f35b3461034c57608036600319011261034c576108c1613776565b6108c961378c565b604435906064356001600160401b03811161034c576108ec9036906004016138e4565b9260045460ff8160a01c16600014610bc057303314159081610bac575b506104e4575b6001600160a01b0382811694908515610602578415610b9a57807f000000000000000000000000000000000000000000000000000000000000000016921693828514600014610a4b576040516370a0823160e01b8152306004820152602081602481875afa908115610a3f57600091610a0d575b50600754808211156109fb576109989161395f565b81116109fb576109d4816000956000805160206154b1833981519152956109cc600654808511158a146109f557849061395f565b600655614166565b6109f06040519283928352604060208401526040830190613736565b0390a4005b8061395f565b604051631c7b597b60e11b8152600490fd5b90506020813d602011610a37575b81610a28602093836135be565b8101031261034c575187610983565b3d9150610a1b565b6040513d6000823e3d90fd5b9150918315600014610ae6575060008052601b6020527f584f46c60af19681376031579adb04a2416e54ee5505351c2a8435e3766026ea54479080821115610add57610a969161395f565b81116109fb57600080808084885af1610aad6139b5565b5015610acb576000916000805160206154b1833981519152916109d4565b6040516331d436c760e01b8152600490fd5b50506000610a96565b909183600052601b6020526040600020604051906370a0823160e01b8252306004830152602082602481895afa918215610a3f57600092610b66575b505480821115610b5d57610b359161395f565b83116109fb5782610b586000946000805160206154b18339815191529487614166565b6109d4565b50506000610b35565b9091506020813d602011610b92575b81610b82602093836135be565b8101031261034c57519087610b22565b3d9150610b75565b6040516365e52d5160e11b8152600490fd5b6001600160a01b0316331415905085610909565b5033301461090f576040516327568d2f60e11b8152600490fd5b3461034c57602036600319011261034c57600435601554811015610c4a57600052601660205260c06040600020601681015490601781015490601b8101546019820154906018601284015493015493604051958652602086015260408501526060840152608083015260a0820152f35b604051631dc0650160e31b8152600490fd5b3461034c57604036600319011261034c5760248035801515916004359183810361034c57336000526020916010835260ff80604060002054161561048f57601554851015610c4a5784600052601684526040600020928160045460a01c1680610f5a575b6105f0576011808501908154421015610f485733600052601087526040600020601887019081548015600014610f235750610d0590601b89015460128a015491614c53565b610f11575b6014870193336000528489528560406000205416946015890195868b528760406000205416918b526040600020966001978860ff198254161790558b52610d618360406000209060ff801983541691151516179055565b610ea2575015610e8b57600f8701805490858201809211610e6e57555b84601a880154161580610e82575b610dc7575b89898960405192835242908301527fcbdf6214089cba887ecbf35a0b6a734589959c9763342c756bb2a80ca2bc9f6e60403393a3005b60168701548015159081610e41575b5015610d9157429055436019870155546017860155610df7600e544261393f565b905583015460a01c16906009821015610e2d5750600314610e1e575b808080808080610d91565b610e27906145e3565b83610e13565b634e487b7160e01b60009081526021600452fd5b600f89015461271080820293508115918404141715610e6e57610e6690600d5461394c565b11158b610dd6565b8784634e487b7160e01b6000526004526000fd5b50805415610d8c565b60108701805490858201809211610e6e5755610d7e565b90508a81151503610eb4575b50610d7e565b15610ee657600f87018054600019810191908211610e6e575560108701805490858201809211610e6e57555b8a610eae565b601087018054600019810191908211610e6e5755600f8701805490858201809211610e6e5755610ee0565b60405163f078ca7360e01b8152600490fd5b6019890154610f3192614c53565b15610d0a5760405163f078ca7360e01b8152600490fd5b604051637a19ed0560e01b8152600490fd5b5081600185015460a01c166009811015610f775760051415610cc0565b83634e487b7160e01b60005260216004526000fd5b3461034c57610f9a36613902565b949190929360ff60045460a01c166105f0576020956105b86106a4956105b0600898610fc79636916138ad565b6001819592950160ff60a01b198154169055019060ff801983541691151516179055565b3461034c57602036600319011261034c57600435601554811015610c4a576000526016602052604060002060ff601a820154166000146110d6576011810154421015806110c5575b905b6110c160018060a01b03600183015416926110b3600f8401549360108101549560118201549360ff60138401541661107b600661107460058701613693565b9501613693565b95604051998a99610100958b5260208b015260408a0152606089015215156080880152151560a08701528060c0870152850190613736565b9083820360e0850152613736565b0390f35b50600f810154601082015410611033565b6018810154801561117857601682015490811591821561112e575b50600e546110fe9161393f565b4210159081611126575b5080611115575b90611035565b50600f81015460108201541061110f565b905082611108565b909150600f83015461271090818102918183041490151715611162576111596110fe92600d5461394c565b111591906110f1565b634e487b7160e01b600052601160045260246000fd5b50600090611035565b3461034c57600036600319011261034c576040516370a0823160e01b81523060048201527f00000000000000000000000000000000000000000000000000000000000000006001600160a01b0316602082602481845afa8015610a3f57600090611287575b600754610140935090818082111561127d576112019161395f565b905b6005549160ff6008541691611216613bd4565b916001549260025494600354966040519889526020890152151560408801526060870152608086015260a085015260c084015260e08301526101008201527f0000000000000000000000000000000000000000000000000000000000000000610120820152f35b5050600090611203565b506020823d6020116112b3575b816112a1602093836135be565b8101031261034c5761014091516111e6565b3d9150611294565b3461034c57600036600319011261034c576040516370a0823160e01b81523060048201526001600160a01b036020826024817f000000000000000000000000000000000000000000000000000000000000000085165afa908115610a3f5760009161137b575b600754606093509182808211156113715761133b9161395f565b915b60405192835260208301527f0000000000000000000000000000000000000000000000000000000000000000166040820152f35b505060009161133d565b90506020823d6020116113a8575b81611396602093836135be565b8101031261034c576060915190611321565b3d9150611389565b3461034c57602036600319011261034c576004356001600160401b03811161034c576113e09036906004016137cf565b60045460ff8160a01c1660001461142957303314159081611415575b506104e45761001a916114109136916138ad565b6149ef565b6001600160a01b03163314159050836113fc565b5030330361051b5761001a9161141091610797565b3461034c57600036600319011261034c576004546040516001600160a01b039091168152602090f35b3461034c5760e036600319011261034c57611480613776565b61148861378c565b6001600160401b039060643582811161034c576114a99036906004016138e4565b9160a43581811161034c576114c29036906004016137cf565b60c43583811161034c576114da9036906004016137cf565b909260ff60045460a01c166105f0576007936105b06114fe926115079536916138ad565b906084356141b5565b6001808201805460ff60a01b1916600160a11b1790556002820180546001600160a01b03199081166001600160a01b039a8b161790915560038301805490911698909616979097179094556044356004850155845190939190910191811161162e576020946115808261157a8554613584565b85613bec565b8590601f83116001146115c8575081906115b39394956000926115bd575b50508160011b916000199060031b1c19161790565b9055604051908152f35b01519050868061159e565b90601f198316958460005281600020926000905b888210611617575050836001959697106115fe575b505050811b0190556106a4565b015160001960f88460031b161c191690558580806115f1565b8284015185559384019392890192908901906115dc565b634e487b7160e01b600052604160045260246000fd5b3461034c57600036600319011261034c576110c16116606135df565b604051918291602083526020830190613736565b6137b1565b3461034c57600036600319011261034c576020600354604051908152f35b3461034c57602036600319011261034c5760206106a4600435613e2d565b3461034c57602036600319011261034c576116ce6137a2565b60045460ff8160a01c16918260001461175257303314158061173f575b6104e4575b151580921515146106ac5760ff60a01b191660a082901b60ff60a01b16176004556040519081527fa8adfe89c6bc95edbe7049ed316f0473a03af92b1fd027ce1ac670082467c62390602090a1005b50336001600160a01b03831614156116eb565b3330146116f0576040516327568d2f60e11b8152600490fd5b3461034c57602036600319011261034c576001600160a01b0361178c613776565b1660005260126020526020604060002054604051908152f35b3461034c57602036600319011261034c5760206106a46117c3613776565b613e03565b3461034c57600036600319011261034c57602060405162278d008152f35b3461034c57600036600319011261034c576020601454604051908152f35b3461034c57600036600319011261034c5760ff60085416611bc45761182761524c565b600954611bb257303314611ba05761183d613f6f565b336000526010602052604060002060ff815416611b8e5760115490600c548015159081611b83575b50611b715781611b64575b600554906118806001548361483f565b9261188d6003548461483f565b906118b87f00000000000000000000000000000000000000000000000000000000000000008561483f565b926118d0846118cb856118cb8a8a61395f565b61395f565b946118db848761393f565b6040516370a0823160e01b81523360048201529091906020816024817f00000000000000000000000000000000000000000000000000000000000000006001600160a01b03165afa908115610a3f57600091611b32575b5010611b2057600160ff19835416178255426001830155436002830155600183019182841161116257611a149260115583611aea575b600360135491015561197c8660065461393f565b60065561198b8460075461393f565b6007556119e3877f0000000000000000000000000000000000000000000000000000000000000000337f00000000000000000000000000000000000000000000000000000000000000006001600160a01b03166148ba565b30337f00000000000000000000000000000000000000000000000000000000000000006001600160a01b03166148ba565b611a69837f0000000000000000000000000000000000000000000000000000000000000000337f00000000000000000000000000000000000000000000000000000000000000006001600160a01b03166148ba565b80611ad857506000925b6005549460405195865260208601526040850152606084015260808301524260a08301524360c083015260e08201527fe6d1c0e418a42a777d49c66571075fc47bc1d92e7f506007ddde08d1ff182bbc6101003392a2611ad1614912565b6001600055005b60001981019081116111625792611a73565b611b18611af96014548761393f565b611b0d86611b078184613dd9565b92613df9565b60145560135461393f565b601355611968565b604051631e9acf1760e31b8152600490fd5b90506020813d602011611b5c575b81611b4d602093836135be565b8101031261034c575189611932565b3d9150611b40565b611b6c61479d565b611870565b6040516382b675f560e01b8152600490fd5b905082101583611865565b604051630cd9ed5560e21b8152600490fd5b604051636edaef2f60e11b8152600490fd5b60405163dcb447f360e01b8152600490fd5b604051630eceade960e31b8152600490fd5b3461034c57600036600319011261034c576020601154604051908152f35b3461034c57602036600319011261034c576001600160a01b03611c15613776565b166000526010602052602060ff604060002054166040519015158152f35b3461034c57604036600319011261034c57611c69611c55602435600435613c42565b60405192839260408452604084019061385e565b90151560208301520390f35b3461034c57602036600319011261034c5760043560045460ff8160a01c16600014611d2457303314159081611d10575b506104e4575b6011548115159081611d06575b50611cf4576020817fb63bcc75a862434e97db3146b78681478a2692253df1de5623d497ee61fac79992600c55604051908152a161001a614912565b604051633161e99d60e11b8152600490fd5b9050811082611cb8565b6001600160a01b0316331415905082611ca5565b50333014611cab576040516327568d2f60e11b8152600490fd5b3461034c57602036600319011261034c57611d57613776565b60045460ff8160a01c16600014611dee573033141580611ddb575b6104e4575b6001600160a01b0391821691821561060257811690818314611dc9576001600160a01b03191682176004557f0f3a6964a8ba1b7473a14630b029eae6d49bec6babf098223718bacaac7197cc600080a3005b604051631c49f4d160e01b8152600490fd5b50336001600160a01b0382161415611d72565b333014611d77576040516327568d2f60e11b8152600490fd5b3461034c57608036600319011261034c576001600160401b0360043581811161034c57611e389036906004016137cf565b909160443581811161034c57611e529036906004016137cf565b9060643583811161034c57611e6b9036906004016137cf565b919060ff60045460a01c166105f0576105b0611e8c92611e959536916138ad565b906024356141b5565b6001818101805460ff60a01b1916600760a01b1790559193600d9190910192909190821161162e57611ecb8261157a8554613584565b600090601f8311600114611f0a575090806115b392602096600092611eff5750508160011b916000199060031b1c19161790565b01359050868061159e565b90601f198316846000526020926020600020936000915b838310611f61575050509583929160019460209810611f4757505050811b0190556106a4565b0135600019600384901b60f8161c191690558580806115f1565b898501358655948501949381019391810191611f21565b3461034c57600036600319011261034c576040517f00000000000000000000000000000000000000000000000000000000000000006001600160a01b03168152602090f35b3461034c57600036600319011261034c576020600e54604051908152f35b3461034c57600036600319011261034c576020600954604051908152f35b3461034c57602036600319011261034c576001600160a01b0361201a613776565b1660005260176020526020604060002054604051908152f35b3461034c57602036600319011261034c576001600160a01b03612054613776565b16600052601b602052604060002080546110c160026001840154930154604051938493846040919493926060820195825260208201520152565b3461034c57600036600319011261034c576020601354604051908152f35b3461034c57602036600319011261034c576120c56137a2565b60045460ff8160a01c1660001461212757303314159081612113575b506104e4576020600080516020615491833981519152915b151560ff196008541660ff821617600855604051908152a1005b6001600160a01b03163314159050826120e1565b5030330361051b576020600080516020615491833981519152916120f9565b3461034c57600036600319011261034c576040517f00000000000000000000000000000000000000000000000000000000000000006001600160a01b03168152602090f35b3461034c57602036600319011261034c576001600160a01b036121ac613776565b1660005260106020526060604060002060ff815416906002600182015491015490604051921515835260208301526040820152f35b3461034c57608036600319011261034c576001600160401b0360043560443582811161034c576122159036906004016137cf565b91909260643590811161034c576122309036906004016137cf565b60ff60049492945460a01c166105f05782151580612286575b611cf457611e8c600e946105b06020976122649536916138ad565b60018101805460ff60a01b1916600360a11b1790559290920155604051908152f35b506011548310612249565b3461034c57600036600319011261034c576020600754604051908152f35b3461034c57600036600319011261034c57602060ff600854166040519015158152f35b3461034c57600036600319011261034c5760206106a4613bd4565b3461034c57600036600319011261034c5760195461230a81613ac4565b9060009060005b81811061236357505061232381613ac4565b9160005b82811061234457604051602080825281906110c19082018761385e565b8061235160019284613bc0565b5161235c8287613bc0565b5201612327565b8061236f600192613af6565b90549060031b1c80600052601660205261238d42604060002061477f565b612399575b5001612311565b6123ac6123a586613bb1565b9587613bc0565b5285612392565b3461034c57604036600319011261034c5760206106a46123d1613776565b6123d961378c565b906139e5565b3461034c576123ed366137fc565b60ff600496959294965460a01c166105f0576105b86106a4946105b06020986124179636916138ad565b60018101805460ff60a01b1916600360a01b1790556002810180546001600160a01b0319166001600160a01b0395861617905560045491939091339116036145e357601a8101805460ff191660011790556145e3565b3461034c57604036600319011261034c5760043561248961378c565b601554821015610c4a576040916000526016602052816000209060018060a01b031660005260148101602052601560ff836000205416910160205260ff8260002054168251911515825215156020820152f35b3461034c57600036600319011261034c576020600654604051908152f35b3461034c5760208060031936011261034c57612514613776565b90336000526010815260ff604060002054161561048f57612533613f6f565b6001600160a01b0382811691907f0000000000000000000000000000000000000000000000000000000000000000168214611dc95781600052601b815260406000209260ff6003850154161561047d5761258d90336139e5565b92831561047d57805484811061046b57846125ea91600184015433600052601d8652604060002087600052865260406000205533600052601e8552604060002086600052855260406000206125e383825461393f565b905561395f565b90558161263b57600080808086335af16126026139b5565b5015610acb577f26cd6ba06f6dc02c61247f710e95c768f4856af03b740594288907c36bb217e9905b6040519384523393a36001600055005b7f26cd6ba06f6dc02c61247f710e95c768f4856af03b740594288907c36bb217e990612668843385614166565b61262b565b3461034c57600036600319011261034c5760405180601c5480835260208093018091601c6000527f0e4562a10381dec21b205ed72637e6b1b523bdd0e4d4d50af5cd23dd4500a2119060005b868282106127185786866126cf828803836135be565b604051928392818401908285525180915260408401929160005b8281106126f857505050500390f35b83516001600160a01b0316855286955093810193928101926001016126e9565b83546001600160a01b0316855290930192600192830192016126b9565b3461034c57602036600319011261034c5760206106a4612753613776565b61396c565b3461034c5760c036600319011261034c57612771613776565b602435604435801515810361034c576064356084359160a4359360045460ff8160a01c1660001461290f573033141590816128fb575b506104e4575b6001600160a01b0395861680151590816128ce575b506128bc57806128a3575b50612866575b837fa00a4448d1c98b3edafbf488446a8320c2cb278ba20dd49c7b5d41a7ebfd582b60a060055492600154600254600354916040519687526020870152604086015260608501527f000000000000000000000000000000000000000000000000000000000000000060808501527f00000000000000000000000000000000000000000000000000000000000000001692a2005b6128927f0000000000000000000000000000000000000000000000000000000000000000848484614c9e565b6001556002556003558180806127d3565b600a811061085257600a810661084057600555856127cd565b60405163b078ee9d60e01b8152600490fd5b9050867f0000000000000000000000000000000000000000000000000000000000000000161415876127c2565b6001600160a01b03163314159050876127a7565b503330146127ad576040516327568d2f60e11b8152600490fd5b3461034c5760208060031936011261034c5760043590612947613f6f565b601554821015610c4a57816000526016815260406000209160ff600454908060a092831c1680613187575b6105f057601a8501948186541680809161317a575b61316857156130e5575b60138101958654938385166130d357600f830154601084015410156130c1576001978860ff19809716179055878301918460018060a01b03938481541660005260188a528160406000205416806130af575b613090575b54831c16600981101561307a5780612a60575050505084600080516020615491833981519152612a5b968695856000805160206154718339815191529660086060970154161515916008541690821617600855604051908152a15b604080519188835282015260006040820152a26140d0565b600055005b92955090939291888103612bff575084600283015416926009830154915460081c16600a83015491600c600b850154940154948015159081612bd2575b506128bc5780612b99575b5060008051602061547183398151915294606094612a5b99948998947fa00a4448d1c98b3edafbf488446a8320c2cb278ba20dd49c7b5d41a7ebfd582b94612b5d575b505050600554928a5460025460035491604051968752878701526040860152868501527f000000000000000000000000000000000000000000000000000000000000000060808501527f00000000000000000000000000000000000000000000000000000000000000001692a2612a43565b612b897f0000000000000000000000000000000000000000000000000000000000000000848484614c9e565b8c556002556003558a8080612aeb565b90939792959194600a821061085257600a8206610840576005919091559196909491939092600080516020615471833981519152612aa8565b9050877f00000000000000000000000000000000000000000000000000000000000000001614158b612a9d565b9050600281979492959714600014612e8a5750505083600283015416938060038401541691612c35600760048601549501613693565b918315610602578415610b9a577f00000000000000000000000000000000000000000000000000000000000000001692868403612d47576040516370a0823160e01b81523060048201528281602481885afa908115610a3f57600091612d1a575b50600754808211156109fb57612cab9161395f565b85116109fb57612a5b96866000805160206154b183398151915260609588612cf7849a876000805160206154718339815191529b6109cc600654808511156000146109f557849061395f565b612d1260405192839283526040898401526040830190613736565b0390a4612a43565b90508281813d8311612d40575b612d3181836135be565b8101031261034c575189612c96565b503d612d27565b959391925083612dc85760008052601b81526040600020479054808211600014612dbf57612d749161395f565b82116109fb576000808080858a5af1612d8b6139b5565b5015610acb57612a5b958594856000805160206154b183398151915260008051602061547183398151915296606096612cf7565b50506000612d74565b83600052601b81526040600020604051906370a0823160e01b82523060048301528282602481895afa918215610a3f57600092612e5b575b505480821115612e5257612e139161395f565b82116109fb578584866000805160206154b18339815191526000805160206154718339815191529686612e4d606098612a5b9d869c614166565b612cf7565b50506000612e13565b9091508281813d8311612e83575b612e7381836135be565b8101031261034c57519089612e00565b503d612e69565b92959260038103612ecc575050506060612a5b94612ec784612ec2876000805160206154718339815191529660028299015416614fe0565b613f92565b612a43565b91939160048103612f4e575050600301548116915081156106025760045490811690818314611dc957612a5b94836000805160206154718339815191529386956060946bffffffffffffffffffffffff60a01b16176004557f0f3a6964a8ba1b7473a14630b029eae6d49bec6babf098223718bacaac7197cc600080a3612a43565b90925060058103612fd45750601c01546004549290811615159083831c16151581146106ac5760ff60a01b199092169082901b60ff60a01b1617600455604051908152612a5b928291600080516020615471833981519152916060917fa8adfe89c6bc95edbe7049ed316f0473a03af92b1fd027ce1ac670082467c623908290a1612a43565b90925090506006810361304e5750600e01546011548115159081613044575b50611cf4576000805160206154718339815191526060847fb63bcc75a862434e97db3146b78681478a2692253df1de5623d497ee61fac799612a5b96858796600c55604051908152a1612ec7614912565b9050811085612ff3565b600703611dc9576000805160206154718339815191526060612a5b94612ec7611410600d879601613693565b634e487b7160e01b600052602160045260246000fd5b60188a52604060002088815416905560178a52600060408120556129e8565b5060178a5288604060002054146129e3565b60405163c8c93ba360e01b8152600490fd5b604051630dc1019760e01b8152600490fd5b6018810154801561311857600e546130fc9161393f565b4210613156576016810154801515908161312a575b5015612991575b60405163aa26a69360e01b8152600490fd5b600f830154612710808202935081159184041417156111625761314f90600d5461394c565b1187613111565b60405163a905056160e01b8152600490fd5b604051633fc30bd160e11b8152600490fd5b5060118201544210612987565b50806001860154831c16600981101561307a5760051415612972565b3461034c57602036600319011261034c576001600160a01b036131c4613776565b1660005260106020526080604060002060ff8154169060018101549060036002820154910154916040519315158452602084015260408301526060820152f35b3461034c57600036600319011261034c576020600554604051908152f35b3461034c57600036600319011261034c576020600254604051908152f35b3461034c57600036600319011261034c576020600154604051908152f35b3461034c57602036600319011261034c576004803560009081526016602052604090206102a081905280546102605260018101546101405260028101546001600160a01b03908116610160526003820154166102c05290810154610280526132c890600501613693565b6102e0526132db60066102a05101613693565b6132ea60076102a05101613693565b9060ff60086102a0510154169160096102a051015492600a6102a0510154600b6102a0510154600c6102a051015491613328600d6102a05101613693565b61024052600e6102a051015461012052600f6102a05101549660106102a05101549660116102a051015460805260126102a051015460a05260ff60136102a05101541660e05260166102a05101546102205260176102a05101546102005260186102a05101546101e05260196102a05101546101c052601a6102a05101546101a052601b6102a051015461018052601c6102a05101546101005260405160c0526102605160c0515260018060a01b036101405116602060c0510152600960ff6101405160a01c16101561307a576134b4966134606134739260ff6101405160a01c16604060c051015261016051606060c05101526102c051608060c05101526102805160a060c05101526103c060c08051015261344e6103c060c051016102e051613736565b9060c051820360e060c0510152613736565b9060c051820361010060c0510152613736565b94151561012060c051015261014060c051015261016060c051015261018060c05101526101a060c051015260c05181036101c060c051015261024051613736565b91610120516101e060c051015261020060c051015261022060c051015260805161024060c051015260a05161026060c051015260e051151561028060c0510152610220516102a060c0510152610200516102c060c05101526101e0516102e060c05101526101c05161030060c051015260ff6101a05116151561032060c051015260ff6101a05160081c16151561034060c05101526101805161036060c051015260ff6101005116151561038060c051015260ff6101005160081c1615156103a060c051015260c051900360c051f35b90600182811c921680156135b4575b602083101461359e57565b634e487b7160e01b600052602260045260246000fd5b91607f1691613593565b90601f801991011681019081106001600160401b0382111761162e57604052565b60405190600082600f54916135f383613584565b8083529260209060019081811690811561366f5750600114613620575b505061361e925003836135be565b565b915092600f6000526000805160206154d1833981519152936000925b828410613657575061361e9450505081016020013880613610565b8554888501830152948501948794509281019261363c565b9150506020925061361e94915060ff191682840152151560051b8201013880613610565b906040519182600082546136a681613584565b9081845260209460019160018116908160001461371457506001146136d5575b50505061361e925003836135be565b600090815285812095935091905b8183106136fc57505061361e93508201013880806136c6565b855488840185015294850194879450918301916136e3565b9250505061361e94925060ff191682840152151560051b8201013880806136c6565b919082519283825260005b848110613762575050826000602080949584010152601f8019910116010190565b602081830181015184830182015201613741565b600435906001600160a01b038216820361034c57565b602435906001600160a01b038216820361034c57565b60043590811515820361034c57565b3461034c57600036600319011261034c57602060405162093a808152f35b9181601f8401121561034c578235916001600160401b03831161034c576020838186019501011161034c57565b608060031982011261034c576004356001600160a01b038116810361034c5791602435916001600160401b039160443583811161034c5782613840916004016137cf565b9390939260643591821161034c5761385a916004016137cf565b9091565b90815180825260208080930193019160005b82811061387e575050505090565b835185529381019392810192600101613870565b6001600160401b03811161162e57601f01601f191660200190565b9291926138b982613892565b916138c760405193846135be565b82948184528183011161034c578281602093846000960137010152565b9080601f8301121561034c578160206138ff933591016138ad565b90565b608060031982011261034c57600435801515810361034c5791602435916001600160401b039160443583811161034c5782613840916004016137cf565b9190820180921161116257565b8181029291811591840414171561116257565b9190820391821161116257565b6001600160a01b03166000908152601060205260409020805460ff16156139af5760036013549101548082116000146139a8576138ff9161395f565b5050600090565b50600090565b3d156139e0573d906139c682613892565b916139d460405193846135be565b82523d6000602084013e565b606090565b60018060a01b0380911690600092828452601060205260ff60408520541615613aa7578116907f0000000000000000000000000000000000000000000000000000000000000000168114613a9a57808352601b602052604083209060ff60038301541615613aa7578284526010602052613a6760408520600184015493614694565b928452601d60205260408420908452602052604083205491808310613a9f575b5081811115613a9a576138ff925061395f565b505090565b915038613a87565b50505090565b6001600160401b03811161162e5760051b60200190565b90613ace82613aad565b613adb60405191826135be565b8281528092613aec601f1991613aad565b0190602036910137565b601954811015613b2d5760196000527f944998273e477b495144fb8794c914197f3ccb46be2900f4698fd0ef743c96950190600090565b634e487b7160e01b600052603260045260246000fd5b600a54811015613b2d57600a6000527fc65a7bb8d6351c1cf70c95a316cc6a92839c986682d98bc35f958f4883f9d2a80190600090565b601c54811015613b2d57601c6000527f0e4562a10381dec21b205ed72637e6b1b523bdd0e4d4d50af5cd23dd4500a2110190600090565b60001981146111625760010190565b8051821015613b2d5760209160051b010190565b60115480156139af5760001981019081116111625790565b90601f8111613bfa57505050565b6000916000526020600020906020601f850160051c83019410613c38575b601f0160051c01915b828110613c2d57505050565b818155600101613c21565b9092508290613c18565b919080158015613dcf575b613dbd576019549160009360005b848110613d76575084811015613d4657613c7483613ac4565b916000958694875b8888821080613d3d575b15613cf0575080613c99613ce592613af6565b90549060031b1c806000526016602052613cb742604060002061477f565b15613cea5786613cc68a613bb1565b9910613cea57613cdf613cd88c613bb1565b9b89613bc0565b52613bb1565b613c7c565b50613bb1565b9397505050929350613d019161393f565b1092613d0c81613ac4565b9160005b828110613d1e575050509190565b80613d2b60019284613bc0565b51613d368287613bc0565b5201613d10565b50828110613c86565b5092505050604051602081018181106001600160401b0382111761162e5760405260008152600036813790600090565b613d7f81613af6565b90549060031b1c6000526016602052613d9c42604060002061477f565b613da9575b600101613c5b565b94613db5600191613bb1565b959050613da1565b6040516381f396b760e01b8152600490fd5b5060648111613c4d565b8115613de3570490565b634e487b7160e01b600052601260045260246000fd5b8115613de3570690565b6001600160a01b031660009081526010602052604090205460ff1615613e2857600190565b600090565b906000906000908315613f6857601993601954908115613f5f5793905b80151580613f56575b15613f4e576000198101908111613f3a57613e6d90613af6565b9054600391821b1c9081855260166020526040852090613e8d428361477f565b613f305760ff9081600184015460a01c166009811015613f1c5791613ed39391613ed8969593149081613f0b575b81613efc575b5080613eee575b613edf575b506140d0565b613bb1565b8454613e4a565b613ee89061496e565b38613ecd565b506011810154421015613ec8565b90506013820154161538613ec1565b601c83015460081c81169150613ebb565b634e487b7160e01b88526021600452602488fd5b5050509350915050565b634e487b7160e01b84526011600452602484fd5b509350915050565b50848210613e53565b50509250905090565b9250905090565b600260005414613f80576002600055565b604051633ee5aeb560e01b8152600490fd5b601c8101805460ff8160081c16613fa9575b505050565b61ff0019169055600954806140bb575b5054600090808252600b602052604082205480613fd557505050565b600019908082018181116140a757600a5483810190811161409357808203614047575b505050600a548015614033570161402261401182613b43565b8154906000199060031b1b19169055565b600a558152600b6020526040812055565b634e487b7160e01b84526031600452602484fd5b6140669161405761407f92613b43565b90549060031b1c928391613b43565b90919082549060031b91821b91600019901b1916179055565b8452600b6020526040842055388080613ff8565b634e487b7160e01b86526011600452602486fd5b634e487b7160e01b85526011600452602485fd5b60001981019081116111625760095538613fb9565b600090808252601a60205260408220548015613fa457600019908082018181116140a75760195483810190811161409357808203614133575b5050506019548015614033570161412261401182613af6565b6019558152601a6020526040812055565b6140669161414361415292613af6565b90549060031b1c928391613af6565b8452601a6020526040842055388080614109565b60405163a9059cbb60e01b60208201526001600160a01b03909216602483015260448083019390935291815260808101916001600160401b0383118284101761162e5761361e926040526151f0565b9192909260009333855260206010815260409460ff8688205416156145d2573387526018825260ff868820541661456c575b80614566575062093a80905b62093a8082106145555762278d008211614544576015549261421484613bb1565b6015558397848152601683528781209785895561424d600195868b01336bffffffffffffffffffffffff60a01b8254161790554261393f565b60118a019081554260128b015560058a018451906001600160401b0391828111614530576142858161427f8454613584565b84613bec565b87601f82116001146144d35790806142b29288916144c8575b508160011b916000199060031b1c19161790565b90555b885160068c019181116144b4576142d08161427f8454613584565b86601f82116001146144555790806142fc92879161444a57508160011b916000199060031b1c19161790565b90555b43601b8b015560138a019060ff199182815416905533845260148b018652828420878382541617905560158b018652828420878382541617905586600f8c01558360108c01556011548060168d015560188c01858155601a8d0184815416905581151580614433575b614410575b505060195496600160401b88101561162e578361440b956143fc94836143bf8d6140668e7f0a3d356d942a35213f2f2e42f5c07221391ae9a4f16edaa23278b9f8068be7729f98839901601955613af6565b601954858452601a8c528484205533835260188b528383209182541617905560178952205554936060835196879687528601526060850190613736565b90838203908401523396613736565b0390a3565b4290554360198d015560178c015561442a600e544261393f565b8155388061436d565b5061444082600d5461394c565b6127101015614368565b90508b01513861429e565b828652878620899291601f198316888b8f5b83831061449d575050508311614484575b5050811b0190556142ff565b8c015160001960f88460031b161c191690553880614478565b84015185558d969094019392830192018b8f614467565b634e487b7160e01b85526041600452602485fd5b90508801513861429e565b8287528887208a9291601f198316895b8c8c83831061451b575050508311614502575b5050811b0190556142b5565b89015160001960f88460031b161c1916905538806144f6565b84015185558e969094019392830192016144e3565b634e487b7160e01b86526041600452602486fd5b855163eeeb962360e01b8152600490fd5b85516331806aeb60e21b8152600490fd5b906141f3565b601782528587205487526016825285872060ff6013820154161590816145c4575b50156145a457855163792c310960e11b8152600490fd5b3387526018825285872060ff1981541690556017825286868120556141e7565b60119150015442103861458d565b855163148fe22160e11b8152600490fd5b601c8101805460ff8160081c16156145fa57505050565b61ff0019166101001790556009546001810190811061116257600955546000818152600b60205260408120541561462f575050565b600a54600160401b81101561466457906146558361406684600160409601600a55613b43565b600a54928152600b6020522055565b634e487b7160e01b82526041600452602482fd5b8054821015613b2d5760005260206000209060011b0190600090565b90600480830191825493841561477357506002810154600180920154906000955b8087106146e557505050505081156139a8576000198201918211611162576001916146df91614678565b50015490565b6146ef818861393f565b841c906146fc8288614678565b50546001600160401b03908181168086101561471b57505050506146b5565b92999285111561474d5750505083810180911161473857956146b5565b601185634e487b7160e01b6000525260246000fd5b91989160401c1684101561476157506146b5565b965083810180911161473857956146b5565b60010154949350505050565b906011820154119081614790575090565b60ff915060130154161590565b601154801561483c57601c54906000805b8381106147bb5750505050565b806147c7600192613b7a565b838060a01b0391549060031b1c168352601b6020528360408420600281018054908115614833576147f88483613dd9565b918215614829576148239461480c91613df9565b905561481c85830191825461393f565b905561538f565b016147ae565b5050505050614823565b50505050614823565b50565b90600019818309818302918280831092039180830392146148af57612710908282111561489c577fbc01a36e2eb1c432ca57a786c226809d495182a9930be0ded288ce703afb7e91940990828211900360fc1b910360041c170290565b634e487b7160005260116020526024601cfd5b505061271091500490565b6040516323b872dd60e01b60208201526001600160a01b03928316602482015292909116604483015260648083019390935291815260a08101918183106001600160401b0384111761162e5761361e926040526151f0565b600c548015159081614961575b5080614954575b61492c57565b600160ff196008541617600855600080516020615491833981519152602060405160018152a1565b5060ff6008541615614926565b905060115410153861491f565b601681015480159081156149c2575b5060ff601383015416159081156149b9575b5080156149a7575b61499e5750565b61361e90613f92565b50600f81015460108201541015614997565b9050153861498f565b600f83015461271080820293508115918404141715611162576149e790600d5461394c565b11153861497d565b604051600091600f8054614a0281613584565b80855260209485810191816001988986168981600014614c385750600114614bed575b614a31925003826135be565b51902083518585012014614be657614a476135df565b948351916001600160401b03831161162e57614a6290613584565b601f8111614b92575b508490601f8311600114614afa575092614aea92614ac683614add97947f71e57b89fe30fe66cb93427236f86ec18c6ec404e26b5c0914ee88193dd07da59997600091614aef57508160011b916000199060031b1c19161790565b90555b604051948594604086526040860190613736565b9184830390850152613736565b0390a1565b90508401513861429e565b9190601f19821690846000526000805160206154d18339815191529160005b818110614b7d575092614aea9592614add989592827f71e57b89fe30fe66cb93427236f86ec18c6ec404e26b5c0914ee88193dd07da59b999610614b64575b5050811b019055614ac9565b85015160001960f88460031b161c191690553880614b58565b87830151845592850192918801918801614b19565b836000526000805160206154d1833981519152601f840160051c810191878510614bdc575b601f0160051c019082905b828110614bd0575050614a6b565b60008155018290614bc2565b9091508190614bb7565b5050505050565b50508460005281876000805160206154d18339815191528a6000915b858310614c1f575050614a319350820101614a25565b80919294505483858801015201910188908a8593614c09565b915050614a319260ff1987168652151560051b820101614a25565b91908015614c96576002830154818111614c8d57149182614c7f575b5050614c7a57600090565b600190565b600101541190503880614c6f565b50505050600190565b505050600090565b614cb892614cb36127109593614cb39361393f565b61393f565b03614cbf57565b60405163542c8df360e11b8152600490fd5b6011548015614fce576001600160a01b0391821691907f00000000000000000000000000000000000000000000000000000000000000008216838114614ec85750600083614e52575047915b83600052601b602052604060002092835480821115614e4057614d3f9161395f565b9084600052601b6020526003604060002001805460ff811615614de1575b505050908161440b84614d82600080516020615451833981519152956000975461393f565b8155614dc46002820191614dab614d9a84548761393f565b96614da58189613dd9565b97613df9565b809360018301614dbc89825461393f565b90555561538f565b604051938493846040919493926060820195825260208201520152565b60ff19166001179055601c5490929190600160401b81101561162e5760009460008051602061545183398151915294614e2383600161440b9501601c55613b7a565b819291549060031b918a831b921b19161790559482939450614d5d565b604051631ab9ebab60e01b8152600490fd5b6040516370a0823160e01b8152306004820152602081602481885afa918215614ebc578092614e84575b505091614d1d565b9091506020823d602011614eb4575b81614ea0602093836135be565b81010312614eb15750513880614e7c565b80fd5b3d9150614e93565b604051903d90823e3d90fd5b6040516370a0823160e01b8152306004820152919250602090829060249082905afa908115610a3f57600091614f9c575b506007549182821115614e405782614f46614f256000956000805160206154518339815191529561395f565b8092614f3e6006548084111589146109f557839061395f565b60065561393f565b60075561440b614f6c614f5b6014548461393f565b93614f668186613dd9565b94613df9565b614f788460135461393f565b60135580601455604051938493846040919493926060820195825260208201520152565b90506020813d602011614fc6575b81614fb7602093836135be565b8101031261034c575138614ef9565b3d9150614faa565b604051630292d7c360e51b8152600490fd5b906011548015614fce576001600160a01b0392831692907f0000000000000000000000000000000000000000000000000000000000000000821684811461514a57506000846150e45750475b84600052601b602052604060002090815480821115614e405761504e9161395f565b9085600052601b6020526003604060002001805460ff81161561508e575b5050600080516020615451833981519152935080614d828361440b935461393f565b60ff19166001179055601c5490600160401b82101561162e57600080516020615451833981519152946150ca83600161440b9501601c55613b7a565b819291549060031b918a831b921b1916179055903861506c565b6040516370a0823160e01b8152306004820152602081602481895afa918215614ebc578092615115575b505061502c565b9091506020823d602011615142575b81615131602093836135be565b81010312614eb1575051388061510e565b3d9150615124565b6040516370a0823160e01b81523060048201529250602090839060249082905afa918215610a3f576000926151bc575b5060075480831115614e4057614f466151a2826000805160206154518339815191529561395f565b8092614f3e600654808411156000146109f557839061395f565b9091506020813d6020116151e8575b816151d8602093836135be565b8101031261034c5751903861517a565b3d91506151cb565b906000602091828151910182855af115610a3f576000513d61524357506001600160a01b0381163b155b6152215750565b604051635274afe760e01b81526001600160a01b039091166004820152602490fd5b6001141561521a565b6009541561361e57600a54801561483c57805b6152665750565b60001981018181116152c65761527d604091613b43565b905460009160031b1c815260166020522060ff80601c83015460081c16156152f957601182015442101590816152ea575b506152db575b505b80156152c657600019018061525f565b60246000634e487b7160e01b81526011600452fd5b6152e49061496e565b386152b4565b905060138201541615386152ae565b5061530390613f92565b6152b6565b8054600160401b81101561162e5761532591600182018155614678565b919091615379578051825460208301516fffffffffffffffffffffffffffffffff199091166001600160401b039290921691909117604091821b67ffffffffffffffff60401b161783556001910151910155565b634e487b7160e01b600052600060045260246000fd5b6001600160401b0360018201549060405192606084018481108382111761162e57604052814316845260046020850191834216835260408601948552019384548015615442576000198101908111611162576153eb9086614678565b50948386541684835116146000146154335750505183546fffffffffffffffff00000000000000001916911660401b67ffffffffffffffff60401b1617825560019051910155565b925092505061361e9250615308565b509250505061361e9161530856fef502c7eda43df8a8ec352065360db3486f90ce32849cf8182983d7939bfd3626af8f9d0e884d3306a083e846741a0bc4d75908e2b0ec63b558219652ae4c1b90752d7e161ff5146f80e3820893176eb40532811e5e20400dfdde57455213706ad81f085560db5c809c425a15f00e3f2904e4fa46d6e8672ff2e671ccd6d9a2318d1108e10bcb7c27dddfc02ed9d693a074039d026cf4ea4240b40f7d581ac802a2646970667358221220997dfff17dc22664c3036dbfd8f80c59816949a0676c2c55d6e5f6d12b064d2964736f6c634300081700338d1108e10bcb7c27dddfc02ed9d693a074039d026cf4ea4240b40f7d581ac802",
  "linkReferences": {},
  "deployedLinkReferences": {}
}