{
  "_format": "hh-sol-artifact-1",
  "contractName": "TemplFactory",
  "sourceName": "contracts/TemplFactory.sol",
  "abi": [
    {
      "inputs": [
        {
          "internalType": "address",
          "name": "_protocolFeeRecipient",
          "type": "address"
        },
        {
          "internalType": "uint256",
          "name": "_protocolBP",
          "type": "uint256"
        }
      ],
      "stateMutability": "nonpayable",
      "type": "constructor"
    },
    {
      "inputs": [],
      "name": "InvalidFeeSplit",
      "type": "error"
    },
    {
      "inputs": [],
      "name": "InvalidRecipient",
      "type": "error"
    },
    {
      "anonymous": false,
      "inputs": [
        {
          "indexed": true,
          "internalType": "address",
          "name": "templ",
          "type": "address"
        },
        {
          "indexed": true,
          "internalType": "address",
          "name": "creator",
          "type": "address"
        },
        {
          "indexed": true,
          "internalType": "address",
          "name": "priest",
          "type": "address"
        },
        {
          "indexed": false,
          "internalType": "address",
          "name": "token",
          "type": "address"
        },
        {
          "indexed": false,
          "internalType": "uint256",
          "name": "entryFee",
          "type": "uint256"
        },
        {
          "indexed": false,
          "internalType": "uint256",
          "name": "burnBP",
          "type": "uint256"
        },
        {
          "indexed": false,
          "internalType": "uint256",
          "name": "treasuryBP",
          "type": "uint256"
        },
        {
          "indexed": false,
          "internalType": "uint256",
          "name": "memberPoolBP",
          "type": "uint256"
        }
      ],
      "name": "TemplCreated",
      "type": "event"
    },
    {
      "inputs": [
        {
          "internalType": "address",
          "name": "_priest",
          "type": "address"
        },
        {
          "internalType": "address",
          "name": "_token",
          "type": "address"
        },
        {
          "internalType": "uint256",
          "name": "_entryFee",
          "type": "uint256"
        },
        {
          "internalType": "uint256",
          "name": "_burnBP",
          "type": "uint256"
        },
        {
          "internalType": "uint256",
          "name": "_treasuryBP",
          "type": "uint256"
        },
        {
          "internalType": "uint256",
          "name": "_memberPoolBP",
          "type": "uint256"
        }
      ],
      "name": "createTempl",
      "outputs": [
        {
          "internalType": "address",
          "name": "templAddress",
          "type": "address"
        }
      ],
      "stateMutability": "nonpayable",
      "type": "function"
    },
    {
      "inputs": [],
      "name": "protocolBP",
      "outputs": [
        {
          "internalType": "uint256",
          "name": "",
          "type": "uint256"
        }
      ],
      "stateMutability": "view",
      "type": "function"
    },
    {
      "inputs": [],
      "name": "protocolFeeRecipient",
      "outputs": [
        {
          "internalType": "address",
          "name": "",
          "type": "address"
        }
      ],
      "stateMutability": "view",
      "type": "function"
    }
  ],
  "bytecode": "0x60c0346100c157601f613f5e38819003918201601f19168301916001600160401b038311848410176100c65780849260409485528339810103126100c15780516001600160a01b038116918282036100c1576020015191156100af576064821161009d5760805260a052604051613e8190816100dd82396080518181816094015261019f015260a051818181605901528181610144015261027d0152f35b604051630601f69760e01b8152600490fd5b604051634e46966960e11b8152600490fd5b600080fd5b634e487b7160e01b600052604160045260246000fdfe60806040818152600436101561001457600080fd5b600091823560e01c9081631fa0f3f4146100c35750806364df049e1461008057639671c35e1461004357600080fd5b3461007c578160031936011261007c57602090517f00000000000000000000000000000000000000000000000000000000000000008152f35b5080fd5b503461007c578160031936011261007c57517f00000000000000000000000000000000000000000000000000000000000000006001600160a01b03168152602090f35b919050346102bc5760c03660031901126102bc576001600160a01b039160043583811691908290036102b857602435908482168092036102b4576044359460a4359160843591606480359281841180156102ab575b80156102a2575b8015610279575b61026a575061013e8561013986866102c0565b6102c0565b9061016a7f000000000000000000000000000000000000000000000000000000000000000080936102c0565b0361025957875190613b68908183019183831067ffffffffffffffff84111761024557918391610100936102e484398a8252857f0000000000000000000000000000000000000000000000000000000000000000166020830152898c8301528c60608301528660808301528760a08301528860c083015260e08201520301908af0801561023b576020995016968651948552888501528584015260608301526080820152837f0409f5f64a2781aa59b4ab283f8bbdfd985a547ff22f53d7b2b0c1f17d41b02f60a03393a451908152f35b87513d8b823e3d90fd5b634e487b7160e01b8d52604160045260248dfd5b8751630601f69760e01b8152600490fd5b630601f69760e01b8152600490fd5b50817f000000000000000000000000000000000000000000000000000000000000000011610126565b5081861161011f565b50818511610118565b8580fd5b8480fd5b8280fd5b919082018092116102cd57565b634e487b7160e01b600052601160045260246000fdfe60e034620002b557601f62003b6838819003918201601f191683019291906001600160401b03841183851017620002ba57816101009284926040968752833981010312620002b5576200005281620002d0565b6200006060208301620002d0565b906200006e848401620002d0565b92606081015193608082015160a08301519160e060c0850151940151906001600055602160095562093a80600a5560018060a01b0396878116158015620002aa575b620002995760a05260c052806080526064821180156200028e575b801562000283575b801562000278575b6200026757620000fe606491620000f886620000f88787620002e5565b620002e5565b036200025657600155600255600355168015620002455781156200023457600a82106200022357600a82066200021257600480546001600160a01b0319169190911790556005556008805460ff191690555161385e90816200030a823960805181818161113a0152818161165b01528181611ed70152818161336301526133b2015260a051818181610ef80152818161138601526118da015260c0518181816103a20152818161048f0152818161056301528181610d8a01528181610e83015281816111b00152818161132201528181611353015281816113a80152818161149d01528181611cea0152818161220201528181612ab001528181612e7b0152818161314401528181613389015261341a0152f35b8251636fe6a4c960e01b8152600490fd5b8251635eee050360e11b8152600490fd5b82516365e52d5160e11b8152600490fd5b8251634e46966960e11b8152600490fd5b8651630601f69760e01b8152600490fd5b8751630601f69760e01b8152600490fd5b5060648111620000db565b5060648411620000d3565b5060648311620000cb565b8951634e46966960e11b8152600490fd5b5087821615620000b0565b600080fd5b634e487b7160e01b600052604160045260246000fd5b51906001600160a01b0382168203620002b557565b91908201809211620002f357565b634e487b7160e01b600052601160045260246000fdfe610140604052600436101561001c575b361561001a57600080fd5b005b60003560e01c8063013cf08b146125ce578063072ea61c146125b057806308ae4b0c1461254f5780630d61b519146120715780630f852b9a1461202b5780631808022a146120085780631df260a014611f405780631f4b1acb14611e27578063215809ca1461101e578063240d3a0614611ca2578063313dab2014611c8457806332f974b314611c035780634093209114611be55780634385963214611b765780635186889514611b5857806353eee21214611b2c57806355699a7d14611b0e5780635584c4f914611a435780635962a94114611a2557806359c266ff14611a075780635c975abb146119e45780635fa7ddf0146119c6578063640c4fa21461195f57806364653f291461190957806364df049e146118c4578063653724d61461189b5780636898b19c1461187d5780636a4994271461181e5780636ad18550146117e45780637070ac48146117c657806371e86b6a14611728578063840634c5146116ff5780638f78bbc4146116bd57806395a078e81461167e5780639671c35e14611643578063997072f71461162557806399e288d8146110bc578063a51a46b91461109e578063a64e024a14611080578063a730117e1461105d578063a81bbe3c14611023578063aedfe53f1461101e578063b307fc6d14610fc3578063bdb75b3414610fa5578063bebc8fc014610f7c578063c1b57edb14610f5e578063c293947114610e4f578063c3f909d414610d64578063c470dd9014610b85578063c7f758a814610aa5578063c9d27afe146107f6578063d402d4be146104fa578063d89135cd146104dc578063da35c664146104be578063e243c5fb14610479578063f2be51ea1461043e578063f7158b2a1461030c578063f81cbd26146102ee5763ffafe4ad0361000f57346102e95760203660031901126102e9576001600160a01b036102cb6128e2565b166000526013602052602060ff604060002054166040519015158152f35b600080fd5b346102e95760003660031901126102e9576020600954604051908152f35b346102e95760003660031901126102e95733600052600b60205260ff604060002054161561042c5761033c612dea565b610345336129ec565b801561041a578061035b600754600f54906129df565b1061040857600e5433600052600b602052600360406000200155600d602052604060002061038a8282546129d2565b9055610398816007546129df565b6007556103cf81337f00000000000000000000000000000000000000000000000000000000000000006001600160a01b03166136da565b6040519081524260208201527fc4e740509dbfae3377bc9925dd7bcc8aaba69cd730316216d76b2d24725c636660403392a26001600055005b60405163bc6072f160e01b8152600490fd5b6040516373380d9960e01b8152600490fd5b60405163148fe22160e11b8152600490fd5b346102e95760203660031901126102e9576104576128e2565b3033036104675761001a90612e63565b6040516327568d2f60e11b8152600490fd5b346102e95760003660031901126102e9576040517f00000000000000000000000000000000000000000000000000000000000000006001600160a01b03168152602090f35b346102e95760003660031901126102e9576020601054604051908152f35b346102e95760003660031901126102e9576020601554604051908152f35b346102e95760803660031901126102e9576105136128e2565b61051b6128f8565b6044359060643567ffffffffffffffff81116102e95761053f90369060040161298b565b92303303610467576001600160a01b03828116949085156107e45784156107d257807f000000000000000000000000000000000000000000000000000000000000000016921693828514600014610683576040516370a0823160e01b8152306004820152602081602481875afa90811561067757600091610645575b5060075480821115610633576105d0916129df565b81116106335761060c8160009560008051602061380983398151915295610604600654808511158a1461062d5784906129df565b6006556136da565b61062860405192839283526040602084015260408301906128a2565b0390a4005b806129df565b604051631c7b597b60e11b8152600490fd5b90506020813d60201161066f575b81610660602093836127db565b810103126102e95751876105bb565b3d9150610653565b6040513d6000823e3d90fd5b915091831560001461071e57506000805260196020527fd2ac945fcc0096878c763e37d6929b78378c1a2defabde8ba7ee5ed1d6e7a5b254479080821115610715576106ce916129df565b811161063357600080808084885af16106e5612a58565b5015610703576000916000805160206138098339815191529161060c565b6040516331d436c760e01b8152600490fd5b505060006106ce565b90918360005260196020526040600020604051906370a0823160e01b8252306004830152602082602481895afa9182156106775760009261079e575b5054808211156107955761076d916129df565b8311610633578261079060009460008051602061380983398151915294876136da565b61060c565b5050600061076d565b9091506020813d6020116107ca575b816107ba602093836127db565b810103126102e95751908761075a565b3d91506107ad565b6040516365e52d5160e11b8152600490fd5b604051634e46966960e11b8152600490fd5b346102e95760403660031901126102e9576024803580151591600435918381036102e95733600052600b9160209280845260ff604060002054161561042c57601054851015610a935784600052601190818552604060002092600d8401948554421015610a8157601485019060ff8254161580610a74575b610a47575b601086013360005280895260ff60406000205416868801808b5260ff60406000205416928b526040600020600160ff198254161790558a526108c58360406000209060ff801983541691151516179055565b6109cf5750156109b457828501805490600182018092116109a0575560ff905b54161580610994575b610929575b87878760405192835242908301527fcbdf6214089cba887ecbf35a0b6a734589959c9763342c756bb2a80ca2bc9f6e60403393a3005b600c54918260128601558401549260648402938085046064149015171561098257505061095890600954612d3f565b1115610967575b8080806108f3565b601342910155610979600a54426129d2565b9055838061095f565b634e487b7160e01b6000526004526000fd5b506013840154156108ee565b8386634e487b7160e01b6000526004526000fd5b600c8501805490600182018092116109a0575560ff906108e5565b905089811515036109e4575b5060ff906108e5565b15610a195784830180546000198101919082116109a05755600c8501805490600182018092116109a0575560ff905b906109db565b600c850180546000198101919082116109a05755828501805490600182018092116109a0575560ff90610a13565b33600052838852600160406000200154601387015410156108735760405163f078ca7360e01b8152600490fd5b506013860154151561086e565b604051637a19ed0560e01b8152600490fd5b604051631dc0650160e31b8152600490fd5b346102e95760203660031901126102e957600435601054811015610a9357600052601160205260c0604060002060ff601482015416600014610b4c57600d81015442101580610b3b575b60018060a01b0360018301541691600b81015490600c81015460ff600f600d840154930154169260405195865260208601526040850152606084015215156080830152151560a0820152f35b50600b810154600c82015410610aef565b60138101548015610b7d57600a54610b63916129d2565b4210158015610aef5750600b810154600c82015410610aef565b506000610aef565b346102e95760a03660031901126102e957610b9e6128e2565b610ba66128f8565b67ffffffffffffffff916064358381116102e957610bc890369060040161298b565b9033600052602093600b855260ff604060002054161561042c576005610bef6084356134d8565b9095600194858301600160a11b60ff60a01b198254161790556002830160018060a01b0390816bffffffffffffffffffffffff60a01b93168382541617905560038401921690825416179055604435600482015501928051918211610d4e57610c588454612785565b601f8111610d05575b508590601f8311600114610ca257928293918392600094610c97575b50501b916000199060031b1c19161790555b604051908152f35b015192508780610c7d565b90601f198316918560005283886000209360005b8a88838310610cee5750505010610cd5575b505050811b019055610c8f565b015160001960f88460031b161c19169055858080610cc8565b868601518855909601959485019487935001610cb6565b8460005286600020601f840160051c810191888510610d44575b601f0160051c019084905b828110610d38575050610c61565b60008155018490610d2a565b9091508190610d1f565b634e487b7160e01b600052604160045260246000fd5b346102e95760003660031901126102e9576040516370a0823160e01b81523060048201527f00000000000000000000000000000000000000000000000000000000000000006001600160a01b0316602082602481845afa801561067757600090610e1c575b60075460c09350908180821115610e1357610de3916129df565b60055460ff60085416601454916040519586526020860152151560408501526060840152608083015260a0820152f35b50506000610de3565b506020823d602011610e47575b81610e36602093836127db565b810103126102e95760c09151610dc9565b3d9150610e29565b346102e95760003660031901126102e9576040516370a0823160e01b81523060048201526001600160a01b036020826024817f000000000000000000000000000000000000000000000000000000000000000085165afa90811561067757600091610f29575b60075460c09350918280821115610f1f57610ecf916129df565b915b601654601554906018549260405195865260208601526040850152606084015260808301527f00000000000000000000000000000000000000000000000000000000000000001660a0820152f35b5050600091610ed1565b90506020823d602011610f56575b81610f44602093836127db565b810103126102e95760c0915190610eb5565b3d9150610f37565b346102e95760003660031901126102e9576020601654604051908152f35b346102e95760003660031901126102e9576004546040516001600160a01b039091168152602090f35b346102e95760003660031901126102e9576020601754604051908152f35b346102e95760203660031901126102e957600435600c548110156102e957600c6000527fdf6966c971051c3d54ec59162606531493a51404a002842f56009d7e5cf4a8c701546040516001600160a01b039091168152602090f35b61291d565b346102e95760203660031901126102e9576001600160a01b036110446128e2565b16600052600d6020526020604060002054604051908152f35b346102e95760203660031901126102e9576020610c8f61107b6128e2565b612dc0565b346102e95760003660031901126102e957602060405162278d008152f35b346102e95760003660031901126102e9576020600f54604051908152f35b346102e95760003660031901126102e95760ff6008541661161357303314611601576110e6612dea565b33600052600b602052604060002080549060ff82166115ef5760055491606461111160015485612d3f565b0491606461112160025486612d3f565b0493606461113160035483612d3f565b0491606461115f7f000000000000000000000000000000000000000000000000000000000000000084612d3f565b049361117885611173866111738b8b6129d2565b6129d2565b8381116115dd578381106115b7575b5061119284886129d2565b6040516370a0823160e01b81523360048201529093906020816024817f00000000000000000000000000000000000000000000000000000000000000006001600160a01b03165afa90811561067757600091611585575b50106115735760019060ff1916178155426001820155436002820155600c54600160401b811015610d4e576001810180600c5581101561151157600c6000527fdf6966c971051c3d54ec59162606531493a51404a002842f56009d7e5cf4a8c70180546001600160a01b0319163317905560145461126690612b74565b601455600c5460018111611527575b50601a5460005b81811061145857505090611380916003600e5491015561129e866006546129d2565b6006556112ad836007546129d2565b6007556112bc856015546129d2565b6015556112cb866016546129d2565b6016556112da836017546129d2565b6017556112e9846018546129d2565b60185561134f6040516323b872dd60e01b602082015233602482015261dead604482015286606482015260648152611320816127bf565b7f00000000000000000000000000000000000000000000000000000000000000006001600160a01b031661376c565b30337f00000000000000000000000000000000000000000000000000000000000000006001600160a01b031661372a565b6113d5827f0000000000000000000000000000000000000000000000000000000000000000337f00000000000000000000000000000000000000000000000000000000000000006001600160a01b031661372a565b600554936014549360001985019485116114425760405195865260208601526040850152606084015260808301524260a08301524360c083015260e08201527fe6d1c0e418a42a777d49c66571075fc47bc1d92e7f506007ddde08d1ff182bbc6101003392a26001600055005b634e487b7160e01b600052601160045260246000fd5b601a5481101561151157601a6000527f057c384a7d1c54f3a1b2e5e67b2617b8224fdfd1ea7234eea573a6ff665ff63e810154600191906001600160a01b03908116907f000000000000000000000000000000000000000000000000000000000000000016811461150b57806000526019602052604060002060ff60038201541615611504578301549033600052601b6020526040600020906000526020526040600020555b0161127c565b50506114fe565b506114fe565b634e487b7160e01b600052603260045260246000fd5b611533600f54856129d2565b90806000198101116114425761155f61156a92611554600019840182612d52565b926000190190612a38565b600f55600e546129d2565b600e5586611275565b604051631e9acf1760e31b8152600490fd5b90506020813d6020116115af575b816115a0602093836127db565b810103126102e95751896111e9565b3d9150611593565b966115d6906115d06115c98a876129df565b80926129d2565b986129d2565b5087611187565b604051630601f69760e01b8152600490fd5b604051630cd9ed5560e21b8152600490fd5b604051636edaef2f60e11b8152600490fd5b604051630eceade960e31b8152600490fd5b346102e95760003660031901126102e9576020600c54604051908152f35b346102e95760003660031901126102e95760206040517f00000000000000000000000000000000000000000000000000000000000000008152f35b346102e95760203660031901126102e9576001600160a01b0361169f6128e2565b16600052600b602052602060ff604060002054166040519015158152f35b346102e95760403660031901126102e9576116f36116df602435600435612b97565b60405192839260408452604084019061293b565b90151560208301520390f35b346102e95760203660031901126102e9576117186128e2565b3033036104675761001a90612e0d565b346102e95760403660031901126102e9576117416128e2565b33600052600b60205260ff604060002054161561042c576020906117666024356134d8565b60018101805460ff60a01b1916600360a01b1790556002810180546001600160a01b0319166001600160a01b0394851617905560045491929091339116146117b2575b50604051908152f35b601401805460ff19166001179055826117a9565b346102e95760003660031901126102e9576020600a54604051908152f35b346102e95760203660031901126102e9576001600160a01b036118056128e2565b1660005260126020526020604060002054604051908152f35b346102e95760203660031901126102e9576001600160a01b0361183f6128e2565b1660005260196020526040600020805461187960026001840154930154604051938493846040919493926060820195825260208201520152565b0390f35b346102e95760003660031901126102e9576020600e54604051908152f35b346102e95760203660031901126102e9576118b461290e565b3033036104675761001a90613442565b346102e95760003660031901126102e9576040517f00000000000000000000000000000000000000000000000000000000000000006001600160a01b03168152602090f35b346102e95760203660031901126102e9576001600160a01b0361192a6128e2565b16600052600b6020526060604060002060ff815416906002600182015491015490604051921515835260208301526040820152f35b346102e95760403660031901126102e95761197861290e565b33600052600b60205260ff604060002054161561042c576006610c8f6020926119a26024356134d8565b6001819592950160ff60a01b198154169055019060ff801983541691151516179055565b346102e95760003660031901126102e9576020600754604051908152f35b346102e95760003660031901126102e957602060ff600854166040519015158152f35b346102e95760003660031901126102e9576020601854604051908152f35b346102e95760003660031901126102e9576020601454604051908152f35b346102e95760003660031901126102e957601054611a6081612b42565b9060009060005b818110611ab9575050611a7981612b42565b9160005b828110611a9a57604051602080825281906118799082018761293b565b80611aa760019284612b83565b51611ab28287612b83565b5201611a7d565b8060019160005260116020526040600020600d81015442109081611afe575b50611ae4575b01611a67565b80611af8611af186612b74565b9587612b83565b52611ade565b60ff9150600f0154161586611ad8565b346102e95760003660031901126102e9576020600254604051908152f35b346102e95760403660031901126102e9576020610c8f611b4a6128e2565b611b526128f8565b90612a88565b346102e95760003660031901126102e9576020600154604051908152f35b346102e95760403660031901126102e957600435611b926128f8565b601054821015610a93576040916000526011602052816000209060018060a01b031660005260108101602052601160ff836000205416910160205260ff8260002054168251911515825215156020820152f35b346102e95760003660031901126102e9576020600354604051908152f35b346102e95760403660031901126102e957611c1c6128e2565b33600052600b60205260ff604060002054161561042c576001600160a01b031680156107e4576003602091611c526024356134d8565b60018101805460ff60a01b1916600160a21b1790559290920180546001600160a01b0319169091179055604051908152f35b346102e95760003660031901126102e9576020600654604051908152f35b346102e9576020806003193601126102e957611cbc6128e2565b9033600052600b815260ff604060002054161561042c57611cdb612dea565b6001600160a01b0382811691907f0000000000000000000000000000000000000000000000000000000000000000168214611e1557816000526019815260406000209260ff6003850154161561041a57611d359033612a88565b92831561041a5780548481106104085784611d9291600184015433600052601b8652604060002087600052865260406000205533600052601c855260406000208660005285526040600020611d8b8382546129d2565b90556129df565b905581611de357600080808086335af1611daa612a58565b5015610703577f26cd6ba06f6dc02c61247f710e95c768f4856af03b740594288907c36bb217e9905b6040519384523393a36001600055005b7f26cd6ba06f6dc02c61247f710e95c768f4856af03b740594288907c36bb217e990611e108433856136da565b611dd3565b604051631c49f4d160e01b8152600490fd5b346102e95760c03660031901126102e9576044356004356084358015159060243590606435908381036102e95733600052600b60205260ff604060002054161561042c5784611f03575b9060209560149392611ed2575b611e8960a4356134d8565b93909660018501600160a01b60ff60a01b19825416179055600785015560088401556009830155600a820155019061ff0082549160081b169061ff001916179055604051908152f35b611efe7f0000000000000000000000000000000000000000000000000000000000000000838386613480565b611e7e565b9190600a8510611f2e57600a8506611f1c579091611e71565b604051636fe6a4c960e01b8152600490fd5b604051635eee050360e11b8152600490fd5b346102e95760003660031901126102e95760405180601a5480835260208093018091601a6000527f057c384a7d1c54f3a1b2e5e67b2617b8224fdfd1ea7234eea573a6ff665ff63e9060005b86828210611feb578686611fa2828803836127db565b604051928392818401908285525180915260408401929160005b828110611fcb57505050500390f35b83516001600160a01b031685528695509381019392810192600101611fbc565b83546001600160a01b031685529093019260019283019201611f8c565b346102e95760203660031901126102e9576020610c8f6120266128e2565b6129ec565b346102e95760c03660031901126102e9576120446128e2565b6044359081151582036102e9573033036104675761001a9160a435916084359160643591602435906132ed565b346102e9576020806003193601126102e9576004359061208f612dea565b601054821015610a935781600052601181526040600020906014820160ff908181541660001461250d57600d84015442106124fb575b600f84018054908382166124e957600b860154600c87015410156124d757600160ff19809316179055826001860160018060a01b039283825416600052601387528260406000205416806124c5575b6124a5575b505460a01c16600681101561248f5786908061216f57505050509061215460609260066000805160206137e983398151915295015416613442565b60408051916001835282015260006040820152a26001600055005b929392600181036121c357505091846121be926060959460026000805160206137e9833981519152980154166007830154935493600884015492600a60098601549501549560081c16916132ed565b612154565b919493509150600281036124355750508160028401541682600385015416906121f36005600487015496016127fd565b9382156107e45785156107d2577f00000000000000000000000000000000000000000000000000000000000000001694818603612300576040516370a0823160e01b815230600482015284816024818a5afa908115610677576000916122d3575b506007548082111561063357612269916129df565b811161063357600080516020613809833981519152606095826122b08a94876000805160206137e98339815191529b6106046006548085111560001461062d5784906129df565b6122cb604051928392835260408984015260408301906128a2565b0390a4612154565b90508481813d83116122f9575b6122ea81836127db565b810103126102e9575188612254565b503d6122e0565b9394508061237957600080526019835260406000204790548082116000146123705761232b916129df565b841161063357600080808087865af1612342612a58565b501561070357856000805160206138098339815191526000805160206137e9833981519152966060966122b0565b5050600061232b565b80600052601983526040600020604051906370a0823160e01b82523060048301528482602481865afa91821561067757600092612406575b5054808211156123fd576123c4916129df565b841161063357856000805160206138098339815191526000805160206137e983398151915296866123f860609887876136da565b6122b0565b505060006123c4565b9091508481813d831161242e575b61241e81836127db565b810103126102e9575190886123b1565b503d612414565b91929091600381036124645750606092916121be9160026000805160206137e98339815191529601541661312a565b90929150600403611e15576121be60609260036000805160206137e983398151915295015416612e0d565b634e487b7160e01b600052602160045260246000fd5b601387526040600020908154169055601286526000604081205588612119565b50601287528860406000205414612114565b60405163c8c93ba360e01b8152600490fd5b604051630dc1019760e01b8152600490fd5b604051633fc30bd160e11b8152600490fd5b6013840154801561253d57600a54612524916129d2565b4210156120c55760405163a905056160e01b8152600490fd5b60405163aa26a69360e01b8152600490fd5b346102e95760203660031901126102e9576001600160a01b036125706128e2565b16600052600b6020526080604060002060ff8154169060018101549060036002820154910154916040519315158452602084015260408301526060820152f35b346102e95760003660031901126102e9576020600554604051908152f35b346102e95760203660031901126102e95760048035600090815260116020526040902080546001820154600283015460038401546001600160a01b0390811660a052948401546101005290931692612628600584016127fd565b61012052600683015460ff1660e05260078301549360088401546009850154600a860154600b87015490600c88015492600d89015494600e8a015496600f8b015460ff169860128c01549a60138d01549c6014015460805260405160c05260c05152600160a01b60019003811660c051602001528060a01c60ff166006111561248f5760ff9060a01c16604060c0510152606060c051015260a051608060c05101526101005160a060c05101526102a060c0805101526126f16102a060c05101610120516128a2565b9a60e051151560e060c051015261010060c051015261012060c051015261014060c051015261016060c051015261018060c05101526101a060c05101526101c060c05101526101e060c0510152151561020060c051015261022060c051015261024060c051015260ff60805116151561026060c051015260ff60805160081c16151561028060c051015260c051900360c051f35b90600182811c921680156127b5575b602083101461279f57565b634e487b7160e01b600052602260045260246000fd5b91607f1691612794565b60a0810190811067ffffffffffffffff821117610d4e57604052565b90601f8019910116810190811067ffffffffffffffff821117610d4e57604052565b9060405191826000825461281081612785565b908184526020946001916001811690816000146128805750600114612841575b50505061283f925003836127db565b565b600090815285812095935091905b81831061286857505061283f9350820101388080612830565b8554888401850152948501948794509183019161284f565b9250505061283f94925060ff191682840152151560051b820101388080612830565b919082519283825260005b8481106128ce575050826000602080949584010152601f8019910116010190565b6020818301810151848301820152016128ad565b600435906001600160a01b03821682036102e957565b602435906001600160a01b03821682036102e957565b6004359081151582036102e957565b346102e95760003660031901126102e957602060405162093a808152f35b90815180825260208080930193019160005b82811061295b575050505090565b83518552938101939281019260010161294d565b67ffffffffffffffff8111610d4e57601f01601f191660200190565b81601f820112156102e9578035906129a28261296f565b926129b060405194856127db565b828452602083830101116102e957816000926020809301838601378301015290565b9190820180921161144257565b9190820391821161144257565b6001600160a01b03166000908152600b60205260409020805460ff1615612a32576003600e54910154808211600014612a2b57612a28916129df565b90565b5050600090565b50600090565b8115612a42570690565b634e487b7160e01b600052601260045260246000fd5b3d15612a83573d90612a698261296f565b91612a7760405193846127db565b82523d6000602084013e565b606090565b60018060a01b0380911690600092828452600b60205260ff60408520541615612b24578116907f0000000000000000000000000000000000000000000000000000000000000000168114612b1f5780835260196020526040832060ff60038201541615612b245760010154918352601b60205260408320908352602052604082205490818111600014612b1f57612a2892506129df565b505090565b50505090565b67ffffffffffffffff8111610d4e5760051b60200190565b90612b4c82612b2a565b612b5960405191826127db565b8281528092612b6a601f1991612b2a565b0190602036910137565b60001981146114425760010190565b80518210156115115760209160051b010190565b9181158015612d35575b612d23576010549283811015612cf357612bba83612b42565b91600094825b81841080612cea575b15612c4d5750826000526011806020526040600020600d81015442109081612c3d575b50612c23575b6001840190818511612c0f5750612c099093612b74565b92612bc0565b634e487b7160e01b60005260045260246000fd5b83612c37612c3089612b74565b9887612b83565b52612bf2565b60ff9150600f0154161538612bec565b959250909350600094818110612c9a575b5050612c6981612b42565b9160005b828110612c7b575050509190565b80612c8860019284612b83565b51612c938287612b83565b5201612c6d565b5b81811015612c5e578060005260116020526040600020600d81015442109081612cda575b50612ccc57600101612c9b565b505092506001923880612c5e565b60ff9150600f0154161538612cbf565b50858710612bc9565b509150506040516020810181811067ffffffffffffffff821117610d4e5760405260008152600036813790600090565b6040516381f396b760e01b8152600490fd5b5060648211612ba1565b8181029291811591840414171561144257565b8115612a42570490565b601a54600160401b811015610d4e576001810180601a5581101561151157601a6000527f057c384a7d1c54f3a1b2e5e67b2617b8224fdfd1ea7234eea573a6ff665ff63e0180546001600160a01b0319166001600160a01b03909216919091179055565b6001600160a01b03166000908152600b602052604090205460ff1615612de557600190565b600090565b600260005414612dfb576002600055565b604051633ee5aeb560e01b8152600490fd5b6001600160a01b039081169081156107e45760045490811690818314611e15576001600160a01b03191682176004557f0f3a6964a8ba1b7473a14630b029eae6d49bec6babf098223718bacaac7197cc600080a3565b600c548015613118576001600160a01b0382811692907f0000000000000000000000000000000000000000000000000000000000000000168381146130135750600083612f9d575047915b836000526019602052604060002092835480821115612f8b57612ed0916129df565b8015612f8b57612f6d60016000956000805160206137c9833981519152958888526019602052600360408920019081549160ff831615612f72575b505050612f198482546129d2565b815560028101612f3e612f2d8254876129d2565b96612f388189612d52565b97612a38565b92839201612f4d8782546129d2565b905555604051938493846040919493926060820195825260208201520152565b0390a3565b84612f839360ff1916179055612d5c565b388080612f0b565b604051631ab9ebab60e01b8152600490fd5b6040516370a0823160e01b8152306004820152602081602481885afa918215613007578092612fcf575b505091612eae565b9091506020823d602011612fff575b81612feb602093836127db565b81010312612ffc5750513880612fc7565b80fd5b3d9150612fde565b604051903d90823e3d90fd5b6040516370a0823160e01b81523060048201529150602090829060249082905afa908115610677576000916130e6575b506007549182821115612f8b578261309061306f6000956000805160206137c9833981519152956129df565b809261308860065480841115891461062d5783906129df565b6006556129d2565b600755612f6d6130b66130a5600f54846129d2565b936130b08186612d52565b94612a38565b6130c284600e546129d2565b600e5580600f55604051938493846040919493926060820195825260208201520152565b90506020813d602011613110575b81613101602093836127db565b810103126102e9575138613043565b3d91506130f4565b604051630292d7c360e51b8152600490fd5b90600c54918215613118576001600160a01b0381811693907f00000000000000000000000000000000000000000000000000000000000000001684811461324757506000846131e15750475b846000526019602052604060002090815480821115612f8b57613198916129df565b908115612f8b576001612f6d916000805160206137c98339815191529588600052601960205260036040600020019081549160ff831615612f7257505050612f198482546129d2565b6040516370a0823160e01b8152306004820152602081602481895afa918215613007578092613212575b5050613176565b9091506020823d60201161323f575b8161322e602093836127db565b81010312612ffc575051388061320b565b3d9150613221565b6040516370a0823160e01b81523060048201529250602090839060249082905afa918215610677576000926132b9575b5060075480831115612f8b5761309061329f826000805160206137c9833981519152956129df565b80926130886006548084111560001461062d5783906129df565b9091506020813d6020116132e5575b816132d5602093836127db565b810103126102e957519038613277565b3d91506132c8565b6001600160a01b0395949392919086168015159081613415575b5061340357806133ea575b506133ad575b5050507fa00a4448d1c98b3edafbf488446a8320c2cb278ba20dd49c7b5d41a7ebfd582b60a060055492600154600254600354916040519687526020870152604086015260608501527f000000000000000000000000000000000000000000000000000000000000000060808501527f00000000000000000000000000000000000000000000000000000000000000001692a2565b6133d97f0000000000000000000000000000000000000000000000000000000000000000848484613480565b600155600255600355388080613318565b600a8110611f2e57600a8106611f1c5760055538613312565b60405163b078ee9d60e01b8152600490fd5b9050867f000000000000000000000000000000000000000000000000000000000000000016141538613307565b60207f752d7e161ff5146f80e3820893176eb40532811e5e20400dfdde57455213706a91151560ff196008541660ff821617600855604051908152a1565b9192906064831180156134ce575b80156134c4575b80156134ba575b6115dd57606493611173611173926134b3956129d2565b036115dd57565b506064821161349c565b5060648411613495565b506064811161348e565b6000913383526020916013835260409060ff828620541661366d575b80613667575062093a80925b62093a8084106136565762278d008411613645577f3417b456fad6209c73445d5efd446d686e75e4560f0f50c13b5a5cde976447b46010549161354283612b74565b601055829683815260118252838561357b81842099838b5560018b01336bffffffffffffffffffffffff60a01b825416179055426129d2565b92600d8a0193845542600e8b0155600f8a0160ff199081815416905533825260108b01865282822060018282541617905560118b0186528282206001828254161790556001600b8c015581600c8c0155600c548060128d015560138c0183815560148d0183815416905581613611575b5050338252601386526001838320918254161790556012855220555493519384523393a3565b600954909161361f91612d3f565b6064101561362e575b806135eb565b42905561363d600a54426129d2565b855538613628565b815163eeeb962360e01b8152600490fd5b81516331806aeb60e21b8152600490fd5b92613500565b601284939294528385205485526011835283852060ff600f820154161590816136cc575b50156136a857835163792c310960e11b8152600490fd5b929091923385526013845281852060ff1981541690556012845284828120556134f4565b600d91500154421038613691565b60405163a9059cbb60e01b60208201526001600160a01b039092166024830152604480830193909352918152608081019167ffffffffffffffff831182841017610d4e5761283f9260405261376c565b6040516323b872dd60e01b60208201526001600160a01b03928316602482015292909116604483015260648083019390935291815261283f9161376c826127bf565b906000602091828151910182855af115610677576000513d6137bf57506001600160a01b0381163b155b61379d5750565b604051635274afe760e01b81526001600160a01b039091166004820152602490fd5b6001141561379656fef502c7eda43df8a8ec352065360db3486f90ce32849cf8182983d7939bfd3626af8f9d0e884d3306a083e846741a0bc4d75908e2b0ec63b558219652ae4c1b90d81f085560db5c809c425a15f00e3f2904e4fa46d6e8672ff2e671ccd6d9a231a2646970667358221220d36b0bf8560c7d4da133770e869904d77484055a35bfd229e1c54408114d537c64736f6c63430008170033a26469706673582212206cc378a0e9adbd286b845bed2025d0282e2610f3a8d07a26771245dc6da6b91964736f6c63430008170033",
  "linkReferences": {},
  "deployedLinkReferences": {}
}