{
  "_format": "hh-sol-artifact-1",
  "contractName": "TemplFactory",
  "sourceName": "contracts/TemplFactory.sol",
  "abi": [
    {
      "inputs": [
        {
          "internalType": "address",
          "name": "_protocolFeeRecipient",
          "type": "address"
        },
        {
          "internalType": "uint256",
          "name": "_protocolPercent",
          "type": "uint256"
        }
      ],
      "stateMutability": "nonpayable",
      "type": "constructor"
    },
    {
      "inputs": [],
      "name": "DeploymentFailed",
      "type": "error"
    },
    {
      "inputs": [],
      "name": "EntryFeeTooSmall",
      "type": "error"
    },
    {
      "inputs": [],
      "name": "FactoryAccessRestricted",
      "type": "error"
    },
    {
      "inputs": [
        {
          "internalType": "uint256",
          "name": "size",
          "type": "uint256"
        },
        {
          "internalType": "uint256",
          "name": "start",
          "type": "uint256"
        },
        {
          "internalType": "uint256",
          "name": "end",
          "type": "uint256"
        }
      ],
      "name": "InvalidCodeAtRange",
      "type": "error"
    },
    {
      "inputs": [],
      "name": "InvalidEntryFee",
      "type": "error"
    },
    {
      "inputs": [],
      "name": "InvalidPercentage",
      "type": "error"
    },
    {
      "inputs": [],
      "name": "InvalidPercentageSplit",
      "type": "error"
    },
    {
      "inputs": [],
      "name": "InvalidRecipient",
      "type": "error"
    },
    {
      "inputs": [],
      "name": "NotFactoryDeployer",
      "type": "error"
    },
    {
      "inputs": [],
      "name": "PermissionlessUnchanged",
      "type": "error"
    },
    {
      "inputs": [],
      "name": "WriteError",
      "type": "error"
    },
    {
      "anonymous": false,
      "inputs": [
        {
          "indexed": false,
          "internalType": "bool",
          "name": "enabled",
          "type": "bool"
        }
      ],
      "name": "PermissionlessModeUpdated",
      "type": "event"
    },
    {
      "anonymous": false,
      "inputs": [
        {
          "indexed": true,
          "internalType": "address",
          "name": "templ",
          "type": "address"
        },
        {
          "indexed": true,
          "internalType": "address",
          "name": "creator",
          "type": "address"
        },
        {
          "indexed": true,
          "internalType": "address",
          "name": "priest",
          "type": "address"
        },
        {
          "indexed": false,
          "internalType": "address",
          "name": "token",
          "type": "address"
        },
        {
          "indexed": false,
          "internalType": "uint256",
          "name": "entryFee",
          "type": "uint256"
        },
        {
          "indexed": false,
          "internalType": "uint256",
          "name": "burnPercent",
          "type": "uint256"
        },
        {
          "indexed": false,
          "internalType": "uint256",
          "name": "treasuryPercent",
          "type": "uint256"
        },
        {
          "indexed": false,
          "internalType": "uint256",
          "name": "memberPoolPercent",
          "type": "uint256"
        },
        {
          "indexed": false,
          "internalType": "uint256",
          "name": "quorumPercent",
          "type": "uint256"
        },
        {
          "indexed": false,
          "internalType": "uint256",
          "name": "executionDelaySeconds",
          "type": "uint256"
        },
        {
          "indexed": false,
          "internalType": "address",
          "name": "burnAddress",
          "type": "address"
        },
        {
          "indexed": false,
          "internalType": "bool",
          "name": "priestIsDictator",
          "type": "bool"
        },
        {
          "indexed": false,
          "internalType": "uint256",
          "name": "maxMembers",
          "type": "uint256"
        },
        {
          "indexed": false,
          "internalType": "uint8",
          "name": "curvePrimaryStyle",
          "type": "uint8"
        },
        {
          "indexed": false,
          "internalType": "uint32",
          "name": "curvePrimaryRateBps",
          "type": "uint32"
        },
        {
          "indexed": false,
          "internalType": "uint8",
          "name": "curveSecondaryStyle",
          "type": "uint8"
        },
        {
          "indexed": false,
          "internalType": "uint32",
          "name": "curveSecondaryRateBps",
          "type": "uint32"
        },
        {
          "indexed": false,
          "internalType": "uint16",
          "name": "curvePivotPercentOfMax",
          "type": "uint16"
        },
        {
          "indexed": false,
          "internalType": "string",
          "name": "homeLink",
          "type": "string"
        }
      ],
      "name": "TemplCreated",
      "type": "event"
    },
    {
      "inputs": [
        {
          "internalType": "address",
          "name": "_token",
          "type": "address"
        },
        {
          "internalType": "uint256",
          "name": "_entryFee",
          "type": "uint256"
        }
      ],
      "name": "createTempl",
      "outputs": [
        {
          "internalType": "address",
          "name": "templAddress",
          "type": "address"
        }
      ],
      "stateMutability": "nonpayable",
      "type": "function"
    },
    {
      "inputs": [
        {
          "internalType": "address",
          "name": "_priest",
          "type": "address"
        },
        {
          "internalType": "address",
          "name": "_token",
          "type": "address"
        },
        {
          "internalType": "uint256",
          "name": "_entryFee",
          "type": "uint256"
        }
      ],
      "name": "createTemplFor",
      "outputs": [
        {
          "internalType": "address",
          "name": "templAddress",
          "type": "address"
        }
      ],
      "stateMutability": "nonpayable",
      "type": "function"
    },
    {
      "inputs": [
        {
          "components": [
            {
              "internalType": "address",
              "name": "priest",
              "type": "address"
            },
            {
              "internalType": "address",
              "name": "token",
              "type": "address"
            },
            {
              "internalType": "uint256",
              "name": "entryFee",
              "type": "uint256"
            },
            {
              "internalType": "int256",
              "name": "burnPercent",
              "type": "int256"
            },
            {
              "internalType": "int256",
              "name": "treasuryPercent",
              "type": "int256"
            },
            {
              "internalType": "int256",
              "name": "memberPoolPercent",
              "type": "int256"
            },
            {
              "internalType": "uint256",
              "name": "quorumPercent",
              "type": "uint256"
            },
            {
              "internalType": "uint256",
              "name": "executionDelaySeconds",
              "type": "uint256"
            },
            {
              "internalType": "address",
              "name": "burnAddress",
              "type": "address"
            },
            {
              "internalType": "bool",
              "name": "priestIsDictator",
              "type": "bool"
            },
            {
              "internalType": "uint256",
              "name": "maxMembers",
              "type": "uint256"
            },
            {
              "internalType": "bool",
              "name": "curveProvided",
              "type": "bool"
            },
            {
              "components": [
                {
                  "components": [
                    {
                      "internalType": "enum CurveStyle",
                      "name": "style",
                      "type": "uint8"
                    },
                    {
                      "internalType": "uint32",
                      "name": "rateBps",
                      "type": "uint32"
                    }
                  ],
                  "internalType": "struct CurveSegment",
                  "name": "primary",
                  "type": "tuple"
                },
                {
                  "components": [
                    {
                      "internalType": "enum CurveStyle",
                      "name": "style",
                      "type": "uint8"
                    },
                    {
                      "internalType": "uint32",
                      "name": "rateBps",
                      "type": "uint32"
                    }
                  ],
                  "internalType": "struct CurveSegment",
                  "name": "secondary",
                  "type": "tuple"
                },
                {
                  "internalType": "uint16",
                  "name": "pivotPercentOfMax",
                  "type": "uint16"
                }
              ],
              "internalType": "struct CurveConfig",
              "name": "curve",
              "type": "tuple"
            },
            {
              "internalType": "string",
              "name": "homeLink",
              "type": "string"
            }
          ],
          "internalType": "struct TemplFactory.CreateConfig",
          "name": "config",
          "type": "tuple"
        }
      ],
      "name": "createTemplWithConfig",
      "outputs": [
        {
          "internalType": "address",
          "name": "templAddress",
          "type": "address"
        }
      ],
      "stateMutability": "nonpayable",
      "type": "function"
    },
    {
      "inputs": [],
      "name": "factoryDeployer",
      "outputs": [
        {
          "internalType": "address",
          "name": "",
          "type": "address"
        }
      ],
      "stateMutability": "view",
      "type": "function"
    },
    {
      "inputs": [],
      "name": "permissionless",
      "outputs": [
        {
          "internalType": "bool",
          "name": "",
          "type": "bool"
        }
      ],
      "stateMutability": "view",
      "type": "function"
    },
    {
      "inputs": [],
      "name": "protocolFeeRecipient",
      "outputs": [
        {
          "internalType": "address",
          "name": "",
          "type": "address"
        }
      ],
      "stateMutability": "view",
      "type": "function"
    },
    {
      "inputs": [],
      "name": "protocolPercent",
      "outputs": [
        {
          "internalType": "uint256",
          "name": "",
          "type": "uint256"
        }
      ],
      "stateMutability": "view",
      "type": "function"
    },
    {
      "inputs": [
        {
          "internalType": "bool",
          "name": "enabled",
          "type": "bool"
        }
      ],
      "name": "setPermissionless",
      "outputs": [],
      "stateMutability": "nonpayable",
      "type": "function"
    }
  ],
  "bytecode": "0x61010060409080825234620001cc57818162007d958038038091620000258285620001d1565b833981010312620001cc5780516001600160a01b03918282169190828203620001cc57602001519115620001bb576127108211620001aa5760805260a0523360c0526000805460ff191690558151616e04620000856020820183620001d1565b80825262000f91602083013980511562000199576200011562000122620000bd9285519384916000602084015260218301906200020b565b03620000d2601f1991828101865285620001d1565b83519386519384916020830196606360f81b885263ffffffff60e01b9060e01b1660218401526880600e6000396000f360b81b6025840152602e8301906200020b565b03908101835282620001d1565b51906000f090811615620001885760e05251610d5890816200023982396080518181816104c6015261095a015260a0518181816102ed015281816108c1015261099d015260c0518181816103cc0152818161041c01526106fe015260e05181610a420152f35b815163046a55db60e11b8152600490fd5b825163046a55db60e11b8152600490fd5b835163542c8df360e11b8152600490fd5b8351634e46966960e11b8152600490fd5b600080fd5b601f909101601f19168101906001600160401b03821190821017620001f557604052565b634e487b7160e01b600052604160045260246000fd5b9081519160005b83811062000224575050016000815290565b80602080928401015181850152016200021256fe608060408181526004908136101561001657600080fd5b600092833560e01c90816364df049e146104b25750806375708a59146103fb5780638549ab0c146103b7578063a1256f9f14610395578063b4c99cfd1461035a578063b5e74bef14610314578063f0a827a4146102d55763fab13de21461007c57600080fd5b346102d15760209160031983813601126102cd5781356001600160401b03918282116102c957610240823603918201126102c9576100b86106d5565b8451926100c484610531565b6100cf83860161051d565b84526100dd6024840161051d565b87850152604483013586850152606483013560608501526084830135608085015260a483013560a085015260c084019460c4840135865260e085019060e4850135825261012d610104860161051d565b92610100870193845261014361012487016104f5565b61012088015261014486013561014088015260a061016461016488016104f5565b6101608901908152956101831901126102c55788519561018387610563565b610191366101848301610694565b87526101a1366101c48301610694565b8b88015261020481013561ffff811681036102c1578a8801526101808801968752610224810135908282116102c1570191366023840112156102aa57808301359182116102ae57508851916101ff601f8301601f19168c01846105b4565b81835236602483830101116102aa579981819c9260246102689b9c9d0183860137830101526101a086015284516001600160a01b0397908816156102a2575b805115610297575b5080511561028b575b508581511615610280575b505115610270575b50610840565b915191168152f35b61027861072d565b905238610262565b61dead90523861025a565b62093a8090523861024f565b610ce4905238610246565b33865261023e565b8b80fd5b634e487b7160e01b8c526041905260248bfd5b8c80fd5b8a80fd5b8680fd5b8480fd5b8280fd5b838234610310578160031936011261031057602090517f00000000000000000000000000000000000000000000000000000000000000008152f35b5080fd5b8382346103105760603660031901126103105761032f610507565b916001600160a01b0390602435908282168203610357575060209361026891604435916105d5565b80fd5b83823461031057806003193601126103105760209061038461037a610507565b60243590336105d5565b90516001600160a01b039091168152f35b83823461031057816003193601126103105760ff602092541690519015158152f35b838234610310578160031936011261031057517f00000000000000000000000000000000000000000000000000000000000000006001600160a01b03168152602090f35b50346102d15760203660031901126102d1578135918215158093036104ae577f00000000000000000000000000000000000000000000000000000000000000006001600160a01b031633036104a0578354908360ff8316151514610492575060ff191660ff8316178355519081527f90d2b4c24b444f232cd1319daf88a4c8dae02a35bfdc1623895d0e0c8476d4fb90602090a180f35b8251631ffe815160e21b8152fd5b90516318b1c98f60e01b8152fd5b8380fd5b8490346103105781600319360112610310577f00000000000000000000000000000000000000000000000000000000000000006001600160a01b03168152602090f35b3590811515820361050257565b600080fd5b600435906001600160a01b038216820361050257565b35906001600160a01b038216820361050257565b6101c081019081106001600160401b0382111761054d57604052565b634e487b7160e01b600052604160045260246000fd5b606081019081106001600160401b0382111761054d57604052565b604081019081106001600160401b0382111761054d57604052565b602081019081106001600160401b0382111761054d57604052565b90601f801991011681019081106001600160401b0382111761054d57604052565b91906105df6106d5565b6001600160a01b039283169182156106825761067f936105fd61072d565b926040519461060b86610531565b85521660208401526040830152610bb880606084015280608084015260a0830152610ce460c083015262093a8060e083015261dead610100830152600061012083015260f9610140830152600161016083015261018082015260405161067081610599565b600081526101a0820152610840565b90565b604051634e46966960e11b8152600490fd5b9190826040910312610502576040516106ac8161057e565b8092803590600382101561050257602091835201359063ffffffff821682036105025760200152565b60ff6000541615806106fa575b6106e857565b60405163541da81760e11b8152600490fd5b50337f00000000000000000000000000000000000000000000000000000000000000006001600160a01b031614156106e2565b604080519061073b82610563565b808051926107488461057e565b60009283918286526020958387820152815281516107658161057e565b838152838782015286820152015280519261077f8461057e565b60028452612af8818501528151906107968261057e565b83825283818301528251946107aa86610563565b855284015282015290565b60005b8381106107c85750506000910152565b81810151838201526020016107b8565b906020916107f1815180928185528580860191016107b5565b601f01601f1916010190565b805190600382101561081d57602063ffffffff9181938552015116910152565b634e487b7160e01b600052602160045260246000fd5b51600381101561081d5790565b80519091906001600160a01b0316158015610c72575b61068257600a604083015110610c6057600a604083015106610c4e576127108060c084015111610c3c5761088d6060840151610c87565b9061089b6080850151610c87565b6108a860a0860151610c87565b916108e66108bf846108ba8588610ca2565b610ca2565b7f000000000000000000000000000000000000000000000000000000000000000090610ca2565b03610c2a57600160a01b60019003855116600160a01b600190036020870151169060408701518760c081015160e0820151600160a01b6001900361010084015116610120840151151591610140850151936101a086015195610180015196604051998a9960208b0152600160a01b600190037f00000000000000000000000000000000000000000000000000000000000000001660408b015260608a015260808901528b60a08901528960c08901528a60e08901527f00000000000000000000000000000000000000000000000000000000000000006101008901526101208801526101408701526101608601526101808501526101a08401526101c08301610260905261028083016109f8916107d8565b906101e08301815190610a0a916107fd565b60208101516102208401610a1d916107fd565b6040015161ffff1661026083015203601f1981018252610a3d90826105b4565b610a667f0000000000000000000000000000000000000000000000000000000000000000610cc5565b90815115610c1857610aac6020604051809382610a8c81840197888151938492016107b5565b8201610aa0825180938680850191016107b5565b010380845201826105b4565b51906000f0916001600160a01b03831615610c1857829560018060a01b038151169460018060a01b036020830151169360408301519360c084015160e085015160018060a01b036101008701511661012087015115159061014088015192610b196101808a015151610833565b94600386101561081d576101808a015196610b42602063ffffffff818b51015116990151610833565b9860038a101561081d576101808c01519a60208c01516020015163ffffffff169b6040015161ffff169c6101a001519e6040519e8f91825260208201526040015260608d015260808c015260a08b015260c08a015260e089015261010088015261012087015260ff1661014086015261016085015260ff166101808401526101a08301526101c08201526101e081016102009052803393600160a01b6001900316926102008201610bf2916107d8565b037f573e4ed4012cab389ba0527837db758057c7efc3ec837d3943685e15d6b87d4f91a4565b604051633011642560e01b8152600490fd5b60405163542c8df360e11b8152600490fd5b604051631f3b85d360e01b8152600490fd5b604051636fe6a4c960e01b8152600490fd5b604051635eee050360e11b8152600490fd5b5060208201516001600160a01b031615610856565b6000198114610c9b5760008112610c3c5790565b50610bb890565b91908201809211610caf57565b634e487b7160e01b600052601160045260246000fd5b90813b8015610d0c5780600111610d0c576000190160011980821015610d0557505b600160405193601f19603f840116850160405282855260208501903c565b9050610ce7565b509050604051610d1b81610599565b600081529056fea264697066735822122081ba15d480ce80d96d2e380be48de86a405e7a787d0a03dc2234ec5d4950eafe64736f6c6343000817003361014060405234620009765762006e04803803610120526200002461012051620009bb565b906101205190823961026081610120518101031262000976576200004881620009e1565b6200005660208301620009e1565b906200006560408401620009e1565b92606081015193608082015160a083015160c08401519060e08501519161010086015192610120870151946200009f6101408901620009e1565b9661016089015190811515820362000976576101808a01516101a08b0151909c909a6001600160401b038c116200097657610120518101601f8d83010112156200097657808c01519b6001600160401b038d116200085a578c6200010d601f8201601f1916602001620009bb565b9d8e526101205183016020828486010101116200097657620001389160208f810191850101620009f6565b60a06101bf19826101205181010301126200097657610240906200015b6200097b565b61010052620001746101205182016101c0830162000a1b565b61010051526200018e610120518201610200830162000a1b565b6020610100510152015161ffff811681036200097657610100516040015260016000556001600160a01b03811615801562000964575b620006e35760a05260c0526004549060ff60a01b90151560a01b169060ff60a01b19161760045580918493809582936200020f84620002098562000209868662000a5c565b62000a5c565b6127108103620008ee575b50505050506200023c8161271092608052620002098662000209878762000a5c565b03620008dc57600155600255600355806200087c5750610ce4600e555b8062000876575062093a805b600f556001600160a01b03811662000870575061dead5b60e05280516001600160401b0381116200085a57601054600181811c911680156200084f575b60208210146200083957601f8111620007e4575b50806020601f82116001146200076b576000916200075f575b508160011b916000199060031b1c1916176010555b8051620006f5575b506001600160a01b0316908115620006e3578215620006d157600a8310620006bf57600a8306620006ad578160018060a01b0319600454161760045560ff199182600c5416600c55600052601160205260406000206001838254161781554260018201554360028201556003601454910155600160125580151580620005ce575b5050506200037f610100515162000bde565b62000391602061010051015162000bde565b60065561010051518051906003821015620005b85760209160075464ffffffff00938493015160ff64ffffffffff1994859260081b169316911617176007556020610100510151908151926003841015620005b85760ff90602060085494015160081b1693169116171760085561ffff60406101005101511661ffff1960095416176009556200042062000aed565b6200042a62000a78565b62000436815162000a6a565b6003811015620005b85763ffffffff90816020845101511660208401936200045f855162000a6a565b946003861015620005b8577fc15d322942404cf9bfdab1976496465c64f4a3e0f200d90446aff4ec2dff32109561ffff604060a097602060ff955101511694015116938260405196168652602086015216604084015260608301526080820152a1604051615f8c908162000e5882396080518181816104d101528181610758015281816112f3015281816127480152818161279701528181612aaf01528181612b010152614b35015260a0518181816113e70152818161211c0152614ca7015260c051818181610637015281816109180152818161119b0152818161124b0152818161138c015281816119d9015281816122960152818161276e0152818161287f01528181612ad501528181612c2801528181612c9301528181613c1f01528181614b9a01528181614c5201528181614c7c01528181614cca015281816151310152615472015260e051818181611e9e0152614c2f0152f35b634e487b7160e01b600052602160045260246000fd5b80620006a2575b62000690576020817fb63bcc75a862434e97db3146b78681478a2692253df1de5623d497ee61fac79992600d55604051908152a16200061362000aed565b600d54801515908162000682575b508062000674575b62000637575b80806200036d565b600190600c541617600c557fc2542ff58c47f8c0922a043c4b21423ecd816167eeab1dabfb51d56508d90a66602060405160018152a1386200062f565b5060ff600c54161562000629565b905060125410153862000621565b604051633161e99d60e11b8152600490fd5b5060018110620005d5565b604051636fe6a4c960e01b8152600490fd5b604051635eee050360e11b8152600490fd5b6040516365e52d5160e11b8152600490fd5b604051634e46966960e11b8152600490fd5b7f71e57b89fe30fe66cb93427236f86ec18c6ec404e26b5c0914ee88193dd07da590608060405180926040825260006040830152606060208301526200074b8151809281606086015260208686019101620009f6565b601f01601f19168101030190a138620002ec565b905082015138620002cf565b60106000908152925060008051602062006de4833981519152905b601f1983168410620007cb576001935082601f19811610620007b1575b5050811b01601055620002e4565b84015160001960f88460031b161c191690553880620007a3565b8481015182556020938401936001909201910162000786565b601060005260008051602062006de4833981519152601f830160051c81016020841062000831575b601f830160051c8201811062000824575050620002b6565b600081556001016200080c565b50806200080c565b634e487b7160e01b600052602260045260246000fd5b90607f1690620002a2565b634e487b7160e01b600052604160045260246000fd5b6200027c565b62000265565b806064811115620008ae575b5061271081116200089c57600e5562000259565b604051631f3b85d360e01b8152600490fd5b905060648102908104606403620008c6573862000888565b634e487b7160e01b600052601160045260246000fd5b60405163542c8df360e11b8152600490fd5b93975091955093509150606403620008dc57606481029080820460641490151715620008c65790606481029080820460641490151715620008c65791606481029080820460641490151715620008c6579280606481020460641481151715620008c6576064026200023c6127103880806200021a565b506001600160a01b03821615620001c4565b600080fd5b60405190606082016001600160401b038111838210176200085a57604052565b60408051919082016001600160401b038111838210176200085a57604052565b6040519190601f01601f191682016001600160401b038111838210176200085a57604052565b51906001600160a01b03821682036200097657565b60005b83811062000a0a5750506000910152565b8181015183820152602001620009f9565b9190826040910312620009765762000a326200099b565b91805190600382101562000976576020918452015163ffffffff8116810362000976576020830152565b91908201809211620008c657565b516003811015620005b85790565b62000a826200097b565b9062000a8d6200099b565b6007549060ff82166003811015620005b857815263ffffffff809260081c166020820152835262000abd6200099b565b9060085460ff81166003811015620005b857835260081c166020820152602083015261ffff600954166040830152565b600654801562000b205762000b1b9062000b0662000b23565b600d549162000b1462000a78565b9062000b43565b600555565b50565b601254801562000b3d576000198101908111620008c65790565b50600090565b9092821562000bd75762000b58908462000c5f565b90602084019362000b6a855162000a6a565b6003811015620005b85715801562000bce575b801562000bc3575b62000bb45762000b99918391519062000cb7565b908203918211620008c65762000bb192519062000cb7565b90565b5162000bb19450915062000cb7565b508284111562000b85565b50821562000b7d565b5091505090565b80516003811015620005b8571562000c4e5780516003811015620005b85760011462000b205780516003811015620005b85760021462000c2a576040516311c6799960e21b8152600490fd5b6020015163ffffffff161562000c3c57565b6040516311c6799960e21b8152600490fd5b6020015163ffffffff1662000c3c57565b6040019061ffff8083511615801562000cab575b62000ca3576000198201918211620008c65762000c939251169062000d74565b801562000c9d5790565b50600190565b505050600090565b50600182111562000c73565b908215801562000d60575b62000d5a5780516003811015620005b85760011462000d225780516003811015620005b85760021462000d01576040516311c6799960e21b8152600490fd5b62000bb19263ffffffff602062000d1b9301511662000df1565b9062000d74565b602063ffffffff91939293015116818102918183041490151715620008c657612710908101809111620008c65762000bb19162000d74565b50905090565b5080516003811015620005b8571562000cc2565b906000198183098183029182808310920391808303921462000de657612710908282111562000dd3577fbc01a36e2eb1c432ca57a786c226809d495182a9930be0ded288ce703afb7e91940990828211900360fc1b910360041c170290565b634e487b7160005260116020526024601cfd5b505061271091500490565b90801562000e4f576127109190805b62000e0a57505090565b6001808083161462000e3b575b1c8062000e26575b8062000e00565b62000e3382829362000d74565b915062000e1f565b928262000e489162000d74565b9262000e17565b50506127109056fe610380604052600436101561001c575b361561001a57600080fd5b005b60003560e01c8063013cf08b1461336b57806303807ee51461334d578063049cb119146132b857806304ef9d581461329a578063072ea61c1461327c57806308ae4b0c1461321b5780630d61b519146128d55780630f852b9a1461269657806311aee38014611af157806314d9ea63146126785780631df260a0146125cd5780631f26ac7b146125a1578063215809ca146117c25780632164d3f814612507578063313dab20146124e9578063438596321461247a5780634902e427146123e55780635584c4f91461231f5780635998e8451461226f5780635ece653a146122195780635fa7ddf0146121fb57806361c896d21461214b57806364df049e14612106578063685d51f514611f9e5780636898b19c14611f805780636a49942714611f255780636ad1855014611eeb5780637070ac4814611ecd57806370d5ae0514611e8857806373023e6414611d175780637518927914611cf45780638022e55c14611cd9578063840634c514611c225780638b0e837914611b515780638f78bbc414611b0f578063997072f714611af15780639ddeddf914611991578063a230c52414611952578063a51a46b914611934578063a64e024a14611916578063a730117e146118f3578063a81bbe3c146118b9578063aa5c442b14611803578063ab99a0d3146117e5578063adadef27146117c7578063aedfe53f146117c2578063b1334e9a14611745578063b488616b14611715578063b688a363146116e1578063be893a1f14611504578063bebc8fc0146114db578063c17db3f21461144d578063c293947114611358578063c3f909d414611225578063c556a02b14611105578063c7f758a814610f6f578063c9d27afe14610c49578063cfb5446014610bc7578063d402d4be14610895578063d6f838761461082e578063d8257b2d1461080b578063da35c664146107ed578063dddac844146107c7578063e1a2c9bf14610666578063e243c5fb14610621578063e4b5d7ba1461059e578063ea0e35b114610580578063eccceda6146104f4578063f0a827a4146104b9578063f2be51ea1461042d578063f81cbd261461040f578063fef63821146103885763ffafe4ad0361000f5734610383576020366003190112610383576001600160a01b03610365613a01565b166000526019602052602060ff604060002054166040519015158152f35b600080fd5b346103835761039636613b8d565b949190929360ff60045460a01c166103fd576020956103cb6103f5956103c36008986103d1963691613b38565b923691613b38565b916143c7565b6001819592950160ff60a01b198154169055019060ff801983541691151516179055565b604051908152f35b60405163a8ef9e1960e01b8152600490fd5b34610383576000366003190112610383576020600e54604051908152f35b3461038357602036600319011261038357610446613a01565b60045460ff8160a01c1660001461049657303314159081610482575b506104705761001a90615118565b60405163626243e960e01b8152600490fd5b6001600160a01b0316331415905082610462565b503033036104a75761001a90615118565b6040516327568d2f60e11b8152600490fd5b346103835760003660031901126103835760206040517f00000000000000000000000000000000000000000000000000000000000000008152f35b346103835761050236613a87565b929490936001600160a01b0390911692831561056e5760ff60045460a01c166103fd576103cb6003956103c360209861053c963691613b38565b60018101805460ff60a01b1916600160a21b1790559290920180546001600160a01b0319169091179055604051908152f35b604051634e46966960e11b8152600490fd5b34610383576000366003190112610383576020600d54604051908152f35b34610383576105ac36613b8d565b949190929360ff60045460a01c168315159015151461060f576020956103cb6103f5956103c389986105df963691613b38565b60018101805460ff60a01b1916600560a01b17905593909301805491151560ff1660ff1992909216919091179055565b6040516305548b1760e41b8152600490fd5b34610383576000366003190112610383576040517f00000000000000000000000000000000000000000000000000000000000000006001600160a01b03168152602090f35b346103835761010036600319011261038357608435600435811515602435606435604435838603610383576001600160401b0360c435818111610383576106b1903690600401613a5a565b9160e435908111610383576106ca903690600401613a5a565b92909860ff60045460a01c166103fd5788610784575b6020996103c361070a94601e999897969461070194610753575b3691613b38565b9060a4356143c7565b93909660018501600160a01b60ff60a01b198254161790556009850155600a840155600b830155600c820155019061ff0082549160081b169061ff001916179055604051908152f35b61077f7f00000000000000000000000000000000000000000000000000000000000000008a8a8d6150e5565b6106fa565b9594939290600a89106107b557600a89066107a35790929394956106e0565b604051636fe6a4c960e01b8152600490fd5b604051635eee050360e11b8152600490fd5b3461038357600036600319011261038357602060ff60045460a01c166040519015158152f35b34610383576000366003190112610383576020601654604051908152f35b346103835760203660031901126103835760206103f5610829613a01565b61413e565b3461038357602036600319011261038357610847613a01565b60ff600c5416610883573033146108715761086a906108646141a1565b33614acd565b6001600055005b604051636edaef2f60e11b8152600490fd5b604051636f45999160e11b8152600490fd5b34610383576080366003190112610383576108ae613a01565b6108b6613a17565b604435906064356001600160401b038111610383576108d9903690600401613b6f565b9260045460ff8160a01c16600014610bad57303314159081610b99575b50610470575b6001600160a01b038281169490851561056e578415610b8757807f000000000000000000000000000000000000000000000000000000000000000016921693828514600014610a38576040516370a0823160e01b8152306004820152602081602481875afa908115610a2c576000916109fa575b50600b54808211156109e85761098591613bea565b81116109e8576109c181600095600080516020615f37833981519152956109b9600a54808511158a146109e2578490613bea565b600a55614930565b6109dd60405192839283526040602084015260408301906139a1565b0390a4005b80613bea565b604051631c7b597b60e11b8152600490fd5b90506020813d602011610a24575b81610a1560209383613756565b81010312610383575187610970565b3d9150610a08565b6040513d6000823e3d90fd5b9150918315600014610ad3575060008052601c6020527fb9c6de81004e18dedadca3e5eabaab449ca91dff6f58efc9461da635fe77f84954479080821115610aca57610a8391613bea565b81116109e857600080808084885af1610a9a614036565b5015610ab857600091600080516020615f37833981519152916109c1565b6040516331d436c760e01b8152600490fd5b50506000610a83565b909183600052601c6020526040600020604051906370a0823160e01b8252306004830152602082602481895afa918215610a2c57600092610b53575b505480821115610b4a57610b2291613bea565b83116109e85782610b45600094600080516020615f378339815191529487614930565b6109c1565b50506000610b22565b9091506020813d602011610b7f575b81610b6f60209383613756565b8101031261038357519087610b0f565b3d9150610b62565b6040516365e52d5160e11b8152600490fd5b6001600160a01b03163314159050856108f6565b503330146108fc576040516327568d2f60e11b8152600490fd5b3461038357602036600319011261038357600435601654811015610c3757600052601760205260c06040600020601a81015490601b81015490601f810154601d82015490601c601684015493015493604051958652602086015260408501526060840152608083015260a0820152f35b604051631dc0650160e31b8152600490fd5b34610383576040366003190112610383576004356024908135801515928382036103835733600052601160209281845260ff92836040600020541615610f5d57601654861015610c375785600052601785526040600020928460045460a01c1680610f2b575b6103fd5760158401948554421015610f195733600052818752604060002093601c86019485548015600014610ef45750610cf390601f88015460168901549161509a565b610ee2575b6018860133600052808952826040600020541660198801808b528460406000205416928b526040600020600160ff198254161790558a52610d498360406000209060ff801983541691151516179055565b610e71575015610e59576013850180549060018201809211610e4457555b601e850154161580610e3b575b610daf575b87878760405192835242908301527fcbdf6214089cba887ecbf35a0b6a734589959c9763342c756bb2a80ca2bc9f6e60403393a3005b601a8401548015159283610df4575b505050610dcd575b8080610d79565b42905543601d820155601b601254910155610dea600f5442613bca565b9055838080610dc6565b60138601546127108082029550929391928115918604141715610e29575050610e1f90600e54613bd7565b1115878080610dbe565b634e487b7160e01b6000526004526000fd5b50825415610d74565b505050634e487b7160e01b6000526004526000fd5b6014850180549060018201809211610e445755610d67565b90508981151503610e83575b50610d67565b15610eb657601385018054600019810191908211610e4457556014850180549060018201809211610e4457555b89610e7d565b601485018054600019810191908211610e4457556013850180549060018201809211610e445755610eb0565b60405163f078ca7360e01b8152600490fd5b601d880154610f029261509a565b15610cf85760405163f078ca7360e01b8152600490fd5b604051637a19ed0560e01b8152600490fd5b5084600185015460a01c16600a811015610f485760051415610caf565b82634e487b7160e01b60005260216004526000fd5b60405163148fe22160e11b8152600490fd5b3461038357602036600319011261038357600435601654811015610c37576000526017602052604060002060ff601e8201541660001461105a57601581015442101580611049575b905b61104560018060a01b036001830154169261103760138401549360148101549560158201549360ff601784015416610fff6006610ff860058701613819565b9501613819565b95604051998a99610100958b5260208b015260408a0152606089015215156080880152151560a08701528060c08701528501906139a1565b9083820360e08501526139a1565b0390f35b506013810154601482015410610fb7565b601c81015480156110fc57601a8201549081159182156110b2575b50600f5461108291613bca565b42101590816110aa575b5080611099575b90610fb9565b506013810154601482015410611093565b90508261108c565b9091506013830154612710908181029181830414901517156110e6576110dd61108292600e54613bd7565b11159190611075565b634e487b7160e01b600052601160045260246000fd5b50600090610fb9565b346103835760003660031901126103835733600052601160205260ff6040600020541615610f5d576111356141a1565b61113e3361413e565b80156112135780611154600b5460155490613bea565b106112015760145433600052601160205260036040600020015560136020526040600020611183828254613bca565b905561119181600b54613bea565b600b556111c881337f00000000000000000000000000000000000000000000000000000000000000006001600160a01b0316614930565b6040519081524260208201527f1c643327a899ca112a3300de75dd241ef8452e4f603609b53a20332da48b54e660403392a26001600055005b60405163bc6072f160e01b8152600490fd5b6040516373380d9960e01b8152600490fd5b34610383576000366003190112610383576040516370a0823160e01b81523060048201527f00000000000000000000000000000000000000000000000000000000000000006001600160a01b0316602082602481845afa8015610a2c57600090611324575b600b54610140935090818082111561131a576112a591613bea565b905b600554916112b3613e81565b916001549160025493600354956040519788526020880152600060408801526060870152608086015260a085015260c084015260e08301526101008201527f0000000000000000000000000000000000000000000000000000000000000000610120820152f35b50506000906112a7565b506020823d602011611350575b8161133e60209383613756565b8101031261038357610140915161128a565b3d9150611331565b34610383576000366003190112610383576040516370a0823160e01b81523060048201526001600160a01b036020826024817f000000000000000000000000000000000000000000000000000000000000000085165afa908115610a2c57600091611418575b600b546060935091828082111561140e576113d891613bea565b915b60405192835260208301527f0000000000000000000000000000000000000000000000000000000000000000166040820152f35b50506000916113da565b90506020823d602011611445575b8161143360209383613756565b810103126103835760609151906113be565b3d9150611426565b34610383576020366003190112610383576004356001600160401b0381116103835761147d903690600401613a5a565b60045460ff8160a01c166000146114c6573033141590816114b2575b506104705761001a916114ad913691613b38565b614e57565b6001600160a01b0316331415905083611499565b503033036104a75761001a916114ad916106fa565b34610383576000366003190112610383576004546040516001600160a01b039091168152602090f35b346103835760e03660031901126103835761151d613a01565b611525613a17565b6001600160401b039060643582811161038357611546903690600401613b6f565b9160a4358181116103835761155f903690600401613a5a565b60c43583811161038357611577903690600401613a5a565b909260ff60045460a01c166103fd576007936103c361159b926115a4953691613b38565b906084356143c7565b6001808201805460ff60a01b1916600160a11b1790556002820180546001600160a01b03199081166001600160a01b039a8b16179091556003830180549091169890961697909717909455604435600485015584519093919091019181116116cb5760209461161d8261161785546136e6565b85613e2b565b8590601f83116001146116655750819061165093949560009261165a575b50508160011b916000199060031b1c19161790565b9055604051908152f35b01519050868061163b565b90601f198316958460005281600020926000905b8882106116b45750508360019596971061169b575b505050811b0190556103f5565b015160001960f88460031b161c1916905585808061168e565b828401518555938401939289019290890190611679565b634e487b7160e01b600052604160045260246000fd5b346103835760003660031901126103835760ff600c5416610883573033146108715761170b6141a1565b61086a3333614acd565b3461038357600036600319011261038357611045611731613777565b6040519182916020835260208301906139a1565b3461038357366003190160c081126103835760a0136103835760045460ff8160a01c166000146117a857303314159081611794575b50610470575b61001a60a43561178f36613d77565b61497f565b6001600160a01b031633141590508161177a565b50333014611780576040516327568d2f60e11b8152600490fd5b613a3c565b34610383576000366003190112610383576020600354604051908152f35b346103835760203660031901126103835760206103f5600435614090565b346103835760203660031901126103835761181c613a2d565b60045460ff8160a01c1691826000146118a057303314158061188d575b610470575b1515809215151461060f5760ff60a01b191660a082901b60ff60a01b16176004556040519081527fa8adfe89c6bc95edbe7049ed316f0473a03af92b1fd027ce1ac670082467c62390602090a1005b50336001600160a01b0383161415611839565b33301461183e576040516327568d2f60e11b8152600490fd5b34610383576020366003190112610383576001600160a01b036118da613a01565b1660005260136020526020604060002054604051908152f35b346103835760203660031901126103835760206103f5611911613a01565b614066565b3461038357600036600319011261038357602060405162278d008152f35b34610383576000366003190112610383576020601554604051908152f35b34610383576020366003190112610383576001600160a01b03611973613a01565b166000526011602052602060ff604060002054166040519015158152f35b3461038357602080600319360112610383576119ab613a01565b90336000526011815260ff6040600020541615610f5d576119ca6141a1565b6001600160a01b0382811691907f0000000000000000000000000000000000000000000000000000000000000000168214611adf5781600052601c815260406000209260ff6003850154161561121357611a249033613bf7565b9283156112135780548481106112015784611a5c91600184015433600052601f86526040600020876000528652604060002055613bea565b905581611aad57600080808086335af1611a74614036565b5015610ab8577f26cd6ba06f6dc02c61247f710e95c768f4856af03b740594288907c36bb217e9905b6040519384523393a36001600055005b7f26cd6ba06f6dc02c61247f710e95c768f4856af03b740594288907c36bb217e990611ada843385614930565b611a9d565b604051631c49f4d160e01b8152600490fd5b34610383576000366003190112610383576020601254604051908152f35b3461038357604036600319011261038357611b45611b31602435600435613e9f565b604051928392604084526040840190613ae9565b90151560208301520390f35b346103835760203660031901126103835760043560045460ff8160a01c16600014611c0857303314159081611bf4575b50610470575b6012548115159081611bea575b50611bd8576020817fb63bcc75a862434e97db3146b78681478a2692253df1de5623d497ee61fac79992600d55604051908152a1611bd06156fa565b61001a615726565b604051633161e99d60e11b8152600490fd5b9050811082611b94565b6001600160a01b0316331415905082611b81565b50333014611b87576040516327568d2f60e11b8152600490fd5b3461038357602036600319011261038357611c3b613a01565b60045460ff8160a01c16600014611cc0573033141580611cad575b610470575b6001600160a01b0391821691821561056e57811690818314611adf576001600160a01b03191682176004557f0f3a6964a8ba1b7473a14630b029eae6d49bec6babf098223718bacaac7197cc600080a3005b50336001600160a01b0382161415611c56565b333014611c5b576040516327568d2f60e11b8152600490fd5b346103835760003660031901126103835760206103f5613e81565b3461038357600036600319011261038357602060ff600c54166040519015158152f35b34610383576080366003190112610383576001600160401b0360043581811161038357611d48903690600401613a5a565b909160443581811161038357611d62903690600401613a5a565b9060643583811161038357611d7b903690600401613a5a565b919060ff60045460a01c166103fd576103c3611d9c92611da5953691613b38565b906024356143c7565b6001818101805460ff60a01b1916600760a01b1790559193600d919091019290919082116116cb57611ddb8261161785546136e6565b600090601f8311600114611e1a5750908061165092602096600092611e0f5750508160011b916000199060031b1c19161790565b01359050868061163b565b90601f198316846000526020926020600020936000915b838310611e71575050509583929160019460209810611e5757505050811b0190556103f5565b0135600019600384901b60f8161c1916905585808061168e565b898501358655948501949381019391810191611e31565b34610383576000366003190112610383576040517f00000000000000000000000000000000000000000000000000000000000000006001600160a01b03168152602090f35b34610383576000366003190112610383576020600f54604051908152f35b34610383576020366003190112610383576001600160a01b03611f0c613a01565b1660005260186020526020604060002054604051908152f35b34610383576020366003190112610383576001600160a01b03611f46613a01565b16600052601c6020526040600020805461104560026001840154930154604051938493846040919493926060820195825260208201520152565b34610383576000366003190112610383576020601454604051908152f35b3461038357366003190161012081126103835760a013610383576001600160401b0360a43560e43582811161038357611fdb903690600401613a5a565b9190926101043590811161038357611ff7903690600401613a5a565b60ff60045460a01c166103fd5761203d612046926103c361201736613d77565b97612022895161567e565b6020890197612031895161567e565b876120fd573691613b38565b9060c4356143c7565b60018101805460ff60a01b1916600160a31b17905584518051959294909290600f830160038810156120e757602097815464ffffffff00998a97015160ff64ffffffffff199b8c9260081b16931691161717905560108301905180519060038210156120e75760209860ff6012978b865494015160081b16931691161717905561ffff6040601184019201511661ffff198254161790550155604051908152f35b634e487b7160e01b600052602160045260246000fd5b61077f8861491e565b34610383576000366003190112610383576040517f00000000000000000000000000000000000000000000000000000000000000006001600160a01b03168152602090f35b34610383576080366003190112610383576001600160401b036004356044358281116103835761217f903690600401613a5a565b9190926064359081116103835761219a903690600401613a5a565b60ff60049492945460a01c166103fd57821515806121f0575b611bd857611d9c600e946103c36020976121ce953691613b38565b60018101805460ff60a01b1916600360a11b1790559290920155604051908152f35b5060125483106121b3565b34610383576000366003190112610383576020600b54604051908152f35b34610383576020366003190112610383576001600160a01b0361223a613a01565b1660005260116020526060604060002060ff815416906002600182015491015490604051921515835260208301526040820152f35b3461038357602036600319011261038357612288613a01565b6001600160a01b03818116907f0000000000000000000000000000000000000000000000000000000000000000168114611adf57600052601c60205260406000209060038201805460ff811615611adf57835415801590612312575b6123005760006002858261001a9755015560ff1916905561481d565b60405163dda495d160e01b8152600490fd5b50600284015415156122e4565b3461038357600036600319011261038357601a5461233c81613cd6565b9060009060005b81811061239557505061235581613cd6565b9160005b828110612376576040516020808252819061104590820187613ae9565b8061238360019284613d63565b5161238e8287613d63565b5201612359565b806123a1600192613d08565b90549060031b1c8060005260176020526123bf4260406000206147ff565b6123cb575b5001612343565b6123de6123d786613d54565b9587613d63565b52856123c4565b34610383576123f336613a87565b909493919260ff60045460a01c166103fd576020956103c36103cb9261241a963691613b38565b60018101805460ff60a01b1916600360a01b1790556002810180546001600160a01b0319166001600160a01b039485161790556004549192909133911614612466575b50604051908152f35b601e01805460ff191660011790558261245d565b3461038357604036600319011261038357600435612496613a17565b601654821015610c37576040916000526017602052816000209060018060a01b031660005260188101602052601960ff836000205416910160205260ff8260002054168251911515825215156020820152f35b34610383576000366003190112610383576020600a54604051908152f35b3461038357602036600319011261038357612520613a2d565b60045460ff8160a01c166000146125825730331415908161256e575b50610470576020600080516020615ed7833981519152915b151560ff19600c541660ff821617600c55604051908152a1005b6001600160a01b031633141590508261253c565b503033036104a7576020600080516020615ed783398151915291612554565b346103835760403660031901126103835760206103f56125bf613a01565b6125c7613a17565b90613bf7565b346103835760003660031901126103835760405180601d5480835260208093018091601d600052846000209060005b8682821061265b57868661261282880383613756565b604051928392818401908285525180915260408401929160005b82811061263b57505050500390f35b83516001600160a01b03168552869550938101939281019260010161262c565b83546001600160a01b0316855290930192600192830192016125fc565b34610383576000366003190112610383576020600654604051908152f35b346103835760c0366003190112610383576126af613a01565b6024356044358015158103610383576064356084359160a4359360045460ff8160a01c166000146128bb573033141590816128a7575b50610470575b6001600160a01b03958616801515908161287a575b5061286857806127cf575b50612792575b83600080516020615eb783398151915260a060055492600154600254600354916040519687526020870152604086015260608501527f000000000000000000000000000000000000000000000000000000000000000060808501527f00000000000000000000000000000000000000000000000000000000000000001692a2005b6127be7f00000000000000000000000000000000000000000000000000000000000000008484846150e5565b600155600255600355818080612711565b6127d88161491e565b6127e0613e81565b6127e86138ed565b81158015612827575b1561280e575050806006556005555b612808615bac565b8561270b565b61281c91600d549184615b24565b600655600555612800565b506128328151613e1e565b60038110156120e7571580159061284a575b156127f1565b506128586020820151613e1e565b60038110156120e7571515612844565b60405163b078ee9d60e01b8152600490fd5b9050867f000000000000000000000000000000000000000000000000000000000000000016141587612700565b6001600160a01b03163314159050876126e5565b503330146126eb576040516327568d2f60e11b8152600490fd5b346103835760208060031936011261038357600435906128f36141a1565b601654821015610c3757816000526017815260406000209160ff91600454928060a094851c16806131ff575b6103fd57601e850194818654168080916131f2575b6131e0571561315d575b601781019586549583871661314b57601383015460148401541015613139576001978860ff19809916179055878301908460018060a01b03928381541660005260198852816040600020541680613127575b613108575b54821c16600a8110156120e75780612a0d575050505082600080516020615ed78339815191528594612a089785600080516020615f17833981519152966008606097015416151591600c541690821617600c55604051908152a15b604080519188835282015260006040820152a26141c4565b600055005b90939194929750888114600014612c50575083600282015416916009820154975460081c1696600a82015490600c600b840154930154938015159081612c23575b506128685780612b38575b50606093879693600080516020615f178339815191529693600080516020615eb783398151915293612a089b612afc575b505050600554928a5460025460035491604051968752878701526040860152868501527f000000000000000000000000000000000000000000000000000000000000000060808501527f00000000000000000000000000000000000000000000000000000000000000001692a26129f0565b612b287f00000000000000000000000000000000000000000000000000000000000000008484846150e5565b8c556002556003558a8080612a8a565b612b418161491e565b612b49613e81565b612b516138ed565b81158015612bcb575b93612a089b606098948c9b9894600080516020615f178339815191529b9894600080516020615eb783398151915298600014612bb2575050806006556005555b612ba2615bac565b9b50935093965093965093612a59565b612bc091600d549184615b24565b600655600555612b9a565b50612bd68151613e1e565b60038110156120e75715801590612bee575b15612b5a565b5095919794909693612c0286880151613e1e565b9360038510156120e757959894979296919590949093909291901515612be8565b9050867f00000000000000000000000000000000000000000000000000000000000000001614158b612a4e565b939650939290919060028103612ed95750505083600283015416938060038401541691612c84600760048601549501613819565b91831561056e578415610b87577f00000000000000000000000000000000000000000000000000000000000000001692868403612d96576040516370a0823160e01b81523060048201528281602481885afa908115610a2c57600091612d69575b50600b54808211156109e857612cfa91613bea565b85116109e857612a089686600080516020615f3783398151915260609588612d46849a87600080516020615f178339815191529b6109b9600a54808511156000146109e2578490613bea565b612d61604051928392835260408984015260408301906139a1565b0390a46129f0565b90508281813d8311612d8f575b612d808183613756565b81010312610383575189612ce5565b503d612d76565b959391925083612e175760008052601c81526040600020479054808211600014612e0e57612dc391613bea565b82116109e8576000808080858a5af1612dda614036565b5015610ab857612a0895859485600080516020615f37833981519152600080516020615f1783398151915296606096612d46565b50506000612dc3565b83600052601c81526040600020604051906370a0823160e01b82523060048301528282602481895afa918215610a2c57600092612eaa575b505480821115612ea157612e6291613bea565b82116109e857858486600080516020615f37833981519152600080516020615f178339815191529686612e9c606098612a089d869c614930565b612d46565b50506000612e62565b9091508281813d8311612ed2575b612ec28183613756565b8101031261038357519089612e4f565b503d612eb8565b9395929360038103612f135750505060608392612f0e84600080516020615f17833981519152946002612a0899015416615458565b6129f0565b9384600482989614600014612f9657505050506003819201541690811561056e5760045490811690818314611adf576001600160a01b0319168217600455612a08938392600080516020615f178339815191529260609291907f0f3a6964a8ba1b7473a14630b029eae6d49bec6babf098223718bacaac7197cc600080a36129f0565b9294919350916005810361301d575001546004549290811615159083831c161515811461060f5760ff60a01b199092169082901b60ff60a01b1617600455604051908152612a08928291600080516020615f17833981519152916060917fa8adfe89c6bc95edbe7049ed316f0473a03af92b1fd027ce1ac670082467c623908290a16129f0565b9250925050600681146000146130a25750600e01546012548115159081613098575b50611bd857600080516020615f178339815191526060847fb63bcc75a862434e97db3146b78681478a2692253df1de5623d497ee61fac799612a0896858796600d55604051908152a16130906156fa565b612f0e615726565b905081108561303f565b600781036130d05750600080516020615f178339815191526060612a0894612f0e6114ad600d879601613819565b600803611adf57600080516020615f178339815191526060612a0894612f0e8460126130ff600f899801613967565b9101549061497f565b6019885260406000208a81541690556018885260006040812055612995565b50601888528860406000205414612990565b60405163c8c93ba360e01b8152600490fd5b604051630dc1019760e01b8152600490fd5b601c810154801561319057600f5461317491613bca565b42106131ce57601a81015480151590816131a2575b501561293e575b60405163aa26a69360e01b8152600490fd5b6013830154612710808202935081159184041417156110e6576131c790600e54613bd7565b1187613189565b60405163a905056160e01b8152600490fd5b604051633fc30bd160e11b8152600490fd5b5060158201544210612934565b50806001860154851c16600a8110156120e7576005141561291f565b34610383576020366003190112610383576001600160a01b0361323c613a01565b1660005260116020526080604060002060ff8154169060018101549060036002820154910154916040519315158452602084015260408301526060820152f35b34610383576000366003190112610383576020600554604051908152f35b34610383576000366003190112610383576020600254604051908152f35b34610383576000366003190112610383576040516132d581613720565b6007549060ff821660038110156120e757815263ffffffff809260081c16602082015260405161330481613720565b6008549260ff84169360038510156120e75760a094835260081c16602082015261334661ffff600954169161333c60405180956139e1565b60408401906139e1565b6080820152f35b34610383576000366003190112610383576020600154604051908152f35b346103835760203660031901126103835760048035600090815260176020526040902061032081905280546103005260018101546101605260028101546001600160a01b039081166101405260038201541661034052908101546102e0526133d590600501613819565b610360526133e860066103205101613819565b6133f760076103205101613819565b61032051600881015460ff166102a0526009810154600a820154600b830154600c8401546102805291949193909261343190600d01613819565b6102c052600e61032051015461012052613450600f6103205101613967565b946012610320510154946013610320510154608052601461032051015460a052601561032051015460e05260166103205101546102605260ff60176103205101541661024052601a61032051015461022052601b61032051015461020052601c6103205101546101e052601d6103205101546101c052601e6103205101546101a052601f6103205101546101805260ff6020610320510154166101005260405160c0526103005160c0515260018060a01b036101605116602060c0510152600a60ff6101605160a01c1610156120e75761ffff946135a36135ec9461359060409760ff6101605160a01c168960c051015261014051606060c051015261034051608060c05101526102e05160a060c051015261046060c08051015261357e61046060c05101610360516139a1565b9060c051820360e060c05101526139a1565b9060c051820361010060c05101526139a1565b926102a051151561012060c051015261014060c051015261016060c051015261018060c0510152610280516101a060c051015260c05181036101c060c05101526102c0516139a1565b93610120516101e060c051015261360a61020060c0510182516139e1565b61361f602082015161024060c05101906139e1565b01511661028060c05101526102a060c05101526080516102c060c051015260a0516102e060c051015260e05161030060c05101526102605161032060c051015261024051151561034060c05101526102205161036060c05101526102005161038060c05101526101e0516103a060c05101526101c0516103c060c051015260ff6101a0511615156103e060c051015260ff6101a05160081c16151561040060c05101526101805161042060c051015261010051151561044060c051015260c051900360c051f35b90600182811c92168015613716575b602083101461370057565b634e487b7160e01b600052602260045260246000fd5b91607f16916136f5565b604081019081106001600160401b038211176116cb57604052565b606081019081106001600160401b038211176116cb57604052565b90601f801991011681019081106001600160401b038211176116cb57604052565b604051906000826010549161378b836136e6565b8083526020936001908181169081156137f957506001146137b7575b50506137b592500383613756565b565b90939150601060005281600020936000915b8183106137e15750506137b5935082010138806137a7565b855488840185015294850194879450918301916137c9565b9150506137b594925060ff191682840152151560051b82010138806137a7565b9060405191826000825461382c816136e6565b9081845260209460019160018116908160001461389a575060011461385b575b5050506137b592500383613756565b600090815285812095935091905b8183106138825750506137b5935082010138808061384c565b85548884018501529485019487945091830191613869565b925050506137b594925060ff191682840152151560051b82010138808061384c565b906040516138c981613720565b80925460ff811660038110156120e75760209163ffffffff91845260081c16910152565b604051906138fa8261373b565b8160405161390781613720565b6007549060ff821660038110156120e757815263ffffffff809260081c16602082015282526040519061393982613720565b60085460ff811660038110156120e757835260081c1660208201526020820152604061ffff60095416910152565b906040516139748161373b565b604061ffff60028395613986816138bc565b8552613994600182016138bc565b6020860152015416910152565b919082519283825260005b8481106139cd575050826000602080949584010152601f8019910116010190565b6020818301810151848301820152016139ac565b80519060038210156120e757602063ffffffff9181938552015116910152565b600435906001600160a01b038216820361038357565b602435906001600160a01b038216820361038357565b60043590811515820361038357565b3461038357600036600319011261038357602060405162093a808152f35b9181601f84011215610383578235916001600160401b038311610383576020838186019501011161038357565b6080600319820112610383576004356001600160a01b03811681036103835791602435916001600160401b03916044358381116103835782613acb91600401613a5a565b9390939260643591821161038357613ae591600401613a5a565b9091565b90815180825260208080930193019160005b828110613b09575050505090565b835185529381019392810192600101613afb565b6001600160401b0381116116cb57601f01601f191660200190565b929192613b4482613b1d565b91613b526040519384613756565b829481845281830111610383578281602093846000960137010152565b9080601f8301121561038357816020613b8a93359101613b38565b90565b60806003198201126103835760043580151581036103835791602435916001600160401b03916044358381116103835782613acb91600401613a5a565b919082018092116110e657565b818102929181159184041417156110e657565b919082039182116110e657565b60018060a01b0380911690600092828452601160205260ff60408520541615613cb9578116907f0000000000000000000000000000000000000000000000000000000000000000168114613cac57808352601c602052604083209060ff60038301541615613cb9578284526011602052613c79604085206001840154936142dc565b928452601f60205260408420908452602052604083205491808310613cb1575b5081811115613cac57613b8a9250613bea565b505090565b915038613c99565b50505090565b6001600160401b0381116116cb5760051b60200190565b90613ce082613cbf565b613ced6040519182613756565b8281528092613cfe601f1991613cbf565b0190602036910137565b601a54811015613d2357601a60005260206000200190600090565b634e487b7160e01b600052603260045260246000fd5b601d54811015613d2357601d60005260206000200190600090565b60001981146110e65760010190565b8051821015613d235760209160051b010190565b6003198101919060a08312610383576040805191613d948361373b565b8183951261038357815190613da882613720565b60043560038110156103835782526024359063ffffffff92838316830361038357849260208201528552604319011261038357815190613de782613720565b6044356003811015610383578252606435908116810361038357602082015260208301526084359161ffff83168303610383570152565b5160038110156120e75790565b90601f8111613e3957505050565b6000916000526020600020906020601f850160051c83019410613e77575b601f0160051c01915b828110613e6c57505050565b818155600101613e60565b9092508290613e57565b6012548015613e995760001981019081116110e65790565b50600090565b91908015801561402c575b61401a57601a549160009360005b848110613fd3575084811015613fa357613ed183613cd6565b916000958694875b8888821080613f9a575b15613f4d575080613ef6613f4292613d08565b90549060031b1c806000526017602052613f144260406000206147ff565b15613f475786613f238a613d54565b9910613f4757613f3c613f358c613d54565b9b89613d63565b52613d54565b613ed9565b50613d54565b9397505050929350613f5e91613bca565b1092613f6981613cd6565b9160005b828110613f7b575050509190565b80613f8860019284613d63565b51613f938287613d63565b5201613f6d565b50828110613ee3565b5092505050604051602081018181106001600160401b038211176116cb5760405260008152600036813790600090565b613fdc81613d08565b90549060031b1c6000526017602052613ff94260406000206147ff565b614006575b600101613eb8565b94614012600191613d54565b959050613ffe565b6040516381f396b760e01b8152600490fd5b5060648111613eaa565b3d15614061573d9061404782613b1d565b916140556040519384613756565b82523d6000602084013e565b606090565b6001600160a01b031660009081526011602052604090205460ff161561408b57600190565b600090565b90600090600090831561413757601a93601a5490811561412e5793905b80151580614125575b15614109576000198101908111614111576140d090613d08565b90549060031b1c80845260176020526140ec42604086206147ff565b61410957906140fd614102926141c4565b613d54565b84546140ad565b509350915050565b634e487b7160e01b84526011600452602484fd5b508482106140b6565b50509250905090565b9250905090565b6001600160a01b03166000908152601160205260409020805460ff1615613e9957600360145491015480821160001461417a57613b8a91613bea565b5050600090565b811561418b570690565b634e487b7160e01b600052601260045260246000fd5b6002600054146141b2576002600055565b604051633ee5aeb560e01b8152600490fd5b600090808252601b602052604082205480156142bb57600019908082018181116142a757601a5483810190811161429357808203614247575b505050601a5480156142335781019061421582613d08565b909182549160031b1b19169055601a558152601b6020526040812055565b634e487b7160e01b84526031600452602484fd5b6142669161425761427f92613d08565b90549060031b1c928391613d08565b90919082549060031b91821b91600019901b1916179055565b8452601b60205260408420553880806141fd565b634e487b7160e01b86526011600452602486fd5b634e487b7160e01b85526011600452602485fd5b505050565b8054821015613d235760005260206000209060011b0190600090565b9060048083019182549384156143bb57506002810154600180920154906000955b80871061432d575050505050811561417a5760001982019182116110e657600191614327916142c0565b50015490565b6143378188613bca565b841c9061434482886142c0565b50546001600160401b03908181168086101561436357505050506142fd565b9299928511156143955750505083810180911161438057956142fd565b601185634e487b7160e01b6000525260246000fd5b91989160401c168410156143a957506142fd565b965083810180911161438057956142fd565b60010154949350505050565b9192909260009233845260206011815260409160ff8387205416156147ee573386526019825260ff838720541661477e575b80614778575062093a80955b62093a8087106147675762278d008711614756576016549261442684613d54565b60165583875260178352808720848155600180820180546001600160a01b031916331790559498909789959161445c9042613bca565b9160158a019283554260168b015560058a018551906001600160401b0391828111614742576144958161448f84546136e6565b84613e2b565b88601f82116001146146e55790806144c29287916146da575b508160011b916000199060031b1c19161790565b90555b885160068c01918111614622576144e08161448f84546136e6565b87601f821160011461467b57908061450c92869161467057508160011b916000199060031b1c19161790565b90555b43601f8b015560178a019060ff199182815416905533835260188b018752848320818382541617905560198b01875284832081838254161790558060138c01558260148c015560125480601a8d0155601c8c01848155601e8d0184815416905581151580614659575b614636575b5050601a54600160401b81101561462257857f0a3d356d942a35213f2f2e42f5c07221391ae9a4f16edaa23278b9f8068be7729897969461460e94846145d18d6142668761461d9c99839901601a55613d08565b601a54858452601b8c528484205533835260198b5283832091825416179055601889522055549360608351968796875286015260608501906139a1565b908382039084015233966139a1565b0390a3565b634e487b7160e01b84526041600452602484fd5b42905543601d8d0155601b8c0155614650600f5442613bca565b8455388061457d565b5061466682600e54613bd7565b6127101015614578565b90508b0151386144ae565b828552888520849291601f198316878c8f5b8383106146c35750505083116146aa575b5050811b01905561450f565b8c015160001960f88460031b161c19169055388061469e565b840151855588969094019392830192018c8f61468d565b9050890151386144ae565b828652898620859291601f198316885b8d8d83831061472d575050508311614714575b5050811b0190556144c5565b8a015160001960f88460031b161c191690553880614708565b840151855589969094019392830192016146f5565b634e487b7160e01b85526041600452602485fd5b825163eeeb962360e01b8152600490fd5b82516331806aeb60e21b8152600490fd5b95614405565b6018829695949396528585205485526017825285852060ff6017820154161590816147e0575b50156147bb57855163792c310960e11b8152600490fd5b94919293943386526019825282862060ff1981541690556018825285838120556143f9565b6015915001544210386147a4565b825163148fe22160e11b8152600490fd5b906015820154119081614810575090565b60ff915060170154161590565b6001600160a01b039081166000818152601e60205260408120549092908015614918576000199080820181811161429357601d5490838201918211614904579081818693036148b1575b50505050601d54801561489d57019061487f82613d39565b909182549160031b1b19169055601d558152601e6020526040812055565b634e487b7160e01b85526031600452602485fd5b6148d1926148c16148ef93613d39565b90549060031b1c16928391613d39565b90919060018060a01b038084549260031b9316831b921b1916179055565b8552601e602052604085205538828180614867565b634e487b7160e01b87526011600452602487fd5b50505050565b600a81106107b557600a90066107a357565b60405163a9059cbb60e01b60208201526001600160a01b03909216602483015260448083019390935291815260808101916001600160401b038311828410176116cb576137b592604052615782565b9080614a225750614990815161567e565b602081019061499f825161567e565b80519081519260038410156120e75760209360075464ffffffff00958695015160ff64ffffffffff1997889260081b169316911617176007555180519060038210156120e75761ffff9460ff604095602060085494015160081b1693169116171760085501511661ffff196009541617600955614a1a6156fa565b6137b5615bac565b90614a2c8261491e565b614a36815161567e565b6020810191614a45835161567e565b60065580519081519260038410156120e75760209360075464ffffffff00958695015160ff64ffffffffff1997889260081b169316911617176007555180519060038210156120e75761ffff9460ff604095602060085494015160081b1693169116171760085501511661ffff196009541617600955614a1a6156fa565b811561418b570490565b6001600160a01b0391821691821561056e5782600052601160205260406000209060ff825416614e455760125492600d548015159081614e3a575b50614e285783614e1b575b60055493614b236001548661587d565b90614b306003548761587d565b614b5a7f00000000000000000000000000000000000000000000000000000000000000008861587d565b91614b7283614b6d84614b6d888d613bea565b613bea565b96614b7d8389613bca565b6040516370a0823160e01b815287891660048201526020816024817f00000000000000000000000000000000000000000000000000000000000000008d165afa8015610a2c578b91600091614de6575b5010614dd457600160ff1983541617825542600183015543600283015560018301918284116110e657614ca19260125583614d9e575b6003601454910155614c1789600a54613bca565b600a55614c2684600b54613bca565b600b55614c77867f0000000000000000000000000000000000000000000000000000000000000000898b7f000000000000000000000000000000000000000000000000000000000000000016615997565b3087897f000000000000000000000000000000000000000000000000000000000000000016615997565b614cef837f000000000000000000000000000000000000000000000000000000000000000087897f000000000000000000000000000000000000000000000000000000000000000016615997565b80614d61575090610100949392917f1e609b99246f156bec3eb747e01ae03549c74e403e03208c30200ec52f26ade0966000935b604051998a5260208a01526040890152606088015260808701524260a08701524360c087015260e08601521692a3614d59615726565b6137b56156fa565b600019810195949392919086116110e6577f1e609b99246f156bec3eb747e01ae03549c74e403e03208c30200ec52f26ade0966101009693614d23565b614dcc614dad60155487613bca565b614dc186614dbb8184614ac3565b92614181565b601555601454613bca565b601455614c03565b604051631e9acf1760e31b8152600490fd5b9150506020813d602011614e13575b81614e0260209383613756565b81010312610383578a905138614bcd565b3d9150614df5565b614e236157de565b614b13565b6040516382b675f560e01b8152600490fd5b905084101538614b08565b604051636826b7b960e11b8152600490fd5b60405160009160108054614e6a816136e6565b8085526020948581019181600198898616898160001461507f575060011461503f575b614e9992500382613756565b5190208351858501201461503857614eaf613777565b948351916001600160401b0383116116cb57614eca906136e6565b601f8111614fef575b508490601f8311600114614f62575092614f5292614f2e83614f4597947f71e57b89fe30fe66cb93427236f86ec18c6ec404e26b5c0914ee88193dd07da59997600091614f5757508160011b916000199060031b1c19161790565b90555b6040519485946040865260408601906139a1565b91848303908501526139a1565b0390a1565b9050840151386144ae565b9190601f1982169084600052866000209160005b818110614fda575092614f529592614f45989592827f71e57b89fe30fe66cb93427236f86ec18c6ec404e26b5c0914ee88193dd07da59b999610614fc1575b5050811b019055614f31565b85015160001960f88460031b161c191690553880614fb5565b87830151845592850192918801918801614f76565b8360005285600020601f840160051c81019187851061502e575b601f0160051c019082905b828110615022575050614ed3565b60008155018290615014565b9091508190615009565b5050505050565b5050846000528187806000208a6000915b858310615066575050614e999350820101614e8d565b80919294505483858801015201910188908a8593615050565b915050614e999260ff1987168652151560051b820101614e8d565b919080156150dd5760028301548181116150d4571491826150c6575b50506150c157600090565b600190565b6001015411905038806150b6565b50505050600190565b505050600090565b6150ff926150fa61271095936150fa93613bca565b613bca565b0361510657565b60405163542c8df360e11b8152600490fd5b601254908115615446576001600160a01b0381811692907f00000000000000000000000000000000000000000000000000000000000000001683811461532e57506000836152b8575047915b83600052601c6020526040928360002090815490818111156152a7579061518a91613bea565b9185600052601c60205260038560002001805460ff81161561522a575b5050509061461d826000956151cd84600080516020615ef7833981519152979654613bca565b825561520f60028301926151f66151e5855488613bca565b976151f0818a614ac3565b98614181565b8094600183016152078a8254613bca565b905555615a8a565b51938493846040919493926060820195825260208201520152565b610100601d969594965410156152965760ff19166001179055601d5493600160401b8510156116cb5760009561527c61461d936148d1886001600080516020615ef78339815191529a01601d55613d39565b601d54888852601e602052818820559581939495506151a7565b8651636ff5066b60e11b8152600490fd5b8551631ab9ebab60e01b8152600490fd5b6040516370a0823160e01b8152306004820152602081602481885afa9182156153225780926152ea575b505091615164565b9091506020823d60201161531a575b8161530660209383613756565b8101031261531757505138806152e2565b80fd5b3d91506152f9565b604051903d90823e3d90fd5b6040516370a0823160e01b8152306004820152919250602090829060249082905afa908115610a2c57600091615414575b50600b54918282111561540257826153ac61538b600095600080516020615ef783398151915295613bea565b80926153a4600a548084111589146109e2578390613bea565b600a55613bca565b600b5561461d6153d26153c160155484613bca565b936153cc8186614ac3565b94614181565b6153de84601454613bca565b60145580601555604051938493846040919493926060820195825260208201520152565b604051631ab9ebab60e01b8152600490fd5b90506020813d60201161543e575b8161542f60209383613756565b8101031261038357513861535f565b3d9150615422565b604051630292d7c360e51b8152600490fd5b90601254918215615446576001600160a01b0381811693907f0000000000000000000000000000000000000000000000000000000000000000168481146155d85750600084615571575047915b84600052601c6020526040928360002090815490818111156152a757906154cb91613bea565b9186600052601c60205260038560002001805460ff81161561550a575b50505080600080516020615ef7833981519152946151cd8461461d9454613bca565b610100601d9493945410156152965760ff19166001179055601d5494600160401b8610156116cb5761555861461d936148d1886001600080516020615ef78339815191529a01601d55613d39565b601d5488600052601e60205281600020559481926154e8565b6040516370a0823160e01b8152306004820152602081602481895afa9182156153225780926155a3575b5050916154a5565b9091506020823d6020116155d0575b816155bf60209383613756565b81010312615317575051388061559b565b3d91506155b2565b6040516370a0823160e01b81523060048201529250602090839060249082905afa918215610a2c5760009261564a575b50600b5480831115615402576153ac61563082600080516020615ef783398151915295613bea565b80926153a4600a54808411156000146109e2578390613bea565b9091506020813d602011615676575b8161566660209383613756565b8101031261038357519038615608565b3d9150615659565b805160038110156120e757156156ea57805160038110156120e7576001146156e757805160038110156120e7576002146156c4576040516311c6799960e21b8152600490fd5b6020015163ffffffff16156156d557565b6040516311c6799960e21b8152600490fd5b50565b6020015163ffffffff166156d557565b60065480156156e7576157219061570f613e81565b600d549161571b6138ed565b90615c46565b600555565b600d548015159081615775575b5080615768575b61574057565b600160ff19600c541617600c55600080516020615ed7833981519152602060405160018152a1565b5060ff600c54161561573a565b9050601254101538615733565b906000602091828151910182855af115610a2c576000513d6157d557506001600160a01b0381163b155b6157b35750565b604051635274afe760e01b81526001600160a01b039091166004820152602490fd5b600114156157ac565b60125480156156e757601d54906000805b8381106157fc5750505050565b80615808600192613d39565b838060a01b0391549060031b1c168352601c6020528360408420600281018054908115615874576158398483614ac3565b91821561586a576158649461584d91614181565b905561585d858301918254613bca565b9055615a8a565b016157ef565b5050505050615864565b50505050615864565b90600019818309818302918280831092039180830392146158ed5761271090828211156158da577fbc01a36e2eb1c432ca57a786c226809d495182a9930be0ded288ce703afb7e91940990828211900360fc1b910360041c170290565b634e487b7160005260116020526024601cfd5b505061271091500490565b61271091600019838309928083029283808610950394808603951461598a5784831115615971579082910981600003821680920460028082600302188083028203028083028203028083028203028083028203028083028203028092029003029360018380600003040190848311900302920304170290565b82634e487b71600052156003026011186020526024601cfd5b505090613b8a9250614ac3565b6040516323b872dd60e01b60208201526001600160a01b03928316602482015292909116604483015260648083019390935291815260a08101918183106001600160401b038411176116cb576137b592604052615782565b805467ffffffffffffffff60401b191660409290921b67ffffffffffffffff60401b16919091179055565b8054600160401b8110156116cb57615a37916001820181556142c0565b919091615a74576040600191615a6d6001600160401b03808351166001600160401b0319875416178655602083015116856159ef565b0151910155565b634e487b7160e01b600052600060045260246000fd5b6001600160401b0360018201549060405192615aa58461373b565b814316845260046020850191834216835260408601948552019384548015615b165760001981019081116110e657615add90866142c0565b5094838654168483511614600014615b0757505060019291615b01915116846159ef565b51910155565b92509250506137b59250615a1a565b50925050506137b591615a1a565b91928315615ba557615b369082615cc7565b916020820193615b468551613e1e565b60038110156120e757158015615b9d575b8015615b93575b615b845793615b7c91615b7485613b8a97613bea565b915190615d10565b905190615d10565b925090613b8a93505190615d10565b5083811115615b5e565b508315615b57565b5050905090565b615bb46138ed565b615bbe8151613e1e565b60038110156120e75763ffffffff9081602084510151166020840193615be48551613e1e565b9460038610156120e7577fc15d322942404cf9bfdab1976496465c64f4a3e0f200d90446aff4ec2dff32109561ffff604060a097602060ff955101511694015116938260405196168652602086015216604084015260608301526080820152a1565b9190928115615ba557615c599084615cc7565b6020840192615c688451613e1e565b60038110156120e757158015615cbf575b8015615cb5575b615ca65790615c9881615c9e93613b8a975190615db7565b92613bea565b915190615db7565b91925050613b8a925190615db7565b5081831115615c80565b508115615c79565b6040019061ffff80835116158015615d05575b6150dd5760001982019182116110e657615cf69251169061587d565b8015615cff5790565b50600190565b506001821115615cda565b9180158015615da5575b613cac57815160038110156120e757600114615d7657815160038110156120e757600214615d54576040516311c6799960e21b8152600490fd5b63ffffffff6020615d6793015116615e5b565b80156156d557613b8a916158f8565b63ffffffff6020615d8993015116613bd7565b6127109081018091116110e65780156156d557613b8a916158f8565b50815160038110156120e75715615d1a565b9082158015615e49575b615e4357805160038110156120e757600114615e1857805160038110156120e757600214615dfb576040516311c6799960e21b8152600490fd5b613b8a9263ffffffff6020615e1293015116615e5b565b9061587d565b9163ffffffff6020615e2d9394015116613bd7565b6127109081018091116110e657613b8a9161587d565b50905090565b50805160038110156120e75715615dc1565b908015615eae576127109190805b615e7257505090565b60018080831614615e9d575b1c80615e8b575b80615e69565b615e9682829361587d565b9150615e85565b9282615ea89161587d565b92615e7e565b50506127109056fea00a4448d1c98b3edafbf488446a8320c2cb278ba20dd49c7b5d41a7ebfd582bc2542ff58c47f8c0922a043c4b21423ecd816167eeab1dabfb51d56508d90a66f502c7eda43df8a8ec352065360db3486f90ce32849cf8182983d7939bfd3626af8f9d0e884d3306a083e846741a0bc4d75908e2b0ec63b558219652ae4c1b90d81f085560db5c809c425a15f00e3f2904e4fa46d6e8672ff2e671ccd6d9a231a2646970667358221220456d6afb1774b508815494dda6e99a426498ee1cd2a1bcf06c476c05579aecdf64736f6c634300081700331b6847dc741a1b0cd08d278845f9d819d87b734759afb55fe2de5cb82a9ae672",
  "linkReferences": {},
  "deployedLinkReferences": {}
}