{
  "_format": "hh-sol-artifact-1",
  "contractName": "TEMPL",
  "sourceName": "contracts/TEMPL.sol",
  "abi": [
    {
      "inputs": [
        {
          "internalType": "address",
          "name": "_priest",
          "type": "address"
        },
        {
          "internalType": "address",
          "name": "_protocolFeeRecipient",
          "type": "address"
        },
        {
          "internalType": "address",
          "name": "_token",
          "type": "address"
        },
        {
          "internalType": "uint256",
          "name": "_entryFee",
          "type": "uint256"
        },
        {
          "internalType": "uint256",
          "name": "_burnPercent",
          "type": "uint256"
        },
        {
          "internalType": "uint256",
          "name": "_treasuryPercent",
          "type": "uint256"
        },
        {
          "internalType": "uint256",
          "name": "_memberPoolPercent",
          "type": "uint256"
        },
        {
          "internalType": "uint256",
          "name": "_protocolPercent",
          "type": "uint256"
        },
        {
          "internalType": "uint256",
          "name": "_quorumPercent",
          "type": "uint256"
        },
        {
          "internalType": "uint256",
          "name": "_executionDelay",
          "type": "uint256"
        },
        {
          "internalType": "address",
          "name": "_burnAddress",
          "type": "address"
        },
        {
          "internalType": "bool",
          "name": "_priestIsDictator",
          "type": "bool"
        }
      ],
      "stateMutability": "nonpayable",
      "type": "constructor"
    },
    {
      "inputs": [],
      "name": "ActiveProposalExists",
      "type": "error"
    },
    {
      "inputs": [],
      "name": "AlreadyExecuted",
      "type": "error"
    },
    {
      "inputs": [],
      "name": "AlreadyPurchased",
      "type": "error"
    },
    {
      "inputs": [],
      "name": "AmountZero",
      "type": "error"
    },
    {
      "inputs": [],
      "name": "ContractPausedError",
      "type": "error"
    },
    {
      "inputs": [],
      "name": "DictatorshipEnabled",
      "type": "error"
    },
    {
      "inputs": [],
      "name": "DictatorshipUnchanged",
      "type": "error"
    },
    {
      "inputs": [],
      "name": "EntryFeeTooSmall",
      "type": "error"
    },
    {
      "inputs": [],
      "name": "ExecutionDelayActive",
      "type": "error"
    },
    {
      "inputs": [],
      "name": "InsufficientBalance",
      "type": "error"
    },
    {
      "inputs": [],
      "name": "InsufficientPoolBalance",
      "type": "error"
    },
    {
      "inputs": [],
      "name": "InsufficientTreasuryBalance",
      "type": "error"
    },
    {
      "inputs": [],
      "name": "InvalidCallData",
      "type": "error"
    },
    {
      "inputs": [],
      "name": "InvalidEntryFee",
      "type": "error"
    },
    {
      "inputs": [],
      "name": "InvalidPercentage",
      "type": "error"
    },
    {
      "inputs": [],
      "name": "InvalidPercentageSplit",
      "type": "error"
    },
    {
      "inputs": [],
      "name": "InvalidProposal",
      "type": "error"
    },
    {
      "inputs": [],
      "name": "InvalidRecipient",
      "type": "error"
    },
    {
      "inputs": [],
      "name": "InvalidSender",
      "type": "error"
    },
    {
      "inputs": [],
      "name": "JoinedAfterProposal",
      "type": "error"
    },
    {
      "inputs": [],
      "name": "LimitOutOfRange",
      "type": "error"
    },
    {
      "inputs": [],
      "name": "NoMembers",
      "type": "error"
    },
    {
      "inputs": [],
      "name": "NoRewardsToClaim",
      "type": "error"
    },
    {
      "inputs": [],
      "name": "NoTreasuryFunds",
      "type": "error"
    },
    {
      "inputs": [],
      "name": "NotDAO",
      "type": "error"
    },
    {
      "inputs": [],
      "name": "NotMember",
      "type": "error"
    },
    {
      "inputs": [],
      "name": "PriestOnly",
      "type": "error"
    },
    {
      "inputs": [],
      "name": "ProposalExecutionFailed",
      "type": "error"
    },
    {
      "inputs": [],
      "name": "ProposalNotPassed",
      "type": "error"
    },
    {
      "inputs": [],
      "name": "QuorumNotReached",
      "type": "error"
    },
    {
      "inputs": [],
      "name": "ReentrancyGuardReentrantCall",
      "type": "error"
    },
    {
      "inputs": [
        {
          "internalType": "address",
          "name": "token",
          "type": "address"
        }
      ],
      "name": "SafeERC20FailedOperation",
      "type": "error"
    },
    {
      "inputs": [],
      "name": "TokenChangeDisabled",
      "type": "error"
    },
    {
      "inputs": [],
      "name": "VotingEnded",
      "type": "error"
    },
    {
      "inputs": [],
      "name": "VotingNotEnded",
      "type": "error"
    },
    {
      "inputs": [],
      "name": "VotingPeriodTooLong",
      "type": "error"
    },
    {
      "inputs": [],
      "name": "VotingPeriodTooShort",
      "type": "error"
    },
    {
      "anonymous": false,
      "inputs": [
        {
          "indexed": true,
          "internalType": "address",
          "name": "purchaser",
          "type": "address"
        },
        {
          "indexed": false,
          "internalType": "uint256",
          "name": "totalAmount",
          "type": "uint256"
        },
        {
          "indexed": false,
          "internalType": "uint256",
          "name": "burnedAmount",
          "type": "uint256"
        },
        {
          "indexed": false,
          "internalType": "uint256",
          "name": "treasuryAmount",
          "type": "uint256"
        },
        {
          "indexed": false,
          "internalType": "uint256",
          "name": "memberPoolAmount",
          "type": "uint256"
        },
        {
          "indexed": false,
          "internalType": "uint256",
          "name": "protocolAmount",
          "type": "uint256"
        },
        {
          "indexed": false,
          "internalType": "uint256",
          "name": "timestamp",
          "type": "uint256"
        },
        {
          "indexed": false,
          "internalType": "uint256",
          "name": "blockNumber",
          "type": "uint256"
        },
        {
          "indexed": false,
          "internalType": "uint256",
          "name": "purchaseId",
          "type": "uint256"
        }
      ],
      "name": "AccessPurchased",
      "type": "event"
    },
    {
      "anonymous": false,
      "inputs": [
        {
          "indexed": true,
          "internalType": "address",
          "name": "token",
          "type": "address"
        },
        {
          "indexed": false,
          "internalType": "uint256",
          "name": "entryFee",
          "type": "uint256"
        },
        {
          "indexed": false,
          "internalType": "uint256",
          "name": "burnPercent",
          "type": "uint256"
        },
        {
          "indexed": false,
          "internalType": "uint256",
          "name": "treasuryPercent",
          "type": "uint256"
        },
        {
          "indexed": false,
          "internalType": "uint256",
          "name": "memberPoolPercent",
          "type": "uint256"
        },
        {
          "indexed": false,
          "internalType": "uint256",
          "name": "protocolPercent",
          "type": "uint256"
        }
      ],
      "name": "ConfigUpdated",
      "type": "event"
    },
    {
      "anonymous": false,
      "inputs": [
        {
          "indexed": false,
          "internalType": "bool",
          "name": "isPaused",
          "type": "bool"
        }
      ],
      "name": "ContractPaused",
      "type": "event"
    },
    {
      "anonymous": false,
      "inputs": [
        {
          "indexed": false,
          "internalType": "bool",
          "name": "enabled",
          "type": "bool"
        }
      ],
      "name": "DictatorshipModeChanged",
      "type": "event"
    },
    {
      "anonymous": false,
      "inputs": [
        {
          "indexed": true,
          "internalType": "address",
          "name": "token",
          "type": "address"
        },
        {
          "indexed": true,
          "internalType": "address",
          "name": "member",
          "type": "address"
        },
        {
          "indexed": false,
          "internalType": "uint256",
          "name": "amount",
          "type": "uint256"
        }
      ],
      "name": "ExternalRewardClaimed",
      "type": "event"
    },
    {
      "anonymous": false,
      "inputs": [
        {
          "indexed": true,
          "internalType": "address",
          "name": "member",
          "type": "address"
        },
        {
          "indexed": false,
          "internalType": "uint256",
          "name": "amount",
          "type": "uint256"
        },
        {
          "indexed": false,
          "internalType": "uint256",
          "name": "timestamp",
          "type": "uint256"
        }
      ],
      "name": "MemberPoolClaimed",
      "type": "event"
    },
    {
      "anonymous": false,
      "inputs": [
        {
          "indexed": true,
          "internalType": "address",
          "name": "oldPriest",
          "type": "address"
        },
        {
          "indexed": true,
          "internalType": "address",
          "name": "newPriest",
          "type": "address"
        }
      ],
      "name": "PriestChanged",
      "type": "event"
    },
    {
      "anonymous": false,
      "inputs": [
        {
          "indexed": true,
          "internalType": "uint256",
          "name": "proposalId",
          "type": "uint256"
        },
        {
          "indexed": true,
          "internalType": "address",
          "name": "proposer",
          "type": "address"
        },
        {
          "indexed": false,
          "internalType": "uint256",
          "name": "endTime",
          "type": "uint256"
        }
      ],
      "name": "ProposalCreated",
      "type": "event"
    },
    {
      "anonymous": false,
      "inputs": [
        {
          "indexed": true,
          "internalType": "uint256",
          "name": "proposalId",
          "type": "uint256"
        },
        {
          "indexed": false,
          "internalType": "bool",
          "name": "success",
          "type": "bool"
        },
        {
          "indexed": false,
          "internalType": "bytes",
          "name": "returnData",
          "type": "bytes"
        }
      ],
      "name": "ProposalExecuted",
      "type": "event"
    },
    {
      "anonymous": false,
      "inputs": [
        {
          "indexed": true,
          "internalType": "uint256",
          "name": "proposalId",
          "type": "uint256"
        },
        {
          "indexed": true,
          "internalType": "address",
          "name": "token",
          "type": "address"
        },
        {
          "indexed": true,
          "internalType": "address",
          "name": "recipient",
          "type": "address"
        },
        {
          "indexed": false,
          "internalType": "uint256",
          "name": "amount",
          "type": "uint256"
        },
        {
          "indexed": false,
          "internalType": "string",
          "name": "description",
          "type": "string"
        }
      ],
      "name": "TreasuryAction",
      "type": "event"
    },
    {
      "anonymous": false,
      "inputs": [
        {
          "indexed": true,
          "internalType": "uint256",
          "name": "proposalId",
          "type": "uint256"
        },
        {
          "indexed": true,
          "internalType": "address",
          "name": "token",
          "type": "address"
        },
        {
          "indexed": false,
          "internalType": "uint256",
          "name": "amount",
          "type": "uint256"
        },
        {
          "indexed": false,
          "internalType": "uint256",
          "name": "perMember",
          "type": "uint256"
        },
        {
          "indexed": false,
          "internalType": "uint256",
          "name": "remainder",
          "type": "uint256"
        }
      ],
      "name": "TreasuryDisbanded",
      "type": "event"
    },
    {
      "anonymous": false,
      "inputs": [
        {
          "indexed": true,
          "internalType": "uint256",
          "name": "proposalId",
          "type": "uint256"
        },
        {
          "indexed": true,
          "internalType": "address",
          "name": "voter",
          "type": "address"
        },
        {
          "indexed": false,
          "internalType": "bool",
          "name": "support",
          "type": "bool"
        },
        {
          "indexed": false,
          "internalType": "uint256",
          "name": "timestamp",
          "type": "uint256"
        }
      ],
      "name": "VoteCast",
      "type": "event"
    },
    {
      "inputs": [],
      "name": "DEFAULT_VOTING_PERIOD",
      "outputs": [
        {
          "internalType": "uint256",
          "name": "",
          "type": "uint256"
        }
      ],
      "stateMutability": "view",
      "type": "function"
    },
    {
      "inputs": [],
      "name": "MAX_VOTING_PERIOD",
      "outputs": [
        {
          "internalType": "uint256",
          "name": "",
          "type": "uint256"
        }
      ],
      "stateMutability": "view",
      "type": "function"
    },
    {
      "inputs": [],
      "name": "MIN_VOTING_PERIOD",
      "outputs": [
        {
          "internalType": "uint256",
          "name": "",
          "type": "uint256"
        }
      ],
      "stateMutability": "view",
      "type": "function"
    },
    {
      "inputs": [],
      "name": "accessToken",
      "outputs": [
        {
          "internalType": "address",
          "name": "",
          "type": "address"
        }
      ],
      "stateMutability": "view",
      "type": "function"
    },
    {
      "inputs": [
        {
          "internalType": "address",
          "name": "",
          "type": "address"
        }
      ],
      "name": "activeProposalId",
      "outputs": [
        {
          "internalType": "uint256",
          "name": "",
          "type": "uint256"
        }
      ],
      "stateMutability": "view",
      "type": "function"
    },
    {
      "inputs": [],
      "name": "burnAddress",
      "outputs": [
        {
          "internalType": "address",
          "name": "",
          "type": "address"
        }
      ],
      "stateMutability": "view",
      "type": "function"
    },
    {
      "inputs": [],
      "name": "burnPercent",
      "outputs": [
        {
          "internalType": "uint256",
          "name": "",
          "type": "uint256"
        }
      ],
      "stateMutability": "view",
      "type": "function"
    },
    {
      "inputs": [
        {
          "internalType": "address",
          "name": "newPriest",
          "type": "address"
        }
      ],
      "name": "changePriestDAO",
      "outputs": [],
      "stateMutability": "nonpayable",
      "type": "function"
    },
    {
      "inputs": [
        {
          "internalType": "address",
          "name": "token",
          "type": "address"
        }
      ],
      "name": "claimExternalToken",
      "outputs": [],
      "stateMutability": "nonpayable",
      "type": "function"
    },
    {
      "inputs": [],
      "name": "claimMemberPool",
      "outputs": [],
      "stateMutability": "nonpayable",
      "type": "function"
    },
    {
      "inputs": [
        {
          "internalType": "address",
          "name": "_newPriest",
          "type": "address"
        },
        {
          "internalType": "uint256",
          "name": "_votingPeriod",
          "type": "uint256"
        }
      ],
      "name": "createProposalChangePriest",
      "outputs": [
        {
          "internalType": "uint256",
          "name": "",
          "type": "uint256"
        }
      ],
      "stateMutability": "nonpayable",
      "type": "function"
    },
    {
      "inputs": [
        {
          "internalType": "address",
          "name": "_token",
          "type": "address"
        },
        {
          "internalType": "uint256",
          "name": "_votingPeriod",
          "type": "uint256"
        }
      ],
      "name": "createProposalDisbandTreasury",
      "outputs": [
        {
          "internalType": "uint256",
          "name": "",
          "type": "uint256"
        }
      ],
      "stateMutability": "nonpayable",
      "type": "function"
    },
    {
      "inputs": [
        {
          "internalType": "bool",
          "name": "_enable",
          "type": "bool"
        },
        {
          "internalType": "uint256",
          "name": "_votingPeriod",
          "type": "uint256"
        }
      ],
      "name": "createProposalSetDictatorship",
      "outputs": [
        {
          "internalType": "uint256",
          "name": "",
          "type": "uint256"
        }
      ],
      "stateMutability": "nonpayable",
      "type": "function"
    },
    {
      "inputs": [
        {
          "internalType": "bool",
          "name": "_paused",
          "type": "bool"
        },
        {
          "internalType": "uint256",
          "name": "_votingPeriod",
          "type": "uint256"
        }
      ],
      "name": "createProposalSetPaused",
      "outputs": [
        {
          "internalType": "uint256",
          "name": "",
          "type": "uint256"
        }
      ],
      "stateMutability": "nonpayable",
      "type": "function"
    },
    {
      "inputs": [
        {
          "internalType": "uint256",
          "name": "_newEntryFee",
          "type": "uint256"
        },
        {
          "internalType": "uint256",
          "name": "_newBurnPercent",
          "type": "uint256"
        },
        {
          "internalType": "uint256",
          "name": "_newTreasuryPercent",
          "type": "uint256"
        },
        {
          "internalType": "uint256",
          "name": "_newMemberPoolPercent",
          "type": "uint256"
        },
        {
          "internalType": "bool",
          "name": "_updateFeeSplit",
          "type": "bool"
        },
        {
          "internalType": "uint256",
          "name": "_votingPeriod",
          "type": "uint256"
        }
      ],
      "name": "createProposalUpdateConfig",
      "outputs": [
        {
          "internalType": "uint256",
          "name": "",
          "type": "uint256"
        }
      ],
      "stateMutability": "nonpayable",
      "type": "function"
    },
    {
      "inputs": [
        {
          "internalType": "address",
          "name": "_token",
          "type": "address"
        },
        {
          "internalType": "address",
          "name": "_recipient",
          "type": "address"
        },
        {
          "internalType": "uint256",
          "name": "_amount",
          "type": "uint256"
        },
        {
          "internalType": "string",
          "name": "_reason",
          "type": "string"
        },
        {
          "internalType": "uint256",
          "name": "_votingPeriod",
          "type": "uint256"
        }
      ],
      "name": "createProposalWithdrawTreasury",
      "outputs": [
        {
          "internalType": "uint256",
          "name": "",
          "type": "uint256"
        }
      ],
      "stateMutability": "nonpayable",
      "type": "function"
    },
    {
      "inputs": [],
      "name": "cumulativeMemberRewards",
      "outputs": [
        {
          "internalType": "uint256",
          "name": "",
          "type": "uint256"
        }
      ],
      "stateMutability": "view",
      "type": "function"
    },
    {
      "inputs": [
        {
          "internalType": "address",
          "name": "token",
          "type": "address"
        }
      ],
      "name": "disbandTreasuryDAO",
      "outputs": [],
      "stateMutability": "nonpayable",
      "type": "function"
    },
    {
      "inputs": [],
      "name": "entryFee",
      "outputs": [
        {
          "internalType": "uint256",
          "name": "",
          "type": "uint256"
        }
      ],
      "stateMutability": "view",
      "type": "function"
    },
    {
      "inputs": [
        {
          "internalType": "uint256",
          "name": "_proposalId",
          "type": "uint256"
        }
      ],
      "name": "executeProposal",
      "outputs": [],
      "stateMutability": "nonpayable",
      "type": "function"
    },
    {
      "inputs": [],
      "name": "executionDelayAfterQuorum",
      "outputs": [
        {
          "internalType": "uint256",
          "name": "",
          "type": "uint256"
        }
      ],
      "stateMutability": "view",
      "type": "function"
    },
    {
      "inputs": [],
      "name": "getActiveProposals",
      "outputs": [
        {
          "internalType": "uint256[]",
          "name": "",
          "type": "uint256[]"
        }
      ],
      "stateMutability": "view",
      "type": "function"
    },
    {
      "inputs": [
        {
          "internalType": "uint256",
          "name": "offset",
          "type": "uint256"
        },
        {
          "internalType": "uint256",
          "name": "limit",
          "type": "uint256"
        }
      ],
      "name": "getActiveProposalsPaginated",
      "outputs": [
        {
          "internalType": "uint256[]",
          "name": "proposalIds",
          "type": "uint256[]"
        },
        {
          "internalType": "bool",
          "name": "hasMore",
          "type": "bool"
        }
      ],
      "stateMutability": "view",
      "type": "function"
    },
    {
      "inputs": [
        {
          "internalType": "address",
          "name": "member",
          "type": "address"
        },
        {
          "internalType": "address",
          "name": "token",
          "type": "address"
        }
      ],
      "name": "getClaimableExternalToken",
      "outputs": [
        {
          "internalType": "uint256",
          "name": "",
          "type": "uint256"
        }
      ],
      "stateMutability": "view",
      "type": "function"
    },
    {
      "inputs": [
        {
          "internalType": "address",
          "name": "member",
          "type": "address"
        }
      ],
      "name": "getClaimablePoolAmount",
      "outputs": [
        {
          "internalType": "uint256",
          "name": "",
          "type": "uint256"
        }
      ],
      "stateMutability": "view",
      "type": "function"
    },
    {
      "inputs": [],
      "name": "getConfig",
      "outputs": [
        {
          "internalType": "address",
          "name": "token",
          "type": "address"
        },
        {
          "internalType": "uint256",
          "name": "fee",
          "type": "uint256"
        },
        {
          "internalType": "bool",
          "name": "isPaused",
          "type": "bool"
        },
        {
          "internalType": "uint256",
          "name": "purchases",
          "type": "uint256"
        },
        {
          "internalType": "uint256",
          "name": "treasury",
          "type": "uint256"
        },
        {
          "internalType": "uint256",
          "name": "pool",
          "type": "uint256"
        },
        {
          "internalType": "uint256",
          "name": "burnPercentOut",
          "type": "uint256"
        },
        {
          "internalType": "uint256",
          "name": "treasuryPercentOut",
          "type": "uint256"
        },
        {
          "internalType": "uint256",
          "name": "memberPoolPercentOut",
          "type": "uint256"
        },
        {
          "internalType": "uint256",
          "name": "protocolPercentOut",
          "type": "uint256"
        }
      ],
      "stateMutability": "view",
      "type": "function"
    },
    {
      "inputs": [
        {
          "internalType": "address",
          "name": "token",
          "type": "address"
        }
      ],
      "name": "getExternalRewardState",
      "outputs": [
        {
          "internalType": "uint256",
          "name": "poolBalance",
          "type": "uint256"
        },
        {
          "internalType": "uint256",
          "name": "cumulativeRewards",
          "type": "uint256"
        },
        {
          "internalType": "uint256",
          "name": "remainder",
          "type": "uint256"
        }
      ],
      "stateMutability": "view",
      "type": "function"
    },
    {
      "inputs": [],
      "name": "getExternalRewardTokens",
      "outputs": [
        {
          "internalType": "address[]",
          "name": "",
          "type": "address[]"
        }
      ],
      "stateMutability": "view",
      "type": "function"
    },
    {
      "inputs": [],
      "name": "getMemberCount",
      "outputs": [
        {
          "internalType": "uint256",
          "name": "",
          "type": "uint256"
        }
      ],
      "stateMutability": "view",
      "type": "function"
    },
    {
      "inputs": [
        {
          "internalType": "uint256",
          "name": "_proposalId",
          "type": "uint256"
        }
      ],
      "name": "getProposal",
      "outputs": [
        {
          "internalType": "address",
          "name": "proposer",
          "type": "address"
        },
        {
          "internalType": "uint256",
          "name": "yesVotes",
          "type": "uint256"
        },
        {
          "internalType": "uint256",
          "name": "noVotes",
          "type": "uint256"
        },
        {
          "internalType": "uint256",
          "name": "endTime",
          "type": "uint256"
        },
        {
          "internalType": "bool",
          "name": "executed",
          "type": "bool"
        },
        {
          "internalType": "bool",
          "name": "passed",
          "type": "bool"
        }
      ],
      "stateMutability": "view",
      "type": "function"
    },
    {
      "inputs": [
        {
          "internalType": "uint256",
          "name": "_proposalId",
          "type": "uint256"
        }
      ],
      "name": "getProposalSnapshots",
      "outputs": [
        {
          "internalType": "uint256",
          "name": "eligibleVotersPreQuorum",
          "type": "uint256"
        },
        {
          "internalType": "uint256",
          "name": "eligibleVotersPostQuorum",
          "type": "uint256"
        },
        {
          "internalType": "uint256",
          "name": "preQuorumSnapshotBlock",
          "type": "uint256"
        },
        {
          "internalType": "uint256",
          "name": "quorumSnapshotBlock",
          "type": "uint256"
        },
        {
          "internalType": "uint256",
          "name": "createdAt",
          "type": "uint256"
        },
        {
          "internalType": "uint256",
          "name": "quorumReachedAt",
          "type": "uint256"
        }
      ],
      "stateMutability": "view",
      "type": "function"
    },
    {
      "inputs": [
        {
          "internalType": "address",
          "name": "user",
          "type": "address"
        }
      ],
      "name": "getPurchaseDetails",
      "outputs": [
        {
          "internalType": "bool",
          "name": "purchased",
          "type": "bool"
        },
        {
          "internalType": "uint256",
          "name": "timestamp",
          "type": "uint256"
        },
        {
          "internalType": "uint256",
          "name": "blockNum",
          "type": "uint256"
        }
      ],
      "stateMutability": "view",
      "type": "function"
    },
    {
      "inputs": [],
      "name": "getTreasuryInfo",
      "outputs": [
        {
          "internalType": "uint256",
          "name": "treasury",
          "type": "uint256"
        },
        {
          "internalType": "uint256",
          "name": "memberPool",
          "type": "uint256"
        },
        {
          "internalType": "uint256",
          "name": "totalReceived",
          "type": "uint256"
        },
        {
          "internalType": "uint256",
          "name": "totalBurnedAmount",
          "type": "uint256"
        },
        {
          "internalType": "uint256",
          "name": "totalProtocolFees",
          "type": "uint256"
        },
        {
          "internalType": "address",
          "name": "protocolAddress",
          "type": "address"
        }
      ],
      "stateMutability": "view",
      "type": "function"
    },
    {
      "inputs": [
        {
          "internalType": "address",
          "name": "voter",
          "type": "address"
        }
      ],
      "name": "getVoteWeight",
      "outputs": [
        {
          "internalType": "uint256",
          "name": "",
          "type": "uint256"
        }
      ],
      "stateMutability": "view",
      "type": "function"
    },
    {
      "inputs": [
        {
          "internalType": "address",
          "name": "user",
          "type": "address"
        }
      ],
      "name": "hasAccess",
      "outputs": [
        {
          "internalType": "bool",
          "name": "",
          "type": "bool"
        }
      ],
      "stateMutability": "view",
      "type": "function"
    },
    {
      "inputs": [
        {
          "internalType": "address",
          "name": "",
          "type": "address"
        }
      ],
      "name": "hasActiveProposal",
      "outputs": [
        {
          "internalType": "bool",
          "name": "",
          "type": "bool"
        }
      ],
      "stateMutability": "view",
      "type": "function"
    },
    {
      "inputs": [
        {
          "internalType": "uint256",
          "name": "_proposalId",
          "type": "uint256"
        },
        {
          "internalType": "address",
          "name": "_voter",
          "type": "address"
        }
      ],
      "name": "hasVoted",
      "outputs": [
        {
          "internalType": "bool",
          "name": "voted",
          "type": "bool"
        },
        {
          "internalType": "bool",
          "name": "support",
          "type": "bool"
        }
      ],
      "stateMutability": "view",
      "type": "function"
    },
    {
      "inputs": [
        {
          "internalType": "uint256",
          "name": "",
          "type": "uint256"
        }
      ],
      "name": "memberList",
      "outputs": [
        {
          "internalType": "address",
          "name": "",
          "type": "address"
        }
      ],
      "stateMutability": "view",
      "type": "function"
    },
    {
      "inputs": [],
      "name": "memberPoolBalance",
      "outputs": [
        {
          "internalType": "uint256",
          "name": "",
          "type": "uint256"
        }
      ],
      "stateMutability": "view",
      "type": "function"
    },
    {
      "inputs": [
        {
          "internalType": "address",
          "name": "",
          "type": "address"
        }
      ],
      "name": "memberPoolClaims",
      "outputs": [
        {
          "internalType": "uint256",
          "name": "",
          "type": "uint256"
        }
      ],
      "stateMutability": "view",
      "type": "function"
    },
    {
      "inputs": [],
      "name": "memberPoolPercent",
      "outputs": [
        {
          "internalType": "uint256",
          "name": "",
          "type": "uint256"
        }
      ],
      "stateMutability": "view",
      "type": "function"
    },
    {
      "inputs": [],
      "name": "memberRewardRemainder",
      "outputs": [
        {
          "internalType": "uint256",
          "name": "",
          "type": "uint256"
        }
      ],
      "stateMutability": "view",
      "type": "function"
    },
    {
      "inputs": [
        {
          "internalType": "address",
          "name": "",
          "type": "address"
        }
      ],
      "name": "members",
      "outputs": [
        {
          "internalType": "bool",
          "name": "purchased",
          "type": "bool"
        },
        {
          "internalType": "uint256",
          "name": "timestamp",
          "type": "uint256"
        },
        {
          "internalType": "uint256",
          "name": "block",
          "type": "uint256"
        },
        {
          "internalType": "uint256",
          "name": "rewardSnapshot",
          "type": "uint256"
        }
      ],
      "stateMutability": "view",
      "type": "function"
    },
    {
      "inputs": [],
      "name": "paused",
      "outputs": [
        {
          "internalType": "bool",
          "name": "",
          "type": "bool"
        }
      ],
      "stateMutability": "view",
      "type": "function"
    },
    {
      "inputs": [],
      "name": "priest",
      "outputs": [
        {
          "internalType": "address",
          "name": "",
          "type": "address"
        }
      ],
      "stateMutability": "view",
      "type": "function"
    },
    {
      "inputs": [],
      "name": "priestIsDictator",
      "outputs": [
        {
          "internalType": "bool",
          "name": "",
          "type": "bool"
        }
      ],
      "stateMutability": "view",
      "type": "function"
    },
    {
      "inputs": [],
      "name": "proposalCount",
      "outputs": [
        {
          "internalType": "uint256",
          "name": "",
          "type": "uint256"
        }
      ],
      "stateMutability": "view",
      "type": "function"
    },
    {
      "inputs": [
        {
          "internalType": "uint256",
          "name": "",
          "type": "uint256"
        }
      ],
      "name": "proposals",
      "outputs": [
        {
          "internalType": "uint256",
          "name": "id",
          "type": "uint256"
        },
        {
          "internalType": "address",
          "name": "proposer",
          "type": "address"
        },
        {
          "internalType": "enum TemplBase.Action",
          "name": "action",
          "type": "uint8"
        },
        {
          "internalType": "address",
          "name": "token",
          "type": "address"
        },
        {
          "internalType": "address",
          "name": "recipient",
          "type": "address"
        },
        {
          "internalType": "uint256",
          "name": "amount",
          "type": "uint256"
        },
        {
          "internalType": "string",
          "name": "reason",
          "type": "string"
        },
        {
          "internalType": "bool",
          "name": "paused",
          "type": "bool"
        },
        {
          "internalType": "uint256",
          "name": "newEntryFee",
          "type": "uint256"
        },
        {
          "internalType": "uint256",
          "name": "newBurnPercent",
          "type": "uint256"
        },
        {
          "internalType": "uint256",
          "name": "newTreasuryPercent",
          "type": "uint256"
        },
        {
          "internalType": "uint256",
          "name": "newMemberPoolPercent",
          "type": "uint256"
        },
        {
          "internalType": "uint256",
          "name": "yesVotes",
          "type": "uint256"
        },
        {
          "internalType": "uint256",
          "name": "noVotes",
          "type": "uint256"
        },
        {
          "internalType": "uint256",
          "name": "endTime",
          "type": "uint256"
        },
        {
          "internalType": "uint256",
          "name": "createdAt",
          "type": "uint256"
        },
        {
          "internalType": "bool",
          "name": "executed",
          "type": "bool"
        },
        {
          "internalType": "uint256",
          "name": "eligibleVoters",
          "type": "uint256"
        },
        {
          "internalType": "uint256",
          "name": "postQuorumEligibleVoters",
          "type": "uint256"
        },
        {
          "internalType": "uint256",
          "name": "quorumReachedAt",
          "type": "uint256"
        },
        {
          "internalType": "uint256",
          "name": "quorumSnapshotBlock",
          "type": "uint256"
        },
        {
          "internalType": "bool",
          "name": "quorumExempt",
          "type": "bool"
        },
        {
          "internalType": "bool",
          "name": "updateFeeSplit",
          "type": "bool"
        },
        {
          "internalType": "uint256",
          "name": "preQuorumSnapshotBlock",
          "type": "uint256"
        },
        {
          "internalType": "bool",
          "name": "setDictatorship",
          "type": "bool"
        }
      ],
      "stateMutability": "view",
      "type": "function"
    },
    {
      "inputs": [],
      "name": "protocolFeeRecipient",
      "outputs": [
        {
          "internalType": "address",
          "name": "",
          "type": "address"
        }
      ],
      "stateMutability": "view",
      "type": "function"
    },
    {
      "inputs": [],
      "name": "protocolPercent",
      "outputs": [
        {
          "internalType": "uint256",
          "name": "",
          "type": "uint256"
        }
      ],
      "stateMutability": "view",
      "type": "function"
    },
    {
      "inputs": [],
      "name": "purchaseAccess",
      "outputs": [],
      "stateMutability": "nonpayable",
      "type": "function"
    },
    {
      "inputs": [],
      "name": "quorumPercent",
      "outputs": [
        {
          "internalType": "uint256",
          "name": "",
          "type": "uint256"
        }
      ],
      "stateMutability": "view",
      "type": "function"
    },
    {
      "inputs": [
        {
          "internalType": "bool",
          "name": "enabled",
          "type": "bool"
        }
      ],
      "name": "setDictatorshipDAO",
      "outputs": [],
      "stateMutability": "nonpayable",
      "type": "function"
    },
    {
      "inputs": [
        {
          "internalType": "bool",
          "name": "_paused",
          "type": "bool"
        }
      ],
      "name": "setPausedDAO",
      "outputs": [],
      "stateMutability": "nonpayable",
      "type": "function"
    },
    {
      "inputs": [],
      "name": "totalBurned",
      "outputs": [
        {
          "internalType": "uint256",
          "name": "",
          "type": "uint256"
        }
      ],
      "stateMutability": "view",
      "type": "function"
    },
    {
      "inputs": [],
      "name": "totalPurchases",
      "outputs": [
        {
          "internalType": "uint256",
          "name": "",
          "type": "uint256"
        }
      ],
      "stateMutability": "view",
      "type": "function"
    },
    {
      "inputs": [],
      "name": "totalToMemberPool",
      "outputs": [
        {
          "internalType": "uint256",
          "name": "",
          "type": "uint256"
        }
      ],
      "stateMutability": "view",
      "type": "function"
    },
    {
      "inputs": [],
      "name": "totalToProtocol",
      "outputs": [
        {
          "internalType": "uint256",
          "name": "",
          "type": "uint256"
        }
      ],
      "stateMutability": "view",
      "type": "function"
    },
    {
      "inputs": [],
      "name": "totalToTreasury",
      "outputs": [
        {
          "internalType": "uint256",
          "name": "",
          "type": "uint256"
        }
      ],
      "stateMutability": "view",
      "type": "function"
    },
    {
      "inputs": [],
      "name": "treasuryBalance",
      "outputs": [
        {
          "internalType": "uint256",
          "name": "",
          "type": "uint256"
        }
      ],
      "stateMutability": "view",
      "type": "function"
    },
    {
      "inputs": [],
      "name": "treasuryPercent",
      "outputs": [
        {
          "internalType": "uint256",
          "name": "",
          "type": "uint256"
        }
      ],
      "stateMutability": "view",
      "type": "function"
    },
    {
      "inputs": [
        {
          "internalType": "address",
          "name": "_token",
          "type": "address"
        },
        {
          "internalType": "uint256",
          "name": "_entryFee",
          "type": "uint256"
        },
        {
          "internalType": "bool",
          "name": "_updateFeeSplit",
          "type": "bool"
        },
        {
          "internalType": "uint256",
          "name": "_burnPercent",
          "type": "uint256"
        },
        {
          "internalType": "uint256",
          "name": "_treasuryPercent",
          "type": "uint256"
        },
        {
          "internalType": "uint256",
          "name": "_memberPoolPercent",
          "type": "uint256"
        }
      ],
      "name": "updateConfigDAO",
      "outputs": [],
      "stateMutability": "nonpayable",
      "type": "function"
    },
    {
      "inputs": [
        {
          "internalType": "uint256",
          "name": "_proposalId",
          "type": "uint256"
        },
        {
          "internalType": "bool",
          "name": "_support",
          "type": "bool"
        }
      ],
      "name": "vote",
      "outputs": [],
      "stateMutability": "nonpayable",
      "type": "function"
    },
    {
      "inputs": [
        {
          "internalType": "address",
          "name": "token",
          "type": "address"
        },
        {
          "internalType": "address",
          "name": "recipient",
          "type": "address"
        },
        {
          "internalType": "uint256",
          "name": "amount",
          "type": "uint256"
        },
        {
          "internalType": "string",
          "name": "reason",
          "type": "string"
        }
      ],
      "name": "withdrawTreasuryDAO",
      "outputs": [],
      "stateMutability": "nonpayable",
      "type": "function"
    },
    {
      "stateMutability": "payable",
      "type": "receive"
    }
  ],
  "bytecode": "0x61010034620002ea57601f6200426038819003918201601f191683019291906001600160401b03841183851017620002ef57816101809284926040968752833981010312620002ea57620000538162000305565b620000616020830162000305565b6200006e84840162000305565b91606084015193608081015160a08201519060c083015160e0840151926101008501519261012086015194610160620000ab610140890162000305565b970151998a1515809b03620002ea5760016000556001600160a01b0399808b16158015620002df575b620002ce57916200011e9160649360a05260c05260049b8c549060ff60a01b9060a01b169060ff60a01b1916178c558060805262000118866200011887876200031a565b6200031a565b03620002be57600155600255600355806200029c575060216009555b8062000296575062093a805b600a5580831662000290575061dead5b60e052168015620002815782156200027257600a83106200026357600a8306620002545781546001600160a01b0319161790556005556008805460ff1916905551613f2190816200033f8239608051818181610519015281816110db015281816114b3015281816120e5015281816137480152613797015260a0518181816111e90152818161168e0152611b69015260c0518181816103d9015281816105520152818161066701528181611031015281816111740152818161151b01528181611f020152818161247101528181612e1b01528181613255015281816135290152818161376e01526137ff015260e05181818161165e01526119e70152f35b508251636fe6a4c960e01b8152fd5b508251635eee050360e11b8152fd5b5082516365e52d5160e11b8152fd5b508251634e46966960e11b8152fd5b62000156565b62000146565b60648111620002ae576009556200013a565b8751631f3b85d360e01b81528690fd5b8a5163542c8df360e11b81528990fd5b8d51634e46966960e11b8152600490fd5b508a821615620000d4565b600080fd5b634e487b7160e01b600052604160045260246000fd5b51906001600160a01b0382168203620002ea57565b919082018092116200032857565b634e487b7160e01b600052601160045260246000fdfe610200604052600436101561001c575b361561001a57600080fd5b005b60003560e01c8063013cf08b146128b657806303807ee51461289857806304ef9d581461287a578063072ea61c1461285c57806308ae4b0c146127fb5780630d61b519146122bf5780630f852b9a146122395780631808022a146122165780631df260a01461214e5780631f4b1acb1461203f578063215809ca1461130f578063240d3a0614611eba578063313dab2014611e9c57806332f974b314611e255780634385963214611db657806353eee21214611d8a5780635584c4f914611cc85780635962a94114611caa57806359c266ff14611c8c5780635c975abb14611c695780635fa7ddf014611c4b578063640c4fa214611bee57806364653f2914611b9857806364df049e14611b53578063653724d614611aeb5780636898b19c14611acd5780636a49942714611a6e5780636ad1855014611a345780637070ac4814611a1657806370d5ae05146119d157806371e86b6a1461193d578063840634c5146118d55780638f78bbc41461189357806395a078e814611854578063997072f71461183657806399e288d814611433578063a51a46b914611415578063a64e024a146113f7578063a730117e146113d4578063a81bbe3c1461139a578063aa5c442b14611332578063adadef2714611314578063aedfe53f1461130f578063b307fc6d146112b4578063bdb75b3414611296578063bebc8fc01461126d578063c1b57edb1461124f578063c293947114611140578063c3f909d41461100b578063c470dd9014610e37578063c7f758a814610d57578063c9d27afe14610a33578063cf3264c1146109aa578063cfb5446014610928578063d402d4be146105e3578063d89135cd146105c5578063da35c664146105a7578063dddac84414610581578063e243c5fb1461053c578063f0a827a414610501578063f2be51ea14610475578063f7158b2a14610343578063f81cbd26146103255763ffafe4ad0361000f5734610320576020366003190112610320576001600160a01b03610302612c4d565b166000526013602052602060ff604060002054166040519015158152f35b600080fd5b34610320576000366003190112610320576020600954604051908152f35b346103205760003660031901126103205733600052600b60205260ff604060002054161561046357610373613169565b61037c33612d57565b80156104515780610392600754600f5490612d4a565b1061043f57600e5433600052600b602052600360406000200155600d60205260406000206103c1828254612d3d565b90556103cf81600754612d4a565b60075561040681337f00000000000000000000000000000000000000000000000000000000000000006001600160a01b0316613acb565b6040519081524260208201527fc4e740509dbfae3377bc9925dd7bcc8aaba69cd730316216d76b2d24725c636660403392a26001600055005b60405163bc6072f160e01b8152600490fd5b6040516373380d9960e01b8152600490fd5b60405163148fe22160e11b8152600490fd5b346103205760203660031901126103205761048e612c4d565b60045460ff8160a01c166000146104de573033141590816104ca575b506104b85761001a9061323c565b60405163626243e960e01b8152600490fd5b6001600160a01b03163314159050826104aa565b503033036104ef5761001a9061323c565b6040516327568d2f60e11b8152600490fd5b346103205760003660031901126103205760206040517f00000000000000000000000000000000000000000000000000000000000000008152f35b34610320576000366003190112610320576040517f00000000000000000000000000000000000000000000000000000000000000006001600160a01b03168152602090f35b3461032057600036600319011261032057602060ff60045460a01c166040519015158152f35b34610320576000366003190112610320576020601054604051908152f35b34610320576000366003190112610320576020601554604051908152f35b34610320576080366003190112610320576105fc612c4d565b610604612c63565b6044359060643567ffffffffffffffff811161032057610628903690600401612cf6565b9260045460ff8160a01c1660001461090e573033141590816108fa575b506104b8575b6001600160a01b03828116949085156108e85784156108d657807f000000000000000000000000000000000000000000000000000000000000000016921693828514600014610787576040516370a0823160e01b8152306004820152602081602481875afa90811561077b57600091610749575b5060075480821115610737576106d491612d4a565b81116107375761071081600095600080516020613ecc83398151915295610708600654808511158a14610731578490612d4a565b600655613acb565b61072c6040519283928352604060208401526040830190612c0d565b0390a4005b80612d4a565b604051631c7b597b60e11b8152600490fd5b90506020813d602011610773575b8161076460209383612b46565b810103126103205751876106bf565b3d9150610757565b6040513d6000823e3d90fd5b915091831560001461082257506000805260196020527fd2ac945fcc0096878c763e37d6929b78378c1a2defabde8ba7ee5ed1d6e7a5b254479080821115610819576107d291612d4a565b811161073757600080808084885af16107e9612dc3565b501561080757600091600080516020613ecc83398151915291610710565b6040516331d436c760e01b8152600490fd5b505060006107d2565b90918360005260196020526040600020604051906370a0823160e01b8252306004830152602082602481895afa91821561077b576000926108a2575b5054808211156108995761087191612d4a565b83116107375782610894600094600080516020613ecc8339815191529487613acb565b610710565b50506000610871565b9091506020813d6020116108ce575b816108be60209383612b46565b810103126103205751908761085e565b3d91506108b1565b6040516365e52d5160e11b8152600490fd5b604051634e46966960e11b8152600490fd5b6001600160a01b0316331415905085610645565b5033301461064b576040516327568d2f60e11b8152600490fd5b346103205760203660031901126103205760043560105481101561099857600052601160205260c0604060002060128101549060138101549060178101546015820154906014600e84015493015493604051958652602086015260408501526060840152608083015260a0820152f35b604051631dc0650160e31b8152600490fd5b34610320576040366003190112610320576109c3612c79565b60045460a01c60ff16151581151514610a21576018610a196020926109e9602435613892565b60018101805460ff60a01b1916600560a01b17905593909301805491151560ff1660ff1992909216919091179055565b604051908152f35b6040516305548b1760e41b8152600490fd5b34610320576040366003190112610320576004356024908135801515928382036103205733600052600b9060209282845260ff9283604060002054161561046357601054861015610998578560005260118086526040600020938560045460a01c1680610d25575b610d1357600d8501958654421015610d015733600052838852604060002094601487019586548015600014610cdc5750610adf906017890154600e8a015491613c9a565b610cca575b6010870133600052808a528260406000205416858901808c528460406000205416928c526040600020600160ff198254161790558b52610b348360406000209060ff801983541691151516179055565b610c5b575015610c435783860180549060018201809211610c2f57555b6016860154161580610c26575b610b99575b88888860405192835242908301527fcbdf6214089cba887ecbf35a0b6a734589959c9763342c756bb2a80ca2bc9f6e60403393a3005b6012850154908115159384610be1575b50505050610bba575b808080610b63565b4290554360158201556013600c54910155610bd7600a5442612d3d565b9055838080610bb2565b86015460648082029550929391928115918604141715610c14575050610c09906009546130be565b111587808080610ba9565b634e487b7160e01b6000526004526000fd5b50835415610b5e565b8385634e487b7160e01b6000526004526000fd5b600c860180549060018201809211610c2f5755610b51565b90508a81151503610c6d575b50610b51565b15610c9f578584018054600019810191908211610c2f5755600c860180549060018201809211610c2f57555b8a610c67565b600c86018054600019810191908211610c2f575583860180549060018201809211610c2f5755610c99565b60405163f078ca7360e01b8152600490fd5b6015890154610cea92613c9a565b15610ae45760405163f078ca7360e01b8152600490fd5b604051637a19ed0560e01b8152600490fd5b60405163a8ef9e1960e01b8152600490fd5b5085600186015460a01c166007811015610d425760051415610a9b565b50634e487b7160e01b60009081526021600452fd5b346103205760203660031901126103205760043560105481101561099857600052601160205260c0604060002060ff601682015416600014610dfe57600d81015442101580610ded575b60018060a01b0360018301541691600b81015490600c81015460ff600f600d840154930154169260405195865260208601526040850152606084015215156080830152151560a0820152f35b50600b810154600c82015410610da1565b60148101548015610e2f57600a54610e1591612d3d565b4210158015610da15750600b810154600c82015410610da1565b506000610da1565b346103205760a036600319011261032057610e50612c4d565b610e58612c63565b67ffffffffffffffff60643581811161032057610e79903690600401612cf6565b9260ff60045460a01c16610d13576005610e94608435613892565b6001808201805460ff60a01b1916600160a11b1790556002820180546001600160a01b03199081166001600160a01b0397881617909155600383018054909116959097169490941790955560443560048601558551909491909101928111610ff557610f008354612b0c565b601f8111610fae575b506020948590601f8311600114610f4c57928293918392600094610f41575b50501b916000199060031b1c1916179055604051908152f35b015192508780610f28565b90601f198316918560005283826000209360005b87828210610f9657505010610f7d575b505050811b019055610a19565b015160001960f88460031b161c19169055858080610f70565b84860151875590950194938a01938692508a01610f60565b836000526020600020601f830160051c81019160208410610feb575b601f0160051c01905b818110610fe05750610f09565b600081558301610fd3565b9091508190610fca565b634e487b7160e01b600052604160045260246000fd5b34610320576000366003190112610320576040516370a0823160e01b81523060048201527f00000000000000000000000000000000000000000000000000000000000000006001600160a01b0316602082602481845afa801561077b5760009061110c575b60075461014093509081808211156111025761108b91612d4a565b905b6005549160ff6008541691601454916001549260025494600354966040519889526020890152151560408801526060870152608086015260a085015260c084015260e08301526101008201527f0000000000000000000000000000000000000000000000000000000000000000610120820152f35b505060009061108d565b506020823d602011611138575b8161112660209383612b46565b81010312610320576101409151611070565b3d9150611119565b34610320576000366003190112610320576040516370a0823160e01b81523060048201526001600160a01b036020826024817f000000000000000000000000000000000000000000000000000000000000000085165afa90811561077b5760009161121a575b60075460c09350918280821115611210576111c091612d4a565b915b601654601554906018549260405195865260208601526040850152606084015260808301527f00000000000000000000000000000000000000000000000000000000000000001660a0820152f35b50506000916111c2565b90506020823d602011611247575b8161123560209383612b46565b810103126103205760c09151906111a6565b3d9150611228565b34610320576000366003190112610320576020601654604051908152f35b34610320576000366003190112610320576004546040516001600160a01b039091168152602090f35b34610320576000366003190112610320576020601754604051908152f35b3461032057602036600319011261032057600435600c5481101561032057600c6000527fdf6966c971051c3d54ec59162606531493a51404a002842f56009d7e5cf4a8c701546040516001600160a01b039091168152602090f35b612c88565b34610320576000366003190112610320576020600354604051908152f35b346103205760203660031901126103205761134b612c79565b60045460ff8160a01c1660001461138957303314159081611375575b506104b85761001a9061318c565b6001600160a01b0316331415905082611367565b503033036104ef5761001a9061318c565b34610320576020366003190112610320576001600160a01b036113bb612c4d565b16600052600d6020526020604060002054604051908152f35b34610320576020366003190112610320576020610a196113f2612c4d565b61313f565b3461032057600036600319011261032057602060405162278d008152f35b34610320576000366003190112610320576020600f54604051908152f35b346103205760003660031901126103205760ff60085416611824573033146118125761145d613169565b336000526020600b8152604060002080549160ff831661180057600554600193606461148a8654846130be565b0493606461149a600254856130be565b049060646114aa600354866130be565b049260646114d87f0000000000000000000000000000000000000000000000000000000000000000876130be565b04946114f1866114ec876114ec888d612d3d565b612d3d565b8181106117da575b506115048585612d3d565b6040516370a0823160e01b815233600482015290927f00000000000000000000000000000000000000000000000000000000000000006001600160a01b03169290918981602481875afa90811561077b576000916117ad575b501061179b5760ff19168917835542838a0155436002840155600c5491600160401b831015610ff55789830180600c55831015611785578692600c6000527fdf6966c971051c3d54ec59162606531493a51404a002842f56009d7e5cf4a8c701336bffffffffffffffffffffffff60a01b8254161790556115df601454612ebb565b601455600c548a8111611734575b5061168c906116b5946003600e5491015561160a86600654612d3d565b60065561161987600754612d3d565b6007556116288a601554612d3d565b60155561163786601654612d3d565b60165561164687601754612d3d565b60175561165584601854612d3d565b6018556116848a7f00000000000000000000000000000000000000000000000000000000000000003386613c41565b303384613c41565b7f0000000000000000000000000000000000000000000000000000000000000000903390613c41565b6005549460145494600019860195861161171e576040519687528601526040850152606084015260808301524260a08301524360c083015260e08201527fe6d1c0e418a42a777d49c66571075fc47bc1d92e7f506007ddde08d1ff182bbc6101003392a2600055005b634e487b7160e01b600052601160045260246000fd5b9250611742600f5487612d3d565b90600019840193841161171e576116b59461177a8361176f876117698d9961168c986130d1565b92612da3565b600f55600e54612d3d565b600e559450906115ed565b634e487b7160e01b600052603260045260246000fd5b604051631e9acf1760e31b8152600490fd5b90508981813d83116117d3575b6117c48183612b46565b8101031261032057518c61155d565b503d6117ba565b936117f9906117f36117ec8785612d4a565b8092612d3d565b95612d3d565b50896114f9565b604051630cd9ed5560e21b8152600490fd5b604051636edaef2f60e11b8152600490fd5b604051630eceade960e31b8152600490fd5b34610320576000366003190112610320576020600c54604051908152f35b34610320576020366003190112610320576001600160a01b03611875612c4d565b16600052600b602052602060ff604060002054166040519015158152f35b34610320576040366003190112610320576118c96118b5602435600435612f28565b604051928392604084526040840190612ca6565b90151560208301520390f35b34610320576020366003190112610320576118ee612c4d565b60045460ff8160a01c1660001461192c57303314159081611918575b506104b85761001a906131e6565b6001600160a01b031633141590508261190a565b503033036104ef5761001a906131e6565b3461032057604036600319011261032057611956612c4d565b60ff60045460a01c16610d1357602090611971602435613892565b60018101805460ff60a01b1916600360a01b1790556002810180546001600160a01b0319166001600160a01b0394851617905560045491929091339116146119bd575b50604051908152f35b601601805460ff19166001179055826119b4565b34610320576000366003190112610320576040517f00000000000000000000000000000000000000000000000000000000000000006001600160a01b03168152602090f35b34610320576000366003190112610320576020600a54604051908152f35b34610320576020366003190112610320576001600160a01b03611a55612c4d565b1660005260126020526020604060002054604051908152f35b34610320576020366003190112610320576001600160a01b03611a8f612c4d565b16600052601960205260406000208054611ac960026001840154930154604051938493846040919493926060820195825260208201520152565b0390f35b34610320576000366003190112610320576020600e54604051908152f35b3461032057602036600319011261032057611b04612c79565b60045460ff8160a01c16600014611b4257303314159081611b2e575b506104b85761001a90613827565b6001600160a01b0316331415905082611b20565b503033036104ef5761001a90613827565b34610320576000366003190112610320576040517f00000000000000000000000000000000000000000000000000000000000000006001600160a01b03168152602090f35b34610320576020366003190112610320576001600160a01b03611bb9612c4d565b16600052600b6020526060604060002060ff815416906002600182015491015490604051921515835260208301526040820152f35b3461032057604036600319011261032057611c07612c79565b60ff60045460a01c16610d13576006610a19602092611c27602435613892565b6001819592950160ff60a01b198154169055019060ff801983541691151516179055565b34610320576000366003190112610320576020600754604051908152f35b3461032057600036600319011261032057602060ff600854166040519015158152f35b34610320576000366003190112610320576020601854604051908152f35b34610320576000366003190112610320576020601454604051908152f35b34610320576000366003190112610320576010546000805b828110611d525750611cf190612ee2565b906000805b828110611d135760405160208082528190611ac990820187612ca6565b806001916000526011602052611d2d426040600020613c23565b611d38575b01611cf6565b80611d4c611d4585612ebb565b9487612f14565b52611d32565b806000526011602052611d69426040600020613c23565b611d76575b600101611ce0565b90611d82600191612ebb565b919050611d6e565b34610320576040366003190112610320576020610a19611da8612c4d565b611db0612c63565b90612df3565b3461032057604036600319011261032057600435611dd2612c63565b601054821015610998576040916000526011602052816000209060018060a01b031660005260108101602052601160ff836000205416910160205260ff8260002054168251911515825215156020820152f35b34610320576040366003190112610320576001600160a01b03611e46612c4d565b1680156108e85760ff60045460a01c16610d13576003602091611e6a602435613892565b60018101805460ff60a01b1916600160a21b1790559290920180546001600160a01b0319169091179055604051908152f35b34610320576000366003190112610320576020600654604051908152f35b346103205760208060031936011261032057611ed4612c4d565b9033600052600b815260ff604060002054161561046357611ef3613169565b6001600160a01b0382811691907f000000000000000000000000000000000000000000000000000000000000000016821461202d57816000526019815260406000209260ff6003850154161561045157611f4d9033612df3565b92831561045157805484811061043f5784611faa91600184015433600052601b8652604060002087600052865260406000205533600052601c855260406000208660005285526040600020611fa3838254612d3d565b9055612d4a565b905581611ffb57600080808086335af1611fc2612dc3565b5015610807577f26cd6ba06f6dc02c61247f710e95c768f4856af03b740594288907c36bb217e9905b6040519384523393a36001600055005b7f26cd6ba06f6dc02c61247f710e95c768f4856af03b740594288907c36bb217e990612028843385613acb565b611feb565b604051631c49f4d160e01b8152600490fd5b346103205760c0366003190112610320576044356004356084358015159060243590606435908381036103205760ff60045460a01c16610d135784612111575b90602095601693926120e0575b61209760a435613892565b93909660018501600160a01b60ff60a01b19825416179055600785015560088401556009830155600a820155019061ff0082549160081b169061ff001916179055604051908152f35b61210c7f0000000000000000000000000000000000000000000000000000000000000000838386613865565b61208c565b9190600a851061213c57600a850661212a57909161207f565b604051636fe6a4c960e01b8152600490fd5b604051635eee050360e11b8152600490fd5b346103205760003660031901126103205760405180601a5480835260208093018091601a6000527f057c384a7d1c54f3a1b2e5e67b2617b8224fdfd1ea7234eea573a6ff665ff63e9060005b868282106121f95786866121b082880383612b46565b604051928392818401908285525180915260408401929160005b8281106121d957505050500390f35b83516001600160a01b0316855286955093810193928101926001016121ca565b83546001600160a01b03168552909301926001928301920161219a565b34610320576020366003190112610320576020610a19612234612c4d565b612d57565b346103205760c036600319011261032057612252612c4d565b6044359081151582036103205760045460ff8160a01c166000146122ae5730331415908161229a575b506104b85761001a915b60a435916084359160643591602435906136d2565b6001600160a01b031633141590508361227b565b503033036104ef5761001a91612285565b346103205760208060031936011261032057600435906122dd613169565b60105482101561099857816000526011815260406000209060ff8060045460a01c16806127de575b610d135760168301805482166127c057601484015480156127ae57600a5461232c91612d3d565b421061279c575b600f840180549083821661278a57600b860154600c870154101561277857600160ff19809316179055826001860160018060a01b03928382541660005260138752826040600020541680612766575b612746575b505460a01c166007811015612730578690806123dd5750505050906123c26060926006600080516020613eac83398151915295015416613827565b60408051916001835282015260006040820152a26001600055005b92939260018103612431575050918461242c92606095946002600080516020613eac833981519152980154166007830154935493600884015492600a60098601549501549560081c16916136d2565b6123c2565b919493509190600281036126a457505050816002840154168260038501541690612462600560048701549601612b68565b9382156108e85785156108d6577f0000000000000000000000000000000000000000000000000000000000000000169481860361256f576040516370a0823160e01b815230600482015284816024818a5afa90811561077b57600091612542575b5060075480821115610737576124d891612d4a565b811161073757600080516020613ecc8339815191526060958261251f8a9487600080516020613eac8339815191529b61070860065480851115600014610731578490612d4a565b61253a60405192839283526040898401526040830190612c0d565b0390a46123c2565b90508481813d8311612568575b6125598183612b46565b810103126103205751886124c3565b503d61254f565b939450806125e857600080526019835260406000204790548082116000146125df5761259a91612d4a565b841161073757600080808087865af16125b1612dc3565b50156108075785600080516020613ecc833981519152600080516020613eac8339815191529660609661251f565b5050600061259a565b80600052601983526040600020604051906370a0823160e01b82523060048301528482602481865afa91821561077b57600092612675575b50548082111561266c5761263391612d4a565b84116107375785600080516020613ecc833981519152600080516020613eac83398151915296866126676060988787613acb565b61251f565b50506000612633565b9091508481813d831161269d575b61268d8183612b46565b8101031261032057519088612620565b503d612683565b919492939291600381036126d6575050600080516020613eac8339815191529360609392600261242c9301541661350f565b91945090600481036127055750509061242c6060926003600080516020613eac833981519152950154166131e6565b9092915060050361202d5761242c6060926018600080516020613eac8339815191529501541661318c565b634e487b7160e01b600052602160045260246000fd5b601387526040600020908154169055601286526000604081205588612387565b50601287528860406000205414612382565b60405163c8c93ba360e01b8152600490fd5b604051630dc1019760e01b8152600490fd5b60405163a905056160e01b8152600490fd5b60405163aa26a69360e01b8152600490fd5b600d84015442101561233357604051633fc30bd160e11b8152600490fd5b5080600184015460a01c1660078110156127305760051415612305565b34610320576020366003190112610320576001600160a01b0361281c612c4d565b16600052600b6020526080604060002060ff8154169060018101549060036002820154910154916040519315158452602084015260408301526060820152f35b34610320576000366003190112610320576020600554604051908152f35b34610320576000366003190112610320576020600254604051908152f35b34610320576000366003190112610320576020600154604051908152f35b34610320576020366003190112610320576004803560009081526011602052604090206101e0819052805460018201546101405260028201546001600160a01b03908116610160526003830154166101a05291810154919061291a90600501612b68565b60ff60066101e0510154166101205260076101e05101549260086101e051015460096101e0510154600a6101e0510154600b6101e051015490600c6101e051015492600d6101e051015494600e6101e05101549660ff600f6101e0510154169860126101e05101549a60136101e051015460805260146101e051015460a05260156101e051015460e05260166101e05101546101c05260176101e05101546101805260ff60186101e0510154166101005260405160c05260c0515260018060a01b036101405116602060c0510152600760ff6101405160a01c16101561273057612a429160ff6101405160a01c16604060c051015261016051606060c05101526101a051608060c051015260a060c051015261032060c08051015261032060c0510190612c0d565b9961012051151560e060c051015261010060c051015261012060c051015261014060c051015261016060c051015261018060c05101526101a060c05101526101c060c05101526101e060c0510152151561020060c051015261022060c051015260805161024060c051015260a05161026060c051015260e05161028060c051015260ff6101c0511615156102a060c051015260ff6101c05160081c1615156102c060c0510152610180516102e060c051015261010051151561030060c051015260c051900360c051f35b90600182811c92168015612b3c575b6020831014612b2657565b634e487b7160e01b600052602260045260246000fd5b91607f1691612b1b565b90601f8019910116810190811067ffffffffffffffff821117610ff557604052565b90604051918260008254612b7b81612b0c565b90818452602094600191600181169081600014612beb5750600114612bac575b505050612baa92500383612b46565b565b600090815285812095935091905b818310612bd3575050612baa9350820101388080612b9b565b85548884018501529485019487945091830191612bba565b92505050612baa94925060ff191682840152151560051b820101388080612b9b565b919082519283825260005b848110612c39575050826000602080949584010152601f8019910116010190565b602081830181015184830182015201612c18565b600435906001600160a01b038216820361032057565b602435906001600160a01b038216820361032057565b60043590811515820361032057565b3461032057600036600319011261032057602060405162093a808152f35b90815180825260208080930193019160005b828110612cc6575050505090565b835185529381019392810192600101612cb8565b67ffffffffffffffff8111610ff557601f01601f191660200190565b81601f8201121561032057803590612d0d82612cda565b92612d1b6040519485612b46565b8284526020838301011161032057816000926020809301838601378301015290565b9190820180921161171e57565b9190820391821161171e57565b6001600160a01b03166000908152600b60205260409020805460ff1615612d9d576003600e54910154808211600014612d9657612d9391612d4a565b90565b5050600090565b50600090565b8115612dad570690565b634e487b7160e01b600052601260045260246000fd5b3d15612dee573d90612dd482612cda565b91612de26040519384612b46565b82523d6000602084013e565b606090565b60018060a01b0380911690600092828452600b60205260ff60408520541615612eb5578116907f0000000000000000000000000000000000000000000000000000000000000000168114612ea8578083526019602052604083209060ff60038301541615612eb557828452600b602052612e7560408520600184015493613b37565b928452601b60205260408420908452602052604083205491808310612ead575b5081811115612ea857612d939250612d4a565b505090565b915038612e95565b50505090565b600019811461171e5760010190565b67ffffffffffffffff8111610ff55760051b60200190565b90612eec82612eca565b612ef96040519182612b46565b8281528092612f0a601f1991612eca565b0190602036910137565b80518210156117855760209160051b010190565b9160009081831580156130b4575b6130a257601054918286101561306057612f4f85612ee2565b928496805b82821080613057575b15612fc75750808652601180602052612f794260408920613c23565b612fad575b6001820190818311612f9b5750612f959091612ebb565b90612f54565b634e487b7160e01b8852600452602487fd5b81612fc1612fba8b612ebb565b9a88612f14565b52612f7e565b91929690509693929684148061304e575b613017575b5050612fe882612ee2565b925b828110612ff8575050509190565b8061300560019284612f14565b516130108287612f14565b5201612fea565b81811015612fdd5780855260116020526130344260408720613c23565b61304057600101613017565b505093506001933880612fdd565b50818110612fd8565b50878910612f5d565b9350505091506040516020810181811067ffffffffffffffff82111761308e57604052828152823681379190565b634e487b7160e01b84526041600452602484fd5b6040516381f396b760e01b8152600490fd5b5060648411612f36565b8181029291811591840414171561171e57565b8115612dad570490565b601a54600160401b811015610ff5576001810180601a5581101561178557601a6000527f057c384a7d1c54f3a1b2e5e67b2617b8224fdfd1ea7234eea573a6ff665ff63e0180546001600160a01b0319166001600160a01b03909216919091179055565b6001600160a01b03166000908152600b602052604090205460ff161561316457600190565b600090565b60026000541461317a576002600055565b604051633ee5aeb560e01b8152600490fd5b600454901515908160ff8260a01c16151514610a215760ff60a01b191660a082901b60ff60a01b16176004556040519081527fa8adfe89c6bc95edbe7049ed316f0473a03af92b1fd027ce1ac670082467c62390602090a1565b6001600160a01b039081169081156108e8576004549081169081831461202d576001600160a01b03191682176004557f0f3a6964a8ba1b7473a14630b029eae6d49bec6babf098223718bacaac7197cc600080a3565b600c549081156134fd576001600160a01b0381811692907f0000000000000000000000000000000000000000000000000000000000000000168381146133f75750600083613381575047905b83600052601960205260406000209182548082111561336f576132aa91612d4a565b801561336f57613350600080516020613e8c833981519152936000958787526019602052600360408820019081549160ff831615613355575b5050506132f1838254612d3d565b8155613333600282019161331a613309845487612d3d565b9661331481896130d1565b97612da3565b80936001830161332b898254612d3d565b905555613d6d565b604051938493846040919493926060820195825260208201520152565b0390a3565b60016133679360ff19161790556130db565b3880806132e3565b604051631ab9ebab60e01b8152600490fd5b6040516370a0823160e01b8152306004820152602081602481885afa9182156133eb5780926133b3575b505090613288565b9091506020823d6020116133e3575b816133cf60209383612b46565b810103126133e057505138806133ab565b80fd5b3d91506133c2565b604051903d90823e3d90fd5b6040516370a0823160e01b8152306004820152919250602090829060249082905afa90811561077b576000916134cb575b50600754918282111561336f5782613475613454600095600080516020613e8c83398151915295612d4a565b809261346d600654808411158914610731578390612d4a565b600655612d3d565b60075561335061349b61348a600f5484612d3d565b9361349581866130d1565b94612da3565b6134a784600e54612d3d565b600e5580600f55604051938493846040919493926060820195825260208201520152565b90506020813d6020116134f5575b816134e660209383612b46565b81010312610320575138613428565b3d91506134d9565b604051630292d7c360e51b8152600490fd5b90600c549182156134fd576001600160a01b0381811693907f00000000000000000000000000000000000000000000000000000000000000001684811461362c57506000846135c5575047915b84600052601960205260406000209283548082111561336f5761357e91612d4a565b90811561336f57600080516020613e8c833981519152936133509187600052601960205260036040600020019081549160ff831615613355575050506132f1838254612d3d565b6040516370a0823160e01b8152306004820152602081602481895afa9182156133eb5780926135f7575b50509161355c565b9091506020823d602011613624575b8161361360209383612b46565b810103126133e057505138806135ef565b3d9150613606565b6040516370a0823160e01b81523060048201529250602090839060249082905afa91821561077b5760009261369e575b506007548083111561336f5761347561368482600080516020613e8c83398151915295612d4a565b809261346d60065480841115600014610731578390612d4a565b9091506020813d6020116136ca575b816136ba60209383612b46565b810103126103205751903861365c565b3d91506136ad565b6001600160a01b03959493929190861680151590816137fa575b506137e857806137cf575b50613792575b5050507fa00a4448d1c98b3edafbf488446a8320c2cb278ba20dd49c7b5d41a7ebfd582b60a060055492600154600254600354916040519687526020870152604086015260608501527f000000000000000000000000000000000000000000000000000000000000000060808501527f00000000000000000000000000000000000000000000000000000000000000001692a2565b6137be7f0000000000000000000000000000000000000000000000000000000000000000848484613865565b6001556002556003553880806136fd565b600a811061213c57600a810661212a57600555386136f7565b60405163b078ee9d60e01b8152600490fd5b9050867f0000000000000000000000000000000000000000000000000000000000000000161415386136ec565b60207f752d7e161ff5146f80e3820893176eb40532811e5e20400dfdde57455213706a91151560ff196008541660ff821617600855604051908152a1565b613879926114ec606495936114ec93612d3d565b0361388057565b60405163542c8df360e11b8152600490fd5b600091338352602091600b835260409060ff828620541615613aba573385526013845260ff8286205416613a4d575b80613a47575062093a80925b62093a808410613a365762278d008411613a25577f3417b456fad6209c73445d5efd446d686e75e4560f0f50c13b5a5cde976447b46010549161390f83612ebb565b601055829683815260118252838561394881842099838b5560018b01336bffffffffffffffffffffffff60a01b82541617905542612d3d565b92600d8a0193845542600e8b01554360178b0155600f8a0160ff199081815416905533825260108b01865282822060018282541617905560118b0186528282206001828254161790556001600b8c015581600c8c0155600c548060128d015560148c0183815560168d0183815416905581151580613a0f575b6139ec575b5050338252601386526001838320918254161790556012855220555493519384523393a3565b4290554360158d015560138c0155613a06600a5442612d3d565b855538806139c6565b50613a1c826009546130be565b606410156139c1565b815163eeeb962360e01b8152600490fd5b81516331806aeb60e21b8152600490fd5b926138cd565b601284939294528385205485526011835283852060ff600f82015416159081613aac575b5015613a8857835163792c310960e11b8152600490fd5b929091923385526013845281852060ff1981541690556012845284828120556138c1565b600d91500154421038613a71565b815163148fe22160e11b8152600490fd5b60405163a9059cbb60e01b60208201526001600160a01b039092166024830152604480830193909352918152608081019167ffffffffffffffff831182841017610ff557612baa92604052613e2f565b80548210156117855760005260206000209060011b0190600090565b906004808301918254938415613c1757506002810154600180920154906000955b808710613b885750505050508115612d9657600019820191821161171e57600191613b8291613b1b565b50015490565b613b928188612d3d565b841c90613b9f8288613b1b565b505467ffffffffffffffff9081811680861015613bbf5750505050613b58565b929992851115613bf157505050838101809111613bdc5795613b58565b601185634e487b7160e01b6000525260246000fd5b91989160401c16841015613c055750613b58565b9650838101809111613bdc5795613b58565b60010154949350505050565b90600d820154119081613c34575090565b60ff9150600f0154161590565b6040516323b872dd60e01b60208201526001600160a01b03928316602482015292909116604483015260648083019390935291815260a081019181831067ffffffffffffffff841117610ff557612baa92604052613e2f565b91908015613cdd576002830154818111613cd457149182613cc6575b5050613cc157600090565b600190565b600101541190503880613cb6565b50505050600190565b505050600090565b8054600160401b811015610ff557613d0291600182018155613b1b565b919091613d57578051825460208301516fffffffffffffffffffffffffffffffff1990911667ffffffffffffffff9290921691909117604091821b67ffffffffffffffff60401b161783556001910151910155565b634e487b7160e01b600052600060045260246000fd5b67ffffffffffffffff600182015490604051926060840184811083821117610ff557604052814316845260046020850191834216835260408601948552019384548015613e2157600019810190811161171e57613dca9086613b1b565b5094838654168483511614600014613e125750505183546fffffffffffffffff00000000000000001916911660401b67ffffffffffffffff60401b1617825560019051910155565b9250925050612baa9250613ce5565b5092505050612baa91613ce5565b906000602091828151910182855af11561077b576000513d613e8257506001600160a01b0381163b155b613e605750565b604051635274afe760e01b81526001600160a01b039091166004820152602490fd5b60011415613e5956fef502c7eda43df8a8ec352065360db3486f90ce32849cf8182983d7939bfd3626af8f9d0e884d3306a083e846741a0bc4d75908e2b0ec63b558219652ae4c1b90d81f085560db5c809c425a15f00e3f2904e4fa46d6e8672ff2e671ccd6d9a231a2646970667358221220ad44a7565648567e99d8a2bc2ec993eb7e3e7a9485c4611267d33f9ddb5cd39464736f6c63430008170033",
  "linkReferences": {},
  "deployedLinkReferences": {}
}