{
  "_format": "hh-sol-artifact-1",
  "contractName": "TEMPL",
  "sourceName": "contracts/TEMPL.sol",
  "abi": [
    {
      "inputs": [
        {
          "internalType": "address",
          "name": "_priest",
          "type": "address"
        },
        {
          "internalType": "address",
          "name": "_protocolFeeRecipient",
          "type": "address"
        },
        {
          "internalType": "address",
          "name": "_token",
          "type": "address"
        },
        {
          "internalType": "uint256",
          "name": "_entryFee",
          "type": "uint256"
        },
        {
          "internalType": "uint256",
          "name": "_burnPercent",
          "type": "uint256"
        },
        {
          "internalType": "uint256",
          "name": "_treasuryPercent",
          "type": "uint256"
        },
        {
          "internalType": "uint256",
          "name": "_memberPoolPercent",
          "type": "uint256"
        },
        {
          "internalType": "uint256",
          "name": "_protocolPercent",
          "type": "uint256"
        },
        {
          "internalType": "uint256",
          "name": "_quorumPercent",
          "type": "uint256"
        },
        {
          "internalType": "uint256",
          "name": "_executionDelay",
          "type": "uint256"
        },
        {
          "internalType": "address",
          "name": "_burnAddress",
          "type": "address"
        },
        {
          "internalType": "bool",
          "name": "_priestIsDictator",
          "type": "bool"
        },
        {
          "internalType": "uint256",
          "name": "_maxMembers",
          "type": "uint256"
        },
        {
          "internalType": "string",
          "name": "_homeLink",
          "type": "string"
        }
      ],
      "stateMutability": "nonpayable",
      "type": "constructor"
    },
    {
      "inputs": [],
      "name": "ActiveProposalExists",
      "type": "error"
    },
    {
      "inputs": [],
      "name": "AlreadyExecuted",
      "type": "error"
    },
    {
      "inputs": [],
      "name": "AmountZero",
      "type": "error"
    },
    {
      "inputs": [],
      "name": "DictatorshipEnabled",
      "type": "error"
    },
    {
      "inputs": [],
      "name": "DictatorshipUnchanged",
      "type": "error"
    },
    {
      "inputs": [],
      "name": "EntryFeeTooSmall",
      "type": "error"
    },
    {
      "inputs": [],
      "name": "ExecutionDelayActive",
      "type": "error"
    },
    {
      "inputs": [],
      "name": "ExternalRewardLimitReached",
      "type": "error"
    },
    {
      "inputs": [],
      "name": "ExternalRewardsNotSettled",
      "type": "error"
    },
    {
      "inputs": [],
      "name": "InsufficientBalance",
      "type": "error"
    },
    {
      "inputs": [],
      "name": "InsufficientPoolBalance",
      "type": "error"
    },
    {
      "inputs": [],
      "name": "InsufficientTreasuryBalance",
      "type": "error"
    },
    {
      "inputs": [],
      "name": "InvalidCallData",
      "type": "error"
    },
    {
      "inputs": [],
      "name": "InvalidEntryFee",
      "type": "error"
    },
    {
      "inputs": [],
      "name": "InvalidPercentage",
      "type": "error"
    },
    {
      "inputs": [],
      "name": "InvalidPercentageSplit",
      "type": "error"
    },
    {
      "inputs": [],
      "name": "InvalidProposal",
      "type": "error"
    },
    {
      "inputs": [],
      "name": "InvalidRecipient",
      "type": "error"
    },
    {
      "inputs": [],
      "name": "InvalidSender",
      "type": "error"
    },
    {
      "inputs": [],
      "name": "JoinIntakePaused",
      "type": "error"
    },
    {
      "inputs": [],
      "name": "JoinedAfterProposal",
      "type": "error"
    },
    {
      "inputs": [],
      "name": "LimitOutOfRange",
      "type": "error"
    },
    {
      "inputs": [],
      "name": "MemberAlreadyJoined",
      "type": "error"
    },
    {
      "inputs": [],
      "name": "MemberLimitReached",
      "type": "error"
    },
    {
      "inputs": [],
      "name": "MemberLimitTooLow",
      "type": "error"
    },
    {
      "inputs": [],
      "name": "NoMembers",
      "type": "error"
    },
    {
      "inputs": [],
      "name": "NoRewardsToClaim",
      "type": "error"
    },
    {
      "inputs": [],
      "name": "NoTreasuryFunds",
      "type": "error"
    },
    {
      "inputs": [],
      "name": "NotDAO",
      "type": "error"
    },
    {
      "inputs": [],
      "name": "NotMember",
      "type": "error"
    },
    {
      "inputs": [],
      "name": "PriestOnly",
      "type": "error"
    },
    {
      "inputs": [],
      "name": "ProposalExecutionFailed",
      "type": "error"
    },
    {
      "inputs": [],
      "name": "ProposalNotPassed",
      "type": "error"
    },
    {
      "inputs": [],
      "name": "QuorumNotReached",
      "type": "error"
    },
    {
      "inputs": [],
      "name": "ReentrancyGuardReentrantCall",
      "type": "error"
    },
    {
      "inputs": [
        {
          "internalType": "address",
          "name": "token",
          "type": "address"
        }
      ],
      "name": "SafeERC20FailedOperation",
      "type": "error"
    },
    {
      "inputs": [],
      "name": "TokenChangeDisabled",
      "type": "error"
    },
    {
      "inputs": [],
      "name": "VotingEnded",
      "type": "error"
    },
    {
      "inputs": [],
      "name": "VotingNotEnded",
      "type": "error"
    },
    {
      "inputs": [],
      "name": "VotingPeriodTooLong",
      "type": "error"
    },
    {
      "inputs": [],
      "name": "VotingPeriodTooShort",
      "type": "error"
    },
    {
      "anonymous": false,
      "inputs": [
        {
          "indexed": true,
          "internalType": "address",
          "name": "token",
          "type": "address"
        },
        {
          "indexed": false,
          "internalType": "uint256",
          "name": "entryFee",
          "type": "uint256"
        },
        {
          "indexed": false,
          "internalType": "uint256",
          "name": "burnPercent",
          "type": "uint256"
        },
        {
          "indexed": false,
          "internalType": "uint256",
          "name": "treasuryPercent",
          "type": "uint256"
        },
        {
          "indexed": false,
          "internalType": "uint256",
          "name": "memberPoolPercent",
          "type": "uint256"
        },
        {
          "indexed": false,
          "internalType": "uint256",
          "name": "protocolPercent",
          "type": "uint256"
        }
      ],
      "name": "ConfigUpdated",
      "type": "event"
    },
    {
      "anonymous": false,
      "inputs": [
        {
          "indexed": false,
          "internalType": "bool",
          "name": "enabled",
          "type": "bool"
        }
      ],
      "name": "DictatorshipModeChanged",
      "type": "event"
    },
    {
      "anonymous": false,
      "inputs": [
        {
          "indexed": true,
          "internalType": "address",
          "name": "token",
          "type": "address"
        },
        {
          "indexed": true,
          "internalType": "address",
          "name": "member",
          "type": "address"
        },
        {
          "indexed": false,
          "internalType": "uint256",
          "name": "amount",
          "type": "uint256"
        }
      ],
      "name": "ExternalRewardClaimed",
      "type": "event"
    },
    {
      "anonymous": false,
      "inputs": [
        {
          "indexed": false,
          "internalType": "bool",
          "name": "joinPaused",
          "type": "bool"
        }
      ],
      "name": "JoinPauseUpdated",
      "type": "event"
    },
    {
      "anonymous": false,
      "inputs": [
        {
          "indexed": false,
          "internalType": "uint256",
          "name": "maxMembers",
          "type": "uint256"
        }
      ],
      "name": "MaxMembersUpdated",
      "type": "event"
    },
    {
      "anonymous": false,
      "inputs": [
        {
          "indexed": true,
          "internalType": "address",
          "name": "payer",
          "type": "address"
        },
        {
          "indexed": true,
          "internalType": "address",
          "name": "member",
          "type": "address"
        },
        {
          "indexed": false,
          "internalType": "uint256",
          "name": "totalAmount",
          "type": "uint256"
        },
        {
          "indexed": false,
          "internalType": "uint256",
          "name": "burnedAmount",
          "type": "uint256"
        },
        {
          "indexed": false,
          "internalType": "uint256",
          "name": "treasuryAmount",
          "type": "uint256"
        },
        {
          "indexed": false,
          "internalType": "uint256",
          "name": "memberPoolAmount",
          "type": "uint256"
        },
        {
          "indexed": false,
          "internalType": "uint256",
          "name": "protocolAmount",
          "type": "uint256"
        },
        {
          "indexed": false,
          "internalType": "uint256",
          "name": "timestamp",
          "type": "uint256"
        },
        {
          "indexed": false,
          "internalType": "uint256",
          "name": "blockNumber",
          "type": "uint256"
        },
        {
          "indexed": false,
          "internalType": "uint256",
          "name": "joinId",
          "type": "uint256"
        }
      ],
      "name": "MemberJoined",
      "type": "event"
    },
    {
      "anonymous": false,
      "inputs": [
        {
          "indexed": true,
          "internalType": "address",
          "name": "member",
          "type": "address"
        },
        {
          "indexed": false,
          "internalType": "uint256",
          "name": "amount",
          "type": "uint256"
        },
        {
          "indexed": false,
          "internalType": "uint256",
          "name": "timestamp",
          "type": "uint256"
        }
      ],
      "name": "MemberRewardsClaimed",
      "type": "event"
    },
    {
      "anonymous": false,
      "inputs": [
        {
          "indexed": true,
          "internalType": "address",
          "name": "oldPriest",
          "type": "address"
        },
        {
          "indexed": true,
          "internalType": "address",
          "name": "newPriest",
          "type": "address"
        }
      ],
      "name": "PriestChanged",
      "type": "event"
    },
    {
      "anonymous": false,
      "inputs": [
        {
          "indexed": true,
          "internalType": "uint256",
          "name": "proposalId",
          "type": "uint256"
        },
        {
          "indexed": true,
          "internalType": "address",
          "name": "proposer",
          "type": "address"
        },
        {
          "indexed": false,
          "internalType": "uint256",
          "name": "endTime",
          "type": "uint256"
        },
        {
          "indexed": false,
          "internalType": "string",
          "name": "title",
          "type": "string"
        },
        {
          "indexed": false,
          "internalType": "string",
          "name": "description",
          "type": "string"
        }
      ],
      "name": "ProposalCreated",
      "type": "event"
    },
    {
      "anonymous": false,
      "inputs": [
        {
          "indexed": true,
          "internalType": "uint256",
          "name": "proposalId",
          "type": "uint256"
        },
        {
          "indexed": false,
          "internalType": "bool",
          "name": "success",
          "type": "bool"
        },
        {
          "indexed": false,
          "internalType": "bytes",
          "name": "returnData",
          "type": "bytes"
        }
      ],
      "name": "ProposalExecuted",
      "type": "event"
    },
    {
      "anonymous": false,
      "inputs": [
        {
          "indexed": false,
          "internalType": "string",
          "name": "previousLink",
          "type": "string"
        },
        {
          "indexed": false,
          "internalType": "string",
          "name": "newLink",
          "type": "string"
        }
      ],
      "name": "TemplHomeLinkUpdated",
      "type": "event"
    },
    {
      "anonymous": false,
      "inputs": [
        {
          "indexed": true,
          "internalType": "uint256",
          "name": "proposalId",
          "type": "uint256"
        },
        {
          "indexed": true,
          "internalType": "address",
          "name": "token",
          "type": "address"
        },
        {
          "indexed": true,
          "internalType": "address",
          "name": "recipient",
          "type": "address"
        },
        {
          "indexed": false,
          "internalType": "uint256",
          "name": "amount",
          "type": "uint256"
        },
        {
          "indexed": false,
          "internalType": "string",
          "name": "description",
          "type": "string"
        }
      ],
      "name": "TreasuryAction",
      "type": "event"
    },
    {
      "anonymous": false,
      "inputs": [
        {
          "indexed": true,
          "internalType": "uint256",
          "name": "proposalId",
          "type": "uint256"
        },
        {
          "indexed": true,
          "internalType": "address",
          "name": "token",
          "type": "address"
        },
        {
          "indexed": false,
          "internalType": "uint256",
          "name": "amount",
          "type": "uint256"
        },
        {
          "indexed": false,
          "internalType": "uint256",
          "name": "perMember",
          "type": "uint256"
        },
        {
          "indexed": false,
          "internalType": "uint256",
          "name": "remainder",
          "type": "uint256"
        }
      ],
      "name": "TreasuryDisbanded",
      "type": "event"
    },
    {
      "anonymous": false,
      "inputs": [
        {
          "indexed": true,
          "internalType": "uint256",
          "name": "proposalId",
          "type": "uint256"
        },
        {
          "indexed": true,
          "internalType": "address",
          "name": "voter",
          "type": "address"
        },
        {
          "indexed": false,
          "internalType": "bool",
          "name": "support",
          "type": "bool"
        },
        {
          "indexed": false,
          "internalType": "uint256",
          "name": "timestamp",
          "type": "uint256"
        }
      ],
      "name": "VoteCast",
      "type": "event"
    },
    {
      "inputs": [],
      "name": "DEFAULT_VOTING_PERIOD",
      "outputs": [
        {
          "internalType": "uint256",
          "name": "",
          "type": "uint256"
        }
      ],
      "stateMutability": "view",
      "type": "function"
    },
    {
      "inputs": [],
      "name": "MAX_MEMBERS",
      "outputs": [
        {
          "internalType": "uint256",
          "name": "",
          "type": "uint256"
        }
      ],
      "stateMutability": "view",
      "type": "function"
    },
    {
      "inputs": [],
      "name": "MAX_VOTING_PERIOD",
      "outputs": [
        {
          "internalType": "uint256",
          "name": "",
          "type": "uint256"
        }
      ],
      "stateMutability": "view",
      "type": "function"
    },
    {
      "inputs": [],
      "name": "MIN_VOTING_PERIOD",
      "outputs": [
        {
          "internalType": "uint256",
          "name": "",
          "type": "uint256"
        }
      ],
      "stateMutability": "view",
      "type": "function"
    },
    {
      "inputs": [],
      "name": "accessToken",
      "outputs": [
        {
          "internalType": "address",
          "name": "",
          "type": "address"
        }
      ],
      "stateMutability": "view",
      "type": "function"
    },
    {
      "inputs": [
        {
          "internalType": "address",
          "name": "",
          "type": "address"
        }
      ],
      "name": "activeProposalId",
      "outputs": [
        {
          "internalType": "uint256",
          "name": "",
          "type": "uint256"
        }
      ],
      "stateMutability": "view",
      "type": "function"
    },
    {
      "inputs": [],
      "name": "burnAddress",
      "outputs": [
        {
          "internalType": "address",
          "name": "",
          "type": "address"
        }
      ],
      "stateMutability": "view",
      "type": "function"
    },
    {
      "inputs": [],
      "name": "burnPercent",
      "outputs": [
        {
          "internalType": "uint256",
          "name": "",
          "type": "uint256"
        }
      ],
      "stateMutability": "view",
      "type": "function"
    },
    {
      "inputs": [
        {
          "internalType": "address",
          "name": "newPriest",
          "type": "address"
        }
      ],
      "name": "changePriestDAO",
      "outputs": [],
      "stateMutability": "nonpayable",
      "type": "function"
    },
    {
      "inputs": [
        {
          "internalType": "address",
          "name": "token",
          "type": "address"
        }
      ],
      "name": "claimExternalReward",
      "outputs": [],
      "stateMutability": "nonpayable",
      "type": "function"
    },
    {
      "inputs": [],
      "name": "claimMemberRewards",
      "outputs": [],
      "stateMutability": "nonpayable",
      "type": "function"
    },
    {
      "inputs": [
        {
          "internalType": "address",
          "name": "token",
          "type": "address"
        }
      ],
      "name": "cleanupExternalRewardToken",
      "outputs": [],
      "stateMutability": "nonpayable",
      "type": "function"
    },
    {
      "inputs": [
        {
          "internalType": "address",
          "name": "_newPriest",
          "type": "address"
        },
        {
          "internalType": "uint256",
          "name": "_votingPeriod",
          "type": "uint256"
        },
        {
          "internalType": "string",
          "name": "_title",
          "type": "string"
        },
        {
          "internalType": "string",
          "name": "_description",
          "type": "string"
        }
      ],
      "name": "createProposalChangePriest",
      "outputs": [
        {
          "internalType": "uint256",
          "name": "",
          "type": "uint256"
        }
      ],
      "stateMutability": "nonpayable",
      "type": "function"
    },
    {
      "inputs": [
        {
          "internalType": "address",
          "name": "_token",
          "type": "address"
        },
        {
          "internalType": "uint256",
          "name": "_votingPeriod",
          "type": "uint256"
        },
        {
          "internalType": "string",
          "name": "_title",
          "type": "string"
        },
        {
          "internalType": "string",
          "name": "_description",
          "type": "string"
        }
      ],
      "name": "createProposalDisbandTreasury",
      "outputs": [
        {
          "internalType": "uint256",
          "name": "",
          "type": "uint256"
        }
      ],
      "stateMutability": "nonpayable",
      "type": "function"
    },
    {
      "inputs": [
        {
          "internalType": "bool",
          "name": "_enable",
          "type": "bool"
        },
        {
          "internalType": "uint256",
          "name": "_votingPeriod",
          "type": "uint256"
        },
        {
          "internalType": "string",
          "name": "_title",
          "type": "string"
        },
        {
          "internalType": "string",
          "name": "_description",
          "type": "string"
        }
      ],
      "name": "createProposalSetDictatorship",
      "outputs": [
        {
          "internalType": "uint256",
          "name": "",
          "type": "uint256"
        }
      ],
      "stateMutability": "nonpayable",
      "type": "function"
    },
    {
      "inputs": [
        {
          "internalType": "string",
          "name": "_newLink",
          "type": "string"
        },
        {
          "internalType": "uint256",
          "name": "_votingPeriod",
          "type": "uint256"
        },
        {
          "internalType": "string",
          "name": "_title",
          "type": "string"
        },
        {
          "internalType": "string",
          "name": "_description",
          "type": "string"
        }
      ],
      "name": "createProposalSetHomeLink",
      "outputs": [
        {
          "internalType": "uint256",
          "name": "",
          "type": "uint256"
        }
      ],
      "stateMutability": "nonpayable",
      "type": "function"
    },
    {
      "inputs": [
        {
          "internalType": "bool",
          "name": "_paused",
          "type": "bool"
        },
        {
          "internalType": "uint256",
          "name": "_votingPeriod",
          "type": "uint256"
        },
        {
          "internalType": "string",
          "name": "_title",
          "type": "string"
        },
        {
          "internalType": "string",
          "name": "_description",
          "type": "string"
        }
      ],
      "name": "createProposalSetJoinPaused",
      "outputs": [
        {
          "internalType": "uint256",
          "name": "",
          "type": "uint256"
        }
      ],
      "stateMutability": "nonpayable",
      "type": "function"
    },
    {
      "inputs": [
        {
          "internalType": "uint256",
          "name": "_newMaxMembers",
          "type": "uint256"
        },
        {
          "internalType": "uint256",
          "name": "_votingPeriod",
          "type": "uint256"
        },
        {
          "internalType": "string",
          "name": "_title",
          "type": "string"
        },
        {
          "internalType": "string",
          "name": "_description",
          "type": "string"
        }
      ],
      "name": "createProposalSetMaxMembers",
      "outputs": [
        {
          "internalType": "uint256",
          "name": "",
          "type": "uint256"
        }
      ],
      "stateMutability": "nonpayable",
      "type": "function"
    },
    {
      "inputs": [
        {
          "internalType": "uint256",
          "name": "_newEntryFee",
          "type": "uint256"
        },
        {
          "internalType": "uint256",
          "name": "_newBurnPercent",
          "type": "uint256"
        },
        {
          "internalType": "uint256",
          "name": "_newTreasuryPercent",
          "type": "uint256"
        },
        {
          "internalType": "uint256",
          "name": "_newMemberPoolPercent",
          "type": "uint256"
        },
        {
          "internalType": "bool",
          "name": "_updateFeeSplit",
          "type": "bool"
        },
        {
          "internalType": "uint256",
          "name": "_votingPeriod",
          "type": "uint256"
        },
        {
          "internalType": "string",
          "name": "_title",
          "type": "string"
        },
        {
          "internalType": "string",
          "name": "_description",
          "type": "string"
        }
      ],
      "name": "createProposalUpdateConfig",
      "outputs": [
        {
          "internalType": "uint256",
          "name": "",
          "type": "uint256"
        }
      ],
      "stateMutability": "nonpayable",
      "type": "function"
    },
    {
      "inputs": [
        {
          "internalType": "address",
          "name": "_token",
          "type": "address"
        },
        {
          "internalType": "address",
          "name": "_recipient",
          "type": "address"
        },
        {
          "internalType": "uint256",
          "name": "_amount",
          "type": "uint256"
        },
        {
          "internalType": "string",
          "name": "_reason",
          "type": "string"
        },
        {
          "internalType": "uint256",
          "name": "_votingPeriod",
          "type": "uint256"
        },
        {
          "internalType": "string",
          "name": "_title",
          "type": "string"
        },
        {
          "internalType": "string",
          "name": "_description",
          "type": "string"
        }
      ],
      "name": "createProposalWithdrawTreasury",
      "outputs": [
        {
          "internalType": "uint256",
          "name": "",
          "type": "uint256"
        }
      ],
      "stateMutability": "nonpayable",
      "type": "function"
    },
    {
      "inputs": [],
      "name": "cumulativeMemberRewards",
      "outputs": [
        {
          "internalType": "uint256",
          "name": "",
          "type": "uint256"
        }
      ],
      "stateMutability": "view",
      "type": "function"
    },
    {
      "inputs": [
        {
          "internalType": "address",
          "name": "token",
          "type": "address"
        }
      ],
      "name": "disbandTreasuryDAO",
      "outputs": [],
      "stateMutability": "nonpayable",
      "type": "function"
    },
    {
      "inputs": [],
      "name": "entryFee",
      "outputs": [
        {
          "internalType": "uint256",
          "name": "",
          "type": "uint256"
        }
      ],
      "stateMutability": "view",
      "type": "function"
    },
    {
      "inputs": [
        {
          "internalType": "uint256",
          "name": "_proposalId",
          "type": "uint256"
        }
      ],
      "name": "executeProposal",
      "outputs": [],
      "stateMutability": "nonpayable",
      "type": "function"
    },
    {
      "inputs": [],
      "name": "executionDelayAfterQuorum",
      "outputs": [
        {
          "internalType": "uint256",
          "name": "",
          "type": "uint256"
        }
      ],
      "stateMutability": "view",
      "type": "function"
    },
    {
      "inputs": [],
      "name": "getActiveProposals",
      "outputs": [
        {
          "internalType": "uint256[]",
          "name": "",
          "type": "uint256[]"
        }
      ],
      "stateMutability": "view",
      "type": "function"
    },
    {
      "inputs": [
        {
          "internalType": "uint256",
          "name": "offset",
          "type": "uint256"
        },
        {
          "internalType": "uint256",
          "name": "limit",
          "type": "uint256"
        }
      ],
      "name": "getActiveProposalsPaginated",
      "outputs": [
        {
          "internalType": "uint256[]",
          "name": "proposalIds",
          "type": "uint256[]"
        },
        {
          "internalType": "bool",
          "name": "hasMore",
          "type": "bool"
        }
      ],
      "stateMutability": "view",
      "type": "function"
    },
    {
      "inputs": [
        {
          "internalType": "address",
          "name": "member",
          "type": "address"
        },
        {
          "internalType": "address",
          "name": "token",
          "type": "address"
        }
      ],
      "name": "getClaimableExternalReward",
      "outputs": [
        {
          "internalType": "uint256",
          "name": "amount",
          "type": "uint256"
        }
      ],
      "stateMutability": "view",
      "type": "function"
    },
    {
      "inputs": [
        {
          "internalType": "address",
          "name": "member",
          "type": "address"
        }
      ],
      "name": "getClaimableMemberRewards",
      "outputs": [
        {
          "internalType": "uint256",
          "name": "",
          "type": "uint256"
        }
      ],
      "stateMutability": "view",
      "type": "function"
    },
    {
      "inputs": [],
      "name": "getConfig",
      "outputs": [
        {
          "internalType": "address",
          "name": "token",
          "type": "address"
        },
        {
          "internalType": "uint256",
          "name": "fee",
          "type": "uint256"
        },
        {
          "internalType": "bool",
          "name": "joinPaused",
          "type": "bool"
        },
        {
          "internalType": "uint256",
          "name": "joins",
          "type": "uint256"
        },
        {
          "internalType": "uint256",
          "name": "treasury",
          "type": "uint256"
        },
        {
          "internalType": "uint256",
          "name": "pool",
          "type": "uint256"
        },
        {
          "internalType": "uint256",
          "name": "burnPercentOut",
          "type": "uint256"
        },
        {
          "internalType": "uint256",
          "name": "treasuryPercentOut",
          "type": "uint256"
        },
        {
          "internalType": "uint256",
          "name": "memberPoolPercentOut",
          "type": "uint256"
        },
        {
          "internalType": "uint256",
          "name": "protocolPercentOut",
          "type": "uint256"
        }
      ],
      "stateMutability": "view",
      "type": "function"
    },
    {
      "inputs": [
        {
          "internalType": "address",
          "name": "token",
          "type": "address"
        }
      ],
      "name": "getExternalRewardState",
      "outputs": [
        {
          "internalType": "uint256",
          "name": "poolBalance",
          "type": "uint256"
        },
        {
          "internalType": "uint256",
          "name": "cumulativeRewards",
          "type": "uint256"
        },
        {
          "internalType": "uint256",
          "name": "remainder",
          "type": "uint256"
        }
      ],
      "stateMutability": "view",
      "type": "function"
    },
    {
      "inputs": [],
      "name": "getExternalRewardTokens",
      "outputs": [
        {
          "internalType": "address[]",
          "name": "tokens",
          "type": "address[]"
        }
      ],
      "stateMutability": "view",
      "type": "function"
    },
    {
      "inputs": [
        {
          "internalType": "address",
          "name": "user",
          "type": "address"
        }
      ],
      "name": "getJoinDetails",
      "outputs": [
        {
          "internalType": "bool",
          "name": "joined",
          "type": "bool"
        },
        {
          "internalType": "uint256",
          "name": "timestamp",
          "type": "uint256"
        },
        {
          "internalType": "uint256",
          "name": "blockNumber",
          "type": "uint256"
        }
      ],
      "stateMutability": "view",
      "type": "function"
    },
    {
      "inputs": [],
      "name": "getMemberCount",
      "outputs": [
        {
          "internalType": "uint256",
          "name": "",
          "type": "uint256"
        }
      ],
      "stateMutability": "view",
      "type": "function"
    },
    {
      "inputs": [
        {
          "internalType": "uint256",
          "name": "_proposalId",
          "type": "uint256"
        }
      ],
      "name": "getProposal",
      "outputs": [
        {
          "internalType": "address",
          "name": "proposer",
          "type": "address"
        },
        {
          "internalType": "uint256",
          "name": "yesVotes",
          "type": "uint256"
        },
        {
          "internalType": "uint256",
          "name": "noVotes",
          "type": "uint256"
        },
        {
          "internalType": "uint256",
          "name": "endTime",
          "type": "uint256"
        },
        {
          "internalType": "bool",
          "name": "executed",
          "type": "bool"
        },
        {
          "internalType": "bool",
          "name": "passed",
          "type": "bool"
        },
        {
          "internalType": "string",
          "name": "title",
          "type": "string"
        },
        {
          "internalType": "string",
          "name": "description",
          "type": "string"
        }
      ],
      "stateMutability": "view",
      "type": "function"
    },
    {
      "inputs": [
        {
          "internalType": "uint256",
          "name": "_proposalId",
          "type": "uint256"
        }
      ],
      "name": "getProposalSnapshots",
      "outputs": [
        {
          "internalType": "uint256",
          "name": "eligibleVotersPreQuorum",
          "type": "uint256"
        },
        {
          "internalType": "uint256",
          "name": "eligibleVotersPostQuorum",
          "type": "uint256"
        },
        {
          "internalType": "uint256",
          "name": "preQuorumSnapshotBlock",
          "type": "uint256"
        },
        {
          "internalType": "uint256",
          "name": "quorumSnapshotBlock",
          "type": "uint256"
        },
        {
          "internalType": "uint256",
          "name": "createdAt",
          "type": "uint256"
        },
        {
          "internalType": "uint256",
          "name": "quorumReachedAt",
          "type": "uint256"
        }
      ],
      "stateMutability": "view",
      "type": "function"
    },
    {
      "inputs": [],
      "name": "getTreasuryInfo",
      "outputs": [
        {
          "internalType": "uint256",
          "name": "treasury",
          "type": "uint256"
        },
        {
          "internalType": "uint256",
          "name": "memberPool",
          "type": "uint256"
        },
        {
          "internalType": "address",
          "name": "protocolAddress",
          "type": "address"
        }
      ],
      "stateMutability": "view",
      "type": "function"
    },
    {
      "inputs": [
        {
          "internalType": "address",
          "name": "voter",
          "type": "address"
        }
      ],
      "name": "getVoteWeight",
      "outputs": [
        {
          "internalType": "uint256",
          "name": "weight",
          "type": "uint256"
        }
      ],
      "stateMutability": "view",
      "type": "function"
    },
    {
      "inputs": [
        {
          "internalType": "address",
          "name": "",
          "type": "address"
        }
      ],
      "name": "hasActiveProposal",
      "outputs": [
        {
          "internalType": "bool",
          "name": "",
          "type": "bool"
        }
      ],
      "stateMutability": "view",
      "type": "function"
    },
    {
      "inputs": [
        {
          "internalType": "uint256",
          "name": "_proposalId",
          "type": "uint256"
        },
        {
          "internalType": "address",
          "name": "_voter",
          "type": "address"
        }
      ],
      "name": "hasVoted",
      "outputs": [
        {
          "internalType": "bool",
          "name": "voted",
          "type": "bool"
        },
        {
          "internalType": "bool",
          "name": "support",
          "type": "bool"
        }
      ],
      "stateMutability": "view",
      "type": "function"
    },
    {
      "inputs": [
        {
          "internalType": "address",
          "name": "user",
          "type": "address"
        }
      ],
      "name": "isMember",
      "outputs": [
        {
          "internalType": "bool",
          "name": "",
          "type": "bool"
        }
      ],
      "stateMutability": "view",
      "type": "function"
    },
    {
      "inputs": [],
      "name": "join",
      "outputs": [],
      "stateMutability": "nonpayable",
      "type": "function"
    },
    {
      "inputs": [
        {
          "internalType": "address",
          "name": "recipient",
          "type": "address"
        }
      ],
      "name": "joinFor",
      "outputs": [],
      "stateMutability": "nonpayable",
      "type": "function"
    },
    {
      "inputs": [],
      "name": "joinPaused",
      "outputs": [
        {
          "internalType": "bool",
          "name": "",
          "type": "bool"
        }
      ],
      "stateMutability": "view",
      "type": "function"
    },
    {
      "inputs": [],
      "name": "memberCount",
      "outputs": [
        {
          "internalType": "uint256",
          "name": "",
          "type": "uint256"
        }
      ],
      "stateMutability": "view",
      "type": "function"
    },
    {
      "inputs": [],
      "name": "memberPoolBalance",
      "outputs": [
        {
          "internalType": "uint256",
          "name": "",
          "type": "uint256"
        }
      ],
      "stateMutability": "view",
      "type": "function"
    },
    {
      "inputs": [
        {
          "internalType": "address",
          "name": "",
          "type": "address"
        }
      ],
      "name": "memberPoolClaims",
      "outputs": [
        {
          "internalType": "uint256",
          "name": "",
          "type": "uint256"
        }
      ],
      "stateMutability": "view",
      "type": "function"
    },
    {
      "inputs": [],
      "name": "memberPoolPercent",
      "outputs": [
        {
          "internalType": "uint256",
          "name": "",
          "type": "uint256"
        }
      ],
      "stateMutability": "view",
      "type": "function"
    },
    {
      "inputs": [],
      "name": "memberRewardRemainder",
      "outputs": [
        {
          "internalType": "uint256",
          "name": "",
          "type": "uint256"
        }
      ],
      "stateMutability": "view",
      "type": "function"
    },
    {
      "inputs": [
        {
          "internalType": "address",
          "name": "",
          "type": "address"
        }
      ],
      "name": "members",
      "outputs": [
        {
          "internalType": "bool",
          "name": "joined",
          "type": "bool"
        },
        {
          "internalType": "uint256",
          "name": "timestamp",
          "type": "uint256"
        },
        {
          "internalType": "uint256",
          "name": "blockNumber",
          "type": "uint256"
        },
        {
          "internalType": "uint256",
          "name": "rewardSnapshot",
          "type": "uint256"
        }
      ],
      "stateMutability": "view",
      "type": "function"
    },
    {
      "inputs": [],
      "name": "priest",
      "outputs": [
        {
          "internalType": "address",
          "name": "",
          "type": "address"
        }
      ],
      "stateMutability": "view",
      "type": "function"
    },
    {
      "inputs": [],
      "name": "priestIsDictator",
      "outputs": [
        {
          "internalType": "bool",
          "name": "",
          "type": "bool"
        }
      ],
      "stateMutability": "view",
      "type": "function"
    },
    {
      "inputs": [],
      "name": "proposalCount",
      "outputs": [
        {
          "internalType": "uint256",
          "name": "",
          "type": "uint256"
        }
      ],
      "stateMutability": "view",
      "type": "function"
    },
    {
      "inputs": [
        {
          "internalType": "uint256",
          "name": "",
          "type": "uint256"
        }
      ],
      "name": "proposals",
      "outputs": [
        {
          "internalType": "uint256",
          "name": "id",
          "type": "uint256"
        },
        {
          "internalType": "address",
          "name": "proposer",
          "type": "address"
        },
        {
          "internalType": "enum TemplBase.Action",
          "name": "action",
          "type": "uint8"
        },
        {
          "internalType": "address",
          "name": "token",
          "type": "address"
        },
        {
          "internalType": "address",
          "name": "recipient",
          "type": "address"
        },
        {
          "internalType": "uint256",
          "name": "amount",
          "type": "uint256"
        },
        {
          "internalType": "string",
          "name": "title",
          "type": "string"
        },
        {
          "internalType": "string",
          "name": "description",
          "type": "string"
        },
        {
          "internalType": "string",
          "name": "reason",
          "type": "string"
        },
        {
          "internalType": "bool",
          "name": "joinPaused",
          "type": "bool"
        },
        {
          "internalType": "uint256",
          "name": "newEntryFee",
          "type": "uint256"
        },
        {
          "internalType": "uint256",
          "name": "newBurnPercent",
          "type": "uint256"
        },
        {
          "internalType": "uint256",
          "name": "newTreasuryPercent",
          "type": "uint256"
        },
        {
          "internalType": "uint256",
          "name": "newMemberPoolPercent",
          "type": "uint256"
        },
        {
          "internalType": "string",
          "name": "newHomeLink",
          "type": "string"
        },
        {
          "internalType": "uint256",
          "name": "newMaxMembers",
          "type": "uint256"
        },
        {
          "internalType": "uint256",
          "name": "yesVotes",
          "type": "uint256"
        },
        {
          "internalType": "uint256",
          "name": "noVotes",
          "type": "uint256"
        },
        {
          "internalType": "uint256",
          "name": "endTime",
          "type": "uint256"
        },
        {
          "internalType": "uint256",
          "name": "createdAt",
          "type": "uint256"
        },
        {
          "internalType": "bool",
          "name": "executed",
          "type": "bool"
        },
        {
          "internalType": "uint256",
          "name": "eligibleVoters",
          "type": "uint256"
        },
        {
          "internalType": "uint256",
          "name": "postQuorumEligibleVoters",
          "type": "uint256"
        },
        {
          "internalType": "uint256",
          "name": "quorumReachedAt",
          "type": "uint256"
        },
        {
          "internalType": "uint256",
          "name": "quorumSnapshotBlock",
          "type": "uint256"
        },
        {
          "internalType": "bool",
          "name": "quorumExempt",
          "type": "bool"
        },
        {
          "internalType": "bool",
          "name": "updateFeeSplit",
          "type": "bool"
        },
        {
          "internalType": "uint256",
          "name": "preQuorumSnapshotBlock",
          "type": "uint256"
        },
        {
          "internalType": "bool",
          "name": "setDictatorship",
          "type": "bool"
        }
      ],
      "stateMutability": "view",
      "type": "function"
    },
    {
      "inputs": [],
      "name": "protocolFeeRecipient",
      "outputs": [
        {
          "internalType": "address",
          "name": "",
          "type": "address"
        }
      ],
      "stateMutability": "view",
      "type": "function"
    },
    {
      "inputs": [],
      "name": "protocolPercent",
      "outputs": [
        {
          "internalType": "uint256",
          "name": "",
          "type": "uint256"
        }
      ],
      "stateMutability": "view",
      "type": "function"
    },
    {
      "inputs": [
        {
          "internalType": "uint256",
          "name": "maxRemovals",
          "type": "uint256"
        }
      ],
      "name": "pruneInactiveProposals",
      "outputs": [
        {
          "internalType": "uint256",
          "name": "removed",
          "type": "uint256"
        }
      ],
      "stateMutability": "nonpayable",
      "type": "function"
    },
    {
      "inputs": [],
      "name": "quorumPercent",
      "outputs": [
        {
          "internalType": "uint256",
          "name": "",
          "type": "uint256"
        }
      ],
      "stateMutability": "view",
      "type": "function"
    },
    {
      "inputs": [
        {
          "internalType": "bool",
          "name": "enabled",
          "type": "bool"
        }
      ],
      "name": "setDictatorshipDAO",
      "outputs": [],
      "stateMutability": "nonpayable",
      "type": "function"
    },
    {
      "inputs": [
        {
          "internalType": "bool",
          "name": "_paused",
          "type": "bool"
        }
      ],
      "name": "setJoinPausedDAO",
      "outputs": [],
      "stateMutability": "nonpayable",
      "type": "function"
    },
    {
      "inputs": [
        {
          "internalType": "uint256",
          "name": "_maxMembers",
          "type": "uint256"
        }
      ],
      "name": "setMaxMembersDAO",
      "outputs": [],
      "stateMutability": "nonpayable",
      "type": "function"
    },
    {
      "inputs": [
        {
          "internalType": "string",
          "name": "newLink",
          "type": "string"
        }
      ],
      "name": "setTemplHomeLinkDAO",
      "outputs": [],
      "stateMutability": "nonpayable",
      "type": "function"
    },
    {
      "inputs": [],
      "name": "templHomeLink",
      "outputs": [
        {
          "internalType": "string",
          "name": "",
          "type": "string"
        }
      ],
      "stateMutability": "view",
      "type": "function"
    },
    {
      "inputs": [],
      "name": "totalJoins",
      "outputs": [
        {
          "internalType": "uint256",
          "name": "",
          "type": "uint256"
        }
      ],
      "stateMutability": "view",
      "type": "function"
    },
    {
      "inputs": [],
      "name": "treasuryBalance",
      "outputs": [
        {
          "internalType": "uint256",
          "name": "",
          "type": "uint256"
        }
      ],
      "stateMutability": "view",
      "type": "function"
    },
    {
      "inputs": [],
      "name": "treasuryPercent",
      "outputs": [
        {
          "internalType": "uint256",
          "name": "",
          "type": "uint256"
        }
      ],
      "stateMutability": "view",
      "type": "function"
    },
    {
      "inputs": [
        {
          "internalType": "address",
          "name": "_token",
          "type": "address"
        },
        {
          "internalType": "uint256",
          "name": "_entryFee",
          "type": "uint256"
        },
        {
          "internalType": "bool",
          "name": "_updateFeeSplit",
          "type": "bool"
        },
        {
          "internalType": "uint256",
          "name": "_burnPercent",
          "type": "uint256"
        },
        {
          "internalType": "uint256",
          "name": "_treasuryPercent",
          "type": "uint256"
        },
        {
          "internalType": "uint256",
          "name": "_memberPoolPercent",
          "type": "uint256"
        }
      ],
      "name": "updateConfigDAO",
      "outputs": [],
      "stateMutability": "nonpayable",
      "type": "function"
    },
    {
      "inputs": [
        {
          "internalType": "uint256",
          "name": "_proposalId",
          "type": "uint256"
        },
        {
          "internalType": "bool",
          "name": "_support",
          "type": "bool"
        }
      ],
      "name": "vote",
      "outputs": [],
      "stateMutability": "nonpayable",
      "type": "function"
    },
    {
      "inputs": [
        {
          "internalType": "address",
          "name": "token",
          "type": "address"
        },
        {
          "internalType": "address",
          "name": "recipient",
          "type": "address"
        },
        {
          "internalType": "uint256",
          "name": "amount",
          "type": "uint256"
        },
        {
          "internalType": "string",
          "name": "reason",
          "type": "string"
        }
      ],
      "name": "withdrawTreasuryDAO",
      "outputs": [],
      "stateMutability": "nonpayable",
      "type": "function"
    },
    {
      "stateMutability": "payable",
      "type": "receive"
    }
  ],
  "bytecode": "0x61010060405234620007865762005b73803803806200001e816200078b565b9283398101906101c08183031262000786576200003b81620007b1565b6200004960208301620007b1565b926200005860408401620007b1565b606084015194608085015160a086015160c087015160e0880151610100890151936101208a0151956200008f6101408c01620007b1565b976101608c015191821515830362000786576101808d01516101a08e0151909d6001600160401b0382116200078657018b601f82011215620007865780519b6001600160401b038d1162000673578c90620000f4601f8301601f19166020016200078b565b9d8e5260208284010111620007865762000115916020808f019101620007c6565b60016000556001600160a01b03811615801562000774575b620004d65760a05260c0526004549060ff60a01b90151560a01b169060ff60a01b191617600455809184938095829362000178846200017285620001728686620007eb565b620007eb565b90612710820362000707575b5050505050620001a681612710926080526200017286620001728787620007eb565b03620006f55760015560025560035580620006955750610ce4600a555b806200068f575062093a805b600b556001600160a01b03811662000689575061dead5b60e05280516001600160401b0381116200067357600c54600181811c9116801562000668575b60208210146200065257601f8111620005e8575b50806020601f82116001146200055e5760009162000552575b508160011b916000199060031b1c191617600c555b8051620004e8575b506001600160a01b0316918215620004d6578015620004c457600a8110620004b257600a8106620004a0578260018060a01b0319600454161760045560055560ff19918260085416600855600052600d602052604060002060018382541617815542600182015543600282015560036010549101556001600e558015159081620003d3575b6040516153799081620007fa82396080518181816104a50152818161072d015281816112c90152818161254201528181612591015281816128360152818161288801526143cd015260a0518181816113bd01528181611f05015261453f015260c05181818161060c015281816108ed015281816111710152818161122101528181611362015281816119320152818161207f01528181612568015281816125f90152818161285c015281816128fd0152818161296a0152818161368501528181614434015281816144ea0152818161451401528181614562015281816149e10152614d22015260e051818181611def01526144c70152f35b818062000495575b6200048357806009557fb63bcc75a862434e97db3146b78681478a2692253df1de5623d497ee61fac7996020604051838152a18162000476575b508062000468575b6200042b575b8080620002db565b60019060085416176008557fc2542ff58c47f8c0922a043c4b21423ecd816167eeab1dabfb51d56508d90a66602060405160018152a13862000423565b5060ff60085416156200041d565b9050600110153862000415565b604051633161e99d60e11b8152600490fd5b5060018110620003db565b604051636fe6a4c960e01b8152600490fd5b604051635eee050360e11b8152600490fd5b6040516365e52d5160e11b8152600490fd5b604051634e46966960e11b8152600490fd5b7f71e57b89fe30fe66cb93427236f86ec18c6ec404e26b5c0914ee88193dd07da590608060405180926040825260006040830152606060208301526200053e8151809281606086015260208686019101620007c6565b601f01601f19168101030190a13862000256565b90508201513862000239565b600c600090815292507fdf6966c971051c3d54ec59162606531493a51404a002842f56009d7e5cf4a8c7905b601f1983168410620005cf576001935082601f19811610620005b5575b5050811b01600c556200024e565b84015160001960f88460031b161c191690553880620005a7565b848101518255602093840193600190920191016200058a565b600c6000527fdf6966c971051c3d54ec59162606531493a51404a002842f56009d7e5cf4a8c7601f830160051c8101916020841062000647575b601f0160051c01905b8181106200063a575062000220565b600081556001016200062b565b909150819062000622565b634e487b7160e01b600052602260045260246000fd5b90607f16906200020c565b634e487b7160e01b600052604160045260246000fd5b620001e6565b620001cf565b806064811115620006c7575b506127108111620006b557600a55620001c3565b604051631f3b85d360e01b8152600490fd5b905060648102908104606403620006df5738620006a1565b634e487b7160e01b600052601160045260246000fd5b60405163542c8df360e11b8152600490fd5b9397509195509350606492508203620006f55781810290808204831490151715620006df579181810290808204831490151715620006df579281810290808204831490151715620006df5793818102918183041490151715620006df57620001a661271038808062000184565b506001600160a01b038216156200012d565b600080fd5b6040519190601f01601f191682016001600160401b038111838210176200067357604052565b51906001600160a01b03821682036200078657565b60005b838110620007da5750506000910152565b8181015183820152602001620007c9565b91908201809211620006df5756fe6102e0604052600436101561001c575b361561001a57600080fd5b005b60003560e01c8063013cf08b14612f7d57806303807ee514612f5f57806304ef9d5814612f41578063072ea61c14612f2357806308ae4b0c14612ec25780630d61b5191461264f5780630f852b9a1461247e57806311aee38014611a4a5780631df260a0146123b65780631f26ac7b1461238a578063215809ca1461171b5780632164d3f8146122f0578063313dab20146122d257806343859632146122635780634902e427146121ce5780635584c4f9146121085780635998e845146120585780635ece653a146120025780635fa7ddf014611fe457806361c896d214611f3457806364df049e14611eef5780636898b19c14611ed15780636a49942714611e765780636ad1855014611e3c5780637070ac4814611e1e57806370d5ae0514611dd957806373023e6414611c685780637518927914611c455780638022e55c14611c2a578063840634c514611b735780638b0e837914611aaa5780638f78bbc414611a68578063997072f714611a4a5780639ddeddf9146118ea578063a230c524146118ab578063a51a46b91461188d578063a64e024a1461186f578063a730117e1461184c578063a81bbe3c14611812578063aa5c442b1461175c578063ab99a0d31461173e578063adadef2714611720578063aedfe53f1461171b578063b488616b146116eb578063b688a363146116b7578063be893a1f146114da578063bebc8fc0146114b1578063c17db3f214611423578063c29394711461132e578063c3f909d4146111fb578063c556a02b146110db578063c7f758a814610f45578063c9d27afe14610c1e578063cfb5446014610b9c578063d402d4be1461086a578063d6f8387614610803578063d8257b2d146107e0578063da35c664146107c2578063dddac8441461079c578063e1a2c9bf1461063b578063e243c5fb146105f6578063e4b5d7ba14610572578063ea0e35b114610554578063eccceda6146104c8578063f0a827a41461048d578063f2be51ea14610401578063f81cbd26146103e3578063fef638211461035c5763ffafe4ad0361000f5734610357576020366003190112610357576001600160a01b03610339613467565b166000526015602052602060ff604060002054166040519015158152f35b600080fd5b346103575761036a366135f3565b949190929360ff60045460a01c166103d15760209561039f6103c9956103976008986103a596369161359e565b92369161359e565b91613db1565b6001819592950160ff60a01b198154169055019060ff801983541691151516179055565b604051908152f35b60405163a8ef9e1960e01b8152600490fd5b34610357576000366003190112610357576020600a54604051908152f35b346103575760203660031901126103575761041a613467565b60045460ff8160a01c1660001461046a57303314159081610456575b506104445761001a906149c8565b60405163626243e960e01b8152600490fd5b6001600160a01b0316331415905082610436565b5030330361047b5761001a906149c8565b6040516327568d2f60e11b8152600490fd5b346103575760003660031901126103575760206040517f00000000000000000000000000000000000000000000000000000000000000008152f35b34610357576104d6366134ed565b929490936001600160a01b039091169283156105425760ff60045460a01c166103d15761039f60039561039760209861051096369161359e565b60018101805460ff60a01b1916600160a21b1790559290920180546001600160a01b0319169091179055604051908152f35b604051634e46966960e11b8152600490fd5b34610357576000366003190112610357576020600954604051908152f35b3461035757610580366135f3565b949190929360ff60045460a01c16831515901515146105e45760209561039f6103c995610397601c986105b496369161359e565b60018101805460ff60a01b1916600560a01b17905593909301805491151560ff1660ff1992909216919091179055565b6040516305548b1760e41b8152600490fd5b34610357576000366003190112610357576040517f00000000000000000000000000000000000000000000000000000000000000006001600160a01b03168152602090f35b346103575761010036600319011261035757608435600435811515602435606435604435838603610357576001600160401b0360c435818111610357576106869036906004016134c0565b9160e4359081116103575761069f9036906004016134c0565b92909860ff60045460a01c166103d15788610759575b6020996103976106df94601a99989796946106d694610728575b369161359e565b9060a435613db1565b93909660018501600160a01b60ff60a01b198254161790556009850155600a840155600b830155600c820155019061ff0082549160081b169061ff001916179055604051908152f35b6107547f00000000000000000000000000000000000000000000000000000000000000008a8a8d614995565b6106cf565b9594939290600a891061078a57600a89066107785790929394956106b5565b604051636fe6a4c960e01b8152600490fd5b604051635eee050360e11b8152600490fd5b3461035757600036600319011261035757602060ff60045460a01c166040519015158152f35b34610357576000366003190112610357576020601254604051908152f35b346103575760203660031901126103575760206103c96107fe613467565b613b28565b346103575760203660031901126103575761081c613467565b60ff60085416610858573033146108465761083f90610839613b8b565b33614364565b6001600055005b604051636edaef2f60e11b8152600490fd5b604051636f45999160e11b8152600490fd5b3461035757608036600319011261035757610883613467565b61088b61347d565b604435906064356001600160401b038111610357576108ae9036906004016135d5565b9260045460ff8160a01c16600014610b8257303314159081610b6e575b50610444575b6001600160a01b0382811694908515610542578415610b5c57807f000000000000000000000000000000000000000000000000000000000000000016921693828514600014610a0d576040516370a0823160e01b8152306004820152602081602481875afa908115610a01576000916109cf575b50600754808211156109bd5761095a91613650565b81116109bd57610996816000956000805160206153248339815191529561098e600654808511158a146109b7578490613650565b60065561430b565b6109b26040519283928352604060208401526040830190613427565b0390a4005b80613650565b604051631c7b597b60e11b8152600490fd5b90506020813d6020116109f9575b816109ea602093836132af565b81010312610357575187610945565b3d91506109dd565b6040513d6000823e3d90fd5b9150918315600014610aa857506000805260186020527f999d26de3473317ead3eeaf34ca78057f1439db67b6953469c3c96ce9caf6bd754479080821115610a9f57610a5891613650565b81116109bd57600080808084885af1610a6f613a20565b5015610a8d5760009160008051602061532483398151915291610996565b6040516331d436c760e01b8152600490fd5b50506000610a58565b90918360005260186020526040600020604051906370a0823160e01b8252306004830152602082602481895afa918215610a0157600092610b28575b505480821115610b1f57610af791613650565b83116109bd5782610b1a600094600080516020615324833981519152948761430b565b610996565b50506000610af7565b9091506020813d602011610b54575b81610b44602093836132af565b8101031261035757519087610ae4565b3d9150610b37565b6040516365e52d5160e11b8152600490fd5b6001600160a01b03163314159050856108cb565b503330146108d1576040516327568d2f60e11b8152600490fd5b3461035757602036600319011261035757600435601254811015610c0c57600052601360205260c06040600020601681015490601781015490601b8101546019820154906018601284015493015493604051958652602086015260408501526060840152608083015260a0820152f35b604051631dc0650160e31b8152600490fd5b34610357576040366003190112610357576024803580151591600435918381036103575733600052602091600d835260ff91826040600020541615610f3357601254851015610c0c5784600052601384526040600020918360045460a01c1680610f01575b6103d1576011808401948554421015610eef5733600052600d8752604060002093601886019485548015600014610eca5750610cc990601b88015460128901549161494a565b610eb8575b6014860133600052808952826040600020541660158801808b528460406000205416928b526040600020600160ff198254161790558a52610d1f8360406000209060ff801983541691151516179055565b610e47575015610e2f57600f850180549060018201809211610e1a57555b601a850154161580610e11575b610d85575b87878760405192835242908301527fcbdf6214089cba887ecbf35a0b6a734589959c9763342c756bb2a80ca2bc9f6e60403393a3005b60168401548015159283610dca575b505050610da3575b8080610d4f565b4290554360198201556017600e54910155610dc0600b5442613630565b9055838080610d9c565b600f8601546127108082029550929391928115918604141715610dff575050610df590600a5461363d565b1115878080610d94565b634e487b7160e01b6000526004526000fd5b50825415610d4a565b505050634e487b7160e01b6000526004526000fd5b6010850180549060018201809211610e1a5755610d3d565b90508981151503610e59575b50610d3d565b15610e8c57600f85018054600019810191908211610e1a57556010850180549060018201809211610e1a57555b89610e53565b601085018054600019810191908211610e1a5755600f850180549060018201809211610e1a5755610e86565b60405163f078ca7360e01b8152600490fd5b6019880154610ed89261494a565b15610cce5760405163f078ca7360e01b8152600490fd5b604051637a19ed0560e01b8152600490fd5b5083600184015460a01c166009811015610f1e5760051415610c83565b50634e487b7160e01b60009081526021600452fd5b60405163148fe22160e11b8152600490fd5b3461035757602036600319011261035757600435601254811015610c0c576000526013602052604060002060ff601a820154166000146110305760118101544210158061101f575b905b61101b60018060a01b036001830154169261100d600f8401549360108101549560118201549360ff601384015416610fd56006610fce60058701613384565b9501613384565b95604051998a99610100958b5260208b015260408a0152606089015215156080880152151560a08701528060c0870152850190613427565b9083820360e0850152613427565b0390f35b50600f810154601082015410610f8d565b601881015480156110d2576016820154908115918215611088575b50600b5461105891613630565b4210159081611080575b508061106f575b90610f8f565b50600f810154601082015410611069565b905082611062565b909150600f830154612710908181029181830414901517156110bc576110b361105892600a5461363d565b1115919061104b565b634e487b7160e01b600052601160045260246000fd5b50600090610f8f565b346103575760003660031901126103575733600052600d60205260ff6040600020541615610f335761110b613b8b565b61111433613b28565b80156111e9578061112a60075460115490613650565b106111d75760105433600052600d602052600360406000200155600f6020526040600020611159828254613630565b905561116781600754613650565b60075561119e81337f00000000000000000000000000000000000000000000000000000000000000006001600160a01b031661430b565b6040519081524260208201527f1c643327a899ca112a3300de75dd241ef8452e4f603609b53a20332da48b54e660403392a26001600055005b60405163bc6072f160e01b8152600490fd5b6040516373380d9960e01b8152600490fd5b34610357576000366003190112610357576040516370a0823160e01b81523060048201527f00000000000000000000000000000000000000000000000000000000000000006001600160a01b0316602082602481845afa8015610a01576000906112fa575b60075461014093509081808211156112f05761127b91613650565b905b6005549161128961386b565b916001549160025493600354956040519788526020880152600060408801526060870152608086015260a085015260c084015260e08301526101008201527f0000000000000000000000000000000000000000000000000000000000000000610120820152f35b505060009061127d565b506020823d602011611326575b81611314602093836132af565b81010312610357576101409151611260565b3d9150611307565b34610357576000366003190112610357576040516370a0823160e01b81523060048201526001600160a01b036020826024817f000000000000000000000000000000000000000000000000000000000000000085165afa908115610a01576000916113ee575b600754606093509182808211156113e4576113ae91613650565b915b60405192835260208301527f0000000000000000000000000000000000000000000000000000000000000000166040820152f35b50506000916113b0565b90506020823d60201161141b575b81611409602093836132af565b81010312610357576060915190611394565b3d91506113fc565b34610357576020366003190112610357576004356001600160401b038111610357576114539036906004016134c0565b60045460ff8160a01c1660001461149c57303314159081611488575b506104445761001a9161148391369161359e565b6146e6565b6001600160a01b031633141590508361146f565b5030330361047b5761001a91611483916106cf565b34610357576000366003190112610357576004546040516001600160a01b039091168152602090f35b346103575760e0366003190112610357576114f3613467565b6114fb61347d565b6001600160401b03906064358281116103575761151c9036906004016135d5565b9160a435818111610357576115359036906004016134c0565b60c4358381116103575761154d9036906004016134c0565b909260ff60045460a01c166103d1576007936103976115719261157a95369161359e565b90608435613db1565b6001808201805460ff60a01b1916600160a11b1790556002820180546001600160a01b03199081166001600160a01b039a8b16179091556003830180549091169890961697909717909455604435600485015584519093919091019181116116a1576020946115f3826115ed8554613275565b85613815565b8590601f831160011461163b57508190611626939495600092611630575b50508160011b916000199060031b1c19161790565b9055604051908152f35b015190508680611611565b90601f198316958460005281600020926000905b88821061168a57505083600195969710611671575b505050811b0190556103c9565b015160001960f88460031b161c19169055858080611664565b82840151855593840193928901929089019061164f565b634e487b7160e01b600052604160045260246000fd5b346103575760003660031901126103575760ff6008541661085857303314610846576116e1613b8b565b61083f3333614364565b346103575760003660031901126103575761101b6117076132d0565b604051918291602083526020830190613427565b6134a2565b34610357576000366003190112610357576020600354604051908152f35b346103575760203660031901126103575760206103c9600435613a7a565b3461035757602036600319011261035757611775613493565b60045460ff8160a01c1691826000146117f95730331415806117e6575b610444575b151580921515146105e45760ff60a01b191660a082901b60ff60a01b16176004556040519081527fa8adfe89c6bc95edbe7049ed316f0473a03af92b1fd027ce1ac670082467c62390602090a1005b50336001600160a01b0383161415611792565b333014611797576040516327568d2f60e11b8152600490fd5b34610357576020366003190112610357576001600160a01b03611833613467565b16600052600f6020526020604060002054604051908152f35b346103575760203660031901126103575760206103c961186a613467565b613a50565b3461035757600036600319011261035757602060405162278d008152f35b34610357576000366003190112610357576020601154604051908152f35b34610357576020366003190112610357576001600160a01b036118cc613467565b16600052600d602052602060ff604060002054166040519015158152f35b346103575760208060031936011261035757611904613467565b9033600052600d815260ff6040600020541615610f3357611923613b8b565b6001600160a01b0382811691907f0000000000000000000000000000000000000000000000000000000000000000168214611a3857816000526018815260406000209260ff600385015416156111e95761197d903361365d565b9283156111e95780548481106111d757846119b591600184015433600052601b86526040600020876000528652604060002055613650565b905581611a0657600080808086335af16119cd613a20565b5015610a8d577f26cd6ba06f6dc02c61247f710e95c768f4856af03b740594288907c36bb217e9905b6040519384523393a36001600055005b7f26cd6ba06f6dc02c61247f710e95c768f4856af03b740594288907c36bb217e990611a3384338561430b565b6119f6565b604051631c49f4d160e01b8152600490fd5b34610357576000366003190112610357576020600e54604051908152f35b3461035757604036600319011261035757611a9e611a8a602435600435613889565b60405192839260408452604084019061354f565b90151560208301520390f35b346103575760203660031901126103575760043560045460ff8160a01c16600014611b5957303314159081611b45575b50610444575b600e548115159081611b3b575b50611b29576020817fb63bcc75a862434e97db3146b78681478a2692253df1de5623d497ee61fac79992600955604051908152a161001a614f2e565b604051633161e99d60e11b8152600490fd5b9050811082611aed565b6001600160a01b0316331415905082611ada565b50333014611ae0576040516327568d2f60e11b8152600490fd5b3461035757602036600319011261035757611b8c613467565b60045460ff8160a01c16600014611c11573033141580611bfe575b610444575b6001600160a01b0391821691821561054257811690818314611a38576001600160a01b03191682176004557f0f3a6964a8ba1b7473a14630b029eae6d49bec6babf098223718bacaac7197cc600080a3005b50336001600160a01b0382161415611ba7565b333014611bac576040516327568d2f60e11b8152600490fd5b346103575760003660031901126103575760206103c961386b565b3461035757600036600319011261035757602060ff600854166040519015158152f35b34610357576080366003190112610357576001600160401b0360043581811161035757611c999036906004016134c0565b909160443581811161035757611cb39036906004016134c0565b9060643583811161035757611ccc9036906004016134c0565b919060ff60045460a01c166103d157610397611ced92611cf695369161359e565b90602435613db1565b6001818101805460ff60a01b1916600760a01b1790559193600d919091019290919082116116a157611d2c826115ed8554613275565b600090601f8311600114611d6b5750908061162692602096600092611d605750508160011b916000199060031b1c19161790565b013590508680611611565b90601f198316846000526020926020600020936000915b838310611dc2575050509583929160019460209810611da857505050811b0190556103c9565b0135600019600384901b60f8161c19169055858080611664565b898501358655948501949381019391810191611d82565b34610357576000366003190112610357576040517f00000000000000000000000000000000000000000000000000000000000000006001600160a01b03168152602090f35b34610357576000366003190112610357576020600b54604051908152f35b34610357576020366003190112610357576001600160a01b03611e5d613467565b1660005260146020526020604060002054604051908152f35b34610357576020366003190112610357576001600160a01b03611e97613467565b1660005260186020526040600020805461101b60026001840154930154604051938493846040919493926060820195825260208201520152565b34610357576000366003190112610357576020601054604051908152f35b34610357576000366003190112610357576040517f00000000000000000000000000000000000000000000000000000000000000006001600160a01b03168152602090f35b34610357576080366003190112610357576001600160401b0360043560443582811161035757611f689036906004016134c0565b91909260643590811161035757611f839036906004016134c0565b60ff60049492945460a01c166103d15782151580611fd9575b611b2957611ced600e94610397602097611fb795369161359e565b60018101805460ff60a01b1916600360a11b1790559290920155604051908152f35b50600e548310611f9c565b34610357576000366003190112610357576020600754604051908152f35b34610357576020366003190112610357576001600160a01b03612023613467565b16600052600d6020526060604060002060ff815416906002600182015491015490604051921515835260208301526040820152f35b3461035757602036600319011261035757612071613467565b6001600160a01b03818116907f0000000000000000000000000000000000000000000000000000000000000000168114611a3857600052601860205260406000209060038201805460ff811615611a38578354158015906120fb575b6120e95760006002858261001a9755015560ff1916905561420a565b60405163dda495d160e01b8152600490fd5b50600284015415156120cd565b34610357576000366003190112610357576016546121258161373c565b9060009060005b81811061217e57505061213e8161373c565b9160005b82811061215f576040516020808252819061101b9082018761354f565b8061216c60019284613801565b516121778287613801565b5201612142565b8061218a60019261376e565b90549060031b1c8060005260136020526121a84260406000206141ec565b6121b4575b500161212c565b6121c76121c0866137f2565b9587613801565b52856121ad565b34610357576121dc366134ed565b909493919260ff60045460a01c166103d15760209561039761039f9261220396369161359e565b60018101805460ff60a01b1916600360a01b1790556002810180546001600160a01b0319166001600160a01b03948516179055600454919290913391161461224f575b50604051908152f35b601a01805460ff1916600117905582612246565b346103575760403660031901126103575760043561227f61347d565b601254821015610c0c576040916000526013602052816000209060018060a01b031660005260148101602052601560ff836000205416910160205260ff8260002054168251911515825215156020820152f35b34610357576000366003190112610357576020600654604051908152f35b3461035757602036600319011261035757612309613493565b60045460ff8160a01c1660001461236b57303314159081612357575b506104445760206000805160206152c4833981519152915b151560ff196008541660ff821617600855604051908152a1005b6001600160a01b0316331415905082612325565b5030330361047b5760206000805160206152c48339815191529161233d565b346103575760403660031901126103575760206103c96123a8613467565b6123b061347d565b9061365d565b3461035757600036600319011261035757604051806019548083526020809301809160196000527f944998273e477b495144fb8794c914197f3ccb46be2900f4698fd0ef743c96959060005b86828210612461578686612418828803836132af565b604051928392818401908285525180915260408401929160005b82811061244157505050500390f35b83516001600160a01b031685528695509381019392810192600101612432565b83546001600160a01b031685529093019260019283019201612402565b346103575760c036600319011261035757612497613467565b6024356044358015158103610357576064356084359160a4359360045460ff8160a01c1660001461263557303314159081612621575b50610444575b6001600160a01b0395861680151590816125f4575b506125e257806125c9575b5061258c575b837fa00a4448d1c98b3edafbf488446a8320c2cb278ba20dd49c7b5d41a7ebfd582b60a060055492600154600254600354916040519687526020870152604086015260608501527f000000000000000000000000000000000000000000000000000000000000000060808501527f00000000000000000000000000000000000000000000000000000000000000001692a2005b6125b87f0000000000000000000000000000000000000000000000000000000000000000848484614995565b6001556002556003558180806124f9565b600a811061078a57600a810661077857600555856124f3565b60405163b078ee9d60e01b8152600490fd5b9050867f0000000000000000000000000000000000000000000000000000000000000000161415876124e8565b6001600160a01b03163314159050876124cd565b503330146124d3576040516327568d2f60e11b8152600490fd5b3461035757602080600319360112610357576004359061266d613b8b565b601254821015610c0c57816000526013815260406000209160ff600454908060a092831c1680612ea6575b6103d157601a85019481865416808091612e99575b612e875715612e04575b6013810195865493838516612df257600f83015460108401541015612de0576001978860ff19809716179055878301918460018060a01b03938481541660005260158a52816040600020541680612dce575b612daf575b54831c166009811015612d9957806127865750505050846000805160206152c4833981519152612781968695856000805160206153048339815191529660086060970154161515916008541690821617600855604051908152a15b604080519188835282015260006040820152a2613bae565b600055005b92955090939291888103612925575084600283015416926009830154915460081c16600a83015491600c600b8501549401549480151590816128f8575b506125e257806128bf575b506000805160206153048339815191529460609461278199948998947fa00a4448d1c98b3edafbf488446a8320c2cb278ba20dd49c7b5d41a7ebfd582b94612883575b505050600554928a5460025460035491604051968752878701526040860152868501527f000000000000000000000000000000000000000000000000000000000000000060808501527f00000000000000000000000000000000000000000000000000000000000000001692a2612769565b6128af7f0000000000000000000000000000000000000000000000000000000000000000848484614995565b8c556002556003558a8080612811565b90939792959194600a821061078a57600a82066107785760059190915591969094919390926000805160206153048339815191526127ce565b9050877f00000000000000000000000000000000000000000000000000000000000000001614158b6127c3565b9050600281979492959714600014612bb0575050508360028301541693806003840154169161295b600760048601549501613384565b918315610542578415610b5c577f00000000000000000000000000000000000000000000000000000000000000001692868403612a6d576040516370a0823160e01b81523060048201528281602481885afa908115610a0157600091612a40575b50600754808211156109bd576129d191613650565b85116109bd57612781968660008051602061532483398151915260609588612a1d849a876000805160206153048339815191529b61098e600654808511156000146109b7578490613650565b612a3860405192839283526040898401526040830190613427565b0390a4612769565b90508281813d8311612a66575b612a5781836132af565b810103126103575751896129bc565b503d612a4d565b959391925083612aee5760008052601881526040600020479054808211600014612ae557612a9a91613650565b82116109bd576000808080858a5af1612ab1613a20565b5015610a8d576127819585948560008051602061532483398151915260008051602061530483398151915296606096612a1d565b50506000612a9a565b83600052601881526040600020604051906370a0823160e01b82523060048301528282602481895afa918215610a0157600092612b81575b505480821115612b7857612b3991613650565b82116109bd578584866000805160206153248339815191526000805160206153048339815191529686612b736060986127819d869c61430b565b612a1d565b50506000612b39565b9091508281813d8311612ba9575b612b9981836132af565b8101031261035757519089612b26565b503d612b8f565b9295939260038103612bea57505050606061278194612be5858095600260008051602061530483398151915296015416614d08565b612769565b9193929160048103612c6d575050600301548116915081156105425760045490811690818314611a385761278194836000805160206153048339815191529386956060946bffffffffffffffffffffffff60a01b16176004557f0f3a6964a8ba1b7473a14630b029eae6d49bec6babf098223718bacaac7197cc600080a3612769565b90925060058103612cf35750601c01546004549290811615159083831c16151581146105e45760ff60a01b199092169082901b60ff60a01b1617600455604051908152612781928291600080516020615304833981519152916060917fa8adfe89c6bc95edbe7049ed316f0473a03af92b1fd027ce1ac670082467c623908290a1612769565b909250905060068103612d6d5750600e0154600e548115159081612d63575b50611b29576000805160206153048339815191526060847fb63bcc75a862434e97db3146b78681478a2692253df1de5623d497ee61fac79961278196858796600955604051908152a1612be5614f2e565b9050811085612d12565b600703611a3857600080516020615304833981519152606061278194612be5611483600d879601613384565b634e487b7160e01b600052602160045260246000fd5b60158a52604060002088815416905560148a526000604081205561270e565b5060148a528860406000205414612709565b60405163c8c93ba360e01b8152600490fd5b604051630dc1019760e01b8152600490fd5b60188101548015612e3757600b54612e1b91613630565b4210612e755760168101548015159081612e49575b50156126b7575b60405163aa26a69360e01b8152600490fd5b600f830154612710808202935081159184041417156110bc57612e6e90600a5461363d565b1187612e30565b60405163a905056160e01b8152600490fd5b604051633fc30bd160e11b8152600490fd5b50601182015442106126ad565b50806001860154831c166009811015612d995760051415612698565b34610357576020366003190112610357576001600160a01b03612ee3613467565b16600052600d6020526080604060002060ff8154169060018101549060036002820154910154916040519315158452602084015260408301526060820152f35b34610357576000366003190112610357576020600554604051908152f35b34610357576000366003190112610357576020600254604051908152f35b34610357576000366003190112610357576020600154604051908152f35b34610357576020366003190112610357576004803560009081526013602052604090206102608190528054600182015460028301546001600160a01b039081166102405260038401541661016052928201546102205290612fe090600501613384565b91612ff060066102605101613384565b6101405261300360076102605101613384565b6102805261026051600881015460ff166102c0526009810154600a8201546102a052600b820154600c83015490959261303e90600d01613384565b90600e61026051015461012052600f61026051015496601061026051015495601161026051015497601261026051015460805260ff60136102605101541660a052601661026051015460e05260176102605101546102005260186102605101546101e05260196102605101546101c052601a6102605101546101a052601b6102605101546101805260ff601c610260510154166101005260405160c05260c0515260018060a01b038116602060c0510152600960ff8260a01c161015612d99576131656131506131c09760ff61317b9460a01c16604060c051015261024051606060c051015261016051608060c05101526102205160a060c05101526103a060c0805101526103a060c0510190613427565b60c051810360e060c051015261014051613427565b60c051810361010060c051015261028051613427565b936102c051151561012060c051015261014060c05101526102a05161016060c051015261018060c05101526101a060c051015260c05182036101c060c0510152613427565b92610120516101e060c051015261020060c051015261022060c051015261024060c051015260805161026060c051015260a051151561028060c051015260e0516102a060c0510152610200516102c060c05101526101e0516102e060c05101526101c05161030060c051015260ff6101a05116151561032060c051015260ff6101a05160081c16151561034060c05101526101805161036060c051015261010051151561038060c051015260c051900360c051f35b90600182811c921680156132a5575b602083101461328f57565b634e487b7160e01b600052602260045260246000fd5b91607f1691613284565b90601f801991011681019081106001600160401b038211176116a157604052565b60405190600082600c54916132e483613275565b808352926020906001908181169081156133605750600114613311575b505061330f925003836132af565b565b915092600c6000526000805160206152a4833981519152936000925b828410613348575061330f9450505081016020013880613301565b8554888501830152948501948794509281019261332d565b9150506020925061330f94915060ff191682840152151560051b8201013880613301565b9060405191826000825461339781613275565b9081845260209460019160018116908160001461340557506001146133c6575b50505061330f925003836132af565b600090815285812095935091905b8183106133ed57505061330f93508201013880806133b7565b855488840185015294850194879450918301916133d4565b9250505061330f94925060ff191682840152151560051b8201013880806133b7565b919082519283825260005b848110613453575050826000602080949584010152601f8019910116010190565b602081830181015184830182015201613432565b600435906001600160a01b038216820361035757565b602435906001600160a01b038216820361035757565b60043590811515820361035757565b3461035757600036600319011261035757602060405162093a808152f35b9181601f84011215610357578235916001600160401b038311610357576020838186019501011161035757565b6080600319820112610357576004356001600160a01b03811681036103575791602435916001600160401b03916044358381116103575782613531916004016134c0565b939093926064359182116103575761354b916004016134c0565b9091565b90815180825260208080930193019160005b82811061356f575050505090565b835185529381019392810192600101613561565b6001600160401b0381116116a157601f01601f191660200190565b9291926135aa82613583565b916135b860405193846132af565b829481845281830111610357578281602093846000960137010152565b9080601f83011215610357578160206135f09335910161359e565b90565b60806003198201126103575760043580151581036103575791602435916001600160401b03916044358381116103575782613531916004016134c0565b919082018092116110bc57565b818102929181159184041417156110bc57565b919082039182116110bc57565b60018060a01b0380911690600092828452600d60205260ff6040852054161561371f578116907f0000000000000000000000000000000000000000000000000000000000000000168114613712578083526018602052604083209060ff6003830154161561371f57828452600d6020526136df60408520600184015493613cc6565b928452601b60205260408420908452602052604083205491808310613717575b5081811115613712576135f09250613650565b505090565b9150386136ff565b50505090565b6001600160401b0381116116a15760051b60200190565b9061374682613725565b61375360405191826132af565b8281528092613764601f1991613725565b0190602036910137565b6016548110156137a55760166000527fd833147d7dc355ba459fc788f669e58cfaf9dc25ddcd0702e87d69c7b51242890190600090565b634e487b7160e01b600052603260045260246000fd5b6019548110156137a55760196000527f944998273e477b495144fb8794c914197f3ccb46be2900f4698fd0ef743c96950190600090565b60001981146110bc5760010190565b80518210156137a55760209160051b010190565b90601f811161382357505050565b6000916000526020600020906020601f850160051c83019410613861575b601f0160051c01915b82811061385657505050565b81815560010161384a565b9092508290613841565b600e5480156138835760001981019081116110bc5790565b50600090565b919080158015613a16575b613a04576016549160009360005b8481106139bd57508481101561398d576138bb8361373c565b916000958694875b8888821080613984575b156139375750806138e061392c9261376e565b90549060031b1c8060005260136020526138fe4260406000206141ec565b15613931578661390d8a6137f2565b99106139315761392661391f8c6137f2565b9b89613801565b526137f2565b6138c3565b506137f2565b939750505092935061394891613630565b10926139538161373c565b9160005b828110613965575050509190565b8061397260019284613801565b5161397d8287613801565b5201613957565b508281106138cd565b5092505050604051602081018181106001600160401b038211176116a15760405260008152600036813790600090565b6139c68161376e565b90549060031b1c60005260136020526139e34260406000206141ec565b6139f0575b6001016138a2565b946139fc6001916137f2565b9590506139e8565b6040516381f396b760e01b8152600490fd5b5060648111613894565b3d15613a4b573d90613a3182613583565b91613a3f60405193846132af565b82523d6000602084013e565b606090565b6001600160a01b03166000908152600d602052604090205460ff1615613a7557600190565b600090565b906000906000908315613b2157601693601654908115613b185793905b80151580613b0f575b15613af3576000198101908111613afb57613aba9061376e565b90549060031b1c8084526013602052613ad642604086206141ec565b613af35790613ae7613aec92613bae565b6137f2565b8454613a97565b509350915050565b634e487b7160e01b84526011600452602484fd5b50848210613aa0565b50509250905090565b9250905090565b6001600160a01b03166000908152600d60205260409020805460ff1615613883576003601054910154808211600014613b64576135f091613650565b5050600090565b8115613b75570690565b634e487b7160e01b600052601260045260246000fd5b600260005414613b9c576002600055565b604051633ee5aeb560e01b8152600490fd5b600090808252601760205260408220548015613ca55760001990808201818111613c9157601654838101908111613c7d57808203613c31575b5050506016548015613c1d57810190613bff8261376e565b909182549160031b1b19169055601655815260176020526040812055565b634e487b7160e01b84526031600452602484fd5b613c5091613c41613c699261376e565b90549060031b1c92839161376e565b90919082549060031b91821b91600019901b1916179055565b845260176020526040842055388080613be7565b634e487b7160e01b86526011600452602486fd5b634e487b7160e01b85526011600452602485fd5b505050565b80548210156137a55760005260206000209060011b0190600090565b906004808301918254938415613da557506002810154600180920154906000955b808710613d175750505050508115613b645760001982019182116110bc57600191613d1191613caa565b50015490565b613d218188613630565b841c90613d2e8288613caa565b50546001600160401b039081811680861015613d4d5750505050613ce7565b929992851115613d7f57505050838101809111613d6a5795613ce7565b601185634e487b7160e01b6000525260246000fd5b91989160401c16841015613d935750613ce7565b9650838101809111613d6a5795613ce7565b60010154949350505050565b919290926000923384526020600d815260409160ff8387205416156141db573386526015825260ff838720541661416b575b80614165575062093a80955b62093a8087106141545762278d0087116141435760125492613e10846137f2565b60125583978488526013845281882097858955613e49600192838b01336bffffffffffffffffffffffff60a01b82541617905542613630565b9160118a019283554260128b015560058a018551906001600160401b039182811161412f57613e8281613e7c8454613275565b84613815565b88601f82116001146140d2579080613eaf9287916140c7575b508160011b916000199060031b1c19161790565b90555b885160068c0191811161400f57613ecd81613e7c8454613275565b87601f8211600114614068579080613ef992869161405d57508160011b916000199060031b1c19161790565b90555b43601b8b015560138a019060ff199182815416905533835260148b018752848320818382541617905560158b018752848320818382541617905580600f8c01558260108c0155600e548060168d015560188c01848155601a8d0184815416905581151580614046575b614023575b5050601654600160401b81101561400f57857f0a3d356d942a35213f2f2e42f5c07221391ae9a4f16edaa23278b9f8068be77298979694613ffb9484613fbe8d613c508761400a9c9983990160165561376e565b60165485845260178c528484205533835260158b528383209182541617905560148952205554936060835196879687528601526060850190613427565b90838203908401523396613427565b0390a3565b634e487b7160e01b84526041600452602484fd5b4290554360198d015560178c015561403d600b5442613630565b84553880613f6a565b5061405382600a5461363d565b6127101015613f65565b90508b015138613e9b565b828552888520849291601f198316878c8f5b8383106140b0575050508311614097575b5050811b019055613efc565b8c015160001960f88460031b161c19169055388061408b565b840151855588969094019392830192018c8f61407a565b905089015138613e9b565b828652898620859291601f198316885b8d8d83831061411a575050508311614101575b5050811b019055613eb2565b8a015160001960f88460031b161c1916905538806140f5565b840151855589969094019392830192016140e2565b634e487b7160e01b85526041600452602485fd5b825163eeeb962360e01b8152600490fd5b82516331806aeb60e21b8152600490fd5b95613def565b6014829695949396528585205485526013825285852060ff6013820154161590816141cd575b50156141a857855163792c310960e11b8152600490fd5b94919293943386526015825282862060ff198154169055601482528583812055613de3565b601191500154421038614191565b825163148fe22160e11b8152600490fd5b9060118201541190816141fd575090565b60ff915060130154161590565b6001600160a01b039081166000818152601a602052604081205490929080156143055760001990808201818111613c7d57601954908382019182116142f15790818186930361429e575b50505050601954801561428a57019061426c826137bb565b909182549160031b1b191690556019558152601a6020526040812055565b634e487b7160e01b85526031600452602485fd5b6142be926142ae6142dc936137bb565b90549060031b1c169283916137bb565b90919060018060a01b038084549260031b9316831b921b1916179055565b8552601a602052604085205538828180614254565b634e487b7160e01b87526011600452602487fd5b50505050565b60405163a9059cbb60e01b60208201526001600160a01b03909216602483015260448083019390935291815260808101916001600160401b038311828410176116a15761330f92604052614f8a565b8115613b75570490565b6001600160a01b03918216919082156105425782600052600d60205260406000209160ff8354166146d457600e549160095480151590816146c9575b506146b757826146aa575b6005546143ba60015482615088565b946143c760035483615088565b946143f27f000000000000000000000000000000000000000000000000000000000000000084615088565b9161440a83614405896144058c89613650565b613650565b936144158886613630565b906040516370a0823160e01b815288881660048201526020816024818c7f0000000000000000000000000000000000000000000000000000000000000000165afa908115610a0157600091614678575b501061466657600160ff1983541617825542600183015543600283015560018301918284116110bc5761453992600e5583614630575b60036010549101556144af85600654613630565b6006556144be88600754613630565b60075561450f897f0000000000000000000000000000000000000000000000000000000000000000888a7f000000000000000000000000000000000000000000000000000000000000000016615103565b3086887f000000000000000000000000000000000000000000000000000000000000000016615103565b614587827f000000000000000000000000000000000000000000000000000000000000000086887f000000000000000000000000000000000000000000000000000000000000000016615103565b806145f45750906101009392917f1e609b99246f156bec3eb747e01ae03549c74e403e03208c30200ec52f26ade0956000925b60055498604051998a5260208a01526040890152606088015260808701524260a08701524360c087015260e08601521692a361330f614f2e565b6000198101949392919085116110bc577f1e609b99246f156bec3eb747e01ae03549c74e403e03208c30200ec52f26ade09561010095926145ba565b61465e61463f6011548b613630565b6146538661464d818461435a565b92613b6b565b601155601054613630565b60105561449b565b604051631e9acf1760e31b8152600490fd5b90506020813d6020116146a2575b81614693602093836132af565b81010312610357575138614465565b3d9150614686565b6146b2614fe6565b6143ab565b6040516382b675f560e01b8152600490fd5b9050831015386143a0565b604051636826b7b960e11b8152600490fd5b604051600091600c80546146f981613275565b8085526020948581019181600198898616898160001461492f57506001146148e4575b614728925003826132af565b519020835185850120146148dd5761473e6132d0565b948351916001600160401b0383116116a15761475990613275565b601f8111614889575b508490601f83116001146147f15750926147e1926147bd836147d497947f71e57b89fe30fe66cb93427236f86ec18c6ec404e26b5c0914ee88193dd07da599976000916147e657508160011b916000199060031b1c19161790565b90555b604051948594604086526040860190613427565b9184830390850152613427565b0390a1565b905084015138613e9b565b9190601f19821690846000526000805160206152a48339815191529160005b8181106148745750926147e195926147d4989592827f71e57b89fe30fe66cb93427236f86ec18c6ec404e26b5c0914ee88193dd07da59b99961061485b575b5050811b0190556147c0565b85015160001960f88460031b161c19169055388061484f565b87830151845592850192918801918801614810565b836000526000805160206152a4833981519152601f840160051c8101918785106148d3575b601f0160051c019082905b8281106148c7575050614762565b600081550182906148b9565b90915081906148ae565b5050505050565b50508460005281876000805160206152a48339815191528a6000915b858310614916575050614728935082010161471c565b80919294505483858801015201910188908a8593614900565b9150506147289260ff1987168652151560051b82010161471c565b9190801561498d57600283015481811161498457149182614976575b505061497157600090565b600190565b600101541190503880614966565b50505050600190565b505050600090565b6149af926149aa61271095936149aa93613630565b613630565b036149b657565b60405163542c8df360e11b8152600490fd5b600e54908115614cf6576001600160a01b0381811692907f000000000000000000000000000000000000000000000000000000000000000016838114614bde5750600083614b68575047915b836000526018602052604092836000209081549081811115614b575790614a3a91613650565b9185600052601860205260038560002001805460ff811615614ada575b5050509061400a82600095614a7d846000805160206152e4833981519152979654613630565b8255614abf6002830192614aa6614a95855488613630565b97614aa0818a61435a565b98613b6b565b809460018301614ab78a8254613630565b9055556151e2565b51938493846040919493926060820195825260208201520152565b610100601996959496541015614b465760ff1916600117905560195493600160401b8510156116a157600095614b2c61400a936142be8860016000805160206152e48339815191529a016019556137bb565b601954888852601a60205281882055958193949550614a57565b8651636ff5066b60e11b8152600490fd5b8551631ab9ebab60e01b8152600490fd5b6040516370a0823160e01b8152306004820152602081602481885afa918215614bd2578092614b9a575b505091614a14565b9091506020823d602011614bca575b81614bb6602093836132af565b81010312614bc75750513880614b92565b80fd5b3d9150614ba9565b604051903d90823e3d90fd5b6040516370a0823160e01b8152306004820152919250602090829060249082905afa908115610a0157600091614cc4575b506007549182821115614cb25782614c5c614c3b6000956000805160206152e483398151915295613650565b8092614c546006548084111589146109b7578390613650565b600655613630565b60075561400a614c82614c7160115484613630565b93614c7c818661435a565b94613b6b565b614c8e84601054613630565b60105580601155604051938493846040919493926060820195825260208201520152565b604051631ab9ebab60e01b8152600490fd5b90506020813d602011614cee575b81614cdf602093836132af565b81010312610357575138614c0f565b3d9150614cd2565b604051630292d7c360e51b8152600490fd5b90600e54918215614cf6576001600160a01b0381811693907f000000000000000000000000000000000000000000000000000000000000000016848114614e885750600084614e21575047915b846000526018602052604092836000209081549081811115614b575790614d7b91613650565b9186600052601860205260038560002001805460ff811615614dba575b505050806000805160206152e483398151915294614a7d8461400a9454613630565b6101006019949394541015614b465760ff1916600117905560195494600160401b8610156116a157614e0861400a936142be8860016000805160206152e48339815191529a016019556137bb565b60195488600052601a6020528160002055948192614d98565b6040516370a0823160e01b8152306004820152602081602481895afa918215614bd2578092614e53575b505091614d55565b9091506020823d602011614e80575b81614e6f602093836132af565b81010312614bc75750513880614e4b565b3d9150614e62565b6040516370a0823160e01b81523060048201529250602090839060249082905afa918215610a0157600092614efa575b5060075480831115614cb257614c5c614ee0826000805160206152e483398151915295613650565b8092614c54600654808411156000146109b7578390613650565b9091506020813d602011614f26575b81614f16602093836132af565b8101031261035757519038614eb8565b3d9150614f09565b6009548015159081614f7d575b5080614f70575b614f4857565b600160ff1960085416176008556000805160206152c4833981519152602060405160018152a1565b5060ff6008541615614f42565b9050600e54101538614f3b565b906000602091828151910182855af115610a01576000513d614fdd57506001600160a01b0381163b155b614fbb5750565b604051635274afe760e01b81526001600160a01b039091166004820152602490fd5b60011415614fb4565b600e54801561508557601954906000805b8381106150045750505050565b806150106001926137bb565b838060a01b0391549060031b1c1683526018602052836040842060028101805490811561507c57615041848361435a565b9182156150725761506c9461505591613b6b565b9055615065858301918254613630565b90556151e2565b01614ff7565b505050505061506c565b5050505061506c565b50565b90600019818309818302918280831092039180830392146150f85761271090828211156150e5577fbc01a36e2eb1c432ca57a786c226809d495182a9930be0ded288ce703afb7e91940990828211900360fc1b910360041c170290565b634e487b7160005260116020526024601cfd5b505061271091500490565b6040516323b872dd60e01b60208201526001600160a01b03928316602482015292909116604483015260648083019390935291815260a08101918183106001600160401b038411176116a15761330f92604052614f8a565b8054600160401b8110156116a15761517891600182018155613caa565b9190916151cc578051825460208301516fffffffffffffffffffffffffffffffff199091166001600160401b039290921691909117604091821b67ffffffffffffffff60401b161783556001910151910155565b634e487b7160e01b600052600060045260246000fd5b6001600160401b036001820154906040519260608401848110838211176116a1576040528143168452600460208501918342168352604086019485520193845480156152955760001981019081116110bc5761523e9086613caa565b50948386541684835116146000146152865750505183546fffffffffffffffff00000000000000001916911660401b67ffffffffffffffff60401b1617825560019051910155565b925092505061330f925061515b565b509250505061330f9161515b56fedf6966c971051c3d54ec59162606531493a51404a002842f56009d7e5cf4a8c7c2542ff58c47f8c0922a043c4b21423ecd816167eeab1dabfb51d56508d90a66f502c7eda43df8a8ec352065360db3486f90ce32849cf8182983d7939bfd3626af8f9d0e884d3306a083e846741a0bc4d75908e2b0ec63b558219652ae4c1b90d81f085560db5c809c425a15f00e3f2904e4fa46d6e8672ff2e671ccd6d9a231a2646970667358221220550a3e9f6804b7b700022260d308515c1112567ae52d6ca336f54bb8d6b152e364736f6c63430008170033",
  "linkReferences": {},
  "deployedLinkReferences": {}
}