{
  "_format": "hh-sol-artifact-1",
  "contractName": "TEMPL",
  "sourceName": "contracts/TEMPL.sol",
  "abi": [
    {
      "inputs": [
        {
          "internalType": "address",
          "name": "_priest",
          "type": "address"
        },
        {
          "internalType": "address",
          "name": "_protocolFeeRecipient",
          "type": "address"
        },
        {
          "internalType": "address",
          "name": "_token",
          "type": "address"
        },
        {
          "internalType": "uint256",
          "name": "_entryFee",
          "type": "uint256"
        },
        {
          "internalType": "uint256",
          "name": "_burnPercent",
          "type": "uint256"
        },
        {
          "internalType": "uint256",
          "name": "_treasuryPercent",
          "type": "uint256"
        },
        {
          "internalType": "uint256",
          "name": "_memberPoolPercent",
          "type": "uint256"
        },
        {
          "internalType": "uint256",
          "name": "_protocolPercent",
          "type": "uint256"
        },
        {
          "internalType": "uint256",
          "name": "_quorumPercent",
          "type": "uint256"
        },
        {
          "internalType": "uint256",
          "name": "_executionDelay",
          "type": "uint256"
        },
        {
          "internalType": "address",
          "name": "_burnAddress",
          "type": "address"
        },
        {
          "internalType": "bool",
          "name": "_priestIsDictator",
          "type": "bool"
        },
        {
          "internalType": "uint256",
          "name": "_maxMembers",
          "type": "uint256"
        },
        {
          "internalType": "string",
          "name": "_homeLink",
          "type": "string"
        }
      ],
      "stateMutability": "nonpayable",
      "type": "constructor"
    },
    {
      "inputs": [],
      "name": "ActiveProposalExists",
      "type": "error"
    },
    {
      "inputs": [],
      "name": "AlreadyExecuted",
      "type": "error"
    },
    {
      "inputs": [],
      "name": "AlreadyPurchased",
      "type": "error"
    },
    {
      "inputs": [],
      "name": "AmountZero",
      "type": "error"
    },
    {
      "inputs": [],
      "name": "ContractPausedError",
      "type": "error"
    },
    {
      "inputs": [],
      "name": "DictatorshipEnabled",
      "type": "error"
    },
    {
      "inputs": [],
      "name": "DictatorshipUnchanged",
      "type": "error"
    },
    {
      "inputs": [],
      "name": "DisbandLockActive",
      "type": "error"
    },
    {
      "inputs": [],
      "name": "EntryFeeTooSmall",
      "type": "error"
    },
    {
      "inputs": [],
      "name": "ExecutionDelayActive",
      "type": "error"
    },
    {
      "inputs": [],
      "name": "InsufficientBalance",
      "type": "error"
    },
    {
      "inputs": [],
      "name": "InsufficientPoolBalance",
      "type": "error"
    },
    {
      "inputs": [],
      "name": "InsufficientTreasuryBalance",
      "type": "error"
    },
    {
      "inputs": [],
      "name": "InvalidCallData",
      "type": "error"
    },
    {
      "inputs": [],
      "name": "InvalidEntryFee",
      "type": "error"
    },
    {
      "inputs": [],
      "name": "InvalidPercentage",
      "type": "error"
    },
    {
      "inputs": [],
      "name": "InvalidPercentageSplit",
      "type": "error"
    },
    {
      "inputs": [],
      "name": "InvalidProposal",
      "type": "error"
    },
    {
      "inputs": [],
      "name": "InvalidRecipient",
      "type": "error"
    },
    {
      "inputs": [],
      "name": "InvalidSender",
      "type": "error"
    },
    {
      "inputs": [],
      "name": "JoinedAfterProposal",
      "type": "error"
    },
    {
      "inputs": [],
      "name": "LimitOutOfRange",
      "type": "error"
    },
    {
      "inputs": [],
      "name": "MemberLimitReached",
      "type": "error"
    },
    {
      "inputs": [],
      "name": "MemberLimitTooLow",
      "type": "error"
    },
    {
      "inputs": [],
      "name": "NoMembers",
      "type": "error"
    },
    {
      "inputs": [],
      "name": "NoRewardsToClaim",
      "type": "error"
    },
    {
      "inputs": [],
      "name": "NoTreasuryFunds",
      "type": "error"
    },
    {
      "inputs": [],
      "name": "NotDAO",
      "type": "error"
    },
    {
      "inputs": [],
      "name": "NotMember",
      "type": "error"
    },
    {
      "inputs": [],
      "name": "PriestOnly",
      "type": "error"
    },
    {
      "inputs": [],
      "name": "ProposalExecutionFailed",
      "type": "error"
    },
    {
      "inputs": [],
      "name": "ProposalNotPassed",
      "type": "error"
    },
    {
      "inputs": [],
      "name": "QuorumNotReached",
      "type": "error"
    },
    {
      "inputs": [],
      "name": "ReentrancyGuardReentrantCall",
      "type": "error"
    },
    {
      "inputs": [
        {
          "internalType": "address",
          "name": "token",
          "type": "address"
        }
      ],
      "name": "SafeERC20FailedOperation",
      "type": "error"
    },
    {
      "inputs": [],
      "name": "TokenChangeDisabled",
      "type": "error"
    },
    {
      "inputs": [],
      "name": "VotingEnded",
      "type": "error"
    },
    {
      "inputs": [],
      "name": "VotingNotEnded",
      "type": "error"
    },
    {
      "inputs": [],
      "name": "VotingPeriodTooLong",
      "type": "error"
    },
    {
      "inputs": [],
      "name": "VotingPeriodTooShort",
      "type": "error"
    },
    {
      "anonymous": false,
      "inputs": [
        {
          "indexed": true,
          "internalType": "address",
          "name": "purchaser",
          "type": "address"
        },
        {
          "indexed": false,
          "internalType": "uint256",
          "name": "totalAmount",
          "type": "uint256"
        },
        {
          "indexed": false,
          "internalType": "uint256",
          "name": "burnedAmount",
          "type": "uint256"
        },
        {
          "indexed": false,
          "internalType": "uint256",
          "name": "treasuryAmount",
          "type": "uint256"
        },
        {
          "indexed": false,
          "internalType": "uint256",
          "name": "memberPoolAmount",
          "type": "uint256"
        },
        {
          "indexed": false,
          "internalType": "uint256",
          "name": "protocolAmount",
          "type": "uint256"
        },
        {
          "indexed": false,
          "internalType": "uint256",
          "name": "timestamp",
          "type": "uint256"
        },
        {
          "indexed": false,
          "internalType": "uint256",
          "name": "blockNumber",
          "type": "uint256"
        },
        {
          "indexed": false,
          "internalType": "uint256",
          "name": "purchaseId",
          "type": "uint256"
        }
      ],
      "name": "AccessPurchased",
      "type": "event"
    },
    {
      "anonymous": false,
      "inputs": [
        {
          "indexed": true,
          "internalType": "address",
          "name": "token",
          "type": "address"
        },
        {
          "indexed": false,
          "internalType": "uint256",
          "name": "entryFee",
          "type": "uint256"
        },
        {
          "indexed": false,
          "internalType": "uint256",
          "name": "burnPercent",
          "type": "uint256"
        },
        {
          "indexed": false,
          "internalType": "uint256",
          "name": "treasuryPercent",
          "type": "uint256"
        },
        {
          "indexed": false,
          "internalType": "uint256",
          "name": "memberPoolPercent",
          "type": "uint256"
        },
        {
          "indexed": false,
          "internalType": "uint256",
          "name": "protocolPercent",
          "type": "uint256"
        }
      ],
      "name": "ConfigUpdated",
      "type": "event"
    },
    {
      "anonymous": false,
      "inputs": [
        {
          "indexed": false,
          "internalType": "bool",
          "name": "isPaused",
          "type": "bool"
        }
      ],
      "name": "ContractPaused",
      "type": "event"
    },
    {
      "anonymous": false,
      "inputs": [
        {
          "indexed": false,
          "internalType": "bool",
          "name": "enabled",
          "type": "bool"
        }
      ],
      "name": "DictatorshipModeChanged",
      "type": "event"
    },
    {
      "anonymous": false,
      "inputs": [
        {
          "indexed": true,
          "internalType": "address",
          "name": "token",
          "type": "address"
        },
        {
          "indexed": true,
          "internalType": "address",
          "name": "member",
          "type": "address"
        },
        {
          "indexed": false,
          "internalType": "uint256",
          "name": "amount",
          "type": "uint256"
        }
      ],
      "name": "ExternalRewardClaimed",
      "type": "event"
    },
    {
      "anonymous": false,
      "inputs": [
        {
          "indexed": false,
          "internalType": "uint256",
          "name": "maxMembers",
          "type": "uint256"
        }
      ],
      "name": "MaxMembersUpdated",
      "type": "event"
    },
    {
      "anonymous": false,
      "inputs": [
        {
          "indexed": true,
          "internalType": "address",
          "name": "member",
          "type": "address"
        },
        {
          "indexed": false,
          "internalType": "uint256",
          "name": "amount",
          "type": "uint256"
        },
        {
          "indexed": false,
          "internalType": "uint256",
          "name": "timestamp",
          "type": "uint256"
        }
      ],
      "name": "MemberPoolClaimed",
      "type": "event"
    },
    {
      "anonymous": false,
      "inputs": [
        {
          "indexed": true,
          "internalType": "address",
          "name": "oldPriest",
          "type": "address"
        },
        {
          "indexed": true,
          "internalType": "address",
          "name": "newPriest",
          "type": "address"
        }
      ],
      "name": "PriestChanged",
      "type": "event"
    },
    {
      "anonymous": false,
      "inputs": [
        {
          "indexed": true,
          "internalType": "uint256",
          "name": "proposalId",
          "type": "uint256"
        },
        {
          "indexed": true,
          "internalType": "address",
          "name": "proposer",
          "type": "address"
        },
        {
          "indexed": false,
          "internalType": "uint256",
          "name": "endTime",
          "type": "uint256"
        },
        {
          "indexed": false,
          "internalType": "string",
          "name": "title",
          "type": "string"
        },
        {
          "indexed": false,
          "internalType": "string",
          "name": "description",
          "type": "string"
        }
      ],
      "name": "ProposalCreated",
      "type": "event"
    },
    {
      "anonymous": false,
      "inputs": [
        {
          "indexed": true,
          "internalType": "uint256",
          "name": "proposalId",
          "type": "uint256"
        },
        {
          "indexed": false,
          "internalType": "bool",
          "name": "success",
          "type": "bool"
        },
        {
          "indexed": false,
          "internalType": "bytes",
          "name": "returnData",
          "type": "bytes"
        }
      ],
      "name": "ProposalExecuted",
      "type": "event"
    },
    {
      "anonymous": false,
      "inputs": [
        {
          "indexed": false,
          "internalType": "string",
          "name": "previousLink",
          "type": "string"
        },
        {
          "indexed": false,
          "internalType": "string",
          "name": "newLink",
          "type": "string"
        }
      ],
      "name": "TemplHomeLinkUpdated",
      "type": "event"
    },
    {
      "anonymous": false,
      "inputs": [
        {
          "indexed": true,
          "internalType": "uint256",
          "name": "proposalId",
          "type": "uint256"
        },
        {
          "indexed": true,
          "internalType": "address",
          "name": "token",
          "type": "address"
        },
        {
          "indexed": true,
          "internalType": "address",
          "name": "recipient",
          "type": "address"
        },
        {
          "indexed": false,
          "internalType": "uint256",
          "name": "amount",
          "type": "uint256"
        },
        {
          "indexed": false,
          "internalType": "string",
          "name": "description",
          "type": "string"
        }
      ],
      "name": "TreasuryAction",
      "type": "event"
    },
    {
      "anonymous": false,
      "inputs": [
        {
          "indexed": true,
          "internalType": "uint256",
          "name": "proposalId",
          "type": "uint256"
        },
        {
          "indexed": true,
          "internalType": "address",
          "name": "token",
          "type": "address"
        },
        {
          "indexed": false,
          "internalType": "uint256",
          "name": "amount",
          "type": "uint256"
        },
        {
          "indexed": false,
          "internalType": "uint256",
          "name": "perMember",
          "type": "uint256"
        },
        {
          "indexed": false,
          "internalType": "uint256",
          "name": "remainder",
          "type": "uint256"
        }
      ],
      "name": "TreasuryDisbanded",
      "type": "event"
    },
    {
      "anonymous": false,
      "inputs": [
        {
          "indexed": true,
          "internalType": "uint256",
          "name": "proposalId",
          "type": "uint256"
        },
        {
          "indexed": true,
          "internalType": "address",
          "name": "voter",
          "type": "address"
        },
        {
          "indexed": false,
          "internalType": "bool",
          "name": "support",
          "type": "bool"
        },
        {
          "indexed": false,
          "internalType": "uint256",
          "name": "timestamp",
          "type": "uint256"
        }
      ],
      "name": "VoteCast",
      "type": "event"
    },
    {
      "inputs": [],
      "name": "DEFAULT_VOTING_PERIOD",
      "outputs": [
        {
          "internalType": "uint256",
          "name": "",
          "type": "uint256"
        }
      ],
      "stateMutability": "view",
      "type": "function"
    },
    {
      "inputs": [],
      "name": "MAX_MEMBERS",
      "outputs": [
        {
          "internalType": "uint256",
          "name": "",
          "type": "uint256"
        }
      ],
      "stateMutability": "view",
      "type": "function"
    },
    {
      "inputs": [],
      "name": "MAX_VOTING_PERIOD",
      "outputs": [
        {
          "internalType": "uint256",
          "name": "",
          "type": "uint256"
        }
      ],
      "stateMutability": "view",
      "type": "function"
    },
    {
      "inputs": [],
      "name": "MIN_VOTING_PERIOD",
      "outputs": [
        {
          "internalType": "uint256",
          "name": "",
          "type": "uint256"
        }
      ],
      "stateMutability": "view",
      "type": "function"
    },
    {
      "inputs": [],
      "name": "accessToken",
      "outputs": [
        {
          "internalType": "address",
          "name": "",
          "type": "address"
        }
      ],
      "stateMutability": "view",
      "type": "function"
    },
    {
      "inputs": [],
      "name": "activeDisbandJoinLocks",
      "outputs": [
        {
          "internalType": "uint256",
          "name": "",
          "type": "uint256"
        }
      ],
      "stateMutability": "view",
      "type": "function"
    },
    {
      "inputs": [
        {
          "internalType": "address",
          "name": "",
          "type": "address"
        }
      ],
      "name": "activeProposalId",
      "outputs": [
        {
          "internalType": "uint256",
          "name": "",
          "type": "uint256"
        }
      ],
      "stateMutability": "view",
      "type": "function"
    },
    {
      "inputs": [],
      "name": "burnAddress",
      "outputs": [
        {
          "internalType": "address",
          "name": "",
          "type": "address"
        }
      ],
      "stateMutability": "view",
      "type": "function"
    },
    {
      "inputs": [],
      "name": "burnPercent",
      "outputs": [
        {
          "internalType": "uint256",
          "name": "",
          "type": "uint256"
        }
      ],
      "stateMutability": "view",
      "type": "function"
    },
    {
      "inputs": [
        {
          "internalType": "address",
          "name": "newPriest",
          "type": "address"
        }
      ],
      "name": "changePriestDAO",
      "outputs": [],
      "stateMutability": "nonpayable",
      "type": "function"
    },
    {
      "inputs": [
        {
          "internalType": "address",
          "name": "token",
          "type": "address"
        }
      ],
      "name": "claimExternalToken",
      "outputs": [],
      "stateMutability": "nonpayable",
      "type": "function"
    },
    {
      "inputs": [],
      "name": "claimMemberPool",
      "outputs": [],
      "stateMutability": "nonpayable",
      "type": "function"
    },
    {
      "inputs": [
        {
          "internalType": "address",
          "name": "_newPriest",
          "type": "address"
        },
        {
          "internalType": "uint256",
          "name": "_votingPeriod",
          "type": "uint256"
        },
        {
          "internalType": "string",
          "name": "_title",
          "type": "string"
        },
        {
          "internalType": "string",
          "name": "_description",
          "type": "string"
        }
      ],
      "name": "createProposalChangePriest",
      "outputs": [
        {
          "internalType": "uint256",
          "name": "",
          "type": "uint256"
        }
      ],
      "stateMutability": "nonpayable",
      "type": "function"
    },
    {
      "inputs": [
        {
          "internalType": "address",
          "name": "_token",
          "type": "address"
        },
        {
          "internalType": "uint256",
          "name": "_votingPeriod",
          "type": "uint256"
        },
        {
          "internalType": "string",
          "name": "_title",
          "type": "string"
        },
        {
          "internalType": "string",
          "name": "_description",
          "type": "string"
        }
      ],
      "name": "createProposalDisbandTreasury",
      "outputs": [
        {
          "internalType": "uint256",
          "name": "",
          "type": "uint256"
        }
      ],
      "stateMutability": "nonpayable",
      "type": "function"
    },
    {
      "inputs": [
        {
          "internalType": "bool",
          "name": "_enable",
          "type": "bool"
        },
        {
          "internalType": "uint256",
          "name": "_votingPeriod",
          "type": "uint256"
        },
        {
          "internalType": "string",
          "name": "_title",
          "type": "string"
        },
        {
          "internalType": "string",
          "name": "_description",
          "type": "string"
        }
      ],
      "name": "createProposalSetDictatorship",
      "outputs": [
        {
          "internalType": "uint256",
          "name": "",
          "type": "uint256"
        }
      ],
      "stateMutability": "nonpayable",
      "type": "function"
    },
    {
      "inputs": [
        {
          "internalType": "string",
          "name": "_newLink",
          "type": "string"
        },
        {
          "internalType": "uint256",
          "name": "_votingPeriod",
          "type": "uint256"
        },
        {
          "internalType": "string",
          "name": "_title",
          "type": "string"
        },
        {
          "internalType": "string",
          "name": "_description",
          "type": "string"
        }
      ],
      "name": "createProposalSetHomeLink",
      "outputs": [
        {
          "internalType": "uint256",
          "name": "",
          "type": "uint256"
        }
      ],
      "stateMutability": "nonpayable",
      "type": "function"
    },
    {
      "inputs": [
        {
          "internalType": "uint256",
          "name": "_newMaxMembers",
          "type": "uint256"
        },
        {
          "internalType": "uint256",
          "name": "_votingPeriod",
          "type": "uint256"
        },
        {
          "internalType": "string",
          "name": "_title",
          "type": "string"
        },
        {
          "internalType": "string",
          "name": "_description",
          "type": "string"
        }
      ],
      "name": "createProposalSetMaxMembers",
      "outputs": [
        {
          "internalType": "uint256",
          "name": "",
          "type": "uint256"
        }
      ],
      "stateMutability": "nonpayable",
      "type": "function"
    },
    {
      "inputs": [
        {
          "internalType": "bool",
          "name": "_paused",
          "type": "bool"
        },
        {
          "internalType": "uint256",
          "name": "_votingPeriod",
          "type": "uint256"
        },
        {
          "internalType": "string",
          "name": "_title",
          "type": "string"
        },
        {
          "internalType": "string",
          "name": "_description",
          "type": "string"
        }
      ],
      "name": "createProposalSetPaused",
      "outputs": [
        {
          "internalType": "uint256",
          "name": "",
          "type": "uint256"
        }
      ],
      "stateMutability": "nonpayable",
      "type": "function"
    },
    {
      "inputs": [
        {
          "internalType": "uint256",
          "name": "_newEntryFee",
          "type": "uint256"
        },
        {
          "internalType": "uint256",
          "name": "_newBurnPercent",
          "type": "uint256"
        },
        {
          "internalType": "uint256",
          "name": "_newTreasuryPercent",
          "type": "uint256"
        },
        {
          "internalType": "uint256",
          "name": "_newMemberPoolPercent",
          "type": "uint256"
        },
        {
          "internalType": "bool",
          "name": "_updateFeeSplit",
          "type": "bool"
        },
        {
          "internalType": "uint256",
          "name": "_votingPeriod",
          "type": "uint256"
        },
        {
          "internalType": "string",
          "name": "_title",
          "type": "string"
        },
        {
          "internalType": "string",
          "name": "_description",
          "type": "string"
        }
      ],
      "name": "createProposalUpdateConfig",
      "outputs": [
        {
          "internalType": "uint256",
          "name": "",
          "type": "uint256"
        }
      ],
      "stateMutability": "nonpayable",
      "type": "function"
    },
    {
      "inputs": [
        {
          "internalType": "address",
          "name": "_token",
          "type": "address"
        },
        {
          "internalType": "address",
          "name": "_recipient",
          "type": "address"
        },
        {
          "internalType": "uint256",
          "name": "_amount",
          "type": "uint256"
        },
        {
          "internalType": "string",
          "name": "_reason",
          "type": "string"
        },
        {
          "internalType": "uint256",
          "name": "_votingPeriod",
          "type": "uint256"
        },
        {
          "internalType": "string",
          "name": "_title",
          "type": "string"
        },
        {
          "internalType": "string",
          "name": "_description",
          "type": "string"
        }
      ],
      "name": "createProposalWithdrawTreasury",
      "outputs": [
        {
          "internalType": "uint256",
          "name": "",
          "type": "uint256"
        }
      ],
      "stateMutability": "nonpayable",
      "type": "function"
    },
    {
      "inputs": [],
      "name": "cumulativeMemberRewards",
      "outputs": [
        {
          "internalType": "uint256",
          "name": "",
          "type": "uint256"
        }
      ],
      "stateMutability": "view",
      "type": "function"
    },
    {
      "inputs": [
        {
          "internalType": "address",
          "name": "token",
          "type": "address"
        }
      ],
      "name": "disbandTreasuryDAO",
      "outputs": [],
      "stateMutability": "nonpayable",
      "type": "function"
    },
    {
      "inputs": [],
      "name": "entryFee",
      "outputs": [
        {
          "internalType": "uint256",
          "name": "",
          "type": "uint256"
        }
      ],
      "stateMutability": "view",
      "type": "function"
    },
    {
      "inputs": [
        {
          "internalType": "uint256",
          "name": "_proposalId",
          "type": "uint256"
        }
      ],
      "name": "executeProposal",
      "outputs": [],
      "stateMutability": "nonpayable",
      "type": "function"
    },
    {
      "inputs": [],
      "name": "executionDelayAfterQuorum",
      "outputs": [
        {
          "internalType": "uint256",
          "name": "",
          "type": "uint256"
        }
      ],
      "stateMutability": "view",
      "type": "function"
    },
    {
      "inputs": [],
      "name": "getActiveProposals",
      "outputs": [
        {
          "internalType": "uint256[]",
          "name": "",
          "type": "uint256[]"
        }
      ],
      "stateMutability": "view",
      "type": "function"
    },
    {
      "inputs": [
        {
          "internalType": "uint256",
          "name": "offset",
          "type": "uint256"
        },
        {
          "internalType": "uint256",
          "name": "limit",
          "type": "uint256"
        }
      ],
      "name": "getActiveProposalsPaginated",
      "outputs": [
        {
          "internalType": "uint256[]",
          "name": "proposalIds",
          "type": "uint256[]"
        },
        {
          "internalType": "bool",
          "name": "hasMore",
          "type": "bool"
        }
      ],
      "stateMutability": "view",
      "type": "function"
    },
    {
      "inputs": [
        {
          "internalType": "address",
          "name": "member",
          "type": "address"
        },
        {
          "internalType": "address",
          "name": "token",
          "type": "address"
        }
      ],
      "name": "getClaimableExternalToken",
      "outputs": [
        {
          "internalType": "uint256",
          "name": "",
          "type": "uint256"
        }
      ],
      "stateMutability": "view",
      "type": "function"
    },
    {
      "inputs": [
        {
          "internalType": "address",
          "name": "member",
          "type": "address"
        }
      ],
      "name": "getClaimablePoolAmount",
      "outputs": [
        {
          "internalType": "uint256",
          "name": "",
          "type": "uint256"
        }
      ],
      "stateMutability": "view",
      "type": "function"
    },
    {
      "inputs": [],
      "name": "getConfig",
      "outputs": [
        {
          "internalType": "address",
          "name": "token",
          "type": "address"
        },
        {
          "internalType": "uint256",
          "name": "fee",
          "type": "uint256"
        },
        {
          "internalType": "bool",
          "name": "isPaused",
          "type": "bool"
        },
        {
          "internalType": "uint256",
          "name": "purchases",
          "type": "uint256"
        },
        {
          "internalType": "uint256",
          "name": "treasury",
          "type": "uint256"
        },
        {
          "internalType": "uint256",
          "name": "pool",
          "type": "uint256"
        },
        {
          "internalType": "uint256",
          "name": "burnPercentOut",
          "type": "uint256"
        },
        {
          "internalType": "uint256",
          "name": "treasuryPercentOut",
          "type": "uint256"
        },
        {
          "internalType": "uint256",
          "name": "memberPoolPercentOut",
          "type": "uint256"
        },
        {
          "internalType": "uint256",
          "name": "protocolPercentOut",
          "type": "uint256"
        }
      ],
      "stateMutability": "view",
      "type": "function"
    },
    {
      "inputs": [
        {
          "internalType": "address",
          "name": "token",
          "type": "address"
        }
      ],
      "name": "getExternalRewardState",
      "outputs": [
        {
          "internalType": "uint256",
          "name": "poolBalance",
          "type": "uint256"
        },
        {
          "internalType": "uint256",
          "name": "cumulativeRewards",
          "type": "uint256"
        },
        {
          "internalType": "uint256",
          "name": "remainder",
          "type": "uint256"
        }
      ],
      "stateMutability": "view",
      "type": "function"
    },
    {
      "inputs": [],
      "name": "getExternalRewardTokens",
      "outputs": [
        {
          "internalType": "address[]",
          "name": "",
          "type": "address[]"
        }
      ],
      "stateMutability": "view",
      "type": "function"
    },
    {
      "inputs": [],
      "name": "getMemberCount",
      "outputs": [
        {
          "internalType": "uint256",
          "name": "",
          "type": "uint256"
        }
      ],
      "stateMutability": "view",
      "type": "function"
    },
    {
      "inputs": [
        {
          "internalType": "uint256",
          "name": "_proposalId",
          "type": "uint256"
        }
      ],
      "name": "getProposal",
      "outputs": [
        {
          "internalType": "address",
          "name": "proposer",
          "type": "address"
        },
        {
          "internalType": "uint256",
          "name": "yesVotes",
          "type": "uint256"
        },
        {
          "internalType": "uint256",
          "name": "noVotes",
          "type": "uint256"
        },
        {
          "internalType": "uint256",
          "name": "endTime",
          "type": "uint256"
        },
        {
          "internalType": "bool",
          "name": "executed",
          "type": "bool"
        },
        {
          "internalType": "bool",
          "name": "passed",
          "type": "bool"
        },
        {
          "internalType": "string",
          "name": "title",
          "type": "string"
        },
        {
          "internalType": "string",
          "name": "description",
          "type": "string"
        }
      ],
      "stateMutability": "view",
      "type": "function"
    },
    {
      "inputs": [
        {
          "internalType": "uint256",
          "name": "_proposalId",
          "type": "uint256"
        }
      ],
      "name": "getProposalSnapshots",
      "outputs": [
        {
          "internalType": "uint256",
          "name": "eligibleVotersPreQuorum",
          "type": "uint256"
        },
        {
          "internalType": "uint256",
          "name": "eligibleVotersPostQuorum",
          "type": "uint256"
        },
        {
          "internalType": "uint256",
          "name": "preQuorumSnapshotBlock",
          "type": "uint256"
        },
        {
          "internalType": "uint256",
          "name": "quorumSnapshotBlock",
          "type": "uint256"
        },
        {
          "internalType": "uint256",
          "name": "createdAt",
          "type": "uint256"
        },
        {
          "internalType": "uint256",
          "name": "quorumReachedAt",
          "type": "uint256"
        }
      ],
      "stateMutability": "view",
      "type": "function"
    },
    {
      "inputs": [
        {
          "internalType": "address",
          "name": "user",
          "type": "address"
        }
      ],
      "name": "getPurchaseDetails",
      "outputs": [
        {
          "internalType": "bool",
          "name": "purchased",
          "type": "bool"
        },
        {
          "internalType": "uint256",
          "name": "timestamp",
          "type": "uint256"
        },
        {
          "internalType": "uint256",
          "name": "blockNum",
          "type": "uint256"
        }
      ],
      "stateMutability": "view",
      "type": "function"
    },
    {
      "inputs": [],
      "name": "getTreasuryInfo",
      "outputs": [
        {
          "internalType": "uint256",
          "name": "treasury",
          "type": "uint256"
        },
        {
          "internalType": "uint256",
          "name": "memberPool",
          "type": "uint256"
        },
        {
          "internalType": "address",
          "name": "protocolAddress",
          "type": "address"
        }
      ],
      "stateMutability": "view",
      "type": "function"
    },
    {
      "inputs": [
        {
          "internalType": "address",
          "name": "voter",
          "type": "address"
        }
      ],
      "name": "getVoteWeight",
      "outputs": [
        {
          "internalType": "uint256",
          "name": "",
          "type": "uint256"
        }
      ],
      "stateMutability": "view",
      "type": "function"
    },
    {
      "inputs": [
        {
          "internalType": "address",
          "name": "user",
          "type": "address"
        }
      ],
      "name": "hasAccess",
      "outputs": [
        {
          "internalType": "bool",
          "name": "",
          "type": "bool"
        }
      ],
      "stateMutability": "view",
      "type": "function"
    },
    {
      "inputs": [
        {
          "internalType": "address",
          "name": "",
          "type": "address"
        }
      ],
      "name": "hasActiveProposal",
      "outputs": [
        {
          "internalType": "bool",
          "name": "",
          "type": "bool"
        }
      ],
      "stateMutability": "view",
      "type": "function"
    },
    {
      "inputs": [
        {
          "internalType": "uint256",
          "name": "_proposalId",
          "type": "uint256"
        },
        {
          "internalType": "address",
          "name": "_voter",
          "type": "address"
        }
      ],
      "name": "hasVoted",
      "outputs": [
        {
          "internalType": "bool",
          "name": "voted",
          "type": "bool"
        },
        {
          "internalType": "bool",
          "name": "support",
          "type": "bool"
        }
      ],
      "stateMutability": "view",
      "type": "function"
    },
    {
      "inputs": [],
      "name": "memberCount",
      "outputs": [
        {
          "internalType": "uint256",
          "name": "",
          "type": "uint256"
        }
      ],
      "stateMutability": "view",
      "type": "function"
    },
    {
      "inputs": [],
      "name": "memberPoolBalance",
      "outputs": [
        {
          "internalType": "uint256",
          "name": "",
          "type": "uint256"
        }
      ],
      "stateMutability": "view",
      "type": "function"
    },
    {
      "inputs": [
        {
          "internalType": "address",
          "name": "",
          "type": "address"
        }
      ],
      "name": "memberPoolClaims",
      "outputs": [
        {
          "internalType": "uint256",
          "name": "",
          "type": "uint256"
        }
      ],
      "stateMutability": "view",
      "type": "function"
    },
    {
      "inputs": [],
      "name": "memberPoolPercent",
      "outputs": [
        {
          "internalType": "uint256",
          "name": "",
          "type": "uint256"
        }
      ],
      "stateMutability": "view",
      "type": "function"
    },
    {
      "inputs": [],
      "name": "memberRewardRemainder",
      "outputs": [
        {
          "internalType": "uint256",
          "name": "",
          "type": "uint256"
        }
      ],
      "stateMutability": "view",
      "type": "function"
    },
    {
      "inputs": [
        {
          "internalType": "address",
          "name": "",
          "type": "address"
        }
      ],
      "name": "members",
      "outputs": [
        {
          "internalType": "bool",
          "name": "purchased",
          "type": "bool"
        },
        {
          "internalType": "uint256",
          "name": "timestamp",
          "type": "uint256"
        },
        {
          "internalType": "uint256",
          "name": "block",
          "type": "uint256"
        },
        {
          "internalType": "uint256",
          "name": "rewardSnapshot",
          "type": "uint256"
        }
      ],
      "stateMutability": "view",
      "type": "function"
    },
    {
      "inputs": [],
      "name": "paused",
      "outputs": [
        {
          "internalType": "bool",
          "name": "",
          "type": "bool"
        }
      ],
      "stateMutability": "view",
      "type": "function"
    },
    {
      "inputs": [],
      "name": "priest",
      "outputs": [
        {
          "internalType": "address",
          "name": "",
          "type": "address"
        }
      ],
      "stateMutability": "view",
      "type": "function"
    },
    {
      "inputs": [],
      "name": "priestIsDictator",
      "outputs": [
        {
          "internalType": "bool",
          "name": "",
          "type": "bool"
        }
      ],
      "stateMutability": "view",
      "type": "function"
    },
    {
      "inputs": [],
      "name": "proposalCount",
      "outputs": [
        {
          "internalType": "uint256",
          "name": "",
          "type": "uint256"
        }
      ],
      "stateMutability": "view",
      "type": "function"
    },
    {
      "inputs": [
        {
          "internalType": "uint256",
          "name": "",
          "type": "uint256"
        }
      ],
      "name": "proposals",
      "outputs": [
        {
          "internalType": "uint256",
          "name": "id",
          "type": "uint256"
        },
        {
          "internalType": "address",
          "name": "proposer",
          "type": "address"
        },
        {
          "internalType": "enum TemplBase.Action",
          "name": "action",
          "type": "uint8"
        },
        {
          "internalType": "address",
          "name": "token",
          "type": "address"
        },
        {
          "internalType": "address",
          "name": "recipient",
          "type": "address"
        },
        {
          "internalType": "uint256",
          "name": "amount",
          "type": "uint256"
        },
        {
          "internalType": "string",
          "name": "title",
          "type": "string"
        },
        {
          "internalType": "string",
          "name": "description",
          "type": "string"
        },
        {
          "internalType": "string",
          "name": "reason",
          "type": "string"
        },
        {
          "internalType": "bool",
          "name": "paused",
          "type": "bool"
        },
        {
          "internalType": "uint256",
          "name": "newEntryFee",
          "type": "uint256"
        },
        {
          "internalType": "uint256",
          "name": "newBurnPercent",
          "type": "uint256"
        },
        {
          "internalType": "uint256",
          "name": "newTreasuryPercent",
          "type": "uint256"
        },
        {
          "internalType": "uint256",
          "name": "newMemberPoolPercent",
          "type": "uint256"
        },
        {
          "internalType": "string",
          "name": "newHomeLink",
          "type": "string"
        },
        {
          "internalType": "uint256",
          "name": "newMaxMembers",
          "type": "uint256"
        },
        {
          "internalType": "uint256",
          "name": "yesVotes",
          "type": "uint256"
        },
        {
          "internalType": "uint256",
          "name": "noVotes",
          "type": "uint256"
        },
        {
          "internalType": "uint256",
          "name": "endTime",
          "type": "uint256"
        },
        {
          "internalType": "uint256",
          "name": "createdAt",
          "type": "uint256"
        },
        {
          "internalType": "bool",
          "name": "executed",
          "type": "bool"
        },
        {
          "internalType": "uint256",
          "name": "eligibleVoters",
          "type": "uint256"
        },
        {
          "internalType": "uint256",
          "name": "postQuorumEligibleVoters",
          "type": "uint256"
        },
        {
          "internalType": "uint256",
          "name": "quorumReachedAt",
          "type": "uint256"
        },
        {
          "internalType": "uint256",
          "name": "quorumSnapshotBlock",
          "type": "uint256"
        },
        {
          "internalType": "bool",
          "name": "quorumExempt",
          "type": "bool"
        },
        {
          "internalType": "bool",
          "name": "updateFeeSplit",
          "type": "bool"
        },
        {
          "internalType": "uint256",
          "name": "preQuorumSnapshotBlock",
          "type": "uint256"
        },
        {
          "internalType": "bool",
          "name": "setDictatorship",
          "type": "bool"
        },
        {
          "internalType": "bool",
          "name": "disbandJoinLock",
          "type": "bool"
        }
      ],
      "stateMutability": "view",
      "type": "function"
    },
    {
      "inputs": [],
      "name": "protocolFeeRecipient",
      "outputs": [
        {
          "internalType": "address",
          "name": "",
          "type": "address"
        }
      ],
      "stateMutability": "view",
      "type": "function"
    },
    {
      "inputs": [],
      "name": "protocolPercent",
      "outputs": [
        {
          "internalType": "uint256",
          "name": "",
          "type": "uint256"
        }
      ],
      "stateMutability": "view",
      "type": "function"
    },
    {
      "inputs": [
        {
          "internalType": "uint256",
          "name": "maxRemovals",
          "type": "uint256"
        }
      ],
      "name": "pruneInactiveProposals",
      "outputs": [
        {
          "internalType": "uint256",
          "name": "removed",
          "type": "uint256"
        }
      ],
      "stateMutability": "nonpayable",
      "type": "function"
    },
    {
      "inputs": [],
      "name": "purchaseAccess",
      "outputs": [],
      "stateMutability": "nonpayable",
      "type": "function"
    },
    {
      "inputs": [],
      "name": "quorumPercent",
      "outputs": [
        {
          "internalType": "uint256",
          "name": "",
          "type": "uint256"
        }
      ],
      "stateMutability": "view",
      "type": "function"
    },
    {
      "inputs": [
        {
          "internalType": "bool",
          "name": "enabled",
          "type": "bool"
        }
      ],
      "name": "setDictatorshipDAO",
      "outputs": [],
      "stateMutability": "nonpayable",
      "type": "function"
    },
    {
      "inputs": [
        {
          "internalType": "uint256",
          "name": "_maxMembers",
          "type": "uint256"
        }
      ],
      "name": "setMaxMembersDAO",
      "outputs": [],
      "stateMutability": "nonpayable",
      "type": "function"
    },
    {
      "inputs": [
        {
          "internalType": "bool",
          "name": "_paused",
          "type": "bool"
        }
      ],
      "name": "setPausedDAO",
      "outputs": [],
      "stateMutability": "nonpayable",
      "type": "function"
    },
    {
      "inputs": [
        {
          "internalType": "string",
          "name": "newLink",
          "type": "string"
        }
      ],
      "name": "setTemplHomeLinkDAO",
      "outputs": [],
      "stateMutability": "nonpayable",
      "type": "function"
    },
    {
      "inputs": [],
      "name": "templHomeLink",
      "outputs": [
        {
          "internalType": "string",
          "name": "",
          "type": "string"
        }
      ],
      "stateMutability": "view",
      "type": "function"
    },
    {
      "inputs": [],
      "name": "totalPurchases",
      "outputs": [
        {
          "internalType": "uint256",
          "name": "",
          "type": "uint256"
        }
      ],
      "stateMutability": "view",
      "type": "function"
    },
    {
      "inputs": [],
      "name": "treasuryBalance",
      "outputs": [
        {
          "internalType": "uint256",
          "name": "",
          "type": "uint256"
        }
      ],
      "stateMutability": "view",
      "type": "function"
    },
    {
      "inputs": [],
      "name": "treasuryPercent",
      "outputs": [
        {
          "internalType": "uint256",
          "name": "",
          "type": "uint256"
        }
      ],
      "stateMutability": "view",
      "type": "function"
    },
    {
      "inputs": [
        {
          "internalType": "address",
          "name": "_token",
          "type": "address"
        },
        {
          "internalType": "uint256",
          "name": "_entryFee",
          "type": "uint256"
        },
        {
          "internalType": "bool",
          "name": "_updateFeeSplit",
          "type": "bool"
        },
        {
          "internalType": "uint256",
          "name": "_burnPercent",
          "type": "uint256"
        },
        {
          "internalType": "uint256",
          "name": "_treasuryPercent",
          "type": "uint256"
        },
        {
          "internalType": "uint256",
          "name": "_memberPoolPercent",
          "type": "uint256"
        }
      ],
      "name": "updateConfigDAO",
      "outputs": [],
      "stateMutability": "nonpayable",
      "type": "function"
    },
    {
      "inputs": [
        {
          "internalType": "uint256",
          "name": "_proposalId",
          "type": "uint256"
        },
        {
          "internalType": "bool",
          "name": "_support",
          "type": "bool"
        }
      ],
      "name": "vote",
      "outputs": [],
      "stateMutability": "nonpayable",
      "type": "function"
    },
    {
      "inputs": [
        {
          "internalType": "address",
          "name": "token",
          "type": "address"
        },
        {
          "internalType": "address",
          "name": "recipient",
          "type": "address"
        },
        {
          "internalType": "uint256",
          "name": "amount",
          "type": "uint256"
        },
        {
          "internalType": "string",
          "name": "reason",
          "type": "string"
        }
      ],
      "name": "withdrawTreasuryDAO",
      "outputs": [],
      "stateMutability": "nonpayable",
      "type": "function"
    },
    {
      "stateMutability": "payable",
      "type": "receive"
    }
  ],
  "bytecode": "0x610100604052346200066a5762005994803803806200001e816200066f565b9283398101906101c0818303126200066a576200003b8162000695565b620000496020830162000695565b92620000586040840162000695565b60608401519460808501519160a086015160c08701519060e088015194610100890151936101208a015195620000926101408c0162000695565b976101608c015180151581036200066a576101808d01516101a08e0151909d6001600160401b0382116200066a57018b601f820112156200066a5780519b6001600160401b038d1162000600578c90620000f6601f8301601f19166020016200066f565b9d8e52602082840101116200066a5762000117916020808f019101620006aa565b60016000556001600160a01b03831615801562000658575b6200048557606493620001799360a05260c0526004549060ff60a01b90151560a01b169060ff60a01b191617600455806080526200017386620001738787620006cf565b620006cf565b036200064657600155600255600355806200062257506021600d555b806200061c575062093a805b600e556001600160a01b03811662000616575061dead5b60e05280516001600160401b0381116200060057600f54600181811c91168015620005f5575b6020821014620005df57601f811162000586575b50806020601f82116001146200050d5760009162000501575b508160011b916000199060031b1c191617600f555b805162000497575b506001600160a01b0316918215620004855780156200047357600a81106200046157600a81066200044f578260018060a01b0319600454161760045560055560ff199182600854166008556000526010602052604060002060018382541617815542600182015543600282015560036013549101556001601155801515908162000382575b6040516152809081620006f48239608051818181610545015281816107f50152818161124f0152818161183d015281816144a901526144f8015260a051818181611343015281816119c40152611fe1015260c051818181610405015281816106d40152818161092b015281816111a5015281816112e8015281816118a30152818161196001528181611991015281816119e6015281816123be01528181612828015281816134fc01528181613de9015281816140fe015281816144cf0152614560015260e05181818161193e0152611e450152f35b818062000444575b620004325780600c557fb63bcc75a862434e97db3146b78681478a2692253df1de5623d497ee61fac7996020604051838152a18162000425575b508062000417575b620003da575b8080620002ad565b60019060085416176008557f752d7e161ff5146f80e3820893176eb40532811e5e20400dfdde57455213706a602060405160018152a138620003d2565b5060ff6008541615620003cc565b90506001101538620003c4565b604051633161e99d60e11b8152600490fd5b50600181106200038a565b604051636fe6a4c960e01b8152600490fd5b604051635eee050360e11b8152600490fd5b6040516365e52d5160e11b8152600490fd5b604051634e46966960e11b8152600490fd5b7f71e57b89fe30fe66cb93427236f86ec18c6ec404e26b5c0914ee88193dd07da59060806040518092604082526000604083015260606020830152620004ed8151809281606086015260208686019101620006aa565b601f01601f19168101030190a13862000228565b9050820151386200020b565b600f6000908152925060008051602062005974833981519152905b601f19831684106200056d576001935082601f1981161062000553575b5050811b01600f5562000220565b84015160001960f88460031b161c19169055388062000545565b8481015182556020938401936001909201910162000528565b600f60005260008051602062005974833981519152601f830160051c81019160208410620005d4575b601f0160051c01905b818110620005c75750620001f2565b60008155600101620005b8565b9091508190620005af565b634e487b7160e01b600052602260045260246000fd5b90607f1690620001de565b634e487b7160e01b600052604160045260246000fd5b620001b8565b620001a1565b606481116200063457600d5562000195565b604051631f3b85d360e01b8152600490fd5b60405163542c8df360e11b8152600490fd5b506001600160a01b038416156200012f565b600080fd5b6040519190601f01601f191682016001600160401b038111838210176200060057604052565b51906001600160a01b03821682036200066a57565b60005b838110620006be5750506000910152565b8181015183820152602001620006ad565b91908201809211620006dd57565b634e487b7160e01b600052601160045260246000fdfe610300604052600436101561001c575b361561001a57600080fd5b005b60003560e01c8063013cf08b14612d4d57806303807ee514612d2f57806304ef9d5814612d11578063072ea61c14612cf357806308ae4b0c14612c925780630d61b5191461268a5780630f852b9a1461260457806311aee380146125e65780631808022a146125c35780631df260a0146124fb578063215809ca1461166d578063240d3a0614612376578063313dab201461235857806343859632146122e95780634902e4271461225b57806353eee2121461222f5780635584c4f9146121695780635962a94114611b645780635c975abb146121465780635fa7ddf01461212857806361c896d21461206657806364653f291461201057806364df049e14611fcb578063653724d614611f635780636898b19c14611f455780636a49942714611eea5780636ad1855014611eb05780636f739e4f14611e925780637070ac4814611e7457806370d5ae0514611e2f57806373023e6414611cbe578063840634c514611c565780638b0e837914611bea5780638f78bbc414611ba857806395a078e814611b69578063997072f714611b6457806399e288d8146117af578063a51a46b914611791578063a64e024a14611773578063a730117e14611750578063a81bbe3c14611716578063aa5c442b146116ae578063ab99a0d314611690578063adadef2714611672578063aedfe53f1461166d578063b488616b1461163d578063be893a1f14611460578063bebc8fc014611437578063c17db3f2146113a9578063c2939471146112b4578063c3f909d41461117f578063c7f758a814610fea578063c851776c14610f8b578063c9d27afe14610c5c578063cfb5446014610bda578063d402d4be146108a8578063da35c6641461088a578063dddac84414610864578063e1a2c9bf14610703578063e243c5fb146106be578063e4b5d7ba14610632578063ea0e35b114610614578063eccceda614610568578063f0a827a41461052d578063f2be51ea146104a1578063f7158b2a1461036f578063f81cbd26146103515763ffafe4ad0361000f573461034c57602036600319011261034c576001600160a01b0361032e613265565b166000526018602052602060ff604060002054166040519015158152f35b600080fd5b3461034c57600036600319011261034c576020600d54604051908152f35b3461034c57600036600319011261034c5733600052601060205260ff604060002054161561048f5761039f613a46565b6103a83361345b565b801561047d57806103be6007546014549061344e565b1061046b57601354336000526010602052600360406000200155601260205260406000206103ed82825461342e565b90556103fb8160075461344e565b60075561043281337f00000000000000000000000000000000000000000000000000000000000000006001600160a01b031661465c565b6040519081524260208201527fc4e740509dbfae3377bc9925dd7bcc8aaba69cd730316216d76b2d24725c636660403392a26001600055005b60405163bc6072f160e01b8152600490fd5b6040516373380d9960e01b8152600490fd5b60405163148fe22160e11b8152600490fd5b3461034c57602036600319011261034c576104ba613265565b60045460ff8160a01c1660001461050a573033141590816104f6575b506104e45761001a90613dd1565b60405163626243e960e01b8152600490fd5b6001600160a01b03163314159050826104d6565b5030330361051b5761001a90613dd1565b6040516327568d2f60e11b8152600490fd5b3461034c57600036600319011261034c5760206040517f00000000000000000000000000000000000000000000000000000000000000008152f35b3461034c57610576366132eb565b929490936001600160a01b039091169283156106025760ff60045460a01c166105f0576105b86003956105b06020986105be96369161339c565b92369161339c565b916146ab565b60018101805460ff60a01b1916600160a21b1790559290920180546001600160a01b0319169091179055604051908152f35b60405163a8ef9e1960e01b8152600490fd5b604051634e46966960e11b8152600490fd5b3461034c57600036600319011261034c576020600c54604051908152f35b3461034c57610640366133f1565b949190929360ff60045460a01c16831515901515146106ac576020956105b86106a4956105b0601c9861067496369161339c565b60018101805460ff60a01b1916600560a01b17905593909301805491151560ff1660ff1992909216919091179055565b604051908152f35b6040516305548b1760e41b8152600490fd5b3461034c57600036600319011261034c576040517f00000000000000000000000000000000000000000000000000000000000000006001600160a01b03168152602090f35b3461034c5761010036600319011261034c5760843560043581151560243560643560443583860361034c576001600160401b0360c43581811161034c5761074e9036906004016132be565b9160e43590811161034c576107679036906004016132be565b92909860ff60045460a01c166105f05788610821575b6020996105b06107a794601a999897969461079e946107f0575b369161339c565b9060a4356146ab565b93909660018501600160a01b60ff60a01b198254161790556009850155600a840155600b830155600c820155019061ff0082549160081b169061ff001916179055604051908152f35b61081c7f00000000000000000000000000000000000000000000000000000000000000008a8a8d614ff4565b610797565b9594939290600a891061085257600a890661084057909293949561077d565b604051636fe6a4c960e01b8152600490fd5b604051635eee050360e11b8152600490fd5b3461034c57600036600319011261034c57602060ff60045460a01c166040519015158152f35b3461034c57600036600319011261034c576020601554604051908152f35b3461034c57608036600319011261034c576108c1613265565b6108c961327b565b604435906064356001600160401b03811161034c576108ec9036906004016133d3565b9260045460ff8160a01c16600014610bc057303314159081610bac575b506104e4575b6001600160a01b0382811694908515610602578415610b9a57807f000000000000000000000000000000000000000000000000000000000000000016921693828514600014610a4b576040516370a0823160e01b8152306004820152602081602481875afa908115610a3f57600091610a0d575b50600754808211156109fb576109989161344e565b81116109fb576109d48160009560008051602061520b833981519152956109cc600654808511158a146109f557849061344e565b60065561465c565b6109f06040519283928352604060208401526040830190613225565b0390a4005b8061344e565b604051631c7b597b60e11b8152600490fd5b90506020813d602011610a37575b81610a28602093836130ad565b8101031261034c575187610983565b3d9150610a1b565b6040513d6000823e3d90fd5b9150918315600014610ae6575060008052601b6020527f584f46c60af19681376031579adb04a2416e54ee5505351c2a8435e3766026ea54479080821115610add57610a969161344e565b81116109fb57600080808084885af1610aad6134a4565b5015610acb5760009160008051602061520b833981519152916109d4565b6040516331d436c760e01b8152600490fd5b50506000610a96565b909183600052601b6020526040600020604051906370a0823160e01b8252306004830152602082602481895afa918215610a3f57600092610b66575b505480821115610b5d57610b359161344e565b83116109fb5782610b5860009460008051602061520b833981519152948761465c565b6109d4565b50506000610b35565b9091506020813d602011610b92575b81610b82602093836130ad565b8101031261034c57519087610b22565b3d9150610b75565b6040516365e52d5160e11b8152600490fd5b6001600160a01b0316331415905085610909565b5033301461090f576040516327568d2f60e11b8152600490fd5b3461034c57602036600319011261034c57600435601554811015610c4a57600052601660205260c06040600020601681015490601781015490601b8101546019820154906018601284015493015493604051958652602086015260408501526060840152608083015260a0820152f35b604051631dc0650160e31b8152600490fd5b3461034c57604036600319011261034c5760248035801515916004359183810361034c57336000526020916010835260ff80604060002054161561048f57601554851015610c4a5784600052601684526040600020928160045460a01c1680610f59575b6105f0576011808501908154421015610f475733600052601087526040600020601887019081548015600014610f225750610d0590601b89015460128a015491614fa9565b610f10575b6014870193336000528489528560406000205416946015890195868b528760406000205416918b526040600020966001978860ff198254161790558b52610d618360406000209060ff801983541691151516179055565b610ea1575015610e8a57600f8701805490858201809211610e6d57555b84601a880154161580610e81575b610dc7575b89898960405192835242908301527fcbdf6214089cba887ecbf35a0b6a734589959c9763342c756bb2a80ca2bc9f6e60403393a3005b60168701548015159081610e41575b5015610d9157429055436019870155546017860155610df7600e544261342e565b905583015460a01c16906009821015610e2d5750600314610e1e575b808080808080610d91565b610e2790614ad2565b83610e13565b634e487b7160e01b60009081526021600452fd5b600f890154606480820293508115918404141715610e6d57610e6590600d5461343b565b11158b610dd6565b8784634e487b7160e01b6000526004526000fd5b50805415610d8c565b60108701805490858201809211610e6d5755610d7e565b90508a81151503610eb3575b50610d7e565b15610ee557600f87018054600019810191908211610e6d575560108701805490858201809211610e6d57555b8a610ead565b601087018054600019810191908211610e6d5755600f8701805490858201809211610e6d5755610edf565b60405163f078ca7360e01b8152600490fd5b6019890154610f3092614fa9565b15610d0a5760405163f078ca7360e01b8152600490fd5b604051637a19ed0560e01b8152600490fd5b5081600185015460a01c166009811015610f765760051415610cc0565b83634e487b7160e01b60005260216004526000fd5b3461034c57610f99366133f1565b949190929360ff60045460a01c166105f0576020956105b86106a4956105b0600898610fc696369161339c565b6001819592950160ff60a01b198154169055019060ff801983541691151516179055565b3461034c57602036600319011261034c57600435601554811015610c4a576000526016602052604060002060ff601a820154166000146110d5576011810154421015806110c4575b905b6110c060018060a01b03600183015416926110b2600f8401549360108101549560118201549360ff60138401541661107a600661107360058701613182565b9501613182565b95604051998a99610100958b5260208b015260408a0152606089015215156080880152151560a08701528060c0870152850190613225565b9083820360e0850152613225565b0390f35b50600f810154601082015410611032565b6018810154801561117657601682015490811591821561112d575b50600e546110fd9161342e565b4210159081611125575b5080611114575b90611034565b50600f81015460108201541061110e565b905082611107565b909150600f830154606481029080820460641490151715611160576111576110fd92600d5461343b565b111591906110f0565b634e487b7160e01b600052601160045260246000fd5b50600090611034565b3461034c57600036600319011261034c576040516370a0823160e01b81523060048201527f00000000000000000000000000000000000000000000000000000000000000006001600160a01b0316602082602481845afa8015610a3f57600090611280575b6007546101409350908180821115611276576111ff9161344e565b905b6005549160ff6008541691601154916001549260025494600354966040519889526020890152151560408801526060870152608086015260a085015260c084015260e08301526101008201527f0000000000000000000000000000000000000000000000000000000000000000610120820152f35b5050600090611201565b506020823d6020116112ac575b8161129a602093836130ad565b8101031261034c5761014091516111e4565b3d915061128d565b3461034c57600036600319011261034c576040516370a0823160e01b81523060048201526001600160a01b036020826024817f000000000000000000000000000000000000000000000000000000000000000085165afa908115610a3f57600091611374575b6007546060935091828082111561136a576113349161344e565b915b60405192835260208301527f0000000000000000000000000000000000000000000000000000000000000000166040820152f35b5050600091611336565b90506020823d6020116113a1575b8161138f602093836130ad565b8101031261034c57606091519061131a565b3d9150611382565b3461034c57602036600319011261034c576004356001600160401b03811161034c576113d99036906004016132be565b60045460ff8160a01c166000146114225730331415908161140e575b506104e45761001a9161140991369161339c565b613a69565b6001600160a01b03163314159050836113f5565b5030330361051b5761001a9161140991610797565b3461034c57600036600319011261034c576004546040516001600160a01b039091168152602090f35b3461034c5760e036600319011261034c57611479613265565b61148161327b565b6001600160401b039060643582811161034c576114a29036906004016133d3565b9160a43581811161034c576114bb9036906004016132be565b60c43583811161034c576114d39036906004016132be565b909260ff60045460a01c166105f0576007936105b06114f79261150095369161339c565b906084356146ab565b6001808201805460ff60a01b1916600160a11b1790556002820180546001600160a01b03199081166001600160a01b039a8b161790915560038301805490911698909616979097179094556044356004850155845190939190910191811161162757602094611579826115738554613073565b856136c3565b8590601f83116001146115c1575081906115ac9394956000926115b6575b50508160011b916000199060031b1c19161790565b9055604051908152f35b015190508680611597565b90601f198316958460005281600020926000905b888210611610575050836001959697106115f7575b505050811b0190556106a4565b015160001960f88460031b161c191690558580806115ea565b8284015185559384019392890192908901906115d5565b634e487b7160e01b600052604160045260246000fd5b3461034c57600036600319011261034c576110c06116596130ce565b604051918291602083526020830190613225565b6132a0565b3461034c57600036600319011261034c576020600354604051908152f35b3461034c57602036600319011261034c5760206106a4600435613904565b3461034c57602036600319011261034c576116c7613291565b60045460ff8160a01c16600014611705573033141590816116f1575b506104e45761001a90613d21565b6001600160a01b03163314159050826116e3565b5030330361051b5761001a90613d21565b3461034c57602036600319011261034c576001600160a01b03611737613265565b1660005260126020526020604060002054604051908152f35b3461034c57602036600319011261034c5760206106a461176e613265565b6138da565b3461034c57600036600319011261034c57602060405162278d008152f35b3461034c57600036600319011261034c576020601454604051908152f35b3461034c57600036600319011261034c5760ff60085416611b52576117d2614c8c565b600954611b4057303314611b2e576117e8613a46565b336000526010602052604060002060ff815416611b1c57601154600c548015159081611b11575b50611aff5780611af2575b6005549161182a60015484614dea565b9261183760035482614dea565b906118627f000000000000000000000000000000000000000000000000000000000000000082614dea565b9261187a84611875856118758a8761344e565b61344e565b91611885848461342e565b6040516370a0823160e01b81523360048201529091906020816024817f00000000000000000000000000000000000000000000000000000000000000006001600160a01b03165afa908115610a3f57600091611ac0575b5010611aae57600160ff198354161782554260018301554360028301556001860191828711611160576119be9260115586611a78575b60036013549101556119268360065461342e565b6006556119358460075461342e565b60075561198d877f0000000000000000000000000000000000000000000000000000000000000000337f00000000000000000000000000000000000000000000000000000000000000006001600160a01b0316614e63565b30337f00000000000000000000000000000000000000000000000000000000000000006001600160a01b0316614e63565b611a13837f0000000000000000000000000000000000000000000000000000000000000000337f00000000000000000000000000000000000000000000000000000000000000006001600160a01b0316614e63565b6005549460405195865260208601526040850152606084015260808301524260a08301524360c083015260e08201527fe6d1c0e418a42a777d49c66571075fc47bc1d92e7f506007ddde08d1ff182bbc6101003392a2611a71614ebb565b6001600055005b611aa6611a876014548761342e565b611a9b89611a9581846138b0565b926138d0565b60145560135461342e565b601355611912565b604051631e9acf1760e31b8152600490fd5b90506020813d602011611aea575b81611adb602093836130ad565b8101031261034c5751896118dc565b3d9150611ace565b611afa614d4b565b61181a565b6040516382b675f560e01b8152600490fd5b90508110158361180f565b604051630cd9ed5560e21b8152600490fd5b604051636edaef2f60e11b8152600490fd5b60405163dcb447f360e01b8152600490fd5b604051630eceade960e31b8152600490fd5b6125e6565b3461034c57602036600319011261034c576001600160a01b03611b8a613265565b166000526010602052602060ff604060002054166040519015158152f35b3461034c57604036600319011261034c57611bde611bca602435600435613719565b60405192839260408452604084019061334d565b90151560208301520390f35b3461034c57602036600319011261034c5760045460ff8160a01c16600014611c3c57303314159081611c28575b506104e4575b61001a600435613cce565b6001600160a01b0316331415905081611c17565b50333014611c1d576040516327568d2f60e11b8152600490fd5b3461034c57602036600319011261034c57611c6f613265565b60045460ff8160a01c16600014611cad57303314159081611c99575b506104e45761001a90613d7b565b6001600160a01b0316331415905082611c8b565b5030330361051b5761001a90613d7b565b3461034c57608036600319011261034c576001600160401b0360043581811161034c57611cef9036906004016132be565b909160443581811161034c57611d099036906004016132be565b9060643583811161034c57611d229036906004016132be565b919060ff60045460a01c166105f0576105b0611d4392611d4c95369161339c565b906024356146ab565b6001818101805460ff60a01b1916600760a01b1790559193600d9190910192909190821161162757611d82826115738554613073565b600090601f8311600114611dc1575090806115ac92602096600092611db65750508160011b916000199060031b1c19161790565b013590508680611597565b90601f198316846000526020926020600020936000915b838310611e18575050509583929160019460209810611dfe57505050811b0190556106a4565b0135600019600384901b60f8161c191690558580806115ea565b898501358655948501949381019391810191611dd8565b3461034c57600036600319011261034c576040517f00000000000000000000000000000000000000000000000000000000000000006001600160a01b03168152602090f35b3461034c57600036600319011261034c576020600e54604051908152f35b3461034c57600036600319011261034c576020600954604051908152f35b3461034c57602036600319011261034c576001600160a01b03611ed1613265565b1660005260176020526020604060002054604051908152f35b3461034c57602036600319011261034c576001600160a01b03611f0b613265565b16600052601b602052604060002080546110c060026001840154930154604051938493846040919493926060820195825260208201520152565b3461034c57600036600319011261034c576020601354604051908152f35b3461034c57602036600319011261034c57611f7c613291565b60045460ff8160a01c16600014611fba57303314159081611fa6575b506104e45761001a90614588565b6001600160a01b0316331415905082611f98565b5030330361051b5761001a90614588565b3461034c57600036600319011261034c576040517f00000000000000000000000000000000000000000000000000000000000000006001600160a01b03168152602090f35b3461034c57602036600319011261034c576001600160a01b03612031613265565b1660005260106020526060604060002060ff815416906002600182015491015490604051921515835260208301526040820152f35b3461034c57608036600319011261034c576001600160401b0360043560443582811161034c5761209a9036906004016132be565b91909260643590811161034c576120b59036906004016132be565b60ff60049492945460a01c166105f0578215158061211d575b61210b57611d43600e946105b06020976120e995369161339c565b60018101805460ff60a01b1916600360a11b1790559290920155604051908152f35b604051633161e99d60e11b8152600490fd5b5060115483106120ce565b3461034c57600036600319011261034c576020600754604051908152f35b3461034c57600036600319011261034c57602060ff600854166040519015158152f35b3461034c57600036600319011261034c57601954612186816135b3565b9060009060005b8181106121df57505061219f816135b3565b9160005b8281106121c057604051602080825281906110c09082018761334d565b806121cd600192846136af565b516121d882876136af565b52016121a3565b806121eb6001926135e5565b90549060031b1c806000526016602052612209426040600020614c6e565b612215575b500161218d565b612228612221866136a0565b95876136af565b528561220e565b3461034c57604036600319011261034c5760206106a461224d613265565b61225561327b565b906134d4565b3461034c57612269366132eb565b60ff600496959294965460a01c166105f0576105b86106a4946105b060209861229396369161339c565b60018101805460ff60a01b1916600360a01b1790556002810180546001600160a01b0319166001600160a01b039586161790556004549193909133911603614ad257601a8101805460ff19166001179055614ad2565b3461034c57604036600319011261034c5760043561230561327b565b601554821015610c4a576040916000526016602052816000209060018060a01b031660005260148101602052601560ff836000205416910160205260ff8260002054168251911515825215156020820152f35b3461034c57600036600319011261034c576020600654604051908152f35b3461034c5760208060031936011261034c57612390613265565b90336000526010815260ff604060002054161561048f576123af613a46565b6001600160a01b0382811691907f00000000000000000000000000000000000000000000000000000000000000001682146124e95781600052601b815260406000209260ff6003850154161561047d5761240990336134d4565b92831561047d57805484811061046b578461246691600184015433600052601d8652604060002087600052865260406000205533600052601e85526040600020866000528552604060002061245f83825461342e565b905561344e565b9055816124b757600080808086335af161247e6134a4565b5015610acb577f26cd6ba06f6dc02c61247f710e95c768f4856af03b740594288907c36bb217e9905b6040519384523393a36001600055005b7f26cd6ba06f6dc02c61247f710e95c768f4856af03b740594288907c36bb217e9906124e484338561465c565b6124a7565b604051631c49f4d160e01b8152600490fd5b3461034c57600036600319011261034c5760405180601c5480835260208093018091601c6000527f0e4562a10381dec21b205ed72637e6b1b523bdd0e4d4d50af5cd23dd4500a2119060005b868282106125a657868661255d828803836130ad565b604051928392818401908285525180915260408401929160005b82811061258657505050500390f35b83516001600160a01b031685528695509381019392810192600101612577565b83546001600160a01b031685529093019260019283019201612547565b3461034c57602036600319011261034c5760206106a46125e1613265565b61345b565b3461034c57600036600319011261034c576020601154604051908152f35b3461034c5760c036600319011261034c5761261d613265565b60443590811515820361034c5760045460ff8160a01c1660001461267957303314159081612665575b506104e45761001a915b60a43591608435916064359160243590614433565b6001600160a01b0316331415905083612646565b5030330361051b5761001a91612650565b3461034c5760208060031936011261034c576004356126a7613a46565b601554811015610c4a578060005260168252604060002060ff908160045460a01c1680612c75575b6105f057601a8101805483168080612c68575b612c565715612bd4575b60138201805490848216612bc257600f84015460108501541015612bb057600160ff19809316179055836001840160018060a01b03928382541660005260188952826040600020541680612b9e575b612b7e575b505460a01c166009811015612b685780612795575050506060611a719461277c859460086000805160206151eb83398151915295015416614588565b60408051916001835282015260006040820152a26145c6565b600181036127e85750946127e3859484606094611a719960026000805160206151eb83398151915298015416926009830154915460081c16600a83015491600c600b85015494015494614433565b61277c565b90959293915060028103612a6e57505083600283015416938060038401541691612819600760048601549501613182565b918315610602578415610b9a577f0000000000000000000000000000000000000000000000000000000000000000169286840361292b576040516370a0823160e01b81523060048201528281602481885afa908115610a3f576000916128fe575b50600754808211156109fb5761288f9161344e565b85116109fb57611a71968660008051602061520b833981519152606095886128db849a876000805160206151eb8339815191529b6109cc600654808511156000146109f557849061344e565b6128f660405192839283526040898401526040830190613225565b0390a461277c565b90508281813d8311612924575b61291581836130ad565b8101031261034c57518861287a565b503d61290b565b9593919250836129ac5760008052601b815260406000204790548082116000146129a3576129589161344e565b82116109fb576000808080858a5af161296f6134a4565b5015610acb57611a719585948560008051602061520b8339815191526000805160206151eb833981519152966060966128db565b50506000612958565b83600052601b81526040600020604051906370a0823160e01b82523060048301528282602481895afa918215610a3f57600092612a3f575b505480821115612a36576129f79161344e565b82116109fb5785848660008051602061520b8339815191526000805160206151eb8339815191529686612a31606098611a719d869c61465c565b6128db565b505060006129f7565b9091508281813d8311612a67575b612a5781836130ad565b8101031261034c575190886129e4565b503d612a4d565b91949160038103612aaa5750506060611a71946127e384612aa5876000805160206151eb83398151915296600282990154166140e5565b6142f5565b91929160048103612adc5750506060611a71946127e3859460036000805160206151eb83398151915295015416613d7b565b90925060058103612b0d57506060611a71946127e38594601c6000805160206151eb83398151915295015416613d21565b90915060068103612b3c57506000805160206151eb8339815191526060611a71946127e3600e86950154613cce565b6007036124e9576000805160206151eb8339815191526060611a71946127e3611409600d879601613182565b634e487b7160e01b600052602160045260246000fd5b601889526040600020908154169055601788526000604081205588612740565b5060178952876040600020541461273b565b60405163c8c93ba360e01b8152600490fd5b604051630dc1019760e01b8152600490fd5b60188201548015612c0757600e54612beb9161342e565b4210612c445760168201548015159081612c19575b50156126ec575b60405163aa26a69360e01b8152600490fd5b600f84015460648082029350811591840414171561116057612c3d90600d5461343b565b1186612c00565b60405163a905056160e01b8152600490fd5b604051633fc30bd160e11b8152600490fd5b50601183015442106126e2565b5081600182015460a01c166009811015612b6857600514156126cf565b3461034c57602036600319011261034c576001600160a01b03612cb3613265565b1660005260106020526080604060002060ff8154169060018101549060036002820154910154916040519315158452602084015260408301526060820152f35b3461034c57600036600319011261034c576020600554604051908152f35b3461034c57600036600319011261034c576020600254604051908152f35b3461034c57600036600319011261034c576020600154604051908152f35b3461034c57602036600319011261034c576004803560009081526016602052604090206102a081905280546102605260018101546101405260028101546001600160a01b03908116610160526003820154166102c0529081015461028052612db790600501613182565b6102e052612dca60066102a05101613182565b612dd960076102a05101613182565b9060ff60086102a0510154169160096102a051015492600a6102a0510154600b6102a0510154600c6102a051015491612e17600d6102a05101613182565b61024052600e6102a051015461012052600f6102a05101549660106102a05101549660116102a051015460805260126102a051015460a05260ff60136102a05101541660e05260166102a05101546102205260176102a05101546102005260186102a05101546101e05260196102a05101546101c052601a6102a05101546101a052601b6102a051015461018052601c6102a05101546101005260405160c0526102605160c0515260018060a01b036101405116602060c0510152600960ff6101405160a01c161015612b6857612fa396612f4f612f629260ff6101405160a01c16604060c051015261016051606060c05101526102c051608060c05101526102805160a060c05101526103c060c080510152612f3d6103c060c051016102e051613225565b9060c051820360e060c0510152613225565b9060c051820361010060c0510152613225565b94151561012060c051015261014060c051015261016060c051015261018060c05101526101a060c051015260c05181036101c060c051015261024051613225565b91610120516101e060c051015261020060c051015261022060c051015260805161024060c051015260a05161026060c051015260e051151561028060c0510152610220516102a060c0510152610200516102c060c05101526101e0516102e060c05101526101c05161030060c051015260ff6101a05116151561032060c051015260ff6101a05160081c16151561034060c05101526101805161036060c051015260ff6101005116151561038060c051015260ff6101005160081c1615156103a060c051015260c051900360c051f35b90600182811c921680156130a3575b602083101461308d57565b634e487b7160e01b600052602260045260246000fd5b91607f1691613082565b90601f801991011681019081106001600160401b0382111761162757604052565b60405190600082600f54916130e283613073565b8083529260209060019081811690811561315e575060011461310f575b505061310d925003836130ad565b565b915092600f60005260008051602061522b833981519152936000925b828410613146575061310d94505050810160200138806130ff565b8554888501830152948501948794509281019261312b565b9150506020925061310d94915060ff191682840152151560051b82010138806130ff565b9060405191826000825461319581613073565b9081845260209460019160018116908160001461320357506001146131c4575b50505061310d925003836130ad565b600090815285812095935091905b8183106131eb57505061310d93508201013880806131b5565b855488840185015294850194879450918301916131d2565b9250505061310d94925060ff191682840152151560051b8201013880806131b5565b919082519283825260005b848110613251575050826000602080949584010152601f8019910116010190565b602081830181015184830182015201613230565b600435906001600160a01b038216820361034c57565b602435906001600160a01b038216820361034c57565b60043590811515820361034c57565b3461034c57600036600319011261034c57602060405162093a808152f35b9181601f8401121561034c578235916001600160401b03831161034c576020838186019501011161034c57565b608060031982011261034c576004356001600160a01b038116810361034c5791602435916001600160401b039160443583811161034c578261332f916004016132be565b9390939260643591821161034c57613349916004016132be565b9091565b90815180825260208080930193019160005b82811061336d575050505090565b83518552938101939281019260010161335f565b6001600160401b03811161162757601f01601f191660200190565b9291926133a882613381565b916133b660405193846130ad565b82948184528183011161034c578281602093846000960137010152565b9080601f8301121561034c578160206133ee9335910161339c565b90565b608060031982011261034c57600435801515810361034c5791602435916001600160401b039160443583811161034c578261332f916004016132be565b9190820180921161116057565b8181029291811591840414171561116057565b9190820391821161116057565b6001600160a01b03166000908152601060205260409020805460ff161561349e576003601354910154808211600014613497576133ee9161344e565b5050600090565b50600090565b3d156134cf573d906134b582613381565b916134c360405193846130ad565b82523d6000602084013e565b606090565b60018060a01b0380911690600092828452601060205260ff60408520541615613596578116907f000000000000000000000000000000000000000000000000000000000000000016811461358957808352601b602052604083209060ff6003830154161561359657828452601060205261355660408520600184015493614b83565b928452601d6020526040842090845260205260408320549180831061358e575b5081811115613589576133ee925061344e565b505090565b915038613576565b50505090565b6001600160401b0381116116275760051b60200190565b906135bd8261359c565b6135ca60405191826130ad565b82815280926135db601f199161359c565b0190602036910137565b60195481101561361c5760196000527f944998273e477b495144fb8794c914197f3ccb46be2900f4698fd0ef743c96950190600090565b634e487b7160e01b600052603260045260246000fd5b601c5481101561361c57601c6000527f0e4562a10381dec21b205ed72637e6b1b523bdd0e4d4d50af5cd23dd4500a2110190600090565b600a5481101561361c57600a6000527fc65a7bb8d6351c1cf70c95a316cc6a92839c986682d98bc35f958f4883f9d2a80190600090565b60001981146111605760010190565b805182101561361c5760209160051b010190565b90601f81116136d157505050565b6000916000526020600020906020601f850160051c8301941061370f575b601f0160051c01915b82811061370457505050565b8181556001016136f8565b90925082906136ef565b9190801580156138a6575b613894576019549160009360005b84811061384d57508481101561381d5761374b836135b3565b916000958694875b8888821080613814575b156137c75750806137706137bc926135e5565b90549060031b1c80600052601660205261378e426040600020614c6e565b156137c1578661379d8a6136a0565b99106137c1576137b66137af8c6136a0565b9b896136af565b526136a0565b613753565b506136a0565b93975050509293506137d89161342e565b10926137e3816135b3565b9160005b8281106137f5575050509190565b80613802600192846136af565b5161380d82876136af565b52016137e7565b5082811061375d565b5092505050604051602081018181106001600160401b038211176116275760405260008152600036813790600090565b613856816135e5565b90549060031b1c6000526016602052613873426040600020614c6e565b613880575b600101613732565b9461388c6001916136a0565b959050613878565b6040516381f396b760e01b8152600490fd5b5060648111613724565b81156138ba570490565b634e487b7160e01b600052601260045260246000fd5b81156138ba570690565b6001600160a01b031660009081526010602052604090205460ff16156138ff57600190565b600090565b906000906000908315613a3f57601993601954908115613a365793905b80151580613a2d575b15613a25576000198101908111613a1157613944906135e5565b9054600391821b1c90818552601660205260408520906139644283614c6e565b613a075760ff9081600184015460a01c1660098110156139f357916139aa93916139af9695931490816139e2575b816139d3575b50806139c5575b6139b6575b506145c6565b6136a0565b8454613921565b6139bf90614f29565b386139a4565b50601181015442101561399f565b90506013820154161538613998565b601c83015460081c81169150613992565b634e487b7160e01b88526021600452602488fd5b5050509350915050565b634e487b7160e01b84526011600452602484fd5b509350915050565b5084821061392a565b50509250905090565b9250905090565b600260005414613a57576002600055565b604051633ee5aeb560e01b8152600490fd5b604051600091600f8054613a7c81613073565b80855260209485810191816001988986168981600014613cb35750600114613c68575b613aab925003826130ad565b51902083518585012014613c6157613ac16130ce565b948351916001600160401b03831161162757613adc90613073565b601f8111613c0d575b508490601f8311600114613b75575092613b6592613b4183613b5897947f71e57b89fe30fe66cb93427236f86ec18c6ec404e26b5c0914ee88193dd07da59997600091613b6a575b508160011b916000199060031b1c19161790565b90555b604051948594604086526040860190613225565b9184830390850152613225565b0390a1565b905084015138613b2d565b9190601f198216908460005260008051602061522b8339815191529160005b818110613bf8575092613b659592613b58989592827f71e57b89fe30fe66cb93427236f86ec18c6ec404e26b5c0914ee88193dd07da59b999610613bdf575b5050811b019055613b44565b85015160001960f88460031b161c191690553880613bd3565b87830151845592850192918801918801613b94565b8360005260008051602061522b833981519152601f840160051c810191878510613c57575b601f0160051c019082905b828110613c4b575050613ae5565b60008155018290613c3d565b9091508190613c32565b5050505050565b505084600052818760008051602061522b8339815191528a6000915b858310613c9a575050613aab9350820101613a9f565b80919294505483858801015201910188908a8593613c84565b915050613aab9260ff1987168652151560051b820101613a9f565b6011548115159081613d17575b5061210b576020817fb63bcc75a862434e97db3146b78681478a2692253df1de5623d497ee61fac79992600c55604051908152a161310d614ebb565b9050811038613cdb565b600454901515908160ff8260a01c161515146106ac5760ff60a01b191660a082901b60ff60a01b16176004556040519081527fa8adfe89c6bc95edbe7049ed316f0473a03af92b1fd027ce1ac670082467c62390602090a1565b6001600160a01b0390811690811561060257600454908116908183146124e9576001600160a01b03191682176004557f0f3a6964a8ba1b7473a14630b029eae6d49bec6babf098223718bacaac7197cc600080a3565b60115480156140d3576001600160a01b0391821691907f00000000000000000000000000000000000000000000000000000000000000008216838114613fcd5750600083613f57575047915b83600052601b602052604060002092835480821115613f4557613e3f9161344e565b9084600052601b6020526003604060002001805460ff811615613ee6575b5050509081613ee184613e826000805160206151cb833981519152956000975461342e565b8155613ec46002820191613eab613e9a84548761342e565b96613ea581896138b0565b976138d0565b809360018301613ebc89825461342e565b9055556150ad565b604051938493846040919493926060820195825260208201520152565b0390a3565b60ff19166001179055601c5490929190600160401b811015611627576000946000805160206151cb83398151915294613f28836001613ee19501601c55613632565b819291549060031b918a831b921b19161790559482939450613e5d565b604051631ab9ebab60e01b8152600490fd5b6040516370a0823160e01b8152306004820152602081602481885afa918215613fc1578092613f89575b505091613e1d565b9091506020823d602011613fb9575b81613fa5602093836130ad565b81010312613fb65750513880613f81565b80fd5b3d9150613f98565b604051903d90823e3d90fd5b6040516370a0823160e01b8152306004820152919250602090829060249082905afa908115610a3f576000916140a1575b506007549182821115613f45578261404b61402a6000956000805160206151cb8339815191529561344e565b80926140436006548084111589146109f557839061344e565b60065561342e565b600755613ee16140716140606014548461342e565b9361406b81866138b0565b946138d0565b61407d8460135461342e565b60135580601455604051938493846040919493926060820195825260208201520152565b90506020813d6020116140cb575b816140bc602093836130ad565b8101031261034c575138613ffe565b3d91506140af565b604051630292d7c360e51b8152600490fd5b9060115480156140d3576001600160a01b0392831692907f0000000000000000000000000000000000000000000000000000000000000000821684811461424f57506000846141e95750475b84600052601b602052604060002090815480821115613f45576141539161344e565b9085600052601b6020526003604060002001805460ff811615614193575b50506000805160206151cb833981519152935080613e8283613ee1935461342e565b60ff19166001179055601c5490600160401b821015611627576000805160206151cb833981519152946141cf836001613ee19501601c55613632565b819291549060031b918a831b921b19161790559038614171565b6040516370a0823160e01b8152306004820152602081602481895afa918215613fc157809261421a575b5050614131565b9091506020823d602011614247575b81614236602093836130ad565b81010312613fb65750513880614213565b3d9150614229565b6040516370a0823160e01b81523060048201529250602090839060249082905afa918215610a3f576000926142c1575b5060075480831115613f455761404b6142a7826000805160206151cb8339815191529561344e565b8092614043600654808411156000146109f557839061344e565b9091506020813d6020116142ed575b816142dd602093836130ad565b8101031261034c5751903861427f565b3d91506142d0565b601c8101805460ff8160081c1661430c575b505050565b61ff00191690556009548061441e575b5054600090808252600b60205260408220548061433857505050565b6000199080820181811161440a57600a548381019081116143f6578082036143aa575b505050600a548015614396570161438561437482613669565b8154906000199060031b1b19169055565b600a558152600b6020526040812055565b634e487b7160e01b84526031600452602484fd5b6143c9916143ba6143e292613669565b90549060031b1c928391613669565b90919082549060031b91821b91600019901b1916179055565b8452600b602052604084205538808061435b565b634e487b7160e01b86526011600452602486fd5b634e487b7160e01b85526011600452602485fd5b6000198101908111611160576009553861431c565b6001600160a01b039594939291908616801515908161455b575b506145495780614530575b506144f3575b5050507fa00a4448d1c98b3edafbf488446a8320c2cb278ba20dd49c7b5d41a7ebfd582b60a060055492600154600254600354916040519687526020870152604086015260608501527f000000000000000000000000000000000000000000000000000000000000000060808501527f00000000000000000000000000000000000000000000000000000000000000001692a2565b61451f7f0000000000000000000000000000000000000000000000000000000000000000848484614ff4565b60015560025560035538808061445e565b600a811061085257600a81066108405760055538614458565b60405163b078ee9d60e01b8152600490fd5b9050867f00000000000000000000000000000000000000000000000000000000000000001614153861444d565b60207f752d7e161ff5146f80e3820893176eb40532811e5e20400dfdde57455213706a91151560ff196008541660ff821617600855604051908152a1565b600090808252601a60205260408220548015614307576000199080820181811161440a576019548381019081116143f657808203614629575b50505060195480156143965701614618614374826135e5565b6019558152601a6020526040812055565b6143c991614639614648926135e5565b90549060031b1c9283916135e5565b8452601a60205260408420553880806145ff565b60405163a9059cbb60e01b60208201526001600160a01b03909216602483015260448083019390935291815260808101916001600160401b038311828410176116275761310d9260405261516e565b9192909260009333855260206010815260409460ff868820541615614ac1573387526018825260ff8688205416614a5b575b80614a55575062093a80905b62093a808210614a445762278d008211614a33576015549261470a846136a0565b60155583978481526016835287812097858955614743600195868b01336bffffffffffffffffffffffff60a01b8254161790554261342e565b60118a019081554260128b015560058a018451906001600160401b0391828111614a1f5761477b816147758454613073565b846136c3565b87601f82116001146149c25790806147a79288916149b757508160011b916000199060031b1c19161790565b90555b885160068c019181116149a3576147c5816147758454613073565b86601f82116001146149445790806147f192879161493957508160011b916000199060031b1c19161790565b90555b43601b8b015560138a019060ff199182815416905533845260148b018652828420878382541617905560158b018652828420878382541617905586600f8c01558360108c01556011548060168d015560188c01858155601a8d0184815416905581151580614923575b614900575b505060195496600160401b8810156116275783613ee1956148f194836148b48d6143c98e7f0a3d356d942a35213f2f2e42f5c07221391ae9a4f16edaa23278b9f8068be7729f988399016019556135e5565b601954858452601a8c528484205533835260188b528383209182541617905560178952205554936060835196879687528601526060850190613225565b90838203908401523396613225565b4290554360198d015560178c015561491a600e544261342e565b81553880614862565b5061493082600d5461343b565b6064101561485d565b90508b015138613b2d565b828652878620899291601f198316888b8f5b83831061498c575050508311614973575b5050811b0190556147f4565b8c015160001960f88460031b161c191690553880614967565b84015185558d969094019392830192018b8f614956565b634e487b7160e01b85526041600452602485fd5b905088015138613b2d565b8287528887208a9291601f198316895b8c8c838310614a0a5750505083116149f1575b5050811b0190556147aa565b89015160001960f88460031b161c1916905538806149e5565b84015185558e969094019392830192016149d2565b634e487b7160e01b86526041600452602486fd5b855163eeeb962360e01b8152600490fd5b85516331806aeb60e21b8152600490fd5b906146e9565b601782528587205487526016825285872060ff601382015416159081614ab3575b5015614a9357855163792c310960e11b8152600490fd5b3387526018825285872060ff1981541690556017825286868120556146dd565b601191500154421038614a7c565b855163148fe22160e11b8152600490fd5b601c8101805460ff8160081c1615614ae957505050565b61ff0019166101001790556009546001810190811061116057600955546000818152600b602052604081205415614b1e575050565b600a54600160401b811015614b535790614b44836143c984600160409601600a55613669565b600a54928152600b6020522055565b634e487b7160e01b82526041600452602482fd5b805482101561361c5760005260206000209060011b0190600090565b906004808301918254938415614c6257506002810154600180920154906000955b808710614bd4575050505050811561349757600019820191821161116057600191614bce91614b67565b50015490565b614bde818861342e565b841c90614beb8288614b67565b50546001600160401b039081811680861015614c0a5750505050614ba4565b929992851115614c3c57505050838101809111614c275795614ba4565b601185634e487b7160e01b6000525260246000fd5b91989160401c16841015614c505750614ba4565b9650838101809111614c275795614ba4565b60010154949350505050565b906011820154119081614c7f575090565b60ff915060130154161590565b6009541561310d57600a548015614d4857805b614ca65750565b6000198101818111614d0657614cbd604091613669565b905460009160031b1c815260166020522060ff80601c83015460081c1615614d395760118201544210159081614d2a575b50614d1b575b505b8015614d06576000190180614c9f565b60246000634e487b7160e01b81526011600452fd5b614d2490614f29565b38614cf4565b90506013820154161538614cee565b50614d43906142f5565b614cf6565b50565b6011548015614d4857601c54906000805b838110614d695750505050565b80614d75600192613632565b838060a01b0391549060031b1c168352601b6020528360408420600281018054908115614de157614da684836138b0565b918215614dd757614dd194614dba916138d0565b9055614dca85830191825461342e565b90556150ad565b01614d5c565b5050505050614dd1565b50505050614dd1565b60001982820982820291828083109203918083039214614e59578160641115614e46577f5c28f5c28f5c28f5c28f5c28f5c28f5c28f5c28f5c28f5c28f5c28f5c28f5c29936064910990828211900360fe1b910360021c170290565b634e487b7160005260116020526024601cfd5b5050606491500490565b6040516323b872dd60e01b60208201526001600160a01b03928316602482015292909116604483015260648083019390935291815260a08101918183106001600160401b038411176116275761310d9260405261516e565b600c548015159081614f1c575b5080614f0f575b614ed557565b600160ff1960085416176008557f752d7e161ff5146f80e3820893176eb40532811e5e20400dfdde57455213706a602060405160018152a1565b5060ff6008541615614ecf565b9050601154101538614ec8565b60168101548015908115614f7d575b5060ff60138301541615908115614f74575b508015614f62575b614f595750565b61310d906142f5565b50600f81015460108201541015614f52565b90501538614f4a565b600f83015460648082029350811591840414171561116057614fa190600d5461343b565b111538614f38565b91908015614fec576002830154818111614fe357149182614fd5575b5050614fd057600090565b600190565b600101541190503880614fc5565b50505050600190565b505050600090565b61500d92615008606495936150089361342e565b61342e565b0361501457565b60405163542c8df360e11b8152600490fd5b8054600160401b8110156116275761504391600182018155614b67565b919091615097578051825460208301516fffffffffffffffffffffffffffffffff199091166001600160401b039290921691909117604091821b67ffffffffffffffff60401b161783556001910151910155565b634e487b7160e01b600052600060045260246000fd5b6001600160401b0360018201549060405192606084018481108382111761162757604052814316845260046020850191834216835260408601948552019384548015615160576000198101908111611160576151099086614b67565b50948386541684835116146000146151515750505183546fffffffffffffffff00000000000000001916911660401b67ffffffffffffffff60401b1617825560019051910155565b925092505061310d9250615026565b509250505061310d91615026565b906000602091828151910182855af115610a3f576000513d6151c157506001600160a01b0381163b155b61519f5750565b604051635274afe760e01b81526001600160a01b039091166004820152602490fd5b6001141561519856fef502c7eda43df8a8ec352065360db3486f90ce32849cf8182983d7939bfd3626af8f9d0e884d3306a083e846741a0bc4d75908e2b0ec63b558219652ae4c1b90d81f085560db5c809c425a15f00e3f2904e4fa46d6e8672ff2e671ccd6d9a2318d1108e10bcb7c27dddfc02ed9d693a074039d026cf4ea4240b40f7d581ac802a264697066735822122039af3a1a5f19a023255bc54db85a9500fee17cf639a8dc532f4d3c79f655289c64736f6c634300081700338d1108e10bcb7c27dddfc02ed9d693a074039d026cf4ea4240b40f7d581ac802",
  "linkReferences": {},
  "deployedLinkReferences": {}
}