{
  "_format": "hh-sol-artifact-1",
  "contractName": "TEMPL",
  "sourceName": "contracts/TEMPL.sol",
  "abi": [
    {
      "inputs": [
        {
          "internalType": "address",
          "name": "_priest",
          "type": "address"
        },
        {
          "internalType": "address",
          "name": "_protocolFeeRecipient",
          "type": "address"
        },
        {
          "internalType": "address",
          "name": "_token",
          "type": "address"
        },
        {
          "internalType": "uint256",
          "name": "_entryFee",
          "type": "uint256"
        },
        {
          "internalType": "uint256",
          "name": "_priestVoteWeight",
          "type": "uint256"
        },
        {
          "internalType": "uint256",
          "name": "_priestWeightThreshold",
          "type": "uint256"
        }
      ],
      "stateMutability": "nonpayable",
      "type": "constructor"
    },
    {
      "inputs": [],
      "name": "ActiveProposalExists",
      "type": "error"
    },
    {
      "inputs": [],
      "name": "AlreadyExecuted",
      "type": "error"
    },
    {
      "inputs": [],
      "name": "AlreadyPurchased",
      "type": "error"
    },
    {
      "inputs": [],
      "name": "AlreadyVoted",
      "type": "error"
    },
    {
      "inputs": [],
      "name": "AmountZero",
      "type": "error"
    },
    {
      "inputs": [],
      "name": "CallDataRequired",
      "type": "error"
    },
    {
      "inputs": [],
      "name": "ContractPausedError",
      "type": "error"
    },
    {
      "inputs": [],
      "name": "DescriptionRequired",
      "type": "error"
    },
    {
      "inputs": [],
      "name": "EntryFeeTooSmall",
      "type": "error"
    },
    {
      "inputs": [],
      "name": "ExternalCallFailed",
      "type": "error"
    },
    {
      "inputs": [],
      "name": "InsufficientBalance",
      "type": "error"
    },
    {
      "inputs": [],
      "name": "InsufficientPoolBalance",
      "type": "error"
    },
    {
      "inputs": [],
      "name": "InsufficientTreasuryBalance",
      "type": "error"
    },
    {
      "inputs": [],
      "name": "InvalidEntryFee",
      "type": "error"
    },
    {
      "inputs": [],
      "name": "InvalidProposal",
      "type": "error"
    },
    {
      "inputs": [],
      "name": "InvalidRecipient",
      "type": "error"
    },
    {
      "inputs": [],
      "name": "InvalidTarget",
      "type": "error"
    },
    {
      "inputs": [],
      "name": "JoinedAfterProposal",
      "type": "error"
    },
    {
      "inputs": [],
      "name": "LimitOutOfRange",
      "type": "error"
    },
    {
      "inputs": [],
      "name": "NoRewardsToClaim",
      "type": "error"
    },
    {
      "inputs": [],
      "name": "NoTreasuryFunds",
      "type": "error"
    },
    {
      "inputs": [],
      "name": "NotDAO",
      "type": "error"
    },
    {
      "inputs": [],
      "name": "NotMember",
      "type": "error"
    },
    {
      "inputs": [],
      "name": "ProposalExecutionFailed",
      "type": "error"
    },
    {
      "inputs": [],
      "name": "ProposalNotPassed",
      "type": "error"
    },
    {
      "inputs": [],
      "name": "ReentrantCall",
      "type": "error"
    },
    {
      "inputs": [],
      "name": "TitleRequired",
      "type": "error"
    },
    {
      "inputs": [],
      "name": "TransferFailed",
      "type": "error"
    },
    {
      "inputs": [],
      "name": "VotingEnded",
      "type": "error"
    },
    {
      "inputs": [],
      "name": "VotingNotEnded",
      "type": "error"
    },
    {
      "inputs": [],
      "name": "VotingPeriodTooLong",
      "type": "error"
    },
    {
      "inputs": [],
      "name": "VotingPeriodTooShort",
      "type": "error"
    },
    {
      "anonymous": false,
      "inputs": [
        {
          "indexed": true,
          "internalType": "address",
          "name": "purchaser",
          "type": "address"
        },
        {
          "indexed": false,
          "internalType": "uint256",
          "name": "totalAmount",
          "type": "uint256"
        },
        {
          "indexed": false,
          "internalType": "uint256",
          "name": "burnedAmount",
          "type": "uint256"
        },
        {
          "indexed": false,
          "internalType": "uint256",
          "name": "treasuryAmount",
          "type": "uint256"
        },
        {
          "indexed": false,
          "internalType": "uint256",
          "name": "memberPoolAmount",
          "type": "uint256"
        },
        {
          "indexed": false,
          "internalType": "uint256",
          "name": "protocolAmount",
          "type": "uint256"
        },
        {
          "indexed": false,
          "internalType": "uint256",
          "name": "timestamp",
          "type": "uint256"
        },
        {
          "indexed": false,
          "internalType": "uint256",
          "name": "blockNumber",
          "type": "uint256"
        },
        {
          "indexed": false,
          "internalType": "uint256",
          "name": "purchaseId",
          "type": "uint256"
        }
      ],
      "name": "AccessPurchased",
      "type": "event"
    },
    {
      "anonymous": false,
      "inputs": [
        {
          "indexed": true,
          "internalType": "address",
          "name": "token",
          "type": "address"
        },
        {
          "indexed": false,
          "internalType": "uint256",
          "name": "entryFee",
          "type": "uint256"
        }
      ],
      "name": "ConfigUpdated",
      "type": "event"
    },
    {
      "anonymous": false,
      "inputs": [
        {
          "indexed": false,
          "internalType": "bool",
          "name": "isPaused",
          "type": "bool"
        }
      ],
      "name": "ContractPaused",
      "type": "event"
    },
    {
      "anonymous": false,
      "inputs": [
        {
          "indexed": true,
          "internalType": "address",
          "name": "member",
          "type": "address"
        },
        {
          "indexed": false,
          "internalType": "uint256",
          "name": "amount",
          "type": "uint256"
        },
        {
          "indexed": false,
          "internalType": "uint256",
          "name": "timestamp",
          "type": "uint256"
        }
      ],
      "name": "MemberPoolClaimed",
      "type": "event"
    },
    {
      "anonymous": false,
      "inputs": [
        {
          "indexed": true,
          "internalType": "uint256",
          "name": "proposalId",
          "type": "uint256"
        },
        {
          "indexed": true,
          "internalType": "address",
          "name": "proposer",
          "type": "address"
        },
        {
          "indexed": false,
          "internalType": "string",
          "name": "title",
          "type": "string"
        },
        {
          "indexed": false,
          "internalType": "uint256",
          "name": "endTime",
          "type": "uint256"
        }
      ],
      "name": "ProposalCreated",
      "type": "event"
    },
    {
      "anonymous": false,
      "inputs": [
        {
          "indexed": true,
          "internalType": "uint256",
          "name": "proposalId",
          "type": "uint256"
        },
        {
          "indexed": false,
          "internalType": "bool",
          "name": "success",
          "type": "bool"
        },
        {
          "indexed": false,
          "internalType": "bytes",
          "name": "returnData",
          "type": "bytes"
        }
      ],
      "name": "ProposalExecuted",
      "type": "event"
    },
    {
      "anonymous": false,
      "inputs": [
        {
          "indexed": true,
          "internalType": "uint256",
          "name": "proposalId",
          "type": "uint256"
        },
        {
          "indexed": true,
          "internalType": "address",
          "name": "recipient",
          "type": "address"
        },
        {
          "indexed": false,
          "internalType": "uint256",
          "name": "amount",
          "type": "uint256"
        },
        {
          "indexed": false,
          "internalType": "string",
          "name": "description",
          "type": "string"
        }
      ],
      "name": "TreasuryAction",
      "type": "event"
    },
    {
      "anonymous": false,
      "inputs": [
        {
          "indexed": true,
          "internalType": "address",
          "name": "priest",
          "type": "address"
        },
        {
          "indexed": true,
          "internalType": "address",
          "name": "recipient",
          "type": "address"
        },
        {
          "indexed": false,
          "internalType": "uint256",
          "name": "amount",
          "type": "uint256"
        },
        {
          "indexed": false,
          "internalType": "uint256",
          "name": "timestamp",
          "type": "uint256"
        }
      ],
      "name": "TreasuryWithdrawn",
      "type": "event"
    },
    {
      "anonymous": false,
      "inputs": [
        {
          "indexed": true,
          "internalType": "uint256",
          "name": "proposalId",
          "type": "uint256"
        },
        {
          "indexed": true,
          "internalType": "address",
          "name": "voter",
          "type": "address"
        },
        {
          "indexed": false,
          "internalType": "bool",
          "name": "support",
          "type": "bool"
        },
        {
          "indexed": false,
          "internalType": "uint256",
          "name": "timestamp",
          "type": "uint256"
        }
      ],
      "name": "VoteCast",
      "type": "event"
    },
    {
      "inputs": [],
      "name": "DEFAULT_VOTING_PERIOD",
      "outputs": [
        {
          "internalType": "uint256",
          "name": "",
          "type": "uint256"
        }
      ],
      "stateMutability": "view",
      "type": "function"
    },
    {
      "inputs": [],
      "name": "MAX_VOTING_PERIOD",
      "outputs": [
        {
          "internalType": "uint256",
          "name": "",
          "type": "uint256"
        }
      ],
      "stateMutability": "view",
      "type": "function"
    },
    {
      "inputs": [],
      "name": "MIN_VOTING_PERIOD",
      "outputs": [
        {
          "internalType": "uint256",
          "name": "",
          "type": "uint256"
        }
      ],
      "stateMutability": "view",
      "type": "function"
    },
    {
      "inputs": [],
      "name": "accessToken",
      "outputs": [
        {
          "internalType": "address",
          "name": "",
          "type": "address"
        }
      ],
      "stateMutability": "view",
      "type": "function"
    },
    {
      "inputs": [
        {
          "internalType": "address",
          "name": "",
          "type": "address"
        }
      ],
      "name": "activeProposalId",
      "outputs": [
        {
          "internalType": "uint256",
          "name": "",
          "type": "uint256"
        }
      ],
      "stateMutability": "view",
      "type": "function"
    },
    {
      "inputs": [],
      "name": "claimMemberPool",
      "outputs": [],
      "stateMutability": "nonpayable",
      "type": "function"
    },
    {
      "inputs": [
        {
          "internalType": "string",
          "name": "_title",
          "type": "string"
        },
        {
          "internalType": "string",
          "name": "_description",
          "type": "string"
        },
        {
          "internalType": "bytes",
          "name": "_callData",
          "type": "bytes"
        },
        {
          "internalType": "uint256",
          "name": "_votingPeriod",
          "type": "uint256"
        }
      ],
      "name": "createProposal",
      "outputs": [
        {
          "internalType": "uint256",
          "name": "",
          "type": "uint256"
        }
      ],
      "stateMutability": "nonpayable",
      "type": "function"
    },
    {
      "inputs": [],
      "name": "entryFee",
      "outputs": [
        {
          "internalType": "uint256",
          "name": "",
          "type": "uint256"
        }
      ],
      "stateMutability": "view",
      "type": "function"
    },
    {
      "inputs": [
        {
          "internalType": "address",
          "name": "target",
          "type": "address"
        },
        {
          "internalType": "uint256",
          "name": "value",
          "type": "uint256"
        },
        {
          "internalType": "bytes",
          "name": "data",
          "type": "bytes"
        }
      ],
      "name": "executeDAO",
      "outputs": [
        {
          "internalType": "bytes",
          "name": "",
          "type": "bytes"
        }
      ],
      "stateMutability": "nonpayable",
      "type": "function"
    },
    {
      "inputs": [
        {
          "internalType": "uint256",
          "name": "_proposalId",
          "type": "uint256"
        }
      ],
      "name": "executeProposal",
      "outputs": [],
      "stateMutability": "nonpayable",
      "type": "function"
    },
    {
      "inputs": [],
      "name": "getActiveProposals",
      "outputs": [
        {
          "internalType": "uint256[]",
          "name": "",
          "type": "uint256[]"
        }
      ],
      "stateMutability": "view",
      "type": "function"
    },
    {
      "inputs": [
        {
          "internalType": "uint256",
          "name": "offset",
          "type": "uint256"
        },
        {
          "internalType": "uint256",
          "name": "limit",
          "type": "uint256"
        }
      ],
      "name": "getActiveProposalsPaginated",
      "outputs": [
        {
          "internalType": "uint256[]",
          "name": "proposalIds",
          "type": "uint256[]"
        },
        {
          "internalType": "bool",
          "name": "hasMore",
          "type": "bool"
        }
      ],
      "stateMutability": "view",
      "type": "function"
    },
    {
      "inputs": [
        {
          "internalType": "address",
          "name": "member",
          "type": "address"
        }
      ],
      "name": "getClaimablePoolAmount",
      "outputs": [
        {
          "internalType": "uint256",
          "name": "",
          "type": "uint256"
        }
      ],
      "stateMutability": "view",
      "type": "function"
    },
    {
      "inputs": [],
      "name": "getConfig",
      "outputs": [
        {
          "internalType": "address",
          "name": "token",
          "type": "address"
        },
        {
          "internalType": "uint256",
          "name": "fee",
          "type": "uint256"
        },
        {
          "internalType": "bool",
          "name": "isPaused",
          "type": "bool"
        },
        {
          "internalType": "uint256",
          "name": "purchases",
          "type": "uint256"
        },
        {
          "internalType": "uint256",
          "name": "treasury",
          "type": "uint256"
        },
        {
          "internalType": "uint256",
          "name": "pool",
          "type": "uint256"
        }
      ],
      "stateMutability": "view",
      "type": "function"
    },
    {
      "inputs": [],
      "name": "getMemberCount",
      "outputs": [
        {
          "internalType": "uint256",
          "name": "",
          "type": "uint256"
        }
      ],
      "stateMutability": "view",
      "type": "function"
    },
    {
      "inputs": [
        {
          "internalType": "uint256",
          "name": "_proposalId",
          "type": "uint256"
        }
      ],
      "name": "getProposal",
      "outputs": [
        {
          "internalType": "address",
          "name": "proposer",
          "type": "address"
        },
        {
          "internalType": "string",
          "name": "title",
          "type": "string"
        },
        {
          "internalType": "string",
          "name": "description",
          "type": "string"
        },
        {
          "internalType": "uint256",
          "name": "yesVotes",
          "type": "uint256"
        },
        {
          "internalType": "uint256",
          "name": "noVotes",
          "type": "uint256"
        },
        {
          "internalType": "uint256",
          "name": "endTime",
          "type": "uint256"
        },
        {
          "internalType": "bool",
          "name": "executed",
          "type": "bool"
        },
        {
          "internalType": "bool",
          "name": "passed",
          "type": "bool"
        }
      ],
      "stateMutability": "view",
      "type": "function"
    },
    {
      "inputs": [
        {
          "internalType": "address",
          "name": "user",
          "type": "address"
        }
      ],
      "name": "getPurchaseDetails",
      "outputs": [
        {
          "internalType": "bool",
          "name": "purchased",
          "type": "bool"
        },
        {
          "internalType": "uint256",
          "name": "timestamp",
          "type": "uint256"
        },
        {
          "internalType": "uint256",
          "name": "blockNum",
          "type": "uint256"
        }
      ],
      "stateMutability": "view",
      "type": "function"
    },
    {
      "inputs": [],
      "name": "getTreasuryInfo",
      "outputs": [
        {
          "internalType": "uint256",
          "name": "treasury",
          "type": "uint256"
        },
        {
          "internalType": "uint256",
          "name": "memberPool",
          "type": "uint256"
        },
        {
          "internalType": "uint256",
          "name": "totalReceived",
          "type": "uint256"
        },
        {
          "internalType": "uint256",
          "name": "totalBurnedAmount",
          "type": "uint256"
        },
        {
          "internalType": "uint256",
          "name": "totalProtocolFees",
          "type": "uint256"
        },
        {
          "internalType": "address",
          "name": "protocolAddress",
          "type": "address"
        }
      ],
      "stateMutability": "view",
      "type": "function"
    },
    {
      "inputs": [
        {
          "internalType": "address",
          "name": "voter",
          "type": "address"
        }
      ],
      "name": "getVoteWeight",
      "outputs": [
        {
          "internalType": "uint256",
          "name": "",
          "type": "uint256"
        }
      ],
      "stateMutability": "view",
      "type": "function"
    },
    {
      "inputs": [
        {
          "internalType": "address",
          "name": "user",
          "type": "address"
        }
      ],
      "name": "hasAccess",
      "outputs": [
        {
          "internalType": "bool",
          "name": "",
          "type": "bool"
        }
      ],
      "stateMutability": "view",
      "type": "function"
    },
    {
      "inputs": [
        {
          "internalType": "address",
          "name": "",
          "type": "address"
        }
      ],
      "name": "hasActiveProposal",
      "outputs": [
        {
          "internalType": "bool",
          "name": "",
          "type": "bool"
        }
      ],
      "stateMutability": "view",
      "type": "function"
    },
    {
      "inputs": [
        {
          "internalType": "address",
          "name": "",
          "type": "address"
        }
      ],
      "name": "hasPurchased",
      "outputs": [
        {
          "internalType": "bool",
          "name": "",
          "type": "bool"
        }
      ],
      "stateMutability": "view",
      "type": "function"
    },
    {
      "inputs": [
        {
          "internalType": "uint256",
          "name": "_proposalId",
          "type": "uint256"
        },
        {
          "internalType": "address",
          "name": "_voter",
          "type": "address"
        }
      ],
      "name": "hasVoted",
      "outputs": [
        {
          "internalType": "bool",
          "name": "voted",
          "type": "bool"
        },
        {
          "internalType": "bool",
          "name": "support",
          "type": "bool"
        }
      ],
      "stateMutability": "view",
      "type": "function"
    },
    {
      "inputs": [
        {
          "internalType": "address",
          "name": "",
          "type": "address"
        }
      ],
      "name": "memberIndex",
      "outputs": [
        {
          "internalType": "uint256",
          "name": "",
          "type": "uint256"
        }
      ],
      "stateMutability": "view",
      "type": "function"
    },
    {
      "inputs": [],
      "name": "memberPoolBalance",
      "outputs": [
        {
          "internalType": "uint256",
          "name": "",
          "type": "uint256"
        }
      ],
      "stateMutability": "view",
      "type": "function"
    },
    {
      "inputs": [
        {
          "internalType": "address",
          "name": "",
          "type": "address"
        }
      ],
      "name": "memberPoolClaims",
      "outputs": [
        {
          "internalType": "uint256",
          "name": "",
          "type": "uint256"
        }
      ],
      "stateMutability": "view",
      "type": "function"
    },
    {
      "inputs": [
        {
          "internalType": "uint256",
          "name": "",
          "type": "uint256"
        }
      ],
      "name": "members",
      "outputs": [
        {
          "internalType": "address",
          "name": "",
          "type": "address"
        }
      ],
      "stateMutability": "view",
      "type": "function"
    },
    {
      "inputs": [],
      "name": "paused",
      "outputs": [
        {
          "internalType": "bool",
          "name": "",
          "type": "bool"
        }
      ],
      "stateMutability": "view",
      "type": "function"
    },
    {
      "inputs": [
        {
          "internalType": "uint256",
          "name": "",
          "type": "uint256"
        }
      ],
      "name": "poolDeposits",
      "outputs": [
        {
          "internalType": "uint256",
          "name": "",
          "type": "uint256"
        }
      ],
      "stateMutability": "view",
      "type": "function"
    },
    {
      "inputs": [],
      "name": "priest",
      "outputs": [
        {
          "internalType": "address",
          "name": "",
          "type": "address"
        }
      ],
      "stateMutability": "view",
      "type": "function"
    },
    {
      "inputs": [],
      "name": "priestVoteWeight",
      "outputs": [
        {
          "internalType": "uint256",
          "name": "",
          "type": "uint256"
        }
      ],
      "stateMutability": "view",
      "type": "function"
    },
    {
      "inputs": [],
      "name": "priestWeightThreshold",
      "outputs": [
        {
          "internalType": "uint256",
          "name": "",
          "type": "uint256"
        }
      ],
      "stateMutability": "view",
      "type": "function"
    },
    {
      "inputs": [],
      "name": "proposalCount",
      "outputs": [
        {
          "internalType": "uint256",
          "name": "",
          "type": "uint256"
        }
      ],
      "stateMutability": "view",
      "type": "function"
    },
    {
      "inputs": [
        {
          "internalType": "uint256",
          "name": "",
          "type": "uint256"
        }
      ],
      "name": "proposals",
      "outputs": [
        {
          "internalType": "uint256",
          "name": "id",
          "type": "uint256"
        },
        {
          "internalType": "address",
          "name": "proposer",
          "type": "address"
        },
        {
          "internalType": "string",
          "name": "title",
          "type": "string"
        },
        {
          "internalType": "string",
          "name": "description",
          "type": "string"
        },
        {
          "internalType": "bytes",
          "name": "callData",
          "type": "bytes"
        },
        {
          "internalType": "uint256",
          "name": "yesVotes",
          "type": "uint256"
        },
        {
          "internalType": "uint256",
          "name": "noVotes",
          "type": "uint256"
        },
        {
          "internalType": "uint256",
          "name": "endTime",
          "type": "uint256"
        },
        {
          "internalType": "uint256",
          "name": "createdAt",
          "type": "uint256"
        },
        {
          "internalType": "uint256",
          "name": "eligibleVoters",
          "type": "uint256"
        },
        {
          "internalType": "bool",
          "name": "executed",
          "type": "bool"
        }
      ],
      "stateMutability": "view",
      "type": "function"
    },
    {
      "inputs": [],
      "name": "protocolFeeRecipient",
      "outputs": [
        {
          "internalType": "address",
          "name": "",
          "type": "address"
        }
      ],
      "stateMutability": "view",
      "type": "function"
    },
    {
      "inputs": [],
      "name": "purchaseAccess",
      "outputs": [],
      "stateMutability": "nonpayable",
      "type": "function"
    },
    {
      "inputs": [
        {
          "internalType": "address",
          "name": "",
          "type": "address"
        }
      ],
      "name": "purchaseBlock",
      "outputs": [
        {
          "internalType": "uint256",
          "name": "",
          "type": "uint256"
        }
      ],
      "stateMutability": "view",
      "type": "function"
    },
    {
      "inputs": [
        {
          "internalType": "address",
          "name": "",
          "type": "address"
        }
      ],
      "name": "purchaseTimestamp",
      "outputs": [
        {
          "internalType": "uint256",
          "name": "",
          "type": "uint256"
        }
      ],
      "stateMutability": "view",
      "type": "function"
    },
    {
      "inputs": [
        {
          "internalType": "bool",
          "name": "_paused",
          "type": "bool"
        }
      ],
      "name": "setPausedDAO",
      "outputs": [],
      "stateMutability": "nonpayable",
      "type": "function"
    },
    {
      "inputs": [],
      "name": "totalBurned",
      "outputs": [
        {
          "internalType": "uint256",
          "name": "",
          "type": "uint256"
        }
      ],
      "stateMutability": "view",
      "type": "function"
    },
    {
      "inputs": [],
      "name": "totalPurchases",
      "outputs": [
        {
          "internalType": "uint256",
          "name": "",
          "type": "uint256"
        }
      ],
      "stateMutability": "view",
      "type": "function"
    },
    {
      "inputs": [],
      "name": "totalToMemberPool",
      "outputs": [
        {
          "internalType": "uint256",
          "name": "",
          "type": "uint256"
        }
      ],
      "stateMutability": "view",
      "type": "function"
    },
    {
      "inputs": [],
      "name": "totalToProtocol",
      "outputs": [
        {
          "internalType": "uint256",
          "name": "",
          "type": "uint256"
        }
      ],
      "stateMutability": "view",
      "type": "function"
    },
    {
      "inputs": [],
      "name": "totalToTreasury",
      "outputs": [
        {
          "internalType": "uint256",
          "name": "",
          "type": "uint256"
        }
      ],
      "stateMutability": "view",
      "type": "function"
    },
    {
      "inputs": [],
      "name": "treasuryBalance",
      "outputs": [
        {
          "internalType": "uint256",
          "name": "",
          "type": "uint256"
        }
      ],
      "stateMutability": "view",
      "type": "function"
    },
    {
      "inputs": [
        {
          "internalType": "address",
          "name": "_token",
          "type": "address"
        },
        {
          "internalType": "uint256",
          "name": "_entryFee",
          "type": "uint256"
        }
      ],
      "name": "updateConfigDAO",
      "outputs": [],
      "stateMutability": "nonpayable",
      "type": "function"
    },
    {
      "inputs": [
        {
          "internalType": "uint256",
          "name": "_proposalId",
          "type": "uint256"
        },
        {
          "internalType": "bool",
          "name": "_support",
          "type": "bool"
        }
      ],
      "name": "vote",
      "outputs": [],
      "stateMutability": "nonpayable",
      "type": "function"
    },
    {
      "inputs": [
        {
          "internalType": "address",
          "name": "recipient",
          "type": "address"
        },
        {
          "internalType": "string",
          "name": "reason",
          "type": "string"
        }
      ],
      "name": "withdrawAllTreasuryDAO",
      "outputs": [],
      "stateMutability": "nonpayable",
      "type": "function"
    },
    {
      "inputs": [
        {
          "internalType": "address",
          "name": "recipient",
          "type": "address"
        },
        {
          "internalType": "uint256",
          "name": "amount",
          "type": "uint256"
        },
        {
          "internalType": "string",
          "name": "reason",
          "type": "string"
        }
      ],
      "name": "withdrawTreasuryDAO",
      "outputs": [],
      "stateMutability": "nonpayable",
      "type": "function"
    }
  ],
  "bytecode": "0x6101006040523480156200001257600080fd5b5060405162002fae38038062002fae83398101604081905262000035916200019f565b6001600160a01b03861615806200005357506001600160a01b038516155b806200006657506001600160a01b038416155b156200008557604051634e46966960e11b815260040160405180910390fd5b82600003620000a7576040516365e52d5160e11b815260040160405180910390fd5b600a831015620000ca57604051635eee050360e11b815260040160405180910390fd5b620000d7600a8462000205565b15620000f657604051636fe6a4c960e01b815260040160405180910390fd5b8160000362000118576040516365e52d5160e11b815260040160405180910390fd5b806000036200013a576040516365e52d5160e11b815260040160405180910390fd5b6001600160a01b0395861660805293851660a052600180546001600160a01b0319169390951692909217845560025560c05260e0526005805460ff1916905560005562000228565b80516001600160a01b03811681146200019a57600080fd5b919050565b60008060008060008060c08789031215620001b957600080fd5b620001c48762000182565b9550620001d46020880162000182565b9450620001e46040880162000182565b9350606087015192506080870151915060a087015190509295509295509295565b6000826200022357634e487b7160e01b600052601260045260246000fd5b500690565b60805160a05160c05160e051612d146200029a600039600081816103a701528181611d2e01526121610152600081816106f601528181611d57015261218a0152600081816104ed0152818161069c0152611baa01526000818161064001528181611cef01526121340152612d146000f3fe608060405234801561001057600080fd5b50600436106102bb5760003560e01c80638f78bbc411610182578063c1b57edb116100e9578063c9d27afe116100a2578063da35c6641161007c578063da35c664146107c1578063e243c5fb146107ca578063f7158b2a146107dd578063ffafe4ad146107e557600080fd5b8063c9d27afe14610792578063d3493ced146107a5578063d89135cd146107b857600080fd5b8063c1b57edb14610662578063c233ccf11461066b578063c29394711461068b578063c34b5580146106f1578063c3f909d414610718578063c7f758a81461076b57600080fd5b8063a64e024a1161013b578063a64e024a146105f5578063a730117e146105ff578063a81bbe3c14610612578063aedfe53f14610332578063bdb75b3414610632578063bebc8fc01461063b57600080fd5b80638f78bbc41461056257806390118fb41461058357806395a078e8146105a6578063997072f7146105d2578063999dcbe6146105da57806399e288d8146105ed57600080fd5b80635584c4f9116102265780635fa7ddf0116101df5780635fa7ddf01461047e57806364653f291461048757806364df049e146104e8578063653724d61461050f5780636ad1855014610522578063767551181461054257600080fd5b80635584c4f9146103ef5780635962a9411461040457806359c266ff1461040d5780635c975abb146104165780635daf08ca146104335780635e391dfe1461045e57600080fd5b806332d084bb1161027857806332d084bb146103455780633dd352791461035857806343859632146103785780634c78afc8146103a2578063524ddc23146103c957806354403801146103dc57600080fd5b8063013cf08b146102c0578063072ea61c146102f35780630d61b5191461030a5780631808022a1461031f578063215809ca14610332578063313dab201461033c575b600080fd5b6102d36102ce3660046124bc565b610808565b6040516102ea9b9a99989796959493929190612525565b60405180910390f35b6102fc60025481565b6040519081526020016102ea565b61031d6103183660046124bc565b610a03565b005b6102fc61032d3660046125cf565b610c1c565b6102fc62093a8081565b6102fc60035481565b6102fc610353366004612694565b610d45565b6102fc6103663660046125cf565b600a6020526000908152604090205481565b61038b610386366004612724565b610fd8565b6040805192151583529015156020830152016102ea565b6102fc7f000000000000000000000000000000000000000000000000000000000000000081565b61031d6103d7366004612750565b61103f565b61031d6103ea36600461277a565b61112a565b6103f76112be565b6040516102ea919061280c565b6102fc60115481565b6102fc60155481565b6005546104239060ff1681565b60405190151581526020016102ea565b6104466104413660046124bc565b6113f8565b6040516001600160a01b0390911681526020016102ea565b6102fc61046c3660046125cf565b60086020526000908152604090205481565b6102fc60045481565b6104cb6104953660046125cf565b6001600160a01b03166000908152600660209081526040808320546007835281842054600890935292205460ff90921692909190565b6040805193151584526020840192909252908201526060016102ea565b6104467f000000000000000000000000000000000000000000000000000000000000000081565b61031d61051d366004612830565b611422565b6102fc6105303660046125cf565b600f6020526000908152604090205481565b6102fc6105503660046125cf565b60076020526000908152604090205481565b61057561057036600461284d565b611489565b6040516102ea92919061286f565b6104236105913660046125cf565b60066020526000908152604090205460ff1681565b6104236105b43660046125cf565b6001600160a01b031660009081526006602052604090205460ff1690565b6009546102fc565b6102fc6105e83660046124bc565b6116ad565b61031d6116ce565b6102fc62278d0081565b6102fc61060d3660046125cf565b611cc5565b6102fc6106203660046125cf565b600b6020526000908152604090205481565b6102fc60145481565b6104467f000000000000000000000000000000000000000000000000000000000000000081565b6102fc60135481565b61067e61067936600461277a565b611d83565b6040516102ea9190612893565b6003546004546013546012546015547f000000000000000000000000000000000000000000000000000000000000000060408051968752602087019590955293850192909252606084015260808301526001600160a01b031660a082015260c0016102ea565b6102fc7f000000000000000000000000000000000000000000000000000000000000000081565b600154600254600554601154600354600454604080516001600160a01b039097168752602087019590955260ff9093161515938501939093526060840152608083019190915260a082015260c0016102ea565b61077e6107793660046124bc565b611e56565b6040516102ea9897969594939291906128a6565b61031d6107a036600461290f565b612008565b61031d6107b336600461293f565b61222d565b6102fc60125481565b6102fc600d5481565b600154610446906001600160a01b031681565b61031d61232d565b6104236107f33660046125cf565b60106020526000908152604090205460ff1681565b600e6020526000908152604090208054600182015460028301805492936001600160a01b039092169261083a9061298d565b80601f01602080910402602001604051908101604052809291908181526020018280546108669061298d565b80156108b35780601f10610888576101008083540402835291602001916108b3565b820191906000526020600020905b81548152906001019060200180831161089657829003601f168201915b5050505050908060030180546108c89061298d565b80601f01602080910402602001604051908101604052809291908181526020018280546108f49061298d565b80156109415780601f1061091657610100808354040283529160200191610941565b820191906000526020600020905b81548152906001019060200180831161092457829003601f168201915b5050505050908060040180546109569061298d565b80601f01602080910402602001604051908101604052809291908181526020018280546109829061298d565b80156109cf5780601f106109a4576101008083540402835291602001916109cf565b820191906000526020600020905b8154815290600101906020018083116109b257829003601f168201915b50505060058401546006850154600786015460088701546009880154600a9098015496979396929550909350919060ff168b565b600260005403610a26576040516306fda65d60e31b815260040160405180910390fd5b6002600055600d548110610a4d57604051631dc0650160e31b815260040160405180910390fd5b6000818152600e602052604090206007810154421015610a8057604051633fc30bd160e11b815260040160405180910390fd5b600a81015460ff1615610aa657604051630dc1019760e01b815260040160405180910390fd5b8060060154816005015411610ace5760405163c8c93ba360e01b815260040160405180910390fd5b600a8101805460ff191660019081179091558101546001600160a01b031660008181526010602052604090205460ff168015610b2157506001600160a01b0381166000908152600f602052604090205483145b15610b52576001600160a01b0381166000908152601060209081526040808320805460ff19169055600f9091528120555b600080306001600160a01b031684600401604051610b7091906129c7565b6000604051808303816000865af19150503d8060008114610bad576040519150601f19603f3d011682016040523d82523d6000602084013e610bb2565b606091505b509150915081610bd5576040516331d436c760e01b815260040160405180910390fd5b847faf8f9d0e884d3306a083e846741a0bc4d75908e2b0ec63b558219652ae4c1b90600183604051610c08929190612a3d565b60405180910390a250506001600055505050565b6001600160a01b03811660009081526006602052604081205460ff16610c4457506000919050565b6001600160a01b0382166000908152600a60205260408120549080610c6a836001612a6e565b90505b600c54811015610cf3576000600c8281548110610c8c57610c8c612a87565b90600052602060002001541115610ce157808015610cdf57600081600c8481548110610cba57610cba612a87565b9060005260206000200154610ccf9190612ab3565b9050610cdb8185612a6e565b9350505b505b80610ceb81612ac7565b915050610c6d565b506001600160a01b0384166000908152600b60205260409020548111610d1a576000610d3d565b6001600160a01b0384166000908152600b6020526040902054610d3d9082612ae0565b949350505050565b3360009081526006602052604081205460ff16610d755760405163148fe22160e11b815260040160405180910390fd5b8451600003610d97576040516319d546f160e31b815260040160405180910390fd5b8351600003610db957604051633e61080d60e01b815260040160405180910390fd5b8251600003610ddb5760405163066e738d60e01b815260040160405180910390fd5b3360009081526010602052604090205460ff1615610e6c57336000908152600f6020908152604080832054808452600e909252909120600a81015460ff16158015610e295750806007015442105b15610e475760405163792c310960e11b815260040160405180910390fd5b336000908152601060209081526040808320805460ff19169055600f90915281205550505b816000819003610e7c575062093a805b62093a80811015610ea0576040516331806aeb60e21b815260040160405180910390fd5b62278d00811115610ec45760405163eeeb962360e01b815260040160405180910390fd5b600d805460009182610ed583612ac7565b909155506000818152600e602052604090208181556001810180546001600160a01b0319163317905590915060028101610f0f8982612b42565b5060038101610f1e8882612b42565b5060048101610f2d8782612b42565b50610f388342612a6e565b600782019081554260088301556009805490830155600a8201805460ff1990811690915560006005840181905560068401819055338082526010602090815260408084208054909516600117909455600f9052908290208590559154905184917f98120a6aaa04295520ab4e01c6c1235dd316e822cc9ff31db7b3f197366d18bd91610fc5918d91612c02565b60405180910390a3509695505050505050565b600080600d548410610ffd57604051631dc0650160e31b815260040160405180910390fd5b50506000918252600e602090815260408084206001600160a01b03939093168452600b8301825280842054600c9093019091529091205460ff91821692911690565b33301461105f576040516327568d2f60e11b815260040160405180910390fd5b6001600160a01b0382161561108a57600180546001600160a01b0319166001600160a01b0384161790555b80156110e157600a8110156110b257604051635eee050360e11b815260040160405180910390fd5b6110bd600a82612c24565b156110db57604051636fe6a4c960e01b815260040160405180910390fd5b60028190555b6001546002546040519081526001600160a01b03909116907faf8839d80c9b3bbf95c97465eb8c8348db4098f5c15af186c3b425b1129981179060200160405180910390a25050565b33301461114a576040516327568d2f60e11b815260040160405180910390fd5b6001600160a01b03831661117157604051634e46966960e11b815260040160405180910390fd5b81600003611192576040516365e52d5160e11b815260040160405180910390fd5b6003548211156111b557604051631c7b597b60e11b815260040160405180910390fd5b81600360008282546111c79190612ae0565b9091555050600d546001600160a01b038416906111e690600190612ae0565b7f1ba011ee074f0e08cc727335f32d75fb7ee71dc0a1e13bb9473e5650b0afd1a38484604051611217929190612c38565b60405180910390a360015460405163a9059cbb60e01b81526001600160a01b03858116600483015260248201859052600092169063a9059cbb906044015b6020604051808303816000875af1158015611274573d6000803e3d6000fd5b505050506040513d601f19601f820116820180604052508101906112989190612c51565b9050806112b8576040516312171d8360e31b815260040160405180910390fd5b50505050565b60606000805b600d54811015611325576000818152600e60205260409020600701544210801561130057506000818152600e60205260409020600a015460ff16155b15611313578161130f81612ac7565b9250505b8061131d81612ac7565b9150506112c4565b5060008167ffffffffffffffff811115611341576113416125f1565b60405190808252806020026020018201604052801561136a578160200160208202803683370190505b5090506000805b600d548110156113ef576000818152600e6020526040902060070154421080156113ad57506000818152600e60205260409020600a015460ff16155b156113dd578083836113be81612ac7565b9450815181106113d0576113d0612a87565b6020026020010181815250505b806113e781612ac7565b915050611371565b50909392505050565b6009818154811061140857600080fd5b6000918252602090912001546001600160a01b0316905081565b333014611442576040516327568d2f60e11b815260040160405180910390fd5b6005805460ff19168215159081179091556040519081527f752d7e161ff5146f80e3820893176eb40532811e5e20400dfdde57455213706a9060200160405180910390a150565b6060600082158061149a5750606483115b156114b8576040516381f396b760e01b815260040160405180910390fd5b60008367ffffffffffffffff8111156114d3576114d36125f1565b6040519080825280602002602001820160405280156114fc578160200160208202803683370190505b509050600080865b600d548110801561151457508683105b1561159a576000818152600e60205260409020600701544210801561154b57506000818152600e60205260409020600a015460ff16155b1561157b5780848461155c81612ac7565b95508151811061156e5761156e612a87565b6020026020010181815250505b611586816001612a6e565b91508061159281612ac7565b915050611504565b5060009350600d5481101561160957805b600d54811015611607576000818152600e6020526040902060070154421080156115e757506000818152600e60205260409020600a015460ff16155b156115f55760019450611607565b806115ff81612ac7565b9150506115ab565b505b8167ffffffffffffffff811115611622576116226125f1565b60405190808252806020026020018201604052801561164b578160200160208202803683370190505b50945060005b828110156116a25783818151811061166b5761166b612a87565b602002602001015186828151811061168557611685612a87565b60209081029190910101528061169a81612ac7565b915050611651565b505050509250929050565b600c81815481106116bd57600080fd5b600091825260209091200154905081565b60055460ff16156116f257604051630eceade960e31b815260040160405180910390fd5b600260005403611715576040516306fda65d60e31b815260040160405180910390fd5b600260009081553381526006602052604090205460ff161561174a57604051630cd9ed5560e21b815260040160405180910390fd5b60006064600254601e61175d9190612c6e565b6117679190612ab3565b905060006064600254600a61177c9190612c6e565b6117869190612ab3565b6002546001546040516370a0823160e01b815233600482015292935090916001600160a01b03909116906370a0823190602401602060405180830381865afa1580156117d6573d6000803e3d6000fd5b505050506040513d601f19601f820116820180604052508101906117fa9190612c85565b101561181957604051631e9acf1760e31b815260040160405180910390fd5b336000818152600660209081526040808320805460ff19166001908117909155600783528184204290556008835281842043905560098054600a9094529184208390558201815582527f6e1540171b6c0c960b71a7020d9f60077f6af931a8bbf590da0223dacf75c7af0180546001600160a01b03191690921790915560118054916118a483612ac7565b9091555050600954600110156118ee57600c80546001810182556000919091527fdf6966c971051c3d54ec59162606531493a51404a002842f56009d7e5cf4a8c701829055611921565b600c805460018101825560009182527fdf6966c971051c3d54ec59162606531493a51404a002842f56009d7e5cf4a8c701555b81600360008282546119339190612a6e565b92505081905550816004600082825461194c9190612a6e565b9250508190555081601260008282546119659190612a6e565b92505081905550816013600082825461197e9190612a6e565b9250508190555081601460008282546119979190612a6e565b9250508190555080601560008282546119b09190612a6e565b90915550506001546040516323b872dd60e01b81526000916001600160a01b0316906323b872dd906119ec90339061dead908890600401612c9e565b6020604051808303816000875af1158015611a0b573d6000803e3d6000fd5b505050506040513d601f19601f82011682018060405250810190611a2f9190612c51565b905080611a4f576040516312171d8360e31b815260040160405180910390fd5b6001546040516323b872dd60e01b81526000916001600160a01b0316906323b872dd90611a8490339030908990600401612c9e565b6020604051808303816000875af1158015611aa3573d6000803e3d6000fd5b505050506040513d601f19601f82011682018060405250810190611ac79190612c51565b905080611ae7576040516312171d8360e31b815260040160405180910390fd5b6001546040516323b872dd60e01b81526000916001600160a01b0316906323b872dd90611b1c90339030908a90600401612c9e565b6020604051808303816000875af1158015611b3b573d6000803e3d6000fd5b505050506040513d601f19601f82011682018060405250810190611b5f9190612c51565b905080611b7f576040516312171d8360e31b815260040160405180910390fd5b6001546040516323b872dd60e01b81526000916001600160a01b0316906323b872dd90611bd49033907f0000000000000000000000000000000000000000000000000000000000000000908a90600401612c9e565b6020604051808303816000875af1158015611bf3573d6000803e3d6000fd5b505050506040513d601f19601f82011682018060405250810190611c179190612c51565b905080611c37576040516312171d8360e31b815260040160405180910390fd5b336001600160a01b03167fe6d1c0e418a42a777d49c66571075fc47bc1d92e7f506007ddde08d1ff182bbc60025488898a8a42436001601154611c7a9190612ae0565b604080519889526020890197909752958701949094526060860192909252608085015260a084015260c083015260e08201526101000160405180910390a25050600160005550505050565b6001600160a01b03811660009081526006602052604081205460ff16611ced57506000919050565b7f00000000000000000000000000000000000000000000000000000000000000006001600160a01b0316826001600160a01b0316148015611d4f57506009547f0000000000000000000000000000000000000000000000000000000000000000115b15611d7b57507f0000000000000000000000000000000000000000000000000000000000000000919050565b506001919050565b6060333014611da5576040516327568d2f60e11b815260040160405180910390fd5b6001600160a01b038416611dcc5760405163416aebb560e11b815260040160405180910390fd5b600080856001600160a01b03168585604051611de89190612cc2565b60006040518083038185875af1925050503d8060008114611e25576040519150601f19603f3d011682016040523d82523d6000602084013e611e2a565b606091505b509150915081611e4d5760405163350c20f160e01b815260040160405180910390fd5b95945050505050565b60006060806000806000806000600d548910611e8557604051631dc0650160e31b815260040160405180910390fd5b6000898152600e602052604090206001810154600582015460068301546007840154600a8501546002860180546001600160a01b03909616959094600388019490939092909160ff90911690838511908790611ee09061298d565b80601f0160208091040260200160405190810160405280929190818152602001828054611f0c9061298d565b8015611f595780601f10611f2e57610100808354040283529160200191611f59565b820191906000526020600020905b815481529060010190602001808311611f3c57829003601f168201915b50505050509650858054611f6c9061298d565b80601f0160208091040260200160405190810160405280929190818152602001828054611f989061298d565b8015611fe55780601f10611fba57610100808354040283529160200191611fe5565b820191906000526020600020905b815481529060010190602001808311611fc857829003601f168201915b505050505095509850985098509850985098509850985050919395975091939597565b3360009081526006602052604090205460ff166120385760405163148fe22160e11b815260040160405180910390fd5b600d54821061205a57604051631dc0650160e31b815260040160405180910390fd5b6000828152600e602052604090206007810154421061208c57604051637a19ed0560e01b815260040160405180910390fd5b336000908152600b8201602052604090205460ff16156120bf57604051637c9a1cf960e01b815260040160405180910390fd5b600881015433600090815260076020526040902054106120f25760405163f078ca7360e01b815260040160405180910390fd5b336000818152600b8301602090815260408083208054600160ff199182168117909255600c870190935292208054909116851515179055906001600160a01b037f00000000000000000000000000000000000000000000000000000000000000001614801561218257506009547f0000000000000000000000000000000000000000000000000000000000000000115b156121aa57507f00000000000000000000000000000000000000000000000000000000000000005b82156121cf57808260050160008282546121c49190612a6e565b909155506121e99050565b808260060160008282546121e39190612a6e565b90915550505b604080518415158152426020820152339186917fcbdf6214089cba887ecbf35a0b6a734589959c9763342c756bb2a80ca2bc9f6e910160405180910390a350505050565b33301461224d576040516327568d2f60e11b815260040160405180910390fd5b6001600160a01b03821661227457604051634e46966960e11b815260040160405180910390fd5b60035460000361229757604051631ab9ebab60e01b815260040160405180910390fd5b600380546000909155600d546001600160a01b038416906122ba90600190612ae0565b7f1ba011ee074f0e08cc727335f32d75fb7ee71dc0a1e13bb9473e5650b0afd1a383856040516122eb929190612c38565b60405180910390a360015460405163a9059cbb60e01b81526001600160a01b03858116600483015260248201849052600092169063a9059cbb90604401611255565b600260005403612350576040516306fda65d60e31b815260040160405180910390fd5b6002600090815561236033610c1c565b905080600003612383576040516373380d9960e01b815260040160405180910390fd5b8060045410156123a65760405163bc6072f160e01b815260040160405180910390fd5b336000908152600b6020526040812080548392906123c5908490612a6e565b9250508190555080600460008282546123de9190612ae0565b909155505060015460405163a9059cbb60e01b8152336004820152602481018390526000916001600160a01b03169063a9059cbb906044016020604051808303816000875af1158015612435573d6000803e3d6000fd5b505050506040513d601f19601f820116820180604052508101906124599190612c51565b905080612479576040516312171d8360e31b815260040160405180910390fd5b6040805183815242602082015233917fc4e740509dbfae3377bc9925dd7bcc8aaba69cd730316216d76b2d24725c6366910160405180910390a250506001600055565b6000602082840312156124ce57600080fd5b5035919050565b60005b838110156124f05781810151838201526020016124d8565b50506000910152565b600081518084526125118160208601602086016124d5565b601f01601f19169290920160200192915050565b8b81526001600160a01b038b166020820152610160604082018190526000906125508382018d6124f9565b90508281036060840152612564818c6124f9565b90508281036080840152612578818b6124f9565b60a0840199909952505060c081019590955260e085019390935261010084019190915261012083015215156101409091015295945050505050565b80356001600160a01b03811681146125ca57600080fd5b919050565b6000602082840312156125e157600080fd5b6125ea826125b3565b9392505050565b634e487b7160e01b600052604160045260246000fd5b600082601f83011261261857600080fd5b813567ffffffffffffffff80821115612633576126336125f1565b604051601f8301601f19908116603f0116810190828211818310171561265b5761265b6125f1565b8160405283815286602085880101111561267457600080fd5b836020870160208301376000602085830101528094505050505092915050565b600080600080608085870312156126aa57600080fd5b843567ffffffffffffffff808211156126c257600080fd5b6126ce88838901612607565b955060208701359150808211156126e457600080fd5b6126f088838901612607565b9450604087013591508082111561270657600080fd5b5061271387828801612607565b949793965093946060013593505050565b6000806040838503121561273757600080fd5b82359150612747602084016125b3565b90509250929050565b6000806040838503121561276357600080fd5b61276c836125b3565b946020939093013593505050565b60008060006060848603121561278f57600080fd5b612798846125b3565b925060208401359150604084013567ffffffffffffffff8111156127bb57600080fd5b6127c786828701612607565b9150509250925092565b600081518084526020808501945080840160005b83811015612801578151875295820195908201906001016127e5565b509495945050505050565b6020815260006125ea60208301846127d1565b801515811461282d57600080fd5b50565b60006020828403121561284257600080fd5b81356125ea8161281f565b6000806040838503121561286057600080fd5b50508035926020909101359150565b60408152600061288260408301856127d1565b905082151560208301529392505050565b6020815260006125ea60208301846124f9565b6001600160a01b0389168152610100602082018190526000906128cb8382018b6124f9565b905082810360408401526128df818a6124f9565b60608401989098525050608081019490945260a0840192909252151560c0830152151560e0909101529392505050565b6000806040838503121561292257600080fd5b8235915060208301356129348161281f565b809150509250929050565b6000806040838503121561295257600080fd5b61295b836125b3565b9150602083013567ffffffffffffffff81111561297757600080fd5b61298385828601612607565b9150509250929050565b600181811c908216806129a157607f821691505b6020821081036129c157634e487b7160e01b600052602260045260246000fd5b50919050565b60008083546129d58161298d565b600182811680156129ed5760018114612a0257612a31565b60ff1984168752821515830287019450612a31565b8760005260208060002060005b85811015612a285781548a820152908401908201612a0f565b50505082870194505b50929695505050505050565b8215158152604060208201526000610d3d60408301846124f9565b634e487b7160e01b600052601160045260246000fd5b80820180821115612a8157612a81612a58565b92915050565b634e487b7160e01b600052603260045260246000fd5b634e487b7160e01b600052601260045260246000fd5b600082612ac257612ac2612a9d565b500490565b600060018201612ad957612ad9612a58565b5060010190565b81810381811115612a8157612a81612a58565b601f821115612b3d57600081815260208120601f850160051c81016020861015612b1a5750805b601f850160051c820191505b81811015612b3957828155600101612b26565b5050505b505050565b815167ffffffffffffffff811115612b5c57612b5c6125f1565b612b7081612b6a845461298d565b84612af3565b602080601f831160018114612ba55760008415612b8d5750858301515b600019600386901b1c1916600185901b178555612b39565b600085815260208120601f198616915b82811015612bd457888601518255948401946001909101908401612bb5565b5085821015612bf25787850151600019600388901b60f8161c191681555b5050505050600190811b01905550565b604081526000612c1560408301856124f9565b90508260208301529392505050565b600082612c3357612c33612a9d565b500690565b828152604060208201526000610d3d60408301846124f9565b600060208284031215612c6357600080fd5b81516125ea8161281f565b8082028115828204841417612a8157612a81612a58565b600060208284031215612c9757600080fd5b5051919050565b6001600160a01b039384168152919092166020820152604081019190915260600190565b60008251612cd48184602087016124d5565b919091019291505056fea2646970667358221220d6a91aa43a5f7649cbc8df3baf2219d3af841acae82f9e2dbdbfd3ef6a58d2db64736f6c63430008130033",
  "linkReferences": {},
  "deployedLinkReferences": {}
}