{
  "_format": "hh-sol-artifact-1",
  "contractName": "TEMPL",
  "sourceName": "contracts/TEMPL.sol",
  "abi": [
    {
      "inputs": [
        {
          "internalType": "address",
          "name": "_priest",
          "type": "address"
        },
        {
          "internalType": "address",
          "name": "_protocolFeeRecipient",
          "type": "address"
        },
        {
          "internalType": "address",
          "name": "_token",
          "type": "address"
        },
        {
          "internalType": "uint256",
          "name": "_entryFee",
          "type": "uint256"
        },
        {
          "internalType": "uint256",
          "name": "_priestVoteWeight",
          "type": "uint256"
        },
        {
          "internalType": "uint256",
          "name": "_priestWeightThreshold",
          "type": "uint256"
        }
      ],
      "stateMutability": "nonpayable",
      "type": "constructor"
    },
    {
      "inputs": [],
      "name": "ActiveProposalExists",
      "type": "error"
    },
    {
      "inputs": [],
      "name": "AlreadyExecuted",
      "type": "error"
    },
    {
      "inputs": [],
      "name": "AlreadyPurchased",
      "type": "error"
    },
    {
      "inputs": [],
      "name": "AlreadyVoted",
      "type": "error"
    },
    {
      "inputs": [],
      "name": "AmountZero",
      "type": "error"
    },
    {
      "inputs": [],
      "name": "CallDataRequired",
      "type": "error"
    },
    {
      "inputs": [],
      "name": "CallDataTooShort",
      "type": "error"
    },
    {
      "inputs": [],
      "name": "ContractPausedError",
      "type": "error"
    },
    {
      "inputs": [],
      "name": "DescriptionRequired",
      "type": "error"
    },
    {
      "inputs": [],
      "name": "EntryFeeTooSmall",
      "type": "error"
    },
    {
      "inputs": [],
      "name": "InsufficientBalance",
      "type": "error"
    },
    {
      "inputs": [],
      "name": "InsufficientPoolBalance",
      "type": "error"
    },
    {
      "inputs": [],
      "name": "InsufficientTreasuryBalance",
      "type": "error"
    },
    {
      "inputs": [],
      "name": "InvalidCallData",
      "type": "error"
    },
    {
      "inputs": [],
      "name": "InvalidEntryFee",
      "type": "error"
    },
    {
      "inputs": [],
      "name": "InvalidProposal",
      "type": "error"
    },
    {
      "inputs": [],
      "name": "InvalidRecipient",
      "type": "error"
    },
    {
      "inputs": [],
      "name": "InvalidSender",
      "type": "error"
    },
    {
      "inputs": [],
      "name": "JoinedAfterProposal",
      "type": "error"
    },
    {
      "inputs": [],
      "name": "LimitOutOfRange",
      "type": "error"
    },
    {
      "inputs": [],
      "name": "NoRewardsToClaim",
      "type": "error"
    },
    {
      "inputs": [],
      "name": "NoTreasuryFunds",
      "type": "error"
    },
    {
      "inputs": [],
      "name": "NonZeroBalances",
      "type": "error"
    },
    {
      "inputs": [],
      "name": "NotDAO",
      "type": "error"
    },
    {
      "inputs": [],
      "name": "NotMember",
      "type": "error"
    },
    {
      "inputs": [],
      "name": "ProposalExecutionFailed",
      "type": "error"
    },
    {
      "inputs": [],
      "name": "ProposalNotPassed",
      "type": "error"
    },
    {
      "inputs": [],
      "name": "ReentrancyGuardReentrantCall",
      "type": "error"
    },
    {
      "inputs": [
        {
          "internalType": "address",
          "name": "token",
          "type": "address"
        }
      ],
      "name": "SafeERC20FailedOperation",
      "type": "error"
    },
    {
      "inputs": [],
      "name": "TitleRequired",
      "type": "error"
    },
    {
      "inputs": [],
      "name": "VotingEnded",
      "type": "error"
    },
    {
      "inputs": [],
      "name": "VotingNotEnded",
      "type": "error"
    },
    {
      "inputs": [],
      "name": "VotingPeriodTooLong",
      "type": "error"
    },
    {
      "inputs": [],
      "name": "VotingPeriodTooShort",
      "type": "error"
    },
    {
      "anonymous": false,
      "inputs": [
        {
          "indexed": true,
          "internalType": "address",
          "name": "purchaser",
          "type": "address"
        },
        {
          "indexed": false,
          "internalType": "uint256",
          "name": "totalAmount",
          "type": "uint256"
        },
        {
          "indexed": false,
          "internalType": "uint256",
          "name": "burnedAmount",
          "type": "uint256"
        },
        {
          "indexed": false,
          "internalType": "uint256",
          "name": "treasuryAmount",
          "type": "uint256"
        },
        {
          "indexed": false,
          "internalType": "uint256",
          "name": "memberPoolAmount",
          "type": "uint256"
        },
        {
          "indexed": false,
          "internalType": "uint256",
          "name": "protocolAmount",
          "type": "uint256"
        },
        {
          "indexed": false,
          "internalType": "uint256",
          "name": "timestamp",
          "type": "uint256"
        },
        {
          "indexed": false,
          "internalType": "uint256",
          "name": "blockNumber",
          "type": "uint256"
        },
        {
          "indexed": false,
          "internalType": "uint256",
          "name": "purchaseId",
          "type": "uint256"
        }
      ],
      "name": "AccessPurchased",
      "type": "event"
    },
    {
      "anonymous": false,
      "inputs": [
        {
          "indexed": true,
          "internalType": "address",
          "name": "token",
          "type": "address"
        },
        {
          "indexed": false,
          "internalType": "uint256",
          "name": "entryFee",
          "type": "uint256"
        }
      ],
      "name": "ConfigUpdated",
      "type": "event"
    },
    {
      "anonymous": false,
      "inputs": [
        {
          "indexed": false,
          "internalType": "bool",
          "name": "isPaused",
          "type": "bool"
        }
      ],
      "name": "ContractPaused",
      "type": "event"
    },
    {
      "anonymous": false,
      "inputs": [
        {
          "indexed": true,
          "internalType": "address",
          "name": "member",
          "type": "address"
        },
        {
          "indexed": false,
          "internalType": "uint256",
          "name": "amount",
          "type": "uint256"
        },
        {
          "indexed": false,
          "internalType": "uint256",
          "name": "timestamp",
          "type": "uint256"
        }
      ],
      "name": "MemberPoolClaimed",
      "type": "event"
    },
    {
      "anonymous": false,
      "inputs": [
        {
          "indexed": true,
          "internalType": "uint256",
          "name": "proposalId",
          "type": "uint256"
        },
        {
          "indexed": true,
          "internalType": "address",
          "name": "proposer",
          "type": "address"
        },
        {
          "indexed": false,
          "internalType": "string",
          "name": "title",
          "type": "string"
        },
        {
          "indexed": false,
          "internalType": "uint256",
          "name": "endTime",
          "type": "uint256"
        }
      ],
      "name": "ProposalCreated",
      "type": "event"
    },
    {
      "anonymous": false,
      "inputs": [
        {
          "indexed": true,
          "internalType": "uint256",
          "name": "proposalId",
          "type": "uint256"
        },
        {
          "indexed": false,
          "internalType": "bool",
          "name": "success",
          "type": "bool"
        },
        {
          "indexed": false,
          "internalType": "bytes",
          "name": "returnData",
          "type": "bytes"
        }
      ],
      "name": "ProposalExecuted",
      "type": "event"
    },
    {
      "anonymous": false,
      "inputs": [
        {
          "indexed": true,
          "internalType": "uint256",
          "name": "proposalId",
          "type": "uint256"
        },
        {
          "indexed": true,
          "internalType": "address",
          "name": "recipient",
          "type": "address"
        },
        {
          "indexed": false,
          "internalType": "uint256",
          "name": "amount",
          "type": "uint256"
        },
        {
          "indexed": false,
          "internalType": "string",
          "name": "description",
          "type": "string"
        }
      ],
      "name": "TreasuryAction",
      "type": "event"
    },
    {
      "anonymous": false,
      "inputs": [
        {
          "indexed": true,
          "internalType": "uint256",
          "name": "proposalId",
          "type": "uint256"
        },
        {
          "indexed": true,
          "internalType": "address",
          "name": "voter",
          "type": "address"
        },
        {
          "indexed": false,
          "internalType": "bool",
          "name": "support",
          "type": "bool"
        },
        {
          "indexed": false,
          "internalType": "uint256",
          "name": "timestamp",
          "type": "uint256"
        }
      ],
      "name": "VoteCast",
      "type": "event"
    },
    {
      "inputs": [],
      "name": "DEFAULT_VOTING_PERIOD",
      "outputs": [
        {
          "internalType": "uint256",
          "name": "",
          "type": "uint256"
        }
      ],
      "stateMutability": "view",
      "type": "function"
    },
    {
      "inputs": [],
      "name": "MAX_VOTING_PERIOD",
      "outputs": [
        {
          "internalType": "uint256",
          "name": "",
          "type": "uint256"
        }
      ],
      "stateMutability": "view",
      "type": "function"
    },
    {
      "inputs": [],
      "name": "MIN_VOTING_PERIOD",
      "outputs": [
        {
          "internalType": "uint256",
          "name": "",
          "type": "uint256"
        }
      ],
      "stateMutability": "view",
      "type": "function"
    },
    {
      "inputs": [],
      "name": "accessToken",
      "outputs": [
        {
          "internalType": "address",
          "name": "",
          "type": "address"
        }
      ],
      "stateMutability": "view",
      "type": "function"
    },
    {
      "inputs": [
        {
          "internalType": "address",
          "name": "",
          "type": "address"
        }
      ],
      "name": "activeProposalId",
      "outputs": [
        {
          "internalType": "uint256",
          "name": "",
          "type": "uint256"
        }
      ],
      "stateMutability": "view",
      "type": "function"
    },
    {
      "inputs": [],
      "name": "claimMemberPool",
      "outputs": [],
      "stateMutability": "nonpayable",
      "type": "function"
    },
    {
      "inputs": [
        {
          "internalType": "string",
          "name": "_title",
          "type": "string"
        },
        {
          "internalType": "string",
          "name": "_description",
          "type": "string"
        },
        {
          "internalType": "bytes",
          "name": "_callData",
          "type": "bytes"
        },
        {
          "internalType": "uint256",
          "name": "_votingPeriod",
          "type": "uint256"
        }
      ],
      "name": "createProposal",
      "outputs": [
        {
          "internalType": "uint256",
          "name": "",
          "type": "uint256"
        }
      ],
      "stateMutability": "nonpayable",
      "type": "function"
    },
    {
      "inputs": [],
      "name": "cumulativeMemberRewards",
      "outputs": [
        {
          "internalType": "uint256",
          "name": "",
          "type": "uint256"
        }
      ],
      "stateMutability": "view",
      "type": "function"
    },
    {
      "inputs": [],
      "name": "entryFee",
      "outputs": [
        {
          "internalType": "uint256",
          "name": "",
          "type": "uint256"
        }
      ],
      "stateMutability": "view",
      "type": "function"
    },
    {
      "inputs": [
        {
          "internalType": "uint256",
          "name": "_proposalId",
          "type": "uint256"
        }
      ],
      "name": "executeProposal",
      "outputs": [],
      "stateMutability": "nonpayable",
      "type": "function"
    },
    {
      "inputs": [],
      "name": "getActiveProposals",
      "outputs": [
        {
          "internalType": "uint256[]",
          "name": "",
          "type": "uint256[]"
        }
      ],
      "stateMutability": "view",
      "type": "function"
    },
    {
      "inputs": [
        {
          "internalType": "uint256",
          "name": "offset",
          "type": "uint256"
        },
        {
          "internalType": "uint256",
          "name": "limit",
          "type": "uint256"
        }
      ],
      "name": "getActiveProposalsPaginated",
      "outputs": [
        {
          "internalType": "uint256[]",
          "name": "proposalIds",
          "type": "uint256[]"
        },
        {
          "internalType": "bool",
          "name": "hasMore",
          "type": "bool"
        }
      ],
      "stateMutability": "view",
      "type": "function"
    },
    {
      "inputs": [
        {
          "internalType": "address",
          "name": "member",
          "type": "address"
        }
      ],
      "name": "getClaimablePoolAmount",
      "outputs": [
        {
          "internalType": "uint256",
          "name": "",
          "type": "uint256"
        }
      ],
      "stateMutability": "view",
      "type": "function"
    },
    {
      "inputs": [],
      "name": "getConfig",
      "outputs": [
        {
          "internalType": "address",
          "name": "token",
          "type": "address"
        },
        {
          "internalType": "uint256",
          "name": "fee",
          "type": "uint256"
        },
        {
          "internalType": "bool",
          "name": "isPaused",
          "type": "bool"
        },
        {
          "internalType": "uint256",
          "name": "purchases",
          "type": "uint256"
        },
        {
          "internalType": "uint256",
          "name": "treasury",
          "type": "uint256"
        },
        {
          "internalType": "uint256",
          "name": "pool",
          "type": "uint256"
        }
      ],
      "stateMutability": "view",
      "type": "function"
    },
    {
      "inputs": [],
      "name": "getMemberCount",
      "outputs": [
        {
          "internalType": "uint256",
          "name": "",
          "type": "uint256"
        }
      ],
      "stateMutability": "view",
      "type": "function"
    },
    {
      "inputs": [
        {
          "internalType": "uint256",
          "name": "_proposalId",
          "type": "uint256"
        }
      ],
      "name": "getProposal",
      "outputs": [
        {
          "internalType": "address",
          "name": "proposer",
          "type": "address"
        },
        {
          "internalType": "string",
          "name": "title",
          "type": "string"
        },
        {
          "internalType": "string",
          "name": "description",
          "type": "string"
        },
        {
          "internalType": "uint256",
          "name": "yesVotes",
          "type": "uint256"
        },
        {
          "internalType": "uint256",
          "name": "noVotes",
          "type": "uint256"
        },
        {
          "internalType": "uint256",
          "name": "endTime",
          "type": "uint256"
        },
        {
          "internalType": "bool",
          "name": "executed",
          "type": "bool"
        },
        {
          "internalType": "bool",
          "name": "passed",
          "type": "bool"
        }
      ],
      "stateMutability": "view",
      "type": "function"
    },
    {
      "inputs": [
        {
          "internalType": "address",
          "name": "user",
          "type": "address"
        }
      ],
      "name": "getPurchaseDetails",
      "outputs": [
        {
          "internalType": "bool",
          "name": "purchased",
          "type": "bool"
        },
        {
          "internalType": "uint256",
          "name": "timestamp",
          "type": "uint256"
        },
        {
          "internalType": "uint256",
          "name": "blockNum",
          "type": "uint256"
        }
      ],
      "stateMutability": "view",
      "type": "function"
    },
    {
      "inputs": [],
      "name": "getTreasuryInfo",
      "outputs": [
        {
          "internalType": "uint256",
          "name": "treasury",
          "type": "uint256"
        },
        {
          "internalType": "uint256",
          "name": "memberPool",
          "type": "uint256"
        },
        {
          "internalType": "uint256",
          "name": "totalReceived",
          "type": "uint256"
        },
        {
          "internalType": "uint256",
          "name": "totalBurnedAmount",
          "type": "uint256"
        },
        {
          "internalType": "uint256",
          "name": "totalProtocolFees",
          "type": "uint256"
        },
        {
          "internalType": "address",
          "name": "protocolAddress",
          "type": "address"
        }
      ],
      "stateMutability": "view",
      "type": "function"
    },
    {
      "inputs": [
        {
          "internalType": "address",
          "name": "voter",
          "type": "address"
        }
      ],
      "name": "getVoteWeight",
      "outputs": [
        {
          "internalType": "uint256",
          "name": "",
          "type": "uint256"
        }
      ],
      "stateMutability": "view",
      "type": "function"
    },
    {
      "inputs": [
        {
          "internalType": "address",
          "name": "user",
          "type": "address"
        }
      ],
      "name": "hasAccess",
      "outputs": [
        {
          "internalType": "bool",
          "name": "",
          "type": "bool"
        }
      ],
      "stateMutability": "view",
      "type": "function"
    },
    {
      "inputs": [
        {
          "internalType": "address",
          "name": "",
          "type": "address"
        }
      ],
      "name": "hasActiveProposal",
      "outputs": [
        {
          "internalType": "bool",
          "name": "",
          "type": "bool"
        }
      ],
      "stateMutability": "view",
      "type": "function"
    },
    {
      "inputs": [
        {
          "internalType": "uint256",
          "name": "_proposalId",
          "type": "uint256"
        },
        {
          "internalType": "address",
          "name": "_voter",
          "type": "address"
        }
      ],
      "name": "hasVoted",
      "outputs": [
        {
          "internalType": "bool",
          "name": "voted",
          "type": "bool"
        },
        {
          "internalType": "bool",
          "name": "support",
          "type": "bool"
        }
      ],
      "stateMutability": "view",
      "type": "function"
    },
    {
      "inputs": [
        {
          "internalType": "address",
          "name": "",
          "type": "address"
        }
      ],
      "name": "memberIndex",
      "outputs": [
        {
          "internalType": "uint256",
          "name": "",
          "type": "uint256"
        }
      ],
      "stateMutability": "view",
      "type": "function"
    },
    {
      "inputs": [
        {
          "internalType": "uint256",
          "name": "",
          "type": "uint256"
        }
      ],
      "name": "memberList",
      "outputs": [
        {
          "internalType": "address",
          "name": "",
          "type": "address"
        }
      ],
      "stateMutability": "view",
      "type": "function"
    },
    {
      "inputs": [],
      "name": "memberPoolBalance",
      "outputs": [
        {
          "internalType": "uint256",
          "name": "",
          "type": "uint256"
        }
      ],
      "stateMutability": "view",
      "type": "function"
    },
    {
      "inputs": [
        {
          "internalType": "address",
          "name": "",
          "type": "address"
        }
      ],
      "name": "memberPoolClaims",
      "outputs": [
        {
          "internalType": "uint256",
          "name": "",
          "type": "uint256"
        }
      ],
      "stateMutability": "view",
      "type": "function"
    },
    {
      "inputs": [],
      "name": "memberRewardRemainder",
      "outputs": [
        {
          "internalType": "uint256",
          "name": "",
          "type": "uint256"
        }
      ],
      "stateMutability": "view",
      "type": "function"
    },
    {
      "inputs": [
        {
          "internalType": "address",
          "name": "",
          "type": "address"
        }
      ],
      "name": "members",
      "outputs": [
        {
          "internalType": "bool",
          "name": "purchased",
          "type": "bool"
        },
        {
          "internalType": "uint256",
          "name": "timestamp",
          "type": "uint256"
        },
        {
          "internalType": "uint256",
          "name": "block",
          "type": "uint256"
        },
        {
          "internalType": "uint256",
          "name": "rewardSnapshot",
          "type": "uint256"
        }
      ],
      "stateMutability": "view",
      "type": "function"
    },
    {
      "inputs": [],
      "name": "paused",
      "outputs": [
        {
          "internalType": "bool",
          "name": "",
          "type": "bool"
        }
      ],
      "stateMutability": "view",
      "type": "function"
    },
    {
      "inputs": [],
      "name": "priest",
      "outputs": [
        {
          "internalType": "address",
          "name": "",
          "type": "address"
        }
      ],
      "stateMutability": "view",
      "type": "function"
    },
    {
      "inputs": [],
      "name": "priestVoteWeight",
      "outputs": [
        {
          "internalType": "uint256",
          "name": "",
          "type": "uint256"
        }
      ],
      "stateMutability": "view",
      "type": "function"
    },
    {
      "inputs": [],
      "name": "priestWeightThreshold",
      "outputs": [
        {
          "internalType": "uint256",
          "name": "",
          "type": "uint256"
        }
      ],
      "stateMutability": "view",
      "type": "function"
    },
    {
      "inputs": [],
      "name": "proposalCount",
      "outputs": [
        {
          "internalType": "uint256",
          "name": "",
          "type": "uint256"
        }
      ],
      "stateMutability": "view",
      "type": "function"
    },
    {
      "inputs": [
        {
          "internalType": "uint256",
          "name": "",
          "type": "uint256"
        }
      ],
      "name": "proposals",
      "outputs": [
        {
          "internalType": "uint256",
          "name": "id",
          "type": "uint256"
        },
        {
          "internalType": "address",
          "name": "proposer",
          "type": "address"
        },
        {
          "internalType": "string",
          "name": "title",
          "type": "string"
        },
        {
          "internalType": "string",
          "name": "description",
          "type": "string"
        },
        {
          "internalType": "bytes",
          "name": "callData",
          "type": "bytes"
        },
        {
          "internalType": "uint256",
          "name": "yesVotes",
          "type": "uint256"
        },
        {
          "internalType": "uint256",
          "name": "noVotes",
          "type": "uint256"
        },
        {
          "internalType": "uint256",
          "name": "endTime",
          "type": "uint256"
        },
        {
          "internalType": "uint256",
          "name": "createdAt",
          "type": "uint256"
        },
        {
          "internalType": "uint256",
          "name": "eligibleVoters",
          "type": "uint256"
        },
        {
          "internalType": "bool",
          "name": "executed",
          "type": "bool"
        }
      ],
      "stateMutability": "view",
      "type": "function"
    },
    {
      "inputs": [],
      "name": "protocolFeeRecipient",
      "outputs": [
        {
          "internalType": "address",
          "name": "",
          "type": "address"
        }
      ],
      "stateMutability": "view",
      "type": "function"
    },
    {
      "inputs": [],
      "name": "purchaseAccess",
      "outputs": [],
      "stateMutability": "nonpayable",
      "type": "function"
    },
    {
      "inputs": [
        {
          "internalType": "bool",
          "name": "_paused",
          "type": "bool"
        }
      ],
      "name": "setPausedDAO",
      "outputs": [],
      "stateMutability": "nonpayable",
      "type": "function"
    },
    {
      "inputs": [
        {
          "internalType": "address",
          "name": "recipient",
          "type": "address"
        }
      ],
      "name": "sweepMemberRewardRemainderDAO",
      "outputs": [],
      "stateMutability": "nonpayable",
      "type": "function"
    },
    {
      "inputs": [],
      "name": "totalBurned",
      "outputs": [
        {
          "internalType": "uint256",
          "name": "",
          "type": "uint256"
        }
      ],
      "stateMutability": "view",
      "type": "function"
    },
    {
      "inputs": [],
      "name": "totalPurchases",
      "outputs": [
        {
          "internalType": "uint256",
          "name": "",
          "type": "uint256"
        }
      ],
      "stateMutability": "view",
      "type": "function"
    },
    {
      "inputs": [],
      "name": "totalToMemberPool",
      "outputs": [
        {
          "internalType": "uint256",
          "name": "",
          "type": "uint256"
        }
      ],
      "stateMutability": "view",
      "type": "function"
    },
    {
      "inputs": [],
      "name": "totalToProtocol",
      "outputs": [
        {
          "internalType": "uint256",
          "name": "",
          "type": "uint256"
        }
      ],
      "stateMutability": "view",
      "type": "function"
    },
    {
      "inputs": [],
      "name": "totalToTreasury",
      "outputs": [
        {
          "internalType": "uint256",
          "name": "",
          "type": "uint256"
        }
      ],
      "stateMutability": "view",
      "type": "function"
    },
    {
      "inputs": [],
      "name": "treasuryBalance",
      "outputs": [
        {
          "internalType": "uint256",
          "name": "",
          "type": "uint256"
        }
      ],
      "stateMutability": "view",
      "type": "function"
    },
    {
      "inputs": [
        {
          "internalType": "address",
          "name": "_token",
          "type": "address"
        },
        {
          "internalType": "uint256",
          "name": "_entryFee",
          "type": "uint256"
        }
      ],
      "name": "updateConfigDAO",
      "outputs": [],
      "stateMutability": "nonpayable",
      "type": "function"
    },
    {
      "inputs": [
        {
          "internalType": "uint256",
          "name": "_proposalId",
          "type": "uint256"
        },
        {
          "internalType": "bool",
          "name": "_support",
          "type": "bool"
        }
      ],
      "name": "vote",
      "outputs": [],
      "stateMutability": "nonpayable",
      "type": "function"
    },
    {
      "inputs": [
        {
          "internalType": "address",
          "name": "recipient",
          "type": "address"
        },
        {
          "internalType": "string",
          "name": "reason",
          "type": "string"
        }
      ],
      "name": "withdrawAllTreasuryDAO",
      "outputs": [],
      "stateMutability": "nonpayable",
      "type": "function"
    },
    {
      "inputs": [
        {
          "internalType": "address",
          "name": "recipient",
          "type": "address"
        },
        {
          "internalType": "uint256",
          "name": "amount",
          "type": "uint256"
        },
        {
          "internalType": "string",
          "name": "reason",
          "type": "string"
        }
      ],
      "name": "withdrawETHDAO",
      "outputs": [],
      "stateMutability": "nonpayable",
      "type": "function"
    },
    {
      "inputs": [
        {
          "internalType": "address",
          "name": "token",
          "type": "address"
        },
        {
          "internalType": "address",
          "name": "recipient",
          "type": "address"
        },
        {
          "internalType": "uint256",
          "name": "amount",
          "type": "uint256"
        },
        {
          "internalType": "string",
          "name": "reason",
          "type": "string"
        }
      ],
      "name": "withdrawTokenDAO",
      "outputs": [],
      "stateMutability": "nonpayable",
      "type": "function"
    },
    {
      "inputs": [
        {
          "internalType": "address",
          "name": "recipient",
          "type": "address"
        },
        {
          "internalType": "uint256",
          "name": "amount",
          "type": "uint256"
        },
        {
          "internalType": "string",
          "name": "reason",
          "type": "string"
        }
      ],
      "name": "withdrawTreasuryDAO",
      "outputs": [],
      "stateMutability": "nonpayable",
      "type": "function"
    },
    {
      "stateMutability": "payable",
      "type": "receive"
    }
  ],
  "bytecode": "0x6101006040526000196010553480156200001857600080fd5b50604051620034ca380380620034ca8339810160408190526200003b916200017d565b60016000556001600160a01b03861615806200005e57506001600160a01b038516155b806200007157506001600160a01b038416155b156200009057604051634e46966960e11b815260040160405180910390fd5b8215806200009c575081155b80620000a6575080155b15620000c5576040516365e52d5160e11b815260040160405180910390fd5b600a831015620000e857604051635eee050360e11b815260040160405180910390fd5b620000f5600a84620001e3565b156200011457604051636fe6a4c960e01b815260040160405180910390fd5b6001600160a01b0395861660805293851660a052600180546001600160a01b031916939095169290921790935560029290925560c09190915260e0526005805460ff1916905562000206565b80516001600160a01b03811681146200017857600080fd5b919050565b60008060008060008060c087890312156200019757600080fd5b620001a28762000160565b9550620001b26020880162000160565b9450620001c26040880162000160565b9350606087015192506080870151915060a087015190509295509295509295565b6000826200020157634e487b7160e01b600052601260045260246000fd5b500690565b60805160a05160c05160e05161325262000278600039600081816104aa01528181611f6e015261248001526000818161091d01528181611f9701526124a9015260008181610630015281816108b60152611dbe01526000818161086001528181611f2f015261245301526132526000f3fe6080604052600436106102cd5760003560e01c806395a078e811610175578063bebc8fc0116100dc578063c9d27afe11610095578063da35c6641161006f578063da35c66414610a29578063e243c5fb14610a3f578063f7158b2a14610a5f578063ffafe4ad14610a7457600080fd5b8063c9d27afe146109d3578063d3493ced146109f3578063d89135cd14610a1357600080fd5b8063bebc8fc01461084e578063c1b57edb14610882578063c293947114610898578063c34b55801461090b578063c3f909d41461093f578063c7f758a81461099f57600080fd5b8063a730117e1161012e578063a730117e146107ab578063a81bbe3c146107cb578063aedfe53f146103e7578063b307fc6d146107f8578063bc2a268414610818578063bdb75b341461083857600080fd5b806395a078e8146106fb578063997072f71461073457806399e288d8146107495780639b14c83c1461075e578063a51a46b91461077e578063a64e024a1461079457600080fd5b8063524ddc23116102345780635fa7ddf0116101ed578063653724d6116101c7578063653724d61461066a5780636898b19c1461068a5780636ad18550146106a05780638f78bbc4146106cd57600080fd5b80635fa7ddf0146105a457806364653f29146105ba57806364df049e1461061e57600080fd5b8063524ddc23146104ec578063544038011461050c5780635584c4f91461052c5780635962a9411461054e57806359c266ff146105645780635c975abb1461057a57600080fd5b8063313dab2011610286578063313dab20146103fe57806332d084bb146104145780633dd352791461043457806343859632146104615780634c78afc8146104985780634c8260aa146104cc57600080fd5b8063013cf08b146102d9578063072ea61c1461031957806308ae4b0c1461033d5780630d61b519146103a55780631808022a146103c7578063215809ca146103e757600080fd5b366102d457005b600080fd5b3480156102e557600080fd5b506102f96102f4366004612a2d565b610aa4565b6040516103109b9a99989796959493929190612a96565b60405180910390f35b34801561032557600080fd5b5061032f60025481565b604051908152602001610310565b34801561034957600080fd5b50610383610358366004612b40565b600660205260009081526040902080546001820154600283015460039093015460ff90921692909184565b6040805194151585526020850193909352918301526060820152608001610310565b3480156103b157600080fd5b506103c56103c0366004612a2d565b610c9f565b005b3480156103d357600080fd5b5061032f6103e2366004612b40565b610ec6565b3480156103f357600080fd5b5061032f62093a8081565b34801561040a57600080fd5b5061032f60035481565b34801561042057600080fd5b5061032f61042f366004612c0e565b610f2d565b34801561044057600080fd5b5061032f61044f366004612b40565b60086020526000908152604090205481565b34801561046d57600080fd5b5061048161047c366004612cb2565b6112c1565b604080519215158352901515602083015201610310565b3480156104a457600080fd5b5061032f7f000000000000000000000000000000000000000000000000000000000000000081565b3480156104d857600080fd5b506103c56104e7366004612cde565b61132a565b3480156104f857600080fd5b506103c5610507366004612d35565b611485565b34801561051857600080fd5b506103c5610527366004612cde565b6115b6565b34801561053857600080fd5b506105416116ce565b6040516103109190612d9b565b34801561055a57600080fd5b5061032f60115481565b34801561057057600080fd5b5061032f60155481565b34801561058657600080fd5b506005546105949060ff1681565b6040519015158152602001610310565b3480156105b057600080fd5b5061032f60045481565b3480156105c657600080fd5b506106016105d5366004612b40565b6001600160a01b031660009081526006602052604090208054600182015460029092015460ff90911692565b604080519315158452602084019290925290820152606001610310565b34801561062a57600080fd5b506106527f000000000000000000000000000000000000000000000000000000000000000081565b6040516001600160a01b039091168152602001610310565b34801561067657600080fd5b506103c5610685366004612dbe565b6117f4565b34801561069657600080fd5b5061032f600a5481565b3480156106ac57600080fd5b5061032f6106bb366004612b40565b600e6020526000908152604090205481565b3480156106d957600080fd5b506106ed6106e8366004612dd9565b61185b565b604051610310929190612dfb565b34801561070757600080fd5b50610594610716366004612b40565b6001600160a01b031660009081526006602052604090205460ff1690565b34801561074057600080fd5b5060075461032f565b34801561075557600080fd5b506103c5611a8c565b34801561076a57600080fd5b506103c5610779366004612b40565b611e74565b34801561078a57600080fd5b5061032f600b5481565b3480156107a057600080fd5b5061032f62278d0081565b3480156107b757600080fd5b5061032f6107c6366004612b40565b611f05565b3480156107d757600080fd5b5061032f6107e6366004612b40565b60096020526000908152604090205481565b34801561080457600080fd5b50610652610813366004612a2d565b611fc3565b34801561082457600080fd5b506103c5610833366004612e1f565b611fed565b34801561084457600080fd5b5061032f60145481565b34801561085a57600080fd5b506106527f000000000000000000000000000000000000000000000000000000000000000081565b34801561088e57600080fd5b5061032f60135481565b3480156108a457600080fd5b506003546004546013546012546015547f000000000000000000000000000000000000000000000000000000000000000060408051968752602087019590955293850192909252606084015260808301526001600160a01b031660a082015260c001610310565b34801561091757600080fd5b5061032f7f000000000000000000000000000000000000000000000000000000000000000081565b34801561094b57600080fd5b50600154600254600554601154600354600454604080516001600160a01b039097168752602087019590955260ff9093161515938501939093526060840152608083019190915260a082015260c001610310565b3480156109ab57600080fd5b506109bf6109ba366004612a2d565b61215d565b604051610310989796959493929190612e87565b3480156109df57600080fd5b506103c56109ee366004612ef0565b612324565b3480156109ff57600080fd5b506103c5610a0e366004612f13565b61254c565b348015610a1f57600080fd5b5061032f60125481565b348015610a3557600080fd5b5061032f600c5481565b348015610a4b57600080fd5b50600154610652906001600160a01b031681565b348015610a6b57600080fd5b506103c5612630565b348015610a8057600080fd5b50610594610a8f366004612b40565b600f6020526000908152604090205460ff1681565b600d6020526000908152604090208054600182015460028301805492936001600160a01b0390921692610ad690612f61565b80601f0160208091040260200160405190810160405280929190818152602001828054610b0290612f61565b8015610b4f5780601f10610b2457610100808354040283529160200191610b4f565b820191906000526020600020905b815481529060010190602001808311610b3257829003601f168201915b505050505090806003018054610b6490612f61565b80601f0160208091040260200160405190810160405280929190818152602001828054610b9090612f61565b8015610bdd5780601f10610bb257610100808354040283529160200191610bdd565b820191906000526020600020905b815481529060010190602001808311610bc057829003601f168201915b505050505090806004018054610bf290612f61565b80601f0160208091040260200160405190810160405280929190818152602001828054610c1e90612f61565b8015610c6b5780601f10610c4057610100808354040283529160200191610c6b565b820191906000526020600020905b815481529060010190602001808311610c4e57829003601f168201915b50505060058401546006850154600786015460088701546009880154600a9098015496979396929550909350919060ff168b565b610ca7612779565b600c548110610cc957604051631dc0650160e31b815260040160405180910390fd5b6000818152600d602052604090206007810154421015610cfc57604051633fc30bd160e11b815260040160405180910390fd5b600a81015460ff1615610d2257604051630dc1019760e01b815260040160405180910390fd5b8060060154816005015411610d4a5760405163c8c93ba360e01b815260040160405180910390fd5b600a8101805460ff191660019081179091558101546001600160a01b03166000818152600f602052604090205460ff168015610d9d57506001600160a01b0381166000908152600e602052604090205483145b15610dce576001600160a01b0381166000908152600f60209081526040808320805460ff19169055600e9091528120555b610dd783601055565b6000610e6e836004018054610deb90612f61565b80601f0160208091040260200160405190810160405280929190818152602001828054610e1790612f61565b8015610e645780601f10610e3957610100808354040283529160200191610e64565b820191906000526020600020905b815481529060010190602001808311610e4757829003601f168201915b50505050506127a3565b9050610e7b600019601055565b837faf8f9d0e884d3306a083e846741a0bc4d75908e2b0ec63b558219652ae4c1b90600183604051610eae929190612f9b565b60405180910390a2505050610ec36001600055565b50565b6001600160a01b03811660009081526006602052604081205460ff16610eee57506000919050565b600a546001600160a01b038316600090815260066020526040902060030154808211610f1b576000610f25565b610f258183612fcc565b949350505050565b3360009081526006602052604081205460ff16610f5d5760405163148fe22160e11b815260040160405180910390fd5b8451600003610f7f576040516319d546f160e31b815260040160405180910390fd5b8351600003610fa157604051633e61080d60e01b815260040160405180910390fd5b8251600003610fc35760405163066e738d60e01b815260040160405180910390fd5b600483511015610fe657604051632d2b93ff60e01b815260040160405180910390fd5b602083015160006001600160e01b0319821663329b926b60e11b148061101c57506001600160e01b0319821663524ddc2360e01b145b8061103757506001600160e01b03198216635440380160e01b145b8061105257506001600160e01b0319821663d3493ced60e01b145b8061106d57506001600160e01b03198216632f0a89a160e21b145b8061108857506001600160e01b03198216632641305560e11b145b806110a357506001600160e01b031982166326c5320f60e21b145b9050806110c357604051631c49f4d160e01b815260040160405180910390fd5b336000908152600f602052604090205460ff161561115457336000908152600e6020908152604080832054808452600d909252909120600a81015460ff161580156111115750806007015442105b1561112f5760405163792c310960e11b815260040160405180910390fd5b336000908152600f60209081526040808320805460ff19169055600e90915281205550505b836000819003611164575062093a805b62093a80811015611188576040516331806aeb60e21b815260040160405180910390fd5b62278d008111156111ac5760405163eeeb962360e01b815260040160405180910390fd5b600c8054600091826111bd83612fe5565b909155506000818152600d602052604090208181556001810180546001600160a01b03191633179055909150600281016111f78b8261304e565b50600381016112068a8261304e565b5060048101611215898261304e565b50611220834261310e565b6007808301918255426008840155546009830155600a8201805460ff199081169091556000600584018190556006840181905533808252600f602090815260408084208054909516600117909455600e9052908290208590559154905184917f98120a6aaa04295520ab4e01c6c1235dd316e822cc9ff31db7b3f197366d18bd916112ac918f91613121565b60405180910390a35098975050505050505050565b600080600c5484106112e657604051631dc0650160e31b815260040160405180910390fd5b50506000828152600d602090815260408083206001600160a01b0385168452600b8101835281842054600c9091019092529091205460ff91821691165b9250929050565b33301461134a576040516327568d2f60e11b815260040160405180910390fd5b6001600160a01b03831661137157604051634e46966960e11b815260040160405180910390fd5b81600003611392576040516365e52d5160e11b815260040160405180910390fd5b814710156113b357604051631e9acf1760e31b815260040160405180910390fd5b601054600c5481106113d857604051631dc0650160e31b815260040160405180910390fd5b836001600160a01b0316816000805160206131fd8339815191528585604051611402929190613143565b60405180910390a36000846001600160a01b03168460405160006040518083038185875af1925050503d8060008114611457576040519150601f19603f3d011682016040523d82523d6000602084013e61145c565b606091505b505090508061147e576040516331d436c760e01b815260040160405180910390fd5b5050505050565b3330146114a5576040516327568d2f60e11b815260040160405180910390fd5b6001600160a01b03821615611516576001546001600160a01b0383811691161461151657600060035411806114dc57506000600454115b156114fa5760405163d38466ab60e01b815260040160405180910390fd5b600180546001600160a01b0319166001600160a01b0384161790555b801561156d57600a81101561153e57604051635eee050360e11b815260040160405180910390fd5b611549600a82613172565b1561156757604051636fe6a4c960e01b815260040160405180910390fd5b60028190555b6001546002546040519081526001600160a01b03909116907faf8839d80c9b3bbf95c97465eb8c8348db4098f5c15af186c3b425b1129981179060200160405180910390a25050565b3330146115d6576040516327568d2f60e11b815260040160405180910390fd5b6001600160a01b0383166115fd57604051634e46966960e11b815260040160405180910390fd5b8160000361161e576040516365e52d5160e11b815260040160405180910390fd5b60035482111561164157604051631c7b597b60e11b815260040160405180910390fd5b601054600c54811061166657604051631dc0650160e31b815260040160405180910390fd5b82600360008282546116789190612fcc565b92505081905550836001600160a01b0316816000805160206131fd83398151915285856040516116a9929190613143565b60405180910390a36001546116c8906001600160a01b0316858561291b565b50505050565b60606000805b600c5481101561172b576000818152600d60205260409020600701544210801561171057506000818152600d60205260409020600a015460ff16155b15611723578161171f81612fe5565b9250505b6001016116d4565b5060008167ffffffffffffffff81111561174757611747612b62565b604051908082528060200260200182016040528015611770578160200160208202803683370190505b5090506000805b600c548110156117eb576000818152600d6020526040902060070154421080156117b357506000818152600d60205260409020600a015460ff16155b156117e3578083836117c481612fe5565b9450815181106117d6576117d6613186565b6020026020010181815250505b600101611777565b50909392505050565b333014611814576040516327568d2f60e11b815260040160405180910390fd5b6005805460ff19168215159081179091556040519081527f752d7e161ff5146f80e3820893176eb40532811e5e20400dfdde57455213706a9060200160405180910390a150565b6060600082158061186c5750606483115b1561188a576040516381f396b760e01b815260040160405180910390fd5b600c5484106118ab5750506040805160008082526020820190925290611323565b60008367ffffffffffffffff8111156118c6576118c6612b62565b6040519080825280602002602001820160405280156118ef578160200160208202803683370190505b509050600085805b600c548110801561190757508683105b1561198d576000818152600d60205260409020600701544210801561193e57506000818152600d60205260409020600a015460ff16155b1561196e5780848461194f81612fe5565b95508151811061196157611961613186565b6020026020010181815250505b61197981600161310e565b91508061198581612fe5565b9150506118f7565b5060009350600c548110156119f257805b600c548110156119f0576000818152600d6020526040902060070154421080156119da57506000818152600d60205260409020600a015460ff16155b156119e857600194506119f0565b60010161199e565b505b8167ffffffffffffffff811115611a0b57611a0b612b62565b604051908082528060200260200182016040528015611a34578160200160208202803683370190505b50945060005b82811015611a8157838181518110611a5457611a54613186565b6020026020010151868281518110611a6e57611a6e613186565b6020908102919091010152600101611a3a565b505050509250929050565b60055460ff1615611ab057604051630eceade960e31b815260040160405180910390fd5b303303611ad057604051636edaef2f60e11b815260040160405180910390fd5b611ad8612779565b336000908152600660205260409020805460ff1615611b0a57604051630cd9ed5560e21b815260040160405180910390fd5b60006064600254601e611b1d919061319c565b611b2791906131b3565b905060006064600254600a611b3c919061319c565b611b4691906131b3565b6002546001546040516370a0823160e01b815233600482015292935090916001600160a01b03909116906370a0823190602401602060405180830381865afa158015611b96573d6000803e3d6000fd5b505050506040513d601f19601f82011682018060405250810190611bba91906131c7565b1015611bd957604051631e9acf1760e31b815260040160405180910390fd5b825460ff19166001908117845542848201554360028501556007805433600081815260086020526040812083905593820183559183527fa66cc928b5edb82af9bd49922954155ab7b0942694bea4ce44661d9a8736c6880180546001600160a01b03191690911790556011805491611c5083612fe5565b909155505060075460011015611ccb576000600b5483611c70919061310e565b600754909150600090611c8590600190612fcc565b611c8f90836131b3565b600754909150611ca190600190612fcc565b611cab9083613172565b600b8190555080600a6000828254611cc3919061310e565b909155505050505b600a5483600301819055508160036000828254611ce8919061310e565b925050819055508160046000828254611d01919061310e565b925050819055508160126000828254611d1a919061310e565b925050819055508160136000828254611d33919061310e565b925050819055508160146000828254611d4c919061310e565b925050819055508060156000828254611d65919061310e565b90915550506001546001600160a01b0316611d84813361dead8661297f565b611d996001600160a01b03821633308661297f565b611dae6001600160a01b03821633308661297f565b611de36001600160a01b038216337f00000000000000000000000000000000000000000000000000000000000000008561297f565b336001600160a01b03167fe6d1c0e418a42a777d49c66571075fc47bc1d92e7f506007ddde08d1ff182bbc6002548586878742436001601154611e269190612fcc565b604080519889526020890197909752958701949094526060860192909252608085015260a084015260c083015260e08201526101000160405180910390a250505050611e726001600055565b565b333014611e94576040516327568d2f60e11b815260040160405180910390fd5b6001600160a01b038116611ebb57604051634e46966960e11b815260040160405180910390fd5b6004546000819003611ee0576040516365e52d5160e11b815260040160405180910390fd5b60006004819055600b55600154611f01906001600160a01b0316838361291b565b5050565b6001600160a01b03811660009081526006602052604081205460ff16611f2d57506000919050565b7f00000000000000000000000000000000000000000000000000000000000000006001600160a01b0316826001600160a01b0316148015611f8f57506007547f0000000000000000000000000000000000000000000000000000000000000000115b15611fbb57507f0000000000000000000000000000000000000000000000000000000000000000919050565b506001919050565b60078181548110611fd357600080fd5b6000918252602090912001546001600160a01b0316905081565b33301461200d576040516327568d2f60e11b815260040160405180910390fd5b6001600160a01b038416158061202a57506001600160a01b038316155b1561204857604051634e46966960e11b815260040160405180910390fd5b81600003612069576040516365e52d5160e11b815260040160405180910390fd5b6040516370a0823160e01b815230600482015282906001600160a01b038616906370a0823190602401602060405180830381865afa1580156120af573d6000803e3d6000fd5b505050506040513d601f19601f820116820180604052508101906120d391906131c7565b10156120f257604051631e9acf1760e31b815260040160405180910390fd5b601054600c54811061211757604051631dc0650160e31b815260040160405180910390fd5b836001600160a01b0316816000805160206131fd8339815191528585604051612141929190613143565b60405180910390a361147e6001600160a01b038616858561291b565b60006060806000806000806000600c54891061218c57604051631dc0650160e31b815260040160405180910390fd5b6000898152600d60205260409020600781015442108015906121b5575080600601548160050154115b6001820154600583015460068401546007850154600a8601546002870180549698506001600160a01b0390951695600388019493929160ff1690899087906121fc90612f61565b80601f016020809104026020016040519081016040528092919081815260200182805461222890612f61565b80156122755780601f1061224a57610100808354040283529160200191612275565b820191906000526020600020905b81548152906001019060200180831161225857829003601f168201915b5050505050965085805461228890612f61565b80601f01602080910402602001604051908101604052809291908181526020018280546122b490612f61565b80156123015780601f106122d657610100808354040283529160200191612301565b820191906000526020600020905b8154815290600101906020018083116122e457829003601f168201915b505050505095509850985098509850985098509850985050919395975091939597565b3360009081526006602052604090205460ff166123545760405163148fe22160e11b815260040160405180910390fd5b600c54821061237657604051631dc0650160e31b815260040160405180910390fd5b6000828152600d60205260409020600781015442106123a857604051637a19ed0560e01b815260040160405180910390fd5b336000908152600b8201602052604090205460ff16156123db57604051637c9a1cf960e01b815260040160405180910390fd5b600881015433600090815260066020526040902060010154106124115760405163f078ca7360e01b815260040160405180910390fd5b336000818152600b8301602090815260408083208054600160ff199182168117909255600c870190935292208054909116851515179055906001600160a01b037f0000000000000000000000000000000000000000000000000000000000000000161480156124a157506007547f0000000000000000000000000000000000000000000000000000000000000000115b156124c957507f00000000000000000000000000000000000000000000000000000000000000005b82156124ee57808260050160008282546124e3919061310e565b909155506125089050565b80826006016000828254612502919061310e565b90915550505b604080518415158152426020820152339186917fcbdf6214089cba887ecbf35a0b6a734589959c9763342c756bb2a80ca2bc9f6e910160405180910390a350505050565b33301461256c576040516327568d2f60e11b815260040160405180910390fd5b6001600160a01b03821661259357604051634e46966960e11b815260040160405180910390fd5b6003546000036125b657604051631ab9ebab60e01b815260040160405180910390fd5b601054600c5481106125db57604051631dc0650160e31b815260040160405180910390fd5b6003805460009091556040516001600160a01b0385169083906000805160206131fd833981519152906126119085908890613143565b60405180910390a36001546116c8906001600160a01b0316858361291b565b3360009081526006602052604090205460ff166126605760405163148fe22160e11b815260040160405180910390fd5b612668612779565b600061267333610ec6565b905080600003612696576040516373380d9960e01b815260040160405180910390fd5b6000600b546004546126a89190612fcc565b9050818110156126cb5760405163bc6072f160e01b815260040160405180910390fd5b600a54336000908152600660209081526040808320600301939093556009905290812080548492906126fe90849061310e565b9250508190555081600460008282546127179190612fcc565b9091555050600154612733906001600160a01b0316338461291b565b6040805183815242602082015233917fc4e740509dbfae3377bc9925dd7bcc8aaba69cd730316216d76b2d24725c6366910160405180910390a25050611e726001600055565b60026000540361279c57604051633ee5aeb560e01b815260040160405180910390fd5b6002600055565b602081015160609060006001600160e01b0319821663329b926b60e11b14806127dc57506001600160e01b0319821663524ddc2360e01b145b806127f757506001600160e01b03198216635440380160e01b145b8061281257506001600160e01b0319821663d3493ced60e01b145b8061282d57506001600160e01b03198216632f0a89a160e21b145b8061284857506001600160e01b03198216632641305560e11b145b8061286357506001600160e01b031982166326c5320f60e21b145b90508061288357604051631c49f4d160e01b815260040160405180910390fd5b600080306001600160a01b03168660405161289e91906131e0565b6000604051808303816000865af19150503d80600081146128db576040519150601f19603f3d011682016040523d82523d6000602084013e6128e0565b606091505b509150915081612912578051156128f957805160208201fd5b6040516331d436c760e01b815260040160405180910390fd5b95945050505050565b6040516001600160a01b0383811660248301526044820183905261297a91859182169063a9059cbb906064015b604051602081830303815290604052915060e01b6020820180516001600160e01b0383818316178352505050506129b8565b505050565b6040516001600160a01b0384811660248301528381166044830152606482018390526116c89186918216906323b872dd90608401612948565b600080602060008451602086016000885af1806129db576040513d6000823e3d81fd5b50506000513d915081156129f3578060011415612a00565b6001600160a01b0384163b155b156116c857604051635274afe760e01b81526001600160a01b038516600482015260240160405180910390fd5b600060208284031215612a3f57600080fd5b5035919050565b60005b83811015612a61578181015183820152602001612a49565b50506000910152565b60008151808452612a82816020860160208601612a46565b601f01601f19169290920160200192915050565b8b81526001600160a01b038b16602082015261016060408201819052600090612ac18382018d612a6a565b90508281036060840152612ad5818c612a6a565b90508281036080840152612ae9818b612a6a565b60a0840199909952505060c081019590955260e085019390935261010084019190915261012083015215156101409091015295945050505050565b80356001600160a01b0381168114612b3b57600080fd5b919050565b600060208284031215612b5257600080fd5b612b5b82612b24565b9392505050565b634e487b7160e01b600052604160045260246000fd5b600067ffffffffffffffff80841115612b9357612b93612b62565b604051601f8501601f19908116603f01168101908282118183101715612bbb57612bbb612b62565b81604052809350858152868686011115612bd457600080fd5b858560208301376000602087830101525050509392505050565b600082601f830112612bff57600080fd5b612b5b83833560208501612b78565b60008060008060808587031215612c2457600080fd5b843567ffffffffffffffff80821115612c3c57600080fd5b612c4888838901612bee565b95506020870135915080821115612c5e57600080fd5b612c6a88838901612bee565b94506040870135915080821115612c8057600080fd5b508501601f81018713612c9257600080fd5b612ca187823560208401612b78565b949793965093946060013593505050565b60008060408385031215612cc557600080fd5b82359150612cd560208401612b24565b90509250929050565b600080600060608486031215612cf357600080fd5b612cfc84612b24565b925060208401359150604084013567ffffffffffffffff811115612d1f57600080fd5b612d2b86828701612bee565b9150509250925092565b60008060408385031215612d4857600080fd5b612d5183612b24565b946020939093013593505050565b60008151808452602080850194506020840160005b83811015612d9057815187529582019590820190600101612d74565b509495945050505050565b602081526000612b5b6020830184612d5f565b80358015158114612b3b57600080fd5b600060208284031215612dd057600080fd5b612b5b82612dae565b60008060408385031215612dec57600080fd5b50508035926020909101359150565b604081526000612e0e6040830185612d5f565b905082151560208301529392505050565b60008060008060808587031215612e3557600080fd5b612e3e85612b24565b9350612e4c60208601612b24565b925060408501359150606085013567ffffffffffffffff811115612e6f57600080fd5b612e7b87828801612bee565b91505092959194509250565b6001600160a01b038916815261010060208201819052600090612eac8382018b612a6a565b90508281036040840152612ec0818a612a6a565b60608401989098525050608081019490945260a0840192909252151560c0830152151560e0909101529392505050565b60008060408385031215612f0357600080fd5b82359150612cd560208401612dae565b60008060408385031215612f2657600080fd5b612f2f83612b24565b9150602083013567ffffffffffffffff811115612f4b57600080fd5b612f5785828601612bee565b9150509250929050565b600181811c90821680612f7557607f821691505b602082108103612f9557634e487b7160e01b600052602260045260246000fd5b50919050565b8215158152604060208201526000610f256040830184612a6a565b634e487b7160e01b600052601160045260246000fd5b81810381811115612fdf57612fdf612fb6565b92915050565b600060018201612ff757612ff7612fb6565b5060010190565b601f82111561297a576000816000526020600020601f850160051c810160208610156130275750805b601f850160051c820191505b8181101561304657828155600101613033565b505050505050565b815167ffffffffffffffff81111561306857613068612b62565b61307c816130768454612f61565b84612ffe565b602080601f8311600181146130b157600084156130995750858301515b600019600386901b1c1916600185901b178555613046565b600085815260208120601f198616915b828110156130e0578886015182559484019460019091019084016130c1565b50858210156130fe5787850151600019600388901b60f8161c191681555b5050505050600190811b01905550565b80820180821115612fdf57612fdf612fb6565b6040815260006131346040830185612a6a565b90508260208301529392505050565b828152604060208201526000610f256040830184612a6a565b634e487b7160e01b600052601260045260246000fd5b6000826131815761318161315c565b500690565b634e487b7160e01b600052603260045260246000fd5b8082028115828204841417612fdf57612fdf612fb6565b6000826131c2576131c261315c565b500490565b6000602082840312156131d957600080fd5b5051919050565b600082516131f2818460208701612a46565b919091019291505056fe1ba011ee074f0e08cc727335f32d75fb7ee71dc0a1e13bb9473e5650b0afd1a3a264697066735822122083a743c197a34e1e8eb06c88536301572c47cf8af692935ce8773f333a70302e64736f6c63430008170033",
  "linkReferences": {},
  "deployedLinkReferences": {}
}