{
  "_format": "hh-sol-artifact-1",
  "contractName": "TEMPL",
  "sourceName": "contracts/TEMPL.sol",
  "abi": [
    {
      "inputs": [
        {
          "internalType": "address",
          "name": "_priest",
          "type": "address"
        },
        {
          "internalType": "address",
          "name": "_protocolFeeRecipient",
          "type": "address"
        },
        {
          "internalType": "address",
          "name": "_token",
          "type": "address"
        },
        {
          "internalType": "uint256",
          "name": "_entryFee",
          "type": "uint256"
        }
      ],
      "stateMutability": "nonpayable",
      "type": "constructor"
    },
    {
      "inputs": [],
      "name": "ActiveProposalExists",
      "type": "error"
    },
    {
      "inputs": [],
      "name": "AlreadyExecuted",
      "type": "error"
    },
    {
      "inputs": [],
      "name": "AlreadyPurchased",
      "type": "error"
    },
    {
      "inputs": [],
      "name": "AmountZero",
      "type": "error"
    },
    {
      "inputs": [],
      "name": "CallDataRequired",
      "type": "error"
    },
    {
      "inputs": [],
      "name": "CallDataTooShort",
      "type": "error"
    },
    {
      "inputs": [],
      "name": "ContractPausedError",
      "type": "error"
    },
    {
      "inputs": [],
      "name": "DescriptionRequired",
      "type": "error"
    },
    {
      "inputs": [],
      "name": "EntryFeeTooSmall",
      "type": "error"
    },
    {
      "inputs": [],
      "name": "InsufficientBalance",
      "type": "error"
    },
    {
      "inputs": [],
      "name": "InsufficientPoolBalance",
      "type": "error"
    },
    {
      "inputs": [],
      "name": "InsufficientTreasuryBalance",
      "type": "error"
    },
    {
      "inputs": [],
      "name": "InvalidCallData",
      "type": "error"
    },
    {
      "inputs": [],
      "name": "InvalidEntryFee",
      "type": "error"
    },
    {
      "inputs": [],
      "name": "InvalidProposal",
      "type": "error"
    },
    {
      "inputs": [],
      "name": "InvalidRecipient",
      "type": "error"
    },
    {
      "inputs": [],
      "name": "InvalidSender",
      "type": "error"
    },
    {
      "inputs": [],
      "name": "JoinedAfterProposal",
      "type": "error"
    },
    {
      "inputs": [],
      "name": "LimitOutOfRange",
      "type": "error"
    },
    {
      "inputs": [],
      "name": "NoMembers",
      "type": "error"
    },
    {
      "inputs": [],
      "name": "NoRewardsToClaim",
      "type": "error"
    },
    {
      "inputs": [],
      "name": "NoTreasuryFunds",
      "type": "error"
    },
    {
      "inputs": [],
      "name": "NotDAO",
      "type": "error"
    },
    {
      "inputs": [],
      "name": "NotMember",
      "type": "error"
    },
    {
      "inputs": [],
      "name": "ProposalExecutionFailed",
      "type": "error"
    },
    {
      "inputs": [],
      "name": "ProposalNotPassed",
      "type": "error"
    },
    {
      "inputs": [],
      "name": "ReentrancyGuardReentrantCall",
      "type": "error"
    },
    {
      "inputs": [
        {
          "internalType": "address",
          "name": "token",
          "type": "address"
        }
      ],
      "name": "SafeERC20FailedOperation",
      "type": "error"
    },
    {
      "inputs": [],
      "name": "TitleRequired",
      "type": "error"
    },
    {
      "inputs": [],
      "name": "TokenChangeDisabled",
      "type": "error"
    },
    {
      "inputs": [],
      "name": "VotingEnded",
      "type": "error"
    },
    {
      "inputs": [],
      "name": "VotingNotEnded",
      "type": "error"
    },
    {
      "inputs": [],
      "name": "VotingPeriodTooLong",
      "type": "error"
    },
    {
      "inputs": [],
      "name": "VotingPeriodTooShort",
      "type": "error"
    },
    {
      "anonymous": false,
      "inputs": [
        {
          "indexed": true,
          "internalType": "address",
          "name": "purchaser",
          "type": "address"
        },
        {
          "indexed": false,
          "internalType": "uint256",
          "name": "totalAmount",
          "type": "uint256"
        },
        {
          "indexed": false,
          "internalType": "uint256",
          "name": "burnedAmount",
          "type": "uint256"
        },
        {
          "indexed": false,
          "internalType": "uint256",
          "name": "treasuryAmount",
          "type": "uint256"
        },
        {
          "indexed": false,
          "internalType": "uint256",
          "name": "memberPoolAmount",
          "type": "uint256"
        },
        {
          "indexed": false,
          "internalType": "uint256",
          "name": "protocolAmount",
          "type": "uint256"
        },
        {
          "indexed": false,
          "internalType": "uint256",
          "name": "timestamp",
          "type": "uint256"
        },
        {
          "indexed": false,
          "internalType": "uint256",
          "name": "blockNumber",
          "type": "uint256"
        },
        {
          "indexed": false,
          "internalType": "uint256",
          "name": "purchaseId",
          "type": "uint256"
        }
      ],
      "name": "AccessPurchased",
      "type": "event"
    },
    {
      "anonymous": false,
      "inputs": [
        {
          "indexed": true,
          "internalType": "address",
          "name": "token",
          "type": "address"
        },
        {
          "indexed": false,
          "internalType": "uint256",
          "name": "entryFee",
          "type": "uint256"
        }
      ],
      "name": "ConfigUpdated",
      "type": "event"
    },
    {
      "anonymous": false,
      "inputs": [
        {
          "indexed": false,
          "internalType": "bool",
          "name": "isPaused",
          "type": "bool"
        }
      ],
      "name": "ContractPaused",
      "type": "event"
    },
    {
      "anonymous": false,
      "inputs": [
        {
          "indexed": true,
          "internalType": "address",
          "name": "member",
          "type": "address"
        },
        {
          "indexed": false,
          "internalType": "uint256",
          "name": "amount",
          "type": "uint256"
        },
        {
          "indexed": false,
          "internalType": "uint256",
          "name": "timestamp",
          "type": "uint256"
        }
      ],
      "name": "MemberPoolClaimed",
      "type": "event"
    },
    {
      "anonymous": false,
      "inputs": [
        {
          "indexed": true,
          "internalType": "uint256",
          "name": "proposalId",
          "type": "uint256"
        },
        {
          "indexed": true,
          "internalType": "address",
          "name": "proposer",
          "type": "address"
        },
        {
          "indexed": false,
          "internalType": "string",
          "name": "title",
          "type": "string"
        },
        {
          "indexed": false,
          "internalType": "uint256",
          "name": "endTime",
          "type": "uint256"
        }
      ],
      "name": "ProposalCreated",
      "type": "event"
    },
    {
      "anonymous": false,
      "inputs": [
        {
          "indexed": true,
          "internalType": "uint256",
          "name": "proposalId",
          "type": "uint256"
        },
        {
          "indexed": false,
          "internalType": "bool",
          "name": "success",
          "type": "bool"
        },
        {
          "indexed": false,
          "internalType": "bytes",
          "name": "returnData",
          "type": "bytes"
        }
      ],
      "name": "ProposalExecuted",
      "type": "event"
    },
    {
      "anonymous": false,
      "inputs": [
        {
          "indexed": true,
          "internalType": "uint256",
          "name": "proposalId",
          "type": "uint256"
        },
        {
          "indexed": true,
          "internalType": "address",
          "name": "token",
          "type": "address"
        },
        {
          "indexed": true,
          "internalType": "address",
          "name": "recipient",
          "type": "address"
        },
        {
          "indexed": false,
          "internalType": "uint256",
          "name": "amount",
          "type": "uint256"
        },
        {
          "indexed": false,
          "internalType": "string",
          "name": "description",
          "type": "string"
        }
      ],
      "name": "TreasuryAction",
      "type": "event"
    },
    {
      "anonymous": false,
      "inputs": [
        {
          "indexed": true,
          "internalType": "uint256",
          "name": "proposalId",
          "type": "uint256"
        },
        {
          "indexed": false,
          "internalType": "uint256",
          "name": "amount",
          "type": "uint256"
        },
        {
          "indexed": false,
          "internalType": "uint256",
          "name": "perMember",
          "type": "uint256"
        },
        {
          "indexed": false,
          "internalType": "uint256",
          "name": "remainder",
          "type": "uint256"
        }
      ],
      "name": "TreasuryDisbanded",
      "type": "event"
    },
    {
      "anonymous": false,
      "inputs": [
        {
          "indexed": true,
          "internalType": "uint256",
          "name": "proposalId",
          "type": "uint256"
        },
        {
          "indexed": true,
          "internalType": "address",
          "name": "voter",
          "type": "address"
        },
        {
          "indexed": false,
          "internalType": "bool",
          "name": "support",
          "type": "bool"
        },
        {
          "indexed": false,
          "internalType": "uint256",
          "name": "timestamp",
          "type": "uint256"
        }
      ],
      "name": "VoteCast",
      "type": "event"
    },
    {
      "inputs": [],
      "name": "DEFAULT_VOTING_PERIOD",
      "outputs": [
        {
          "internalType": "uint256",
          "name": "",
          "type": "uint256"
        }
      ],
      "stateMutability": "view",
      "type": "function"
    },
    {
      "inputs": [],
      "name": "MAX_VOTING_PERIOD",
      "outputs": [
        {
          "internalType": "uint256",
          "name": "",
          "type": "uint256"
        }
      ],
      "stateMutability": "view",
      "type": "function"
    },
    {
      "inputs": [],
      "name": "MIN_VOTING_PERIOD",
      "outputs": [
        {
          "internalType": "uint256",
          "name": "",
          "type": "uint256"
        }
      ],
      "stateMutability": "view",
      "type": "function"
    },
    {
      "inputs": [],
      "name": "accessToken",
      "outputs": [
        {
          "internalType": "address",
          "name": "",
          "type": "address"
        }
      ],
      "stateMutability": "view",
      "type": "function"
    },
    {
      "inputs": [
        {
          "internalType": "address",
          "name": "",
          "type": "address"
        }
      ],
      "name": "activeProposalId",
      "outputs": [
        {
          "internalType": "uint256",
          "name": "",
          "type": "uint256"
        }
      ],
      "stateMutability": "view",
      "type": "function"
    },
    {
      "inputs": [],
      "name": "claimMemberPool",
      "outputs": [],
      "stateMutability": "nonpayable",
      "type": "function"
    },
    {
      "inputs": [
        {
          "internalType": "string",
          "name": "_title",
          "type": "string"
        },
        {
          "internalType": "string",
          "name": "_description",
          "type": "string"
        },
        {
          "internalType": "bytes",
          "name": "_callData",
          "type": "bytes"
        },
        {
          "internalType": "uint256",
          "name": "_votingPeriod",
          "type": "uint256"
        }
      ],
      "name": "createProposal",
      "outputs": [
        {
          "internalType": "uint256",
          "name": "",
          "type": "uint256"
        }
      ],
      "stateMutability": "nonpayable",
      "type": "function"
    },
    {
      "inputs": [],
      "name": "cumulativeMemberRewards",
      "outputs": [
        {
          "internalType": "uint256",
          "name": "",
          "type": "uint256"
        }
      ],
      "stateMutability": "view",
      "type": "function"
    },
    {
      "inputs": [],
      "name": "disbandTreasuryDAO",
      "outputs": [],
      "stateMutability": "nonpayable",
      "type": "function"
    },
    {
      "inputs": [],
      "name": "entryFee",
      "outputs": [
        {
          "internalType": "uint256",
          "name": "",
          "type": "uint256"
        }
      ],
      "stateMutability": "view",
      "type": "function"
    },
    {
      "inputs": [
        {
          "internalType": "uint256",
          "name": "_proposalId",
          "type": "uint256"
        }
      ],
      "name": "executeProposal",
      "outputs": [],
      "stateMutability": "nonpayable",
      "type": "function"
    },
    {
      "inputs": [],
      "name": "getActiveProposals",
      "outputs": [
        {
          "internalType": "uint256[]",
          "name": "",
          "type": "uint256[]"
        }
      ],
      "stateMutability": "view",
      "type": "function"
    },
    {
      "inputs": [
        {
          "internalType": "uint256",
          "name": "offset",
          "type": "uint256"
        },
        {
          "internalType": "uint256",
          "name": "limit",
          "type": "uint256"
        }
      ],
      "name": "getActiveProposalsPaginated",
      "outputs": [
        {
          "internalType": "uint256[]",
          "name": "proposalIds",
          "type": "uint256[]"
        },
        {
          "internalType": "bool",
          "name": "hasMore",
          "type": "bool"
        }
      ],
      "stateMutability": "view",
      "type": "function"
    },
    {
      "inputs": [
        {
          "internalType": "address",
          "name": "member",
          "type": "address"
        }
      ],
      "name": "getClaimablePoolAmount",
      "outputs": [
        {
          "internalType": "uint256",
          "name": "",
          "type": "uint256"
        }
      ],
      "stateMutability": "view",
      "type": "function"
    },
    {
      "inputs": [],
      "name": "getConfig",
      "outputs": [
        {
          "internalType": "address",
          "name": "token",
          "type": "address"
        },
        {
          "internalType": "uint256",
          "name": "fee",
          "type": "uint256"
        },
        {
          "internalType": "bool",
          "name": "isPaused",
          "type": "bool"
        },
        {
          "internalType": "uint256",
          "name": "purchases",
          "type": "uint256"
        },
        {
          "internalType": "uint256",
          "name": "treasury",
          "type": "uint256"
        },
        {
          "internalType": "uint256",
          "name": "pool",
          "type": "uint256"
        }
      ],
      "stateMutability": "view",
      "type": "function"
    },
    {
      "inputs": [],
      "name": "getMemberCount",
      "outputs": [
        {
          "internalType": "uint256",
          "name": "",
          "type": "uint256"
        }
      ],
      "stateMutability": "view",
      "type": "function"
    },
    {
      "inputs": [
        {
          "internalType": "uint256",
          "name": "_proposalId",
          "type": "uint256"
        }
      ],
      "name": "getProposal",
      "outputs": [
        {
          "internalType": "address",
          "name": "proposer",
          "type": "address"
        },
        {
          "internalType": "string",
          "name": "title",
          "type": "string"
        },
        {
          "internalType": "string",
          "name": "description",
          "type": "string"
        },
        {
          "internalType": "uint256",
          "name": "yesVotes",
          "type": "uint256"
        },
        {
          "internalType": "uint256",
          "name": "noVotes",
          "type": "uint256"
        },
        {
          "internalType": "uint256",
          "name": "endTime",
          "type": "uint256"
        },
        {
          "internalType": "bool",
          "name": "executed",
          "type": "bool"
        },
        {
          "internalType": "bool",
          "name": "passed",
          "type": "bool"
        }
      ],
      "stateMutability": "view",
      "type": "function"
    },
    {
      "inputs": [
        {
          "internalType": "address",
          "name": "user",
          "type": "address"
        }
      ],
      "name": "getPurchaseDetails",
      "outputs": [
        {
          "internalType": "bool",
          "name": "purchased",
          "type": "bool"
        },
        {
          "internalType": "uint256",
          "name": "timestamp",
          "type": "uint256"
        },
        {
          "internalType": "uint256",
          "name": "blockNum",
          "type": "uint256"
        }
      ],
      "stateMutability": "view",
      "type": "function"
    },
    {
      "inputs": [],
      "name": "getTreasuryInfo",
      "outputs": [
        {
          "internalType": "uint256",
          "name": "treasury",
          "type": "uint256"
        },
        {
          "internalType": "uint256",
          "name": "memberPool",
          "type": "uint256"
        },
        {
          "internalType": "uint256",
          "name": "totalReceived",
          "type": "uint256"
        },
        {
          "internalType": "uint256",
          "name": "totalBurnedAmount",
          "type": "uint256"
        },
        {
          "internalType": "uint256",
          "name": "totalProtocolFees",
          "type": "uint256"
        },
        {
          "internalType": "address",
          "name": "protocolAddress",
          "type": "address"
        }
      ],
      "stateMutability": "view",
      "type": "function"
    },
    {
      "inputs": [
        {
          "internalType": "address",
          "name": "voter",
          "type": "address"
        }
      ],
      "name": "getVoteWeight",
      "outputs": [
        {
          "internalType": "uint256",
          "name": "",
          "type": "uint256"
        }
      ],
      "stateMutability": "view",
      "type": "function"
    },
    {
      "inputs": [
        {
          "internalType": "address",
          "name": "user",
          "type": "address"
        }
      ],
      "name": "hasAccess",
      "outputs": [
        {
          "internalType": "bool",
          "name": "",
          "type": "bool"
        }
      ],
      "stateMutability": "view",
      "type": "function"
    },
    {
      "inputs": [
        {
          "internalType": "address",
          "name": "",
          "type": "address"
        }
      ],
      "name": "hasActiveProposal",
      "outputs": [
        {
          "internalType": "bool",
          "name": "",
          "type": "bool"
        }
      ],
      "stateMutability": "view",
      "type": "function"
    },
    {
      "inputs": [
        {
          "internalType": "uint256",
          "name": "_proposalId",
          "type": "uint256"
        },
        {
          "internalType": "address",
          "name": "_voter",
          "type": "address"
        }
      ],
      "name": "hasVoted",
      "outputs": [
        {
          "internalType": "bool",
          "name": "voted",
          "type": "bool"
        },
        {
          "internalType": "bool",
          "name": "support",
          "type": "bool"
        }
      ],
      "stateMutability": "view",
      "type": "function"
    },
    {
      "inputs": [
        {
          "internalType": "address",
          "name": "",
          "type": "address"
        }
      ],
      "name": "memberIndex",
      "outputs": [
        {
          "internalType": "uint256",
          "name": "",
          "type": "uint256"
        }
      ],
      "stateMutability": "view",
      "type": "function"
    },
    {
      "inputs": [
        {
          "internalType": "uint256",
          "name": "",
          "type": "uint256"
        }
      ],
      "name": "memberList",
      "outputs": [
        {
          "internalType": "address",
          "name": "",
          "type": "address"
        }
      ],
      "stateMutability": "view",
      "type": "function"
    },
    {
      "inputs": [],
      "name": "memberPoolBalance",
      "outputs": [
        {
          "internalType": "uint256",
          "name": "",
          "type": "uint256"
        }
      ],
      "stateMutability": "view",
      "type": "function"
    },
    {
      "inputs": [
        {
          "internalType": "address",
          "name": "",
          "type": "address"
        }
      ],
      "name": "memberPoolClaims",
      "outputs": [
        {
          "internalType": "uint256",
          "name": "",
          "type": "uint256"
        }
      ],
      "stateMutability": "view",
      "type": "function"
    },
    {
      "inputs": [],
      "name": "memberRewardRemainder",
      "outputs": [
        {
          "internalType": "uint256",
          "name": "",
          "type": "uint256"
        }
      ],
      "stateMutability": "view",
      "type": "function"
    },
    {
      "inputs": [
        {
          "internalType": "address",
          "name": "",
          "type": "address"
        }
      ],
      "name": "members",
      "outputs": [
        {
          "internalType": "bool",
          "name": "purchased",
          "type": "bool"
        },
        {
          "internalType": "uint256",
          "name": "timestamp",
          "type": "uint256"
        },
        {
          "internalType": "uint256",
          "name": "block",
          "type": "uint256"
        },
        {
          "internalType": "uint256",
          "name": "rewardSnapshot",
          "type": "uint256"
        }
      ],
      "stateMutability": "view",
      "type": "function"
    },
    {
      "inputs": [],
      "name": "paused",
      "outputs": [
        {
          "internalType": "bool",
          "name": "",
          "type": "bool"
        }
      ],
      "stateMutability": "view",
      "type": "function"
    },
    {
      "inputs": [],
      "name": "priest",
      "outputs": [
        {
          "internalType": "address",
          "name": "",
          "type": "address"
        }
      ],
      "stateMutability": "view",
      "type": "function"
    },
    {
      "inputs": [],
      "name": "proposalCount",
      "outputs": [
        {
          "internalType": "uint256",
          "name": "",
          "type": "uint256"
        }
      ],
      "stateMutability": "view",
      "type": "function"
    },
    {
      "inputs": [
        {
          "internalType": "uint256",
          "name": "",
          "type": "uint256"
        }
      ],
      "name": "proposals",
      "outputs": [
        {
          "internalType": "uint256",
          "name": "id",
          "type": "uint256"
        },
        {
          "internalType": "address",
          "name": "proposer",
          "type": "address"
        },
        {
          "internalType": "string",
          "name": "title",
          "type": "string"
        },
        {
          "internalType": "string",
          "name": "description",
          "type": "string"
        },
        {
          "internalType": "bytes",
          "name": "callData",
          "type": "bytes"
        },
        {
          "internalType": "uint256",
          "name": "yesVotes",
          "type": "uint256"
        },
        {
          "internalType": "uint256",
          "name": "noVotes",
          "type": "uint256"
        },
        {
          "internalType": "uint256",
          "name": "endTime",
          "type": "uint256"
        },
        {
          "internalType": "uint256",
          "name": "createdAt",
          "type": "uint256"
        },
        {
          "internalType": "uint256",
          "name": "eligibleVoters",
          "type": "uint256"
        },
        {
          "internalType": "bool",
          "name": "executed",
          "type": "bool"
        }
      ],
      "stateMutability": "view",
      "type": "function"
    },
    {
      "inputs": [],
      "name": "protocolFeeRecipient",
      "outputs": [
        {
          "internalType": "address",
          "name": "",
          "type": "address"
        }
      ],
      "stateMutability": "view",
      "type": "function"
    },
    {
      "inputs": [],
      "name": "purchaseAccess",
      "outputs": [],
      "stateMutability": "nonpayable",
      "type": "function"
    },
    {
      "inputs": [
        {
          "internalType": "bool",
          "name": "_paused",
          "type": "bool"
        }
      ],
      "name": "setPausedDAO",
      "outputs": [],
      "stateMutability": "nonpayable",
      "type": "function"
    },
    {
      "inputs": [],
      "name": "totalBurned",
      "outputs": [
        {
          "internalType": "uint256",
          "name": "",
          "type": "uint256"
        }
      ],
      "stateMutability": "view",
      "type": "function"
    },
    {
      "inputs": [],
      "name": "totalPurchases",
      "outputs": [
        {
          "internalType": "uint256",
          "name": "",
          "type": "uint256"
        }
      ],
      "stateMutability": "view",
      "type": "function"
    },
    {
      "inputs": [],
      "name": "totalToMemberPool",
      "outputs": [
        {
          "internalType": "uint256",
          "name": "",
          "type": "uint256"
        }
      ],
      "stateMutability": "view",
      "type": "function"
    },
    {
      "inputs": [],
      "name": "totalToProtocol",
      "outputs": [
        {
          "internalType": "uint256",
          "name": "",
          "type": "uint256"
        }
      ],
      "stateMutability": "view",
      "type": "function"
    },
    {
      "inputs": [],
      "name": "totalToTreasury",
      "outputs": [
        {
          "internalType": "uint256",
          "name": "",
          "type": "uint256"
        }
      ],
      "stateMutability": "view",
      "type": "function"
    },
    {
      "inputs": [],
      "name": "treasuryBalance",
      "outputs": [
        {
          "internalType": "uint256",
          "name": "",
          "type": "uint256"
        }
      ],
      "stateMutability": "view",
      "type": "function"
    },
    {
      "inputs": [
        {
          "internalType": "address",
          "name": "_token",
          "type": "address"
        },
        {
          "internalType": "uint256",
          "name": "_entryFee",
          "type": "uint256"
        }
      ],
      "name": "updateConfigDAO",
      "outputs": [],
      "stateMutability": "nonpayable",
      "type": "function"
    },
    {
      "inputs": [
        {
          "internalType": "uint256",
          "name": "_proposalId",
          "type": "uint256"
        },
        {
          "internalType": "bool",
          "name": "_support",
          "type": "bool"
        }
      ],
      "name": "vote",
      "outputs": [],
      "stateMutability": "nonpayable",
      "type": "function"
    },
    {
      "inputs": [
        {
          "internalType": "address",
          "name": "token",
          "type": "address"
        },
        {
          "internalType": "address",
          "name": "recipient",
          "type": "address"
        },
        {
          "internalType": "string",
          "name": "reason",
          "type": "string"
        }
      ],
      "name": "withdrawAllTreasuryDAO",
      "outputs": [],
      "stateMutability": "nonpayable",
      "type": "function"
    },
    {
      "inputs": [
        {
          "internalType": "address",
          "name": "token",
          "type": "address"
        },
        {
          "internalType": "address",
          "name": "recipient",
          "type": "address"
        },
        {
          "internalType": "uint256",
          "name": "amount",
          "type": "uint256"
        },
        {
          "internalType": "string",
          "name": "reason",
          "type": "string"
        }
      ],
      "name": "withdrawTreasuryDAO",
      "outputs": [],
      "stateMutability": "nonpayable",
      "type": "function"
    },
    {
      "stateMutability": "payable",
      "type": "receive"
    }
  ],
  "bytecode": "0x60c06040526000196010553480156200001757600080fd5b5060405162003235380380620032358339810160408190526200003a916200015a565b60016000556001600160a01b03841615806200005d57506001600160a01b038316155b806200007057506001600160a01b038216155b156200008f57604051634e46966960e11b815260040160405180910390fd5b80600003620000b1576040516365e52d5160e11b815260040160405180910390fd5b600a811015620000d457604051635eee050360e11b815260040160405180910390fd5b620000e1600a82620001ac565b156200010057604051636fe6a4c960e01b815260040160405180910390fd5b6001600160a01b0393841660805291831660a052600180546001600160a01b03191691909316179091556002556005805460ff19169055620001cf565b80516001600160a01b03811681146200015557600080fd5b919050565b600080600080608085870312156200017157600080fd5b6200017c856200013d565b93506200018c602086016200013d565b92506200019c604086016200013d565b6060959095015193969295505050565b600082620001ca57634e487b7160e01b600052601260045260246000fd5b500690565b60805160a05161303262000203600039600081816105a5015281816107eb0152611d480152600061079501526130326000f3fe6080604052600436106102815760003560e01c80638f78bbc41161014f578063bebc8fc0116100c1578063d402d4be1161007a578063d402d4be146108f4578063d89135cd14610914578063da35c6641461092a578063e243c5fb14610940578063f7158b2a14610960578063ffafe4ad1461097557600080fd5b8063bebc8fc014610783578063c1b57edb146107b7578063c2939471146107cd578063c3f909d414610840578063c7f758a8146108a0578063c9d27afe146108d457600080fd5b8063a64e024a11610113578063a64e024a146106e9578063a730117e14610700578063a81bbe3c14610720578063aedfe53f1461039b578063b307fc6d1461074d578063bdb75b341461076d57600080fd5b80638f78bbc41461064257806395a078e814610670578063997072f7146106a957806399e288d8146106be578063a51a46b9146106d357600080fd5b806343859632116101f35780635fa7ddf0116101ac5780635fa7ddf01461051957806364653f291461052f57806364df049e14610593578063653724d6146105df5780636898b19c146105ff5780636ad185501461061557600080fd5b8063438596321461044a578063524ddc23146104815780635584c4f9146104a15780635962a941146104c357806359c266ff146104d95780635c975abb146104ef57600080fd5b8063215809ca11610245578063215809ca1461039b57806328337886146103b2578063313dab20146103c757806332d084bb146103dd5780633ccae22a146103fd5780633dd352791461041d57600080fd5b8063013cf08b1461028d578063072ea61c146102cd57806308ae4b0c146102f15780630d61b519146103595780631808022a1461037b57600080fd5b3661028857005b600080fd5b34801561029957600080fd5b506102ad6102a836600461287a565b6109a5565b6040516102c49b9a999897969594939291906128e3565b60405180910390f35b3480156102d957600080fd5b506102e360025481565b6040519081526020016102c4565b3480156102fd57600080fd5b5061033761030c36600461298d565b600660205260009081526040902080546001820154600283015460039093015460ff90921692909184565b60408051941515855260208501939093529183015260608201526080016102c4565b34801561036557600080fd5b5061037961037436600461287a565b610ba0565b005b34801561038757600080fd5b506102e361039636600461298d565b610dc7565b3480156103a757600080fd5b506102e362093a8081565b3480156103be57600080fd5b50610379610e2e565b3480156103d357600080fd5b506102e360035481565b3480156103e957600080fd5b506102e36103f8366004612a5b565b610f73565b34801561040957600080fd5b50610379610418366004612aff565b61127d565b34801561042957600080fd5b506102e361043836600461298d565b60086020526000908152604090205481565b34801561045657600080fd5b5061046a610465366004612b5d565b6114eb565b6040805192151583529015156020830152016102c4565b34801561048d57600080fd5b5061037961049c366004612b89565b611554565b3480156104ad57600080fd5b506104b6611658565b6040516102c49190612bef565b3480156104cf57600080fd5b506102e360115481565b3480156104e557600080fd5b506102e360155481565b3480156104fb57600080fd5b506005546105099060ff1681565b60405190151581526020016102c4565b34801561052557600080fd5b506102e360045481565b34801561053b57600080fd5b5061057661054a36600461298d565b6001600160a01b031660009081526006602052604090208054600182015460029092015460ff90911692565b6040805193151584526020840192909252908201526060016102c4565b34801561059f57600080fd5b506105c77f000000000000000000000000000000000000000000000000000000000000000081565b6040516001600160a01b0390911681526020016102c4565b3480156105eb57600080fd5b506103796105fa366004612c12565b61177e565b34801561060b57600080fd5b506102e3600a5481565b34801561062157600080fd5b506102e361063036600461298d565b600e6020526000908152604090205481565b34801561064e57600080fd5b5061066261065d366004612c2d565b6117e5565b6040516102c4929190612c4f565b34801561067c57600080fd5b5061050961068b36600461298d565b6001600160a01b031660009081526006602052604090205460ff1690565b3480156106b557600080fd5b506007546102e3565b3480156106ca57600080fd5b50610379611a16565b3480156106df57600080fd5b506102e3600b5481565b3480156106f557600080fd5b506102e362278d0081565b34801561070c57600080fd5b506102e361071b36600461298d565b611dfe565b34801561072c57600080fd5b506102e361073b36600461298d565b60096020526000908152604090205481565b34801561075957600080fd5b506105c761076836600461287a565b611e2e565b34801561077957600080fd5b506102e360145481565b34801561078f57600080fd5b506105c77f000000000000000000000000000000000000000000000000000000000000000081565b3480156107c357600080fd5b506102e360135481565b3480156107d957600080fd5b506003546004546013546012546015547f000000000000000000000000000000000000000000000000000000000000000060408051968752602087019590955293850192909252606084015260808301526001600160a01b031660a082015260c0016102c4565b34801561084c57600080fd5b50600154600254600554601154600354600454604080516001600160a01b039097168752602087019590955260ff9093161515938501939093526060840152608083019190915260a082015260c0016102c4565b3480156108ac57600080fd5b506108c06108bb36600461287a565b611e58565b6040516102c4989796959493929190612c73565b3480156108e057600080fd5b506103796108ef366004612cdc565b61201f565b34801561090057600080fd5b5061037961090f366004612cff565b612218565b34801561092057600080fd5b506102e360125481565b34801561093657600080fd5b506102e3600c5481565b34801561094c57600080fd5b506001546105c7906001600160a01b031681565b34801561096c57600080fd5b5061037961249c565b34801561098157600080fd5b5061050961099036600461298d565b600f6020526000908152604090205460ff1681565b600d6020526000908152604090208054600182015460028301805492936001600160a01b03909216926109d790612d67565b80601f0160208091040260200160405190810160405280929190818152602001828054610a0390612d67565b8015610a505780601f10610a2557610100808354040283529160200191610a50565b820191906000526020600020905b815481529060010190602001808311610a3357829003601f168201915b505050505090806003018054610a6590612d67565b80601f0160208091040260200160405190810160405280929190818152602001828054610a9190612d67565b8015610ade5780601f10610ab357610100808354040283529160200191610ade565b820191906000526020600020905b815481529060010190602001808311610ac157829003601f168201915b505050505090806004018054610af390612d67565b80601f0160208091040260200160405190810160405280929190818152602001828054610b1f90612d67565b8015610b6c5780601f10610b4157610100808354040283529160200191610b6c565b820191906000526020600020905b815481529060010190602001808311610b4f57829003601f168201915b50505060058401546006850154600786015460088701546009880154600a9098015496979396929550909350919060ff168b565b610ba86125e5565b600c548110610bca57604051631dc0650160e31b815260040160405180910390fd5b6000818152600d602052604090206007810154421015610bfd57604051633fc30bd160e11b815260040160405180910390fd5b600a81015460ff1615610c2357604051630dc1019760e01b815260040160405180910390fd5b8060060154816005015411610c4b5760405163c8c93ba360e01b815260040160405180910390fd5b600a8101805460ff191660019081179091558101546001600160a01b03166000818152600f602052604090205460ff168015610c9e57506001600160a01b0381166000908152600e602052604090205483145b15610ccf576001600160a01b0381166000908152600f60209081526040808320805460ff19169055600e9091528120555b610cd883601055565b6000610d6f836004018054610cec90612d67565b80601f0160208091040260200160405190810160405280929190818152602001828054610d1890612d67565b8015610d655780601f10610d3a57610100808354040283529160200191610d65565b820191906000526020600020905b815481529060010190602001808311610d4857829003601f168201915b505050505061260f565b9050610d7c600019601055565b837faf8f9d0e884d3306a083e846741a0bc4d75908e2b0ec63b558219652ae4c1b90600183604051610daf929190612da1565b60405180910390a2505050610dc46001600055565b50565b6001600160a01b03811660009081526006602052604081205460ff16610def57506000919050565b600a546001600160a01b038316600090815260066020526040902060030154808211610e1c576000610e26565b610e268183612dd2565b949350505050565b333014610e4e576040516327568d2f60e11b815260040160405180910390fd5b6003546000819003610e7357604051631ab9ebab60e01b815260040160405180910390fd5b6007546000819003610e9857604051630292d7c360e51b815260040160405180910390fd5b601054600c548110610ebd57604051631dc0650160e31b815260040160405180910390fd5b60006003819055508260046000828254610ed79190612de5565b9091555060009050610ee98385612e0e565b90506000610ef78486612e22565b905081600a6000828254610f0b9190612de5565b9250508190555080600b6000828254610f249190612de5565b9091555050604080518681526020810184905290810182905283907f8b887c99365b16ec127c895b4fbfab96273b2a79191ed7b42b9724cd8a695ae99060600160405180910390a25050505050565b3360009081526006602052604081205460ff16610fa35760405163148fe22160e11b815260040160405180910390fd5b8451600003610fc5576040516319d546f160e31b815260040160405180910390fd5b8351600003610fe757604051633e61080d60e01b815260040160405180910390fd5b82516000036110095760405163066e738d60e01b815260040160405180910390fd5b60048351101561102c57604051632d2b93ff60e01b815260040160405180910390fd5b6020830151600061103c826126da565b90508061105c57604051631c49f4d160e01b815260040160405180910390fd5b336000908152600f602052604090205460ff16156110ed57336000908152600e6020908152604080832054808452600d909252909120600a81015460ff161580156110aa5750806007015442105b156110c85760405163792c310960e11b815260040160405180910390fd5b336000908152600f60209081526040808320805460ff19169055600e90915281205550505b8360008190036110fd575062093a805b62093a80811015611121576040516331806aeb60e21b815260040160405180910390fd5b62278d008111156111455760405163eeeb962360e01b815260040160405180910390fd5b600c80546000918261115683612e36565b909155506000818152600d602052604090208181556001810180546001600160a01b03191633179055909150600281016111908b82612e9f565b506003810161119f8a82612e9f565b50600481016111ae8982612e9f565b506111b98342612de5565b6007808301918255426008840155546009830155600a8201805460ff19908116909155336000818152600b850160209081526040808320805486166001908117909155600c8801835281842080548716821790556005880181905560068801849055600f8352818420805490961617909455600e90528290208590559154905184917f98120a6aaa04295520ab4e01c6c1235dd316e822cc9ff31db7b3f197366d18bd91611268918f91612f5f565b60405180910390a35098975050505050505050565b33301461129d576040516327568d2f60e11b815260040160405180910390fd5b6001600160a01b0382166112c457604051634e46966960e11b815260040160405180910390fd5b601054600c5481106112e957604051631dc0650160e31b815260040160405180910390fd5b6001546000906001600160a01b039081169086160361134b5760035460000361132557604051631ab9ebab60e01b815260040160405180910390fd5b50600380546000909155600154611346906001600160a01b03168583612762565b611496565b6001600160a01b0385166113f7574790508060000361137d57604051631ab9ebab60e01b815260040160405180910390fd5b6000846001600160a01b03168260405160006040518083038185875af1925050503d80600081146113ca576040519150601f19603f3d011682016040523d82523d6000602084013e6113cf565b606091505b50509050806113f1576040516331d436c760e01b815260040160405180910390fd5b50611496565b6040516370a0823160e01b81523060048201526001600160a01b038616906370a0823190602401602060405180830381865afa15801561143b573d6000803e3d6000fd5b505050506040513d601f19601f8201168201806040525081019061145f9190612f81565b90508060000361148257604051631ab9ebab60e01b815260040160405180910390fd5b6114966001600160a01b0386168583612762565b836001600160a01b0316856001600160a01b0316837fd81f085560db5c809c425a15f00e3f2904e4fa46d6e8672ff2e671ccd6d9a23184876040516114dc929190612f9a565b60405180910390a45050505050565b600080600c54841061151057604051631dc0650160e31b815260040160405180910390fd5b50506000828152600d602090815260408083206001600160a01b0385168452600b8101835281842054600c9091019092529091205460ff91821691165b9250929050565b333014611574576040516327568d2f60e11b815260040160405180910390fd5b6001600160a01b0382161580159061159a57506001546001600160a01b03838116911614155b156115b85760405163b078ee9d60e01b815260040160405180910390fd5b801561160f57600a8110156115e057604051635eee050360e11b815260040160405180910390fd5b6115eb600a82612e22565b1561160957604051636fe6a4c960e01b815260040160405180910390fd5b60028190555b6001546002546040519081526001600160a01b03909116907faf8839d80c9b3bbf95c97465eb8c8348db4098f5c15af186c3b425b1129981179060200160405180910390a25050565b60606000805b600c548110156116b5576000818152600d60205260409020600701544210801561169a57506000818152600d60205260409020600a015460ff16155b156116ad57816116a981612e36565b9250505b60010161165e565b5060008167ffffffffffffffff8111156116d1576116d16129af565b6040519080825280602002602001820160405280156116fa578160200160208202803683370190505b5090506000805b600c54811015611775576000818152600d60205260409020600701544210801561173d57506000818152600d60205260409020600a015460ff16155b1561176d5780838361174e81612e36565b94508151811061176057611760612fb3565b6020026020010181815250505b600101611701565b50909392505050565b33301461179e576040516327568d2f60e11b815260040160405180910390fd5b6005805460ff19168215159081179091556040519081527f752d7e161ff5146f80e3820893176eb40532811e5e20400dfdde57455213706a9060200160405180910390a150565b606060008215806117f65750606483115b15611814576040516381f396b760e01b815260040160405180910390fd5b600c548410611835575050604080516000808252602082019092529061154d565b60008367ffffffffffffffff811115611850576118506129af565b604051908082528060200260200182016040528015611879578160200160208202803683370190505b509050600085805b600c548110801561189157508683105b15611917576000818152600d6020526040902060070154421080156118c857506000818152600d60205260409020600a015460ff16155b156118f8578084846118d981612e36565b9550815181106118eb576118eb612fb3565b6020026020010181815250505b611903816001612de5565b91508061190f81612e36565b915050611881565b5060009350600c5481101561197c57805b600c5481101561197a576000818152600d60205260409020600701544210801561196457506000818152600d60205260409020600a015460ff16155b15611972576001945061197a565b600101611928565b505b8167ffffffffffffffff811115611995576119956129af565b6040519080825280602002602001820160405280156119be578160200160208202803683370190505b50945060005b82811015611a0b578381815181106119de576119de612fb3565b60200260200101518682815181106119f8576119f8612fb3565b60209081029190910101526001016119c4565b505050509250929050565b60055460ff1615611a3a57604051630eceade960e31b815260040160405180910390fd5b303303611a5a57604051636edaef2f60e11b815260040160405180910390fd5b611a626125e5565b336000908152600660205260409020805460ff1615611a9457604051630cd9ed5560e21b815260040160405180910390fd5b60006064600254601e611aa79190612fc9565b611ab19190612e0e565b905060006064600254600a611ac69190612fc9565b611ad09190612e0e565b6002546001546040516370a0823160e01b815233600482015292935090916001600160a01b03909116906370a0823190602401602060405180830381865afa158015611b20573d6000803e3d6000fd5b505050506040513d601f19601f82011682018060405250810190611b449190612f81565b1015611b6357604051631e9acf1760e31b815260040160405180910390fd5b825460ff19166001908117845542848201554360028501556007805433600081815260086020526040812083905593820183559183527fa66cc928b5edb82af9bd49922954155ab7b0942694bea4ce44661d9a8736c6880180546001600160a01b03191690911790556011805491611bda83612e36565b909155505060075460011015611c55576000600b5483611bfa9190612de5565b600754909150600090611c0f90600190612dd2565b611c199083612e0e565b600754909150611c2b90600190612dd2565b611c359083612e22565b600b8190555080600a6000828254611c4d9190612de5565b909155505050505b600a5483600301819055508160036000828254611c729190612de5565b925050819055508160046000828254611c8b9190612de5565b925050819055508160126000828254611ca49190612de5565b925050819055508160136000828254611cbd9190612de5565b925050819055508160146000828254611cd69190612de5565b925050819055508060156000828254611cef9190612de5565b90915550506001546001600160a01b0316611d0e813361dead866127c6565b611d236001600160a01b0382163330866127c6565b611d386001600160a01b0382163330866127c6565b611d6d6001600160a01b038216337f0000000000000000000000000000000000000000000000000000000000000000856127c6565b336001600160a01b03167fe6d1c0e418a42a777d49c66571075fc47bc1d92e7f506007ddde08d1ff182bbc6002548586878742436001601154611db09190612dd2565b604080519889526020890197909752958701949094526060860192909252608085015260a084015260c083015260e08201526101000160405180910390a250505050611dfc6001600055565b565b6001600160a01b03811660009081526006602052604081205460ff16611e2657506000919050565b506001919050565b60078181548110611e3e57600080fd5b6000918252602090912001546001600160a01b0316905081565b60006060806000806000806000600c548910611e8757604051631dc0650160e31b815260040160405180910390fd5b6000898152600d6020526040902060078101544210801590611eb0575080600601548160050154115b6001820154600583015460068401546007850154600a8601546002870180549698506001600160a01b0390951695600388019493929160ff169089908790611ef790612d67565b80601f0160208091040260200160405190810160405280929190818152602001828054611f2390612d67565b8015611f705780601f10611f4557610100808354040283529160200191611f70565b820191906000526020600020905b815481529060010190602001808311611f5357829003601f168201915b50505050509650858054611f8390612d67565b80601f0160208091040260200160405190810160405280929190818152602001828054611faf90612d67565b8015611ffc5780601f10611fd157610100808354040283529160200191611ffc565b820191906000526020600020905b815481529060010190602001808311611fdf57829003601f168201915b505050505095509850985098509850985098509850985050919395975091939597565b3360009081526006602052604090205460ff1661204f5760405163148fe22160e11b815260040160405180910390fd5b600c54821061207157604051631dc0650160e31b815260040160405180910390fd5b6000828152600d60205260409020600781015442106120a357604051637a19ed0560e01b815260040160405180910390fd5b600881015433600090815260066020526040902060010154106120d95760405163f078ca7360e01b815260040160405180910390fd5b336000908152600b8201602090815260408083208054600c86019093529220805460ff198084166001179094558154861515941693909317905560ff90811691168161215a57831561214557600183600501600082825461213a9190612de5565b909155506121d39050565b600183600601600082825461213a9190612de5565b831515811515146121d357801561219c5760018360050160008282546121809190612dd2565b92505081905550600183600601600082825461213a9190612de5565b60018360060160008282546121b19190612dd2565b9250508190555060018360050160008282546121cd9190612de5565b90915550505b604080518515158152426020820152339187917fcbdf6214089cba887ecbf35a0b6a734589959c9763342c756bb2a80ca2bc9f6e910160405180910390a35050505050565b333014612238576040516327568d2f60e11b815260040160405180910390fd5b6001600160a01b03831661225f57604051634e46966960e11b815260040160405180910390fd5b81600003612280576040516365e52d5160e11b815260040160405180910390fd5b601054600c5481106122a557604051631dc0650160e31b815260040160405180910390fd5b6001546001600160a01b0390811690861603612311576003548311156122de57604051631c7b597b60e11b815260040160405180910390fd5b82600360008282546122f09190612dd2565b909155505060015461230c906001600160a01b03168585612762565b612456565b6001600160a01b0385166123ba574783111561234057604051631c7b597b60e11b815260040160405180910390fd5b6000846001600160a01b03168460405160006040518083038185875af1925050503d806000811461238d576040519150601f19603f3d011682016040523d82523d6000602084013e612392565b606091505b50509050806123b4576040516331d436c760e01b815260040160405180910390fd5b50612456565b6040516370a0823160e01b81523060048201526001600160a01b038616906370a0823190602401602060405180830381865afa1580156123fe573d6000803e3d6000fd5b505050506040513d601f19601f820116820180604052508101906124229190612f81565b83111561244257604051631c7b597b60e11b815260040160405180910390fd5b6124566001600160a01b0386168585612762565b836001600160a01b0316856001600160a01b0316827fd81f085560db5c809c425a15f00e3f2904e4fa46d6e8672ff2e671ccd6d9a23186866040516114dc929190612f9a565b3360009081526006602052604090205460ff166124cc5760405163148fe22160e11b815260040160405180910390fd5b6124d46125e5565b60006124df33610dc7565b905080600003612502576040516373380d9960e01b815260040160405180910390fd5b6000600b546004546125149190612dd2565b9050818110156125375760405163bc6072f160e01b815260040160405180910390fd5b600a543360009081526006602090815260408083206003019390935560099052908120805484929061256a908490612de5565b9250508190555081600460008282546125839190612dd2565b909155505060015461259f906001600160a01b03163384612762565b6040805183815242602082015233917fc4e740509dbfae3377bc9925dd7bcc8aaba69cd730316216d76b2d24725c6366910160405180910390a25050611dfc6001600055565b60026000540361260857604051633ee5aeb560e01b815260040160405180910390fd5b6002600055565b60208101516060906000612622826126da565b90508061264257604051631c49f4d160e01b815260040160405180910390fd5b600080306001600160a01b03168660405161265d9190612fe0565b6000604051808303816000865af19150503d806000811461269a576040519150601f19603f3d011682016040523d82523d6000602084013e61269f565b606091505b5091509150816126d1578051156126b857805160208201fd5b6040516331d436c760e01b815260040160405180910390fd5b95945050505050565b60006001600160e01b0319821663329b926b60e11b148061270b57506001600160e01b0319821663524ddc2360e01b145b8061272657506001600160e01b03198216636a016a5f60e11b145b8061274157506001600160e01b03198216631e65711560e11b145b8061275c57506001600160e01b03198216631419bc4360e11b145b92915050565b6040516001600160a01b038381166024830152604482018390526127c191859182169063a9059cbb906064015b604051602081830303815290604052915060e01b6020820180516001600160e01b038381831617835250505050612805565b505050565b6040516001600160a01b0384811660248301528381166044830152606482018390526127ff9186918216906323b872dd9060840161278f565b50505050565b600080602060008451602086016000885af180612828576040513d6000823e3d81fd5b50506000513d9150811561284057806001141561284d565b6001600160a01b0384163b155b156127ff57604051635274afe760e01b81526001600160a01b038516600482015260240160405180910390fd5b60006020828403121561288c57600080fd5b5035919050565b60005b838110156128ae578181015183820152602001612896565b50506000910152565b600081518084526128cf816020860160208601612893565b601f01601f19169290920160200192915050565b8b81526001600160a01b038b1660208201526101606040820181905260009061290e8382018d6128b7565b90508281036060840152612922818c6128b7565b90508281036080840152612936818b6128b7565b60a0840199909952505060c081019590955260e085019390935261010084019190915261012083015215156101409091015295945050505050565b80356001600160a01b038116811461298857600080fd5b919050565b60006020828403121561299f57600080fd5b6129a882612971565b9392505050565b634e487b7160e01b600052604160045260246000fd5b600067ffffffffffffffff808411156129e0576129e06129af565b604051601f8501601f19908116603f01168101908282118183101715612a0857612a086129af565b81604052809350858152868686011115612a2157600080fd5b858560208301376000602087830101525050509392505050565b600082601f830112612a4c57600080fd5b6129a8838335602085016129c5565b60008060008060808587031215612a7157600080fd5b843567ffffffffffffffff80821115612a8957600080fd5b612a9588838901612a3b565b95506020870135915080821115612aab57600080fd5b612ab788838901612a3b565b94506040870135915080821115612acd57600080fd5b508501601f81018713612adf57600080fd5b612aee878235602084016129c5565b949793965093946060013593505050565b600080600060608486031215612b1457600080fd5b612b1d84612971565b9250612b2b60208501612971565b9150604084013567ffffffffffffffff811115612b4757600080fd5b612b5386828701612a3b565b9150509250925092565b60008060408385031215612b7057600080fd5b82359150612b8060208401612971565b90509250929050565b60008060408385031215612b9c57600080fd5b612ba583612971565b946020939093013593505050565b60008151808452602080850194506020840160005b83811015612be457815187529582019590820190600101612bc8565b509495945050505050565b6020815260006129a86020830184612bb3565b8035801515811461298857600080fd5b600060208284031215612c2457600080fd5b6129a882612c02565b60008060408385031215612c4057600080fd5b50508035926020909101359150565b604081526000612c626040830185612bb3565b905082151560208301529392505050565b6001600160a01b038916815261010060208201819052600090612c988382018b6128b7565b90508281036040840152612cac818a6128b7565b60608401989098525050608081019490945260a0840192909252151560c0830152151560e0909101529392505050565b60008060408385031215612cef57600080fd5b82359150612b8060208401612c02565b60008060008060808587031215612d1557600080fd5b612d1e85612971565b9350612d2c60208601612971565b925060408501359150606085013567ffffffffffffffff811115612d4f57600080fd5b612d5b87828801612a3b565b91505092959194509250565b600181811c90821680612d7b57607f821691505b602082108103612d9b57634e487b7160e01b600052602260045260246000fd5b50919050565b8215158152604060208201526000610e2660408301846128b7565b634e487b7160e01b600052601160045260246000fd5b8181038181111561275c5761275c612dbc565b8082018082111561275c5761275c612dbc565b634e487b7160e01b600052601260045260246000fd5b600082612e1d57612e1d612df8565b500490565b600082612e3157612e31612df8565b500690565b600060018201612e4857612e48612dbc565b5060010190565b601f8211156127c1576000816000526020600020601f850160051c81016020861015612e785750805b601f850160051c820191505b81811015612e9757828155600101612e84565b505050505050565b815167ffffffffffffffff811115612eb957612eb96129af565b612ecd81612ec78454612d67565b84612e4f565b602080601f831160018114612f025760008415612eea5750858301515b600019600386901b1c1916600185901b178555612e97565b600085815260208120601f198616915b82811015612f3157888601518255948401946001909101908401612f12565b5085821015612f4f5787850151600019600388901b60f8161c191681555b5050505050600190811b01905550565b604081526000612f7260408301856128b7565b90508260208301529392505050565b600060208284031215612f9357600080fd5b5051919050565b828152604060208201526000610e2660408301846128b7565b634e487b7160e01b600052603260045260246000fd5b808202811582820484141761275c5761275c612dbc565b60008251612ff2818460208701612893565b919091019291505056fea264697066735822122095d9b355c912e3af3b447397b10635bca602a28aa6c2188214e069726af2613364736f6c63430008170033",
  "linkReferences": {},
  "deployedLinkReferences": {}
}