{
  "_format": "hh-sol-artifact-1",
  "contractName": "TEMPL",
  "sourceName": "contracts/TEMPL.sol",
  "abi": [
    {
      "inputs": [
        {
          "internalType": "address",
          "name": "_priest",
          "type": "address"
        },
        {
          "internalType": "address",
          "name": "_token",
          "type": "address"
        },
        {
          "internalType": "uint256",
          "name": "_entryFee",
          "type": "uint256"
        }
      ],
      "stateMutability": "nonpayable",
      "type": "constructor"
    },
    {
      "anonymous": false,
      "inputs": [
        {
          "indexed": true,
          "internalType": "address",
          "name": "purchaser",
          "type": "address"
        },
        {
          "indexed": false,
          "internalType": "uint256",
          "name": "totalAmount",
          "type": "uint256"
        },
        {
          "indexed": false,
          "internalType": "uint256",
          "name": "burnedAmount",
          "type": "uint256"
        },
        {
          "indexed": false,
          "internalType": "uint256",
          "name": "treasuryAmount",
          "type": "uint256"
        },
        {
          "indexed": false,
          "internalType": "uint256",
          "name": "timestamp",
          "type": "uint256"
        },
        {
          "indexed": false,
          "internalType": "uint256",
          "name": "blockNumber",
          "type": "uint256"
        }
      ],
      "name": "AccessPurchased",
      "type": "event"
    },
    {
      "anonymous": false,
      "inputs": [
        {
          "indexed": true,
          "internalType": "address",
          "name": "token",
          "type": "address"
        },
        {
          "indexed": false,
          "internalType": "uint256",
          "name": "entryFee",
          "type": "uint256"
        }
      ],
      "name": "ConfigUpdated",
      "type": "event"
    },
    {
      "anonymous": false,
      "inputs": [
        {
          "indexed": false,
          "internalType": "bool",
          "name": "isPaused",
          "type": "bool"
        }
      ],
      "name": "ContractPaused",
      "type": "event"
    },
    {
      "anonymous": false,
      "inputs": [
        {
          "indexed": true,
          "internalType": "address",
          "name": "priest",
          "type": "address"
        },
        {
          "indexed": true,
          "internalType": "address",
          "name": "recipient",
          "type": "address"
        },
        {
          "indexed": false,
          "internalType": "uint256",
          "name": "amount",
          "type": "uint256"
        },
        {
          "indexed": false,
          "internalType": "uint256",
          "name": "timestamp",
          "type": "uint256"
        }
      ],
      "name": "TreasuryWithdrawn",
      "type": "event"
    },
    {
      "inputs": [],
      "name": "accessToken",
      "outputs": [
        {
          "internalType": "address",
          "name": "",
          "type": "address"
        }
      ],
      "stateMutability": "view",
      "type": "function"
    },
    {
      "inputs": [],
      "name": "entryFee",
      "outputs": [
        {
          "internalType": "uint256",
          "name": "",
          "type": "uint256"
        }
      ],
      "stateMutability": "view",
      "type": "function"
    },
    {
      "inputs": [],
      "name": "getConfig",
      "outputs": [
        {
          "internalType": "address",
          "name": "token",
          "type": "address"
        },
        {
          "internalType": "uint256",
          "name": "fee",
          "type": "uint256"
        },
        {
          "internalType": "bool",
          "name": "isPaused",
          "type": "bool"
        },
        {
          "internalType": "uint256",
          "name": "purchases",
          "type": "uint256"
        },
        {
          "internalType": "uint256",
          "name": "treasury",
          "type": "uint256"
        }
      ],
      "stateMutability": "view",
      "type": "function"
    },
    {
      "inputs": [
        {
          "internalType": "address",
          "name": "user",
          "type": "address"
        }
      ],
      "name": "getPurchaseDetails",
      "outputs": [
        {
          "internalType": "bool",
          "name": "purchased",
          "type": "bool"
        },
        {
          "internalType": "uint256",
          "name": "timestamp",
          "type": "uint256"
        },
        {
          "internalType": "uint256",
          "name": "blockNum",
          "type": "uint256"
        }
      ],
      "stateMutability": "view",
      "type": "function"
    },
    {
      "inputs": [],
      "name": "getTreasuryInfo",
      "outputs": [
        {
          "internalType": "uint256",
          "name": "balance",
          "type": "uint256"
        },
        {
          "internalType": "uint256",
          "name": "totalReceived",
          "type": "uint256"
        },
        {
          "internalType": "uint256",
          "name": "totalBurnedAmount",
          "type": "uint256"
        },
        {
          "internalType": "address",
          "name": "priestAddress",
          "type": "address"
        }
      ],
      "stateMutability": "view",
      "type": "function"
    },
    {
      "inputs": [
        {
          "internalType": "address",
          "name": "user",
          "type": "address"
        }
      ],
      "name": "hasAccess",
      "outputs": [
        {
          "internalType": "bool",
          "name": "",
          "type": "bool"
        }
      ],
      "stateMutability": "view",
      "type": "function"
    },
    {
      "inputs": [
        {
          "internalType": "address",
          "name": "",
          "type": "address"
        }
      ],
      "name": "hasPurchased",
      "outputs": [
        {
          "internalType": "bool",
          "name": "",
          "type": "bool"
        }
      ],
      "stateMutability": "view",
      "type": "function"
    },
    {
      "inputs": [],
      "name": "paused",
      "outputs": [
        {
          "internalType": "bool",
          "name": "",
          "type": "bool"
        }
      ],
      "stateMutability": "view",
      "type": "function"
    },
    {
      "inputs": [],
      "name": "priest",
      "outputs": [
        {
          "internalType": "address",
          "name": "",
          "type": "address"
        }
      ],
      "stateMutability": "view",
      "type": "function"
    },
    {
      "inputs": [],
      "name": "purchaseAccess",
      "outputs": [],
      "stateMutability": "nonpayable",
      "type": "function"
    },
    {
      "inputs": [
        {
          "internalType": "address",
          "name": "",
          "type": "address"
        }
      ],
      "name": "purchaseBlock",
      "outputs": [
        {
          "internalType": "uint256",
          "name": "",
          "type": "uint256"
        }
      ],
      "stateMutability": "view",
      "type": "function"
    },
    {
      "inputs": [
        {
          "internalType": "address",
          "name": "",
          "type": "address"
        }
      ],
      "name": "purchaseTimestamp",
      "outputs": [
        {
          "internalType": "uint256",
          "name": "",
          "type": "uint256"
        }
      ],
      "stateMutability": "view",
      "type": "function"
    },
    {
      "inputs": [
        {
          "internalType": "address",
          "name": "token",
          "type": "address"
        },
        {
          "internalType": "address",
          "name": "to",
          "type": "address"
        }
      ],
      "name": "recoverWrongToken",
      "outputs": [],
      "stateMutability": "nonpayable",
      "type": "function"
    },
    {
      "inputs": [
        {
          "internalType": "bool",
          "name": "_paused",
          "type": "bool"
        }
      ],
      "name": "setPaused",
      "outputs": [],
      "stateMutability": "nonpayable",
      "type": "function"
    },
    {
      "inputs": [],
      "name": "totalBurned",
      "outputs": [
        {
          "internalType": "uint256",
          "name": "",
          "type": "uint256"
        }
      ],
      "stateMutability": "view",
      "type": "function"
    },
    {
      "inputs": [],
      "name": "totalPurchases",
      "outputs": [
        {
          "internalType": "uint256",
          "name": "",
          "type": "uint256"
        }
      ],
      "stateMutability": "view",
      "type": "function"
    },
    {
      "inputs": [],
      "name": "totalToTreasury",
      "outputs": [
        {
          "internalType": "uint256",
          "name": "",
          "type": "uint256"
        }
      ],
      "stateMutability": "view",
      "type": "function"
    },
    {
      "inputs": [],
      "name": "treasuryBalance",
      "outputs": [
        {
          "internalType": "uint256",
          "name": "",
          "type": "uint256"
        }
      ],
      "stateMutability": "view",
      "type": "function"
    },
    {
      "inputs": [
        {
          "internalType": "address",
          "name": "_token",
          "type": "address"
        },
        {
          "internalType": "uint256",
          "name": "_entryFee",
          "type": "uint256"
        }
      ],
      "name": "updateConfig",
      "outputs": [],
      "stateMutability": "nonpayable",
      "type": "function"
    },
    {
      "inputs": [
        {
          "internalType": "address",
          "name": "recipient",
          "type": "address"
        }
      ],
      "name": "withdrawAllTreasury",
      "outputs": [],
      "stateMutability": "nonpayable",
      "type": "function"
    },
    {
      "inputs": [
        {
          "internalType": "address",
          "name": "recipient",
          "type": "address"
        },
        {
          "internalType": "uint256",
          "name": "amount",
          "type": "uint256"
        }
      ],
      "name": "withdrawTreasury",
      "outputs": [],
      "stateMutability": "nonpayable",
      "type": "function"
    }
  ],
  "bytecode": "0x60a06040523480156200001157600080fd5b50604051620013f1380380620013f18339810160408190526200003491620001fc565b6001600160a01b038316620000905760405162461bcd60e51b815260206004820152601660248201527f496e76616c69642070726965737420616464726573730000000000000000000060448201526064015b60405180910390fd5b6001600160a01b038216620000e85760405162461bcd60e51b815260206004820152601560248201527f496e76616c696420746f6b656e20616464726573730000000000000000000000604482015260640162000087565b600081116200013a5760405162461bcd60e51b815260206004820181905260248201527f456e74727920666565206d7573742062652067726561746572207468616e2030604482015260640162000087565b620001476002826200023d565b15620001a55760405162461bcd60e51b815260206004820152602660248201527f456e74727920666565206d757374206265206576656e20666f722035302f3530604482015265081cdc1b1a5d60d21b606482015260840162000087565b6001600160a01b03928316608052600080546001600160a01b03191692909316919091179091556001556003805460ff1916905562000260565b80516001600160a01b0381168114620001f757600080fd5b919050565b6000806000606084860312156200021257600080fd5b6200021d84620001df565b92506200022d60208501620001df565b9150604084015190509250925092565b6000826200025b57634e487b7160e01b600052601260045260246000fd5b500690565b60805161114b620002a6600039600081816102d201528181610320015281816103ed0152818161062f015281816106be015281816107ed0152610e2d015261114b6000f3fe608060405234801561001057600080fd5b50600436106101375760003560e01c806376755118116100b8578063c1b57edb1161007c578063c1b57edb1461030c578063c293947114610315578063c3f909d414610368578063d89135cd146103b3578063e243c5fb146103bc578063f4f7596a146103cf57600080fd5b8063767551181461025657806390118fb41461027657806395a078e81461029957806399e288d8146102c5578063bebc8fc0146102cd57600080fd5b80635962a941116100ff5780635962a9411461019c5780635c975abb146101a55780635e391dfe146101c257806364653f29146101e25780636758f49b1461024357600080fd5b8063072ea61c1461013c5780630d86419a1461015857806316c38b3c1461016d57806318a7406414610180578063313dab2014610193575b600080fd5b61014560015481565b6040519081526020015b60405180910390f35b61016b610166366004610f37565b6103e2565b005b61016b61017b366004610f72565b610624565b61016b61018e366004610f37565b6106b3565b61014560025481565b61014560075481565b6003546101b29060ff1681565b604051901515815260200161014f565b6101456101d0366004610f96565b60066020526000908152604090205481565b6102266101f0366004610f96565b6001600160a01b03166000908152600460209081526040808320546005835281842054600690935292205460ff90921692909190565b60408051931515845260208401929092529082015260600161014f565b61016b610251366004610fb1565b6107e2565b610145610264366004610f96565b60056020526000908152604090205481565b6101b2610284366004610f96565b60046020526000908152604090205460ff1681565b6101b26102a7366004610f96565b6001600160a01b031660009081526004602052604090205460ff1690565b61016b610a35565b6102f47f000000000000000000000000000000000000000000000000000000000000000081565b6040516001600160a01b03909116815260200161014f565b61014560095481565b6002546009546008547f0000000000000000000000000000000000000000000000000000000000000000604080519485526020850193909352918301526001600160a01b0316606082015260800161014f565b600054600154600354600754600254604080516001600160a01b039096168652602086019490945260ff9092161515928401929092526060830191909152608082015260a00161014f565b61014560085481565b6000546102f4906001600160a01b031681565b61016b6103dd366004610f96565b610e22565b336001600160a01b037f000000000000000000000000000000000000000000000000000000000000000016146104335760405162461bcd60e51b815260040161042a90610fe4565b60405180910390fd5b6001600160a01b0382166104595760405162461bcd60e51b815260040161042a9061101b565b600081116104a95760405162461bcd60e51b815260206004820152601d60248201527f416d6f756e74206d7573742062652067726561746572207468616e2030000000604482015260640161042a565b6002548111156104fb5760405162461bcd60e51b815260206004820152601d60248201527f496e73756666696369656e742074726561737572792062616c616e6365000000604482015260640161042a565b806002600082825461050d919061105c565b90915550506000805460405163a9059cbb60e01b81526001600160a01b038581166004830152602482018590529091169063a9059cbb906044015b6020604051808303816000875af1158015610567573d6000803e3d6000fd5b505050506040513d601f19601f8201168201806040525081019061058b9190611075565b9050806105da5760405162461bcd60e51b815260206004820152601a60248201527f5472656173757279207769746864726177616c206661696c6564000000000000604482015260640161042a565b604080518381524260208201526001600160a01b0385169133917f31a8092046a766d50c60467d927f8769a20162fd47024a64bb365aac647eb0df910160405180910390a3505050565b336001600160a01b037f0000000000000000000000000000000000000000000000000000000000000000161461066c5760405162461bcd60e51b815260040161042a90610fe4565b6003805460ff19168215159081179091556040519081527f752d7e161ff5146f80e3820893176eb40532811e5e20400dfdde57455213706a9060200160405180910390a150565b336001600160a01b037f000000000000000000000000000000000000000000000000000000000000000016146106fb5760405162461bcd60e51b815260040161042a90610fe4565b6001600160a01b0382161561072657600080546001600160a01b0319166001600160a01b0384161790555b8015610799576107376002826110a8565b156107935760405162461bcd60e51b815260206004820152602660248201527f456e74727920666565206d757374206265206576656e20666f722035302f3530604482015265081cdc1b1a5d60d21b606482015260840161042a565b60018190555b6000546001546040519081526001600160a01b03909116907faf8839d80c9b3bbf95c97465eb8c8348db4098f5c15af186c3b425b1129981179060200160405180910390a25050565b336001600160a01b037f0000000000000000000000000000000000000000000000000000000000000000161461082a5760405162461bcd60e51b815260040161042a90610fe4565b6000546001600160a01b03908116908316036108975760405162461bcd60e51b815260206004820152602660248201527f557365207769746864726177547265617375727920666f722061636365737320604482015265746f6b656e7360d01b606482015260840161042a565b6001600160a01b0381166108bd5760405162461bcd60e51b815260040161042a9061101b565b6040516370a0823160e01b81523060048201526000906001600160a01b038416906370a0823190602401602060405180830381865afa158015610904573d6000803e3d6000fd5b505050506040513d601f19601f8201168201806040525081019061092891906110bc565b9050600081116109715760405162461bcd60e51b81526020600482015260146024820152732737903a37b5b2b739903a37903932b1b7bb32b960611b604482015260640161042a565b60405163a9059cbb60e01b81526001600160a01b038381166004830152602482018390526000919085169063a9059cbb906044016020604051808303816000875af11580156109c4573d6000803e3d6000fd5b505050506040513d601f19601f820116820180604052508101906109e89190611075565b905080610a2f5760405162461bcd60e51b8152602060048201526015602482015274151bdad95b881c9958dbdd995c9e4819985a5b1959605a1b604482015260640161042a565b50505050565b60035460ff1615610a7d5760405162461bcd60e51b815260206004820152601260248201527110dbdb9d1c9858dd081a5cc81c185d5cd95960721b604482015260640161042a565b3360009081526004602052604090205460ff1615610add5760405162461bcd60e51b815260206004820152601860248201527f416c726561647920707572636861736564206163636573730000000000000000604482015260640161042a565b60006002600154610aee91906110d5565b6001546000546040516370a0823160e01b815233600482015292935090916001600160a01b03909116906370a0823190602401602060405180830381865afa158015610b3e573d6000803e3d6000fd5b505050506040513d601f19601f82011682018060405250810190610b6291906110bc565b1015610bb05760405162461bcd60e51b815260206004820152601a60248201527f496e73756666696369656e7420746f6b656e2062616c616e6365000000000000604482015260640161042a565b600080546040516323b872dd60e01b8152336004820152306024820152604481018490526001600160a01b03909116906323b872dd906064016020604051808303816000875af1158015610c08573d6000803e3d6000fd5b505050506040513d601f19601f82011682018060405250810190610c2c9190611075565b905080610c7b5760405162461bcd60e51b815260206004820152601860248201527f5472656173757279207472616e73666572206661696c65640000000000000000604482015260640161042a565b600080546040516323b872dd60e01b815233600482015261dead6024820152604481018590526001600160a01b03909116906323b872dd906064016020604051808303816000875af1158015610cd5573d6000803e3d6000fd5b505050506040513d601f19601f82011682018060405250810190610cf99190611075565b905080610d3f5760405162461bcd60e51b8152602060048201526014602482015273109d5c9b881d1c985b9cd9995c8819985a5b195960621b604482015260640161042a565b8260026000828254610d5191906110e9565b925050819055508260096000828254610d6a91906110e9565b925050819055508260086000828254610d8391906110e9565b9091555050336000908152600460209081526040808320805460ff1916600117905560058252808320429055600690915281204390556007805491610dc7836110fc565b90915550506001546040805191825260208201859052810184905242606082015243608082015233907f2679e52361ecc4e26362ed511dbc609d2bcaf0d8e43d01a6d9fda6f6b8b10bbc9060a00160405180910390a2505050565b336001600160a01b037f00000000000000000000000000000000000000000000000000000000000000001614610e6a5760405162461bcd60e51b815260040161042a90610fe4565b6001600160a01b038116610e905760405162461bcd60e51b815260040161042a9061101b565b600060025411610ed65760405162461bcd60e51b81526020600482015260116024820152704e6f2074726561737572792066756e647360781b604482015260640161042a565b60028054600091829055815460405163a9059cbb60e01b81526001600160a01b038581166004830152602482018490529293929091169063a9059cbb90604401610548565b80356001600160a01b0381168114610f3257600080fd5b919050565b60008060408385031215610f4a57600080fd5b610f5383610f1b565b946020939093013593505050565b8015158114610f6f57600080fd5b50565b600060208284031215610f8457600080fd5b8135610f8f81610f61565b9392505050565b600060208284031215610fa857600080fd5b610f8f82610f1b565b60008060408385031215610fc457600080fd5b610fcd83610f1b565b9150610fdb60208401610f1b565b90509250929050565b60208082526019908201527f4f6e6c79207072696573742063616e2063616c6c207468697300000000000000604082015260600190565b602080825260119082015270125b9d985b1a59081c9958da5c1a595b9d607a1b604082015260600190565b634e487b7160e01b600052601160045260246000fd5b8181038181111561106f5761106f611046565b92915050565b60006020828403121561108757600080fd5b8151610f8f81610f61565b634e487b7160e01b600052601260045260246000fd5b6000826110b7576110b7611092565b500690565b6000602082840312156110ce57600080fd5b5051919050565b6000826110e4576110e4611092565b500490565b8082018082111561106f5761106f611046565b60006001820161110e5761110e611046565b506001019056fea26469706673582212207af5fb0cb3b06e33184fdd40e54cc548dafc5e7d6f3179a3b8f76a8447bc34ae64736f6c63430008130033",
  "linkReferences": {},
  "deployedLinkReferences": {}
}