{
  "_format": "hh-sol-artifact-1",
  "contractName": "TEMPL",
  "sourceName": "contracts/TEMPL.sol",
  "abi": [
    {
      "inputs": [
        {
          "internalType": "address",
          "name": "_priest",
          "type": "address"
        },
        {
          "internalType": "address",
          "name": "_protocolFeeRecipient",
          "type": "address"
        },
        {
          "internalType": "address",
          "name": "_token",
          "type": "address"
        },
        {
          "internalType": "uint256",
          "name": "_entryFee",
          "type": "uint256"
        },
        {
          "internalType": "uint256",
          "name": "_priestVoteWeight",
          "type": "uint256"
        },
        {
          "internalType": "uint256",
          "name": "_priestWeightThreshold",
          "type": "uint256"
        }
      ],
      "stateMutability": "nonpayable",
      "type": "constructor"
    },
    {
      "anonymous": false,
      "inputs": [
        {
          "indexed": true,
          "internalType": "address",
          "name": "purchaser",
          "type": "address"
        },
        {
          "indexed": false,
          "internalType": "uint256",
          "name": "totalAmount",
          "type": "uint256"
        },
        {
          "indexed": false,
          "internalType": "uint256",
          "name": "burnedAmount",
          "type": "uint256"
        },
        {
          "indexed": false,
          "internalType": "uint256",
          "name": "treasuryAmount",
          "type": "uint256"
        },
        {
          "indexed": false,
          "internalType": "uint256",
          "name": "memberPoolAmount",
          "type": "uint256"
        },
        {
          "indexed": false,
          "internalType": "uint256",
          "name": "protocolAmount",
          "type": "uint256"
        },
        {
          "indexed": false,
          "internalType": "uint256",
          "name": "timestamp",
          "type": "uint256"
        },
        {
          "indexed": false,
          "internalType": "uint256",
          "name": "blockNumber",
          "type": "uint256"
        },
        {
          "indexed": false,
          "internalType": "uint256",
          "name": "purchaseId",
          "type": "uint256"
        }
      ],
      "name": "AccessPurchased",
      "type": "event"
    },
    {
      "anonymous": false,
      "inputs": [
        {
          "indexed": true,
          "internalType": "address",
          "name": "token",
          "type": "address"
        },
        {
          "indexed": false,
          "internalType": "uint256",
          "name": "entryFee",
          "type": "uint256"
        }
      ],
      "name": "ConfigUpdated",
      "type": "event"
    },
    {
      "anonymous": false,
      "inputs": [
        {
          "indexed": false,
          "internalType": "bool",
          "name": "isPaused",
          "type": "bool"
        }
      ],
      "name": "ContractPaused",
      "type": "event"
    },
    {
      "anonymous": false,
      "inputs": [
        {
          "indexed": true,
          "internalType": "address",
          "name": "member",
          "type": "address"
        },
        {
          "indexed": false,
          "internalType": "uint256",
          "name": "amount",
          "type": "uint256"
        },
        {
          "indexed": false,
          "internalType": "uint256",
          "name": "timestamp",
          "type": "uint256"
        }
      ],
      "name": "MemberPoolClaimed",
      "type": "event"
    },
    {
      "anonymous": false,
      "inputs": [
        {
          "indexed": true,
          "internalType": "uint256",
          "name": "proposalId",
          "type": "uint256"
        },
        {
          "indexed": true,
          "internalType": "address",
          "name": "proposer",
          "type": "address"
        },
        {
          "indexed": false,
          "internalType": "string",
          "name": "title",
          "type": "string"
        },
        {
          "indexed": false,
          "internalType": "uint256",
          "name": "endTime",
          "type": "uint256"
        }
      ],
      "name": "ProposalCreated",
      "type": "event"
    },
    {
      "anonymous": false,
      "inputs": [
        {
          "indexed": true,
          "internalType": "uint256",
          "name": "proposalId",
          "type": "uint256"
        },
        {
          "indexed": false,
          "internalType": "bool",
          "name": "success",
          "type": "bool"
        },
        {
          "indexed": false,
          "internalType": "bytes",
          "name": "returnData",
          "type": "bytes"
        }
      ],
      "name": "ProposalExecuted",
      "type": "event"
    },
    {
      "anonymous": false,
      "inputs": [
        {
          "indexed": true,
          "internalType": "uint256",
          "name": "proposalId",
          "type": "uint256"
        },
        {
          "indexed": true,
          "internalType": "address",
          "name": "recipient",
          "type": "address"
        },
        {
          "indexed": false,
          "internalType": "uint256",
          "name": "amount",
          "type": "uint256"
        },
        {
          "indexed": false,
          "internalType": "string",
          "name": "description",
          "type": "string"
        }
      ],
      "name": "TreasuryAction",
      "type": "event"
    },
    {
      "anonymous": false,
      "inputs": [
        {
          "indexed": true,
          "internalType": "address",
          "name": "priest",
          "type": "address"
        },
        {
          "indexed": true,
          "internalType": "address",
          "name": "recipient",
          "type": "address"
        },
        {
          "indexed": false,
          "internalType": "uint256",
          "name": "amount",
          "type": "uint256"
        },
        {
          "indexed": false,
          "internalType": "uint256",
          "name": "timestamp",
          "type": "uint256"
        }
      ],
      "name": "TreasuryWithdrawn",
      "type": "event"
    },
    {
      "anonymous": false,
      "inputs": [
        {
          "indexed": true,
          "internalType": "uint256",
          "name": "proposalId",
          "type": "uint256"
        },
        {
          "indexed": true,
          "internalType": "address",
          "name": "voter",
          "type": "address"
        },
        {
          "indexed": false,
          "internalType": "bool",
          "name": "support",
          "type": "bool"
        },
        {
          "indexed": false,
          "internalType": "uint256",
          "name": "timestamp",
          "type": "uint256"
        }
      ],
      "name": "VoteCast",
      "type": "event"
    },
    {
      "inputs": [],
      "name": "DEFAULT_VOTING_PERIOD",
      "outputs": [
        {
          "internalType": "uint256",
          "name": "",
          "type": "uint256"
        }
      ],
      "stateMutability": "view",
      "type": "function"
    },
    {
      "inputs": [],
      "name": "MAX_VOTING_PERIOD",
      "outputs": [
        {
          "internalType": "uint256",
          "name": "",
          "type": "uint256"
        }
      ],
      "stateMutability": "view",
      "type": "function"
    },
    {
      "inputs": [],
      "name": "MIN_VOTING_PERIOD",
      "outputs": [
        {
          "internalType": "uint256",
          "name": "",
          "type": "uint256"
        }
      ],
      "stateMutability": "view",
      "type": "function"
    },
    {
      "inputs": [],
      "name": "accessToken",
      "outputs": [
        {
          "internalType": "address",
          "name": "",
          "type": "address"
        }
      ],
      "stateMutability": "view",
      "type": "function"
    },
    {
      "inputs": [
        {
          "internalType": "address",
          "name": "",
          "type": "address"
        }
      ],
      "name": "activeProposalId",
      "outputs": [
        {
          "internalType": "uint256",
          "name": "",
          "type": "uint256"
        }
      ],
      "stateMutability": "view",
      "type": "function"
    },
    {
      "inputs": [],
      "name": "claimMemberPool",
      "outputs": [],
      "stateMutability": "nonpayable",
      "type": "function"
    },
    {
      "inputs": [
        {
          "internalType": "string",
          "name": "_title",
          "type": "string"
        },
        {
          "internalType": "string",
          "name": "_description",
          "type": "string"
        },
        {
          "internalType": "bytes",
          "name": "_callData",
          "type": "bytes"
        },
        {
          "internalType": "uint256",
          "name": "_votingPeriod",
          "type": "uint256"
        }
      ],
      "name": "createProposal",
      "outputs": [
        {
          "internalType": "uint256",
          "name": "",
          "type": "uint256"
        }
      ],
      "stateMutability": "nonpayable",
      "type": "function"
    },
    {
      "inputs": [],
      "name": "entryFee",
      "outputs": [
        {
          "internalType": "uint256",
          "name": "",
          "type": "uint256"
        }
      ],
      "stateMutability": "view",
      "type": "function"
    },
    {
      "inputs": [
        {
          "internalType": "address",
          "name": "target",
          "type": "address"
        },
        {
          "internalType": "uint256",
          "name": "value",
          "type": "uint256"
        },
        {
          "internalType": "bytes",
          "name": "data",
          "type": "bytes"
        }
      ],
      "name": "executeDAO",
      "outputs": [
        {
          "internalType": "bytes",
          "name": "",
          "type": "bytes"
        }
      ],
      "stateMutability": "nonpayable",
      "type": "function"
    },
    {
      "inputs": [
        {
          "internalType": "uint256",
          "name": "_proposalId",
          "type": "uint256"
        }
      ],
      "name": "executeProposal",
      "outputs": [],
      "stateMutability": "nonpayable",
      "type": "function"
    },
    {
      "inputs": [],
      "name": "getActiveProposals",
      "outputs": [
        {
          "internalType": "uint256[]",
          "name": "",
          "type": "uint256[]"
        }
      ],
      "stateMutability": "view",
      "type": "function"
    },
    {
      "inputs": [
        {
          "internalType": "uint256",
          "name": "offset",
          "type": "uint256"
        },
        {
          "internalType": "uint256",
          "name": "limit",
          "type": "uint256"
        }
      ],
      "name": "getActiveProposalsPaginated",
      "outputs": [
        {
          "internalType": "uint256[]",
          "name": "proposalIds",
          "type": "uint256[]"
        },
        {
          "internalType": "bool",
          "name": "hasMore",
          "type": "bool"
        }
      ],
      "stateMutability": "view",
      "type": "function"
    },
    {
      "inputs": [
        {
          "internalType": "address",
          "name": "member",
          "type": "address"
        }
      ],
      "name": "getClaimablePoolAmount",
      "outputs": [
        {
          "internalType": "uint256",
          "name": "",
          "type": "uint256"
        }
      ],
      "stateMutability": "view",
      "type": "function"
    },
    {
      "inputs": [],
      "name": "getConfig",
      "outputs": [
        {
          "internalType": "address",
          "name": "token",
          "type": "address"
        },
        {
          "internalType": "uint256",
          "name": "fee",
          "type": "uint256"
        },
        {
          "internalType": "bool",
          "name": "isPaused",
          "type": "bool"
        },
        {
          "internalType": "uint256",
          "name": "purchases",
          "type": "uint256"
        },
        {
          "internalType": "uint256",
          "name": "treasury",
          "type": "uint256"
        },
        {
          "internalType": "uint256",
          "name": "pool",
          "type": "uint256"
        }
      ],
      "stateMutability": "view",
      "type": "function"
    },
    {
      "inputs": [],
      "name": "getMemberCount",
      "outputs": [
        {
          "internalType": "uint256",
          "name": "",
          "type": "uint256"
        }
      ],
      "stateMutability": "view",
      "type": "function"
    },
    {
      "inputs": [
        {
          "internalType": "uint256",
          "name": "_proposalId",
          "type": "uint256"
        }
      ],
      "name": "getProposal",
      "outputs": [
        {
          "internalType": "address",
          "name": "proposer",
          "type": "address"
        },
        {
          "internalType": "string",
          "name": "title",
          "type": "string"
        },
        {
          "internalType": "string",
          "name": "description",
          "type": "string"
        },
        {
          "internalType": "uint256",
          "name": "yesVotes",
          "type": "uint256"
        },
        {
          "internalType": "uint256",
          "name": "noVotes",
          "type": "uint256"
        },
        {
          "internalType": "uint256",
          "name": "endTime",
          "type": "uint256"
        },
        {
          "internalType": "bool",
          "name": "executed",
          "type": "bool"
        },
        {
          "internalType": "bool",
          "name": "passed",
          "type": "bool"
        }
      ],
      "stateMutability": "view",
      "type": "function"
    },
    {
      "inputs": [
        {
          "internalType": "address",
          "name": "user",
          "type": "address"
        }
      ],
      "name": "getPurchaseDetails",
      "outputs": [
        {
          "internalType": "bool",
          "name": "purchased",
          "type": "bool"
        },
        {
          "internalType": "uint256",
          "name": "timestamp",
          "type": "uint256"
        },
        {
          "internalType": "uint256",
          "name": "blockNum",
          "type": "uint256"
        }
      ],
      "stateMutability": "view",
      "type": "function"
    },
    {
      "inputs": [],
      "name": "getTreasuryInfo",
      "outputs": [
        {
          "internalType": "uint256",
          "name": "treasury",
          "type": "uint256"
        },
        {
          "internalType": "uint256",
          "name": "memberPool",
          "type": "uint256"
        },
        {
          "internalType": "uint256",
          "name": "totalReceived",
          "type": "uint256"
        },
        {
          "internalType": "uint256",
          "name": "totalBurnedAmount",
          "type": "uint256"
        },
        {
          "internalType": "uint256",
          "name": "totalProtocolFees",
          "type": "uint256"
        },
        {
          "internalType": "address",
          "name": "protocolAddress",
          "type": "address"
        }
      ],
      "stateMutability": "view",
      "type": "function"
    },
    {
      "inputs": [
        {
          "internalType": "address",
          "name": "voter",
          "type": "address"
        }
      ],
      "name": "getVoteWeight",
      "outputs": [
        {
          "internalType": "uint256",
          "name": "",
          "type": "uint256"
        }
      ],
      "stateMutability": "view",
      "type": "function"
    },
    {
      "inputs": [
        {
          "internalType": "address",
          "name": "user",
          "type": "address"
        }
      ],
      "name": "hasAccess",
      "outputs": [
        {
          "internalType": "bool",
          "name": "",
          "type": "bool"
        }
      ],
      "stateMutability": "view",
      "type": "function"
    },
    {
      "inputs": [
        {
          "internalType": "address",
          "name": "",
          "type": "address"
        }
      ],
      "name": "hasActiveProposal",
      "outputs": [
        {
          "internalType": "bool",
          "name": "",
          "type": "bool"
        }
      ],
      "stateMutability": "view",
      "type": "function"
    },
    {
      "inputs": [
        {
          "internalType": "address",
          "name": "",
          "type": "address"
        }
      ],
      "name": "hasPurchased",
      "outputs": [
        {
          "internalType": "bool",
          "name": "",
          "type": "bool"
        }
      ],
      "stateMutability": "view",
      "type": "function"
    },
    {
      "inputs": [
        {
          "internalType": "uint256",
          "name": "_proposalId",
          "type": "uint256"
        },
        {
          "internalType": "address",
          "name": "_voter",
          "type": "address"
        }
      ],
      "name": "hasVoted",
      "outputs": [
        {
          "internalType": "bool",
          "name": "voted",
          "type": "bool"
        },
        {
          "internalType": "bool",
          "name": "support",
          "type": "bool"
        }
      ],
      "stateMutability": "view",
      "type": "function"
    },
    {
      "inputs": [
        {
          "internalType": "address",
          "name": "",
          "type": "address"
        }
      ],
      "name": "memberIndex",
      "outputs": [
        {
          "internalType": "uint256",
          "name": "",
          "type": "uint256"
        }
      ],
      "stateMutability": "view",
      "type": "function"
    },
    {
      "inputs": [],
      "name": "memberPoolBalance",
      "outputs": [
        {
          "internalType": "uint256",
          "name": "",
          "type": "uint256"
        }
      ],
      "stateMutability": "view",
      "type": "function"
    },
    {
      "inputs": [
        {
          "internalType": "address",
          "name": "",
          "type": "address"
        }
      ],
      "name": "memberPoolClaims",
      "outputs": [
        {
          "internalType": "uint256",
          "name": "",
          "type": "uint256"
        }
      ],
      "stateMutability": "view",
      "type": "function"
    },
    {
      "inputs": [
        {
          "internalType": "uint256",
          "name": "",
          "type": "uint256"
        }
      ],
      "name": "members",
      "outputs": [
        {
          "internalType": "address",
          "name": "",
          "type": "address"
        }
      ],
      "stateMutability": "view",
      "type": "function"
    },
    {
      "inputs": [],
      "name": "paused",
      "outputs": [
        {
          "internalType": "bool",
          "name": "",
          "type": "bool"
        }
      ],
      "stateMutability": "view",
      "type": "function"
    },
    {
      "inputs": [
        {
          "internalType": "uint256",
          "name": "",
          "type": "uint256"
        }
      ],
      "name": "poolDeposits",
      "outputs": [
        {
          "internalType": "uint256",
          "name": "",
          "type": "uint256"
        }
      ],
      "stateMutability": "view",
      "type": "function"
    },
    {
      "inputs": [],
      "name": "priest",
      "outputs": [
        {
          "internalType": "address",
          "name": "",
          "type": "address"
        }
      ],
      "stateMutability": "view",
      "type": "function"
    },
    {
      "inputs": [],
      "name": "priestVoteWeight",
      "outputs": [
        {
          "internalType": "uint256",
          "name": "",
          "type": "uint256"
        }
      ],
      "stateMutability": "view",
      "type": "function"
    },
    {
      "inputs": [],
      "name": "priestWeightThreshold",
      "outputs": [
        {
          "internalType": "uint256",
          "name": "",
          "type": "uint256"
        }
      ],
      "stateMutability": "view",
      "type": "function"
    },
    {
      "inputs": [],
      "name": "proposalCount",
      "outputs": [
        {
          "internalType": "uint256",
          "name": "",
          "type": "uint256"
        }
      ],
      "stateMutability": "view",
      "type": "function"
    },
    {
      "inputs": [
        {
          "internalType": "uint256",
          "name": "",
          "type": "uint256"
        }
      ],
      "name": "proposals",
      "outputs": [
        {
          "internalType": "uint256",
          "name": "id",
          "type": "uint256"
        },
        {
          "internalType": "address",
          "name": "proposer",
          "type": "address"
        },
        {
          "internalType": "string",
          "name": "title",
          "type": "string"
        },
        {
          "internalType": "string",
          "name": "description",
          "type": "string"
        },
        {
          "internalType": "bytes",
          "name": "callData",
          "type": "bytes"
        },
        {
          "internalType": "uint256",
          "name": "yesVotes",
          "type": "uint256"
        },
        {
          "internalType": "uint256",
          "name": "noVotes",
          "type": "uint256"
        },
        {
          "internalType": "uint256",
          "name": "endTime",
          "type": "uint256"
        },
        {
          "internalType": "uint256",
          "name": "createdAt",
          "type": "uint256"
        },
        {
          "internalType": "uint256",
          "name": "eligibleVoters",
          "type": "uint256"
        },
        {
          "internalType": "bool",
          "name": "executed",
          "type": "bool"
        }
      ],
      "stateMutability": "view",
      "type": "function"
    },
    {
      "inputs": [],
      "name": "protocolFeeRecipient",
      "outputs": [
        {
          "internalType": "address",
          "name": "",
          "type": "address"
        }
      ],
      "stateMutability": "view",
      "type": "function"
    },
    {
      "inputs": [],
      "name": "purchaseAccess",
      "outputs": [],
      "stateMutability": "nonpayable",
      "type": "function"
    },
    {
      "inputs": [
        {
          "internalType": "address",
          "name": "",
          "type": "address"
        }
      ],
      "name": "purchaseBlock",
      "outputs": [
        {
          "internalType": "uint256",
          "name": "",
          "type": "uint256"
        }
      ],
      "stateMutability": "view",
      "type": "function"
    },
    {
      "inputs": [
        {
          "internalType": "address",
          "name": "",
          "type": "address"
        }
      ],
      "name": "purchaseTimestamp",
      "outputs": [
        {
          "internalType": "uint256",
          "name": "",
          "type": "uint256"
        }
      ],
      "stateMutability": "view",
      "type": "function"
    },
    {
      "inputs": [
        {
          "internalType": "bool",
          "name": "",
          "type": "bool"
        }
      ],
      "name": "setPaused",
      "outputs": [],
      "stateMutability": "pure",
      "type": "function"
    },
    {
      "inputs": [
        {
          "internalType": "bool",
          "name": "_paused",
          "type": "bool"
        }
      ],
      "name": "setPausedDAO",
      "outputs": [],
      "stateMutability": "nonpayable",
      "type": "function"
    },
    {
      "inputs": [],
      "name": "totalBurned",
      "outputs": [
        {
          "internalType": "uint256",
          "name": "",
          "type": "uint256"
        }
      ],
      "stateMutability": "view",
      "type": "function"
    },
    {
      "inputs": [],
      "name": "totalPurchases",
      "outputs": [
        {
          "internalType": "uint256",
          "name": "",
          "type": "uint256"
        }
      ],
      "stateMutability": "view",
      "type": "function"
    },
    {
      "inputs": [],
      "name": "totalToMemberPool",
      "outputs": [
        {
          "internalType": "uint256",
          "name": "",
          "type": "uint256"
        }
      ],
      "stateMutability": "view",
      "type": "function"
    },
    {
      "inputs": [],
      "name": "totalToProtocol",
      "outputs": [
        {
          "internalType": "uint256",
          "name": "",
          "type": "uint256"
        }
      ],
      "stateMutability": "view",
      "type": "function"
    },
    {
      "inputs": [],
      "name": "totalToTreasury",
      "outputs": [
        {
          "internalType": "uint256",
          "name": "",
          "type": "uint256"
        }
      ],
      "stateMutability": "view",
      "type": "function"
    },
    {
      "inputs": [],
      "name": "treasuryBalance",
      "outputs": [
        {
          "internalType": "uint256",
          "name": "",
          "type": "uint256"
        }
      ],
      "stateMutability": "view",
      "type": "function"
    },
    {
      "inputs": [
        {
          "internalType": "address",
          "name": "",
          "type": "address"
        },
        {
          "internalType": "uint256",
          "name": "",
          "type": "uint256"
        }
      ],
      "name": "updateConfig",
      "outputs": [],
      "stateMutability": "pure",
      "type": "function"
    },
    {
      "inputs": [
        {
          "internalType": "address",
          "name": "_token",
          "type": "address"
        },
        {
          "internalType": "uint256",
          "name": "_entryFee",
          "type": "uint256"
        }
      ],
      "name": "updateConfigDAO",
      "outputs": [],
      "stateMutability": "nonpayable",
      "type": "function"
    },
    {
      "inputs": [
        {
          "internalType": "uint256",
          "name": "_proposalId",
          "type": "uint256"
        },
        {
          "internalType": "bool",
          "name": "_support",
          "type": "bool"
        }
      ],
      "name": "vote",
      "outputs": [],
      "stateMutability": "nonpayable",
      "type": "function"
    },
    {
      "inputs": [
        {
          "internalType": "address",
          "name": "",
          "type": "address"
        }
      ],
      "name": "withdrawAllTreasury",
      "outputs": [],
      "stateMutability": "pure",
      "type": "function"
    },
    {
      "inputs": [
        {
          "internalType": "address",
          "name": "recipient",
          "type": "address"
        },
        {
          "internalType": "string",
          "name": "reason",
          "type": "string"
        }
      ],
      "name": "withdrawAllTreasuryDAO",
      "outputs": [],
      "stateMutability": "nonpayable",
      "type": "function"
    },
    {
      "inputs": [
        {
          "internalType": "address",
          "name": "",
          "type": "address"
        },
        {
          "internalType": "uint256",
          "name": "",
          "type": "uint256"
        }
      ],
      "name": "withdrawTreasury",
      "outputs": [],
      "stateMutability": "pure",
      "type": "function"
    },
    {
      "inputs": [
        {
          "internalType": "address",
          "name": "recipient",
          "type": "address"
        },
        {
          "internalType": "uint256",
          "name": "amount",
          "type": "uint256"
        },
        {
          "internalType": "string",
          "name": "reason",
          "type": "string"
        }
      ],
      "name": "withdrawTreasuryDAO",
      "outputs": [],
      "stateMutability": "nonpayable",
      "type": "function"
    }
  ],
  "bytecode": "0x6101006040523480156200001257600080fd5b5060405162003ae838038062003ae8833981016040819052620000359162000333565b6001600160a01b038616620000915760405162461bcd60e51b815260206004820152601660248201527f496e76616c69642070726965737420616464726573730000000000000000000060448201526064015b60405180910390fd5b6001600160a01b038516620000f85760405162461bcd60e51b815260206004820152602660248201527f496e76616c69642070726f746f636f6c2066656520726563697069656e74206160448201526564647265737360d01b606482015260840162000088565b6001600160a01b038416620001505760405162461bcd60e51b815260206004820152601560248201527f496e76616c696420746f6b656e20616464726573730000000000000000000000604482015260640162000088565b60008311620001a25760405162461bcd60e51b815260206004820181905260248201527f456e74727920666565206d7573742062652067726561746572207468616e2030604482015260640162000088565b600a831015620002015760405162461bcd60e51b8152602060048201526024808201527f456e7472792066656520746f6f20736d616c6c20666f722064697374726962756044820152633a34b7b760e11b606482015260840162000088565b60008211620002655760405162461bcd60e51b815260206004820152602960248201527f50726965737420766f746520776569676874206d75737420626520677265617460448201526806572207468616e20360bc1b606482015260840162000088565b60008111620002ce5760405162461bcd60e51b815260206004820152602e60248201527f50726965737420776569676874207468726573686f6c64206d7573742062652060448201526d067726561746572207468616e20360941b606482015260840162000088565b6001600160a01b0395861660805293851660a052600180546001600160a01b0319169390951692909217845560025560c05260e0526005805460ff1916905560005562000399565b80516001600160a01b03811681146200032e57600080fd5b919050565b60008060008060008060c087890312156200034d57600080fd5b620003588762000316565b9550620003686020880162000316565b9450620003786040880162000316565b9350606087015192506080870151915060a087015190509295509295509295565b60805160a05160c05160e0516136dd6200040b6000396000818161044c015281816123e4015261294001526000818161079b0152818161240d01526129690152600081816105920152818161074101526120970152600081816106e5015281816123a5015261291301526136dd6000f3fe608060405234801561001057600080fd5b50600436106103275760003560e01c806376755118116101b8578063c1b57edb11610104578063d3493ced116100a2578063e243c5fb1161007c578063e243c5fb1461086f578063f4f7596a14610882578063f7158b2a14610890578063ffafe4ad1461089857600080fd5b8063d3493ced1461084a578063d89135cd1461085d578063da35c6641461086657600080fd5b8063c34b5580116100de578063c34b558014610796578063c3f909d4146107bd578063c7f758a814610810578063c9d27afe1461083757600080fd5b8063c1b57edb14610707578063c233ccf114610710578063c29394711461073057600080fd5b806399e288d811610171578063a81bbe3c1161014b578063a81bbe3c146106b7578063aedfe53f146103d7578063bdb75b34146106d7578063bebc8fc0146106e057600080fd5b806399e288d814610692578063a64e024a1461069a578063a730117e146106a457600080fd5b806376755118146105e75780638f78bbc41461060757806390118fb41461062857806395a078e81461064b578063997072f714610677578063999dcbe61461067f57600080fd5b8063524ddc23116102775780635daf08ca1161023057806364653f291161020a57806364653f291461052c57806364df049e1461058d578063653724d6146105b45780636ad18550146105c757600080fd5b80635daf08ca146104d85780635e391dfe146105035780635fa7ddf01461052357600080fd5b8063524ddc231461046e57806354403801146104815780635584c4f9146104945780635962a941146104a957806359c266ff146104b25780635c975abb146104bb57600080fd5b806318a74064116102e457806332d084bb116102be57806332d084bb146103ea5780633dd35279146103fd578063438596321461041d5780634c78afc81461044757600080fd5b806318a74064146103c4578063215809ca146103d7578063313dab20146103e157600080fd5b8063013cf08b1461032c578063072ea61c1461035f5780630d61b519146103765780630d86419a1461038b57806316c38b3c1461039e5780631808022a146103b1575b600080fd5b61033f61033a366004612e10565b6108bb565b6040516103569b9a99989796959493929190612e79565b60405180910390f35b61036860025481565b604051908152602001610356565b610389610384366004612e10565b610ab6565b005b610389610399366004612f23565b610d82565b6103896103ac366004612f5e565b610e0f565b6103686103bf366004612f82565b610e8f565b6103896103d2366004612f23565b610fb8565b61036862093a8081565b61036860035481565b6103686103f8366004613040565b61103b565b61036861040b366004612f82565b600a6020526000908152604090205481565b61043061042b3660046130d0565b6113f9565b604080519215158352901515602083015201610356565b6103687f000000000000000000000000000000000000000000000000000000000000000081565b61038961047c366004612f23565b61145f565b61038961048f3660046130fc565b61155b565b61049c6117c8565b604051610356919061318e565b61036860115481565b61036860155481565b6005546104c89060ff1681565b6040519015158152602001610356565b6104eb6104e6366004612e10565b611902565b6040516001600160a01b039091168152602001610356565b610368610511366004612f82565b60086020526000908152604090205481565b61036860045481565b61057061053a366004612f82565b6001600160a01b03166000908152600660209081526040808320546007835281842054600890935292205460ff90921692909190565b604080519315158452602084019290925290820152606001610356565b6104eb7f000000000000000000000000000000000000000000000000000000000000000081565b6103896105c2366004612f5e565b61192c565b6103686105d5366004612f82565b600f6020526000908152604090205481565b6103686105f5366004612f82565b60076020526000908152604090205481565b61061a6106153660046131a1565b611992565b6040516103569291906131c3565b6104c8610636366004612f82565b60066020526000908152604090205460ff1681565b6104c8610659366004612f82565b6001600160a01b031660009081526006602052604090205460ff1690565b600954610368565b61036861068d366004612e10565b611bdd565b610389611bfe565b61036862278d0081565b6103686106b2366004612f82565b61237b565b6103686106c5366004612f82565b600b6020526000908152604090205481565b61036860145481565b6104eb7f000000000000000000000000000000000000000000000000000000000000000081565b61036860135481565b61072361071e3660046130fc565b612439565b60405161035691906131e7565b6003546004546013546012546015547f000000000000000000000000000000000000000000000000000000000000000060408051968752602087019590955293850192909252606084015260808301526001600160a01b031660a082015260c001610356565b6103687f000000000000000000000000000000000000000000000000000000000000000081565b600154600254600554601154600354600454604080516001600160a01b039097168752602087019590955260ff9093161515938501939093526060840152608083019190915260a082015260c001610356565b61082361081e366004612e10565b61257d565b6040516103569897969594939291906131fa565b610389610845366004613263565b61272e565b610389610858366004613293565b612a0c565b61036860125481565b610368600d5481565b6001546104eb906001600160a01b031681565b610389610399366004612f82565b610389612bff565b6104c86108a6366004612f82565b60106020526000908152604090205460ff1681565b600e6020526000908152604090208054600182015460028301805492936001600160a01b03909216926108ed906132e1565b80601f0160208091040260200160405190810160405280929190818152602001828054610919906132e1565b80156109665780601f1061093b57610100808354040283529160200191610966565b820191906000526020600020905b81548152906001019060200180831161094957829003601f168201915b50505050509080600301805461097b906132e1565b80601f01602080910402602001604051908101604052809291908181526020018280546109a7906132e1565b80156109f45780601f106109c9576101008083540402835291602001916109f4565b820191906000526020600020905b8154815290600101906020018083116109d757829003601f168201915b505050505090806004018054610a09906132e1565b80601f0160208091040260200160405190810160405280929190818152602001828054610a35906132e1565b8015610a825780601f10610a5757610100808354040283529160200191610a82565b820191906000526020600020905b815481529060010190602001808311610a6557829003601f168201915b50505060058401546006850154600786015460088701546009880154600a9098015496979396929550909350919060ff168b565b600d548110610ae05760405162461bcd60e51b8152600401610ad79061331b565b60405180910390fd5b6000818152600e602052604090206007810154421015610b355760405162461bcd60e51b815260206004820152601060248201526f159bdd1a5b99c81b9bdd08195b99195960821b6044820152606401610ad7565b600a81015460ff1615610b7d5760405162461bcd60e51b815260206004820152601060248201526f105b1c9958591e48195e1958dd5d195960821b6044820152606401610ad7565b8060060154816005015411610bcc5760405162461bcd60e51b815260206004820152601560248201527450726f706f73616c20646964206e6f74207061737360581b6044820152606401610ad7565b600a8101805460ff191660019081179091558101546001600160a01b031660008181526010602052604090205460ff168015610c1f57506001600160a01b0381166000908152600f602052604090205483145b15610c50576001600160a01b0381166000908152601060209081526040808320805460ff19169055600f9091528120555b600080306001600160a01b031684600401604051610c6e9190613345565b6000604051808303816000865af19150503d8060008114610cab576040519150601f19603f3d011682016040523d82523d6000602084013e610cb0565b606091505b5091509150847faf8f9d0e884d3306a083e846741a0bc4d75908e2b0ec63b558219652ae4c1b908383604051610ce79291906133bb565b60405180910390a281610d7b57600a8401805460ff199081169091556001600160a01b03841660009081526010602090815260408083208054909416600117909355600f90528190208690555162461bcd60e51b8152610ad79060040160208082526019908201527f50726f706f73616c20657865637574696f6e206661696c656400000000000000604082015260600190565b5050505050565b60405162461bcd60e51b815260206004820152605660248201527f5472656173757279207769746864726177616c7320726571756972652044414f60448201527f20617070726f76616c2e2055736520776974686472617754726561737572794460648201527520a7903a343937bab3b4103090383937b837b9b0b61760511b608482015260a401610ad7565b60405162461bcd60e51b815260206004820152604960248201527f50617573652f756e70617573652072657175697265732044414f20617070726f60448201527f76616c2e205573652073657450617573656444414f207468726f756768206120606482015268383937b837b9b0b61760b91b608482015260a401610ad7565b6001600160a01b03811660009081526006602052604081205460ff16610eb757506000919050565b6001600160a01b0382166000908152600a60205260408120549080610edd8360016133ec565b90505b600c54811015610f66576000600c8281548110610eff57610eff613405565b90600052602060002001541115610f5457808015610f5257600081600c8481548110610f2d57610f2d613405565b9060005260206000200154610f42919061341b565b9050610f4e81856133ec565b9350505b505b80610f5e8161343d565b915050610ee0565b506001600160a01b0384166000908152600b60205260409020548111610f8d576000610fb0565b6001600160a01b0384166000908152600b6020526040902054610fb09082613456565b949350505050565b60405162461bcd60e51b815260206004820152604c60248201527f436f6e666967207570646174657320726571756972652044414f20617070726f60448201527f76616c2e2055736520757064617465436f6e66696744414f207468726f75676860648201526b103090383937b837b9b0b61760a11b608482015260a401610ad7565b3360009081526006602052604081205460ff1661109a5760405162461bcd60e51b815260206004820152601a60248201527f4f6e6c79206d656d626572732063616e2063616c6c20746869730000000000006044820152606401610ad7565b60008551116110dc5760405162461bcd60e51b815260206004820152600e60248201526d151a5d1b19481c995c5d5a5c995960921b6044820152606401610ad7565b60008451116111245760405162461bcd60e51b815260206004820152601460248201527311195cd8dc9a5c1d1a5bdb881c995c5d5a5c995960621b6044820152606401610ad7565b600083511161116a5760405162461bcd60e51b815260206004820152601260248201527110d85b1b0819185d18481c995c5d5a5c995960721b6044820152606401610ad7565b3360009081526010602052604090205460ff161561123657336000908152600f6020908152604080832054808452600e909252909120600a81015460ff161580156111b85750806007015442105b156112115760405162461bcd60e51b815260206004820152602360248201527f596f7520616c7265616479206861766520616e206163746976652070726f706f6044820152621cd85b60ea1b6064820152608401610ad7565b336000908152601060209081526040808320805460ff19169055600f90915281205550505b816000819003611246575062093a805b62093a808110156112995760405162461bcd60e51b815260206004820152601760248201527f566f74696e6720706572696f6420746f6f2073686f72740000000000000000006044820152606401610ad7565b62278d008111156112e55760405162461bcd60e51b8152602060048201526016602482015275566f74696e6720706572696f6420746f6f206c6f6e6760501b6044820152606401610ad7565b600d8054600091826112f68361343d565b909155506000818152600e602052604090208181556001810180546001600160a01b031916331790559091506002810161133089826134b8565b506003810161133f88826134b8565b506004810161134e87826134b8565b5061135983426133ec565b600782019081554260088301556009805490830155600a8201805460ff1990811690915560006005840181905560068401819055338082526010602090815260408084208054909516600117909455600f9052908290208590559154905184917f98120a6aaa04295520ab4e01c6c1235dd316e822cc9ff31db7b3f197366d18bd916113e6918d91613578565b60405180910390a3509695505050505050565b600080600d54841061141d5760405162461bcd60e51b8152600401610ad79061331b565b50506000918252600e602090815260408084206001600160a01b03939093168452600b8301825280842054600c9093019091529091205460ff91821692911690565b33301461147e5760405162461bcd60e51b8152600401610ad79061359a565b6001600160a01b038216156114a957600180546001600160a01b0319166001600160a01b0384161790555b801561151257600a81101561150c5760405162461bcd60e51b8152602060048201526024808201527f456e7472792066656520746f6f20736d616c6c20666f722064697374726962756044820152633a34b7b760e11b6064820152608401610ad7565b60028190555b6001546002546040519081526001600160a01b03909116907faf8839d80c9b3bbf95c97465eb8c8348db4098f5c15af186c3b425b1129981179060200160405180910390a25050565b33301461157a5760405162461bcd60e51b8152600401610ad79061359a565b60026000540361159c5760405162461bcd60e51b8152600401610ad7906135ca565b60026000556001600160a01b0383166115eb5760405162461bcd60e51b8152602060048201526011602482015270125b9d985b1a59081c9958da5c1a595b9d607a1b6044820152606401610ad7565b6000821161163b5760405162461bcd60e51b815260206004820152601d60248201527f416d6f756e74206d7573742062652067726561746572207468616e20300000006044820152606401610ad7565b60035482111561168d5760405162461bcd60e51b815260206004820152601d60248201527f496e73756666696369656e742074726561737572792062616c616e63650000006044820152606401610ad7565b816003600082825461169f9190613456565b909155505060015460405163a9059cbb60e01b81526001600160a01b03858116600483015260248201859052600092169063a9059cbb906044016020604051808303816000875af11580156116f8573d6000803e3d6000fd5b505050506040513d601f19601f8201168201806040525081019061171c9190613601565b90508061176b5760405162461bcd60e51b815260206004820152601a60248201527f5472656173757279207769746864726177616c206661696c65640000000000006044820152606401610ad7565b836001600160a01b03166001600d546117849190613456565b7f1ba011ee074f0e08cc727335f32d75fb7ee71dc0a1e13bb9473e5650b0afd1a385856040516117b592919061361e565b60405180910390a3505060016000555050565b60606000805b600d5481101561182f576000818152600e60205260409020600701544210801561180a57506000818152600e60205260409020600a015460ff16155b1561181d57816118198161343d565b9250505b806118278161343d565b9150506117ce565b5060008167ffffffffffffffff81111561184b5761184b612f9d565b604051908082528060200260200182016040528015611874578160200160208202803683370190505b5090506000805b600d548110156118f9576000818152600e6020526040902060070154421080156118b757506000818152600e60205260409020600a015460ff16155b156118e7578083836118c88161343d565b9450815181106118da576118da613405565b6020026020010181815250505b806118f18161343d565b91505061187b565b50909392505050565b6009818154811061191257600080fd5b6000918252602090912001546001600160a01b0316905081565b33301461194b5760405162461bcd60e51b8152600401610ad79061359a565b6005805460ff19168215159081179091556040519081527f752d7e161ff5146f80e3820893176eb40532811e5e20400dfdde57455213706a9060200160405180910390a150565b6060600080831180156119a6575060648311155b6119e85760405162461bcd60e51b815260206004820152601360248201527204c696d6974206d75737420626520312d31303606c1b6044820152606401610ad7565b60008367ffffffffffffffff811115611a0357611a03612f9d565b604051908082528060200260200182016040528015611a2c578160200160208202803683370190505b509050600080865b600d5481108015611a4457508683105b15611aca576000818152600e602052604090206007015442108015611a7b57506000818152600e60205260409020600a015460ff16155b15611aab57808484611a8c8161343d565b955081518110611a9e57611a9e613405565b6020026020010181815250505b611ab68160016133ec565b915080611ac28161343d565b915050611a34565b5060009350600d54811015611b3957805b600d54811015611b37576000818152600e602052604090206007015442108015611b1757506000818152600e60205260409020600a015460ff16155b15611b255760019450611b37565b80611b2f8161343d565b915050611adb565b505b8167ffffffffffffffff811115611b5257611b52612f9d565b604051908082528060200260200182016040528015611b7b578160200160208202803683370190505b50945060005b82811015611bd257838181518110611b9b57611b9b613405565b6020026020010151868281518110611bb557611bb5613405565b602090810291909101015280611bca8161343d565b915050611b81565b505050509250929050565b600c8181548110611bed57600080fd5b600091825260209091200154905081565b60055460ff1615611c465760405162461bcd60e51b815260206004820152601260248201527110dbdb9d1c9858dd081a5cc81c185d5cd95960721b6044820152606401610ad7565b600260005403611c685760405162461bcd60e51b8152600401610ad7906135ca565b600260009081553381526006602052604090205460ff1615611ccc5760405162461bcd60e51b815260206004820152601860248201527f416c7265616479207075726368617365642061636365737300000000000000006044820152606401610ad7565b60006064600254601e611cdf9190613637565b611ce9919061341b565b905060006064600254600a611cfe9190613637565b611d08919061341b565b9050600081611d18846003613637565b611d2291906133ec565b9050600254811115611d6a5760405162461bcd60e51b815260206004820152601160248201527021b0b631bab630ba34b7b71032b93937b960791b6044820152606401610ad7565b6002546001546040516370a0823160e01b81523360048201526001600160a01b03909116906370a0823190602401602060405180830381865afa158015611db5573d6000803e3d6000fd5b505050506040513d601f19601f82011682018060405250810190611dd9919061364e565b1015611e275760405162461bcd60e51b815260206004820152601a60248201527f496e73756666696369656e7420746f6b656e2062616c616e63650000000000006044820152606401610ad7565b6001546040516323b872dd60e01b81526000916001600160a01b0316906323b872dd90611e5e90339061dead908990600401613667565b6020604051808303816000875af1158015611e7d573d6000803e3d6000fd5b505050506040513d601f19601f82011682018060405250810190611ea19190613601565b905080611ee75760405162461bcd60e51b8152602060048201526014602482015273109d5c9b881d1c985b9cd9995c8819985a5b195960621b6044820152606401610ad7565b6001546040516323b872dd60e01b81526000916001600160a01b0316906323b872dd90611f1c90339030908a90600401613667565b6020604051808303816000875af1158015611f3b573d6000803e3d6000fd5b505050506040513d601f19601f82011682018060405250810190611f5f9190613601565b905080611fae5760405162461bcd60e51b815260206004820152601860248201527f5472656173757279207472616e73666572206661696c656400000000000000006044820152606401610ad7565b6001546040516323b872dd60e01b81526000916001600160a01b0316906323b872dd90611fe390339030908b90600401613667565b6020604051808303816000875af1158015612002573d6000803e3d6000fd5b505050506040513d601f19601f820116820180604052508101906120269190613601565b90508061206c5760405162461bcd60e51b8152602060048201526014602482015273141bdbdb081d1c985b9cd9995c8819985a5b195960621b6044820152606401610ad7565b6001546040516323b872dd60e01b81526000916001600160a01b0316906323b872dd906120c19033907f0000000000000000000000000000000000000000000000000000000000000000908b90600401613667565b6020604051808303816000875af11580156120e0573d6000803e3d6000fd5b505050506040513d601f19601f820116820180604052508101906121049190613601565b9050806121535760405162461bcd60e51b815260206004820152601860248201527f50726f746f636f6c207472616e73666572206661696c656400000000000000006044820152606401610ad7565b866003600082825461216591906133ec565b92505081905550866004600082825461217e91906133ec565b92505081905550866012600082825461219791906133ec565b9250508190555086601360008282546121b091906133ec565b9250508190555086601460008282546121c991906133ec565b9250508190555085601560008282546121e291906133ec565b90915550506009541561222957600c80546001810182556000919091527fdf6966c971051c3d54ec59162606531493a51404a002842f56009d7e5cf4a8c70187905561225c565b600c805460018101825560009182527fdf6966c971051c3d54ec59162606531493a51404a002842f56009d7e5cf4a8c701555b336000818152600660209081526040808320805460ff19166001908117909155600783528184204290556008835281842043905560098054600a9094529184208390558201815582527f6e1540171b6c0c960b71a7020d9f60077f6af931a8bbf590da0223dacf75c7af0180546001600160a01b03191690921790915560118054916122e78361343d565b9190505550336001600160a01b03167fe6d1c0e418a42a777d49c66571075fc47bc1d92e7f506007ddde08d1ff182bbc600254898a8b8b4243600160115461232f9190613456565b604080519889526020890197909752958701949094526060860192909252608085015260a084015260c083015260e08201526101000160405180910390a2505060016000555050505050565b6001600160a01b03811660009081526006602052604081205460ff166123a357506000919050565b7f00000000000000000000000000000000000000000000000000000000000000006001600160a01b0316826001600160a01b031614801561240557506009547f0000000000000000000000000000000000000000000000000000000000000000115b1561243157507f0000000000000000000000000000000000000000000000000000000000000000919050565b506001919050565b606033301461245a5760405162461bcd60e51b8152600401610ad79061359a565b60026000540361247c5760405162461bcd60e51b8152600401610ad7906135ca565b60026000556001600160a01b0384166124c85760405162461bcd60e51b815260206004820152600e60248201526d125b9d985b1a59081d185c99d95d60921b6044820152606401610ad7565b600080856001600160a01b031685856040516124e4919061368b565b60006040518083038185875af1925050503d8060008114612521576040519150601f19603f3d011682016040523d82523d6000602084013e612526565b606091505b50915091508161256f5760405162461bcd60e51b8152602060048201526014602482015273115e1d195c9b985b0818d85b1b0819985a5b195960621b6044820152606401610ad7565b600160005595945050505050565b60006060806000806000806000600d5489106125ab5760405162461bcd60e51b8152600401610ad79061331b565b6000898152600e602052604090206001810154600582015460068301546007840154600a8501546002860180546001600160a01b03909616959094600388019490939092909160ff90911690838511908790612606906132e1565b80601f0160208091040260200160405190810160405280929190818152602001828054612632906132e1565b801561267f5780601f106126545761010080835404028352916020019161267f565b820191906000526020600020905b81548152906001019060200180831161266257829003601f168201915b50505050509650858054612692906132e1565b80601f01602080910402602001604051908101604052809291908181526020018280546126be906132e1565b801561270b5780601f106126e05761010080835404028352916020019161270b565b820191906000526020600020905b8154815290600101906020018083116126ee57829003601f168201915b505050505095509850985098509850985098509850985050919395975091939597565b3360009081526006602052604090205460ff1661278d5760405162461bcd60e51b815260206004820152601a60248201527f4f6e6c79206d656d626572732063616e2063616c6c20746869730000000000006044820152606401610ad7565b600d5482106127ae5760405162461bcd60e51b8152600401610ad79061331b565b6000828152600e60205260409020600781015442106127fe5760405162461bcd60e51b815260206004820152600c60248201526b159bdd1a5b99c8195b99195960a21b6044820152606401610ad7565b336000908152600b8201602052604090205460ff16156128505760405162461bcd60e51b815260206004820152600d60248201526c105b1c9958591e481d9bdd1959609a1b6044820152606401610ad7565b600881015433600090815260076020526040902054106128d15760405162461bcd60e51b815260206004820152603660248201527f596f752063616e6e6f7420766f7465206f6e2070726f706f73616c7320637265604482015275185d1959081899599bdc99481e5bdd481a9bda5b995960521b6064820152608401610ad7565b336000818152600b8301602090815260408083208054600160ff199182168117909255600c870190935292208054909116851515179055906001600160a01b037f00000000000000000000000000000000000000000000000000000000000000001614801561296157506009547f0000000000000000000000000000000000000000000000000000000000000000115b1561298957507f00000000000000000000000000000000000000000000000000000000000000005b82156129ae57808260050160008282546129a391906133ec565b909155506129c89050565b808260060160008282546129c291906133ec565b90915550505b604080518415158152426020820152339186917fcbdf6214089cba887ecbf35a0b6a734589959c9763342c756bb2a80ca2bc9f6e910160405180910390a350505050565b333014612a2b5760405162461bcd60e51b8152600401610ad79061359a565b600260005403612a4d5760405162461bcd60e51b8152600401610ad7906135ca565b60026000556001600160a01b038216612a9c5760405162461bcd60e51b8152602060048201526011602482015270125b9d985b1a59081c9958da5c1a595b9d607a1b6044820152606401610ad7565b600060035411612ae25760405162461bcd60e51b81526020600482015260116024820152704e6f2074726561737572792066756e647360781b6044820152606401610ad7565b6003805460009182905560015460405163a9059cbb60e01b81526001600160a01b038681166004830152602482018490529293929091169063a9059cbb906044016020604051808303816000875af1158015612b42573d6000803e3d6000fd5b505050506040513d601f19601f82011682018060405250810190612b669190613601565b905080612bb55760405162461bcd60e51b815260206004820152601a60248201527f5472656173757279207769746864726177616c206661696c65640000000000006044820152606401610ad7565b836001600160a01b03166001600d54612bce9190613456565b7f1ba011ee074f0e08cc727335f32d75fb7ee71dc0a1e13bb9473e5650b0afd1a384866040516117b592919061361e565b600260005403612c215760405162461bcd60e51b8152600401610ad7906135ca565b60026000908155612c3133610e8f565b905060008111612c795760405162461bcd60e51b81526020600482015260136024820152724e6f207265776172647320746f20636c61696d60681b6044820152606401610ad7565b806004541015612ccb5760405162461bcd60e51b815260206004820152601960248201527f496e73756666696369656e7420706f6f6c2062616c616e6365000000000000006044820152606401610ad7565b336000908152600b602052604081208054839290612cea9084906133ec565b925050819055508060046000828254612d039190613456565b909155505060015460405163a9059cbb60e01b8152336004820152602481018390526000916001600160a01b03169063a9059cbb906044016020604051808303816000875af1158015612d5a573d6000803e3d6000fd5b505050506040513d601f19601f82011682018060405250810190612d7e9190613601565b905080612dcd5760405162461bcd60e51b815260206004820152601a60248201527f506f6f6c20636c61696d207472616e73666572206661696c65640000000000006044820152606401610ad7565b6040805183815242602082015233917fc4e740509dbfae3377bc9925dd7bcc8aaba69cd730316216d76b2d24725c6366910160405180910390a250506001600055565b600060208284031215612e2257600080fd5b5035919050565b60005b83811015612e44578181015183820152602001612e2c565b50506000910152565b60008151808452612e65816020860160208601612e29565b601f01601f19169290920160200192915050565b8b81526001600160a01b038b16602082015261016060408201819052600090612ea48382018d612e4d565b90508281036060840152612eb8818c612e4d565b90508281036080840152612ecc818b612e4d565b60a0840199909952505060c081019590955260e085019390935261010084019190915261012083015215156101409091015295945050505050565b80356001600160a01b0381168114612f1e57600080fd5b919050565b60008060408385031215612f3657600080fd5b612f3f83612f07565b946020939093013593505050565b8015158114612f5b57600080fd5b50565b600060208284031215612f7057600080fd5b8135612f7b81612f4d565b9392505050565b600060208284031215612f9457600080fd5b612f7b82612f07565b634e487b7160e01b600052604160045260246000fd5b600082601f830112612fc457600080fd5b813567ffffffffffffffff80821115612fdf57612fdf612f9d565b604051601f8301601f19908116603f0116810190828211818310171561300757613007612f9d565b8160405283815286602085880101111561302057600080fd5b836020870160208301376000602085830101528094505050505092915050565b6000806000806080858703121561305657600080fd5b843567ffffffffffffffff8082111561306e57600080fd5b61307a88838901612fb3565b9550602087013591508082111561309057600080fd5b61309c88838901612fb3565b945060408701359150808211156130b257600080fd5b506130bf87828801612fb3565b949793965093946060013593505050565b600080604083850312156130e357600080fd5b823591506130f360208401612f07565b90509250929050565b60008060006060848603121561311157600080fd5b61311a84612f07565b925060208401359150604084013567ffffffffffffffff81111561313d57600080fd5b61314986828701612fb3565b9150509250925092565b600081518084526020808501945080840160005b8381101561318357815187529582019590820190600101613167565b509495945050505050565b602081526000612f7b6020830184613153565b600080604083850312156131b457600080fd5b50508035926020909101359150565b6040815260006131d66040830185613153565b905082151560208301529392505050565b602081526000612f7b6020830184612e4d565b6001600160a01b03891681526101006020820181905260009061321f8382018b612e4d565b90508281036040840152613233818a612e4d565b60608401989098525050608081019490945260a0840192909252151560c0830152151560e0909101529392505050565b6000806040838503121561327657600080fd5b82359150602083013561328881612f4d565b809150509250929050565b600080604083850312156132a657600080fd5b6132af83612f07565b9150602083013567ffffffffffffffff8111156132cb57600080fd5b6132d785828601612fb3565b9150509250929050565b600181811c908216806132f557607f821691505b60208210810361331557634e487b7160e01b600052602260045260246000fd5b50919050565b60208082526010908201526f125b9d985b1a59081c1c9bdc1bdcd85b60821b604082015260600190565b6000808354613353816132e1565b6001828116801561336b5760018114613380576133af565b60ff19841687528215158302870194506133af565b8760005260208060002060005b858110156133a65781548a82015290840190820161338d565b50505082870194505b50929695505050505050565b8215158152604060208201526000610fb06040830184612e4d565b634e487b7160e01b600052601160045260246000fd5b808201808211156133ff576133ff6133d6565b92915050565b634e487b7160e01b600052603260045260246000fd5b60008261343857634e487b7160e01b600052601260045260246000fd5b500490565b60006001820161344f5761344f6133d6565b5060010190565b818103818111156133ff576133ff6133d6565b601f8211156134b357600081815260208120601f850160051c810160208610156134905750805b601f850160051c820191505b818110156134af5782815560010161349c565b5050505b505050565b815167ffffffffffffffff8111156134d2576134d2612f9d565b6134e6816134e084546132e1565b84613469565b602080601f83116001811461351b57600084156135035750858301515b600019600386901b1c1916600185901b1785556134af565b600085815260208120601f198616915b8281101561354a5788860151825594840194600190910190840161352b565b50858210156135685787850151600019600388901b60f8161c191681555b5050505050600190811b01905550565b60408152600061358b6040830185612e4d565b90508260208301529392505050565b6020808252601690820152754f6e6c792044414f2063616e2063616c6c207468697360501b604082015260600190565b6020808252601f908201527f5265656e7472616e637947756172643a207265656e7472616e742063616c6c00604082015260600190565b60006020828403121561361357600080fd5b8151612f7b81612f4d565b828152604060208201526000610fb06040830184612e4d565b80820281158282048414176133ff576133ff6133d6565b60006020828403121561366057600080fd5b5051919050565b6001600160a01b039384168152919092166020820152604081019190915260600190565b6000825161369d818460208701612e29565b919091019291505056fea2646970667358221220f4b5fdfdcbd194010c954143db0fe38f91be0a08bd2fe33d56c434a6920fa79d64736f6c63430008130033",
  "linkReferences": {},
  "deployedLinkReferences": {}
}