{
  "_format": "hh-sol-artifact-1",
  "contractName": "TEMPL",
  "sourceName": "contracts/TEMPL.sol",
  "abi": [
    {
      "inputs": [
        {
          "internalType": "address",
          "name": "_priest",
          "type": "address"
        },
        {
          "internalType": "address",
          "name": "_protocolFeeRecipient",
          "type": "address"
        },
        {
          "internalType": "address",
          "name": "_token",
          "type": "address"
        },
        {
          "internalType": "uint256",
          "name": "_entryFee",
          "type": "uint256"
        }
      ],
      "stateMutability": "nonpayable",
      "type": "constructor"
    },
    {
      "inputs": [],
      "name": "ActiveProposalExists",
      "type": "error"
    },
    {
      "inputs": [],
      "name": "AlreadyExecuted",
      "type": "error"
    },
    {
      "inputs": [],
      "name": "AlreadyPurchased",
      "type": "error"
    },
    {
      "inputs": [],
      "name": "AmountZero",
      "type": "error"
    },
    {
      "inputs": [],
      "name": "CallDataRequired",
      "type": "error"
    },
    {
      "inputs": [],
      "name": "CallDataTooShort",
      "type": "error"
    },
    {
      "inputs": [],
      "name": "ContractPausedError",
      "type": "error"
    },
    {
      "inputs": [],
      "name": "DescriptionRequired",
      "type": "error"
    },
    {
      "inputs": [],
      "name": "EntryFeeTooSmall",
      "type": "error"
    },
    {
      "inputs": [],
      "name": "InsufficientBalance",
      "type": "error"
    },
    {
      "inputs": [],
      "name": "InsufficientPoolBalance",
      "type": "error"
    },
    {
      "inputs": [],
      "name": "InsufficientTreasuryBalance",
      "type": "error"
    },
    {
      "inputs": [],
      "name": "InvalidCallData",
      "type": "error"
    },
    {
      "inputs": [],
      "name": "InvalidEntryFee",
      "type": "error"
    },
    {
      "inputs": [],
      "name": "InvalidProposal",
      "type": "error"
    },
    {
      "inputs": [],
      "name": "InvalidRecipient",
      "type": "error"
    },
    {
      "inputs": [],
      "name": "InvalidSender",
      "type": "error"
    },
    {
      "inputs": [],
      "name": "JoinedAfterProposal",
      "type": "error"
    },
    {
      "inputs": [],
      "name": "LimitOutOfRange",
      "type": "error"
    },
    {
      "inputs": [],
      "name": "NoRewardsToClaim",
      "type": "error"
    },
    {
      "inputs": [],
      "name": "NoTreasuryFunds",
      "type": "error"
    },
    {
      "inputs": [],
      "name": "NonZeroBalances",
      "type": "error"
    },
    {
      "inputs": [],
      "name": "NotDAO",
      "type": "error"
    },
    {
      "inputs": [],
      "name": "NotMember",
      "type": "error"
    },
    {
      "inputs": [],
      "name": "ProposalExecutionFailed",
      "type": "error"
    },
    {
      "inputs": [],
      "name": "ProposalNotPassed",
      "type": "error"
    },
    {
      "inputs": [],
      "name": "ReentrancyGuardReentrantCall",
      "type": "error"
    },
    {
      "inputs": [
        {
          "internalType": "address",
          "name": "token",
          "type": "address"
        }
      ],
      "name": "SafeERC20FailedOperation",
      "type": "error"
    },
    {
      "inputs": [],
      "name": "TitleRequired",
      "type": "error"
    },
    {
      "inputs": [],
      "name": "VotingEnded",
      "type": "error"
    },
    {
      "inputs": [],
      "name": "VotingNotEnded",
      "type": "error"
    },
    {
      "inputs": [],
      "name": "VotingPeriodTooLong",
      "type": "error"
    },
    {
      "inputs": [],
      "name": "VotingPeriodTooShort",
      "type": "error"
    },
    {
      "anonymous": false,
      "inputs": [
        {
          "indexed": true,
          "internalType": "address",
          "name": "purchaser",
          "type": "address"
        },
        {
          "indexed": false,
          "internalType": "uint256",
          "name": "totalAmount",
          "type": "uint256"
        },
        {
          "indexed": false,
          "internalType": "uint256",
          "name": "burnedAmount",
          "type": "uint256"
        },
        {
          "indexed": false,
          "internalType": "uint256",
          "name": "treasuryAmount",
          "type": "uint256"
        },
        {
          "indexed": false,
          "internalType": "uint256",
          "name": "memberPoolAmount",
          "type": "uint256"
        },
        {
          "indexed": false,
          "internalType": "uint256",
          "name": "protocolAmount",
          "type": "uint256"
        },
        {
          "indexed": false,
          "internalType": "uint256",
          "name": "timestamp",
          "type": "uint256"
        },
        {
          "indexed": false,
          "internalType": "uint256",
          "name": "blockNumber",
          "type": "uint256"
        },
        {
          "indexed": false,
          "internalType": "uint256",
          "name": "purchaseId",
          "type": "uint256"
        }
      ],
      "name": "AccessPurchased",
      "type": "event"
    },
    {
      "anonymous": false,
      "inputs": [
        {
          "indexed": true,
          "internalType": "address",
          "name": "token",
          "type": "address"
        },
        {
          "indexed": false,
          "internalType": "uint256",
          "name": "entryFee",
          "type": "uint256"
        }
      ],
      "name": "ConfigUpdated",
      "type": "event"
    },
    {
      "anonymous": false,
      "inputs": [
        {
          "indexed": false,
          "internalType": "bool",
          "name": "isPaused",
          "type": "bool"
        }
      ],
      "name": "ContractPaused",
      "type": "event"
    },
    {
      "anonymous": false,
      "inputs": [
        {
          "indexed": true,
          "internalType": "address",
          "name": "member",
          "type": "address"
        },
        {
          "indexed": false,
          "internalType": "uint256",
          "name": "amount",
          "type": "uint256"
        },
        {
          "indexed": false,
          "internalType": "uint256",
          "name": "timestamp",
          "type": "uint256"
        }
      ],
      "name": "MemberPoolClaimed",
      "type": "event"
    },
    {
      "anonymous": false,
      "inputs": [
        {
          "indexed": true,
          "internalType": "uint256",
          "name": "proposalId",
          "type": "uint256"
        },
        {
          "indexed": true,
          "internalType": "address",
          "name": "proposer",
          "type": "address"
        },
        {
          "indexed": false,
          "internalType": "string",
          "name": "title",
          "type": "string"
        },
        {
          "indexed": false,
          "internalType": "uint256",
          "name": "endTime",
          "type": "uint256"
        }
      ],
      "name": "ProposalCreated",
      "type": "event"
    },
    {
      "anonymous": false,
      "inputs": [
        {
          "indexed": true,
          "internalType": "uint256",
          "name": "proposalId",
          "type": "uint256"
        },
        {
          "indexed": false,
          "internalType": "bool",
          "name": "success",
          "type": "bool"
        },
        {
          "indexed": false,
          "internalType": "bytes",
          "name": "returnData",
          "type": "bytes"
        }
      ],
      "name": "ProposalExecuted",
      "type": "event"
    },
    {
      "anonymous": false,
      "inputs": [
        {
          "indexed": true,
          "internalType": "uint256",
          "name": "proposalId",
          "type": "uint256"
        },
        {
          "indexed": true,
          "internalType": "address",
          "name": "recipient",
          "type": "address"
        },
        {
          "indexed": false,
          "internalType": "uint256",
          "name": "amount",
          "type": "uint256"
        },
        {
          "indexed": false,
          "internalType": "string",
          "name": "description",
          "type": "string"
        }
      ],
      "name": "TreasuryAction",
      "type": "event"
    },
    {
      "anonymous": false,
      "inputs": [
        {
          "indexed": true,
          "internalType": "uint256",
          "name": "proposalId",
          "type": "uint256"
        },
        {
          "indexed": true,
          "internalType": "address",
          "name": "voter",
          "type": "address"
        },
        {
          "indexed": false,
          "internalType": "bool",
          "name": "support",
          "type": "bool"
        },
        {
          "indexed": false,
          "internalType": "uint256",
          "name": "timestamp",
          "type": "uint256"
        }
      ],
      "name": "VoteCast",
      "type": "event"
    },
    {
      "inputs": [],
      "name": "DEFAULT_VOTING_PERIOD",
      "outputs": [
        {
          "internalType": "uint256",
          "name": "",
          "type": "uint256"
        }
      ],
      "stateMutability": "view",
      "type": "function"
    },
    {
      "inputs": [],
      "name": "MAX_VOTING_PERIOD",
      "outputs": [
        {
          "internalType": "uint256",
          "name": "",
          "type": "uint256"
        }
      ],
      "stateMutability": "view",
      "type": "function"
    },
    {
      "inputs": [],
      "name": "MIN_VOTING_PERIOD",
      "outputs": [
        {
          "internalType": "uint256",
          "name": "",
          "type": "uint256"
        }
      ],
      "stateMutability": "view",
      "type": "function"
    },
    {
      "inputs": [],
      "name": "accessToken",
      "outputs": [
        {
          "internalType": "address",
          "name": "",
          "type": "address"
        }
      ],
      "stateMutability": "view",
      "type": "function"
    },
    {
      "inputs": [
        {
          "internalType": "address",
          "name": "",
          "type": "address"
        }
      ],
      "name": "activeProposalId",
      "outputs": [
        {
          "internalType": "uint256",
          "name": "",
          "type": "uint256"
        }
      ],
      "stateMutability": "view",
      "type": "function"
    },
    {
      "inputs": [],
      "name": "claimMemberPool",
      "outputs": [],
      "stateMutability": "nonpayable",
      "type": "function"
    },
    {
      "inputs": [
        {
          "internalType": "string",
          "name": "_title",
          "type": "string"
        },
        {
          "internalType": "string",
          "name": "_description",
          "type": "string"
        },
        {
          "internalType": "bytes",
          "name": "_callData",
          "type": "bytes"
        },
        {
          "internalType": "uint256",
          "name": "_votingPeriod",
          "type": "uint256"
        }
      ],
      "name": "createProposal",
      "outputs": [
        {
          "internalType": "uint256",
          "name": "",
          "type": "uint256"
        }
      ],
      "stateMutability": "nonpayable",
      "type": "function"
    },
    {
      "inputs": [],
      "name": "cumulativeMemberRewards",
      "outputs": [
        {
          "internalType": "uint256",
          "name": "",
          "type": "uint256"
        }
      ],
      "stateMutability": "view",
      "type": "function"
    },
    {
      "inputs": [],
      "name": "entryFee",
      "outputs": [
        {
          "internalType": "uint256",
          "name": "",
          "type": "uint256"
        }
      ],
      "stateMutability": "view",
      "type": "function"
    },
    {
      "inputs": [
        {
          "internalType": "uint256",
          "name": "_proposalId",
          "type": "uint256"
        }
      ],
      "name": "executeProposal",
      "outputs": [],
      "stateMutability": "nonpayable",
      "type": "function"
    },
    {
      "inputs": [],
      "name": "getActiveProposals",
      "outputs": [
        {
          "internalType": "uint256[]",
          "name": "",
          "type": "uint256[]"
        }
      ],
      "stateMutability": "view",
      "type": "function"
    },
    {
      "inputs": [
        {
          "internalType": "uint256",
          "name": "offset",
          "type": "uint256"
        },
        {
          "internalType": "uint256",
          "name": "limit",
          "type": "uint256"
        }
      ],
      "name": "getActiveProposalsPaginated",
      "outputs": [
        {
          "internalType": "uint256[]",
          "name": "proposalIds",
          "type": "uint256[]"
        },
        {
          "internalType": "bool",
          "name": "hasMore",
          "type": "bool"
        }
      ],
      "stateMutability": "view",
      "type": "function"
    },
    {
      "inputs": [
        {
          "internalType": "address",
          "name": "member",
          "type": "address"
        }
      ],
      "name": "getClaimablePoolAmount",
      "outputs": [
        {
          "internalType": "uint256",
          "name": "",
          "type": "uint256"
        }
      ],
      "stateMutability": "view",
      "type": "function"
    },
    {
      "inputs": [],
      "name": "getConfig",
      "outputs": [
        {
          "internalType": "address",
          "name": "token",
          "type": "address"
        },
        {
          "internalType": "uint256",
          "name": "fee",
          "type": "uint256"
        },
        {
          "internalType": "bool",
          "name": "isPaused",
          "type": "bool"
        },
        {
          "internalType": "uint256",
          "name": "purchases",
          "type": "uint256"
        },
        {
          "internalType": "uint256",
          "name": "treasury",
          "type": "uint256"
        },
        {
          "internalType": "uint256",
          "name": "pool",
          "type": "uint256"
        }
      ],
      "stateMutability": "view",
      "type": "function"
    },
    {
      "inputs": [],
      "name": "getMemberCount",
      "outputs": [
        {
          "internalType": "uint256",
          "name": "",
          "type": "uint256"
        }
      ],
      "stateMutability": "view",
      "type": "function"
    },
    {
      "inputs": [
        {
          "internalType": "uint256",
          "name": "_proposalId",
          "type": "uint256"
        }
      ],
      "name": "getProposal",
      "outputs": [
        {
          "internalType": "address",
          "name": "proposer",
          "type": "address"
        },
        {
          "internalType": "string",
          "name": "title",
          "type": "string"
        },
        {
          "internalType": "string",
          "name": "description",
          "type": "string"
        },
        {
          "internalType": "uint256",
          "name": "yesVotes",
          "type": "uint256"
        },
        {
          "internalType": "uint256",
          "name": "noVotes",
          "type": "uint256"
        },
        {
          "internalType": "uint256",
          "name": "endTime",
          "type": "uint256"
        },
        {
          "internalType": "bool",
          "name": "executed",
          "type": "bool"
        },
        {
          "internalType": "bool",
          "name": "passed",
          "type": "bool"
        }
      ],
      "stateMutability": "view",
      "type": "function"
    },
    {
      "inputs": [
        {
          "internalType": "address",
          "name": "user",
          "type": "address"
        }
      ],
      "name": "getPurchaseDetails",
      "outputs": [
        {
          "internalType": "bool",
          "name": "purchased",
          "type": "bool"
        },
        {
          "internalType": "uint256",
          "name": "timestamp",
          "type": "uint256"
        },
        {
          "internalType": "uint256",
          "name": "blockNum",
          "type": "uint256"
        }
      ],
      "stateMutability": "view",
      "type": "function"
    },
    {
      "inputs": [],
      "name": "getTreasuryInfo",
      "outputs": [
        {
          "internalType": "uint256",
          "name": "treasury",
          "type": "uint256"
        },
        {
          "internalType": "uint256",
          "name": "memberPool",
          "type": "uint256"
        },
        {
          "internalType": "uint256",
          "name": "totalReceived",
          "type": "uint256"
        },
        {
          "internalType": "uint256",
          "name": "totalBurnedAmount",
          "type": "uint256"
        },
        {
          "internalType": "uint256",
          "name": "totalProtocolFees",
          "type": "uint256"
        },
        {
          "internalType": "address",
          "name": "protocolAddress",
          "type": "address"
        }
      ],
      "stateMutability": "view",
      "type": "function"
    },
    {
      "inputs": [
        {
          "internalType": "address",
          "name": "voter",
          "type": "address"
        }
      ],
      "name": "getVoteWeight",
      "outputs": [
        {
          "internalType": "uint256",
          "name": "",
          "type": "uint256"
        }
      ],
      "stateMutability": "view",
      "type": "function"
    },
    {
      "inputs": [
        {
          "internalType": "address",
          "name": "user",
          "type": "address"
        }
      ],
      "name": "hasAccess",
      "outputs": [
        {
          "internalType": "bool",
          "name": "",
          "type": "bool"
        }
      ],
      "stateMutability": "view",
      "type": "function"
    },
    {
      "inputs": [
        {
          "internalType": "address",
          "name": "",
          "type": "address"
        }
      ],
      "name": "hasActiveProposal",
      "outputs": [
        {
          "internalType": "bool",
          "name": "",
          "type": "bool"
        }
      ],
      "stateMutability": "view",
      "type": "function"
    },
    {
      "inputs": [
        {
          "internalType": "uint256",
          "name": "_proposalId",
          "type": "uint256"
        },
        {
          "internalType": "address",
          "name": "_voter",
          "type": "address"
        }
      ],
      "name": "hasVoted",
      "outputs": [
        {
          "internalType": "bool",
          "name": "voted",
          "type": "bool"
        },
        {
          "internalType": "bool",
          "name": "support",
          "type": "bool"
        }
      ],
      "stateMutability": "view",
      "type": "function"
    },
    {
      "inputs": [
        {
          "internalType": "address",
          "name": "",
          "type": "address"
        }
      ],
      "name": "memberIndex",
      "outputs": [
        {
          "internalType": "uint256",
          "name": "",
          "type": "uint256"
        }
      ],
      "stateMutability": "view",
      "type": "function"
    },
    {
      "inputs": [
        {
          "internalType": "uint256",
          "name": "",
          "type": "uint256"
        }
      ],
      "name": "memberList",
      "outputs": [
        {
          "internalType": "address",
          "name": "",
          "type": "address"
        }
      ],
      "stateMutability": "view",
      "type": "function"
    },
    {
      "inputs": [],
      "name": "memberPoolBalance",
      "outputs": [
        {
          "internalType": "uint256",
          "name": "",
          "type": "uint256"
        }
      ],
      "stateMutability": "view",
      "type": "function"
    },
    {
      "inputs": [
        {
          "internalType": "address",
          "name": "",
          "type": "address"
        }
      ],
      "name": "memberPoolClaims",
      "outputs": [
        {
          "internalType": "uint256",
          "name": "",
          "type": "uint256"
        }
      ],
      "stateMutability": "view",
      "type": "function"
    },
    {
      "inputs": [],
      "name": "memberRewardRemainder",
      "outputs": [
        {
          "internalType": "uint256",
          "name": "",
          "type": "uint256"
        }
      ],
      "stateMutability": "view",
      "type": "function"
    },
    {
      "inputs": [
        {
          "internalType": "address",
          "name": "",
          "type": "address"
        }
      ],
      "name": "members",
      "outputs": [
        {
          "internalType": "bool",
          "name": "purchased",
          "type": "bool"
        },
        {
          "internalType": "uint256",
          "name": "timestamp",
          "type": "uint256"
        },
        {
          "internalType": "uint256",
          "name": "block",
          "type": "uint256"
        },
        {
          "internalType": "uint256",
          "name": "rewardSnapshot",
          "type": "uint256"
        }
      ],
      "stateMutability": "view",
      "type": "function"
    },
    {
      "inputs": [],
      "name": "paused",
      "outputs": [
        {
          "internalType": "bool",
          "name": "",
          "type": "bool"
        }
      ],
      "stateMutability": "view",
      "type": "function"
    },
    {
      "inputs": [],
      "name": "priest",
      "outputs": [
        {
          "internalType": "address",
          "name": "",
          "type": "address"
        }
      ],
      "stateMutability": "view",
      "type": "function"
    },
    {
      "inputs": [],
      "name": "proposalCount",
      "outputs": [
        {
          "internalType": "uint256",
          "name": "",
          "type": "uint256"
        }
      ],
      "stateMutability": "view",
      "type": "function"
    },
    {
      "inputs": [
        {
          "internalType": "uint256",
          "name": "",
          "type": "uint256"
        }
      ],
      "name": "proposals",
      "outputs": [
        {
          "internalType": "uint256",
          "name": "id",
          "type": "uint256"
        },
        {
          "internalType": "address",
          "name": "proposer",
          "type": "address"
        },
        {
          "internalType": "string",
          "name": "title",
          "type": "string"
        },
        {
          "internalType": "string",
          "name": "description",
          "type": "string"
        },
        {
          "internalType": "bytes",
          "name": "callData",
          "type": "bytes"
        },
        {
          "internalType": "uint256",
          "name": "yesVotes",
          "type": "uint256"
        },
        {
          "internalType": "uint256",
          "name": "noVotes",
          "type": "uint256"
        },
        {
          "internalType": "uint256",
          "name": "endTime",
          "type": "uint256"
        },
        {
          "internalType": "uint256",
          "name": "createdAt",
          "type": "uint256"
        },
        {
          "internalType": "uint256",
          "name": "eligibleVoters",
          "type": "uint256"
        },
        {
          "internalType": "bool",
          "name": "executed",
          "type": "bool"
        }
      ],
      "stateMutability": "view",
      "type": "function"
    },
    {
      "inputs": [],
      "name": "protocolFeeRecipient",
      "outputs": [
        {
          "internalType": "address",
          "name": "",
          "type": "address"
        }
      ],
      "stateMutability": "view",
      "type": "function"
    },
    {
      "inputs": [],
      "name": "purchaseAccess",
      "outputs": [],
      "stateMutability": "nonpayable",
      "type": "function"
    },
    {
      "inputs": [
        {
          "internalType": "bool",
          "name": "_paused",
          "type": "bool"
        }
      ],
      "name": "setPausedDAO",
      "outputs": [],
      "stateMutability": "nonpayable",
      "type": "function"
    },
    {
      "inputs": [
        {
          "internalType": "address",
          "name": "recipient",
          "type": "address"
        }
      ],
      "name": "sweepMemberRewardRemainderDAO",
      "outputs": [],
      "stateMutability": "nonpayable",
      "type": "function"
    },
    {
      "inputs": [],
      "name": "totalBurned",
      "outputs": [
        {
          "internalType": "uint256",
          "name": "",
          "type": "uint256"
        }
      ],
      "stateMutability": "view",
      "type": "function"
    },
    {
      "inputs": [],
      "name": "totalPurchases",
      "outputs": [
        {
          "internalType": "uint256",
          "name": "",
          "type": "uint256"
        }
      ],
      "stateMutability": "view",
      "type": "function"
    },
    {
      "inputs": [],
      "name": "totalToMemberPool",
      "outputs": [
        {
          "internalType": "uint256",
          "name": "",
          "type": "uint256"
        }
      ],
      "stateMutability": "view",
      "type": "function"
    },
    {
      "inputs": [],
      "name": "totalToProtocol",
      "outputs": [
        {
          "internalType": "uint256",
          "name": "",
          "type": "uint256"
        }
      ],
      "stateMutability": "view",
      "type": "function"
    },
    {
      "inputs": [],
      "name": "totalToTreasury",
      "outputs": [
        {
          "internalType": "uint256",
          "name": "",
          "type": "uint256"
        }
      ],
      "stateMutability": "view",
      "type": "function"
    },
    {
      "inputs": [],
      "name": "treasuryBalance",
      "outputs": [
        {
          "internalType": "uint256",
          "name": "",
          "type": "uint256"
        }
      ],
      "stateMutability": "view",
      "type": "function"
    },
    {
      "inputs": [
        {
          "internalType": "address",
          "name": "_token",
          "type": "address"
        },
        {
          "internalType": "uint256",
          "name": "_entryFee",
          "type": "uint256"
        }
      ],
      "name": "updateConfigDAO",
      "outputs": [],
      "stateMutability": "nonpayable",
      "type": "function"
    },
    {
      "inputs": [
        {
          "internalType": "uint256",
          "name": "_proposalId",
          "type": "uint256"
        },
        {
          "internalType": "bool",
          "name": "_support",
          "type": "bool"
        }
      ],
      "name": "vote",
      "outputs": [],
      "stateMutability": "nonpayable",
      "type": "function"
    },
    {
      "inputs": [
        {
          "internalType": "address",
          "name": "recipient",
          "type": "address"
        },
        {
          "internalType": "string",
          "name": "reason",
          "type": "string"
        }
      ],
      "name": "withdrawAllTreasuryDAO",
      "outputs": [],
      "stateMutability": "nonpayable",
      "type": "function"
    },
    {
      "inputs": [
        {
          "internalType": "address",
          "name": "recipient",
          "type": "address"
        },
        {
          "internalType": "uint256",
          "name": "amount",
          "type": "uint256"
        },
        {
          "internalType": "string",
          "name": "reason",
          "type": "string"
        }
      ],
      "name": "withdrawETHDAO",
      "outputs": [],
      "stateMutability": "nonpayable",
      "type": "function"
    },
    {
      "inputs": [
        {
          "internalType": "address",
          "name": "token",
          "type": "address"
        },
        {
          "internalType": "address",
          "name": "recipient",
          "type": "address"
        },
        {
          "internalType": "uint256",
          "name": "amount",
          "type": "uint256"
        },
        {
          "internalType": "string",
          "name": "reason",
          "type": "string"
        }
      ],
      "name": "withdrawTokenDAO",
      "outputs": [],
      "stateMutability": "nonpayable",
      "type": "function"
    },
    {
      "inputs": [
        {
          "internalType": "address",
          "name": "recipient",
          "type": "address"
        },
        {
          "internalType": "uint256",
          "name": "amount",
          "type": "uint256"
        },
        {
          "internalType": "string",
          "name": "reason",
          "type": "string"
        }
      ],
      "name": "withdrawTreasuryDAO",
      "outputs": [],
      "stateMutability": "nonpayable",
      "type": "function"
    },
    {
      "stateMutability": "payable",
      "type": "receive"
    }
  ],
  "bytecode": "0x60c06040526000196010553480156200001757600080fd5b506040516200331d3803806200331d8339810160408190526200003a916200015a565b60016000556001600160a01b03841615806200005d57506001600160a01b038316155b806200007057506001600160a01b038216155b156200008f57604051634e46966960e11b815260040160405180910390fd5b80600003620000b1576040516365e52d5160e11b815260040160405180910390fd5b600a811015620000d457604051635eee050360e11b815260040160405180910390fd5b620000e1600a82620001ac565b156200010057604051636fe6a4c960e01b815260040160405180910390fd5b6001600160a01b0393841660805291831660a052600180546001600160a01b03191691909316179091556002556005805460ff19169055620001cf565b80516001600160a01b03811681146200015557600080fd5b919050565b600080600080608085870312156200017157600080fd5b6200017c856200013d565b93506200018c602086016200013d565b92506200019c604086016200013d565b6060959095015193969295505050565b600082620001ca57634e487b7160e01b600052601260045260246000fd5b500690565b60805160a05161311a62000203600039600081816105c60152818161084c0152611d43015260006107f6015261311a6000f3fe6080604052600436106102975760003560e01c806395a078e81161015a578063bebc8fc0116100c1578063d3493ced1161007a578063d3493ced14610955578063d89135cd14610975578063da35c6641461098b578063e243c5fb146109a1578063f7158b2a146109c1578063ffafe4ad146109d657600080fd5b8063bebc8fc0146107e4578063c1b57edb14610818578063c29394711461082e578063c3f909d4146108a1578063c7f758a814610901578063c9d27afe1461093557600080fd5b8063a730117e11610113578063a730117e14610741578063a81bbe3c14610761578063aedfe53f146103b1578063b307fc6d1461078e578063bc2a2684146107ae578063bdb75b34146107ce57600080fd5b806395a078e814610691578063997072f7146106ca57806399e288d8146106df5780639b14c83c146106f4578063a51a46b914610714578063a64e024a1461072a57600080fd5b806354403801116101fe57806364653f29116101b757806364653f291461055057806364df049e146105b4578063653724d6146106005780636898b19c146106205780636ad18550146106365780638f78bbc41461066357600080fd5b806354403801146104a25780635584c4f9146104c25780635962a941146104e457806359c266ff146104fa5780635c975abb146105105780635fa7ddf01461053a57600080fd5b8063313dab2011610250578063313dab20146103c857806332d084bb146103de5780633dd35279146103fe578063438596321461042b5780634c8260aa14610462578063524ddc231461048257600080fd5b8063013cf08b146102a3578063072ea61c146102e357806308ae4b0c146103075780630d61b5191461036f5780631808022a14610391578063215809ca146103b157600080fd5b3661029e57005b600080fd5b3480156102af57600080fd5b506102c36102be3660046128f5565b610a06565b6040516102da9b9a9998979695949392919061295e565b60405180910390f35b3480156102ef57600080fd5b506102f960025481565b6040519081526020016102da565b34801561031357600080fd5b5061034d610322366004612a08565b600660205260009081526040902080546001820154600283015460039093015460ff90921692909184565b60408051941515855260208501939093529183015260608201526080016102da565b34801561037b57600080fd5b5061038f61038a3660046128f5565b610c01565b005b34801561039d57600080fd5b506102f96103ac366004612a08565b610e28565b3480156103bd57600080fd5b506102f962093a8081565b3480156103d457600080fd5b506102f960035481565b3480156103ea57600080fd5b506102f96103f9366004612ad6565b610e8f565b34801561040a57600080fd5b506102f9610419366004612a08565b60086020526000908152604090205481565b34801561043757600080fd5b5061044b610446366004612b7a565b611246565b6040805192151583529015156020830152016102da565b34801561046e57600080fd5b5061038f61047d366004612ba6565b6112af565b34801561048e57600080fd5b5061038f61049d366004612bfd565b61140a565b3480156104ae57600080fd5b5061038f6104bd366004612ba6565b61153b565b3480156104ce57600080fd5b506104d7611653565b6040516102da9190612c63565b3480156104f057600080fd5b506102f960115481565b34801561050657600080fd5b506102f960155481565b34801561051c57600080fd5b5060055461052a9060ff1681565b60405190151581526020016102da565b34801561054657600080fd5b506102f960045481565b34801561055c57600080fd5b5061059761056b366004612a08565b6001600160a01b031660009081526006602052604090208054600182015460029092015460ff90911692565b6040805193151584526020840192909252908201526060016102da565b3480156105c057600080fd5b506105e87f000000000000000000000000000000000000000000000000000000000000000081565b6040516001600160a01b0390911681526020016102da565b34801561060c57600080fd5b5061038f61061b366004612c86565b611779565b34801561062c57600080fd5b506102f9600a5481565b34801561064257600080fd5b506102f9610651366004612a08565b600e6020526000908152604090205481565b34801561066f57600080fd5b5061068361067e366004612ca1565b6117e0565b6040516102da929190612cc3565b34801561069d57600080fd5b5061052a6106ac366004612a08565b6001600160a01b031660009081526006602052604090205460ff1690565b3480156106d657600080fd5b506007546102f9565b3480156106eb57600080fd5b5061038f611a11565b34801561070057600080fd5b5061038f61070f366004612a08565b611df9565b34801561072057600080fd5b506102f9600b5481565b34801561073657600080fd5b506102f962278d0081565b34801561074d57600080fd5b506102f961075c366004612a08565b611e8a565b34801561076d57600080fd5b506102f961077c366004612a08565b60096020526000908152604090205481565b34801561079a57600080fd5b506105e86107a93660046128f5565b611eba565b3480156107ba57600080fd5b5061038f6107c9366004612ce7565b611ee4565b3480156107da57600080fd5b506102f960145481565b3480156107f057600080fd5b506105e87f000000000000000000000000000000000000000000000000000000000000000081565b34801561082457600080fd5b506102f960135481565b34801561083a57600080fd5b506003546004546013546012546015547f000000000000000000000000000000000000000000000000000000000000000060408051968752602087019590955293850192909252606084015260808301526001600160a01b031660a082015260c0016102da565b3480156108ad57600080fd5b50600154600254600554601154600354600454604080516001600160a01b039097168752602087019590955260ff9093161515938501939093526060840152608083019190915260a082015260c0016102da565b34801561090d57600080fd5b5061092161091c3660046128f5565b612054565b6040516102da989796959493929190612d4f565b34801561094157600080fd5b5061038f610950366004612db8565b61221b565b34801561096157600080fd5b5061038f610970366004612ddb565b612414565b34801561098157600080fd5b506102f960125481565b34801561099757600080fd5b506102f9600c5481565b3480156109ad57600080fd5b506001546105e8906001600160a01b031681565b3480156109cd57600080fd5b5061038f6124f8565b3480156109e257600080fd5b5061052a6109f1366004612a08565b600f6020526000908152604090205460ff1681565b600d6020526000908152604090208054600182015460028301805492936001600160a01b0390921692610a3890612e29565b80601f0160208091040260200160405190810160405280929190818152602001828054610a6490612e29565b8015610ab15780601f10610a8657610100808354040283529160200191610ab1565b820191906000526020600020905b815481529060010190602001808311610a9457829003601f168201915b505050505090806003018054610ac690612e29565b80601f0160208091040260200160405190810160405280929190818152602001828054610af290612e29565b8015610b3f5780601f10610b1457610100808354040283529160200191610b3f565b820191906000526020600020905b815481529060010190602001808311610b2257829003601f168201915b505050505090806004018054610b5490612e29565b80601f0160208091040260200160405190810160405280929190818152602001828054610b8090612e29565b8015610bcd5780601f10610ba257610100808354040283529160200191610bcd565b820191906000526020600020905b815481529060010190602001808311610bb057829003601f168201915b50505060058401546006850154600786015460088701546009880154600a9098015496979396929550909350919060ff168b565b610c09612641565b600c548110610c2b57604051631dc0650160e31b815260040160405180910390fd5b6000818152600d602052604090206007810154421015610c5e57604051633fc30bd160e11b815260040160405180910390fd5b600a81015460ff1615610c8457604051630dc1019760e01b815260040160405180910390fd5b8060060154816005015411610cac5760405163c8c93ba360e01b815260040160405180910390fd5b600a8101805460ff191660019081179091558101546001600160a01b03166000818152600f602052604090205460ff168015610cff57506001600160a01b0381166000908152600e602052604090205483145b15610d30576001600160a01b0381166000908152600f60209081526040808320805460ff19169055600e9091528120555b610d3983601055565b6000610dd0836004018054610d4d90612e29565b80601f0160208091040260200160405190810160405280929190818152602001828054610d7990612e29565b8015610dc65780601f10610d9b57610100808354040283529160200191610dc6565b820191906000526020600020905b815481529060010190602001808311610da957829003601f168201915b505050505061266b565b9050610ddd600019601055565b837faf8f9d0e884d3306a083e846741a0bc4d75908e2b0ec63b558219652ae4c1b90600183604051610e10929190612e63565b60405180910390a2505050610e256001600055565b50565b6001600160a01b03811660009081526006602052604081205460ff16610e5057506000919050565b600a546001600160a01b038316600090815260066020526040902060030154808211610e7d576000610e87565b610e878183612e94565b949350505050565b3360009081526006602052604081205460ff16610ebf5760405163148fe22160e11b815260040160405180910390fd5b8451600003610ee1576040516319d546f160e31b815260040160405180910390fd5b8351600003610f0357604051633e61080d60e01b815260040160405180910390fd5b8251600003610f255760405163066e738d60e01b815260040160405180910390fd5b600483511015610f4857604051632d2b93ff60e01b815260040160405180910390fd5b602083015160006001600160e01b0319821663329b926b60e11b1480610f7e57506001600160e01b0319821663524ddc2360e01b145b80610f9957506001600160e01b03198216635440380160e01b145b80610fb457506001600160e01b0319821663d3493ced60e01b145b80610fcf57506001600160e01b03198216632f0a89a160e21b145b80610fea57506001600160e01b03198216632641305560e11b145b8061100557506001600160e01b031982166326c5320f60e21b145b90508061102557604051631c49f4d160e01b815260040160405180910390fd5b336000908152600f602052604090205460ff16156110b657336000908152600e6020908152604080832054808452600d909252909120600a81015460ff161580156110735750806007015442105b156110915760405163792c310960e11b815260040160405180910390fd5b336000908152600f60209081526040808320805460ff19169055600e90915281205550505b8360008190036110c6575062093a805b62093a808110156110ea576040516331806aeb60e21b815260040160405180910390fd5b62278d0081111561110e5760405163eeeb962360e01b815260040160405180910390fd5b600c80546000918261111f83612ead565b909155506000818152600d602052604090208181556001810180546001600160a01b03191633179055909150600281016111598b82612f16565b50600381016111688a82612f16565b50600481016111778982612f16565b506111828342612fd6565b6007808301918255426008840155546009830155600a8201805460ff19908116909155336000818152600b850160209081526040808320805486166001908117909155600c8801835281842080548716821790556005880181905560068801849055600f8352818420805490961617909455600e90528290208590559154905184917f98120a6aaa04295520ab4e01c6c1235dd316e822cc9ff31db7b3f197366d18bd91611231918f91612fe9565b60405180910390a35098975050505050505050565b600080600c54841061126b57604051631dc0650160e31b815260040160405180910390fd5b50506000828152600d602090815260408083206001600160a01b0385168452600b8101835281842054600c9091019092529091205460ff91821691165b9250929050565b3330146112cf576040516327568d2f60e11b815260040160405180910390fd5b6001600160a01b0383166112f657604051634e46966960e11b815260040160405180910390fd5b81600003611317576040516365e52d5160e11b815260040160405180910390fd5b8147101561133857604051631e9acf1760e31b815260040160405180910390fd5b601054600c54811061135d57604051631dc0650160e31b815260040160405180910390fd5b836001600160a01b0316816000805160206130c5833981519152858560405161138792919061300b565b60405180910390a36000846001600160a01b03168460405160006040518083038185875af1925050503d80600081146113dc576040519150601f19603f3d011682016040523d82523d6000602084013e6113e1565b606091505b5050905080611403576040516331d436c760e01b815260040160405180910390fd5b5050505050565b33301461142a576040516327568d2f60e11b815260040160405180910390fd5b6001600160a01b0382161561149b576001546001600160a01b0383811691161461149b576000600354118061146157506000600454115b1561147f5760405163d38466ab60e01b815260040160405180910390fd5b600180546001600160a01b0319166001600160a01b0384161790555b80156114f257600a8110156114c357604051635eee050360e11b815260040160405180910390fd5b6114ce600a8261303a565b156114ec57604051636fe6a4c960e01b815260040160405180910390fd5b60028190555b6001546002546040519081526001600160a01b03909116907faf8839d80c9b3bbf95c97465eb8c8348db4098f5c15af186c3b425b1129981179060200160405180910390a25050565b33301461155b576040516327568d2f60e11b815260040160405180910390fd5b6001600160a01b03831661158257604051634e46966960e11b815260040160405180910390fd5b816000036115a3576040516365e52d5160e11b815260040160405180910390fd5b6003548211156115c657604051631c7b597b60e11b815260040160405180910390fd5b601054600c5481106115eb57604051631dc0650160e31b815260040160405180910390fd5b82600360008282546115fd9190612e94565b92505081905550836001600160a01b0316816000805160206130c5833981519152858560405161162e92919061300b565b60405180910390a360015461164d906001600160a01b031685856127e3565b50505050565b60606000805b600c548110156116b0576000818152600d60205260409020600701544210801561169557506000818152600d60205260409020600a015460ff16155b156116a857816116a481612ead565b9250505b600101611659565b5060008167ffffffffffffffff8111156116cc576116cc612a2a565b6040519080825280602002602001820160405280156116f5578160200160208202803683370190505b5090506000805b600c54811015611770576000818152600d60205260409020600701544210801561173857506000818152600d60205260409020600a015460ff16155b156117685780838361174981612ead565b94508151811061175b5761175b61304e565b6020026020010181815250505b6001016116fc565b50909392505050565b333014611799576040516327568d2f60e11b815260040160405180910390fd5b6005805460ff19168215159081179091556040519081527f752d7e161ff5146f80e3820893176eb40532811e5e20400dfdde57455213706a9060200160405180910390a150565b606060008215806117f15750606483115b1561180f576040516381f396b760e01b815260040160405180910390fd5b600c54841061183057505060408051600080825260208201909252906112a8565b60008367ffffffffffffffff81111561184b5761184b612a2a565b604051908082528060200260200182016040528015611874578160200160208202803683370190505b509050600085805b600c548110801561188c57508683105b15611912576000818152600d6020526040902060070154421080156118c357506000818152600d60205260409020600a015460ff16155b156118f3578084846118d481612ead565b9550815181106118e6576118e661304e565b6020026020010181815250505b6118fe816001612fd6565b91508061190a81612ead565b91505061187c565b5060009350600c5481101561197757805b600c54811015611975576000818152600d60205260409020600701544210801561195f57506000818152600d60205260409020600a015460ff16155b1561196d5760019450611975565b600101611923565b505b8167ffffffffffffffff81111561199057611990612a2a565b6040519080825280602002602001820160405280156119b9578160200160208202803683370190505b50945060005b82811015611a06578381815181106119d9576119d961304e565b60200260200101518682815181106119f3576119f361304e565b60209081029190910101526001016119bf565b505050509250929050565b60055460ff1615611a3557604051630eceade960e31b815260040160405180910390fd5b303303611a5557604051636edaef2f60e11b815260040160405180910390fd5b611a5d612641565b336000908152600660205260409020805460ff1615611a8f57604051630cd9ed5560e21b815260040160405180910390fd5b60006064600254601e611aa29190613064565b611aac919061307b565b905060006064600254600a611ac19190613064565b611acb919061307b565b6002546001546040516370a0823160e01b815233600482015292935090916001600160a01b03909116906370a0823190602401602060405180830381865afa158015611b1b573d6000803e3d6000fd5b505050506040513d601f19601f82011682018060405250810190611b3f919061308f565b1015611b5e57604051631e9acf1760e31b815260040160405180910390fd5b825460ff19166001908117845542848201554360028501556007805433600081815260086020526040812083905593820183559183527fa66cc928b5edb82af9bd49922954155ab7b0942694bea4ce44661d9a8736c6880180546001600160a01b03191690911790556011805491611bd583612ead565b909155505060075460011015611c50576000600b5483611bf59190612fd6565b600754909150600090611c0a90600190612e94565b611c14908361307b565b600754909150611c2690600190612e94565b611c30908361303a565b600b8190555080600a6000828254611c489190612fd6565b909155505050505b600a5483600301819055508160036000828254611c6d9190612fd6565b925050819055508160046000828254611c869190612fd6565b925050819055508160126000828254611c9f9190612fd6565b925050819055508160136000828254611cb89190612fd6565b925050819055508160146000828254611cd19190612fd6565b925050819055508060156000828254611cea9190612fd6565b90915550506001546001600160a01b0316611d09813361dead86612847565b611d1e6001600160a01b038216333086612847565b611d336001600160a01b038216333086612847565b611d686001600160a01b038216337f000000000000000000000000000000000000000000000000000000000000000085612847565b336001600160a01b03167fe6d1c0e418a42a777d49c66571075fc47bc1d92e7f506007ddde08d1ff182bbc6002548586878742436001601154611dab9190612e94565b604080519889526020890197909752958701949094526060860192909252608085015260a084015260c083015260e08201526101000160405180910390a250505050611df76001600055565b565b333014611e19576040516327568d2f60e11b815260040160405180910390fd5b6001600160a01b038116611e4057604051634e46966960e11b815260040160405180910390fd5b6004546000819003611e65576040516365e52d5160e11b815260040160405180910390fd5b60006004819055600b55600154611e86906001600160a01b031683836127e3565b5050565b6001600160a01b03811660009081526006602052604081205460ff16611eb257506000919050565b506001919050565b60078181548110611eca57600080fd5b6000918252602090912001546001600160a01b0316905081565b333014611f04576040516327568d2f60e11b815260040160405180910390fd5b6001600160a01b0384161580611f2157506001600160a01b038316155b15611f3f57604051634e46966960e11b815260040160405180910390fd5b81600003611f60576040516365e52d5160e11b815260040160405180910390fd5b6040516370a0823160e01b815230600482015282906001600160a01b038616906370a0823190602401602060405180830381865afa158015611fa6573d6000803e3d6000fd5b505050506040513d601f19601f82011682018060405250810190611fca919061308f565b1015611fe957604051631e9acf1760e31b815260040160405180910390fd5b601054600c54811061200e57604051631dc0650160e31b815260040160405180910390fd5b836001600160a01b0316816000805160206130c5833981519152858560405161203892919061300b565b60405180910390a36114036001600160a01b03861685856127e3565b60006060806000806000806000600c54891061208357604051631dc0650160e31b815260040160405180910390fd5b6000898152600d60205260409020600781015442108015906120ac575080600601548160050154115b6001820154600583015460068401546007850154600a8601546002870180549698506001600160a01b0390951695600388019493929160ff1690899087906120f390612e29565b80601f016020809104026020016040519081016040528092919081815260200182805461211f90612e29565b801561216c5780601f106121415761010080835404028352916020019161216c565b820191906000526020600020905b81548152906001019060200180831161214f57829003601f168201915b5050505050965085805461217f90612e29565b80601f01602080910402602001604051908101604052809291908181526020018280546121ab90612e29565b80156121f85780601f106121cd576101008083540402835291602001916121f8565b820191906000526020600020905b8154815290600101906020018083116121db57829003601f168201915b505050505095509850985098509850985098509850985050919395975091939597565b3360009081526006602052604090205460ff1661224b5760405163148fe22160e11b815260040160405180910390fd5b600c54821061226d57604051631dc0650160e31b815260040160405180910390fd5b6000828152600d602052604090206007810154421061229f57604051637a19ed0560e01b815260040160405180910390fd5b600881015433600090815260066020526040902060010154106122d55760405163f078ca7360e01b815260040160405180910390fd5b336000908152600b8201602090815260408083208054600c86019093529220805460ff198084166001179094558154861515941693909317905560ff9081169116816123565783156123415760018360050160008282546123369190612fd6565b909155506123cf9050565b60018360060160008282546123369190612fd6565b831515811515146123cf57801561239857600183600501600082825461237c9190612e94565b9250508190555060018360060160008282546123369190612fd6565b60018360060160008282546123ad9190612e94565b9250508190555060018360050160008282546123c99190612fd6565b90915550505b604080518515158152426020820152339187917fcbdf6214089cba887ecbf35a0b6a734589959c9763342c756bb2a80ca2bc9f6e910160405180910390a35050505050565b333014612434576040516327568d2f60e11b815260040160405180910390fd5b6001600160a01b03821661245b57604051634e46966960e11b815260040160405180910390fd5b60035460000361247e57604051631ab9ebab60e01b815260040160405180910390fd5b601054600c5481106124a357604051631dc0650160e31b815260040160405180910390fd5b6003805460009091556040516001600160a01b0385169083906000805160206130c5833981519152906124d9908590889061300b565b60405180910390a360015461164d906001600160a01b031685836127e3565b3360009081526006602052604090205460ff166125285760405163148fe22160e11b815260040160405180910390fd5b612530612641565b600061253b33610e28565b90508060000361255e576040516373380d9960e01b815260040160405180910390fd5b6000600b546004546125709190612e94565b9050818110156125935760405163bc6072f160e01b815260040160405180910390fd5b600a54336000908152600660209081526040808320600301939093556009905290812080548492906125c6908490612fd6565b9250508190555081600460008282546125df9190612e94565b90915550506001546125fb906001600160a01b031633846127e3565b6040805183815242602082015233917fc4e740509dbfae3377bc9925dd7bcc8aaba69cd730316216d76b2d24725c6366910160405180910390a25050611df76001600055565b60026000540361266457604051633ee5aeb560e01b815260040160405180910390fd5b6002600055565b602081015160609060006001600160e01b0319821663329b926b60e11b14806126a457506001600160e01b0319821663524ddc2360e01b145b806126bf57506001600160e01b03198216635440380160e01b145b806126da57506001600160e01b0319821663d3493ced60e01b145b806126f557506001600160e01b03198216632f0a89a160e21b145b8061271057506001600160e01b03198216632641305560e11b145b8061272b57506001600160e01b031982166326c5320f60e21b145b90508061274b57604051631c49f4d160e01b815260040160405180910390fd5b600080306001600160a01b03168660405161276691906130a8565b6000604051808303816000865af19150503d80600081146127a3576040519150601f19603f3d011682016040523d82523d6000602084013e6127a8565b606091505b5091509150816127da578051156127c157805160208201fd5b6040516331d436c760e01b815260040160405180910390fd5b95945050505050565b6040516001600160a01b0383811660248301526044820183905261284291859182169063a9059cbb906064015b604051602081830303815290604052915060e01b6020820180516001600160e01b038381831617835250505050612880565b505050565b6040516001600160a01b03848116602483015283811660448301526064820183905261164d9186918216906323b872dd90608401612810565b600080602060008451602086016000885af1806128a3576040513d6000823e3d81fd5b50506000513d915081156128bb5780600114156128c8565b6001600160a01b0384163b155b1561164d57604051635274afe760e01b81526001600160a01b038516600482015260240160405180910390fd5b60006020828403121561290757600080fd5b5035919050565b60005b83811015612929578181015183820152602001612911565b50506000910152565b6000815180845261294a81602086016020860161290e565b601f01601f19169290920160200192915050565b8b81526001600160a01b038b166020820152610160604082018190526000906129898382018d612932565b9050828103606084015261299d818c612932565b905082810360808401526129b1818b612932565b60a0840199909952505060c081019590955260e085019390935261010084019190915261012083015215156101409091015295945050505050565b80356001600160a01b0381168114612a0357600080fd5b919050565b600060208284031215612a1a57600080fd5b612a23826129ec565b9392505050565b634e487b7160e01b600052604160045260246000fd5b600067ffffffffffffffff80841115612a5b57612a5b612a2a565b604051601f8501601f19908116603f01168101908282118183101715612a8357612a83612a2a565b81604052809350858152868686011115612a9c57600080fd5b858560208301376000602087830101525050509392505050565b600082601f830112612ac757600080fd5b612a2383833560208501612a40565b60008060008060808587031215612aec57600080fd5b843567ffffffffffffffff80821115612b0457600080fd5b612b1088838901612ab6565b95506020870135915080821115612b2657600080fd5b612b3288838901612ab6565b94506040870135915080821115612b4857600080fd5b508501601f81018713612b5a57600080fd5b612b6987823560208401612a40565b949793965093946060013593505050565b60008060408385031215612b8d57600080fd5b82359150612b9d602084016129ec565b90509250929050565b600080600060608486031215612bbb57600080fd5b612bc4846129ec565b925060208401359150604084013567ffffffffffffffff811115612be757600080fd5b612bf386828701612ab6565b9150509250925092565b60008060408385031215612c1057600080fd5b612c19836129ec565b946020939093013593505050565b60008151808452602080850194506020840160005b83811015612c5857815187529582019590820190600101612c3c565b509495945050505050565b602081526000612a236020830184612c27565b80358015158114612a0357600080fd5b600060208284031215612c9857600080fd5b612a2382612c76565b60008060408385031215612cb457600080fd5b50508035926020909101359150565b604081526000612cd66040830185612c27565b905082151560208301529392505050565b60008060008060808587031215612cfd57600080fd5b612d06856129ec565b9350612d14602086016129ec565b925060408501359150606085013567ffffffffffffffff811115612d3757600080fd5b612d4387828801612ab6565b91505092959194509250565b6001600160a01b038916815261010060208201819052600090612d748382018b612932565b90508281036040840152612d88818a612932565b60608401989098525050608081019490945260a0840192909252151560c0830152151560e0909101529392505050565b60008060408385031215612dcb57600080fd5b82359150612b9d60208401612c76565b60008060408385031215612dee57600080fd5b612df7836129ec565b9150602083013567ffffffffffffffff811115612e1357600080fd5b612e1f85828601612ab6565b9150509250929050565b600181811c90821680612e3d57607f821691505b602082108103612e5d57634e487b7160e01b600052602260045260246000fd5b50919050565b8215158152604060208201526000610e876040830184612932565b634e487b7160e01b600052601160045260246000fd5b81810381811115612ea757612ea7612e7e565b92915050565b600060018201612ebf57612ebf612e7e565b5060010190565b601f821115612842576000816000526020600020601f850160051c81016020861015612eef5750805b601f850160051c820191505b81811015612f0e57828155600101612efb565b505050505050565b815167ffffffffffffffff811115612f3057612f30612a2a565b612f4481612f3e8454612e29565b84612ec6565b602080601f831160018114612f795760008415612f615750858301515b600019600386901b1c1916600185901b178555612f0e565b600085815260208120601f198616915b82811015612fa857888601518255948401946001909101908401612f89565b5085821015612fc65787850151600019600388901b60f8161c191681555b5050505050600190811b01905550565b80820180821115612ea757612ea7612e7e565b604081526000612ffc6040830185612932565b90508260208301529392505050565b828152604060208201526000610e876040830184612932565b634e487b7160e01b600052601260045260246000fd5b60008261304957613049613024565b500690565b634e487b7160e01b600052603260045260246000fd5b8082028115828204841417612ea757612ea7612e7e565b60008261308a5761308a613024565b500490565b6000602082840312156130a157600080fd5b5051919050565b600082516130ba81846020870161290e565b919091019291505056fe1ba011ee074f0e08cc727335f32d75fb7ee71dc0a1e13bb9473e5650b0afd1a3a264697066735822122036d002263dcd28714db0114ee84c06a4fd99b2d5e49186ab490c43ab15afd78764736f6c63430008170033",
  "linkReferences": {},
  "deployedLinkReferences": {}
}