{
  "_format": "hh-sol-artifact-1",
  "contractName": "TEMPL",
  "sourceName": "contracts/TEMPL.sol",
  "abi": [
    {
      "inputs": [
        {
          "internalType": "address",
          "name": "_priest",
          "type": "address"
        },
        {
          "internalType": "address",
          "name": "_protocolFeeRecipient",
          "type": "address"
        },
        {
          "internalType": "address",
          "name": "_token",
          "type": "address"
        },
        {
          "internalType": "uint256",
          "name": "_entryFee",
          "type": "uint256"
        },
        {
          "internalType": "uint256",
          "name": "_priestVoteWeight",
          "type": "uint256"
        },
        {
          "internalType": "uint256",
          "name": "_priestWeightThreshold",
          "type": "uint256"
        }
      ],
      "stateMutability": "nonpayable",
      "type": "constructor"
    },
    {
      "anonymous": false,
      "inputs": [
        {
          "indexed": true,
          "internalType": "address",
          "name": "purchaser",
          "type": "address"
        },
        {
          "indexed": false,
          "internalType": "uint256",
          "name": "totalAmount",
          "type": "uint256"
        },
        {
          "indexed": false,
          "internalType": "uint256",
          "name": "burnedAmount",
          "type": "uint256"
        },
        {
          "indexed": false,
          "internalType": "uint256",
          "name": "treasuryAmount",
          "type": "uint256"
        },
        {
          "indexed": false,
          "internalType": "uint256",
          "name": "memberPoolAmount",
          "type": "uint256"
        },
        {
          "indexed": false,
          "internalType": "uint256",
          "name": "protocolAmount",
          "type": "uint256"
        },
        {
          "indexed": false,
          "internalType": "uint256",
          "name": "timestamp",
          "type": "uint256"
        },
        {
          "indexed": false,
          "internalType": "uint256",
          "name": "blockNumber",
          "type": "uint256"
        },
        {
          "indexed": false,
          "internalType": "uint256",
          "name": "purchaseId",
          "type": "uint256"
        }
      ],
      "name": "AccessPurchased",
      "type": "event"
    },
    {
      "anonymous": false,
      "inputs": [
        {
          "indexed": true,
          "internalType": "address",
          "name": "token",
          "type": "address"
        },
        {
          "indexed": false,
          "internalType": "uint256",
          "name": "entryFee",
          "type": "uint256"
        }
      ],
      "name": "ConfigUpdated",
      "type": "event"
    },
    {
      "anonymous": false,
      "inputs": [
        {
          "indexed": false,
          "internalType": "bool",
          "name": "isPaused",
          "type": "bool"
        }
      ],
      "name": "ContractPaused",
      "type": "event"
    },
    {
      "anonymous": false,
      "inputs": [
        {
          "indexed": true,
          "internalType": "address",
          "name": "member",
          "type": "address"
        },
        {
          "indexed": false,
          "internalType": "uint256",
          "name": "amount",
          "type": "uint256"
        },
        {
          "indexed": false,
          "internalType": "uint256",
          "name": "timestamp",
          "type": "uint256"
        }
      ],
      "name": "MemberPoolClaimed",
      "type": "event"
    },
    {
      "anonymous": false,
      "inputs": [
        {
          "indexed": true,
          "internalType": "uint256",
          "name": "proposalId",
          "type": "uint256"
        },
        {
          "indexed": true,
          "internalType": "address",
          "name": "proposer",
          "type": "address"
        },
        {
          "indexed": false,
          "internalType": "string",
          "name": "title",
          "type": "string"
        },
        {
          "indexed": false,
          "internalType": "uint256",
          "name": "endTime",
          "type": "uint256"
        }
      ],
      "name": "ProposalCreated",
      "type": "event"
    },
    {
      "anonymous": false,
      "inputs": [
        {
          "indexed": true,
          "internalType": "uint256",
          "name": "proposalId",
          "type": "uint256"
        },
        {
          "indexed": false,
          "internalType": "bool",
          "name": "success",
          "type": "bool"
        },
        {
          "indexed": false,
          "internalType": "bytes",
          "name": "returnData",
          "type": "bytes"
        }
      ],
      "name": "ProposalExecuted",
      "type": "event"
    },
    {
      "anonymous": false,
      "inputs": [
        {
          "indexed": true,
          "internalType": "uint256",
          "name": "proposalId",
          "type": "uint256"
        },
        {
          "indexed": true,
          "internalType": "address",
          "name": "recipient",
          "type": "address"
        },
        {
          "indexed": false,
          "internalType": "uint256",
          "name": "amount",
          "type": "uint256"
        },
        {
          "indexed": false,
          "internalType": "string",
          "name": "description",
          "type": "string"
        }
      ],
      "name": "TreasuryAction",
      "type": "event"
    },
    {
      "anonymous": false,
      "inputs": [
        {
          "indexed": true,
          "internalType": "address",
          "name": "priest",
          "type": "address"
        },
        {
          "indexed": true,
          "internalType": "address",
          "name": "recipient",
          "type": "address"
        },
        {
          "indexed": false,
          "internalType": "uint256",
          "name": "amount",
          "type": "uint256"
        },
        {
          "indexed": false,
          "internalType": "uint256",
          "name": "timestamp",
          "type": "uint256"
        }
      ],
      "name": "TreasuryWithdrawn",
      "type": "event"
    },
    {
      "anonymous": false,
      "inputs": [
        {
          "indexed": true,
          "internalType": "uint256",
          "name": "proposalId",
          "type": "uint256"
        },
        {
          "indexed": true,
          "internalType": "address",
          "name": "voter",
          "type": "address"
        },
        {
          "indexed": false,
          "internalType": "bool",
          "name": "support",
          "type": "bool"
        },
        {
          "indexed": false,
          "internalType": "uint256",
          "name": "timestamp",
          "type": "uint256"
        }
      ],
      "name": "VoteCast",
      "type": "event"
    },
    {
      "inputs": [],
      "name": "DEFAULT_VOTING_PERIOD",
      "outputs": [
        {
          "internalType": "uint256",
          "name": "",
          "type": "uint256"
        }
      ],
      "stateMutability": "view",
      "type": "function"
    },
    {
      "inputs": [],
      "name": "MAX_VOTING_PERIOD",
      "outputs": [
        {
          "internalType": "uint256",
          "name": "",
          "type": "uint256"
        }
      ],
      "stateMutability": "view",
      "type": "function"
    },
    {
      "inputs": [],
      "name": "MIN_VOTING_PERIOD",
      "outputs": [
        {
          "internalType": "uint256",
          "name": "",
          "type": "uint256"
        }
      ],
      "stateMutability": "view",
      "type": "function"
    },
    {
      "inputs": [],
      "name": "accessToken",
      "outputs": [
        {
          "internalType": "address",
          "name": "",
          "type": "address"
        }
      ],
      "stateMutability": "view",
      "type": "function"
    },
    {
      "inputs": [
        {
          "internalType": "address",
          "name": "",
          "type": "address"
        }
      ],
      "name": "activeProposalId",
      "outputs": [
        {
          "internalType": "uint256",
          "name": "",
          "type": "uint256"
        }
      ],
      "stateMutability": "view",
      "type": "function"
    },
    {
      "inputs": [],
      "name": "claimMemberPool",
      "outputs": [],
      "stateMutability": "nonpayable",
      "type": "function"
    },
    {
      "inputs": [
        {
          "internalType": "string",
          "name": "_title",
          "type": "string"
        },
        {
          "internalType": "string",
          "name": "_description",
          "type": "string"
        },
        {
          "internalType": "bytes",
          "name": "_callData",
          "type": "bytes"
        },
        {
          "internalType": "uint256",
          "name": "_votingPeriod",
          "type": "uint256"
        }
      ],
      "name": "createProposal",
      "outputs": [
        {
          "internalType": "uint256",
          "name": "",
          "type": "uint256"
        }
      ],
      "stateMutability": "nonpayable",
      "type": "function"
    },
    {
      "inputs": [],
      "name": "entryFee",
      "outputs": [
        {
          "internalType": "uint256",
          "name": "",
          "type": "uint256"
        }
      ],
      "stateMutability": "view",
      "type": "function"
    },
    {
      "inputs": [
        {
          "internalType": "address",
          "name": "target",
          "type": "address"
        },
        {
          "internalType": "uint256",
          "name": "value",
          "type": "uint256"
        },
        {
          "internalType": "bytes",
          "name": "data",
          "type": "bytes"
        }
      ],
      "name": "executeDAO",
      "outputs": [
        {
          "internalType": "bytes",
          "name": "",
          "type": "bytes"
        }
      ],
      "stateMutability": "nonpayable",
      "type": "function"
    },
    {
      "inputs": [
        {
          "internalType": "uint256",
          "name": "_proposalId",
          "type": "uint256"
        }
      ],
      "name": "executeProposal",
      "outputs": [],
      "stateMutability": "nonpayable",
      "type": "function"
    },
    {
      "inputs": [],
      "name": "getActiveProposals",
      "outputs": [
        {
          "internalType": "uint256[]",
          "name": "",
          "type": "uint256[]"
        }
      ],
      "stateMutability": "view",
      "type": "function"
    },
    {
      "inputs": [
        {
          "internalType": "address",
          "name": "member",
          "type": "address"
        }
      ],
      "name": "getClaimablePoolAmount",
      "outputs": [
        {
          "internalType": "uint256",
          "name": "",
          "type": "uint256"
        }
      ],
      "stateMutability": "view",
      "type": "function"
    },
    {
      "inputs": [],
      "name": "getConfig",
      "outputs": [
        {
          "internalType": "address",
          "name": "token",
          "type": "address"
        },
        {
          "internalType": "uint256",
          "name": "fee",
          "type": "uint256"
        },
        {
          "internalType": "bool",
          "name": "isPaused",
          "type": "bool"
        },
        {
          "internalType": "uint256",
          "name": "purchases",
          "type": "uint256"
        },
        {
          "internalType": "uint256",
          "name": "treasury",
          "type": "uint256"
        },
        {
          "internalType": "uint256",
          "name": "pool",
          "type": "uint256"
        }
      ],
      "stateMutability": "view",
      "type": "function"
    },
    {
      "inputs": [],
      "name": "getMemberCount",
      "outputs": [
        {
          "internalType": "uint256",
          "name": "",
          "type": "uint256"
        }
      ],
      "stateMutability": "view",
      "type": "function"
    },
    {
      "inputs": [
        {
          "internalType": "uint256",
          "name": "_proposalId",
          "type": "uint256"
        }
      ],
      "name": "getProposal",
      "outputs": [
        {
          "internalType": "address",
          "name": "proposer",
          "type": "address"
        },
        {
          "internalType": "string",
          "name": "title",
          "type": "string"
        },
        {
          "internalType": "string",
          "name": "description",
          "type": "string"
        },
        {
          "internalType": "uint256",
          "name": "yesVotes",
          "type": "uint256"
        },
        {
          "internalType": "uint256",
          "name": "noVotes",
          "type": "uint256"
        },
        {
          "internalType": "uint256",
          "name": "endTime",
          "type": "uint256"
        },
        {
          "internalType": "bool",
          "name": "executed",
          "type": "bool"
        },
        {
          "internalType": "bool",
          "name": "passed",
          "type": "bool"
        }
      ],
      "stateMutability": "view",
      "type": "function"
    },
    {
      "inputs": [
        {
          "internalType": "address",
          "name": "user",
          "type": "address"
        }
      ],
      "name": "getPurchaseDetails",
      "outputs": [
        {
          "internalType": "bool",
          "name": "purchased",
          "type": "bool"
        },
        {
          "internalType": "uint256",
          "name": "timestamp",
          "type": "uint256"
        },
        {
          "internalType": "uint256",
          "name": "blockNum",
          "type": "uint256"
        }
      ],
      "stateMutability": "view",
      "type": "function"
    },
    {
      "inputs": [],
      "name": "getTreasuryInfo",
      "outputs": [
        {
          "internalType": "uint256",
          "name": "treasury",
          "type": "uint256"
        },
        {
          "internalType": "uint256",
          "name": "memberPool",
          "type": "uint256"
        },
        {
          "internalType": "uint256",
          "name": "totalReceived",
          "type": "uint256"
        },
        {
          "internalType": "uint256",
          "name": "totalBurnedAmount",
          "type": "uint256"
        },
        {
          "internalType": "uint256",
          "name": "totalProtocolFees",
          "type": "uint256"
        },
        {
          "internalType": "address",
          "name": "protocolAddress",
          "type": "address"
        }
      ],
      "stateMutability": "view",
      "type": "function"
    },
    {
      "inputs": [
        {
          "internalType": "address",
          "name": "voter",
          "type": "address"
        }
      ],
      "name": "getVoteWeight",
      "outputs": [
        {
          "internalType": "uint256",
          "name": "",
          "type": "uint256"
        }
      ],
      "stateMutability": "view",
      "type": "function"
    },
    {
      "inputs": [
        {
          "internalType": "address",
          "name": "user",
          "type": "address"
        }
      ],
      "name": "hasAccess",
      "outputs": [
        {
          "internalType": "bool",
          "name": "",
          "type": "bool"
        }
      ],
      "stateMutability": "view",
      "type": "function"
    },
    {
      "inputs": [
        {
          "internalType": "address",
          "name": "",
          "type": "address"
        }
      ],
      "name": "hasActiveProposal",
      "outputs": [
        {
          "internalType": "bool",
          "name": "",
          "type": "bool"
        }
      ],
      "stateMutability": "view",
      "type": "function"
    },
    {
      "inputs": [
        {
          "internalType": "address",
          "name": "",
          "type": "address"
        }
      ],
      "name": "hasPurchased",
      "outputs": [
        {
          "internalType": "bool",
          "name": "",
          "type": "bool"
        }
      ],
      "stateMutability": "view",
      "type": "function"
    },
    {
      "inputs": [
        {
          "internalType": "uint256",
          "name": "_proposalId",
          "type": "uint256"
        },
        {
          "internalType": "address",
          "name": "_voter",
          "type": "address"
        }
      ],
      "name": "hasVoted",
      "outputs": [
        {
          "internalType": "bool",
          "name": "voted",
          "type": "bool"
        },
        {
          "internalType": "bool",
          "name": "support",
          "type": "bool"
        }
      ],
      "stateMutability": "view",
      "type": "function"
    },
    {
      "inputs": [
        {
          "internalType": "address",
          "name": "",
          "type": "address"
        }
      ],
      "name": "memberIndex",
      "outputs": [
        {
          "internalType": "uint256",
          "name": "",
          "type": "uint256"
        }
      ],
      "stateMutability": "view",
      "type": "function"
    },
    {
      "inputs": [],
      "name": "memberPoolBalance",
      "outputs": [
        {
          "internalType": "uint256",
          "name": "",
          "type": "uint256"
        }
      ],
      "stateMutability": "view",
      "type": "function"
    },
    {
      "inputs": [
        {
          "internalType": "address",
          "name": "",
          "type": "address"
        }
      ],
      "name": "memberPoolClaims",
      "outputs": [
        {
          "internalType": "uint256",
          "name": "",
          "type": "uint256"
        }
      ],
      "stateMutability": "view",
      "type": "function"
    },
    {
      "inputs": [
        {
          "internalType": "uint256",
          "name": "",
          "type": "uint256"
        }
      ],
      "name": "members",
      "outputs": [
        {
          "internalType": "address",
          "name": "",
          "type": "address"
        }
      ],
      "stateMutability": "view",
      "type": "function"
    },
    {
      "inputs": [],
      "name": "paused",
      "outputs": [
        {
          "internalType": "bool",
          "name": "",
          "type": "bool"
        }
      ],
      "stateMutability": "view",
      "type": "function"
    },
    {
      "inputs": [
        {
          "internalType": "uint256",
          "name": "",
          "type": "uint256"
        }
      ],
      "name": "poolDeposits",
      "outputs": [
        {
          "internalType": "uint256",
          "name": "",
          "type": "uint256"
        }
      ],
      "stateMutability": "view",
      "type": "function"
    },
    {
      "inputs": [],
      "name": "priest",
      "outputs": [
        {
          "internalType": "address",
          "name": "",
          "type": "address"
        }
      ],
      "stateMutability": "view",
      "type": "function"
    },
    {
      "inputs": [],
      "name": "priestVoteWeight",
      "outputs": [
        {
          "internalType": "uint256",
          "name": "",
          "type": "uint256"
        }
      ],
      "stateMutability": "view",
      "type": "function"
    },
    {
      "inputs": [],
      "name": "priestWeightThreshold",
      "outputs": [
        {
          "internalType": "uint256",
          "name": "",
          "type": "uint256"
        }
      ],
      "stateMutability": "view",
      "type": "function"
    },
    {
      "inputs": [],
      "name": "proposalCount",
      "outputs": [
        {
          "internalType": "uint256",
          "name": "",
          "type": "uint256"
        }
      ],
      "stateMutability": "view",
      "type": "function"
    },
    {
      "inputs": [
        {
          "internalType": "uint256",
          "name": "",
          "type": "uint256"
        }
      ],
      "name": "proposals",
      "outputs": [
        {
          "internalType": "uint256",
          "name": "id",
          "type": "uint256"
        },
        {
          "internalType": "address",
          "name": "proposer",
          "type": "address"
        },
        {
          "internalType": "string",
          "name": "title",
          "type": "string"
        },
        {
          "internalType": "string",
          "name": "description",
          "type": "string"
        },
        {
          "internalType": "bytes",
          "name": "callData",
          "type": "bytes"
        },
        {
          "internalType": "uint256",
          "name": "yesVotes",
          "type": "uint256"
        },
        {
          "internalType": "uint256",
          "name": "noVotes",
          "type": "uint256"
        },
        {
          "internalType": "uint256",
          "name": "endTime",
          "type": "uint256"
        },
        {
          "internalType": "uint256",
          "name": "createdAt",
          "type": "uint256"
        },
        {
          "internalType": "uint256",
          "name": "eligibleVoters",
          "type": "uint256"
        },
        {
          "internalType": "bool",
          "name": "executed",
          "type": "bool"
        }
      ],
      "stateMutability": "view",
      "type": "function"
    },
    {
      "inputs": [],
      "name": "protocolFeeRecipient",
      "outputs": [
        {
          "internalType": "address",
          "name": "",
          "type": "address"
        }
      ],
      "stateMutability": "view",
      "type": "function"
    },
    {
      "inputs": [],
      "name": "purchaseAccess",
      "outputs": [],
      "stateMutability": "nonpayable",
      "type": "function"
    },
    {
      "inputs": [
        {
          "internalType": "address",
          "name": "",
          "type": "address"
        }
      ],
      "name": "purchaseBlock",
      "outputs": [
        {
          "internalType": "uint256",
          "name": "",
          "type": "uint256"
        }
      ],
      "stateMutability": "view",
      "type": "function"
    },
    {
      "inputs": [
        {
          "internalType": "address",
          "name": "",
          "type": "address"
        }
      ],
      "name": "purchaseTimestamp",
      "outputs": [
        {
          "internalType": "uint256",
          "name": "",
          "type": "uint256"
        }
      ],
      "stateMutability": "view",
      "type": "function"
    },
    {
      "inputs": [
        {
          "internalType": "bool",
          "name": "_paused",
          "type": "bool"
        }
      ],
      "name": "setPaused",
      "outputs": [],
      "stateMutability": "nonpayable",
      "type": "function"
    },
    {
      "inputs": [
        {
          "internalType": "bool",
          "name": "_paused",
          "type": "bool"
        }
      ],
      "name": "setPausedDAO",
      "outputs": [],
      "stateMutability": "nonpayable",
      "type": "function"
    },
    {
      "inputs": [],
      "name": "totalBurned",
      "outputs": [
        {
          "internalType": "uint256",
          "name": "",
          "type": "uint256"
        }
      ],
      "stateMutability": "view",
      "type": "function"
    },
    {
      "inputs": [],
      "name": "totalPurchases",
      "outputs": [
        {
          "internalType": "uint256",
          "name": "",
          "type": "uint256"
        }
      ],
      "stateMutability": "view",
      "type": "function"
    },
    {
      "inputs": [],
      "name": "totalToMemberPool",
      "outputs": [
        {
          "internalType": "uint256",
          "name": "",
          "type": "uint256"
        }
      ],
      "stateMutability": "view",
      "type": "function"
    },
    {
      "inputs": [],
      "name": "totalToProtocol",
      "outputs": [
        {
          "internalType": "uint256",
          "name": "",
          "type": "uint256"
        }
      ],
      "stateMutability": "view",
      "type": "function"
    },
    {
      "inputs": [],
      "name": "totalToTreasury",
      "outputs": [
        {
          "internalType": "uint256",
          "name": "",
          "type": "uint256"
        }
      ],
      "stateMutability": "view",
      "type": "function"
    },
    {
      "inputs": [],
      "name": "treasuryBalance",
      "outputs": [
        {
          "internalType": "uint256",
          "name": "",
          "type": "uint256"
        }
      ],
      "stateMutability": "view",
      "type": "function"
    },
    {
      "inputs": [
        {
          "internalType": "address",
          "name": "_token",
          "type": "address"
        },
        {
          "internalType": "uint256",
          "name": "_entryFee",
          "type": "uint256"
        }
      ],
      "name": "updateConfig",
      "outputs": [],
      "stateMutability": "nonpayable",
      "type": "function"
    },
    {
      "inputs": [
        {
          "internalType": "address",
          "name": "_token",
          "type": "address"
        },
        {
          "internalType": "uint256",
          "name": "_entryFee",
          "type": "uint256"
        }
      ],
      "name": "updateConfigDAO",
      "outputs": [],
      "stateMutability": "nonpayable",
      "type": "function"
    },
    {
      "inputs": [
        {
          "internalType": "uint256",
          "name": "_proposalId",
          "type": "uint256"
        },
        {
          "internalType": "bool",
          "name": "_support",
          "type": "bool"
        }
      ],
      "name": "vote",
      "outputs": [],
      "stateMutability": "nonpayable",
      "type": "function"
    },
    {
      "inputs": [
        {
          "internalType": "address",
          "name": "recipient",
          "type": "address"
        }
      ],
      "name": "withdrawAllTreasury",
      "outputs": [],
      "stateMutability": "nonpayable",
      "type": "function"
    },
    {
      "inputs": [
        {
          "internalType": "address",
          "name": "recipient",
          "type": "address"
        },
        {
          "internalType": "string",
          "name": "reason",
          "type": "string"
        }
      ],
      "name": "withdrawAllTreasuryDAO",
      "outputs": [],
      "stateMutability": "nonpayable",
      "type": "function"
    },
    {
      "inputs": [
        {
          "internalType": "address",
          "name": "recipient",
          "type": "address"
        },
        {
          "internalType": "uint256",
          "name": "amount",
          "type": "uint256"
        }
      ],
      "name": "withdrawTreasury",
      "outputs": [],
      "stateMutability": "nonpayable",
      "type": "function"
    },
    {
      "inputs": [
        {
          "internalType": "address",
          "name": "recipient",
          "type": "address"
        },
        {
          "internalType": "uint256",
          "name": "amount",
          "type": "uint256"
        },
        {
          "internalType": "string",
          "name": "reason",
          "type": "string"
        }
      ],
      "name": "withdrawTreasuryDAO",
      "outputs": [],
      "stateMutability": "nonpayable",
      "type": "function"
    }
  ],
  "bytecode": "0x6101006040523480156200001257600080fd5b50604051620036fa380380620036fa833981016040819052620000359162000337565b6001600160a01b038616620000915760405162461bcd60e51b815260206004820152601660248201527f496e76616c69642070726965737420616464726573730000000000000000000060448201526064015b60405180910390fd5b6001600160a01b038516620000f85760405162461bcd60e51b815260206004820152602660248201527f496e76616c69642070726f746f636f6c2066656520726563697069656e74206160448201526564647265737360d01b606482015260840162000088565b6001600160a01b038416620001505760405162461bcd60e51b815260206004820152601560248201527f496e76616c696420746f6b656e20616464726573730000000000000000000000604482015260640162000088565b60008311620001a25760405162461bcd60e51b815260206004820181905260248201527f456e74727920666565206d7573742062652067726561746572207468616e2030604482015260640162000088565b600a831015620002015760405162461bcd60e51b8152602060048201526024808201527f456e7472792066656520746f6f20736d616c6c20666f722064697374726962756044820152633a34b7b760e11b606482015260840162000088565b60008211620002655760405162461bcd60e51b815260206004820152602960248201527f50726965737420766f746520776569676874206d75737420626520677265617460448201526806572207468616e20360bc1b606482015260840162000088565b60008111620002ce5760405162461bcd60e51b815260206004820152602e60248201527f50726965737420776569676874207468726573686f6c64206d7573742062652060448201526d067726561746572207468616e20360941b606482015260840162000088565b6001600160a01b0395861660805293851660a052600080546001600160a01b031916939095169290921790935560019290925560c09190915260e0526004805460ff191690556200039d565b80516001600160a01b03811681146200033257600080fd5b919050565b60008060008060008060c087890312156200035157600080fd5b6200035c876200031a565b95506200036c602088016200031a565b94506200037c604088016200031a565b9350606087015192506080870151915060a087015190509295509295509295565b60805160a05160c05160e0516132eb6200040f6000396000818161043101528181612109015261263901526000818161075f015281816121320152612662015260008181610577015281816107050152611dc10152600081816106a9015281816120ca015261260c01526132eb6000f3fe608060405234801561001057600080fd5b506004361061030c5760003560e01c8063767551181161019d578063c233ccf1116100e9578063d3493ced116100a2578063e243c5fb1161007c578063e243c5fb14610833578063f4f7596a14610846578063f7158b2a14610854578063ffafe4ad1461085c57600080fd5b8063d3493ced1461080e578063d89135cd14610821578063da35c6641461082a57600080fd5b8063c233ccf1146106d4578063c2939471146106f4578063c34b55801461075a578063c3f909d414610781578063c7f758a8146107d4578063c9d27afe146107fb57600080fd5b8063a64e024a11610156578063aedfe53f11610130578063aedfe53f146103bc578063bdb75b341461069b578063bebc8fc0146106a4578063c1b57edb146106cb57600080fd5b8063a64e024a1461065e578063a730117e14610668578063a81bbe3c1461067b57600080fd5b806376755118146105cc57806390118fb4146105ec57806395a078e81461060f578063997072f71461063b578063999dcbe61461064357806399e288d81461065657600080fd5b8063524ddc231161025c5780635daf08ca1161021557806364653f29116101ef57806364653f291461051157806364df049e14610572578063653724d6146105995780636ad18550146105ac57600080fd5b80635daf08ca146104bd5780635e391dfe146104e85780635fa7ddf01461050857600080fd5b8063524ddc231461045357806354403801146104665780635584c4f9146104795780635962a9411461048e57806359c266ff146104975780635c975abb146104a057600080fd5b806318a74064116102c957806332d084bb116102a357806332d084bb146103cf5780633dd35279146103e257806343859632146104025780634c78afc81461042c57600080fd5b806318a74064146103a9578063215809ca146103bc578063313dab20146103c657600080fd5b8063013cf08b14610311578063072ea61c146103445780630d61b5191461035b5780630d86419a1461037057806316c38b3c146103835780631808022a14610396575b600080fd5b61032461031f366004612aa5565b61087f565b60405161033b9b9a99989796959493929190612b0e565b60405180910390f35b61034d60015481565b60405190815260200161033b565b61036e610369366004612aa5565b610a7a565b005b61036e61037e366004612bb8565b610d46565b61036e610391366004612bf3565b610dd3565b61034d6103a4366004612c17565b610e53565b61036e6103b7366004612bb8565b610f7c565b61034d62093a8081565b61034d60025481565b61034d6103dd366004612cd5565b610fff565b61034d6103f0366004612c17565b60096020526000908152604090205481565b610415610410366004612d65565b6113bf565b60408051921515835290151560208301520161033b565b61034d7f000000000000000000000000000000000000000000000000000000000000000081565b61036e610461366004612bb8565b611425565b61036e610474366004612d91565b611522565b610481611763565b60405161033b9190612de8565b61034d60105481565b61034d60145481565b6004546104ad9060ff1681565b604051901515815260200161033b565b6104d06104cb366004612aa5565b61189d565b6040516001600160a01b03909116815260200161033b565b61034d6104f6366004612c17565b60076020526000908152604090205481565b61034d60035481565b61055561051f366004612c17565b6001600160a01b03166000908152600560209081526040808320546006835281842054600790935292205460ff90921692909190565b60408051931515845260208401929092529082015260600161033b565b6104d07f000000000000000000000000000000000000000000000000000000000000000081565b61036e6105a7366004612bf3565b6118c7565b61034d6105ba366004612c17565b600e6020526000908152604090205481565b61034d6105da366004612c17565b60066020526000908152604090205481565b6104ad6105fa366004612c17565b60056020526000908152604090205460ff1681565b6104ad61061d366004612c17565b6001600160a01b031660009081526005602052604090205460ff1690565b60085461034d565b61034d610651366004612aa5565b61192d565b61036e61194e565b61034d62278d0081565b61034d610676366004612c17565b6120a0565b61034d610689366004612c17565b600a6020526000908152604090205481565b61034d60135481565b6104d07f000000000000000000000000000000000000000000000000000000000000000081565b61034d60125481565b6106e76106e2366004612d91565b61215e565b60405161033b9190612e2c565b6002546003546012546011546014547f000000000000000000000000000000000000000000000000000000000000000060408051968752602087019590955293850192909252606084015260808301526001600160a01b031660a082015260c00161033b565b61034d7f000000000000000000000000000000000000000000000000000000000000000081565b600054600154600454601054600254600354604080516001600160a01b039097168752602087019590955260ff9093161515938501939093526060840152608083019190915260a082015260c00161033b565b6107e76107e2366004612aa5565b612276565b60405161033b989796959493929190612e3f565b61036e610809366004612ea8565b612427565b61036e61081c366004612ed8565b6126fc565b61034d60115481565b61034d600c5481565b6000546104d0906001600160a01b031681565b61036e61037e366004612c17565b61036e6128c7565b6104ad61086a366004612c17565b600f6020526000908152604090205460ff1681565b600d6020526000908152604090208054600182015460028301805492936001600160a01b03909216926108b190612f26565b80601f01602080910402602001604051908101604052809291908181526020018280546108dd90612f26565b801561092a5780601f106108ff5761010080835404028352916020019161092a565b820191906000526020600020905b81548152906001019060200180831161090d57829003601f168201915b50505050509080600301805461093f90612f26565b80601f016020809104026020016040519081016040528092919081815260200182805461096b90612f26565b80156109b85780601f1061098d576101008083540402835291602001916109b8565b820191906000526020600020905b81548152906001019060200180831161099b57829003601f168201915b5050505050908060040180546109cd90612f26565b80601f01602080910402602001604051908101604052809291908181526020018280546109f990612f26565b8015610a465780601f10610a1b57610100808354040283529160200191610a46565b820191906000526020600020905b815481529060010190602001808311610a2957829003601f168201915b50505060058401546006850154600786015460088701546009880154600a9098015496979396929550909350919060ff168b565b600c548110610aa45760405162461bcd60e51b8152600401610a9b90612f60565b60405180910390fd5b6000818152600d602052604090206007810154421015610af95760405162461bcd60e51b815260206004820152601060248201526f159bdd1a5b99c81b9bdd08195b99195960821b6044820152606401610a9b565b600a81015460ff1615610b415760405162461bcd60e51b815260206004820152601060248201526f105b1c9958591e48195e1958dd5d195960821b6044820152606401610a9b565b8060060154816005015411610b905760405162461bcd60e51b815260206004820152601560248201527450726f706f73616c20646964206e6f74207061737360581b6044820152606401610a9b565b600a8101805460ff191660019081179091558101546001600160a01b03166000818152600f602052604090205460ff168015610be357506001600160a01b0381166000908152600e602052604090205483145b15610c14576001600160a01b0381166000908152600f60209081526040808320805460ff19169055600e9091528120555b600080306001600160a01b031684600401604051610c329190612f8a565b6000604051808303816000865af19150503d8060008114610c6f576040519150601f19603f3d011682016040523d82523d6000602084013e610c74565b606091505b5091509150847faf8f9d0e884d3306a083e846741a0bc4d75908e2b0ec63b558219652ae4c1b908383604051610cab929190613000565b60405180910390a281610d3f57600a8401805460ff199081169091556001600160a01b0384166000908152600f602090815260408083208054909416600117909355600e90528190208690555162461bcd60e51b8152610a9b9060040160208082526019908201527f50726f706f73616c20657865637574696f6e206661696c656400000000000000604082015260600190565b5050505050565b60405162461bcd60e51b815260206004820152605660248201527f5472656173757279207769746864726177616c7320726571756972652044414f60448201527f20617070726f76616c2e2055736520776974686472617754726561737572794460648201527520a7903a343937bab3b4103090383937b837b9b0b61760511b608482015260a401610a9b565b60405162461bcd60e51b815260206004820152604960248201527f50617573652f756e70617573652072657175697265732044414f20617070726f60448201527f76616c2e205573652073657450617573656444414f207468726f756768206120606482015268383937b837b9b0b61760b91b608482015260a401610a9b565b6001600160a01b03811660009081526005602052604081205460ff16610e7b57506000919050565b6001600160a01b0382166000908152600960205260408120549080610ea1836001613031565b90505b600b54811015610f2a576000600b8281548110610ec357610ec361304a565b90600052602060002001541115610f1857808015610f1657600081600b8481548110610ef157610ef161304a565b9060005260206000200154610f069190613060565b9050610f128185613031565b9350505b505b80610f2281613082565b915050610ea4565b506001600160a01b0384166000908152600a60205260409020548111610f51576000610f74565b6001600160a01b0384166000908152600a6020526040902054610f74908261309b565b949350505050565b60405162461bcd60e51b815260206004820152604c60248201527f436f6e666967207570646174657320726571756972652044414f20617070726f60448201527f76616c2e2055736520757064617465436f6e66696744414f207468726f75676860648201526b103090383937b837b9b0b61760a11b608482015260a401610a9b565b3360009081526005602052604081205460ff1661105e5760405162461bcd60e51b815260206004820152601a60248201527f4f6e6c79206d656d626572732063616e2063616c6c20746869730000000000006044820152606401610a9b565b60008551116110a05760405162461bcd60e51b815260206004820152600e60248201526d151a5d1b19481c995c5d5a5c995960921b6044820152606401610a9b565b60008451116110e85760405162461bcd60e51b815260206004820152601460248201527311195cd8dc9a5c1d1a5bdb881c995c5d5a5c995960621b6044820152606401610a9b565b600083511161112e5760405162461bcd60e51b815260206004820152601260248201527110d85b1b0819185d18481c995c5d5a5c995960721b6044820152606401610a9b565b336000908152600f602052604090205460ff16156111fa57336000908152600e6020908152604080832054808452600d909252909120600a81015460ff1615801561117c5750806007015442105b156111d55760405162461bcd60e51b815260206004820152602360248201527f596f7520616c7265616479206861766520616e206163746976652070726f706f6044820152621cd85b60ea1b6064820152608401610a9b565b336000908152600f60209081526040808320805460ff19169055600e90915281205550505b81600081900361120a575062093a805b62093a8081101561125d5760405162461bcd60e51b815260206004820152601760248201527f566f74696e6720706572696f6420746f6f2073686f72740000000000000000006044820152606401610a9b565b62278d008111156112a95760405162461bcd60e51b8152602060048201526016602482015275566f74696e6720706572696f6420746f6f206c6f6e6760501b6044820152606401610a9b565b600c8054600091826112ba83613082565b909155506000818152600d602052604090208181556001810180546001600160a01b03191633179055909150600281016112f489826130fd565b506003810161130388826130fd565b506004810161131287826130fd565b5061131d8342613031565b6007820190815542600880840191909155546009830155600a8201805460ff199081169091556000600584018190556006840181905533808252600f602090815260408084208054909516600117909455600e9052908290208590559154905184917f98120a6aaa04295520ab4e01c6c1235dd316e822cc9ff31db7b3f197366d18bd916113ac918d916131bd565b60405180910390a3509695505050505050565b600080600c5484106113e35760405162461bcd60e51b8152600401610a9b90612f60565b50506000918252600d602090815260408084206001600160a01b03939093168452600b8301825280842054600c9093019091529091205460ff91821692911690565b3330146114445760405162461bcd60e51b8152600401610a9b906131df565b6001600160a01b0382161561146f57600080546001600160a01b0319166001600160a01b0384161790555b80156114d857600a8110156114d25760405162461bcd60e51b8152602060048201526024808201527f456e7472792066656520746f6f20736d616c6c20666f722064697374726962756044820152633a34b7b760e11b6064820152608401610a9b565b60018190555b6000546001546040519081526001600160a01b03909116907faf8839d80c9b3bbf95c97465eb8c8348db4098f5c15af186c3b425b112998117906020015b60405180910390a25050565b3330146115415760405162461bcd60e51b8152600401610a9b906131df565b6001600160a01b03831661158b5760405162461bcd60e51b8152602060048201526011602482015270125b9d985b1a59081c9958da5c1a595b9d607a1b6044820152606401610a9b565b600082116115db5760405162461bcd60e51b815260206004820152601d60248201527f416d6f756e74206d7573742062652067726561746572207468616e20300000006044820152606401610a9b565b60025482111561162d5760405162461bcd60e51b815260206004820152601d60248201527f496e73756666696369656e742074726561737572792062616c616e63650000006044820152606401610a9b565b816002600082825461163f919061309b565b90915550506000805460405163a9059cbb60e01b81526001600160a01b038681166004830152602482018690529091169063a9059cbb906044016020604051808303816000875af1158015611698573d6000803e3d6000fd5b505050506040513d601f19601f820116820180604052508101906116bc919061320f565b90508061170b5760405162461bcd60e51b815260206004820152601a60248201527f5472656173757279207769746864726177616c206661696c65640000000000006044820152606401610a9b565b836001600160a01b03166001600c54611724919061309b565b7f1ba011ee074f0e08cc727335f32d75fb7ee71dc0a1e13bb9473e5650b0afd1a3858560405161175592919061322c565b60405180910390a350505050565b60606000805b600c548110156117ca576000818152600d6020526040902060070154421080156117a557506000818152600d60205260409020600a015460ff16155b156117b857816117b481613082565b9250505b806117c281613082565b915050611769565b5060008167ffffffffffffffff8111156117e6576117e6612c32565b60405190808252806020026020018201604052801561180f578160200160208202803683370190505b5090506000805b600c54811015611894576000818152600d60205260409020600701544210801561185257506000818152600d60205260409020600a015460ff16155b156118825780838361186381613082565b9450815181106118755761187561304a565b6020026020010181815250505b8061188c81613082565b915050611816565b50909392505050565b600881815481106118ad57600080fd5b6000918252602090912001546001600160a01b0316905081565b3330146118e65760405162461bcd60e51b8152600401610a9b906131df565b6004805460ff19168215159081179091556040519081527f752d7e161ff5146f80e3820893176eb40532811e5e20400dfdde57455213706a9060200160405180910390a150565b600b818154811061193d57600080fd5b600091825260209091200154905081565b60045460ff16156119965760405162461bcd60e51b815260206004820152601260248201527110dbdb9d1c9858dd081a5cc81c185d5cd95960721b6044820152606401610a9b565b3360009081526005602052604090205460ff16156119f65760405162461bcd60e51b815260206004820152601860248201527f416c7265616479207075726368617365642061636365737300000000000000006044820152606401610a9b565b60006064600154601e611a099190613245565b611a139190613060565b905060006064600154600a611a289190613245565b611a329190613060565b9050600081611a42846003613245565b611a4c9190613031565b9050600154811115611a945760405162461bcd60e51b815260206004820152601160248201527021b0b631bab630ba34b7b71032b93937b960791b6044820152606401610a9b565b6001546000546040516370a0823160e01b81523360048201526001600160a01b03909116906370a0823190602401602060405180830381865afa158015611adf573d6000803e3d6000fd5b505050506040513d601f19601f82011682018060405250810190611b03919061325c565b1015611b515760405162461bcd60e51b815260206004820152601a60248201527f496e73756666696369656e7420746f6b656e2062616c616e63650000000000006044820152606401610a9b565b600080546040516323b872dd60e01b81526001600160a01b03909116906323b872dd90611b8890339061dead908990600401613275565b6020604051808303816000875af1158015611ba7573d6000803e3d6000fd5b505050506040513d601f19601f82011682018060405250810190611bcb919061320f565b905080611c115760405162461bcd60e51b8152602060048201526014602482015273109d5c9b881d1c985b9cd9995c8819985a5b195960621b6044820152606401610a9b565b600080546040516323b872dd60e01b81526001600160a01b03909116906323b872dd90611c4690339030908a90600401613275565b6020604051808303816000875af1158015611c65573d6000803e3d6000fd5b505050506040513d601f19601f82011682018060405250810190611c89919061320f565b905080611cd85760405162461bcd60e51b815260206004820152601860248201527f5472656173757279207472616e73666572206661696c656400000000000000006044820152606401610a9b565b600080546040516323b872dd60e01b81526001600160a01b03909116906323b872dd90611d0d90339030908b90600401613275565b6020604051808303816000875af1158015611d2c573d6000803e3d6000fd5b505050506040513d601f19601f82011682018060405250810190611d50919061320f565b905080611d965760405162461bcd60e51b8152602060048201526014602482015273141bdbdb081d1c985b9cd9995c8819985a5b195960621b6044820152606401610a9b565b600080546040516323b872dd60e01b81526001600160a01b03909116906323b872dd90611deb9033907f0000000000000000000000000000000000000000000000000000000000000000908b90600401613275565b6020604051808303816000875af1158015611e0a573d6000803e3d6000fd5b505050506040513d601f19601f82011682018060405250810190611e2e919061320f565b905080611e7d5760405162461bcd60e51b815260206004820152601860248201527f50726f746f636f6c207472616e73666572206661696c656400000000000000006044820152606401610a9b565b8660026000828254611e8f9190613031565b925050819055508660036000828254611ea89190613031565b925050819055508660116000828254611ec19190613031565b925050819055508660126000828254611eda9190613031565b925050819055508660136000828254611ef39190613031565b925050819055508560146000828254611f0c9190613031565b909155505060085415611f5357600b80546001810182556000919091527f0175b7a638427703f0dbe7bb9bbf987a2551717b34e79f33b5b1008d1fa01db901879055611f86565b600b805460018101825560009182527f0175b7a638427703f0dbe7bb9bbf987a2551717b34e79f33b5b1008d1fa01db901555b336000818152600560209081526040808320805460ff1916600190811790915560068352818420429055600783528184204390556008805460099094529184208390558201815582527ff3f7a9fe364faab93b216da50a3214154f22a0a2b415b23a84c8169e8b636ee30180546001600160a01b031916909217909155601080549161201183613082565b9190505550336001600160a01b03167fe6d1c0e418a42a777d49c66571075fc47bc1d92e7f506007ddde08d1ff182bbc600154898a8b8b42436001601054612059919061309b565b604080519889526020890197909752958701949094526060860192909252608085015260a084015260c083015260e08201526101000160405180910390a250505050505050565b6001600160a01b03811660009081526005602052604081205460ff166120c857506000919050565b7f00000000000000000000000000000000000000000000000000000000000000006001600160a01b0316826001600160a01b031614801561212a57506008547f0000000000000000000000000000000000000000000000000000000000000000115b1561215657507f0000000000000000000000000000000000000000000000000000000000000000919050565b506001919050565b606033301461217f5760405162461bcd60e51b8152600401610a9b906131df565b6001600160a01b0384166121c65760405162461bcd60e51b815260206004820152600e60248201526d125b9d985b1a59081d185c99d95d60921b6044820152606401610a9b565b600080856001600160a01b031685856040516121e29190613299565b60006040518083038185875af1925050503d806000811461221f576040519150601f19603f3d011682016040523d82523d6000602084013e612224565b606091505b50915091508161226d5760405162461bcd60e51b8152602060048201526014602482015273115e1d195c9b985b0818d85b1b0819985a5b195960621b6044820152606401610a9b565b95945050505050565b60006060806000806000806000600c5489106122a45760405162461bcd60e51b8152600401610a9b90612f60565b6000898152600d602052604090206001810154600582015460068301546007840154600a8501546002860180546001600160a01b03909616959094600388019490939092909160ff909116908385119087906122ff90612f26565b80601f016020809104026020016040519081016040528092919081815260200182805461232b90612f26565b80156123785780601f1061234d57610100808354040283529160200191612378565b820191906000526020600020905b81548152906001019060200180831161235b57829003601f168201915b5050505050965085805461238b90612f26565b80601f01602080910402602001604051908101604052809291908181526020018280546123b790612f26565b80156124045780601f106123d957610100808354040283529160200191612404565b820191906000526020600020905b8154815290600101906020018083116123e757829003601f168201915b505050505095509850985098509850985098509850985050919395975091939597565b3360009081526005602052604090205460ff166124865760405162461bcd60e51b815260206004820152601a60248201527f4f6e6c79206d656d626572732063616e2063616c6c20746869730000000000006044820152606401610a9b565b600c5482106124a75760405162461bcd60e51b8152600401610a9b90612f60565b6000828152600d60205260409020600781015442106124f75760405162461bcd60e51b815260206004820152600c60248201526b159bdd1a5b99c8195b99195960a21b6044820152606401610a9b565b336000908152600b8201602052604090205460ff16156125495760405162461bcd60e51b815260206004820152600d60248201526c105b1c9958591e481d9bdd1959609a1b6044820152606401610a9b565b600881015433600090815260066020526040902054106125ca5760405162461bcd60e51b815260206004820152603660248201527f596f752063616e6e6f7420766f7465206f6e2070726f706f73616c7320637265604482015275185d1959081899599bdc99481e5bdd481a9bda5b995960521b6064820152608401610a9b565b336000818152600b8301602090815260408083208054600160ff199182168117909255600c870190935292208054909116851515179055906001600160a01b037f00000000000000000000000000000000000000000000000000000000000000001614801561265a57506008547f0000000000000000000000000000000000000000000000000000000000000000115b1561268257507f00000000000000000000000000000000000000000000000000000000000000005b82156126a7578082600501600082825461269c9190613031565b909155506126c19050565b808260060160008282546126bb9190613031565b90915550505b604080518415158152426020820152339186917fcbdf6214089cba887ecbf35a0b6a734589959c9763342c756bb2a80ca2bc9f6e9101611755565b33301461271b5760405162461bcd60e51b8152600401610a9b906131df565b6001600160a01b0382166127655760405162461bcd60e51b8152602060048201526011602482015270125b9d985b1a59081c9958da5c1a595b9d607a1b6044820152606401610a9b565b6000600254116127ab5760405162461bcd60e51b81526020600482015260116024820152704e6f2074726561737572792066756e647360781b6044820152606401610a9b565b60028054600091829055815460405163a9059cbb60e01b81526001600160a01b038681166004830152602482018490529293929091169063a9059cbb906044016020604051808303816000875af115801561280a573d6000803e3d6000fd5b505050506040513d601f19601f8201168201806040525081019061282e919061320f565b90508061287d5760405162461bcd60e51b815260206004820152601a60248201527f5472656173757279207769746864726177616c206661696c65640000000000006044820152606401610a9b565b836001600160a01b03166001600c54612896919061309b565b7f1ba011ee074f0e08cc727335f32d75fb7ee71dc0a1e13bb9473e5650b0afd1a3848660405161175592919061322c565b60006128d233610e53565b90506000811161291a5760405162461bcd60e51b81526020600482015260136024820152724e6f207265776172647320746f20636c61696d60681b6044820152606401610a9b565b80600354101561296c5760405162461bcd60e51b815260206004820152601960248201527f496e73756666696369656e7420706f6f6c2062616c616e6365000000000000006044820152606401610a9b565b336000908152600a60205260408120805483929061298b908490613031565b9250508190555080600360008282546129a4919061309b565b90915550506000805460405163a9059cbb60e01b8152336004820152602481018490526001600160a01b039091169063a9059cbb906044016020604051808303816000875af11580156129fb573d6000803e3d6000fd5b505050506040513d601f19601f82011682018060405250810190612a1f919061320f565b905080612a6e5760405162461bcd60e51b815260206004820152601a60248201527f506f6f6c20636c61696d207472616e73666572206661696c65640000000000006044820152606401610a9b565b6040805183815242602082015233917fc4e740509dbfae3377bc9925dd7bcc8aaba69cd730316216d76b2d24725c63669101611516565b600060208284031215612ab757600080fd5b5035919050565b60005b83811015612ad9578181015183820152602001612ac1565b50506000910152565b60008151808452612afa816020860160208601612abe565b601f01601f19169290920160200192915050565b8b81526001600160a01b038b16602082015261016060408201819052600090612b398382018d612ae2565b90508281036060840152612b4d818c612ae2565b90508281036080840152612b61818b612ae2565b60a0840199909952505060c081019590955260e085019390935261010084019190915261012083015215156101409091015295945050505050565b80356001600160a01b0381168114612bb357600080fd5b919050565b60008060408385031215612bcb57600080fd5b612bd483612b9c565b946020939093013593505050565b8015158114612bf057600080fd5b50565b600060208284031215612c0557600080fd5b8135612c1081612be2565b9392505050565b600060208284031215612c2957600080fd5b612c1082612b9c565b634e487b7160e01b600052604160045260246000fd5b600082601f830112612c5957600080fd5b813567ffffffffffffffff80821115612c7457612c74612c32565b604051601f8301601f19908116603f01168101908282118183101715612c9c57612c9c612c32565b81604052838152866020858801011115612cb557600080fd5b836020870160208301376000602085830101528094505050505092915050565b60008060008060808587031215612ceb57600080fd5b843567ffffffffffffffff80821115612d0357600080fd5b612d0f88838901612c48565b95506020870135915080821115612d2557600080fd5b612d3188838901612c48565b94506040870135915080821115612d4757600080fd5b50612d5487828801612c48565b949793965093946060013593505050565b60008060408385031215612d7857600080fd5b82359150612d8860208401612b9c565b90509250929050565b600080600060608486031215612da657600080fd5b612daf84612b9c565b925060208401359150604084013567ffffffffffffffff811115612dd257600080fd5b612dde86828701612c48565b9150509250925092565b6020808252825182820181905260009190848201906040850190845b81811015612e2057835183529284019291840191600101612e04565b50909695505050505050565b602081526000612c106020830184612ae2565b6001600160a01b038916815261010060208201819052600090612e648382018b612ae2565b90508281036040840152612e78818a612ae2565b60608401989098525050608081019490945260a0840192909252151560c0830152151560e0909101529392505050565b60008060408385031215612ebb57600080fd5b823591506020830135612ecd81612be2565b809150509250929050565b60008060408385031215612eeb57600080fd5b612ef483612b9c565b9150602083013567ffffffffffffffff811115612f1057600080fd5b612f1c85828601612c48565b9150509250929050565b600181811c90821680612f3a57607f821691505b602082108103612f5a57634e487b7160e01b600052602260045260246000fd5b50919050565b60208082526010908201526f125b9d985b1a59081c1c9bdc1bdcd85b60821b604082015260600190565b6000808354612f9881612f26565b60018281168015612fb05760018114612fc557612ff4565b60ff1984168752821515830287019450612ff4565b8760005260208060002060005b85811015612feb5781548a820152908401908201612fd2565b50505082870194505b50929695505050505050565b8215158152604060208201526000610f746040830184612ae2565b634e487b7160e01b600052601160045260246000fd5b808201808211156130445761304461301b565b92915050565b634e487b7160e01b600052603260045260246000fd5b60008261307d57634e487b7160e01b600052601260045260246000fd5b500490565b6000600182016130945761309461301b565b5060010190565b818103818111156130445761304461301b565b601f8211156130f857600081815260208120601f850160051c810160208610156130d55750805b601f850160051c820191505b818110156130f4578281556001016130e1565b5050505b505050565b815167ffffffffffffffff81111561311757613117612c32565b61312b816131258454612f26565b846130ae565b602080601f83116001811461316057600084156131485750858301515b600019600386901b1c1916600185901b1785556130f4565b600085815260208120601f198616915b8281101561318f57888601518255948401946001909101908401613170565b50858210156131ad5787850151600019600388901b60f8161c191681555b5050505050600190811b01905550565b6040815260006131d06040830185612ae2565b90508260208301529392505050565b6020808252601690820152754f6e6c792044414f2063616e2063616c6c207468697360501b604082015260600190565b60006020828403121561322157600080fd5b8151612c1081612be2565b828152604060208201526000610f746040830184612ae2565b80820281158282048414176130445761304461301b565b60006020828403121561326e57600080fd5b5051919050565b6001600160a01b039384168152919092166020820152604081019190915260600190565b600082516132ab818460208701612abe565b919091019291505056fea26469706673582212201c3b092c409202399f8fe35154cf8265f7f0b5e0da426f622b166532e3f20e6c64736f6c63430008130033",
  "linkReferences": {},
  "deployedLinkReferences": {}
}