{
  "_format": "hh-sol-artifact-1",
  "contractName": "TEMPL",
  "sourceName": "contracts/TEMPL.sol",
  "abi": [
    {
      "inputs": [
        {
          "internalType": "address",
          "name": "_priest",
          "type": "address"
        },
        {
          "internalType": "address",
          "name": "_protocolFeeRecipient",
          "type": "address"
        },
        {
          "internalType": "address",
          "name": "_token",
          "type": "address"
        },
        {
          "internalType": "uint256",
          "name": "_entryFee",
          "type": "uint256"
        }
      ],
      "stateMutability": "nonpayable",
      "type": "constructor"
    },
    {
      "inputs": [],
      "name": "ActiveProposalExists",
      "type": "error"
    },
    {
      "inputs": [],
      "name": "AlreadyExecuted",
      "type": "error"
    },
    {
      "inputs": [],
      "name": "AlreadyPurchased",
      "type": "error"
    },
    {
      "inputs": [],
      "name": "AmountZero",
      "type": "error"
    },
    {
      "inputs": [],
      "name": "ContractPausedError",
      "type": "error"
    },
    {
      "inputs": [],
      "name": "DescriptionRequired",
      "type": "error"
    },
    {
      "inputs": [],
      "name": "EntryFeeTooSmall",
      "type": "error"
    },
    {
      "inputs": [],
      "name": "InsufficientBalance",
      "type": "error"
    },
    {
      "inputs": [],
      "name": "InsufficientPoolBalance",
      "type": "error"
    },
    {
      "inputs": [],
      "name": "InsufficientTreasuryBalance",
      "type": "error"
    },
    {
      "inputs": [],
      "name": "InvalidCallData",
      "type": "error"
    },
    {
      "inputs": [],
      "name": "InvalidEntryFee",
      "type": "error"
    },
    {
      "inputs": [],
      "name": "InvalidProposal",
      "type": "error"
    },
    {
      "inputs": [],
      "name": "InvalidRecipient",
      "type": "error"
    },
    {
      "inputs": [],
      "name": "InvalidSender",
      "type": "error"
    },
    {
      "inputs": [],
      "name": "JoinedAfterProposal",
      "type": "error"
    },
    {
      "inputs": [],
      "name": "LimitOutOfRange",
      "type": "error"
    },
    {
      "inputs": [],
      "name": "NoMembers",
      "type": "error"
    },
    {
      "inputs": [],
      "name": "NoRewardsToClaim",
      "type": "error"
    },
    {
      "inputs": [],
      "name": "NoTreasuryFunds",
      "type": "error"
    },
    {
      "inputs": [],
      "name": "NotDAO",
      "type": "error"
    },
    {
      "inputs": [],
      "name": "NotMember",
      "type": "error"
    },
    {
      "inputs": [],
      "name": "ProposalExecutionFailed",
      "type": "error"
    },
    {
      "inputs": [],
      "name": "ProposalNotPassed",
      "type": "error"
    },
    {
      "inputs": [],
      "name": "ReentrancyGuardReentrantCall",
      "type": "error"
    },
    {
      "inputs": [
        {
          "internalType": "address",
          "name": "token",
          "type": "address"
        }
      ],
      "name": "SafeERC20FailedOperation",
      "type": "error"
    },
    {
      "inputs": [],
      "name": "TitleRequired",
      "type": "error"
    },
    {
      "inputs": [],
      "name": "TokenChangeDisabled",
      "type": "error"
    },
    {
      "inputs": [],
      "name": "VotingEnded",
      "type": "error"
    },
    {
      "inputs": [],
      "name": "VotingNotEnded",
      "type": "error"
    },
    {
      "inputs": [],
      "name": "VotingPeriodTooLong",
      "type": "error"
    },
    {
      "inputs": [],
      "name": "VotingPeriodTooShort",
      "type": "error"
    },
    {
      "anonymous": false,
      "inputs": [
        {
          "indexed": true,
          "internalType": "address",
          "name": "purchaser",
          "type": "address"
        },
        {
          "indexed": false,
          "internalType": "uint256",
          "name": "totalAmount",
          "type": "uint256"
        },
        {
          "indexed": false,
          "internalType": "uint256",
          "name": "burnedAmount",
          "type": "uint256"
        },
        {
          "indexed": false,
          "internalType": "uint256",
          "name": "treasuryAmount",
          "type": "uint256"
        },
        {
          "indexed": false,
          "internalType": "uint256",
          "name": "memberPoolAmount",
          "type": "uint256"
        },
        {
          "indexed": false,
          "internalType": "uint256",
          "name": "protocolAmount",
          "type": "uint256"
        },
        {
          "indexed": false,
          "internalType": "uint256",
          "name": "timestamp",
          "type": "uint256"
        },
        {
          "indexed": false,
          "internalType": "uint256",
          "name": "blockNumber",
          "type": "uint256"
        },
        {
          "indexed": false,
          "internalType": "uint256",
          "name": "purchaseId",
          "type": "uint256"
        }
      ],
      "name": "AccessPurchased",
      "type": "event"
    },
    {
      "anonymous": false,
      "inputs": [
        {
          "indexed": true,
          "internalType": "address",
          "name": "token",
          "type": "address"
        },
        {
          "indexed": false,
          "internalType": "uint256",
          "name": "entryFee",
          "type": "uint256"
        }
      ],
      "name": "ConfigUpdated",
      "type": "event"
    },
    {
      "anonymous": false,
      "inputs": [
        {
          "indexed": false,
          "internalType": "bool",
          "name": "isPaused",
          "type": "bool"
        }
      ],
      "name": "ContractPaused",
      "type": "event"
    },
    {
      "anonymous": false,
      "inputs": [
        {
          "indexed": true,
          "internalType": "address",
          "name": "member",
          "type": "address"
        },
        {
          "indexed": false,
          "internalType": "uint256",
          "name": "amount",
          "type": "uint256"
        },
        {
          "indexed": false,
          "internalType": "uint256",
          "name": "timestamp",
          "type": "uint256"
        }
      ],
      "name": "MemberPoolClaimed",
      "type": "event"
    },
    {
      "anonymous": false,
      "inputs": [
        {
          "indexed": true,
          "internalType": "uint256",
          "name": "proposalId",
          "type": "uint256"
        },
        {
          "indexed": true,
          "internalType": "address",
          "name": "proposer",
          "type": "address"
        },
        {
          "indexed": false,
          "internalType": "string",
          "name": "title",
          "type": "string"
        },
        {
          "indexed": false,
          "internalType": "uint256",
          "name": "endTime",
          "type": "uint256"
        }
      ],
      "name": "ProposalCreated",
      "type": "event"
    },
    {
      "anonymous": false,
      "inputs": [
        {
          "indexed": true,
          "internalType": "uint256",
          "name": "proposalId",
          "type": "uint256"
        },
        {
          "indexed": false,
          "internalType": "bool",
          "name": "success",
          "type": "bool"
        },
        {
          "indexed": false,
          "internalType": "bytes",
          "name": "returnData",
          "type": "bytes"
        }
      ],
      "name": "ProposalExecuted",
      "type": "event"
    },
    {
      "anonymous": false,
      "inputs": [
        {
          "indexed": true,
          "internalType": "uint256",
          "name": "proposalId",
          "type": "uint256"
        },
        {
          "indexed": true,
          "internalType": "address",
          "name": "token",
          "type": "address"
        },
        {
          "indexed": true,
          "internalType": "address",
          "name": "recipient",
          "type": "address"
        },
        {
          "indexed": false,
          "internalType": "uint256",
          "name": "amount",
          "type": "uint256"
        },
        {
          "indexed": false,
          "internalType": "string",
          "name": "description",
          "type": "string"
        }
      ],
      "name": "TreasuryAction",
      "type": "event"
    },
    {
      "anonymous": false,
      "inputs": [
        {
          "indexed": true,
          "internalType": "uint256",
          "name": "proposalId",
          "type": "uint256"
        },
        {
          "indexed": false,
          "internalType": "uint256",
          "name": "amount",
          "type": "uint256"
        },
        {
          "indexed": false,
          "internalType": "uint256",
          "name": "perMember",
          "type": "uint256"
        },
        {
          "indexed": false,
          "internalType": "uint256",
          "name": "remainder",
          "type": "uint256"
        }
      ],
      "name": "TreasuryDisbanded",
      "type": "event"
    },
    {
      "anonymous": false,
      "inputs": [
        {
          "indexed": true,
          "internalType": "uint256",
          "name": "proposalId",
          "type": "uint256"
        },
        {
          "indexed": true,
          "internalType": "address",
          "name": "voter",
          "type": "address"
        },
        {
          "indexed": false,
          "internalType": "bool",
          "name": "support",
          "type": "bool"
        },
        {
          "indexed": false,
          "internalType": "uint256",
          "name": "timestamp",
          "type": "uint256"
        }
      ],
      "name": "VoteCast",
      "type": "event"
    },
    {
      "inputs": [],
      "name": "DEFAULT_VOTING_PERIOD",
      "outputs": [
        {
          "internalType": "uint256",
          "name": "",
          "type": "uint256"
        }
      ],
      "stateMutability": "view",
      "type": "function"
    },
    {
      "inputs": [],
      "name": "MAX_VOTING_PERIOD",
      "outputs": [
        {
          "internalType": "uint256",
          "name": "",
          "type": "uint256"
        }
      ],
      "stateMutability": "view",
      "type": "function"
    },
    {
      "inputs": [],
      "name": "MIN_VOTING_PERIOD",
      "outputs": [
        {
          "internalType": "uint256",
          "name": "",
          "type": "uint256"
        }
      ],
      "stateMutability": "view",
      "type": "function"
    },
    {
      "inputs": [],
      "name": "accessToken",
      "outputs": [
        {
          "internalType": "address",
          "name": "",
          "type": "address"
        }
      ],
      "stateMutability": "view",
      "type": "function"
    },
    {
      "inputs": [
        {
          "internalType": "address",
          "name": "",
          "type": "address"
        }
      ],
      "name": "activeProposalId",
      "outputs": [
        {
          "internalType": "uint256",
          "name": "",
          "type": "uint256"
        }
      ],
      "stateMutability": "view",
      "type": "function"
    },
    {
      "inputs": [],
      "name": "claimMemberPool",
      "outputs": [],
      "stateMutability": "nonpayable",
      "type": "function"
    },
    {
      "inputs": [
        {
          "internalType": "string",
          "name": "_title",
          "type": "string"
        },
        {
          "internalType": "string",
          "name": "_description",
          "type": "string"
        },
        {
          "internalType": "uint256",
          "name": "_votingPeriod",
          "type": "uint256"
        }
      ],
      "name": "createProposalDisbandTreasury",
      "outputs": [
        {
          "internalType": "uint256",
          "name": "",
          "type": "uint256"
        }
      ],
      "stateMutability": "nonpayable",
      "type": "function"
    },
    {
      "inputs": [
        {
          "internalType": "string",
          "name": "_title",
          "type": "string"
        },
        {
          "internalType": "string",
          "name": "_description",
          "type": "string"
        },
        {
          "internalType": "bool",
          "name": "_paused",
          "type": "bool"
        },
        {
          "internalType": "uint256",
          "name": "_votingPeriod",
          "type": "uint256"
        }
      ],
      "name": "createProposalSetPaused",
      "outputs": [
        {
          "internalType": "uint256",
          "name": "",
          "type": "uint256"
        }
      ],
      "stateMutability": "nonpayable",
      "type": "function"
    },
    {
      "inputs": [
        {
          "internalType": "string",
          "name": "_title",
          "type": "string"
        },
        {
          "internalType": "string",
          "name": "_description",
          "type": "string"
        },
        {
          "internalType": "uint256",
          "name": "_newEntryFee",
          "type": "uint256"
        },
        {
          "internalType": "uint256",
          "name": "_votingPeriod",
          "type": "uint256"
        }
      ],
      "name": "createProposalUpdateConfig",
      "outputs": [
        {
          "internalType": "uint256",
          "name": "",
          "type": "uint256"
        }
      ],
      "stateMutability": "nonpayable",
      "type": "function"
    },
    {
      "inputs": [
        {
          "internalType": "string",
          "name": "_title",
          "type": "string"
        },
        {
          "internalType": "string",
          "name": "_description",
          "type": "string"
        },
        {
          "internalType": "address",
          "name": "_token",
          "type": "address"
        },
        {
          "internalType": "address",
          "name": "_recipient",
          "type": "address"
        },
        {
          "internalType": "string",
          "name": "_reason",
          "type": "string"
        },
        {
          "internalType": "uint256",
          "name": "_votingPeriod",
          "type": "uint256"
        }
      ],
      "name": "createProposalWithdrawAllTreasury",
      "outputs": [
        {
          "internalType": "uint256",
          "name": "",
          "type": "uint256"
        }
      ],
      "stateMutability": "nonpayable",
      "type": "function"
    },
    {
      "inputs": [
        {
          "internalType": "string",
          "name": "_title",
          "type": "string"
        },
        {
          "internalType": "string",
          "name": "_description",
          "type": "string"
        },
        {
          "internalType": "address",
          "name": "_token",
          "type": "address"
        },
        {
          "internalType": "address",
          "name": "_recipient",
          "type": "address"
        },
        {
          "internalType": "uint256",
          "name": "_amount",
          "type": "uint256"
        },
        {
          "internalType": "string",
          "name": "_reason",
          "type": "string"
        },
        {
          "internalType": "uint256",
          "name": "_votingPeriod",
          "type": "uint256"
        }
      ],
      "name": "createProposalWithdrawTreasury",
      "outputs": [
        {
          "internalType": "uint256",
          "name": "",
          "type": "uint256"
        }
      ],
      "stateMutability": "nonpayable",
      "type": "function"
    },
    {
      "inputs": [],
      "name": "cumulativeMemberRewards",
      "outputs": [
        {
          "internalType": "uint256",
          "name": "",
          "type": "uint256"
        }
      ],
      "stateMutability": "view",
      "type": "function"
    },
    {
      "inputs": [],
      "name": "disbandTreasuryDAO",
      "outputs": [],
      "stateMutability": "nonpayable",
      "type": "function"
    },
    {
      "inputs": [],
      "name": "entryFee",
      "outputs": [
        {
          "internalType": "uint256",
          "name": "",
          "type": "uint256"
        }
      ],
      "stateMutability": "view",
      "type": "function"
    },
    {
      "inputs": [
        {
          "internalType": "uint256",
          "name": "_proposalId",
          "type": "uint256"
        }
      ],
      "name": "executeProposal",
      "outputs": [],
      "stateMutability": "nonpayable",
      "type": "function"
    },
    {
      "inputs": [],
      "name": "getActiveProposals",
      "outputs": [
        {
          "internalType": "uint256[]",
          "name": "",
          "type": "uint256[]"
        }
      ],
      "stateMutability": "view",
      "type": "function"
    },
    {
      "inputs": [
        {
          "internalType": "uint256",
          "name": "offset",
          "type": "uint256"
        },
        {
          "internalType": "uint256",
          "name": "limit",
          "type": "uint256"
        }
      ],
      "name": "getActiveProposalsPaginated",
      "outputs": [
        {
          "internalType": "uint256[]",
          "name": "proposalIds",
          "type": "uint256[]"
        },
        {
          "internalType": "bool",
          "name": "hasMore",
          "type": "bool"
        }
      ],
      "stateMutability": "view",
      "type": "function"
    },
    {
      "inputs": [
        {
          "internalType": "address",
          "name": "member",
          "type": "address"
        }
      ],
      "name": "getClaimablePoolAmount",
      "outputs": [
        {
          "internalType": "uint256",
          "name": "",
          "type": "uint256"
        }
      ],
      "stateMutability": "view",
      "type": "function"
    },
    {
      "inputs": [],
      "name": "getConfig",
      "outputs": [
        {
          "internalType": "address",
          "name": "token",
          "type": "address"
        },
        {
          "internalType": "uint256",
          "name": "fee",
          "type": "uint256"
        },
        {
          "internalType": "bool",
          "name": "isPaused",
          "type": "bool"
        },
        {
          "internalType": "uint256",
          "name": "purchases",
          "type": "uint256"
        },
        {
          "internalType": "uint256",
          "name": "treasury",
          "type": "uint256"
        },
        {
          "internalType": "uint256",
          "name": "pool",
          "type": "uint256"
        }
      ],
      "stateMutability": "view",
      "type": "function"
    },
    {
      "inputs": [],
      "name": "getMemberCount",
      "outputs": [
        {
          "internalType": "uint256",
          "name": "",
          "type": "uint256"
        }
      ],
      "stateMutability": "view",
      "type": "function"
    },
    {
      "inputs": [
        {
          "internalType": "uint256",
          "name": "_proposalId",
          "type": "uint256"
        }
      ],
      "name": "getProposal",
      "outputs": [
        {
          "internalType": "address",
          "name": "proposer",
          "type": "address"
        },
        {
          "internalType": "string",
          "name": "title",
          "type": "string"
        },
        {
          "internalType": "string",
          "name": "description",
          "type": "string"
        },
        {
          "internalType": "uint256",
          "name": "yesVotes",
          "type": "uint256"
        },
        {
          "internalType": "uint256",
          "name": "noVotes",
          "type": "uint256"
        },
        {
          "internalType": "uint256",
          "name": "endTime",
          "type": "uint256"
        },
        {
          "internalType": "bool",
          "name": "executed",
          "type": "bool"
        },
        {
          "internalType": "bool",
          "name": "passed",
          "type": "bool"
        }
      ],
      "stateMutability": "view",
      "type": "function"
    },
    {
      "inputs": [
        {
          "internalType": "address",
          "name": "user",
          "type": "address"
        }
      ],
      "name": "getPurchaseDetails",
      "outputs": [
        {
          "internalType": "bool",
          "name": "purchased",
          "type": "bool"
        },
        {
          "internalType": "uint256",
          "name": "timestamp",
          "type": "uint256"
        },
        {
          "internalType": "uint256",
          "name": "blockNum",
          "type": "uint256"
        }
      ],
      "stateMutability": "view",
      "type": "function"
    },
    {
      "inputs": [],
      "name": "getTreasuryInfo",
      "outputs": [
        {
          "internalType": "uint256",
          "name": "treasury",
          "type": "uint256"
        },
        {
          "internalType": "uint256",
          "name": "memberPool",
          "type": "uint256"
        },
        {
          "internalType": "uint256",
          "name": "totalReceived",
          "type": "uint256"
        },
        {
          "internalType": "uint256",
          "name": "totalBurnedAmount",
          "type": "uint256"
        },
        {
          "internalType": "uint256",
          "name": "totalProtocolFees",
          "type": "uint256"
        },
        {
          "internalType": "address",
          "name": "protocolAddress",
          "type": "address"
        }
      ],
      "stateMutability": "view",
      "type": "function"
    },
    {
      "inputs": [
        {
          "internalType": "address",
          "name": "voter",
          "type": "address"
        }
      ],
      "name": "getVoteWeight",
      "outputs": [
        {
          "internalType": "uint256",
          "name": "",
          "type": "uint256"
        }
      ],
      "stateMutability": "view",
      "type": "function"
    },
    {
      "inputs": [
        {
          "internalType": "address",
          "name": "user",
          "type": "address"
        }
      ],
      "name": "hasAccess",
      "outputs": [
        {
          "internalType": "bool",
          "name": "",
          "type": "bool"
        }
      ],
      "stateMutability": "view",
      "type": "function"
    },
    {
      "inputs": [
        {
          "internalType": "address",
          "name": "",
          "type": "address"
        }
      ],
      "name": "hasActiveProposal",
      "outputs": [
        {
          "internalType": "bool",
          "name": "",
          "type": "bool"
        }
      ],
      "stateMutability": "view",
      "type": "function"
    },
    {
      "inputs": [
        {
          "internalType": "uint256",
          "name": "_proposalId",
          "type": "uint256"
        },
        {
          "internalType": "address",
          "name": "_voter",
          "type": "address"
        }
      ],
      "name": "hasVoted",
      "outputs": [
        {
          "internalType": "bool",
          "name": "voted",
          "type": "bool"
        },
        {
          "internalType": "bool",
          "name": "support",
          "type": "bool"
        }
      ],
      "stateMutability": "view",
      "type": "function"
    },
    {
      "inputs": [
        {
          "internalType": "uint256",
          "name": "",
          "type": "uint256"
        }
      ],
      "name": "memberList",
      "outputs": [
        {
          "internalType": "address",
          "name": "",
          "type": "address"
        }
      ],
      "stateMutability": "view",
      "type": "function"
    },
    {
      "inputs": [],
      "name": "memberPoolBalance",
      "outputs": [
        {
          "internalType": "uint256",
          "name": "",
          "type": "uint256"
        }
      ],
      "stateMutability": "view",
      "type": "function"
    },
    {
      "inputs": [
        {
          "internalType": "address",
          "name": "",
          "type": "address"
        }
      ],
      "name": "memberPoolClaims",
      "outputs": [
        {
          "internalType": "uint256",
          "name": "",
          "type": "uint256"
        }
      ],
      "stateMutability": "view",
      "type": "function"
    },
    {
      "inputs": [],
      "name": "memberRewardRemainder",
      "outputs": [
        {
          "internalType": "uint256",
          "name": "",
          "type": "uint256"
        }
      ],
      "stateMutability": "view",
      "type": "function"
    },
    {
      "inputs": [
        {
          "internalType": "address",
          "name": "",
          "type": "address"
        }
      ],
      "name": "members",
      "outputs": [
        {
          "internalType": "bool",
          "name": "purchased",
          "type": "bool"
        },
        {
          "internalType": "uint256",
          "name": "timestamp",
          "type": "uint256"
        },
        {
          "internalType": "uint256",
          "name": "block",
          "type": "uint256"
        },
        {
          "internalType": "uint256",
          "name": "rewardSnapshot",
          "type": "uint256"
        }
      ],
      "stateMutability": "view",
      "type": "function"
    },
    {
      "inputs": [],
      "name": "paused",
      "outputs": [
        {
          "internalType": "bool",
          "name": "",
          "type": "bool"
        }
      ],
      "stateMutability": "view",
      "type": "function"
    },
    {
      "inputs": [],
      "name": "priest",
      "outputs": [
        {
          "internalType": "address",
          "name": "",
          "type": "address"
        }
      ],
      "stateMutability": "view",
      "type": "function"
    },
    {
      "inputs": [],
      "name": "proposalCount",
      "outputs": [
        {
          "internalType": "uint256",
          "name": "",
          "type": "uint256"
        }
      ],
      "stateMutability": "view",
      "type": "function"
    },
    {
      "inputs": [
        {
          "internalType": "uint256",
          "name": "",
          "type": "uint256"
        }
      ],
      "name": "proposals",
      "outputs": [
        {
          "internalType": "uint256",
          "name": "id",
          "type": "uint256"
        },
        {
          "internalType": "address",
          "name": "proposer",
          "type": "address"
        },
        {
          "internalType": "string",
          "name": "title",
          "type": "string"
        },
        {
          "internalType": "string",
          "name": "description",
          "type": "string"
        },
        {
          "internalType": "enum TEMPL.Action",
          "name": "action",
          "type": "uint8"
        },
        {
          "internalType": "address",
          "name": "token",
          "type": "address"
        },
        {
          "internalType": "address",
          "name": "recipient",
          "type": "address"
        },
        {
          "internalType": "uint256",
          "name": "amount",
          "type": "uint256"
        },
        {
          "internalType": "string",
          "name": "reason",
          "type": "string"
        },
        {
          "internalType": "bool",
          "name": "paused",
          "type": "bool"
        },
        {
          "internalType": "uint256",
          "name": "newEntryFee",
          "type": "uint256"
        },
        {
          "internalType": "uint256",
          "name": "yesVotes",
          "type": "uint256"
        },
        {
          "internalType": "uint256",
          "name": "noVotes",
          "type": "uint256"
        },
        {
          "internalType": "uint256",
          "name": "endTime",
          "type": "uint256"
        },
        {
          "internalType": "uint256",
          "name": "createdAt",
          "type": "uint256"
        },
        {
          "internalType": "bool",
          "name": "executed",
          "type": "bool"
        }
      ],
      "stateMutability": "view",
      "type": "function"
    },
    {
      "inputs": [],
      "name": "protocolFeeRecipient",
      "outputs": [
        {
          "internalType": "address",
          "name": "",
          "type": "address"
        }
      ],
      "stateMutability": "view",
      "type": "function"
    },
    {
      "inputs": [],
      "name": "purchaseAccess",
      "outputs": [],
      "stateMutability": "nonpayable",
      "type": "function"
    },
    {
      "inputs": [
        {
          "internalType": "bool",
          "name": "_paused",
          "type": "bool"
        }
      ],
      "name": "setPausedDAO",
      "outputs": [],
      "stateMutability": "nonpayable",
      "type": "function"
    },
    {
      "inputs": [],
      "name": "totalBurned",
      "outputs": [
        {
          "internalType": "uint256",
          "name": "",
          "type": "uint256"
        }
      ],
      "stateMutability": "view",
      "type": "function"
    },
    {
      "inputs": [],
      "name": "totalPurchases",
      "outputs": [
        {
          "internalType": "uint256",
          "name": "",
          "type": "uint256"
        }
      ],
      "stateMutability": "view",
      "type": "function"
    },
    {
      "inputs": [],
      "name": "totalToMemberPool",
      "outputs": [
        {
          "internalType": "uint256",
          "name": "",
          "type": "uint256"
        }
      ],
      "stateMutability": "view",
      "type": "function"
    },
    {
      "inputs": [],
      "name": "totalToProtocol",
      "outputs": [
        {
          "internalType": "uint256",
          "name": "",
          "type": "uint256"
        }
      ],
      "stateMutability": "view",
      "type": "function"
    },
    {
      "inputs": [],
      "name": "totalToTreasury",
      "outputs": [
        {
          "internalType": "uint256",
          "name": "",
          "type": "uint256"
        }
      ],
      "stateMutability": "view",
      "type": "function"
    },
    {
      "inputs": [],
      "name": "treasuryBalance",
      "outputs": [
        {
          "internalType": "uint256",
          "name": "",
          "type": "uint256"
        }
      ],
      "stateMutability": "view",
      "type": "function"
    },
    {
      "inputs": [
        {
          "internalType": "address",
          "name": "_token",
          "type": "address"
        },
        {
          "internalType": "uint256",
          "name": "_entryFee",
          "type": "uint256"
        }
      ],
      "name": "updateConfigDAO",
      "outputs": [],
      "stateMutability": "nonpayable",
      "type": "function"
    },
    {
      "inputs": [
        {
          "internalType": "uint256",
          "name": "_proposalId",
          "type": "uint256"
        },
        {
          "internalType": "bool",
          "name": "_support",
          "type": "bool"
        }
      ],
      "name": "vote",
      "outputs": [],
      "stateMutability": "nonpayable",
      "type": "function"
    },
    {
      "inputs": [
        {
          "internalType": "address",
          "name": "token",
          "type": "address"
        },
        {
          "internalType": "address",
          "name": "recipient",
          "type": "address"
        },
        {
          "internalType": "string",
          "name": "reason",
          "type": "string"
        }
      ],
      "name": "withdrawAllTreasuryDAO",
      "outputs": [],
      "stateMutability": "nonpayable",
      "type": "function"
    },
    {
      "inputs": [
        {
          "internalType": "address",
          "name": "token",
          "type": "address"
        },
        {
          "internalType": "address",
          "name": "recipient",
          "type": "address"
        },
        {
          "internalType": "uint256",
          "name": "amount",
          "type": "uint256"
        },
        {
          "internalType": "string",
          "name": "reason",
          "type": "string"
        }
      ],
      "name": "withdrawTreasuryDAO",
      "outputs": [],
      "stateMutability": "nonpayable",
      "type": "function"
    },
    {
      "stateMutability": "payable",
      "type": "receive"
    }
  ],
  "bytecode": "0x60e034620001b857601f6200347c38819003918201601f191683019291906001600160401b03841183851017620001bd578160809284926040968752833981010312620001b8576200005181620001d3565b906200006060208201620001d3565b60606200006f858401620001d3565b9201516001600055926001600160a01b0380821615908115620001ac575b8115620001a0575b506200018f5783156200017e57600a84106200016d57600a84066200015c5760805260a05260c05260015560ff1960045416600455516132939081620001e9823960805181610be4015260a051818181610b4a0152818161118e01526115f2015260c051818181610315015281816103c70152818161049a015281816109dc01528181610ad501528181610fbb0152818161112501528181611158015281816111b001528181611b2501528181611f0c0152818161211e01528181612bc00152612c140152f35b8451636fe6a4c960e01b8152600490fd5b8451635eee050360e11b8152600490fd5b84516365e52d5160e11b8152600490fd5b8451634e46966960e11b8152600490fd5b90508316153862000095565b8381161591506200008d565b600080fd5b634e487b7160e01b600052604160045260246000fd5b51906001600160a01b0382168203620001b85756fe6080604052600436101561001b575b361561001957600080fd5b005b60003560e01c8063013cf08b14612464578063072ea61c1461244657806308ae4b0c146123e55780630d61b51914611dac5780631808022a14611d89578063215809ca14610c735780632833788614611ccc578063313dab2014611cae5780633ccae22a14611ac65780634385963214611a575780634a87169d146119cc578063524ddc231461199f5780635584c4f9146118d057806356e4a9a8146116f45780635962a941146116d657806359c266ff146116b85780635c975abb146116955780635fa7ddf01461167757806364653f291461162157806364df049e146115dc578063653724d6146115af5780636898b19c146115915780636ad1855014611557578063843257a6146114b25780638e3a3d98146113dc5780638f78bbc41461139a57806395a078e81461135b578063997072f71461133d57806399e288d814610f22578063a51a46b914610f04578063a64e024a14610ee6578063a730117e14610ec3578063a81bbe3c14610e89578063ae79d21714610c78578063aedfe53f14610c73578063b307fc6d14610c31578063bdb75b3414610c13578063bebc8fc014610bce578063c1b57edb14610bb0578063c293947114610aa1578063c3f909d4146109b6578063c7f758a8146108de578063c9d27afe146106cd578063d402d4be14610432578063d89135cd14610414578063da35c664146103f6578063e243c5fb146103b1578063f7158b2a1461027f5763ffafe4ad0361000e573461027a57602036600319011261027a576001600160a01b0361025c61270f565b16600052600d602052602060ff604060002054166040519015158152f35b600080fd5b3461027a57600036600319011261027a5733600052600560205260ff604060002054161561039f576102af612b1c565b6102b833612875565b801561038d57806102ce60035460095490612868565b1061037b57600854336000526005602052600360406000200155600760205260406000206102fd82825461294d565b905561030b81600354612868565b60035561034281337f00000000000000000000000000000000000000000000000000000000000000006001600160a01b0316613176565b6040519081524260208201527fc4e740509dbfae3377bc9925dd7bcc8aaba69cd730316216d76b2d24725c636660403392a26001600055005b60405163bc6072f160e01b8152600490fd5b6040516373380d9960e01b8152600490fd5b60405163148fe22160e11b8152600490fd5b3461027a57600036600319011261027a576040517f00000000000000000000000000000000000000000000000000000000000000006001600160a01b03168152602090f35b3461027a57600036600319011261027a576020600a54604051908152f35b3461027a57600036600319011261027a576020600f54604051908152f35b3461027a57608036600319011261027a5761044b61270f565b610453612725565b604435906064356001600160401b03811161027a576104769036906004016127a0565b923033036106bb576001600160a01b03828116949085156106a957841561069757807f0000000000000000000000000000000000000000000000000000000000000000169216938285146000146105ba576040516370a0823160e01b8152306004820152602081602481875afa9081156105ae5760009161057c575b506003548082111561056a5761050791612868565b811161056a576105438160009560008051602061323e8339815191529561053b600254808511158a14610564578490612868565b600255613176565b61055f60405192839283526040602084015260408301906126cf565b0390a4005b80612868565b604051631c7b597b60e11b8152600490fd5b90506020813d6020116105a6575b8161059760209383612609565b8101031261027a5751876104f2565b3d915061058a565b6040513d6000823e3d90fd5b915091831560001461060f575047811161056a57600080808084885af16105df612b3f565b50156105fd5760009160008051602061323e83398151915291610543565b6040516331d436c760e01b8152600490fd5b90916040516370a0823160e01b8152306004820152602081602481885afa9081156105ae57600091610665575b50831161056a578261066060009460008051602061323e8339815191529487613176565b610543565b90506020813d60201161068f575b8161068060209383612609565b8101031261027a57518661063c565b3d9150610673565b6040516365e52d5160e11b8152600490fd5b604051634e46966960e11b8152600490fd5b6040516327568d2f60e11b8152600490fd5b3461027a57604036600319011261027a5760248035801515916004359183810361027a57336000526020916005835260ff604060002054161561039f57600a548410156108cc5783600052600b83526040600020600c8101544210156108ba5733600052600584526001928360406000200154600d83015411156108a857600f82013360005280865260ff604060002054166010840180885260ff6040600020541692885260406000208760ff19825416179055875261079d8360406000209060ff801983541691151516179055565b61081857501561080157600a019081549283018093116107ed5750555b60405192835242908301527fcbdf6214089cba887ecbf35a0b6a734589959c9763342c756bb2a80ca2bc9f6e60403393a3005b634e487b7160e01b60009081526011600452fd5b600b019081549283018093116107ed5750556107ba565b9050868115150361082d575b505050506107ba565b1561087a57600a810180546000198101919082116108655790600b929155019081549283018093116107ed5750555b83808080610824565b83634e487b7160e01b60005260116004526000fd5b600b810180546000198101919082116108655790600a929155019081549283018093116107ed57505561085c565b60405163f078ca7360e01b8152600490fd5b604051637a19ed0560e01b8152600490fd5b604051631dc0650160e31b8152600490fd5b3461027a57602036600319011261027a57600435600a548110156108cc57600052600b6020526040600020600c8101548042101590816109a4575b60018060a01b0360018401541691600a84015491600b8501549060ff600e8701541691610982610957600361095060028b0161262a565b990161262a565b610974604051998a99610100908b528060208c01528a01906126cf565b9088820360408a01526126cf565b946060870152608086015260a0850152151560c0840152151560e08301520390f35b600a830154600b840154109150610919565b3461027a57600036600319011261027a576040516370a0823160e01b81523060048201527f00000000000000000000000000000000000000000000000000000000000000006001600160a01b0316602082602481845afa80156105ae57600090610a6e575b60035460c09350908180821115610a6557610a3591612868565b60015460ff60045416600e54916040519586526020860152151560408501526060840152608083015260a0820152f35b50506000610a35565b506020823d602011610a99575b81610a8860209383612609565b8101031261027a5760c09151610a1b565b3d9150610a7b565b3461027a57600036600319011261027a576040516370a0823160e01b81523060048201526001600160a01b036020826024817f000000000000000000000000000000000000000000000000000000000000000085165afa9081156105ae57600091610b7b575b60035460c09350918280821115610b7157610b2191612868565b915b601054600f54906012549260405195865260208601526040850152606084015260808301527f00000000000000000000000000000000000000000000000000000000000000001660a0820152f35b5050600091610b23565b90506020823d602011610ba8575b81610b9660209383612609565b8101031261027a5760c0915190610b07565b3d9150610b89565b3461027a57600036600319011261027a576020601054604051908152f35b3461027a57600036600319011261027a576040517f00000000000000000000000000000000000000000000000000000000000000006001600160a01b03168152602090f35b3461027a57600036600319011261027a576020601154604051908152f35b3461027a57602036600319011261027a5760043560065481101561027a57610c5a60209161281b565b905460405160039290921b1c6001600160a01b03168152f35b612767565b3461027a5760c036600319011261027a576001600160401b0360043581811161027a57610ca99036906004016127a0565b60243582811161027a57610cc19036906004016127a0565b91610cca61273b565b90610cd3612751565b9360843582811161027a57610cec9036906004016127a0565b93336000526020956005875260ff604060002054161561039f57610d19610d479260079460a43591612c7a565b6004810180546001600160a81b03191660089890981b610100600160a81b0316979097176003179096559491565b6005820180546001600160a01b0319166001600160a01b0390921691909117905584519101918111610e7357610d7d82546125b4565b601f8111610e2d575b508493601f8211600114610dc9579381929394600092610dbe575b50508160011b916000199060031b1c19161790555b604051908152f35b015190508580610da1565b601f1982169483600052866000209160005b88888210610e1757505083600195969710610dfe575b505050811b019055610db6565b015160001960f88460031b161c19169055858080610df1565b6001849582939585015181550194019201610ddb565b8260005285600020601f830160051c810191878410610e69575b601f0160051c01905b818110610e5d5750610d86565b60008155600101610e50565b9091508190610e47565b634e487b7160e01b600052604160045260246000fd5b3461027a57602036600319011261027a576001600160a01b03610eaa61270f565b1660005260076020526020604060002054604051908152f35b3461027a57602036600319011261027a576020610db6610ee161270f565b612af2565b3461027a57600036600319011261027a57602060405162278d008152f35b3461027a57600036600319011261027a576020600954604051908152f35b3461027a57600036600319011261027a5760ff6004541661132b5730331461131957610f4c612b1c565b3360005260056020526040600020805460ff811661130757600191825490601e820290821593838304601e1485171561124e5783603c810204603c1485171561124e57600a840294848604600a14171561124e576040516370a0823160e01b81523360048201526020816024817f00000000000000000000000000000000000000000000000000000000000000006001600160a01b03165afa80156105ae5785916000916112d2575b50106112c05760ff191685178155428186015543600282015560065468010000000000000000811015610e73578086611031920160065561281b565b81546001600160a01b0360039290921b91821b19163390911b179055600e546110599061290a565b600e55600654858111611264575b5060036008549101558354601e810290808204601e149015171561124e576064603c8161118593049461109c8660025461294d565b6002556110ab8660035461294d565b6003556110bc838604600f5461294d565b600f556110cb8660105461294d565b6010556110da8660115461294d565b6011556110eb83880460125461294d565b6012556040516323b872dd60e01b602082015233602482015261dead60448201528386048482015283815261115290611123816125ee565b7f00000000000000000000000000000000000000000000000000000000000000006001600160a01b03166131c1565b020430337f00000000000000000000000000000000000000000000000000000000000000006001600160a01b031661312f565b6111dd606484047f0000000000000000000000000000000000000000000000000000000000000000337f00000000000000000000000000000000000000000000000000000000000000006001600160a01b031661312f565b835492600e5492600019840193841161124e576064809360405196875204602086015280604086015260608501520460808301524260a08301524360c083015260e08201527fe6d1c0e418a42a777d49c66571075fc47bc1d92e7f506007ddde08d1ff182bbc6101003392a2600055005b634e487b7160e01b600052601160045260246000fd5b8554601e810290808204601e149015171561124e57611289906064600954910461294d565b600019820191821161124e576112ac826112a66112b79484612ae8565b9261292d565b60095560085461294d565b60085585611067565b604051631e9acf1760e31b8152600490fd5b9150506020813d6020116112ff575b816112ee60209383612609565b8101031261027a5784905188610ff5565b3d91506112e1565b604051630cd9ed5560e21b8152600490fd5b604051636edaef2f60e11b8152600490fd5b604051630eceade960e31b8152600490fd5b3461027a57600036600319011261027a576020600654604051908152f35b3461027a57602036600319011261027a576001600160a01b0361137c61270f565b166000526005602052602060ff604060002054166040519015158152f35b3461027a57604036600319011261027a576113d06113bc60243560043561295a565b6040519283926040845260408401906127e7565b90151560208301520390f35b3461027a57608036600319011261027a576001600160401b0360043581811161027a5761140d9036906004016127a0565b9060243590811161027a576114269036906004016127a0565b906044359133600052600560205260ff604060002054161561039f5782611477575b9161145b60099260209460643591612c7a565b60048101805460ff191660011790559290920155604051908152f35b91600a81106114a057600a810661148e5791611448565b604051636fe6a4c960e01b8152600490fd5b604051635eee050360e11b8152600490fd5b3461027a57608036600319011261027a576001600160401b0360043581811161027a576114e39036906004016127a0565b9060243590811161027a576114fc9036906004016127a0565b60443591821515830361027a5733600052600560205260ff604060002054161561039f57602092611536610db69260089460643591612c7a565b6004819592950160ff198154169055019060ff801983541691151516179055565b3461027a57602036600319011261027a576001600160a01b0361157861270f565b16600052600c6020526020604060002054604051908152f35b3461027a57600036600319011261027a576020600854604051908152f35b3461027a57602036600319011261027a57600435801515810361027a573033036106bb5761001990612c3c565b3461027a57600036600319011261027a576040517f00000000000000000000000000000000000000000000000000000000000000006001600160a01b03168152602090f35b3461027a57602036600319011261027a576001600160a01b0361164261270f565b1660005260056020526060604060002060ff815416906002600182015491015490604051921515835260208301526040820152f35b3461027a57600036600319011261027a576020600354604051908152f35b3461027a57600036600319011261027a57602060ff600454166040519015158152f35b3461027a57600036600319011261027a576020601254604051908152f35b3461027a57600036600319011261027a576020600e54604051908152f35b3461027a5760e036600319011261027a576001600160401b0360043581811161027a576117259036906004016127a0565b60243582811161027a5761173d9036906004016127a0565b9161174661273b565b9061174f612751565b9360a43582811161027a576117689036906004016127a0565b93336000526020956005875260ff604060002054161561039f576117956117c39260079460c43591612c7a565b6004810180546001600160a81b03191660089890981b610100600160a81b0316979097176002179096559491565b6005820180546001600160a01b0319166001600160a01b03909216919091179055608435600682015584519101918111610e735761180182546125b4565b601f811161188a575b508493601f8211600114611840579381929394600092610dbe5750508160011b916000199060031b1c1916179055604051908152f35b601f1982169483600052866000209160005b8888821061187457505083600195969710610dfe57505050811b019055610db6565b6001849582939585015181550194019201611852565b8260005285600020601f830160051c8101918784106118c6575b601f0160051c01905b8181106118ba575061180a565b600081556001016118ad565b90915081906118a4565b3461027a57600036600319011261027a57600a546118ed816128d8565b9060009060005b81811061194a575050611906816128d8565b9160005b82811061192b5760405160208082528190611927908201876127e7565b0390f35b8061193860019284612919565b516119438287612919565b520161190a565b80600191600052600b6020526040600020600c8101544210908161198f575b50611975575b016118f4565b806119896119828661290a565b9587612919565b5261196f565b60ff9150600e0154161586611969565b3461027a57604036600319011261027a576119b861270f565b3033036106bb576100199060243590612b6f565b3461027a57606036600319011261027a576001600160401b0360043581811161027a576119fd9036906004016127a0565b9060243590811161027a57611a169036906004016127a0565b9033600052600560205260ff604060002054161561039f57611a4060049160209360443591612c7a565b91909101805460ff19166004179055604051908152f35b3461027a57604036600319011261027a57600435611a73612725565b600a548210156108cc57604091600052600b602052816000209060018060a01b0316600052600f8101602052601060ff836000205416910160205260ff8260002054168251911515825215156020820152f35b3461027a57606036600319011261027a57611adf61270f565b611ae7612725565b906044356001600160401b03811161027a57611b079036906004016127a0565b903033036106bb576001600160a01b03838116939084156106a957807f000000000000000000000000000000000000000000000000000000000000000016921692828414600014611c09576040516370a0823160e01b815230600482015291602083602481875afa9283156105ae57600093611bd5575b5060035480841115611bc357600094611ba96105439260008051602061323e83398151915296612868565b92839161053b600254808511158a14610564578490612868565b604051631ab9ebab60e01b8152600490fd5b9092506020813d602011611c01575b81611bf160209383612609565b8101031261027a57519186611b7e565b3d9150611be4565b915082611c295750478015611bc357600080808084885af16105df612b3f565b6040516370a0823160e01b81523060048201529091602082602481875afa9182156105ae57600092611c7a575b50818215611bc35761066060008051602061323e8339815191529360009587613176565b9091506020813d602011611ca6575b81611c9660209383612609565b8101031261027a57519085611c56565b3d9150611c89565b3461027a57600036600319011261027a576020600254604051908152f35b3461027a57600036600319011261027a573033036106bb576002548015611bc357600654908115611d775760607f8b887c99365b16ec127c895b4fbfab96273b2a79191ed7b42b9724cd8a695ae99160009384600255611d2e8260035461294d565b600355611d45611d3e8284612ae8565b918361292d565b90611d528160085461294d565b600855611d618260095461294d565b60095560405192835260208301526040820152a2005b604051630292d7c360e51b8152600490fd5b3461027a57602036600319011261027a576020610db6611da761270f565b612875565b3461027a5760208060031936011261027a5760043590611dca612b1c565b600a548210156108cc5781600052600b81526040600020600c81015442106123d357600e810180549060ff82166123c157600a830154600b84015410156123af57600160ff1980931617905560018060a01b039081600184015416600052600d845260ff604060002054168061239d575b61237d575b506004820160ff81541660058110156123675780611e985750505060008051602061321e83398151915291611e7d60ff6008606094015416612c3c565b60408051916001835282015260006040820152a26001600055005b60018103611ece5750606092600960008051602061321e8339815191529593611ec9935460081c1691015490612b6f565b611e7d565b919391600291908281036120ee575084905460081c168460058501541691611efd60076006870154960161262a565b9583156106a9578515610697577f000000000000000000000000000000000000000000000000000000000000000016828103612010576040516370a0823160e01b81523060048201528581602481855afa9081156105ae57600091611fe3575b506003548082111561056a57611f7291612868565b861161056a5760008051602061321e8339815191529686611fc06060988760008051602061323e8339815191529587611fb98f995480861115600014610564578590612868565b9055613176565b611fdb604051928392835260408984015260408301906126cf565b0390a4611e7d565b90508581813d8311612009575b611ffa8183612609565b8101031261027a575189611f5d565b503d611ff0565b50508061205d5747841161056a57600080808087865af161202f612b3f565b50156105fd578560008051602061323e83398151915260008051602061321e83398151915296606096611fc0565b6040516370a0823160e01b81523060048201528381602481855afa9081156105ae576000916120c1575b50841161056a578560008051602061323e83398151915260008051602061321e83398151915296866120bc6060988787613176565b611fc0565b90508381813d83116120e7575b6120d88183612609565b8101031261027a575187612087565b503d6120ce565b91949391600381036122ab575083905460081c16612115600785600585015416930161262a565b9382156106a9577f000000000000000000000000000000000000000000000000000000000000000016948186036121f8576040516370a0823160e01b81523060048201529484866024818a5afa9586156105ae576000966121c9575b506003549081871115611bc35760008051602061321e83398151915297611fc08a94876121af60008051602061323e8339815191529660609c612868565b9382611fb986945480861115600014610564578590612868565b9095508481813d83116121f1575b6121e18183612609565b8101031261027a57519488612171565b503d6121d7565b509293508261221a5747928315611bc357600080808087865af161202f612b3f565b6040516370a0823160e01b815230600482015293928285602481845afa9485156105ae5760009561227c575b50848515611bc35760008051602061323e83398151915260609588926120bc60008051602061321e833981519152998787613176565b9094508281813d83116122a4575b6122948183612609565b8101031261027a57519386612246565b503d61228a565b929493505050600403612355578054918215611bc357600654928315611d77577f8b887c99365b16ec127c895b4fbfab96273b2a79191ed7b42b9724cd8a695ae96060869260008051602061321e8339815191529660008397556123118260035461294d565b600355612321611d3e8284612ae8565b9061232e8160085461294d565b60085561233d8260095461294d565b600955604051928352868301526040820152a2611e7d565b604051631c49f4d160e01b8152600490fd5b634e487b7160e01b600052602160045260246000fd5b600d84526040600020908154169055600c83526000604081205584611e40565b50600c84528460406000205414611e3b565b60405163c8c93ba360e01b8152600490fd5b604051630dc1019760e01b8152600490fd5b604051633fc30bd160e11b8152600490fd5b3461027a57602036600319011261027a576001600160a01b0361240661270f565b1660005260056020526080604060002060ff8154169060018101549060036002820154910154916040519315158452602084015260408301526060820152f35b3461027a57600036600319011261027a576020600154604051908152f35b3461027a57602036600319011261027a576004356000908152600b60205260409020805460018201546001600160a01b031691906124a46002830161262a565b906124b16003840161262a565b92600481015492600160a01b60019003600583015416946006830154600784016124da9061262a565b90600885015460ff1696600986015491600a87015493600b88015495600c89015497600d8a015499600e015460ff169a6040519e8f9061020092825260208201528160408201520161252b916126cf565b8d810360608f015261253c916126cf565b9160ff841660051115612367578c9b8c60a08660ff61258198166080840152600180831b039060081c1691015260c08d015260e08c01528a82036101008c01526126cf565b9615156101208901526101408801526101608701526101808601526101a08501526101c084015215156101e08301520390f35b90600182811c921680156125e4575b60208310146125ce57565b634e487b7160e01b600052602260045260246000fd5b91607f16916125c3565b60a081019081106001600160401b03821117610e7357604052565b90601f801991011681019081106001600160401b03821117610e7357604052565b9060405191826000825461263d816125b4565b908184526020946001916001811690816000146126ad575060011461266e575b50505061266c92500383612609565b565b600090815285812095935091905b81831061269557505061266c935082010138808061265d565b8554888401850152948501948794509183019161267c565b9250505061266c94925060ff191682840152151560051b82010138808061265d565b919082519283825260005b8481106126fb575050826000602080949584010152601f8019910116010190565b6020818301810151848301820152016126da565b600435906001600160a01b038216820361027a57565b602435906001600160a01b038216820361027a57565b604435906001600160a01b038216820361027a57565b606435906001600160a01b038216820361027a57565b3461027a57600036600319011261027a57602060405162093a808152f35b6001600160401b038111610e7357601f01601f191660200190565b81601f8201121561027a578035906127b782612785565b926127c56040519485612609565b8284526020838301011161027a57816000926020809301838601378301015290565b90815180825260208080930193019160005b828110612807575050505090565b8351855293810193928101926001016127f9565b6006548110156128525760066000527ff652222313e28459528d920b65115c16c04f3efc82aaedc97be59f3f377c0d3f0190600090565b634e487b7160e01b600052603260045260246000fd5b9190820391821161124e57565b6001600160a01b03166000908152600560205260409020805460ff16156128bb5760036008549101548082116000146128b4576128b191612868565b90565b5050600090565b50600090565b6001600160401b038111610e735760051b60200190565b906128e2826128c1565b6128ef6040519182612609565b8281528092612900601f19916128c1565b0190602036910137565b600019811461124e5760010190565b80518210156128525760209160051b010190565b8115612937570690565b634e487b7160e01b600052601260045260246000fd5b9190820180921161124e57565b9181158015612ade575b612acc57600a5480841015612a9d5761297c836128d8565b91600091855b81871080612a94575b156129f8575085600052600b6020526040600020600c810154421090816129e8575b506129ce575b6001860180871161124e576129c8909661290a565b95612982565b856129e26129db8561290a565b9486612919565b526129b3565b60ff9150600e01541615386129ad565b9550909350600094818110612a44575b5050612a13816128d8565b9160005b828110612a25575050509190565b80612a3260019284612919565b51612a3d8287612919565b5201612a17565b5b81811015612a085780600052600b6020526040600020600c81015442109081612a84575b50612a7657600101612a45565b505092506001923880612a08565b60ff9150600e0154161538612a69565b5085841061298b565b50915050604051602081018181106001600160401b03821117610e735760405260008152600036813790600090565b6040516381f396b760e01b8152600490fd5b5060648211612964565b8115612937570490565b6001600160a01b031660009081526005602052604090205460ff1615612b1757600190565b600090565b600260005414612b2d576002600055565b604051633ee5aeb560e01b8152600490fd5b3d15612b6a573d90612b5082612785565b91612b5e6040519384612609565b82523d6000602084013e565b606090565b6001600160a01b03919082168015159081612c0f575b50612bfd5780612be4575b507faf8839d80c9b3bbf95c97465eb8c8348db4098f5c15af186c3b425b1129981176020600154926040519384527f00000000000000000000000000000000000000000000000000000000000000001692a2565b600a81106114a057600a810661148e5760015538612b90565b60405163b078ee9d60e01b8152600490fd5b9050827f000000000000000000000000000000000000000000000000000000000000000016141538612b85565b60207f752d7e161ff5146f80e3820893176eb40532811e5e20400dfdde57455213706a91151560ff196004541660ff821617600455604051908152a1565b9192909282511561311d5783511561310b576000338152602091600d835260409060ff828420541661309a575b80613094575062093a80945b62093a8086106130835762278d00861161307257600a5492612cd48461290a565b600a558397848252600b865283822097858955600191828a01336bffffffffffffffffffffffff60a01b82541617905560028a018551906001600160401b039182811161305e57612d2582546125b4565b601f8111613018575b50808b601f8211600114612fb9578891612fae575b50600019600383901b1c191690861b1790555b60038b01918051918211612f9a5792828c95928a99989795612d798d96546125b4565b601f8111612f20575b508590601f8311600114612e6c57612de788957f98120a6aaa04295520ab4e01c6c1235dd316e822cc9ff31db7b3f197366d18bd9d9895858e99968996600b96612e559f9e92612e61575b5050600019600383901b1c191690871b1790555b4261294d565b97600c810198895542600d820155600e81019460ff1995868154169055338452600f820181528784208587825416179055601082019052868320848682541617905583600a8201550155600d8c5283832091825416179055600c8a52205554918351938085528401906126cf565b948201528033940390a3565b015190503880612dcd565b90601f9b98999a9b1983169184895287892092895b818110612ef2575095612e559a9895887f98120a6aaa04295520ab4e01c6c1235dd316e822cc9ff31db7b3f197366d18bd9f9e9d9b98968f9a9796600b96612de796838d9a10612ed9575b505050811b019055612de1565b015160001960f88460031b161c19169055388080612ecc565b95989296999b5092879a5096819497878493015181550195019301928f99979491928d9996938f9895612e81565b92955092958098999a508591949750528a8720601f840160051c8101918c8510612f90575b928c95928f989592601f8e9d9c9b99960160051c01905b818110612f695750612d82565b889a9b9c5086995080929598919497509592955501928a99989795928c95928f9895612f5c565b9091508190612f45565b634e487b7160e01b86526041600452602486fd5b905088015138612d43565b8389528c892088935090601f1983168a8f5b8d838310613002575050508311612fe9575b5050811b019055612d56565b8a015160001960f88460031b161c191690553880612fdd565b84015185558b969094019392830192018f612fcb565b8288528b8820601f830160051c8101918d8410613054575b601f0160051c019087905b828110613049575050612d2e565b89815501879061303b565b9091508190613030565b634e487b7160e01b87526041600452602487fd5b815163eeeb962360e01b8152600490fd5b81516331806aeb60e21b8152600490fd5b94612cb3565b600c84939296959452858220548252600b835285822060ff600e820154161590816130fd575b50156130d757855163792c310960e11b8152600490fd5b949091929394338352600d845281832060ff198154169055600c84528282812055612ca7565b600c915001544210386130c0565b604051633e61080d60e01b8152600490fd5b6040516319d546f160e31b8152600490fd5b6040516323b872dd60e01b60208201526001600160a01b03928316602482015292909116604483015260648083019390935291815261266c91613171826125ee565b6131c1565b60405163a9059cbb60e01b60208201526001600160a01b03909216602483015260448083019390935291815260808101916001600160401b03831182841017610e735761266c926040525b906000602091828151910182855af1156105ae576000513d61321457506001600160a01b0381163b155b6131f25750565b604051635274afe760e01b81526001600160a01b039091166004820152602490fd5b600114156131eb56feaf8f9d0e884d3306a083e846741a0bc4d75908e2b0ec63b558219652ae4c1b90d81f085560db5c809c425a15f00e3f2904e4fa46d6e8672ff2e671ccd6d9a231a2646970667358221220d1ef10f238e0ce4d0a44b4173f94eafdc0b5086f39e4cd0da640ff081704ce3364736f6c63430008170033",
  "linkReferences": {},
  "deployedLinkReferences": {}
}