{
  "_format": "hh-sol-artifact-1",
  "contractName": "TEMPL",
  "sourceName": "contracts/TEMPL.sol",
  "abi": [
    {
      "inputs": [
        {
          "internalType": "address",
          "name": "_priest",
          "type": "address"
        },
        {
          "internalType": "address",
          "name": "_protocolFeeRecipient",
          "type": "address"
        },
        {
          "internalType": "address",
          "name": "_token",
          "type": "address"
        },
        {
          "internalType": "uint256",
          "name": "_entryFee",
          "type": "uint256"
        }
      ],
      "stateMutability": "nonpayable",
      "type": "constructor"
    },
    {
      "inputs": [],
      "name": "ActiveProposalExists",
      "type": "error"
    },
    {
      "inputs": [],
      "name": "AlreadyExecuted",
      "type": "error"
    },
    {
      "inputs": [],
      "name": "AlreadyPurchased",
      "type": "error"
    },
    {
      "inputs": [],
      "name": "AmountZero",
      "type": "error"
    },
    {
      "inputs": [],
      "name": "ContractPausedError",
      "type": "error"
    },
    {
      "inputs": [],
      "name": "DescriptionRequired",
      "type": "error"
    },
    {
      "inputs": [],
      "name": "EntryFeeTooSmall",
      "type": "error"
    },
    {
      "inputs": [],
      "name": "InsufficientBalance",
      "type": "error"
    },
    {
      "inputs": [],
      "name": "InsufficientPoolBalance",
      "type": "error"
    },
    {
      "inputs": [],
      "name": "InsufficientTreasuryBalance",
      "type": "error"
    },
    {
      "inputs": [],
      "name": "InvalidEntryFee",
      "type": "error"
    },
    {
      "inputs": [],
      "name": "InvalidProposal",
      "type": "error"
    },
    {
      "inputs": [],
      "name": "InvalidRecipient",
      "type": "error"
    },
    {
      "inputs": [],
      "name": "InvalidSender",
      "type": "error"
    },
    {
      "inputs": [],
      "name": "JoinedAfterProposal",
      "type": "error"
    },
    {
      "inputs": [],
      "name": "LimitOutOfRange",
      "type": "error"
    },
    {
      "inputs": [],
      "name": "NoMembers",
      "type": "error"
    },
    {
      "inputs": [],
      "name": "NoRewardsToClaim",
      "type": "error"
    },
    {
      "inputs": [],
      "name": "NoTreasuryFunds",
      "type": "error"
    },
    {
      "inputs": [],
      "name": "NotDAO",
      "type": "error"
    },
    {
      "inputs": [],
      "name": "NotMember",
      "type": "error"
    },
    {
      "inputs": [],
      "name": "ProposalExecutionFailed",
      "type": "error"
    },
    {
      "inputs": [],
      "name": "ProposalNotPassed",
      "type": "error"
    },
    {
      "inputs": [],
      "name": "ReentrancyGuardReentrantCall",
      "type": "error"
    },
    {
      "inputs": [
        {
          "internalType": "address",
          "name": "token",
          "type": "address"
        }
      ],
      "name": "SafeERC20FailedOperation",
      "type": "error"
    },
    {
      "inputs": [],
      "name": "TitleRequired",
      "type": "error"
    },
    {
      "inputs": [],
      "name": "TokenChangeDisabled",
      "type": "error"
    },
    {
      "inputs": [],
      "name": "VotingEnded",
      "type": "error"
    },
    {
      "inputs": [],
      "name": "VotingNotEnded",
      "type": "error"
    },
    {
      "inputs": [],
      "name": "VotingPeriodTooLong",
      "type": "error"
    },
    {
      "inputs": [],
      "name": "VotingPeriodTooShort",
      "type": "error"
    },
    {
      "anonymous": false,
      "inputs": [
        {
          "indexed": true,
          "internalType": "address",
          "name": "purchaser",
          "type": "address"
        },
        {
          "indexed": false,
          "internalType": "uint256",
          "name": "totalAmount",
          "type": "uint256"
        },
        {
          "indexed": false,
          "internalType": "uint256",
          "name": "burnedAmount",
          "type": "uint256"
        },
        {
          "indexed": false,
          "internalType": "uint256",
          "name": "treasuryAmount",
          "type": "uint256"
        },
        {
          "indexed": false,
          "internalType": "uint256",
          "name": "memberPoolAmount",
          "type": "uint256"
        },
        {
          "indexed": false,
          "internalType": "uint256",
          "name": "protocolAmount",
          "type": "uint256"
        },
        {
          "indexed": false,
          "internalType": "uint256",
          "name": "timestamp",
          "type": "uint256"
        },
        {
          "indexed": false,
          "internalType": "uint256",
          "name": "blockNumber",
          "type": "uint256"
        },
        {
          "indexed": false,
          "internalType": "uint256",
          "name": "purchaseId",
          "type": "uint256"
        }
      ],
      "name": "AccessPurchased",
      "type": "event"
    },
    {
      "anonymous": false,
      "inputs": [
        {
          "indexed": true,
          "internalType": "address",
          "name": "token",
          "type": "address"
        },
        {
          "indexed": false,
          "internalType": "uint256",
          "name": "entryFee",
          "type": "uint256"
        }
      ],
      "name": "ConfigUpdated",
      "type": "event"
    },
    {
      "anonymous": false,
      "inputs": [
        {
          "indexed": false,
          "internalType": "bool",
          "name": "isPaused",
          "type": "bool"
        }
      ],
      "name": "ContractPaused",
      "type": "event"
    },
    {
      "anonymous": false,
      "inputs": [
        {
          "indexed": true,
          "internalType": "address",
          "name": "member",
          "type": "address"
        },
        {
          "indexed": false,
          "internalType": "uint256",
          "name": "amount",
          "type": "uint256"
        },
        {
          "indexed": false,
          "internalType": "uint256",
          "name": "timestamp",
          "type": "uint256"
        }
      ],
      "name": "MemberPoolClaimed",
      "type": "event"
    },
    {
      "anonymous": false,
      "inputs": [
        {
          "indexed": true,
          "internalType": "uint256",
          "name": "proposalId",
          "type": "uint256"
        },
        {
          "indexed": true,
          "internalType": "address",
          "name": "proposer",
          "type": "address"
        },
        {
          "indexed": false,
          "internalType": "string",
          "name": "title",
          "type": "string"
        },
        {
          "indexed": false,
          "internalType": "uint256",
          "name": "endTime",
          "type": "uint256"
        }
      ],
      "name": "ProposalCreated",
      "type": "event"
    },
    {
      "anonymous": false,
      "inputs": [
        {
          "indexed": true,
          "internalType": "uint256",
          "name": "proposalId",
          "type": "uint256"
        },
        {
          "indexed": false,
          "internalType": "bool",
          "name": "success",
          "type": "bool"
        },
        {
          "indexed": false,
          "internalType": "bytes",
          "name": "returnData",
          "type": "bytes"
        }
      ],
      "name": "ProposalExecuted",
      "type": "event"
    },
    {
      "anonymous": false,
      "inputs": [
        {
          "indexed": true,
          "internalType": "uint256",
          "name": "proposalId",
          "type": "uint256"
        },
        {
          "indexed": true,
          "internalType": "address",
          "name": "token",
          "type": "address"
        },
        {
          "indexed": true,
          "internalType": "address",
          "name": "recipient",
          "type": "address"
        },
        {
          "indexed": false,
          "internalType": "uint256",
          "name": "amount",
          "type": "uint256"
        },
        {
          "indexed": false,
          "internalType": "string",
          "name": "description",
          "type": "string"
        }
      ],
      "name": "TreasuryAction",
      "type": "event"
    },
    {
      "anonymous": false,
      "inputs": [
        {
          "indexed": true,
          "internalType": "uint256",
          "name": "proposalId",
          "type": "uint256"
        },
        {
          "indexed": false,
          "internalType": "uint256",
          "name": "amount",
          "type": "uint256"
        },
        {
          "indexed": false,
          "internalType": "uint256",
          "name": "perMember",
          "type": "uint256"
        },
        {
          "indexed": false,
          "internalType": "uint256",
          "name": "remainder",
          "type": "uint256"
        }
      ],
      "name": "TreasuryDisbanded",
      "type": "event"
    },
    {
      "anonymous": false,
      "inputs": [
        {
          "indexed": true,
          "internalType": "uint256",
          "name": "proposalId",
          "type": "uint256"
        },
        {
          "indexed": true,
          "internalType": "address",
          "name": "voter",
          "type": "address"
        },
        {
          "indexed": false,
          "internalType": "bool",
          "name": "support",
          "type": "bool"
        },
        {
          "indexed": false,
          "internalType": "uint256",
          "name": "timestamp",
          "type": "uint256"
        }
      ],
      "name": "VoteCast",
      "type": "event"
    },
    {
      "inputs": [],
      "name": "DEFAULT_VOTING_PERIOD",
      "outputs": [
        {
          "internalType": "uint256",
          "name": "",
          "type": "uint256"
        }
      ],
      "stateMutability": "view",
      "type": "function"
    },
    {
      "inputs": [],
      "name": "MAX_VOTING_PERIOD",
      "outputs": [
        {
          "internalType": "uint256",
          "name": "",
          "type": "uint256"
        }
      ],
      "stateMutability": "view",
      "type": "function"
    },
    {
      "inputs": [],
      "name": "MIN_VOTING_PERIOD",
      "outputs": [
        {
          "internalType": "uint256",
          "name": "",
          "type": "uint256"
        }
      ],
      "stateMutability": "view",
      "type": "function"
    },
    {
      "inputs": [],
      "name": "accessToken",
      "outputs": [
        {
          "internalType": "address",
          "name": "",
          "type": "address"
        }
      ],
      "stateMutability": "view",
      "type": "function"
    },
    {
      "inputs": [
        {
          "internalType": "address",
          "name": "",
          "type": "address"
        }
      ],
      "name": "activeProposalId",
      "outputs": [
        {
          "internalType": "uint256",
          "name": "",
          "type": "uint256"
        }
      ],
      "stateMutability": "view",
      "type": "function"
    },
    {
      "inputs": [],
      "name": "claimMemberPool",
      "outputs": [],
      "stateMutability": "nonpayable",
      "type": "function"
    },
    {
      "inputs": [
        {
          "internalType": "string",
          "name": "_title",
          "type": "string"
        },
        {
          "internalType": "string",
          "name": "_description",
          "type": "string"
        },
        {
          "internalType": "uint256",
          "name": "_votingPeriod",
          "type": "uint256"
        }
      ],
      "name": "createProposalDisbandTreasury",
      "outputs": [
        {
          "internalType": "uint256",
          "name": "",
          "type": "uint256"
        }
      ],
      "stateMutability": "nonpayable",
      "type": "function"
    },
    {
      "inputs": [
        {
          "internalType": "string",
          "name": "_title",
          "type": "string"
        },
        {
          "internalType": "string",
          "name": "_description",
          "type": "string"
        },
        {
          "internalType": "bool",
          "name": "_paused",
          "type": "bool"
        },
        {
          "internalType": "uint256",
          "name": "_votingPeriod",
          "type": "uint256"
        }
      ],
      "name": "createProposalSetPaused",
      "outputs": [
        {
          "internalType": "uint256",
          "name": "",
          "type": "uint256"
        }
      ],
      "stateMutability": "nonpayable",
      "type": "function"
    },
    {
      "inputs": [
        {
          "internalType": "string",
          "name": "_title",
          "type": "string"
        },
        {
          "internalType": "string",
          "name": "_description",
          "type": "string"
        },
        {
          "internalType": "uint256",
          "name": "_newEntryFee",
          "type": "uint256"
        },
        {
          "internalType": "uint256",
          "name": "_votingPeriod",
          "type": "uint256"
        }
      ],
      "name": "createProposalUpdateConfig",
      "outputs": [
        {
          "internalType": "uint256",
          "name": "",
          "type": "uint256"
        }
      ],
      "stateMutability": "nonpayable",
      "type": "function"
    },
    {
      "inputs": [
        {
          "internalType": "string",
          "name": "_title",
          "type": "string"
        },
        {
          "internalType": "string",
          "name": "_description",
          "type": "string"
        },
        {
          "internalType": "address",
          "name": "_token",
          "type": "address"
        },
        {
          "internalType": "address",
          "name": "_recipient",
          "type": "address"
        },
        {
          "internalType": "string",
          "name": "_reason",
          "type": "string"
        },
        {
          "internalType": "uint256",
          "name": "_votingPeriod",
          "type": "uint256"
        }
      ],
      "name": "createProposalWithdrawAllTreasury",
      "outputs": [
        {
          "internalType": "uint256",
          "name": "",
          "type": "uint256"
        }
      ],
      "stateMutability": "nonpayable",
      "type": "function"
    },
    {
      "inputs": [
        {
          "internalType": "string",
          "name": "_title",
          "type": "string"
        },
        {
          "internalType": "string",
          "name": "_description",
          "type": "string"
        },
        {
          "internalType": "address",
          "name": "_token",
          "type": "address"
        },
        {
          "internalType": "address",
          "name": "_recipient",
          "type": "address"
        },
        {
          "internalType": "uint256",
          "name": "_amount",
          "type": "uint256"
        },
        {
          "internalType": "string",
          "name": "_reason",
          "type": "string"
        },
        {
          "internalType": "uint256",
          "name": "_votingPeriod",
          "type": "uint256"
        }
      ],
      "name": "createProposalWithdrawTreasury",
      "outputs": [
        {
          "internalType": "uint256",
          "name": "",
          "type": "uint256"
        }
      ],
      "stateMutability": "nonpayable",
      "type": "function"
    },
    {
      "inputs": [],
      "name": "cumulativeMemberRewards",
      "outputs": [
        {
          "internalType": "uint256",
          "name": "",
          "type": "uint256"
        }
      ],
      "stateMutability": "view",
      "type": "function"
    },
    {
      "inputs": [],
      "name": "disbandTreasuryDAO",
      "outputs": [],
      "stateMutability": "nonpayable",
      "type": "function"
    },
    {
      "inputs": [],
      "name": "entryFee",
      "outputs": [
        {
          "internalType": "uint256",
          "name": "",
          "type": "uint256"
        }
      ],
      "stateMutability": "view",
      "type": "function"
    },
    {
      "inputs": [
        {
          "internalType": "uint256",
          "name": "_proposalId",
          "type": "uint256"
        }
      ],
      "name": "executeProposal",
      "outputs": [],
      "stateMutability": "nonpayable",
      "type": "function"
    },
    {
      "inputs": [],
      "name": "getActiveProposals",
      "outputs": [
        {
          "internalType": "uint256[]",
          "name": "",
          "type": "uint256[]"
        }
      ],
      "stateMutability": "view",
      "type": "function"
    },
    {
      "inputs": [
        {
          "internalType": "uint256",
          "name": "offset",
          "type": "uint256"
        },
        {
          "internalType": "uint256",
          "name": "limit",
          "type": "uint256"
        }
      ],
      "name": "getActiveProposalsPaginated",
      "outputs": [
        {
          "internalType": "uint256[]",
          "name": "proposalIds",
          "type": "uint256[]"
        },
        {
          "internalType": "bool",
          "name": "hasMore",
          "type": "bool"
        }
      ],
      "stateMutability": "view",
      "type": "function"
    },
    {
      "inputs": [
        {
          "internalType": "address",
          "name": "member",
          "type": "address"
        }
      ],
      "name": "getClaimablePoolAmount",
      "outputs": [
        {
          "internalType": "uint256",
          "name": "",
          "type": "uint256"
        }
      ],
      "stateMutability": "view",
      "type": "function"
    },
    {
      "inputs": [],
      "name": "getConfig",
      "outputs": [
        {
          "internalType": "address",
          "name": "token",
          "type": "address"
        },
        {
          "internalType": "uint256",
          "name": "fee",
          "type": "uint256"
        },
        {
          "internalType": "bool",
          "name": "isPaused",
          "type": "bool"
        },
        {
          "internalType": "uint256",
          "name": "purchases",
          "type": "uint256"
        },
        {
          "internalType": "uint256",
          "name": "treasury",
          "type": "uint256"
        },
        {
          "internalType": "uint256",
          "name": "pool",
          "type": "uint256"
        }
      ],
      "stateMutability": "view",
      "type": "function"
    },
    {
      "inputs": [],
      "name": "getMemberCount",
      "outputs": [
        {
          "internalType": "uint256",
          "name": "",
          "type": "uint256"
        }
      ],
      "stateMutability": "view",
      "type": "function"
    },
    {
      "inputs": [
        {
          "internalType": "uint256",
          "name": "_proposalId",
          "type": "uint256"
        }
      ],
      "name": "getProposal",
      "outputs": [
        {
          "internalType": "address",
          "name": "proposer",
          "type": "address"
        },
        {
          "internalType": "string",
          "name": "title",
          "type": "string"
        },
        {
          "internalType": "string",
          "name": "description",
          "type": "string"
        },
        {
          "internalType": "uint256",
          "name": "yesVotes",
          "type": "uint256"
        },
        {
          "internalType": "uint256",
          "name": "noVotes",
          "type": "uint256"
        },
        {
          "internalType": "uint256",
          "name": "endTime",
          "type": "uint256"
        },
        {
          "internalType": "bool",
          "name": "executed",
          "type": "bool"
        },
        {
          "internalType": "bool",
          "name": "passed",
          "type": "bool"
        }
      ],
      "stateMutability": "view",
      "type": "function"
    },
    {
      "inputs": [
        {
          "internalType": "address",
          "name": "user",
          "type": "address"
        }
      ],
      "name": "getPurchaseDetails",
      "outputs": [
        {
          "internalType": "bool",
          "name": "purchased",
          "type": "bool"
        },
        {
          "internalType": "uint256",
          "name": "timestamp",
          "type": "uint256"
        },
        {
          "internalType": "uint256",
          "name": "blockNum",
          "type": "uint256"
        }
      ],
      "stateMutability": "view",
      "type": "function"
    },
    {
      "inputs": [],
      "name": "getTreasuryInfo",
      "outputs": [
        {
          "internalType": "uint256",
          "name": "treasury",
          "type": "uint256"
        },
        {
          "internalType": "uint256",
          "name": "memberPool",
          "type": "uint256"
        },
        {
          "internalType": "uint256",
          "name": "totalReceived",
          "type": "uint256"
        },
        {
          "internalType": "uint256",
          "name": "totalBurnedAmount",
          "type": "uint256"
        },
        {
          "internalType": "uint256",
          "name": "totalProtocolFees",
          "type": "uint256"
        },
        {
          "internalType": "address",
          "name": "protocolAddress",
          "type": "address"
        }
      ],
      "stateMutability": "view",
      "type": "function"
    },
    {
      "inputs": [
        {
          "internalType": "address",
          "name": "voter",
          "type": "address"
        }
      ],
      "name": "getVoteWeight",
      "outputs": [
        {
          "internalType": "uint256",
          "name": "",
          "type": "uint256"
        }
      ],
      "stateMutability": "view",
      "type": "function"
    },
    {
      "inputs": [
        {
          "internalType": "address",
          "name": "user",
          "type": "address"
        }
      ],
      "name": "hasAccess",
      "outputs": [
        {
          "internalType": "bool",
          "name": "",
          "type": "bool"
        }
      ],
      "stateMutability": "view",
      "type": "function"
    },
    {
      "inputs": [
        {
          "internalType": "address",
          "name": "",
          "type": "address"
        }
      ],
      "name": "hasActiveProposal",
      "outputs": [
        {
          "internalType": "bool",
          "name": "",
          "type": "bool"
        }
      ],
      "stateMutability": "view",
      "type": "function"
    },
    {
      "inputs": [
        {
          "internalType": "uint256",
          "name": "_proposalId",
          "type": "uint256"
        },
        {
          "internalType": "address",
          "name": "_voter",
          "type": "address"
        }
      ],
      "name": "hasVoted",
      "outputs": [
        {
          "internalType": "bool",
          "name": "voted",
          "type": "bool"
        },
        {
          "internalType": "bool",
          "name": "support",
          "type": "bool"
        }
      ],
      "stateMutability": "view",
      "type": "function"
    },
    {
      "inputs": [
        {
          "internalType": "address",
          "name": "",
          "type": "address"
        }
      ],
      "name": "memberIndex",
      "outputs": [
        {
          "internalType": "uint256",
          "name": "",
          "type": "uint256"
        }
      ],
      "stateMutability": "view",
      "type": "function"
    },
    {
      "inputs": [
        {
          "internalType": "uint256",
          "name": "",
          "type": "uint256"
        }
      ],
      "name": "memberList",
      "outputs": [
        {
          "internalType": "address",
          "name": "",
          "type": "address"
        }
      ],
      "stateMutability": "view",
      "type": "function"
    },
    {
      "inputs": [],
      "name": "memberPoolBalance",
      "outputs": [
        {
          "internalType": "uint256",
          "name": "",
          "type": "uint256"
        }
      ],
      "stateMutability": "view",
      "type": "function"
    },
    {
      "inputs": [
        {
          "internalType": "address",
          "name": "",
          "type": "address"
        }
      ],
      "name": "memberPoolClaims",
      "outputs": [
        {
          "internalType": "uint256",
          "name": "",
          "type": "uint256"
        }
      ],
      "stateMutability": "view",
      "type": "function"
    },
    {
      "inputs": [],
      "name": "memberRewardRemainder",
      "outputs": [
        {
          "internalType": "uint256",
          "name": "",
          "type": "uint256"
        }
      ],
      "stateMutability": "view",
      "type": "function"
    },
    {
      "inputs": [
        {
          "internalType": "address",
          "name": "",
          "type": "address"
        }
      ],
      "name": "members",
      "outputs": [
        {
          "internalType": "bool",
          "name": "purchased",
          "type": "bool"
        },
        {
          "internalType": "uint256",
          "name": "timestamp",
          "type": "uint256"
        },
        {
          "internalType": "uint256",
          "name": "block",
          "type": "uint256"
        },
        {
          "internalType": "uint256",
          "name": "rewardSnapshot",
          "type": "uint256"
        }
      ],
      "stateMutability": "view",
      "type": "function"
    },
    {
      "inputs": [],
      "name": "paused",
      "outputs": [
        {
          "internalType": "bool",
          "name": "",
          "type": "bool"
        }
      ],
      "stateMutability": "view",
      "type": "function"
    },
    {
      "inputs": [],
      "name": "priest",
      "outputs": [
        {
          "internalType": "address",
          "name": "",
          "type": "address"
        }
      ],
      "stateMutability": "view",
      "type": "function"
    },
    {
      "inputs": [],
      "name": "proposalCount",
      "outputs": [
        {
          "internalType": "uint256",
          "name": "",
          "type": "uint256"
        }
      ],
      "stateMutability": "view",
      "type": "function"
    },
    {
      "inputs": [
        {
          "internalType": "uint256",
          "name": "",
          "type": "uint256"
        }
      ],
      "name": "proposals",
      "outputs": [
        {
          "internalType": "uint256",
          "name": "id",
          "type": "uint256"
        },
        {
          "internalType": "address",
          "name": "proposer",
          "type": "address"
        },
        {
          "internalType": "string",
          "name": "title",
          "type": "string"
        },
        {
          "internalType": "string",
          "name": "description",
          "type": "string"
        },
        {
          "internalType": "enum TEMPL.Action",
          "name": "action",
          "type": "uint8"
        },
        {
          "internalType": "address",
          "name": "token",
          "type": "address"
        },
        {
          "internalType": "address",
          "name": "recipient",
          "type": "address"
        },
        {
          "internalType": "uint256",
          "name": "amount",
          "type": "uint256"
        },
        {
          "internalType": "string",
          "name": "reason",
          "type": "string"
        },
        {
          "internalType": "bool",
          "name": "paused",
          "type": "bool"
        },
        {
          "internalType": "uint256",
          "name": "newEntryFee",
          "type": "uint256"
        },
        {
          "internalType": "uint256",
          "name": "yesVotes",
          "type": "uint256"
        },
        {
          "internalType": "uint256",
          "name": "noVotes",
          "type": "uint256"
        },
        {
          "internalType": "uint256",
          "name": "endTime",
          "type": "uint256"
        },
        {
          "internalType": "uint256",
          "name": "createdAt",
          "type": "uint256"
        },
        {
          "internalType": "uint256",
          "name": "eligibleVoters",
          "type": "uint256"
        },
        {
          "internalType": "bool",
          "name": "executed",
          "type": "bool"
        }
      ],
      "stateMutability": "view",
      "type": "function"
    },
    {
      "inputs": [],
      "name": "protocolFeeRecipient",
      "outputs": [
        {
          "internalType": "address",
          "name": "",
          "type": "address"
        }
      ],
      "stateMutability": "view",
      "type": "function"
    },
    {
      "inputs": [],
      "name": "purchaseAccess",
      "outputs": [],
      "stateMutability": "nonpayable",
      "type": "function"
    },
    {
      "inputs": [
        {
          "internalType": "bool",
          "name": "_paused",
          "type": "bool"
        }
      ],
      "name": "setPausedDAO",
      "outputs": [],
      "stateMutability": "nonpayable",
      "type": "function"
    },
    {
      "inputs": [],
      "name": "totalBurned",
      "outputs": [
        {
          "internalType": "uint256",
          "name": "",
          "type": "uint256"
        }
      ],
      "stateMutability": "view",
      "type": "function"
    },
    {
      "inputs": [],
      "name": "totalPurchases",
      "outputs": [
        {
          "internalType": "uint256",
          "name": "",
          "type": "uint256"
        }
      ],
      "stateMutability": "view",
      "type": "function"
    },
    {
      "inputs": [],
      "name": "totalToMemberPool",
      "outputs": [
        {
          "internalType": "uint256",
          "name": "",
          "type": "uint256"
        }
      ],
      "stateMutability": "view",
      "type": "function"
    },
    {
      "inputs": [],
      "name": "totalToProtocol",
      "outputs": [
        {
          "internalType": "uint256",
          "name": "",
          "type": "uint256"
        }
      ],
      "stateMutability": "view",
      "type": "function"
    },
    {
      "inputs": [],
      "name": "totalToTreasury",
      "outputs": [
        {
          "internalType": "uint256",
          "name": "",
          "type": "uint256"
        }
      ],
      "stateMutability": "view",
      "type": "function"
    },
    {
      "inputs": [],
      "name": "treasuryBalance",
      "outputs": [
        {
          "internalType": "uint256",
          "name": "",
          "type": "uint256"
        }
      ],
      "stateMutability": "view",
      "type": "function"
    },
    {
      "inputs": [
        {
          "internalType": "address",
          "name": "_token",
          "type": "address"
        },
        {
          "internalType": "uint256",
          "name": "_entryFee",
          "type": "uint256"
        }
      ],
      "name": "updateConfigDAO",
      "outputs": [],
      "stateMutability": "nonpayable",
      "type": "function"
    },
    {
      "inputs": [
        {
          "internalType": "uint256",
          "name": "_proposalId",
          "type": "uint256"
        },
        {
          "internalType": "bool",
          "name": "_support",
          "type": "bool"
        }
      ],
      "name": "vote",
      "outputs": [],
      "stateMutability": "nonpayable",
      "type": "function"
    },
    {
      "inputs": [
        {
          "internalType": "address",
          "name": "token",
          "type": "address"
        },
        {
          "internalType": "address",
          "name": "recipient",
          "type": "address"
        },
        {
          "internalType": "string",
          "name": "reason",
          "type": "string"
        }
      ],
      "name": "withdrawAllTreasuryDAO",
      "outputs": [],
      "stateMutability": "nonpayable",
      "type": "function"
    },
    {
      "inputs": [
        {
          "internalType": "address",
          "name": "token",
          "type": "address"
        },
        {
          "internalType": "address",
          "name": "recipient",
          "type": "address"
        },
        {
          "internalType": "uint256",
          "name": "amount",
          "type": "uint256"
        },
        {
          "internalType": "string",
          "name": "reason",
          "type": "string"
        }
      ],
      "name": "withdrawTreasuryDAO",
      "outputs": [],
      "stateMutability": "nonpayable",
      "type": "function"
    },
    {
      "stateMutability": "payable",
      "type": "receive"
    }
  ],
  "bytecode": "0x60e034620001b857601f6200354838819003918201601f191683019291906001600160401b03841183851017620001bd578160809284926040968752833981010312620001b8576200005181620001d3565b906200006060208201620001d3565b60606200006f858401620001d3565b9201516001600055926001600160a01b0380821615908115620001ac575b8115620001a0575b506200018f5783156200017e57600a84106200016d57600a84066200015c5760805260a05260c05260015560ff19600454166004555161335f9081620001e9823960805181610bf7015260a051818181610b5d015281816111b20152611616015260c051818181610320015281816103d2015281816104a5015281816109ef01528181610ae801528181610fce015281816111490152818161117c015281816111d401528181611ba601528181611f8d0152818161219f01528181612c840152612cd80152f35b8451636fe6a4c960e01b8152600490fd5b8451635eee050360e11b8152600490fd5b84516365e52d5160e11b8152600490fd5b8451634e46966960e11b8152600490fd5b90508316153862000095565b8381161591506200008d565b600080fd5b634e487b7160e01b600052604160045260246000fd5b51906001600160a01b0382168203620001b85756fe60a0604052600436101561001b575b361561001957600080fd5b005b60003560e01c8063013cf08b146124ef578063072ea61c146124d157806308ae4b0c146124705780630d61b51914611e2d5780631808022a14611e0a578063215809ca14610c865780632833788614611d4d578063313dab2014611d2f5780633ccae22a14611b475780633dd3527914611b0d5780634385963214611a9e5780634a87169d14611a13578063524ddc23146119e65780635584c4f9146118f457806356e4a9a8146117185780635962a941146116fa57806359c266ff146116dc5780635c975abb146116b95780635fa7ddf01461169b57806364653f291461164557806364df049e14611600578063653724d6146115d35780636898b19c146115b55780636ad185501461157b578063843257a6146114d65780638e3a3d98146114005780638f78bbc4146113be57806395a078e81461137f578063997072f71461136157806399e288d814610f35578063a51a46b914610f17578063a64e024a14610ef9578063a730117e14610ed6578063a81bbe3c14610e9c578063ae79d21714610c8b578063aedfe53f14610c86578063b307fc6d14610c44578063bdb75b3414610c26578063bebc8fc014610be1578063c1b57edb14610bc3578063c293947114610ab4578063c3f909d4146109c9578063c7f758a8146108f1578063c9d27afe146106d8578063d402d4be1461043d578063d89135cd1461041f578063da35c66414610401578063e243c5fb146103bc578063f7158b2a1461028a5763ffafe4ad0361000e5734610285576020366003190112610285576001600160a01b036102676127d3565b16600052600e602052602060ff604060002054166040519015158152f35b600080fd5b346102855760003660031901126102855733600052600560205260ff60406000205416156103aa576102ba612be0565b6102c333612939565b801561039857806102d9600354600a549061292c565b106103865760095433600052600560205260036040600020015560086020526040600020610308828254612a11565b90556103168160035461292c565b60035561034d81337f00000000000000000000000000000000000000000000000000000000000000006001600160a01b0316613242565b6040519081524260208201527fc4e740509dbfae3377bc9925dd7bcc8aaba69cd730316216d76b2d24725c636660403392a26001600055005b60405163bc6072f160e01b8152600490fd5b6040516373380d9960e01b8152600490fd5b60405163148fe22160e11b8152600490fd5b34610285576000366003190112610285576040517f00000000000000000000000000000000000000000000000000000000000000006001600160a01b03168152602090f35b34610285576000366003190112610285576020600b54604051908152f35b34610285576000366003190112610285576020601054604051908152f35b34610285576080366003190112610285576104566127d3565b61045e6127e9565b604435906064356001600160401b03811161028557610481903690600401612864565b923033036106c6576001600160a01b03828116949085156106b45784156106a257807f0000000000000000000000000000000000000000000000000000000000000000169216938285146000146105c5576040516370a0823160e01b8152306004820152602081602481875afa9081156105b957600091610587575b5060035480821115610575576105129161292c565b81116105755761054e8160009560008051602061330a83398151915295610546600254808511158a1461056f57849061292c565b600255613242565b61056a6040519283928352604060208401526040830190612793565b0390a4005b8061292c565b604051631c7b597b60e11b8152600490fd5b90506020813d6020116105b1575b816105a2602093836126cd565b810103126102855751876104fd565b3d9150610595565b6040513d6000823e3d90fd5b915091831560001461061a575047811161057557600080808084885af16105ea612c03565b50156106085760009160008051602061330a8339815191529161054e565b6040516331d436c760e01b8152600490fd5b90916040516370a0823160e01b8152306004820152602081602481885afa9081156105b957600091610670575b508311610575578261066b60009460008051602061330a8339815191529487613242565b61054e565b90506020813d60201161069a575b8161068b602093836126cd565b81010312610285575186610647565b3d915061067e565b6040516365e52d5160e11b8152600490fd5b604051634e46966960e11b8152600490fd5b6040516327568d2f60e11b8152600490fd5b346102855760403660031901126102855760043560249081358015159283820361028557336000526020916005835260ff60406000205416156103aa57600b548410156108df5783600052600c8352604060002091600c8301544210156108cd5733600052600584526001928360406000200154600d82015411156108bb5760108101923360005283865260ff604060002054169360119485840180895260ff6040600020541692895260406000208860ff1982541617905588526107ad8360406000209060ff801983541691151516179055565b61082857501561081057600a019182549384018094116107fe575050555b60405192835242908301527fcbdf6214089cba887ecbf35a0b6a734589959c9763342c756bb2a80ca2bc9f6e60403393a3005b634e487b7160e01b6000526004526000fd5b600b019182549384018094116107fe575050556107cb565b9050878115150361083e575b50505050506107cb565b1561088c57600a810180546000198101919082116108785790600b929155019182549384018094116107fe575050555b8380808080610834565b8385634e487b7160e01b6000526004526000fd5b600b810180546000198101919082116108785790600a929155019182549384018094116107fe5750505561086e565b60405163f078ca7360e01b8152600490fd5b604051637a19ed0560e01b8152600490fd5b604051631dc0650160e31b8152600490fd5b3461028557602036600319011261028557600435600b548110156108df57600052600c6020526040600020600c8101548042101590816109b7575b60018060a01b0360018401541691600a84015491600b8501549060ff600f870154169161099561096a600361096360028b016126ee565b99016126ee565b610987604051998a99610100908b528060208c01528a0190612793565b9088820360408a0152612793565b946060870152608086015260a0850152151560c0840152151560e08301520390f35b600a830154600b84015410915061092c565b34610285576000366003190112610285576040516370a0823160e01b81523060048201527f00000000000000000000000000000000000000000000000000000000000000006001600160a01b0316602082602481845afa80156105b957600090610a81575b60035460c09350908180821115610a7857610a489161292c565b60015460ff60045416600f54916040519586526020860152151560408501526060840152608083015260a0820152f35b50506000610a48565b506020823d602011610aac575b81610a9b602093836126cd565b810103126102855760c09151610a2e565b3d9150610a8e565b34610285576000366003190112610285576040516370a0823160e01b81523060048201526001600160a01b036020826024817f000000000000000000000000000000000000000000000000000000000000000085165afa9081156105b957600091610b8e575b60035460c09350918280821115610b8457610b349161292c565b915b601154601054906013549260405195865260208601526040850152606084015260808301527f00000000000000000000000000000000000000000000000000000000000000001660a0820152f35b5050600091610b36565b90506020823d602011610bbb575b81610ba9602093836126cd565b810103126102855760c0915190610b1a565b3d9150610b9c565b34610285576000366003190112610285576020601154604051908152f35b34610285576000366003190112610285576040517f00000000000000000000000000000000000000000000000000000000000000006001600160a01b03168152602090f35b34610285576000366003190112610285576020601254604051908152f35b346102855760203660031901126102855760043560065481101561028557610c6d6020916128df565b905460405160039290921b1c6001600160a01b03168152f35b61282b565b346102855760c0366003190112610285576001600160401b0360043581811161028557610cbc903690600401612864565b60243582811161028557610cd4903690600401612864565b91610cdd6127ff565b90610ce6612815565b9360843582811161028557610cff903690600401612864565b93336000526020956005875260ff60406000205416156103aa57610d2c610d5a9260079460a43591612d3e565b6004810180546001600160a81b03191660089890981b610100600160a81b0316979097176003179096559491565b6005820180546001600160a01b0319166001600160a01b0390921691909117905584519101918111610e8657610d908254612678565b601f8111610e40575b508493601f8211600114610ddc579381929394600092610dd1575b50508160011b916000199060031b1c19161790555b604051908152f35b015190508580610db4565b601f1982169483600052866000209160005b88888210610e2a57505083600195969710610e11575b505050811b019055610dc9565b015160001960f88460031b161c19169055858080610e04565b6001849582939585015181550194019201610dee565b8260005285600020601f830160051c810191878410610e7c575b601f0160051c01905b818110610e705750610d99565b60008155600101610e63565b9091508190610e5a565b634e487b7160e01b600052604160045260246000fd5b34610285576020366003190112610285576001600160a01b03610ebd6127d3565b1660005260086020526020604060002054604051908152f35b34610285576020366003190112610285576020610dc9610ef46127d3565b612bb6565b3461028557600036600319011261028557602060405162278d008152f35b34610285576000366003190112610285576020600a54604051908152f35b346102855760003660031901126102855760ff6004541661134f5730331461133d57610f5f612be0565b3360005260056020526040600020805460ff811661132b57600191825490601e820290821593838304601e148517156112725783603c810204603c1485171561127257600a840294848604600a141715611272576040516370a0823160e01b81523360048201526020816024817f00000000000000000000000000000000000000000000000000000000000000006001600160a01b03165afa80156105b95785916000916112f6575b50106112e457859060ff191617815542858201554360028201556006543360005260076020528060406000205568010000000000000000811015610e8657808661105592016006556128df565b81546001600160a01b0360039290921b91821b19163390911b179055600f5461107d90612985565b600f55600654858111611288575b5060036009549101558354601e810290808204601e1490151715611272576064603c816111a99304946110c086600254612a11565b6002556110cf86600354612a11565b6003556110e0838604601054612a11565b6010556110ef86601154612a11565b6011556110fe86601254612a11565b60125561110f838804601354612a11565b6013556040516323b872dd60e01b602082015233602482015261dead60448201528386048482015283815261117690611147816126b2565b7f00000000000000000000000000000000000000000000000000000000000000006001600160a01b031661328d565b020430337f00000000000000000000000000000000000000000000000000000000000000006001600160a01b03166131fb565b611201606484047f0000000000000000000000000000000000000000000000000000000000000000337f00000000000000000000000000000000000000000000000000000000000000006001600160a01b03166131fb565b835492600f54926000198401938411611272576064809360405196875204602086015280604086015260608501520460808301524260a08301524360c083015260e08201527fe6d1c0e418a42a777d49c66571075fc47bc1d92e7f506007ddde08d1ff182bbc6101003392a2600055005b634e487b7160e01b600052601160045260246000fd5b8554601e810290808204601e1490151715611272576112ad906064600a549104612a11565b6000198201918211611272576112d0826112ca6112db9484612bac565b926129f1565b600a55600954612a11565b6009558561108b565b604051631e9acf1760e31b8152600490fd5b9150506020813d602011611323575b81611312602093836126cd565b810103126102855784905188611008565b3d9150611305565b604051630cd9ed5560e21b8152600490fd5b604051636edaef2f60e11b8152600490fd5b604051630eceade960e31b8152600490fd5b34610285576000366003190112610285576020600654604051908152f35b34610285576020366003190112610285576001600160a01b036113a06127d3565b166000526005602052602060ff604060002054166040519015158152f35b34610285576040366003190112610285576113f46113e0602435600435612a1e565b6040519283926040845260408401906128ab565b90151560208301520390f35b34610285576080366003190112610285576001600160401b0360043581811161028557611431903690600401612864565b906024359081116102855761144a903690600401612864565b906044359133600052600560205260ff60406000205416156103aa578261149b575b9161147f60099260209460643591612d3e565b60048101805460ff191660011790559290920155604051908152f35b91600a81106114c457600a81066114b2579161146c565b604051636fe6a4c960e01b8152600490fd5b604051635eee050360e11b8152600490fd5b34610285576080366003190112610285576001600160401b0360043581811161028557611507903690600401612864565b9060243590811161028557611520903690600401612864565b6044359182151583036102855733600052600560205260ff60406000205416156103aa5760209261155a610dc99260089460643591612d3e565b6004819592950160ff198154169055019060ff801983541691151516179055565b34610285576020366003190112610285576001600160a01b0361159c6127d3565b16600052600d6020526020604060002054604051908152f35b34610285576000366003190112610285576020600954604051908152f35b34610285576020366003190112610285576004358015158103610285573033036106c65761001990612d00565b34610285576000366003190112610285576040517f00000000000000000000000000000000000000000000000000000000000000006001600160a01b03168152602090f35b34610285576020366003190112610285576001600160a01b036116666127d3565b1660005260056020526060604060002060ff815416906002600182015491015490604051921515835260208301526040820152f35b34610285576000366003190112610285576020600354604051908152f35b3461028557600036600319011261028557602060ff600454166040519015158152f35b34610285576000366003190112610285576020601354604051908152f35b34610285576000366003190112610285576020600f54604051908152f35b346102855760e0366003190112610285576001600160401b0360043581811161028557611749903690600401612864565b60243582811161028557611761903690600401612864565b9161176a6127ff565b90611773612815565b9360a4358281116102855761178c903690600401612864565b93336000526020956005875260ff60406000205416156103aa576117b96117e79260079460c43591612d3e565b6004810180546001600160a81b03191660089890981b610100600160a81b0316979097176002179096559491565b6005820180546001600160a01b0319166001600160a01b03909216919091179055608435600682015584519101918111610e86576118258254612678565b601f81116118ae575b508493601f8211600114611864579381929394600092610dd15750508160011b916000199060031b1c1916179055604051908152f35b601f1982169483600052866000209160005b8888821061189857505083600195969710610e1157505050811b019055610dc9565b6001849582939585015181550194019201611876565b8260005285600020601f830160051c8101918784106118ea575b601f0160051c01905b8181106118de575061182e565b600081556001016118d1565b90915081906118c8565b3461028557600036600319011261028557600b546000805b828110611998575061191d906129ab565b906000805b828110611943576040516020808252819061193f908201876128ab565b0390f35b80600191600052600c8060205260406000209081015442109081611988575b5061196e575b01611922565b8061198261197b85612985565b94876129dd565b52611968565b60ff9150600f0154161586611962565b80600052600c80602052604060002090810154421090816119d6575b506119c2575b60010161190c565b906119ce600191612985565b9190506119ba565b60ff9150600f01541615846119b4565b34610285576040366003190112610285576119ff6127d3565b3033036106c6576100199060243590612c33565b34610285576060366003190112610285576001600160401b0360043581811161028557611a44903690600401612864565b9060243590811161028557611a5d903690600401612864565b9033600052600560205260ff60406000205416156103aa57611a8760049160209360443591612d3e565b91909101805460ff19166004179055604051908152f35b3461028557604036600319011261028557600435611aba6127e9565b600b548210156108df57604091600052600c602052816000209060018060a01b031660005260108101602052601160ff836000205416910160205260ff8260002054168251911515825215156020820152f35b34610285576020366003190112610285576001600160a01b03611b2e6127d3565b1660005260076020526020604060002054604051908152f35b3461028557606036600319011261028557611b606127d3565b611b686127e9565b906044356001600160401b03811161028557611b88903690600401612864565b903033036106c6576001600160a01b03838116939084156106b457807f000000000000000000000000000000000000000000000000000000000000000016921692828414600014611c8a576040516370a0823160e01b815230600482015291602083602481875afa9283156105b957600093611c56575b5060035480841115611c4457600094611c2a61054e9260008051602061330a8339815191529661292c565b928391610546600254808511158a1461056f57849061292c565b604051631ab9ebab60e01b8152600490fd5b9092506020813d602011611c82575b81611c72602093836126cd565b8101031261028557519186611bff565b3d9150611c65565b915082611caa5750478015611c4457600080808084885af16105ea612c03565b6040516370a0823160e01b81523060048201529091602082602481875afa9182156105b957600092611cfb575b50818215611c445761066b60008051602061330a8339815191529360009587613242565b9091506020813d602011611d27575b81611d17602093836126cd565b8101031261028557519085611cd7565b3d9150611d0a565b34610285576000366003190112610285576020600254604051908152f35b34610285576000366003190112610285573033036106c6576002548015611c4457600654908115611df85760607f8b887c99365b16ec127c895b4fbfab96273b2a79191ed7b42b9724cd8a695ae99160009384600255611daf82600354612a11565b600355611dc6611dbf8284612bac565b91836129f1565b90611dd381600954612a11565b600955611de282600a54612a11565b600a5560405192835260208301526040820152a2005b604051630292d7c360e51b8152600490fd5b34610285576020366003190112610285576020610dc9611e286127d3565b612939565b34610285576020806003193601126102855760043590611e4b612be0565b600b548210156108df5781600052600c81526040600020600c810154421061245e57600f810180549060ff821661244c57600a830154600b840154101561243a57600160ff1980931617905560018060a01b039081600184015416600052600e845260ff6040600020541680612428575b612408575b506004820160ff81541660058110156123f25780611f19575050506000805160206132ea83398151915291611efe60ff6008606094015416612d00565b60408051916001835282015260006040820152a26001600055005b60018103611f4f575060609260096000805160206132ea8339815191529593611f4a935460081c1691015490612c33565b611efe565b9193916002919082810361216f575084905460081c168460058501541691611f7e6007600687015496016126ee565b9583156106b45785156106a2577f000000000000000000000000000000000000000000000000000000000000000016828103612091576040516370a0823160e01b81523060048201528581602481855afa9081156105b957600091612064575b506003548082111561057557611ff39161292c565b8611610575576000805160206132ea83398151915296866120416060988760008051602061330a833981519152958761203a8f99548086111560001461056f57859061292c565b9055613242565b61205c60405192839283526040898401526040830190612793565b0390a4611efe565b90508581813d831161208a575b61207b81836126cd565b81010312610285575189611fde565b503d612071565b5050806120de5747841161057557600080808087865af16120b0612c03565b5015610608578560008051602061330a8339815191526000805160206132ea83398151915296606096612041565b6040516370a0823160e01b81523060048201528381602481855afa9081156105b957600091612142575b508411610575578560008051602061330a8339815191526000805160206132ea833981519152968661213d6060988787613242565b612041565b90508381813d8311612168575b61215981836126cd565b81010312610285575187612108565b503d61214f565b919493916003810361232c575083905460081c1661219660078560058501541693016126ee565b9382156106b4577f00000000000000000000000000000000000000000000000000000000000000001694818603612279576040516370a0823160e01b81523060048201529484866024818a5afa9586156105b95760009661224a575b506003549081871115611c44576000805160206132ea833981519152976120418a948761223060008051602061330a8339815191529660609c61292c565b938261203a8694548086111560001461056f57859061292c565b9095508481813d8311612272575b61226281836126cd565b81010312610285575194886121f2565b503d612258565b509293508261229b5747928315611c4457600080808087865af16120b0612c03565b6040516370a0823160e01b815230600482015293928285602481845afa9485156105b9576000956122fd575b50848515611c445760008051602061330a833981519152606095889261213d6000805160206132ea833981519152998787613242565b9094508281813d8311612325575b61231581836126cd565b81010312610285575193866122c7565b503d61230b565b91505060049193925014612353575b5060606000805160206132ea83398151915291611efe565b8054918215611c4457600654928315611df8577f8b887c99365b16ec127c895b4fbfab96273b2a79191ed7b42b9724cd8a695ae9606086926000805160206132ea8339815191529660008397556123ac82600354612a11565b6003556123bc611dbf8284612bac565b906123c981600954612a11565b6009556123d882600a54612a11565b600a55604051928352868301526040820152a2915061233b565b634e487b7160e01b600052602160045260246000fd5b600e84526040600020908154169055600d83526000604081205584611ec1565b50600d84528460406000205414611ebc565b60405163c8c93ba360e01b8152600490fd5b604051630dc1019760e01b8152600490fd5b604051633fc30bd160e11b8152600490fd5b34610285576020366003190112610285576001600160a01b036124916127d3565b1660005260056020526080604060002060ff8154169060018101549060036002820154910154916040519315158452602084015260408301526060820152f35b34610285576000366003190112610285576020600154604051908152f35b3461028557602036600319011261028557600435600052600c6020526040600020805490600160a01b600190036001820154169060028101612530906126ee565b9261253d600383016126ee565b6004830154600584015460068501546001600160a01b03909116969291612566600787016126ee565b90600887015460ff1698600988015492600a89015494600b8a015496600c8b015498600d8c01549a600e8d01549c600f015460ff169d6040516080526102209160805152608051602001528060805160400152608051016125c691612793565b6080518103608051606001526125db91612793565b9260ff8516600511156123f2578460ff612629961660808051015260018060a01b039060081c1660a0608051015260c0608051015260e0608051015260805182036101006080510152612793565b97151561012060805101526101406080510152610160608051015261018060805101526101a060805101526101c060805101526101e06080510152151561020060805101526080519003608051f35b90600182811c921680156126a8575b602083101461269257565b634e487b7160e01b600052602260045260246000fd5b91607f1691612687565b60a081019081106001600160401b03821117610e8657604052565b90601f801991011681019081106001600160401b03821117610e8657604052565b9060405191826000825461270181612678565b908184526020946001916001811690816000146127715750600114612732575b505050612730925003836126cd565b565b600090815285812095935091905b8183106127595750506127309350820101388080612721565b85548884018501529485019487945091830191612740565b9250505061273094925060ff191682840152151560051b820101388080612721565b919082519283825260005b8481106127bf575050826000602080949584010152601f8019910116010190565b60208183018101518483018201520161279e565b600435906001600160a01b038216820361028557565b602435906001600160a01b038216820361028557565b604435906001600160a01b038216820361028557565b606435906001600160a01b038216820361028557565b3461028557600036600319011261028557602060405162093a808152f35b6001600160401b038111610e8657601f01601f191660200190565b81601f820112156102855780359061287b82612849565b9261288960405194856126cd565b8284526020838301011161028557816000926020809301838601378301015290565b90815180825260208080930193019160005b8281106128cb575050505090565b8351855293810193928101926001016128bd565b6006548110156129165760066000527ff652222313e28459528d920b65115c16c04f3efc82aaedc97be59f3f377c0d3f0190600090565b634e487b7160e01b600052603260045260246000fd5b9190820391821161127257565b6001600160a01b03166000908152600560205260409020805460ff161561297f576003600954910154808211600014612978576129759161292c565b90565b5050600090565b50600090565b60001981146112725760010190565b6001600160401b038111610e865760051b60200190565b906129b582612994565b6129c260405191826126cd565b82815280926129d3601f1991612994565b0190602036910137565b80518210156129165760209160051b010190565b81156129fb570690565b634e487b7160e01b600052601260045260246000fd5b9190820180921161127257565b9181158015612ba2575b612b9057600b5480841015612b6157612a40836129ab565b91600091855b81871080612b58575b15612abc575085600052600c8060205260406000209081015442109081612aac575b50612a92575b6001860180871161127257612a8c9096612985565b95612a46565b85612aa6612a9f85612985565b94866129dd565b52612a77565b60ff9150600f0154161538612a71565b9550909350600094818110612b08575b5050612ad7816129ab565b9160005b828110612ae9575050509190565b80612af6600192846129dd565b51612b0182876129dd565b5201612adb565b5b81811015612acc5780600052600c8060205260406000209081015442109081612b48575b50612b3a57600101612b09565b505092506001923880612acc565b60ff9150600f0154161538612b2d565b50858410612a4f565b50915050604051602081018181106001600160401b03821117610e865760405260008152600036813790600090565b6040516381f396b760e01b8152600490fd5b5060648211612a28565b81156129fb570490565b6001600160a01b031660009081526005602052604090205460ff1615612bdb57600190565b600090565b600260005414612bf1576002600055565b604051633ee5aeb560e01b8152600490fd5b3d15612c2e573d90612c1482612849565b91612c2260405193846126cd565b82523d6000602084013e565b606090565b6001600160a01b03919082168015159081612cd3575b50612cc15780612ca8575b507faf8839d80c9b3bbf95c97465eb8c8348db4098f5c15af186c3b425b1129981176020600154926040519384527f00000000000000000000000000000000000000000000000000000000000000001692a2565b600a81106114c457600a81066114b25760015538612c54565b60405163b078ee9d60e01b8152600490fd5b9050827f000000000000000000000000000000000000000000000000000000000000000016141538612c49565b60207f752d7e161ff5146f80e3820893176eb40532811e5e20400dfdde57455213706a91151560ff196004541660ff821617600455604051908152a1565b919290928251156131e9578351156131d7576000338152602091600e835260409060ff8284205416613166575b80613160575062093a80945b62093a80861061314f5762278d00861161313e57600b5492612d9884612985565b600b558397848252600c865283822097858955600191828a01336bffffffffffffffffffffffff60a01b82541617905560028a018551906001600160401b039182811161312a57612de98254612678565b601f81116130e4575b50808b601f821160011461308557889161307a575b50600019600383901b1c191690861b1790555b60038b019180519182116130665792828c95928a99989795612e3d8d9654612678565b601f8111612fec575b508590601f8311600114612f3857612eab88957f98120a6aaa04295520ab4e01c6c1235dd316e822cc9ff31db7b3f197366d18bd9d9895858e99968996600b96612f219f9e92612f2d575b5050600019600383901b1c191690871b1790555b42612a11565b97600c810198895542600d820155600654600e820155600f81019460ff19958681541690553384526010820181528784208587825416179055601182019052868320848682541617905583600a8201550155600e8c5283832091825416179055600d8a5220555491835193808552840190612793565b948201528033940390a3565b015190503880612e91565b90601f9b98999a9b1983169184895287892092895b818110612fbe575095612f219a9895887f98120a6aaa04295520ab4e01c6c1235dd316e822cc9ff31db7b3f197366d18bd9f9e9d9b98968f9a9796600b96612eab96838d9a10612fa5575b505050811b019055612ea5565b015160001960f88460031b161c19169055388080612f98565b95989296999b5092879a5096819497878493015181550195019301928f99979491928d9996938f9895612f4d565b92955092958098999a508591949750528a8720601f840160051c8101918c851061305c575b928c95928f989592601f8e9d9c9b99960160051c01905b8181106130355750612e46565b889a9b9c5086995080929598919497509592955501928a99989795928c95928f9895613028565b9091508190613011565b634e487b7160e01b86526041600452602486fd5b905088015138612e07565b8389528c892088935090601f1983168a8f5b8d8383106130ce5750505083116130b5575b5050811b019055612e1a565b8a015160001960f88460031b161c1916905538806130a9565b84015185558b969094019392830192018f613097565b8288528b8820601f830160051c8101918d8410613120575b601f0160051c019087905b828110613115575050612df2565b898155018790613107565b90915081906130fc565b634e487b7160e01b87526041600452602487fd5b815163eeeb962360e01b8152600490fd5b81516331806aeb60e21b8152600490fd5b94612d77565b600d84939296959452858220548252600c835285822060ff600f820154161590816131c9575b50156131a357855163792c310960e11b8152600490fd5b949091929394338352600e845281832060ff198154169055600d84528282812055612d6b565b600c9150015442103861318c565b604051633e61080d60e01b8152600490fd5b6040516319d546f160e31b8152600490fd5b6040516323b872dd60e01b60208201526001600160a01b0392831660248201529290911660448301526064808301939093529181526127309161323d826126b2565b61328d565b60405163a9059cbb60e01b60208201526001600160a01b03909216602483015260448083019390935291815260808101916001600160401b03831182841017610e8657612730926040525b906000602091828151910182855af1156105b9576000513d6132e057506001600160a01b0381163b155b6132be5750565b604051635274afe760e01b81526001600160a01b039091166004820152602490fd5b600114156132b756feaf8f9d0e884d3306a083e846741a0bc4d75908e2b0ec63b558219652ae4c1b90d81f085560db5c809c425a15f00e3f2904e4fa46d6e8672ff2e671ccd6d9a231a2646970667358221220446ebd55cb64009a5a2c2a04dbea4e3c48ca3143537d01419b8e944b222eca6864736f6c63430008170033",
  "linkReferences": {},
  "deployedLinkReferences": {}
}