{
  "_format": "hh-sol-artifact-1",
  "contractName": "TEMPL",
  "sourceName": "contracts/TEMPL.sol",
  "abi": [
    {
      "inputs": [
        {
          "internalType": "address",
          "name": "_priest",
          "type": "address"
        },
        {
          "internalType": "address",
          "name": "_protocolFeeRecipient",
          "type": "address"
        },
        {
          "internalType": "address",
          "name": "_token",
          "type": "address"
        },
        {
          "internalType": "uint256",
          "name": "_entryFee",
          "type": "uint256"
        },
        {
          "internalType": "uint256",
          "name": "_priestVoteWeight",
          "type": "uint256"
        },
        {
          "internalType": "uint256",
          "name": "_priestWeightThreshold",
          "type": "uint256"
        }
      ],
      "stateMutability": "nonpayable",
      "type": "constructor"
    },
    {
      "inputs": [],
      "name": "ActiveProposalExists",
      "type": "error"
    },
    {
      "inputs": [],
      "name": "AlreadyExecuted",
      "type": "error"
    },
    {
      "inputs": [],
      "name": "AlreadyPurchased",
      "type": "error"
    },
    {
      "inputs": [],
      "name": "AlreadyVoted",
      "type": "error"
    },
    {
      "inputs": [],
      "name": "AmountZero",
      "type": "error"
    },
    {
      "inputs": [],
      "name": "CallDataRequired",
      "type": "error"
    },
    {
      "inputs": [],
      "name": "ContractPausedError",
      "type": "error"
    },
    {
      "inputs": [],
      "name": "DescriptionRequired",
      "type": "error"
    },
    {
      "inputs": [],
      "name": "EntryFeeTooSmall",
      "type": "error"
    },
    {
      "inputs": [],
      "name": "ExternalCallFailed",
      "type": "error"
    },
    {
      "inputs": [],
      "name": "InsufficientBalance",
      "type": "error"
    },
    {
      "inputs": [],
      "name": "InsufficientPoolBalance",
      "type": "error"
    },
    {
      "inputs": [],
      "name": "InsufficientTreasuryBalance",
      "type": "error"
    },
    {
      "inputs": [],
      "name": "InvalidEntryFee",
      "type": "error"
    },
    {
      "inputs": [],
      "name": "InvalidProposal",
      "type": "error"
    },
    {
      "inputs": [],
      "name": "InvalidRecipient",
      "type": "error"
    },
    {
      "inputs": [],
      "name": "InvalidTarget",
      "type": "error"
    },
    {
      "inputs": [],
      "name": "JoinedAfterProposal",
      "type": "error"
    },
    {
      "inputs": [],
      "name": "LimitOutOfRange",
      "type": "error"
    },
    {
      "inputs": [],
      "name": "NoRewardsToClaim",
      "type": "error"
    },
    {
      "inputs": [],
      "name": "NoTreasuryFunds",
      "type": "error"
    },
    {
      "inputs": [],
      "name": "NotDAO",
      "type": "error"
    },
    {
      "inputs": [],
      "name": "NotMember",
      "type": "error"
    },
    {
      "inputs": [],
      "name": "ProposalExecutionFailed",
      "type": "error"
    },
    {
      "inputs": [],
      "name": "ProposalNotPassed",
      "type": "error"
    },
    {
      "inputs": [],
      "name": "ReentrantCall",
      "type": "error"
    },
    {
      "inputs": [
        {
          "internalType": "address",
          "name": "token",
          "type": "address"
        }
      ],
      "name": "SafeERC20FailedOperation",
      "type": "error"
    },
    {
      "inputs": [],
      "name": "TitleRequired",
      "type": "error"
    },
    {
      "inputs": [],
      "name": "VotingEnded",
      "type": "error"
    },
    {
      "inputs": [],
      "name": "VotingNotEnded",
      "type": "error"
    },
    {
      "inputs": [],
      "name": "VotingPeriodTooLong",
      "type": "error"
    },
    {
      "inputs": [],
      "name": "VotingPeriodTooShort",
      "type": "error"
    },
    {
      "anonymous": false,
      "inputs": [
        {
          "indexed": true,
          "internalType": "address",
          "name": "purchaser",
          "type": "address"
        },
        {
          "indexed": false,
          "internalType": "uint256",
          "name": "totalAmount",
          "type": "uint256"
        },
        {
          "indexed": false,
          "internalType": "uint256",
          "name": "burnedAmount",
          "type": "uint256"
        },
        {
          "indexed": false,
          "internalType": "uint256",
          "name": "treasuryAmount",
          "type": "uint256"
        },
        {
          "indexed": false,
          "internalType": "uint256",
          "name": "memberPoolAmount",
          "type": "uint256"
        },
        {
          "indexed": false,
          "internalType": "uint256",
          "name": "protocolAmount",
          "type": "uint256"
        },
        {
          "indexed": false,
          "internalType": "uint256",
          "name": "timestamp",
          "type": "uint256"
        },
        {
          "indexed": false,
          "internalType": "uint256",
          "name": "blockNumber",
          "type": "uint256"
        },
        {
          "indexed": false,
          "internalType": "uint256",
          "name": "purchaseId",
          "type": "uint256"
        }
      ],
      "name": "AccessPurchased",
      "type": "event"
    },
    {
      "anonymous": false,
      "inputs": [
        {
          "indexed": true,
          "internalType": "address",
          "name": "token",
          "type": "address"
        },
        {
          "indexed": false,
          "internalType": "uint256",
          "name": "entryFee",
          "type": "uint256"
        }
      ],
      "name": "ConfigUpdated",
      "type": "event"
    },
    {
      "anonymous": false,
      "inputs": [
        {
          "indexed": false,
          "internalType": "bool",
          "name": "isPaused",
          "type": "bool"
        }
      ],
      "name": "ContractPaused",
      "type": "event"
    },
    {
      "anonymous": false,
      "inputs": [
        {
          "indexed": true,
          "internalType": "address",
          "name": "target",
          "type": "address"
        },
        {
          "indexed": false,
          "internalType": "uint256",
          "name": "value",
          "type": "uint256"
        },
        {
          "indexed": false,
          "internalType": "bytes",
          "name": "data",
          "type": "bytes"
        },
        {
          "indexed": false,
          "internalType": "bytes",
          "name": "result",
          "type": "bytes"
        }
      ],
      "name": "DAOExecuted",
      "type": "event"
    },
    {
      "anonymous": false,
      "inputs": [
        {
          "indexed": true,
          "internalType": "address",
          "name": "member",
          "type": "address"
        },
        {
          "indexed": false,
          "internalType": "uint256",
          "name": "amount",
          "type": "uint256"
        },
        {
          "indexed": false,
          "internalType": "uint256",
          "name": "timestamp",
          "type": "uint256"
        }
      ],
      "name": "MemberPoolClaimed",
      "type": "event"
    },
    {
      "anonymous": false,
      "inputs": [
        {
          "indexed": true,
          "internalType": "uint256",
          "name": "proposalId",
          "type": "uint256"
        },
        {
          "indexed": true,
          "internalType": "address",
          "name": "proposer",
          "type": "address"
        },
        {
          "indexed": false,
          "internalType": "string",
          "name": "title",
          "type": "string"
        },
        {
          "indexed": false,
          "internalType": "uint256",
          "name": "endTime",
          "type": "uint256"
        }
      ],
      "name": "ProposalCreated",
      "type": "event"
    },
    {
      "anonymous": false,
      "inputs": [
        {
          "indexed": true,
          "internalType": "uint256",
          "name": "proposalId",
          "type": "uint256"
        },
        {
          "indexed": false,
          "internalType": "bool",
          "name": "success",
          "type": "bool"
        },
        {
          "indexed": false,
          "internalType": "bytes",
          "name": "returnData",
          "type": "bytes"
        }
      ],
      "name": "ProposalExecuted",
      "type": "event"
    },
    {
      "anonymous": false,
      "inputs": [
        {
          "indexed": true,
          "internalType": "uint256",
          "name": "proposalId",
          "type": "uint256"
        },
        {
          "indexed": true,
          "internalType": "address",
          "name": "recipient",
          "type": "address"
        },
        {
          "indexed": false,
          "internalType": "uint256",
          "name": "amount",
          "type": "uint256"
        },
        {
          "indexed": false,
          "internalType": "string",
          "name": "description",
          "type": "string"
        }
      ],
      "name": "TreasuryAction",
      "type": "event"
    },
    {
      "anonymous": false,
      "inputs": [
        {
          "indexed": true,
          "internalType": "address",
          "name": "priest",
          "type": "address"
        },
        {
          "indexed": true,
          "internalType": "address",
          "name": "recipient",
          "type": "address"
        },
        {
          "indexed": false,
          "internalType": "uint256",
          "name": "amount",
          "type": "uint256"
        },
        {
          "indexed": false,
          "internalType": "uint256",
          "name": "timestamp",
          "type": "uint256"
        }
      ],
      "name": "TreasuryWithdrawn",
      "type": "event"
    },
    {
      "anonymous": false,
      "inputs": [
        {
          "indexed": true,
          "internalType": "uint256",
          "name": "proposalId",
          "type": "uint256"
        },
        {
          "indexed": true,
          "internalType": "address",
          "name": "voter",
          "type": "address"
        },
        {
          "indexed": false,
          "internalType": "bool",
          "name": "support",
          "type": "bool"
        },
        {
          "indexed": false,
          "internalType": "uint256",
          "name": "timestamp",
          "type": "uint256"
        }
      ],
      "name": "VoteCast",
      "type": "event"
    },
    {
      "inputs": [],
      "name": "DEFAULT_VOTING_PERIOD",
      "outputs": [
        {
          "internalType": "uint256",
          "name": "",
          "type": "uint256"
        }
      ],
      "stateMutability": "view",
      "type": "function"
    },
    {
      "inputs": [],
      "name": "MAX_VOTING_PERIOD",
      "outputs": [
        {
          "internalType": "uint256",
          "name": "",
          "type": "uint256"
        }
      ],
      "stateMutability": "view",
      "type": "function"
    },
    {
      "inputs": [],
      "name": "MIN_VOTING_PERIOD",
      "outputs": [
        {
          "internalType": "uint256",
          "name": "",
          "type": "uint256"
        }
      ],
      "stateMutability": "view",
      "type": "function"
    },
    {
      "inputs": [],
      "name": "accessToken",
      "outputs": [
        {
          "internalType": "address",
          "name": "",
          "type": "address"
        }
      ],
      "stateMutability": "view",
      "type": "function"
    },
    {
      "inputs": [
        {
          "internalType": "address",
          "name": "",
          "type": "address"
        }
      ],
      "name": "activeProposalId",
      "outputs": [
        {
          "internalType": "uint256",
          "name": "",
          "type": "uint256"
        }
      ],
      "stateMutability": "view",
      "type": "function"
    },
    {
      "inputs": [],
      "name": "claimMemberPool",
      "outputs": [],
      "stateMutability": "nonpayable",
      "type": "function"
    },
    {
      "inputs": [
        {
          "internalType": "string",
          "name": "_title",
          "type": "string"
        },
        {
          "internalType": "string",
          "name": "_description",
          "type": "string"
        },
        {
          "internalType": "bytes",
          "name": "_callData",
          "type": "bytes"
        },
        {
          "internalType": "uint256",
          "name": "_votingPeriod",
          "type": "uint256"
        }
      ],
      "name": "createProposal",
      "outputs": [
        {
          "internalType": "uint256",
          "name": "",
          "type": "uint256"
        }
      ],
      "stateMutability": "nonpayable",
      "type": "function"
    },
    {
      "inputs": [],
      "name": "cumulativeMemberRewards",
      "outputs": [
        {
          "internalType": "uint256",
          "name": "",
          "type": "uint256"
        }
      ],
      "stateMutability": "view",
      "type": "function"
    },
    {
      "inputs": [],
      "name": "entryFee",
      "outputs": [
        {
          "internalType": "uint256",
          "name": "",
          "type": "uint256"
        }
      ],
      "stateMutability": "view",
      "type": "function"
    },
    {
      "inputs": [
        {
          "internalType": "address",
          "name": "target",
          "type": "address"
        },
        {
          "internalType": "uint256",
          "name": "value",
          "type": "uint256"
        },
        {
          "internalType": "bytes",
          "name": "data",
          "type": "bytes"
        }
      ],
      "name": "executeDAO",
      "outputs": [
        {
          "internalType": "bytes",
          "name": "",
          "type": "bytes"
        }
      ],
      "stateMutability": "nonpayable",
      "type": "function"
    },
    {
      "inputs": [
        {
          "internalType": "uint256",
          "name": "_proposalId",
          "type": "uint256"
        }
      ],
      "name": "executeProposal",
      "outputs": [],
      "stateMutability": "nonpayable",
      "type": "function"
    },
    {
      "inputs": [],
      "name": "getActiveProposals",
      "outputs": [
        {
          "internalType": "uint256[]",
          "name": "",
          "type": "uint256[]"
        }
      ],
      "stateMutability": "view",
      "type": "function"
    },
    {
      "inputs": [
        {
          "internalType": "uint256",
          "name": "offset",
          "type": "uint256"
        },
        {
          "internalType": "uint256",
          "name": "limit",
          "type": "uint256"
        }
      ],
      "name": "getActiveProposalsPaginated",
      "outputs": [
        {
          "internalType": "uint256[]",
          "name": "proposalIds",
          "type": "uint256[]"
        },
        {
          "internalType": "bool",
          "name": "hasMore",
          "type": "bool"
        }
      ],
      "stateMutability": "view",
      "type": "function"
    },
    {
      "inputs": [
        {
          "internalType": "address",
          "name": "member",
          "type": "address"
        }
      ],
      "name": "getClaimablePoolAmount",
      "outputs": [
        {
          "internalType": "uint256",
          "name": "",
          "type": "uint256"
        }
      ],
      "stateMutability": "view",
      "type": "function"
    },
    {
      "inputs": [],
      "name": "getConfig",
      "outputs": [
        {
          "internalType": "address",
          "name": "token",
          "type": "address"
        },
        {
          "internalType": "uint256",
          "name": "fee",
          "type": "uint256"
        },
        {
          "internalType": "bool",
          "name": "isPaused",
          "type": "bool"
        },
        {
          "internalType": "uint256",
          "name": "purchases",
          "type": "uint256"
        },
        {
          "internalType": "uint256",
          "name": "treasury",
          "type": "uint256"
        },
        {
          "internalType": "uint256",
          "name": "pool",
          "type": "uint256"
        }
      ],
      "stateMutability": "view",
      "type": "function"
    },
    {
      "inputs": [],
      "name": "getMemberCount",
      "outputs": [
        {
          "internalType": "uint256",
          "name": "",
          "type": "uint256"
        }
      ],
      "stateMutability": "view",
      "type": "function"
    },
    {
      "inputs": [
        {
          "internalType": "uint256",
          "name": "_proposalId",
          "type": "uint256"
        }
      ],
      "name": "getProposal",
      "outputs": [
        {
          "internalType": "address",
          "name": "proposer",
          "type": "address"
        },
        {
          "internalType": "string",
          "name": "title",
          "type": "string"
        },
        {
          "internalType": "string",
          "name": "description",
          "type": "string"
        },
        {
          "internalType": "uint256",
          "name": "yesVotes",
          "type": "uint256"
        },
        {
          "internalType": "uint256",
          "name": "noVotes",
          "type": "uint256"
        },
        {
          "internalType": "uint256",
          "name": "endTime",
          "type": "uint256"
        },
        {
          "internalType": "bool",
          "name": "executed",
          "type": "bool"
        },
        {
          "internalType": "bool",
          "name": "passed",
          "type": "bool"
        }
      ],
      "stateMutability": "view",
      "type": "function"
    },
    {
      "inputs": [
        {
          "internalType": "address",
          "name": "user",
          "type": "address"
        }
      ],
      "name": "getPurchaseDetails",
      "outputs": [
        {
          "internalType": "bool",
          "name": "purchased",
          "type": "bool"
        },
        {
          "internalType": "uint256",
          "name": "timestamp",
          "type": "uint256"
        },
        {
          "internalType": "uint256",
          "name": "blockNum",
          "type": "uint256"
        }
      ],
      "stateMutability": "view",
      "type": "function"
    },
    {
      "inputs": [],
      "name": "getTreasuryInfo",
      "outputs": [
        {
          "internalType": "uint256",
          "name": "treasury",
          "type": "uint256"
        },
        {
          "internalType": "uint256",
          "name": "memberPool",
          "type": "uint256"
        },
        {
          "internalType": "uint256",
          "name": "totalReceived",
          "type": "uint256"
        },
        {
          "internalType": "uint256",
          "name": "totalBurnedAmount",
          "type": "uint256"
        },
        {
          "internalType": "uint256",
          "name": "totalProtocolFees",
          "type": "uint256"
        },
        {
          "internalType": "address",
          "name": "protocolAddress",
          "type": "address"
        }
      ],
      "stateMutability": "view",
      "type": "function"
    },
    {
      "inputs": [
        {
          "internalType": "address",
          "name": "voter",
          "type": "address"
        }
      ],
      "name": "getVoteWeight",
      "outputs": [
        {
          "internalType": "uint256",
          "name": "",
          "type": "uint256"
        }
      ],
      "stateMutability": "view",
      "type": "function"
    },
    {
      "inputs": [
        {
          "internalType": "address",
          "name": "user",
          "type": "address"
        }
      ],
      "name": "hasAccess",
      "outputs": [
        {
          "internalType": "bool",
          "name": "",
          "type": "bool"
        }
      ],
      "stateMutability": "view",
      "type": "function"
    },
    {
      "inputs": [
        {
          "internalType": "address",
          "name": "",
          "type": "address"
        }
      ],
      "name": "hasActiveProposal",
      "outputs": [
        {
          "internalType": "bool",
          "name": "",
          "type": "bool"
        }
      ],
      "stateMutability": "view",
      "type": "function"
    },
    {
      "inputs": [
        {
          "internalType": "address",
          "name": "",
          "type": "address"
        }
      ],
      "name": "hasPurchased",
      "outputs": [
        {
          "internalType": "bool",
          "name": "",
          "type": "bool"
        }
      ],
      "stateMutability": "view",
      "type": "function"
    },
    {
      "inputs": [
        {
          "internalType": "uint256",
          "name": "_proposalId",
          "type": "uint256"
        },
        {
          "internalType": "address",
          "name": "_voter",
          "type": "address"
        }
      ],
      "name": "hasVoted",
      "outputs": [
        {
          "internalType": "bool",
          "name": "voted",
          "type": "bool"
        },
        {
          "internalType": "bool",
          "name": "support",
          "type": "bool"
        }
      ],
      "stateMutability": "view",
      "type": "function"
    },
    {
      "inputs": [
        {
          "internalType": "address",
          "name": "",
          "type": "address"
        }
      ],
      "name": "memberIndex",
      "outputs": [
        {
          "internalType": "uint256",
          "name": "",
          "type": "uint256"
        }
      ],
      "stateMutability": "view",
      "type": "function"
    },
    {
      "inputs": [],
      "name": "memberPoolBalance",
      "outputs": [
        {
          "internalType": "uint256",
          "name": "",
          "type": "uint256"
        }
      ],
      "stateMutability": "view",
      "type": "function"
    },
    {
      "inputs": [
        {
          "internalType": "address",
          "name": "",
          "type": "address"
        }
      ],
      "name": "memberPoolClaims",
      "outputs": [
        {
          "internalType": "uint256",
          "name": "",
          "type": "uint256"
        }
      ],
      "stateMutability": "view",
      "type": "function"
    },
    {
      "inputs": [
        {
          "internalType": "address",
          "name": "",
          "type": "address"
        }
      ],
      "name": "memberRewardSnapshot",
      "outputs": [
        {
          "internalType": "uint256",
          "name": "",
          "type": "uint256"
        }
      ],
      "stateMutability": "view",
      "type": "function"
    },
    {
      "inputs": [
        {
          "internalType": "uint256",
          "name": "",
          "type": "uint256"
        }
      ],
      "name": "members",
      "outputs": [
        {
          "internalType": "address",
          "name": "",
          "type": "address"
        }
      ],
      "stateMutability": "view",
      "type": "function"
    },
    {
      "inputs": [],
      "name": "paused",
      "outputs": [
        {
          "internalType": "bool",
          "name": "",
          "type": "bool"
        }
      ],
      "stateMutability": "view",
      "type": "function"
    },
    {
      "inputs": [],
      "name": "priest",
      "outputs": [
        {
          "internalType": "address",
          "name": "",
          "type": "address"
        }
      ],
      "stateMutability": "view",
      "type": "function"
    },
    {
      "inputs": [],
      "name": "priestVoteWeight",
      "outputs": [
        {
          "internalType": "uint256",
          "name": "",
          "type": "uint256"
        }
      ],
      "stateMutability": "view",
      "type": "function"
    },
    {
      "inputs": [],
      "name": "priestWeightThreshold",
      "outputs": [
        {
          "internalType": "uint256",
          "name": "",
          "type": "uint256"
        }
      ],
      "stateMutability": "view",
      "type": "function"
    },
    {
      "inputs": [],
      "name": "proposalCount",
      "outputs": [
        {
          "internalType": "uint256",
          "name": "",
          "type": "uint256"
        }
      ],
      "stateMutability": "view",
      "type": "function"
    },
    {
      "inputs": [
        {
          "internalType": "uint256",
          "name": "",
          "type": "uint256"
        }
      ],
      "name": "proposals",
      "outputs": [
        {
          "internalType": "uint256",
          "name": "id",
          "type": "uint256"
        },
        {
          "internalType": "address",
          "name": "proposer",
          "type": "address"
        },
        {
          "internalType": "string",
          "name": "title",
          "type": "string"
        },
        {
          "internalType": "string",
          "name": "description",
          "type": "string"
        },
        {
          "internalType": "bytes",
          "name": "callData",
          "type": "bytes"
        },
        {
          "internalType": "uint256",
          "name": "yesVotes",
          "type": "uint256"
        },
        {
          "internalType": "uint256",
          "name": "noVotes",
          "type": "uint256"
        },
        {
          "internalType": "uint256",
          "name": "endTime",
          "type": "uint256"
        },
        {
          "internalType": "uint256",
          "name": "createdAt",
          "type": "uint256"
        },
        {
          "internalType": "uint256",
          "name": "eligibleVoters",
          "type": "uint256"
        },
        {
          "internalType": "bool",
          "name": "executed",
          "type": "bool"
        }
      ],
      "stateMutability": "view",
      "type": "function"
    },
    {
      "inputs": [],
      "name": "protocolFeeRecipient",
      "outputs": [
        {
          "internalType": "address",
          "name": "",
          "type": "address"
        }
      ],
      "stateMutability": "view",
      "type": "function"
    },
    {
      "inputs": [],
      "name": "purchaseAccess",
      "outputs": [],
      "stateMutability": "nonpayable",
      "type": "function"
    },
    {
      "inputs": [
        {
          "internalType": "address",
          "name": "",
          "type": "address"
        }
      ],
      "name": "purchaseBlock",
      "outputs": [
        {
          "internalType": "uint256",
          "name": "",
          "type": "uint256"
        }
      ],
      "stateMutability": "view",
      "type": "function"
    },
    {
      "inputs": [
        {
          "internalType": "address",
          "name": "",
          "type": "address"
        }
      ],
      "name": "purchaseTimestamp",
      "outputs": [
        {
          "internalType": "uint256",
          "name": "",
          "type": "uint256"
        }
      ],
      "stateMutability": "view",
      "type": "function"
    },
    {
      "inputs": [
        {
          "internalType": "bool",
          "name": "_paused",
          "type": "bool"
        }
      ],
      "name": "setPausedDAO",
      "outputs": [],
      "stateMutability": "nonpayable",
      "type": "function"
    },
    {
      "inputs": [],
      "name": "totalBurned",
      "outputs": [
        {
          "internalType": "uint256",
          "name": "",
          "type": "uint256"
        }
      ],
      "stateMutability": "view",
      "type": "function"
    },
    {
      "inputs": [],
      "name": "totalPurchases",
      "outputs": [
        {
          "internalType": "uint256",
          "name": "",
          "type": "uint256"
        }
      ],
      "stateMutability": "view",
      "type": "function"
    },
    {
      "inputs": [],
      "name": "totalToMemberPool",
      "outputs": [
        {
          "internalType": "uint256",
          "name": "",
          "type": "uint256"
        }
      ],
      "stateMutability": "view",
      "type": "function"
    },
    {
      "inputs": [],
      "name": "totalToProtocol",
      "outputs": [
        {
          "internalType": "uint256",
          "name": "",
          "type": "uint256"
        }
      ],
      "stateMutability": "view",
      "type": "function"
    },
    {
      "inputs": [],
      "name": "totalToTreasury",
      "outputs": [
        {
          "internalType": "uint256",
          "name": "",
          "type": "uint256"
        }
      ],
      "stateMutability": "view",
      "type": "function"
    },
    {
      "inputs": [],
      "name": "treasuryBalance",
      "outputs": [
        {
          "internalType": "uint256",
          "name": "",
          "type": "uint256"
        }
      ],
      "stateMutability": "view",
      "type": "function"
    },
    {
      "inputs": [
        {
          "internalType": "address",
          "name": "_token",
          "type": "address"
        },
        {
          "internalType": "uint256",
          "name": "_entryFee",
          "type": "uint256"
        }
      ],
      "name": "updateConfigDAO",
      "outputs": [],
      "stateMutability": "nonpayable",
      "type": "function"
    },
    {
      "inputs": [
        {
          "internalType": "uint256",
          "name": "_proposalId",
          "type": "uint256"
        },
        {
          "internalType": "bool",
          "name": "_support",
          "type": "bool"
        }
      ],
      "name": "vote",
      "outputs": [],
      "stateMutability": "nonpayable",
      "type": "function"
    },
    {
      "inputs": [
        {
          "internalType": "address",
          "name": "recipient",
          "type": "address"
        },
        {
          "internalType": "string",
          "name": "reason",
          "type": "string"
        }
      ],
      "name": "withdrawAllTreasuryDAO",
      "outputs": [],
      "stateMutability": "nonpayable",
      "type": "function"
    },
    {
      "inputs": [
        {
          "internalType": "address",
          "name": "recipient",
          "type": "address"
        },
        {
          "internalType": "uint256",
          "name": "amount",
          "type": "uint256"
        },
        {
          "internalType": "string",
          "name": "reason",
          "type": "string"
        }
      ],
      "name": "withdrawTreasuryDAO",
      "outputs": [],
      "stateMutability": "nonpayable",
      "type": "function"
    }
  ],
  "bytecode": "0x6101006040523480156200001257600080fd5b5060405162002cce38038062002cce83398101604081905262000035916200019f565b6001600160a01b03861615806200005357506001600160a01b038516155b806200006657506001600160a01b038416155b156200008557604051634e46966960e11b815260040160405180910390fd5b82600003620000a7576040516365e52d5160e11b815260040160405180910390fd5b600a831015620000ca57604051635eee050360e11b815260040160405180910390fd5b620000d7600a8462000205565b15620000f657604051636fe6a4c960e01b815260040160405180910390fd5b8160000362000118576040516365e52d5160e11b815260040160405180910390fd5b806000036200013a576040516365e52d5160e11b815260040160405180910390fd5b6001600160a01b0395861660805293851660a052600180546001600160a01b0319169390951692909217845560025560c05260e0526005805460ff1916905560005562000228565b80516001600160a01b03811681146200019a57600080fd5b919050565b60008060008060008060c08789031215620001b957600080fd5b620001c48762000182565b9550620001d46020880162000182565b9450620001e46040880162000182565b9350606087015192506080870151915060a087015190509295509295509295565b6000826200022357634e487b7160e01b600052601260045260246000fd5b500690565b60805160a05160c05160e051612a346200029a600039600081816103c2015281816119a20152611e1a015260008181610727015281816119cb0152611e43015260008181610508015281816106cd0152611889015260008181610671015281816119630152611ded0152612a346000f3fe608060405234801561001057600080fd5b50600436106102d65760003560e01c80637675511811610182578063c1b57edb116100e9578063c9d27afe116100a2578063da35c6641161007c578063da35c664146107f2578063e243c5fb146107fb578063f7158b2a1461080e578063ffafe4ad1461081657600080fd5b8063c9d27afe146107c3578063d3493ced146107d6578063d89135cd146107e957600080fd5b8063c1b57edb14610693578063c233ccf11461069c578063c2939471146106bc578063c34b558014610722578063c3f909d414610749578063c7f758a81461079c57600080fd5b8063a64e024a1161013b578063a64e024a14610626578063a730117e14610630578063a81bbe3c14610643578063aedfe53f1461034d578063bdb75b3414610663578063bebc8fc01461066c57600080fd5b806376755118146105865780638f78bbc4146105a657806390118fb4146105c757806395a078e8146105ea578063997072f71461061657806399e288d81461061e57600080fd5b80635584c4f9116102415780635fa7ddf0116101fa578063653724d6116101d4578063653724d61461052a5780636898b19c1461053d5780636ad18550146105465780636d223ea41461056657600080fd5b80635fa7ddf01461049957806364653f29146104a257806364df049e1461050357600080fd5b80635584c4f91461040a5780635962a9411461041f57806359c266ff146104285780635c975abb146104315780635daf08ca1461044e5780635e391dfe1461047957600080fd5b806332d084bb1161029357806332d084bb146103605780633dd352791461037357806343859632146103935780634c78afc8146103bd578063524ddc23146103e457806354403801146103f757600080fd5b8063013cf08b146102db578063072ea61c1461030e5780630d61b519146103255780631808022a1461033a578063215809ca1461034d578063313dab2014610357575b600080fd5b6102ee6102e93660046121f6565b610839565b6040516103059b9a9998979695949392919061225f565b60405180910390f35b61031760025481565b604051908152602001610305565b6103386103333660046121f6565b610a34565b005b610317610348366004612309565b610c4d565b61031762093a8081565b61031760035481565b61031761036e3660046123ce565b610cb1565b610317610381366004612309565b600a6020526000908152604090205481565b6103a66103a136600461245e565b610f44565b604080519215158352901515602083015201610305565b6103177f000000000000000000000000000000000000000000000000000000000000000081565b6103386103f236600461248a565b610fab565b6103386104053660046124b4565b611096565b6104126111a7565b6040516103059190612547565b61031760125481565b61031760165481565b60055461043e9060ff1681565b6040519015158152602001610305565b61046161045c3660046121f6565b6112cd565b6040516001600160a01b039091168152602001610305565b610317610487366004612309565b60086020526000908152604090205481565b61031760045481565b6104e66104b0366004612309565b6001600160a01b03166000908152600660209081526040808320546007835281842054600890935292205460ff90921692909190565b604080519315158452602084019290925290820152606001610305565b6104617f000000000000000000000000000000000000000000000000000000000000000081565b61033861053836600461256a565b6112f7565b610317600c5481565b610317610554366004612309565b60106020526000908152604090205481565b610317610574366004612309565b600d6020526000908152604090205481565b610317610594366004612309565b60076020526000908152604090205481565b6105b96105b4366004612585565b61135e565b6040516103059291906125a7565b61043e6105d5366004612309565b60066020526000908152604090205460ff1681565b61043e6105f8366004612309565b6001600160a01b031660009081526006602052604090205460ff1690565b600954610317565b61033861156e565b61031762278d0081565b61031761063e366004612309565b611939565b610317610651366004612309565b600b6020526000908152604090205481565b61031760155481565b6104617f000000000000000000000000000000000000000000000000000000000000000081565b61031760145481565b6106af6106aa3660046124b4565b6119f7565b60405161030591906125cb565b6003546004546014546013546016547f000000000000000000000000000000000000000000000000000000000000000060408051968752602087019590955293850192909252606084015260808301526001600160a01b031660a082015260c001610305565b6103177f000000000000000000000000000000000000000000000000000000000000000081565b600154600254600554601254600354600454604080516001600160a01b039097168752602087019590955260ff9093161515938501939093526060840152608083019190915260a082015260c001610305565b6107af6107aa3660046121f6565b611b0f565b6040516103059897969594939291906125de565b6103386107d1366004612647565b611cc1565b6103386107e436600461266a565b611ee6565b61031760135481565b610317600e5481565b600154610461906001600160a01b031681565b610338611fc3565b61043e610824366004612309565b60116020526000908152604090205460ff1681565b600f6020526000908152604090208054600182015460028301805492936001600160a01b039092169261086b906126b8565b80601f0160208091040260200160405190810160405280929190818152602001828054610897906126b8565b80156108e45780601f106108b9576101008083540402835291602001916108e4565b820191906000526020600020905b8154815290600101906020018083116108c757829003601f168201915b5050505050908060030180546108f9906126b8565b80601f0160208091040260200160405190810160405280929190818152602001828054610925906126b8565b80156109725780601f1061094757610100808354040283529160200191610972565b820191906000526020600020905b81548152906001019060200180831161095557829003601f168201915b505050505090806004018054610987906126b8565b80601f01602080910402602001604051908101604052809291908181526020018280546109b3906126b8565b8015610a005780601f106109d557610100808354040283529160200191610a00565b820191906000526020600020905b8154815290600101906020018083116109e357829003601f168201915b50505060058401546006850154600786015460088701546009880154600a9098015496979396929550909350919060ff168b565b600260005403610a57576040516306fda65d60e31b815260040160405180910390fd5b6002600055600e548110610a7e57604051631dc0650160e31b815260040160405180910390fd5b6000818152600f602052604090206007810154421015610ab157604051633fc30bd160e11b815260040160405180910390fd5b600a81015460ff1615610ad757604051630dc1019760e01b815260040160405180910390fd5b8060060154816005015411610aff5760405163c8c93ba360e01b815260040160405180910390fd5b600a8101805460ff191660019081179091558101546001600160a01b031660008181526011602052604090205460ff168015610b5257506001600160a01b03811660009081526010602052604090205483145b15610b83576001600160a01b0381166000908152601160209081526040808320805460ff1916905560109091528120555b600080306001600160a01b031684600401604051610ba191906126f2565b6000604051808303816000865af19150503d8060008114610bde576040519150601f19603f3d011682016040523d82523d6000602084013e610be3565b606091505b509150915081610c06576040516331d436c760e01b815260040160405180910390fd5b847faf8f9d0e884d3306a083e846741a0bc4d75908e2b0ec63b558219652ae4c1b90600183604051610c39929190612768565b60405180910390a250506001600055505050565b6001600160a01b03811660009081526006602052604081205460ff16610c7557506000919050565b600c546001600160a01b0383166000908152600d6020526040902054808211610c9f576000610ca9565b610ca98183612799565b949350505050565b3360009081526006602052604081205460ff16610ce15760405163148fe22160e11b815260040160405180910390fd5b8451600003610d03576040516319d546f160e31b815260040160405180910390fd5b8351600003610d2557604051633e61080d60e01b815260040160405180910390fd5b8251600003610d475760405163066e738d60e01b815260040160405180910390fd5b3360009081526011602052604090205460ff1615610dd85733600090815260106020908152604080832054808452600f909252909120600a81015460ff16158015610d955750806007015442105b15610db35760405163792c310960e11b815260040160405180910390fd5b336000908152601160209081526040808320805460ff19169055601090915281205550505b816000819003610de8575062093a805b62093a80811015610e0c576040516331806aeb60e21b815260040160405180910390fd5b62278d00811115610e305760405163eeeb962360e01b815260040160405180910390fd5b600e805460009182610e41836127b2565b909155506000818152600f602052604090208181556001810180546001600160a01b0319163317905590915060028101610e7b898261281b565b5060038101610e8a888261281b565b5060048101610e99878261281b565b50610ea483426128db565b600782019081554260088301556009805490830155600a8201805460ff199081169091556000600584018190556006840181905533808252601160209081526040808420805490951660011790945560109052908290208590559154905184917f98120a6aaa04295520ab4e01c6c1235dd316e822cc9ff31db7b3f197366d18bd91610f31918d916128ee565b60405180910390a3509695505050505050565b600080600e548410610f6957604051631dc0650160e31b815260040160405180910390fd5b50506000918252600f602090815260408084206001600160a01b03939093168452600b8301825280842054600c9093019091529091205460ff91821692911690565b333014610fcb576040516327568d2f60e11b815260040160405180910390fd5b6001600160a01b03821615610ff657600180546001600160a01b0319166001600160a01b0384161790555b801561104d57600a81101561101e57604051635eee050360e11b815260040160405180910390fd5b611029600a82612926565b1561104757604051636fe6a4c960e01b815260040160405180910390fd5b60028190555b6001546002546040519081526001600160a01b03909116907faf8839d80c9b3bbf95c97465eb8c8348db4098f5c15af186c3b425b1129981179060200160405180910390a25050565b3330146110b6576040516327568d2f60e11b815260040160405180910390fd5b6001600160a01b0383166110dd57604051634e46966960e11b815260040160405180910390fd5b816000036110fe576040516365e52d5160e11b815260040160405180910390fd5b60035482111561112157604051631c7b597b60e11b815260040160405180910390fd5b81600360008282546111339190612799565b9091555050600e546001600160a01b0384169061115290600190612799565b7f1ba011ee074f0e08cc727335f32d75fb7ee71dc0a1e13bb9473e5650b0afd1a3848460405161118392919061293a565b60405180910390a36001546111a2906001600160a01b031684846120e3565b505050565b60606000805b600e54811015611204576000818152600f6020526040902060070154421080156111e957506000818152600f60205260409020600a015460ff16155b156111fc57816111f8816127b2565b9250505b6001016111ad565b5060008167ffffffffffffffff8111156112205761122061232b565b604051908082528060200260200182016040528015611249578160200160208202803683370190505b5090506000805b600e548110156112c4576000818152600f60205260409020600701544210801561128c57506000818152600f60205260409020600a015460ff16155b156112bc5780838361129d816127b2565b9450815181106112af576112af612953565b6020026020010181815250505b600101611250565b50909392505050565b600981815481106112dd57600080fd5b6000918252602090912001546001600160a01b0316905081565b333014611317576040516327568d2f60e11b815260040160405180910390fd5b6005805460ff19168215159081179091556040519081527f752d7e161ff5146f80e3820893176eb40532811e5e20400dfdde57455213706a9060200160405180910390a150565b6060600082158061136f5750606483115b1561138d576040516381f396b760e01b815260040160405180910390fd5b60008367ffffffffffffffff8111156113a8576113a861232b565b6040519080825280602002602001820160405280156113d1578160200160208202803683370190505b509050600080865b600e54811080156113e957508683105b1561146f576000818152600f60205260409020600701544210801561142057506000818152600f60205260409020600a015460ff16155b1561145057808484611431816127b2565b95508151811061144357611443612953565b6020026020010181815250505b61145b8160016128db565b915080611467816127b2565b9150506113d9565b5060009350600e548110156114d457805b600e548110156114d2576000818152600f6020526040902060070154421080156114bc57506000818152600f60205260409020600a015460ff16155b156114ca57600194506114d2565b600101611480565b505b8167ffffffffffffffff8111156114ed576114ed61232b565b604051908082528060200260200182016040528015611516578160200160208202803683370190505b50945060005b828110156115635783818151811061153657611536612953565b602002602001015186828151811061155057611550612953565b602090810291909101015260010161151c565b505050509250929050565b60055460ff161561159257604051630eceade960e31b815260040160405180910390fd5b6002600054036115b5576040516306fda65d60e31b815260040160405180910390fd5b600260009081553381526006602052604090205460ff16156115ea57604051630cd9ed5560e21b815260040160405180910390fd5b60006064600254601e6115fd9190612969565b6116079190612980565b905060006064600254600a61161c9190612969565b6116269190612980565b6002546001546040516370a0823160e01b815233600482015292935090916001600160a01b03909116906370a0823190602401602060405180830381865afa158015611676573d6000803e3d6000fd5b505050506040513d601f19601f8201168201806040525081019061169a9190612994565b10156116b957604051631e9acf1760e31b815260040160405180910390fd5b336000818152600660209081526040808320805460ff19166001908117909155600783528184204290556008835281842043905560098054600a9094529184208390558201815582527f6e1540171b6c0c960b71a7020d9f60077f6af931a8bbf590da0223dacf75c7af0180546001600160a01b0319169092179091556012805491611744836127b2565b90915550506009546001101561178b5760095460009061176690600190612799565b6117709084612980565b905080600c600082825461178491906128db565b9091555050505b600c54336000908152600d6020526040812091909155600380548492906117b39084906128db565b9250508190555081600460008282546117cc91906128db565b9250508190555081601360008282546117e591906128db565b9250508190555081601460008282546117fe91906128db565b92505081905550816015600082825461181791906128db565b92505081905550806016600082825461183091906128db565b90915550506001546001600160a01b031661184f813361dead86612142565b6118646001600160a01b038216333086612142565b6118796001600160a01b038216333086612142565b6118ae6001600160a01b038216337f000000000000000000000000000000000000000000000000000000000000000085612142565b336001600160a01b03167fe6d1c0e418a42a777d49c66571075fc47bc1d92e7f506007ddde08d1ff182bbc60025485868787424360016012546118f19190612799565b604080519889526020890197909752958701949094526060860192909252608085015260a084015260c083015260e08201526101000160405180910390a25050600160005550565b6001600160a01b03811660009081526006602052604081205460ff1661196157506000919050565b7f00000000000000000000000000000000000000000000000000000000000000006001600160a01b0316826001600160a01b03161480156119c357506009547f0000000000000000000000000000000000000000000000000000000000000000115b156119ef57507f0000000000000000000000000000000000000000000000000000000000000000919050565b506001919050565b6060333014611a19576040516327568d2f60e11b815260040160405180910390fd5b6001600160a01b038416611a405760405163416aebb560e11b815260040160405180910390fd5b600080856001600160a01b03168585604051611a5c91906129ad565b60006040518083038185875af1925050503d8060008114611a99576040519150601f19603f3d011682016040523d82523d6000602084013e611a9e565b606091505b509150915081611ac15760405163350c20f160e01b815260040160405180910390fd5b856001600160a01b03167f677e36e736d8a944f645e432cdb65ffeb2f8fee520798a4226ef8c1451a56793868684604051611afe939291906129c9565b60405180910390a295945050505050565b60006060806000806000806000600e548910611b3e57604051631dc0650160e31b815260040160405180910390fd5b6000898152600f602052604090206001810154600582015460068301546007840154600a8501546002860180546001600160a01b03909616959094600388019490939092909160ff90911690838511908790611b99906126b8565b80601f0160208091040260200160405190810160405280929190818152602001828054611bc5906126b8565b8015611c125780601f10611be757610100808354040283529160200191611c12565b820191906000526020600020905b815481529060010190602001808311611bf557829003601f168201915b50505050509650858054611c25906126b8565b80601f0160208091040260200160405190810160405280929190818152602001828054611c51906126b8565b8015611c9e5780601f10611c7357610100808354040283529160200191611c9e565b820191906000526020600020905b815481529060010190602001808311611c8157829003601f168201915b505050505095509850985098509850985098509850985050919395975091939597565b3360009081526006602052604090205460ff16611cf15760405163148fe22160e11b815260040160405180910390fd5b600e548210611d1357604051631dc0650160e31b815260040160405180910390fd5b6000828152600f6020526040902060078101544210611d4557604051637a19ed0560e01b815260040160405180910390fd5b336000908152600b8201602052604090205460ff1615611d7857604051637c9a1cf960e01b815260040160405180910390fd5b60088101543360009081526007602052604090205410611dab5760405163f078ca7360e01b815260040160405180910390fd5b336000818152600b8301602090815260408083208054600160ff199182168117909255600c870190935292208054909116851515179055906001600160a01b037f000000000000000000000000000000000000000000000000000000000000000016148015611e3b57506009547f0000000000000000000000000000000000000000000000000000000000000000115b15611e6357507f00000000000000000000000000000000000000000000000000000000000000005b8215611e885780826005016000828254611e7d91906128db565b90915550611ea29050565b80826006016000828254611e9c91906128db565b90915550505b604080518415158152426020820152339186917fcbdf6214089cba887ecbf35a0b6a734589959c9763342c756bb2a80ca2bc9f6e910160405180910390a350505050565b333014611f06576040516327568d2f60e11b815260040160405180910390fd5b6001600160a01b038216611f2d57604051634e46966960e11b815260040160405180910390fd5b600354600003611f5057604051631ab9ebab60e01b815260040160405180910390fd5b600380546000909155600e546001600160a01b03841690611f7390600190612799565b7f1ba011ee074f0e08cc727335f32d75fb7ee71dc0a1e13bb9473e5650b0afd1a38385604051611fa492919061293a565b60405180910390a36001546111a2906001600160a01b031684836120e3565b600260005403611fe6576040516306fda65d60e31b815260040160405180910390fd5b60026000908155611ff633610c4d565b905080600003612019576040516373380d9960e01b815260040160405180910390fd5b80600454101561203c5760405163bc6072f160e01b815260040160405180910390fd5b600c54336000908152600d6020908152604080832093909355600b9052908120805483929061206c9084906128db565b9250508190555080600460008282546120859190612799565b90915550506001546120a1906001600160a01b031633836120e3565b6040805182815242602082015233917fc4e740509dbfae3377bc9925dd7bcc8aaba69cd730316216d76b2d24725c6366910160405180910390a2506001600055565b6040516001600160a01b038381166024830152604482018390526111a291859182169063a9059cbb906064015b604051602081830303815290604052915060e01b6020820180516001600160e01b038381831617835250505050612181565b6040516001600160a01b03848116602483015283811660448301526064820183905261217b9186918216906323b872dd90608401612110565b50505050565b600080602060008451602086016000885af1806121a4576040513d6000823e3d81fd5b50506000513d915081156121bc5780600114156121c9565b6001600160a01b0384163b155b1561217b57604051635274afe760e01b81526001600160a01b038516600482015260240160405180910390fd5b60006020828403121561220857600080fd5b5035919050565b60005b8381101561222a578181015183820152602001612212565b50506000910152565b6000815180845261224b81602086016020860161220f565b601f01601f19169290920160200192915050565b8b81526001600160a01b038b1660208201526101606040820181905260009061228a8382018d612233565b9050828103606084015261229e818c612233565b905082810360808401526122b2818b612233565b60a0840199909952505060c081019590955260e085019390935261010084019190915261012083015215156101409091015295945050505050565b80356001600160a01b038116811461230457600080fd5b919050565b60006020828403121561231b57600080fd5b612324826122ed565b9392505050565b634e487b7160e01b600052604160045260246000fd5b600082601f83011261235257600080fd5b813567ffffffffffffffff8082111561236d5761236d61232b565b604051601f8301601f19908116603f011681019082821181831017156123955761239561232b565b816040528381528660208588010111156123ae57600080fd5b836020870160208301376000602085830101528094505050505092915050565b600080600080608085870312156123e457600080fd5b843567ffffffffffffffff808211156123fc57600080fd5b61240888838901612341565b9550602087013591508082111561241e57600080fd5b61242a88838901612341565b9450604087013591508082111561244057600080fd5b5061244d87828801612341565b949793965093946060013593505050565b6000806040838503121561247157600080fd5b82359150612481602084016122ed565b90509250929050565b6000806040838503121561249d57600080fd5b6124a6836122ed565b946020939093013593505050565b6000806000606084860312156124c957600080fd5b6124d2846122ed565b925060208401359150604084013567ffffffffffffffff8111156124f557600080fd5b61250186828701612341565b9150509250925092565b60008151808452602080850194506020840160005b8381101561253c57815187529582019590820190600101612520565b509495945050505050565b602081526000612324602083018461250b565b8035801515811461230457600080fd5b60006020828403121561257c57600080fd5b6123248261255a565b6000806040838503121561259857600080fd5b50508035926020909101359150565b6040815260006125ba604083018561250b565b905082151560208301529392505050565b6020815260006123246020830184612233565b6001600160a01b0389168152610100602082018190526000906126038382018b612233565b90508281036040840152612617818a612233565b60608401989098525050608081019490945260a0840192909252151560c0830152151560e0909101529392505050565b6000806040838503121561265a57600080fd5b823591506124816020840161255a565b6000806040838503121561267d57600080fd5b612686836122ed565b9150602083013567ffffffffffffffff8111156126a257600080fd5b6126ae85828601612341565b9150509250929050565b600181811c908216806126cc57607f821691505b6020821081036126ec57634e487b7160e01b600052602260045260246000fd5b50919050565b6000808354612700816126b8565b60018281168015612718576001811461272d5761275c565b60ff198416875282151583028701945061275c565b8760005260208060002060005b858110156127535781548a82015290840190820161273a565b50505082870194505b50929695505050505050565b8215158152604060208201526000610ca96040830184612233565b634e487b7160e01b600052601160045260246000fd5b818103818111156127ac576127ac612783565b92915050565b6000600182016127c4576127c4612783565b5060010190565b601f8211156111a2576000816000526020600020601f850160051c810160208610156127f45750805b601f850160051c820191505b8181101561281357828155600101612800565b505050505050565b815167ffffffffffffffff8111156128355761283561232b565b6128498161284384546126b8565b846127cb565b602080601f83116001811461287e57600084156128665750858301515b600019600386901b1c1916600185901b178555612813565b600085815260208120601f198616915b828110156128ad5788860151825594840194600190910190840161288e565b50858210156128cb5787850151600019600388901b60f8161c191681555b5050505050600190811b01905550565b808201808211156127ac576127ac612783565b6040815260006129016040830185612233565b90508260208301529392505050565b634e487b7160e01b600052601260045260246000fd5b60008261293557612935612910565b500690565b828152604060208201526000610ca96040830184612233565b634e487b7160e01b600052603260045260246000fd5b80820281158282048414176127ac576127ac612783565b60008261298f5761298f612910565b500490565b6000602082840312156129a657600080fd5b5051919050565b600082516129bf81846020870161220f565b9190910192915050565b8381526060602082015260006129e26060830185612233565b82810360408401526129f48185612233565b969550505050505056fea264697066735822122072e3d61b14ffc8f610a7bb23f45dd95d2aa2c5f188116661994797326464821b64736f6c63430008170033",
  "linkReferences": {},
  "deployedLinkReferences": {}
}