{
  "_format": "hh-sol-artifact-1",
  "contractName": "TEMPL",
  "sourceName": "contracts/TEMPL.sol",
  "abi": [
    {
      "inputs": [
        {
          "internalType": "address",
          "name": "_priest",
          "type": "address"
        },
        {
          "internalType": "address",
          "name": "_protocolFeeRecipient",
          "type": "address"
        },
        {
          "internalType": "address",
          "name": "_token",
          "type": "address"
        },
        {
          "internalType": "uint256",
          "name": "_entryFee",
          "type": "uint256"
        },
        {
          "internalType": "uint256",
          "name": "_priestVoteWeight",
          "type": "uint256"
        },
        {
          "internalType": "uint256",
          "name": "_priestWeightThreshold",
          "type": "uint256"
        }
      ],
      "stateMutability": "nonpayable",
      "type": "constructor"
    },
    {
      "inputs": [],
      "name": "ActiveProposalExists",
      "type": "error"
    },
    {
      "inputs": [],
      "name": "AlreadyExecuted",
      "type": "error"
    },
    {
      "inputs": [],
      "name": "AlreadyPurchased",
      "type": "error"
    },
    {
      "inputs": [],
      "name": "AlreadyVoted",
      "type": "error"
    },
    {
      "inputs": [],
      "name": "AmountZero",
      "type": "error"
    },
    {
      "inputs": [],
      "name": "CallDataRequired",
      "type": "error"
    },
    {
      "inputs": [],
      "name": "CallDataTooShort",
      "type": "error"
    },
    {
      "inputs": [],
      "name": "ContractPausedError",
      "type": "error"
    },
    {
      "inputs": [],
      "name": "DescriptionRequired",
      "type": "error"
    },
    {
      "inputs": [],
      "name": "EntryFeeTooSmall",
      "type": "error"
    },
    {
      "inputs": [],
      "name": "InsufficientBalance",
      "type": "error"
    },
    {
      "inputs": [],
      "name": "InsufficientPoolBalance",
      "type": "error"
    },
    {
      "inputs": [],
      "name": "InsufficientTreasuryBalance",
      "type": "error"
    },
    {
      "inputs": [],
      "name": "InvalidCallData",
      "type": "error"
    },
    {
      "inputs": [],
      "name": "InvalidEntryFee",
      "type": "error"
    },
    {
      "inputs": [],
      "name": "InvalidProposal",
      "type": "error"
    },
    {
      "inputs": [],
      "name": "InvalidRecipient",
      "type": "error"
    },
    {
      "inputs": [],
      "name": "InvalidSender",
      "type": "error"
    },
    {
      "inputs": [],
      "name": "JoinedAfterProposal",
      "type": "error"
    },
    {
      "inputs": [],
      "name": "LimitOutOfRange",
      "type": "error"
    },
    {
      "inputs": [],
      "name": "NoRewardsToClaim",
      "type": "error"
    },
    {
      "inputs": [],
      "name": "NoTreasuryFunds",
      "type": "error"
    },
    {
      "inputs": [],
      "name": "NonZeroBalances",
      "type": "error"
    },
    {
      "inputs": [],
      "name": "NotDAO",
      "type": "error"
    },
    {
      "inputs": [],
      "name": "NotMember",
      "type": "error"
    },
    {
      "inputs": [],
      "name": "ProposalExecutionFailed",
      "type": "error"
    },
    {
      "inputs": [],
      "name": "ProposalNotPassed",
      "type": "error"
    },
    {
      "inputs": [],
      "name": "ReentrantCall",
      "type": "error"
    },
    {
      "inputs": [
        {
          "internalType": "address",
          "name": "token",
          "type": "address"
        }
      ],
      "name": "SafeERC20FailedOperation",
      "type": "error"
    },
    {
      "inputs": [],
      "name": "TitleRequired",
      "type": "error"
    },
    {
      "inputs": [],
      "name": "VotingEnded",
      "type": "error"
    },
    {
      "inputs": [],
      "name": "VotingNotEnded",
      "type": "error"
    },
    {
      "inputs": [],
      "name": "VotingPeriodTooLong",
      "type": "error"
    },
    {
      "inputs": [],
      "name": "VotingPeriodTooShort",
      "type": "error"
    },
    {
      "anonymous": false,
      "inputs": [
        {
          "indexed": true,
          "internalType": "address",
          "name": "purchaser",
          "type": "address"
        },
        {
          "indexed": false,
          "internalType": "uint256",
          "name": "totalAmount",
          "type": "uint256"
        },
        {
          "indexed": false,
          "internalType": "uint256",
          "name": "burnedAmount",
          "type": "uint256"
        },
        {
          "indexed": false,
          "internalType": "uint256",
          "name": "treasuryAmount",
          "type": "uint256"
        },
        {
          "indexed": false,
          "internalType": "uint256",
          "name": "memberPoolAmount",
          "type": "uint256"
        },
        {
          "indexed": false,
          "internalType": "uint256",
          "name": "protocolAmount",
          "type": "uint256"
        },
        {
          "indexed": false,
          "internalType": "uint256",
          "name": "timestamp",
          "type": "uint256"
        },
        {
          "indexed": false,
          "internalType": "uint256",
          "name": "blockNumber",
          "type": "uint256"
        },
        {
          "indexed": false,
          "internalType": "uint256",
          "name": "purchaseId",
          "type": "uint256"
        }
      ],
      "name": "AccessPurchased",
      "type": "event"
    },
    {
      "anonymous": false,
      "inputs": [
        {
          "indexed": true,
          "internalType": "address",
          "name": "token",
          "type": "address"
        },
        {
          "indexed": false,
          "internalType": "uint256",
          "name": "entryFee",
          "type": "uint256"
        }
      ],
      "name": "ConfigUpdated",
      "type": "event"
    },
    {
      "anonymous": false,
      "inputs": [
        {
          "indexed": false,
          "internalType": "bool",
          "name": "isPaused",
          "type": "bool"
        }
      ],
      "name": "ContractPaused",
      "type": "event"
    },
    {
      "anonymous": false,
      "inputs": [
        {
          "indexed": true,
          "internalType": "address",
          "name": "member",
          "type": "address"
        },
        {
          "indexed": false,
          "internalType": "uint256",
          "name": "amount",
          "type": "uint256"
        },
        {
          "indexed": false,
          "internalType": "uint256",
          "name": "timestamp",
          "type": "uint256"
        }
      ],
      "name": "MemberPoolClaimed",
      "type": "event"
    },
    {
      "anonymous": false,
      "inputs": [
        {
          "indexed": true,
          "internalType": "uint256",
          "name": "proposalId",
          "type": "uint256"
        },
        {
          "indexed": true,
          "internalType": "address",
          "name": "proposer",
          "type": "address"
        },
        {
          "indexed": false,
          "internalType": "string",
          "name": "title",
          "type": "string"
        },
        {
          "indexed": false,
          "internalType": "uint256",
          "name": "endTime",
          "type": "uint256"
        }
      ],
      "name": "ProposalCreated",
      "type": "event"
    },
    {
      "anonymous": false,
      "inputs": [
        {
          "indexed": true,
          "internalType": "uint256",
          "name": "proposalId",
          "type": "uint256"
        },
        {
          "indexed": false,
          "internalType": "bool",
          "name": "success",
          "type": "bool"
        },
        {
          "indexed": false,
          "internalType": "bytes",
          "name": "returnData",
          "type": "bytes"
        }
      ],
      "name": "ProposalExecuted",
      "type": "event"
    },
    {
      "anonymous": false,
      "inputs": [
        {
          "indexed": true,
          "internalType": "uint256",
          "name": "proposalId",
          "type": "uint256"
        },
        {
          "indexed": true,
          "internalType": "address",
          "name": "recipient",
          "type": "address"
        },
        {
          "indexed": false,
          "internalType": "uint256",
          "name": "amount",
          "type": "uint256"
        },
        {
          "indexed": false,
          "internalType": "string",
          "name": "description",
          "type": "string"
        }
      ],
      "name": "TreasuryAction",
      "type": "event"
    },
    {
      "anonymous": false,
      "inputs": [
        {
          "indexed": true,
          "internalType": "uint256",
          "name": "proposalId",
          "type": "uint256"
        },
        {
          "indexed": true,
          "internalType": "address",
          "name": "voter",
          "type": "address"
        },
        {
          "indexed": false,
          "internalType": "bool",
          "name": "support",
          "type": "bool"
        },
        {
          "indexed": false,
          "internalType": "uint256",
          "name": "timestamp",
          "type": "uint256"
        }
      ],
      "name": "VoteCast",
      "type": "event"
    },
    {
      "inputs": [],
      "name": "DEFAULT_VOTING_PERIOD",
      "outputs": [
        {
          "internalType": "uint256",
          "name": "",
          "type": "uint256"
        }
      ],
      "stateMutability": "view",
      "type": "function"
    },
    {
      "inputs": [],
      "name": "MAX_VOTING_PERIOD",
      "outputs": [
        {
          "internalType": "uint256",
          "name": "",
          "type": "uint256"
        }
      ],
      "stateMutability": "view",
      "type": "function"
    },
    {
      "inputs": [],
      "name": "MIN_VOTING_PERIOD",
      "outputs": [
        {
          "internalType": "uint256",
          "name": "",
          "type": "uint256"
        }
      ],
      "stateMutability": "view",
      "type": "function"
    },
    {
      "inputs": [],
      "name": "accessToken",
      "outputs": [
        {
          "internalType": "address",
          "name": "",
          "type": "address"
        }
      ],
      "stateMutability": "view",
      "type": "function"
    },
    {
      "inputs": [
        {
          "internalType": "address",
          "name": "",
          "type": "address"
        }
      ],
      "name": "activeProposalId",
      "outputs": [
        {
          "internalType": "uint256",
          "name": "",
          "type": "uint256"
        }
      ],
      "stateMutability": "view",
      "type": "function"
    },
    {
      "inputs": [],
      "name": "claimMemberPool",
      "outputs": [],
      "stateMutability": "nonpayable",
      "type": "function"
    },
    {
      "inputs": [
        {
          "internalType": "string",
          "name": "_title",
          "type": "string"
        },
        {
          "internalType": "string",
          "name": "_description",
          "type": "string"
        },
        {
          "internalType": "bytes",
          "name": "_callData",
          "type": "bytes"
        },
        {
          "internalType": "uint256",
          "name": "_votingPeriod",
          "type": "uint256"
        }
      ],
      "name": "createProposal",
      "outputs": [
        {
          "internalType": "uint256",
          "name": "",
          "type": "uint256"
        }
      ],
      "stateMutability": "nonpayable",
      "type": "function"
    },
    {
      "inputs": [],
      "name": "cumulativeMemberRewards",
      "outputs": [
        {
          "internalType": "uint256",
          "name": "",
          "type": "uint256"
        }
      ],
      "stateMutability": "view",
      "type": "function"
    },
    {
      "inputs": [],
      "name": "entryFee",
      "outputs": [
        {
          "internalType": "uint256",
          "name": "",
          "type": "uint256"
        }
      ],
      "stateMutability": "view",
      "type": "function"
    },
    {
      "inputs": [
        {
          "internalType": "uint256",
          "name": "_proposalId",
          "type": "uint256"
        }
      ],
      "name": "executeProposal",
      "outputs": [],
      "stateMutability": "nonpayable",
      "type": "function"
    },
    {
      "inputs": [],
      "name": "getActiveProposals",
      "outputs": [
        {
          "internalType": "uint256[]",
          "name": "",
          "type": "uint256[]"
        }
      ],
      "stateMutability": "view",
      "type": "function"
    },
    {
      "inputs": [
        {
          "internalType": "uint256",
          "name": "offset",
          "type": "uint256"
        },
        {
          "internalType": "uint256",
          "name": "limit",
          "type": "uint256"
        }
      ],
      "name": "getActiveProposalsPaginated",
      "outputs": [
        {
          "internalType": "uint256[]",
          "name": "proposalIds",
          "type": "uint256[]"
        },
        {
          "internalType": "bool",
          "name": "hasMore",
          "type": "bool"
        }
      ],
      "stateMutability": "view",
      "type": "function"
    },
    {
      "inputs": [
        {
          "internalType": "address",
          "name": "member",
          "type": "address"
        }
      ],
      "name": "getClaimablePoolAmount",
      "outputs": [
        {
          "internalType": "uint256",
          "name": "",
          "type": "uint256"
        }
      ],
      "stateMutability": "view",
      "type": "function"
    },
    {
      "inputs": [],
      "name": "getConfig",
      "outputs": [
        {
          "internalType": "address",
          "name": "token",
          "type": "address"
        },
        {
          "internalType": "uint256",
          "name": "fee",
          "type": "uint256"
        },
        {
          "internalType": "bool",
          "name": "isPaused",
          "type": "bool"
        },
        {
          "internalType": "uint256",
          "name": "purchases",
          "type": "uint256"
        },
        {
          "internalType": "uint256",
          "name": "treasury",
          "type": "uint256"
        },
        {
          "internalType": "uint256",
          "name": "pool",
          "type": "uint256"
        }
      ],
      "stateMutability": "view",
      "type": "function"
    },
    {
      "inputs": [],
      "name": "getMemberCount",
      "outputs": [
        {
          "internalType": "uint256",
          "name": "",
          "type": "uint256"
        }
      ],
      "stateMutability": "view",
      "type": "function"
    },
    {
      "inputs": [
        {
          "internalType": "uint256",
          "name": "_proposalId",
          "type": "uint256"
        }
      ],
      "name": "getProposal",
      "outputs": [
        {
          "internalType": "address",
          "name": "proposer",
          "type": "address"
        },
        {
          "internalType": "string",
          "name": "title",
          "type": "string"
        },
        {
          "internalType": "string",
          "name": "description",
          "type": "string"
        },
        {
          "internalType": "uint256",
          "name": "yesVotes",
          "type": "uint256"
        },
        {
          "internalType": "uint256",
          "name": "noVotes",
          "type": "uint256"
        },
        {
          "internalType": "uint256",
          "name": "endTime",
          "type": "uint256"
        },
        {
          "internalType": "bool",
          "name": "executed",
          "type": "bool"
        },
        {
          "internalType": "bool",
          "name": "passed",
          "type": "bool"
        }
      ],
      "stateMutability": "view",
      "type": "function"
    },
    {
      "inputs": [
        {
          "internalType": "address",
          "name": "user",
          "type": "address"
        }
      ],
      "name": "getPurchaseDetails",
      "outputs": [
        {
          "internalType": "bool",
          "name": "purchased",
          "type": "bool"
        },
        {
          "internalType": "uint256",
          "name": "timestamp",
          "type": "uint256"
        },
        {
          "internalType": "uint256",
          "name": "blockNum",
          "type": "uint256"
        }
      ],
      "stateMutability": "view",
      "type": "function"
    },
    {
      "inputs": [],
      "name": "getTreasuryInfo",
      "outputs": [
        {
          "internalType": "uint256",
          "name": "treasury",
          "type": "uint256"
        },
        {
          "internalType": "uint256",
          "name": "memberPool",
          "type": "uint256"
        },
        {
          "internalType": "uint256",
          "name": "totalReceived",
          "type": "uint256"
        },
        {
          "internalType": "uint256",
          "name": "totalBurnedAmount",
          "type": "uint256"
        },
        {
          "internalType": "uint256",
          "name": "totalProtocolFees",
          "type": "uint256"
        },
        {
          "internalType": "address",
          "name": "protocolAddress",
          "type": "address"
        }
      ],
      "stateMutability": "view",
      "type": "function"
    },
    {
      "inputs": [
        {
          "internalType": "address",
          "name": "voter",
          "type": "address"
        }
      ],
      "name": "getVoteWeight",
      "outputs": [
        {
          "internalType": "uint256",
          "name": "",
          "type": "uint256"
        }
      ],
      "stateMutability": "view",
      "type": "function"
    },
    {
      "inputs": [
        {
          "internalType": "address",
          "name": "user",
          "type": "address"
        }
      ],
      "name": "hasAccess",
      "outputs": [
        {
          "internalType": "bool",
          "name": "",
          "type": "bool"
        }
      ],
      "stateMutability": "view",
      "type": "function"
    },
    {
      "inputs": [
        {
          "internalType": "address",
          "name": "",
          "type": "address"
        }
      ],
      "name": "hasActiveProposal",
      "outputs": [
        {
          "internalType": "bool",
          "name": "",
          "type": "bool"
        }
      ],
      "stateMutability": "view",
      "type": "function"
    },
    {
      "inputs": [
        {
          "internalType": "address",
          "name": "",
          "type": "address"
        }
      ],
      "name": "hasPurchased",
      "outputs": [
        {
          "internalType": "bool",
          "name": "",
          "type": "bool"
        }
      ],
      "stateMutability": "view",
      "type": "function"
    },
    {
      "inputs": [
        {
          "internalType": "uint256",
          "name": "_proposalId",
          "type": "uint256"
        },
        {
          "internalType": "address",
          "name": "_voter",
          "type": "address"
        }
      ],
      "name": "hasVoted",
      "outputs": [
        {
          "internalType": "bool",
          "name": "voted",
          "type": "bool"
        },
        {
          "internalType": "bool",
          "name": "support",
          "type": "bool"
        }
      ],
      "stateMutability": "view",
      "type": "function"
    },
    {
      "inputs": [
        {
          "internalType": "address",
          "name": "",
          "type": "address"
        }
      ],
      "name": "memberIndex",
      "outputs": [
        {
          "internalType": "uint256",
          "name": "",
          "type": "uint256"
        }
      ],
      "stateMutability": "view",
      "type": "function"
    },
    {
      "inputs": [],
      "name": "memberPoolBalance",
      "outputs": [
        {
          "internalType": "uint256",
          "name": "",
          "type": "uint256"
        }
      ],
      "stateMutability": "view",
      "type": "function"
    },
    {
      "inputs": [
        {
          "internalType": "address",
          "name": "",
          "type": "address"
        }
      ],
      "name": "memberPoolClaims",
      "outputs": [
        {
          "internalType": "uint256",
          "name": "",
          "type": "uint256"
        }
      ],
      "stateMutability": "view",
      "type": "function"
    },
    {
      "inputs": [],
      "name": "memberRewardRemainder",
      "outputs": [
        {
          "internalType": "uint256",
          "name": "",
          "type": "uint256"
        }
      ],
      "stateMutability": "view",
      "type": "function"
    },
    {
      "inputs": [
        {
          "internalType": "address",
          "name": "",
          "type": "address"
        }
      ],
      "name": "memberRewardSnapshot",
      "outputs": [
        {
          "internalType": "uint256",
          "name": "",
          "type": "uint256"
        }
      ],
      "stateMutability": "view",
      "type": "function"
    },
    {
      "inputs": [
        {
          "internalType": "uint256",
          "name": "",
          "type": "uint256"
        }
      ],
      "name": "members",
      "outputs": [
        {
          "internalType": "address",
          "name": "",
          "type": "address"
        }
      ],
      "stateMutability": "view",
      "type": "function"
    },
    {
      "inputs": [],
      "name": "paused",
      "outputs": [
        {
          "internalType": "bool",
          "name": "",
          "type": "bool"
        }
      ],
      "stateMutability": "view",
      "type": "function"
    },
    {
      "inputs": [],
      "name": "priest",
      "outputs": [
        {
          "internalType": "address",
          "name": "",
          "type": "address"
        }
      ],
      "stateMutability": "view",
      "type": "function"
    },
    {
      "inputs": [],
      "name": "priestVoteWeight",
      "outputs": [
        {
          "internalType": "uint256",
          "name": "",
          "type": "uint256"
        }
      ],
      "stateMutability": "view",
      "type": "function"
    },
    {
      "inputs": [],
      "name": "priestWeightThreshold",
      "outputs": [
        {
          "internalType": "uint256",
          "name": "",
          "type": "uint256"
        }
      ],
      "stateMutability": "view",
      "type": "function"
    },
    {
      "inputs": [],
      "name": "proposalCount",
      "outputs": [
        {
          "internalType": "uint256",
          "name": "",
          "type": "uint256"
        }
      ],
      "stateMutability": "view",
      "type": "function"
    },
    {
      "inputs": [
        {
          "internalType": "uint256",
          "name": "",
          "type": "uint256"
        }
      ],
      "name": "proposals",
      "outputs": [
        {
          "internalType": "uint256",
          "name": "id",
          "type": "uint256"
        },
        {
          "internalType": "address",
          "name": "proposer",
          "type": "address"
        },
        {
          "internalType": "string",
          "name": "title",
          "type": "string"
        },
        {
          "internalType": "string",
          "name": "description",
          "type": "string"
        },
        {
          "internalType": "bytes",
          "name": "callData",
          "type": "bytes"
        },
        {
          "internalType": "uint256",
          "name": "yesVotes",
          "type": "uint256"
        },
        {
          "internalType": "uint256",
          "name": "noVotes",
          "type": "uint256"
        },
        {
          "internalType": "uint256",
          "name": "endTime",
          "type": "uint256"
        },
        {
          "internalType": "uint256",
          "name": "createdAt",
          "type": "uint256"
        },
        {
          "internalType": "uint256",
          "name": "eligibleVoters",
          "type": "uint256"
        },
        {
          "internalType": "bool",
          "name": "executed",
          "type": "bool"
        }
      ],
      "stateMutability": "view",
      "type": "function"
    },
    {
      "inputs": [],
      "name": "protocolFeeRecipient",
      "outputs": [
        {
          "internalType": "address",
          "name": "",
          "type": "address"
        }
      ],
      "stateMutability": "view",
      "type": "function"
    },
    {
      "inputs": [],
      "name": "purchaseAccess",
      "outputs": [],
      "stateMutability": "nonpayable",
      "type": "function"
    },
    {
      "inputs": [
        {
          "internalType": "address",
          "name": "",
          "type": "address"
        }
      ],
      "name": "purchaseBlock",
      "outputs": [
        {
          "internalType": "uint256",
          "name": "",
          "type": "uint256"
        }
      ],
      "stateMutability": "view",
      "type": "function"
    },
    {
      "inputs": [
        {
          "internalType": "address",
          "name": "",
          "type": "address"
        }
      ],
      "name": "purchaseTimestamp",
      "outputs": [
        {
          "internalType": "uint256",
          "name": "",
          "type": "uint256"
        }
      ],
      "stateMutability": "view",
      "type": "function"
    },
    {
      "inputs": [
        {
          "internalType": "bool",
          "name": "_paused",
          "type": "bool"
        }
      ],
      "name": "setPausedDAO",
      "outputs": [],
      "stateMutability": "nonpayable",
      "type": "function"
    },
    {
      "inputs": [
        {
          "internalType": "address",
          "name": "recipient",
          "type": "address"
        }
      ],
      "name": "sweepMemberRewardRemainderDAO",
      "outputs": [],
      "stateMutability": "nonpayable",
      "type": "function"
    },
    {
      "inputs": [],
      "name": "totalBurned",
      "outputs": [
        {
          "internalType": "uint256",
          "name": "",
          "type": "uint256"
        }
      ],
      "stateMutability": "view",
      "type": "function"
    },
    {
      "inputs": [],
      "name": "totalPurchases",
      "outputs": [
        {
          "internalType": "uint256",
          "name": "",
          "type": "uint256"
        }
      ],
      "stateMutability": "view",
      "type": "function"
    },
    {
      "inputs": [],
      "name": "totalToMemberPool",
      "outputs": [
        {
          "internalType": "uint256",
          "name": "",
          "type": "uint256"
        }
      ],
      "stateMutability": "view",
      "type": "function"
    },
    {
      "inputs": [],
      "name": "totalToProtocol",
      "outputs": [
        {
          "internalType": "uint256",
          "name": "",
          "type": "uint256"
        }
      ],
      "stateMutability": "view",
      "type": "function"
    },
    {
      "inputs": [],
      "name": "totalToTreasury",
      "outputs": [
        {
          "internalType": "uint256",
          "name": "",
          "type": "uint256"
        }
      ],
      "stateMutability": "view",
      "type": "function"
    },
    {
      "inputs": [],
      "name": "treasuryBalance",
      "outputs": [
        {
          "internalType": "uint256",
          "name": "",
          "type": "uint256"
        }
      ],
      "stateMutability": "view",
      "type": "function"
    },
    {
      "inputs": [
        {
          "internalType": "address",
          "name": "_token",
          "type": "address"
        },
        {
          "internalType": "uint256",
          "name": "_entryFee",
          "type": "uint256"
        }
      ],
      "name": "updateConfigDAO",
      "outputs": [],
      "stateMutability": "nonpayable",
      "type": "function"
    },
    {
      "inputs": [
        {
          "internalType": "uint256",
          "name": "_proposalId",
          "type": "uint256"
        },
        {
          "internalType": "bool",
          "name": "_support",
          "type": "bool"
        }
      ],
      "name": "vote",
      "outputs": [],
      "stateMutability": "nonpayable",
      "type": "function"
    },
    {
      "inputs": [
        {
          "internalType": "address",
          "name": "recipient",
          "type": "address"
        },
        {
          "internalType": "string",
          "name": "reason",
          "type": "string"
        }
      ],
      "name": "withdrawAllTreasuryDAO",
      "outputs": [],
      "stateMutability": "nonpayable",
      "type": "function"
    },
    {
      "inputs": [
        {
          "internalType": "address",
          "name": "recipient",
          "type": "address"
        },
        {
          "internalType": "uint256",
          "name": "amount",
          "type": "uint256"
        },
        {
          "internalType": "string",
          "name": "reason",
          "type": "string"
        }
      ],
      "name": "withdrawETHDAO",
      "outputs": [],
      "stateMutability": "nonpayable",
      "type": "function"
    },
    {
      "inputs": [
        {
          "internalType": "address",
          "name": "token",
          "type": "address"
        },
        {
          "internalType": "address",
          "name": "recipient",
          "type": "address"
        },
        {
          "internalType": "uint256",
          "name": "amount",
          "type": "uint256"
        },
        {
          "internalType": "string",
          "name": "reason",
          "type": "string"
        }
      ],
      "name": "withdrawTokenDAO",
      "outputs": [],
      "stateMutability": "nonpayable",
      "type": "function"
    },
    {
      "inputs": [
        {
          "internalType": "address",
          "name": "recipient",
          "type": "address"
        },
        {
          "internalType": "uint256",
          "name": "amount",
          "type": "uint256"
        },
        {
          "internalType": "string",
          "name": "reason",
          "type": "string"
        }
      ],
      "name": "withdrawTreasuryDAO",
      "outputs": [],
      "stateMutability": "nonpayable",
      "type": "function"
    },
    {
      "stateMutability": "payable",
      "type": "receive"
    }
  ],
  "bytecode": "0x6101006040526000196013553480156200001857600080fd5b50604051620035d9380380620035d98339810160408190526200003b91620001a5565b6001600160a01b03861615806200005957506001600160a01b038516155b806200006c57506001600160a01b038416155b156200008b57604051634e46966960e11b815260040160405180910390fd5b82600003620000ad576040516365e52d5160e11b815260040160405180910390fd5b600a831015620000d057604051635eee050360e11b815260040160405180910390fd5b620000dd600a846200020b565b15620000fc57604051636fe6a4c960e01b815260040160405180910390fd5b816000036200011e576040516365e52d5160e11b815260040160405180910390fd5b8060000362000140576040516365e52d5160e11b815260040160405180910390fd5b6001600160a01b0395861660805293851660a052600180546001600160a01b0319169390951692909217845560025560c05260e0526005805460ff191690556000556200022e565b80516001600160a01b0381168114620001a057600080fd5b919050565b60008060008060008060c08789031215620001bf57600080fd5b620001ca8762000188565b9550620001da6020880162000188565b9450620001ea6040880162000188565b9350606087015192506080870151915060a087015190509295509295509295565b6000826200022957634e487b7160e01b600052601260045260246000fd5b500690565b60805160a05160c05160e051613339620002a0600039600081816104930152818161209201526125770152600081816109c7015281816120bb01526125a0015260008181610688015281816109600152611ee801526000818161090a01528181612053015261254a01526133396000f3fe60806040526004361061031e5760003560e01c806376755118116101ab578063bdb75b34116100f7578063c9d27afe11610095578063da35c6641161006f578063da35c66414610ad3578063e243c5fb14610ae9578063f7158b2a14610b09578063ffafe4ad14610b1e57600080fd5b8063c9d27afe14610a7d578063d3493ced14610a9d578063d89135cd14610abd57600080fd5b8063c2939471116100d1578063c293947114610942578063c34b5580146109b5578063c3f909d4146109e9578063c7f758a814610a4957600080fd5b8063bdb75b34146108e2578063bebc8fc0146108f8578063c1b57edb1461092c57600080fd5b80639b14c83c11610164578063a730117e1161013e578063a730117e14610875578063a81bbe3c14610895578063aedfe53f146103d0578063bc2a2684146108c257600080fd5b80639b14c83c14610828578063a51a46b914610848578063a64e024a1461085e57600080fd5b8063767551181461073a5780638f78bbc41461076757806390118fb41461079557806395a078e8146107c5578063997072f7146107fe57806399e288d81461081357600080fd5b80635584c4f91161026a5780635fa7ddf011610223578063653724d6116101fd578063653724d6146106aa5780636898b19c146106ca5780636ad18550146106e05780636d223ea41461070d57600080fd5b80635fa7ddf0146105f257806364653f291461060857806364df049e1461067657600080fd5b80635584c4f9146105155780635962a9411461053757806359c266ff1461054d5780635c975abb146105635780635daf08ca1461058d5780635e391dfe146105c557600080fd5b806332d084bb116102d75780634c78afc8116102b15780634c78afc8146104815780634c8260aa146104b5578063524ddc23146104d557806354403801146104f557600080fd5b806332d084bb146103fd5780633dd352791461041d578063438596321461044a57600080fd5b8063013cf08b1461032a578063072ea61c1461036a5780630d61b5191461038e5780631808022a146103b0578063215809ca146103d0578063313dab20146103e757600080fd5b3661032557005b600080fd5b34801561033657600080fd5b5061034a610345366004612b14565b610b4e565b6040516103619b9a99989796959493929190612b7d565b60405180910390f35b34801561037657600080fd5b5061038060025481565b604051908152602001610361565b34801561039a57600080fd5b506103ae6103a9366004612b14565b610d49565b005b3480156103bc57600080fd5b506103806103cb366004612c27565b610f8b565b3480156103dc57600080fd5b5061038062093a8081565b3480156103f357600080fd5b5061038060035481565b34801561040957600080fd5b50610380610418366004612cf5565b610fef565b34801561042957600080fd5b50610380610438366004612c27565b600a6020526000908152604090205481565b34801561045657600080fd5b5061046a610465366004612d99565b611384565b604080519215158352901515602083015201610361565b34801561048d57600080fd5b506103807f000000000000000000000000000000000000000000000000000000000000000081565b3480156104c157600080fd5b506103ae6104d0366004612dc5565b6113ed565b3480156104e157600080fd5b506103ae6104f0366004612e1c565b611548565b34801561050157600080fd5b506103ae610510366004612dc5565b611679565b34801561052157600080fd5b5061052a611791565b6040516103619190612e82565b34801561054357600080fd5b5061038060145481565b34801561055957600080fd5b5061038060185481565b34801561056f57600080fd5b5060055461057d9060ff1681565b6040519015158152602001610361565b34801561059957600080fd5b506105ad6105a8366004612b14565b6118b7565b6040516001600160a01b039091168152602001610361565b3480156105d157600080fd5b506103806105e0366004612c27565b60086020526000908152604090205481565b3480156105fe57600080fd5b5061038060045481565b34801561061457600080fd5b50610659610623366004612c27565b6001600160a01b03166000908152600660209081526040808320546007835281842054600890935292205460ff90921692909190565b604080519315158452602084019290925290820152606001610361565b34801561068257600080fd5b506105ad7f000000000000000000000000000000000000000000000000000000000000000081565b3480156106b657600080fd5b506103ae6106c5366004612ea5565b6118e1565b3480156106d657600080fd5b50610380600c5481565b3480156106ec57600080fd5b506103806106fb366004612c27565b60116020526000908152604090205481565b34801561071957600080fd5b50610380610728366004612c27565b600e6020526000908152604090205481565b34801561074657600080fd5b50610380610755366004612c27565b60076020526000908152604090205481565b34801561077357600080fd5b50610787610782366004612ec0565b611948565b604051610361929190612ee2565b3480156107a157600080fd5b5061057d6107b0366004612c27565b60066020526000908152604090205460ff1681565b3480156107d157600080fd5b5061057d6107e0366004612c27565b6001600160a01b031660009081526006602052604090205460ff1690565b34801561080a57600080fd5b50600954610380565b34801561081f57600080fd5b506103ae611b79565b34801561083457600080fd5b506103ae610843366004612c27565b611f98565b34801561085457600080fd5b50610380600d5481565b34801561086a57600080fd5b5061038062278d0081565b34801561088157600080fd5b50610380610890366004612c27565b612029565b3480156108a157600080fd5b506103806108b0366004612c27565b600b6020526000908152604090205481565b3480156108ce57600080fd5b506103ae6108dd366004612f06565b6120e7565b3480156108ee57600080fd5b5061038060175481565b34801561090457600080fd5b506105ad7f000000000000000000000000000000000000000000000000000000000000000081565b34801561093857600080fd5b5061038060165481565b34801561094e57600080fd5b506003546004546016546015546018547f000000000000000000000000000000000000000000000000000000000000000060408051968752602087019590955293850192909252606084015260808301526001600160a01b031660a082015260c001610361565b3480156109c157600080fd5b506103807f000000000000000000000000000000000000000000000000000000000000000081565b3480156109f557600080fd5b50600154600254600554601454600354600454604080516001600160a01b039097168752602087019590955260ff9093161515938501939093526060840152608083019190915260a082015260c001610361565b348015610a5557600080fd5b50610a69610a64366004612b14565b612257565b604051610361989796959493929190612f6e565b348015610a8957600080fd5b506103ae610a98366004612fd7565b61241e565b348015610aa957600080fd5b506103ae610ab8366004612ffa565b612643565b348015610ac957600080fd5b5061038060155481565b348015610adf57600080fd5b50610380600f5481565b348015610af557600080fd5b506001546105ad906001600160a01b031681565b348015610b1557600080fd5b506103ae612727565b348015610b2a57600080fd5b5061057d610b39366004612c27565b60126020526000908152604090205460ff1681565b60106020526000908152604090208054600182015460028301805492936001600160a01b0390921692610b8090613048565b80601f0160208091040260200160405190810160405280929190818152602001828054610bac90613048565b8015610bf95780601f10610bce57610100808354040283529160200191610bf9565b820191906000526020600020905b815481529060010190602001808311610bdc57829003601f168201915b505050505090806003018054610c0e90613048565b80601f0160208091040260200160405190810160405280929190818152602001828054610c3a90613048565b8015610c875780601f10610c5c57610100808354040283529160200191610c87565b820191906000526020600020905b815481529060010190602001808311610c6a57829003601f168201915b505050505090806004018054610c9c90613048565b80601f0160208091040260200160405190810160405280929190818152602001828054610cc890613048565b8015610d155780601f10610cea57610100808354040283529160200191610d15565b820191906000526020600020905b815481529060010190602001808311610cf857829003601f168201915b50505060058401546006850154600786015460088701546009880154600a9098015496979396929550909350919060ff168b565b600260005403610d6c576040516306fda65d60e31b815260040160405180910390fd5b6002600055600f548110610d9357604051631dc0650160e31b815260040160405180910390fd5b60008181526010602052604090206007810154421015610dc657604051633fc30bd160e11b815260040160405180910390fd5b600a81015460ff1615610dec57604051630dc1019760e01b815260040160405180910390fd5b8060060154816005015411610e145760405163c8c93ba360e01b815260040160405180910390fd5b600a8101805460ff191660019081179091558101546001600160a01b031660008181526012602052604090205460ff168015610e6757506001600160a01b03811660009081526011602052604090205483145b15610e98576001600160a01b0381166000908152601260209081526040808320805460ff1916905560119091528120555b610ea183601355565b6000610f38836004018054610eb590613048565b80601f0160208091040260200160405190810160405280929190818152602001828054610ee190613048565b8015610f2e5780601f10610f0357610100808354040283529160200191610f2e565b820191906000526020600020905b815481529060010190602001808311610f1157829003601f168201915b505050505061288a565b9050610f45600019601355565b837faf8f9d0e884d3306a083e846741a0bc4d75908e2b0ec63b558219652ae4c1b90600183604051610f78929190613082565b60405180910390a2505060016000555050565b6001600160a01b03811660009081526006602052604081205460ff16610fb357506000919050565b600c546001600160a01b0383166000908152600e6020526040902054808211610fdd576000610fe7565b610fe781836130b3565b949350505050565b3360009081526006602052604081205460ff1661101f5760405163148fe22160e11b815260040160405180910390fd5b8451600003611041576040516319d546f160e31b815260040160405180910390fd5b835160000361106357604051633e61080d60e01b815260040160405180910390fd5b82516000036110855760405163066e738d60e01b815260040160405180910390fd5b6004835110156110a857604051632d2b93ff60e01b815260040160405180910390fd5b602083015160006001600160e01b0319821663329b926b60e11b14806110de57506001600160e01b0319821663524ddc2360e01b145b806110f957506001600160e01b03198216635440380160e01b145b8061111457506001600160e01b0319821663d3493ced60e01b145b8061112f57506001600160e01b03198216632f0a89a160e21b145b8061114a57506001600160e01b03198216632641305560e11b145b8061116557506001600160e01b031982166326c5320f60e21b145b90508061118557604051631c49f4d160e01b815260040160405180910390fd5b3360009081526012602052604090205460ff161561121657336000908152601160209081526040808320548084526010909252909120600a81015460ff161580156111d35750806007015442105b156111f15760405163792c310960e11b815260040160405180910390fd5b336000908152601260209081526040808320805460ff19169055601190915281205550505b836000819003611226575062093a805b62093a8081101561124a576040516331806aeb60e21b815260040160405180910390fd5b62278d0081111561126e5760405163eeeb962360e01b815260040160405180910390fd5b600f80546000918261127f836130cc565b9091555060008181526010602052604090208181556001810180546001600160a01b03191633179055909150600281016112b98b82613135565b50600381016112c88a82613135565b50600481016112d78982613135565b506112e283426131f5565b600782019081554260088301556009805490830155600a8201805460ff199081169091556000600584018190556006840181905533808252601260209081526040808420805490951660011790945560119052908290208590559154905184917f98120a6aaa04295520ab4e01c6c1235dd316e822cc9ff31db7b3f197366d18bd9161136f918f91613208565b60405180910390a35098975050505050505050565b600080600f5484106113a957604051631dc0650160e31b815260040160405180910390fd5b505060008281526010602090815260408083206001600160a01b0385168452600b8101835281842054600c9091019092529091205460ff91821691165b9250929050565b33301461140d576040516327568d2f60e11b815260040160405180910390fd5b6001600160a01b03831661143457604051634e46966960e11b815260040160405180910390fd5b81600003611455576040516365e52d5160e11b815260040160405180910390fd5b8147101561147657604051631e9acf1760e31b815260040160405180910390fd5b601354600f54811061149b57604051631dc0650160e31b815260040160405180910390fd5b836001600160a01b0316816000805160206132e483398151915285856040516114c592919061322a565b60405180910390a36000846001600160a01b03168460405160006040518083038185875af1925050503d806000811461151a576040519150601f19603f3d011682016040523d82523d6000602084013e61151f565b606091505b5050905080611541576040516331d436c760e01b815260040160405180910390fd5b5050505050565b333014611568576040516327568d2f60e11b815260040160405180910390fd5b6001600160a01b038216156115d9576001546001600160a01b038381169116146115d9576000600354118061159f57506000600454115b156115bd5760405163d38466ab60e01b815260040160405180910390fd5b600180546001600160a01b0319166001600160a01b0384161790555b801561163057600a81101561160157604051635eee050360e11b815260040160405180910390fd5b61160c600a82613259565b1561162a57604051636fe6a4c960e01b815260040160405180910390fd5b60028190555b6001546002546040519081526001600160a01b03909116907faf8839d80c9b3bbf95c97465eb8c8348db4098f5c15af186c3b425b1129981179060200160405180910390a25050565b333014611699576040516327568d2f60e11b815260040160405180910390fd5b6001600160a01b0383166116c057604051634e46966960e11b815260040160405180910390fd5b816000036116e1576040516365e52d5160e11b815260040160405180910390fd5b60035482111561170457604051631c7b597b60e11b815260040160405180910390fd5b601354600f54811061172957604051631dc0650160e31b815260040160405180910390fd5b826003600082825461173b91906130b3565b92505081905550836001600160a01b0316816000805160206132e4833981519152858560405161176c92919061322a565b60405180910390a360015461178b906001600160a01b03168585612a02565b50505050565b60606000805b600f548110156117ee57600081815260106020526040902060070154421080156117d357506000818152601060205260409020600a015460ff16155b156117e657816117e2816130cc565b9250505b600101611797565b5060008167ffffffffffffffff81111561180a5761180a612c49565b604051908082528060200260200182016040528015611833578160200160208202803683370190505b5090506000805b600f548110156118ae576000818152601060205260409020600701544210801561187657506000818152601060205260409020600a015460ff16155b156118a657808383611887816130cc565b9450815181106118995761189961326d565b6020026020010181815250505b60010161183a565b50909392505050565b600981815481106118c757600080fd5b6000918252602090912001546001600160a01b0316905081565b333014611901576040516327568d2f60e11b815260040160405180910390fd5b6005805460ff19168215159081179091556040519081527f752d7e161ff5146f80e3820893176eb40532811e5e20400dfdde57455213706a9060200160405180910390a150565b606060008215806119595750606483115b15611977576040516381f396b760e01b815260040160405180910390fd5b600f54841061199857505060408051600080825260208201909252906113e6565b60008367ffffffffffffffff8111156119b3576119b3612c49565b6040519080825280602002602001820160405280156119dc578160200160208202803683370190505b509050600085805b600f54811080156119f457508683105b15611a7a5760008181526010602052604090206007015442108015611a2b57506000818152601060205260409020600a015460ff16155b15611a5b57808484611a3c816130cc565b955081518110611a4e57611a4e61326d565b6020026020010181815250505b611a668160016131f5565b915080611a72816130cc565b9150506119e4565b5060009350600f54811015611adf57805b600f54811015611add5760008181526010602052604090206007015442108015611ac757506000818152601060205260409020600a015460ff16155b15611ad55760019450611add565b600101611a8b565b505b8167ffffffffffffffff811115611af857611af8612c49565b604051908082528060200260200182016040528015611b21578160200160208202803683370190505b50945060005b82811015611b6e57838181518110611b4157611b4161326d565b6020026020010151868281518110611b5b57611b5b61326d565b6020908102919091010152600101611b27565b505050509250929050565b60055460ff1615611b9d57604051630eceade960e31b815260040160405180910390fd5b303303611bbd57604051636edaef2f60e11b815260040160405180910390fd5b600260005403611be0576040516306fda65d60e31b815260040160405180910390fd5b600260009081553381526006602052604090205460ff1615611c1557604051630cd9ed5560e21b815260040160405180910390fd5b60006064600254601e611c289190613283565b611c32919061329a565b905060006064600254600a611c479190613283565b611c51919061329a565b6002546001546040516370a0823160e01b815233600482015292935090916001600160a01b03909116906370a0823190602401602060405180830381865afa158015611ca1573d6000803e3d6000fd5b505050506040513d601f19601f82011682018060405250810190611cc591906132ae565b1015611ce457604051631e9acf1760e31b815260040160405180910390fd5b336000818152600660209081526040808320805460ff19166001908117909155600783528184204290556008835281842043905560098054600a9094529184208390558201815582527f6e1540171b6c0c960b71a7020d9f60077f6af931a8bbf590da0223dacf75c7af0180546001600160a01b0319169092179091556014805491611d6f836130cc565b909155505060095460011015611dea576000600d5483611d8f91906131f5565b600954909150600090611da4906001906130b3565b611dae908361329a565b600954909150611dc0906001906130b3565b611dca9083613259565b600d8190555080600c6000828254611de291906131f5565b909155505050505b600c54336000908152600e602052604081209190915560038054849290611e129084906131f5565b925050819055508160046000828254611e2b91906131f5565b925050819055508160156000828254611e4491906131f5565b925050819055508160166000828254611e5d91906131f5565b925050819055508160176000828254611e7691906131f5565b925050819055508060186000828254611e8f91906131f5565b90915550506001546001600160a01b0316611eae813361dead86612a66565b611ec36001600160a01b038216333086612a66565b611ed86001600160a01b038216333086612a66565b611f0d6001600160a01b038216337f000000000000000000000000000000000000000000000000000000000000000085612a66565b336001600160a01b03167fe6d1c0e418a42a777d49c66571075fc47bc1d92e7f506007ddde08d1ff182bbc6002548586878742436001601454611f5091906130b3565b604080519889526020890197909752958701949094526060860192909252608085015260a084015260c083015260e08201526101000160405180910390a25050600160005550565b333014611fb8576040516327568d2f60e11b815260040160405180910390fd5b6001600160a01b038116611fdf57604051634e46966960e11b815260040160405180910390fd5b6004546000819003612004576040516365e52d5160e11b815260040160405180910390fd5b60006004819055600d55600154612025906001600160a01b03168383612a02565b5050565b6001600160a01b03811660009081526006602052604081205460ff1661205157506000919050565b7f00000000000000000000000000000000000000000000000000000000000000006001600160a01b0316826001600160a01b03161480156120b357506009547f0000000000000000000000000000000000000000000000000000000000000000115b156120df57507f0000000000000000000000000000000000000000000000000000000000000000919050565b506001919050565b333014612107576040516327568d2f60e11b815260040160405180910390fd5b6001600160a01b038416158061212457506001600160a01b038316155b1561214257604051634e46966960e11b815260040160405180910390fd5b81600003612163576040516365e52d5160e11b815260040160405180910390fd5b6040516370a0823160e01b815230600482015282906001600160a01b038616906370a0823190602401602060405180830381865afa1580156121a9573d6000803e3d6000fd5b505050506040513d601f19601f820116820180604052508101906121cd91906132ae565b10156121ec57604051631e9acf1760e31b815260040160405180910390fd5b601354600f54811061221157604051631dc0650160e31b815260040160405180910390fd5b836001600160a01b0316816000805160206132e4833981519152858560405161223b92919061322a565b60405180910390a36115416001600160a01b0386168585612a02565b60006060806000806000806000600f54891061228657604051631dc0650160e31b815260040160405180910390fd5b6000898152601060205260409020600781015442108015906122af575080600601548160050154115b6001820154600583015460068401546007850154600a8601546002870180549698506001600160a01b0390951695600388019493929160ff1690899087906122f690613048565b80601f016020809104026020016040519081016040528092919081815260200182805461232290613048565b801561236f5780601f106123445761010080835404028352916020019161236f565b820191906000526020600020905b81548152906001019060200180831161235257829003601f168201915b5050505050965085805461238290613048565b80601f01602080910402602001604051908101604052809291908181526020018280546123ae90613048565b80156123fb5780601f106123d0576101008083540402835291602001916123fb565b820191906000526020600020905b8154815290600101906020018083116123de57829003601f168201915b505050505095509850985098509850985098509850985050919395975091939597565b3360009081526006602052604090205460ff1661244e5760405163148fe22160e11b815260040160405180910390fd5b600f54821061247057604051631dc0650160e31b815260040160405180910390fd5b6000828152601060205260409020600781015442106124a257604051637a19ed0560e01b815260040160405180910390fd5b336000908152600b8201602052604090205460ff16156124d557604051637c9a1cf960e01b815260040160405180910390fd5b600881015433600090815260076020526040902054106125085760405163f078ca7360e01b815260040160405180910390fd5b336000818152600b8301602090815260408083208054600160ff199182168117909255600c870190935292208054909116851515179055906001600160a01b037f00000000000000000000000000000000000000000000000000000000000000001614801561259857506009547f0000000000000000000000000000000000000000000000000000000000000000115b156125c057507f00000000000000000000000000000000000000000000000000000000000000005b82156125e557808260050160008282546125da91906131f5565b909155506125ff9050565b808260060160008282546125f991906131f5565b90915550505b604080518415158152426020820152339186917fcbdf6214089cba887ecbf35a0b6a734589959c9763342c756bb2a80ca2bc9f6e910160405180910390a350505050565b333014612663576040516327568d2f60e11b815260040160405180910390fd5b6001600160a01b03821661268a57604051634e46966960e11b815260040160405180910390fd5b6003546000036126ad57604051631ab9ebab60e01b815260040160405180910390fd5b601354600f5481106126d257604051631dc0650160e31b815260040160405180910390fd5b6003805460009091556040516001600160a01b0385169083906000805160206132e483398151915290612708908590889061322a565b60405180910390a360015461178b906001600160a01b03168583612a02565b3360009081526006602052604090205460ff166127575760405163148fe22160e11b815260040160405180910390fd5b60026000540361277a576040516306fda65d60e31b815260040160405180910390fd5b6002600090815561278a33610f8b565b9050806000036127ad576040516373380d9960e01b815260040160405180910390fd5b6000600d546004546127bf91906130b3565b9050818110156127e25760405163bc6072f160e01b815260040160405180910390fd5b600c54336000908152600e6020908152604080832093909355600b905290812080548492906128129084906131f5565b92505081905550816004600082825461282b91906130b3565b9091555050600154612847906001600160a01b03163384612a02565b6040805183815242602082015233917fc4e740509dbfae3377bc9925dd7bcc8aaba69cd730316216d76b2d24725c6366910160405180910390a250506001600055565b602081015160609060006001600160e01b0319821663329b926b60e11b14806128c357506001600160e01b0319821663524ddc2360e01b145b806128de57506001600160e01b03198216635440380160e01b145b806128f957506001600160e01b0319821663d3493ced60e01b145b8061291457506001600160e01b03198216632f0a89a160e21b145b8061292f57506001600160e01b03198216632641305560e11b145b8061294a57506001600160e01b031982166326c5320f60e21b145b90508061296a57604051631c49f4d160e01b815260040160405180910390fd5b600080306001600160a01b03168660405161298591906132c7565b6000604051808303816000865af19150503d80600081146129c2576040519150601f19603f3d011682016040523d82523d6000602084013e6129c7565b606091505b5091509150816129f9578051156129e057805160208201fd5b6040516331d436c760e01b815260040160405180910390fd5b95945050505050565b6040516001600160a01b03838116602483015260448201839052612a6191859182169063a9059cbb906064015b604051602081830303815290604052915060e01b6020820180516001600160e01b038381831617835250505050612a9f565b505050565b6040516001600160a01b03848116602483015283811660448301526064820183905261178b9186918216906323b872dd90608401612a2f565b600080602060008451602086016000885af180612ac2576040513d6000823e3d81fd5b50506000513d91508115612ada578060011415612ae7565b6001600160a01b0384163b155b1561178b57604051635274afe760e01b81526001600160a01b038516600482015260240160405180910390fd5b600060208284031215612b2657600080fd5b5035919050565b60005b83811015612b48578181015183820152602001612b30565b50506000910152565b60008151808452612b69816020860160208601612b2d565b601f01601f19169290920160200192915050565b8b81526001600160a01b038b16602082015261016060408201819052600090612ba88382018d612b51565b90508281036060840152612bbc818c612b51565b90508281036080840152612bd0818b612b51565b60a0840199909952505060c081019590955260e085019390935261010084019190915261012083015215156101409091015295945050505050565b80356001600160a01b0381168114612c2257600080fd5b919050565b600060208284031215612c3957600080fd5b612c4282612c0b565b9392505050565b634e487b7160e01b600052604160045260246000fd5b600067ffffffffffffffff80841115612c7a57612c7a612c49565b604051601f8501601f19908116603f01168101908282118183101715612ca257612ca2612c49565b81604052809350858152868686011115612cbb57600080fd5b858560208301376000602087830101525050509392505050565b600082601f830112612ce657600080fd5b612c4283833560208501612c5f565b60008060008060808587031215612d0b57600080fd5b843567ffffffffffffffff80821115612d2357600080fd5b612d2f88838901612cd5565b95506020870135915080821115612d4557600080fd5b612d5188838901612cd5565b94506040870135915080821115612d6757600080fd5b508501601f81018713612d7957600080fd5b612d8887823560208401612c5f565b949793965093946060013593505050565b60008060408385031215612dac57600080fd5b82359150612dbc60208401612c0b565b90509250929050565b600080600060608486031215612dda57600080fd5b612de384612c0b565b925060208401359150604084013567ffffffffffffffff811115612e0657600080fd5b612e1286828701612cd5565b9150509250925092565b60008060408385031215612e2f57600080fd5b612e3883612c0b565b946020939093013593505050565b60008151808452602080850194506020840160005b83811015612e7757815187529582019590820190600101612e5b565b509495945050505050565b602081526000612c426020830184612e46565b80358015158114612c2257600080fd5b600060208284031215612eb757600080fd5b612c4282612e95565b60008060408385031215612ed357600080fd5b50508035926020909101359150565b604081526000612ef56040830185612e46565b905082151560208301529392505050565b60008060008060808587031215612f1c57600080fd5b612f2585612c0b565b9350612f3360208601612c0b565b925060408501359150606085013567ffffffffffffffff811115612f5657600080fd5b612f6287828801612cd5565b91505092959194509250565b6001600160a01b038916815261010060208201819052600090612f938382018b612b51565b90508281036040840152612fa7818a612b51565b60608401989098525050608081019490945260a0840192909252151560c0830152151560e0909101529392505050565b60008060408385031215612fea57600080fd5b82359150612dbc60208401612e95565b6000806040838503121561300d57600080fd5b61301683612c0b565b9150602083013567ffffffffffffffff81111561303257600080fd5b61303e85828601612cd5565b9150509250929050565b600181811c9082168061305c57607f821691505b60208210810361307c57634e487b7160e01b600052602260045260246000fd5b50919050565b8215158152604060208201526000610fe76040830184612b51565b634e487b7160e01b600052601160045260246000fd5b818103818111156130c6576130c661309d565b92915050565b6000600182016130de576130de61309d565b5060010190565b601f821115612a61576000816000526020600020601f850160051c8101602086101561310e5750805b601f850160051c820191505b8181101561312d5782815560010161311a565b505050505050565b815167ffffffffffffffff81111561314f5761314f612c49565b6131638161315d8454613048565b846130e5565b602080601f83116001811461319857600084156131805750858301515b600019600386901b1c1916600185901b17855561312d565b600085815260208120601f198616915b828110156131c7578886015182559484019460019091019084016131a8565b50858210156131e55787850151600019600388901b60f8161c191681555b5050505050600190811b01905550565b808201808211156130c6576130c661309d565b60408152600061321b6040830185612b51565b90508260208301529392505050565b828152604060208201526000610fe76040830184612b51565b634e487b7160e01b600052601260045260246000fd5b60008261326857613268613243565b500690565b634e487b7160e01b600052603260045260246000fd5b80820281158282048414176130c6576130c661309d565b6000826132a9576132a9613243565b500490565b6000602082840312156132c057600080fd5b5051919050565b600082516132d9818460208701612b2d565b919091019291505056fe1ba011ee074f0e08cc727335f32d75fb7ee71dc0a1e13bb9473e5650b0afd1a3a2646970667358221220ae145127e6abeb9dc2244f48f4e1f9ac13b0c68098e2b6c619ddb69c120932ba64736f6c63430008170033",
  "linkReferences": {},
  "deployedLinkReferences": {}
}