{
  "_format": "hh-sol-artifact-1",
  "contractName": "TEMPL",
  "sourceName": "contracts/TEMPL.sol",
  "abi": [
    {
      "inputs": [
        {
          "internalType": "address",
          "name": "_priest",
          "type": "address"
        },
        {
          "internalType": "address",
          "name": "_protocolFeeRecipient",
          "type": "address"
        },
        {
          "internalType": "address",
          "name": "_token",
          "type": "address"
        },
        {
          "internalType": "uint256",
          "name": "_entryFee",
          "type": "uint256"
        },
        {
          "internalType": "uint256",
          "name": "_priestVoteWeight",
          "type": "uint256"
        },
        {
          "internalType": "uint256",
          "name": "_priestWeightThreshold",
          "type": "uint256"
        }
      ],
      "stateMutability": "nonpayable",
      "type": "constructor"
    },
    {
      "inputs": [],
      "name": "ActiveProposalExists",
      "type": "error"
    },
    {
      "inputs": [],
      "name": "AlreadyExecuted",
      "type": "error"
    },
    {
      "inputs": [],
      "name": "AlreadyPurchased",
      "type": "error"
    },
    {
      "inputs": [],
      "name": "AlreadyVoted",
      "type": "error"
    },
    {
      "inputs": [],
      "name": "AmountZero",
      "type": "error"
    },
    {
      "inputs": [],
      "name": "CallDataRequired",
      "type": "error"
    },
    {
      "inputs": [],
      "name": "CallDataTooShort",
      "type": "error"
    },
    {
      "inputs": [],
      "name": "ContractPausedError",
      "type": "error"
    },
    {
      "inputs": [],
      "name": "DescriptionRequired",
      "type": "error"
    },
    {
      "inputs": [],
      "name": "EntryFeeTooSmall",
      "type": "error"
    },
    {
      "inputs": [],
      "name": "InsufficientBalance",
      "type": "error"
    },
    {
      "inputs": [],
      "name": "InsufficientPoolBalance",
      "type": "error"
    },
    {
      "inputs": [],
      "name": "InsufficientTreasuryBalance",
      "type": "error"
    },
    {
      "inputs": [],
      "name": "InvalidCallData",
      "type": "error"
    },
    {
      "inputs": [],
      "name": "InvalidEntryFee",
      "type": "error"
    },
    {
      "inputs": [],
      "name": "InvalidProposal",
      "type": "error"
    },
    {
      "inputs": [],
      "name": "InvalidRecipient",
      "type": "error"
    },
    {
      "inputs": [],
      "name": "InvalidSender",
      "type": "error"
    },
    {
      "inputs": [],
      "name": "JoinedAfterProposal",
      "type": "error"
    },
    {
      "inputs": [],
      "name": "LimitOutOfRange",
      "type": "error"
    },
    {
      "inputs": [],
      "name": "NoRewardsToClaim",
      "type": "error"
    },
    {
      "inputs": [],
      "name": "NoTreasuryFunds",
      "type": "error"
    },
    {
      "inputs": [],
      "name": "NonZeroBalances",
      "type": "error"
    },
    {
      "inputs": [],
      "name": "NotDAO",
      "type": "error"
    },
    {
      "inputs": [],
      "name": "NotMember",
      "type": "error"
    },
    {
      "inputs": [],
      "name": "ProposalExecutionFailed",
      "type": "error"
    },
    {
      "inputs": [],
      "name": "ProposalNotPassed",
      "type": "error"
    },
    {
      "inputs": [],
      "name": "ReentrantCall",
      "type": "error"
    },
    {
      "inputs": [
        {
          "internalType": "address",
          "name": "token",
          "type": "address"
        }
      ],
      "name": "SafeERC20FailedOperation",
      "type": "error"
    },
    {
      "inputs": [],
      "name": "TitleRequired",
      "type": "error"
    },
    {
      "inputs": [],
      "name": "VotingEnded",
      "type": "error"
    },
    {
      "inputs": [],
      "name": "VotingNotEnded",
      "type": "error"
    },
    {
      "inputs": [],
      "name": "VotingPeriodTooLong",
      "type": "error"
    },
    {
      "inputs": [],
      "name": "VotingPeriodTooShort",
      "type": "error"
    },
    {
      "anonymous": false,
      "inputs": [
        {
          "indexed": true,
          "internalType": "address",
          "name": "purchaser",
          "type": "address"
        },
        {
          "indexed": false,
          "internalType": "uint256",
          "name": "totalAmount",
          "type": "uint256"
        },
        {
          "indexed": false,
          "internalType": "uint256",
          "name": "burnedAmount",
          "type": "uint256"
        },
        {
          "indexed": false,
          "internalType": "uint256",
          "name": "treasuryAmount",
          "type": "uint256"
        },
        {
          "indexed": false,
          "internalType": "uint256",
          "name": "memberPoolAmount",
          "type": "uint256"
        },
        {
          "indexed": false,
          "internalType": "uint256",
          "name": "protocolAmount",
          "type": "uint256"
        },
        {
          "indexed": false,
          "internalType": "uint256",
          "name": "timestamp",
          "type": "uint256"
        },
        {
          "indexed": false,
          "internalType": "uint256",
          "name": "blockNumber",
          "type": "uint256"
        },
        {
          "indexed": false,
          "internalType": "uint256",
          "name": "purchaseId",
          "type": "uint256"
        }
      ],
      "name": "AccessPurchased",
      "type": "event"
    },
    {
      "anonymous": false,
      "inputs": [
        {
          "indexed": true,
          "internalType": "address",
          "name": "token",
          "type": "address"
        },
        {
          "indexed": false,
          "internalType": "uint256",
          "name": "entryFee",
          "type": "uint256"
        }
      ],
      "name": "ConfigUpdated",
      "type": "event"
    },
    {
      "anonymous": false,
      "inputs": [
        {
          "indexed": false,
          "internalType": "bool",
          "name": "isPaused",
          "type": "bool"
        }
      ],
      "name": "ContractPaused",
      "type": "event"
    },
    {
      "anonymous": false,
      "inputs": [
        {
          "indexed": true,
          "internalType": "address",
          "name": "member",
          "type": "address"
        },
        {
          "indexed": false,
          "internalType": "uint256",
          "name": "amount",
          "type": "uint256"
        },
        {
          "indexed": false,
          "internalType": "uint256",
          "name": "timestamp",
          "type": "uint256"
        }
      ],
      "name": "MemberPoolClaimed",
      "type": "event"
    },
    {
      "anonymous": false,
      "inputs": [
        {
          "indexed": true,
          "internalType": "uint256",
          "name": "proposalId",
          "type": "uint256"
        },
        {
          "indexed": true,
          "internalType": "address",
          "name": "proposer",
          "type": "address"
        },
        {
          "indexed": false,
          "internalType": "string",
          "name": "title",
          "type": "string"
        },
        {
          "indexed": false,
          "internalType": "uint256",
          "name": "endTime",
          "type": "uint256"
        }
      ],
      "name": "ProposalCreated",
      "type": "event"
    },
    {
      "anonymous": false,
      "inputs": [
        {
          "indexed": true,
          "internalType": "uint256",
          "name": "proposalId",
          "type": "uint256"
        },
        {
          "indexed": false,
          "internalType": "bool",
          "name": "success",
          "type": "bool"
        },
        {
          "indexed": false,
          "internalType": "bytes",
          "name": "returnData",
          "type": "bytes"
        }
      ],
      "name": "ProposalExecuted",
      "type": "event"
    },
    {
      "anonymous": false,
      "inputs": [
        {
          "indexed": true,
          "internalType": "uint256",
          "name": "proposalId",
          "type": "uint256"
        },
        {
          "indexed": true,
          "internalType": "address",
          "name": "recipient",
          "type": "address"
        },
        {
          "indexed": false,
          "internalType": "uint256",
          "name": "amount",
          "type": "uint256"
        },
        {
          "indexed": false,
          "internalType": "string",
          "name": "description",
          "type": "string"
        }
      ],
      "name": "TreasuryAction",
      "type": "event"
    },
    {
      "anonymous": false,
      "inputs": [
        {
          "indexed": true,
          "internalType": "uint256",
          "name": "proposalId",
          "type": "uint256"
        },
        {
          "indexed": true,
          "internalType": "address",
          "name": "voter",
          "type": "address"
        },
        {
          "indexed": false,
          "internalType": "bool",
          "name": "support",
          "type": "bool"
        },
        {
          "indexed": false,
          "internalType": "uint256",
          "name": "timestamp",
          "type": "uint256"
        }
      ],
      "name": "VoteCast",
      "type": "event"
    },
    {
      "inputs": [],
      "name": "DEFAULT_VOTING_PERIOD",
      "outputs": [
        {
          "internalType": "uint256",
          "name": "",
          "type": "uint256"
        }
      ],
      "stateMutability": "view",
      "type": "function"
    },
    {
      "inputs": [],
      "name": "MAX_VOTING_PERIOD",
      "outputs": [
        {
          "internalType": "uint256",
          "name": "",
          "type": "uint256"
        }
      ],
      "stateMutability": "view",
      "type": "function"
    },
    {
      "inputs": [],
      "name": "MIN_VOTING_PERIOD",
      "outputs": [
        {
          "internalType": "uint256",
          "name": "",
          "type": "uint256"
        }
      ],
      "stateMutability": "view",
      "type": "function"
    },
    {
      "inputs": [],
      "name": "accessToken",
      "outputs": [
        {
          "internalType": "address",
          "name": "",
          "type": "address"
        }
      ],
      "stateMutability": "view",
      "type": "function"
    },
    {
      "inputs": [
        {
          "internalType": "address",
          "name": "",
          "type": "address"
        }
      ],
      "name": "activeProposalId",
      "outputs": [
        {
          "internalType": "uint256",
          "name": "",
          "type": "uint256"
        }
      ],
      "stateMutability": "view",
      "type": "function"
    },
    {
      "inputs": [],
      "name": "claimMemberPool",
      "outputs": [],
      "stateMutability": "nonpayable",
      "type": "function"
    },
    {
      "inputs": [
        {
          "internalType": "string",
          "name": "_title",
          "type": "string"
        },
        {
          "internalType": "string",
          "name": "_description",
          "type": "string"
        },
        {
          "internalType": "bytes",
          "name": "_callData",
          "type": "bytes"
        },
        {
          "internalType": "uint256",
          "name": "_votingPeriod",
          "type": "uint256"
        }
      ],
      "name": "createProposal",
      "outputs": [
        {
          "internalType": "uint256",
          "name": "",
          "type": "uint256"
        }
      ],
      "stateMutability": "nonpayable",
      "type": "function"
    },
    {
      "inputs": [],
      "name": "cumulativeMemberRewards",
      "outputs": [
        {
          "internalType": "uint256",
          "name": "",
          "type": "uint256"
        }
      ],
      "stateMutability": "view",
      "type": "function"
    },
    {
      "inputs": [],
      "name": "entryFee",
      "outputs": [
        {
          "internalType": "uint256",
          "name": "",
          "type": "uint256"
        }
      ],
      "stateMutability": "view",
      "type": "function"
    },
    {
      "inputs": [
        {
          "internalType": "uint256",
          "name": "_proposalId",
          "type": "uint256"
        }
      ],
      "name": "executeProposal",
      "outputs": [],
      "stateMutability": "nonpayable",
      "type": "function"
    },
    {
      "inputs": [],
      "name": "getActiveProposals",
      "outputs": [
        {
          "internalType": "uint256[]",
          "name": "",
          "type": "uint256[]"
        }
      ],
      "stateMutability": "view",
      "type": "function"
    },
    {
      "inputs": [
        {
          "internalType": "uint256",
          "name": "offset",
          "type": "uint256"
        },
        {
          "internalType": "uint256",
          "name": "limit",
          "type": "uint256"
        }
      ],
      "name": "getActiveProposalsPaginated",
      "outputs": [
        {
          "internalType": "uint256[]",
          "name": "proposalIds",
          "type": "uint256[]"
        },
        {
          "internalType": "bool",
          "name": "hasMore",
          "type": "bool"
        }
      ],
      "stateMutability": "view",
      "type": "function"
    },
    {
      "inputs": [
        {
          "internalType": "address",
          "name": "member",
          "type": "address"
        }
      ],
      "name": "getClaimablePoolAmount",
      "outputs": [
        {
          "internalType": "uint256",
          "name": "",
          "type": "uint256"
        }
      ],
      "stateMutability": "view",
      "type": "function"
    },
    {
      "inputs": [],
      "name": "getConfig",
      "outputs": [
        {
          "internalType": "address",
          "name": "token",
          "type": "address"
        },
        {
          "internalType": "uint256",
          "name": "fee",
          "type": "uint256"
        },
        {
          "internalType": "bool",
          "name": "isPaused",
          "type": "bool"
        },
        {
          "internalType": "uint256",
          "name": "purchases",
          "type": "uint256"
        },
        {
          "internalType": "uint256",
          "name": "treasury",
          "type": "uint256"
        },
        {
          "internalType": "uint256",
          "name": "pool",
          "type": "uint256"
        }
      ],
      "stateMutability": "view",
      "type": "function"
    },
    {
      "inputs": [],
      "name": "getMemberCount",
      "outputs": [
        {
          "internalType": "uint256",
          "name": "",
          "type": "uint256"
        }
      ],
      "stateMutability": "view",
      "type": "function"
    },
    {
      "inputs": [
        {
          "internalType": "uint256",
          "name": "_proposalId",
          "type": "uint256"
        }
      ],
      "name": "getProposal",
      "outputs": [
        {
          "internalType": "address",
          "name": "proposer",
          "type": "address"
        },
        {
          "internalType": "string",
          "name": "title",
          "type": "string"
        },
        {
          "internalType": "string",
          "name": "description",
          "type": "string"
        },
        {
          "internalType": "uint256",
          "name": "yesVotes",
          "type": "uint256"
        },
        {
          "internalType": "uint256",
          "name": "noVotes",
          "type": "uint256"
        },
        {
          "internalType": "uint256",
          "name": "endTime",
          "type": "uint256"
        },
        {
          "internalType": "bool",
          "name": "executed",
          "type": "bool"
        },
        {
          "internalType": "bool",
          "name": "passed",
          "type": "bool"
        }
      ],
      "stateMutability": "view",
      "type": "function"
    },
    {
      "inputs": [
        {
          "internalType": "address",
          "name": "user",
          "type": "address"
        }
      ],
      "name": "getPurchaseDetails",
      "outputs": [
        {
          "internalType": "bool",
          "name": "purchased",
          "type": "bool"
        },
        {
          "internalType": "uint256",
          "name": "timestamp",
          "type": "uint256"
        },
        {
          "internalType": "uint256",
          "name": "blockNum",
          "type": "uint256"
        }
      ],
      "stateMutability": "view",
      "type": "function"
    },
    {
      "inputs": [],
      "name": "getTreasuryInfo",
      "outputs": [
        {
          "internalType": "uint256",
          "name": "treasury",
          "type": "uint256"
        },
        {
          "internalType": "uint256",
          "name": "memberPool",
          "type": "uint256"
        },
        {
          "internalType": "uint256",
          "name": "totalReceived",
          "type": "uint256"
        },
        {
          "internalType": "uint256",
          "name": "totalBurnedAmount",
          "type": "uint256"
        },
        {
          "internalType": "uint256",
          "name": "totalProtocolFees",
          "type": "uint256"
        },
        {
          "internalType": "address",
          "name": "protocolAddress",
          "type": "address"
        }
      ],
      "stateMutability": "view",
      "type": "function"
    },
    {
      "inputs": [
        {
          "internalType": "address",
          "name": "voter",
          "type": "address"
        }
      ],
      "name": "getVoteWeight",
      "outputs": [
        {
          "internalType": "uint256",
          "name": "",
          "type": "uint256"
        }
      ],
      "stateMutability": "view",
      "type": "function"
    },
    {
      "inputs": [
        {
          "internalType": "address",
          "name": "user",
          "type": "address"
        }
      ],
      "name": "hasAccess",
      "outputs": [
        {
          "internalType": "bool",
          "name": "",
          "type": "bool"
        }
      ],
      "stateMutability": "view",
      "type": "function"
    },
    {
      "inputs": [
        {
          "internalType": "address",
          "name": "",
          "type": "address"
        }
      ],
      "name": "hasActiveProposal",
      "outputs": [
        {
          "internalType": "bool",
          "name": "",
          "type": "bool"
        }
      ],
      "stateMutability": "view",
      "type": "function"
    },
    {
      "inputs": [
        {
          "internalType": "address",
          "name": "",
          "type": "address"
        }
      ],
      "name": "hasPurchased",
      "outputs": [
        {
          "internalType": "bool",
          "name": "",
          "type": "bool"
        }
      ],
      "stateMutability": "view",
      "type": "function"
    },
    {
      "inputs": [
        {
          "internalType": "uint256",
          "name": "_proposalId",
          "type": "uint256"
        },
        {
          "internalType": "address",
          "name": "_voter",
          "type": "address"
        }
      ],
      "name": "hasVoted",
      "outputs": [
        {
          "internalType": "bool",
          "name": "voted",
          "type": "bool"
        },
        {
          "internalType": "bool",
          "name": "support",
          "type": "bool"
        }
      ],
      "stateMutability": "view",
      "type": "function"
    },
    {
      "inputs": [
        {
          "internalType": "address",
          "name": "",
          "type": "address"
        }
      ],
      "name": "memberIndex",
      "outputs": [
        {
          "internalType": "uint256",
          "name": "",
          "type": "uint256"
        }
      ],
      "stateMutability": "view",
      "type": "function"
    },
    {
      "inputs": [],
      "name": "memberPoolBalance",
      "outputs": [
        {
          "internalType": "uint256",
          "name": "",
          "type": "uint256"
        }
      ],
      "stateMutability": "view",
      "type": "function"
    },
    {
      "inputs": [
        {
          "internalType": "address",
          "name": "",
          "type": "address"
        }
      ],
      "name": "memberPoolClaims",
      "outputs": [
        {
          "internalType": "uint256",
          "name": "",
          "type": "uint256"
        }
      ],
      "stateMutability": "view",
      "type": "function"
    },
    {
      "inputs": [],
      "name": "memberRewardRemainder",
      "outputs": [
        {
          "internalType": "uint256",
          "name": "",
          "type": "uint256"
        }
      ],
      "stateMutability": "view",
      "type": "function"
    },
    {
      "inputs": [
        {
          "internalType": "address",
          "name": "",
          "type": "address"
        }
      ],
      "name": "memberRewardSnapshot",
      "outputs": [
        {
          "internalType": "uint256",
          "name": "",
          "type": "uint256"
        }
      ],
      "stateMutability": "view",
      "type": "function"
    },
    {
      "inputs": [
        {
          "internalType": "uint256",
          "name": "",
          "type": "uint256"
        }
      ],
      "name": "members",
      "outputs": [
        {
          "internalType": "address",
          "name": "",
          "type": "address"
        }
      ],
      "stateMutability": "view",
      "type": "function"
    },
    {
      "inputs": [],
      "name": "paused",
      "outputs": [
        {
          "internalType": "bool",
          "name": "",
          "type": "bool"
        }
      ],
      "stateMutability": "view",
      "type": "function"
    },
    {
      "inputs": [],
      "name": "priest",
      "outputs": [
        {
          "internalType": "address",
          "name": "",
          "type": "address"
        }
      ],
      "stateMutability": "view",
      "type": "function"
    },
    {
      "inputs": [],
      "name": "priestVoteWeight",
      "outputs": [
        {
          "internalType": "uint256",
          "name": "",
          "type": "uint256"
        }
      ],
      "stateMutability": "view",
      "type": "function"
    },
    {
      "inputs": [],
      "name": "priestWeightThreshold",
      "outputs": [
        {
          "internalType": "uint256",
          "name": "",
          "type": "uint256"
        }
      ],
      "stateMutability": "view",
      "type": "function"
    },
    {
      "inputs": [],
      "name": "proposalCount",
      "outputs": [
        {
          "internalType": "uint256",
          "name": "",
          "type": "uint256"
        }
      ],
      "stateMutability": "view",
      "type": "function"
    },
    {
      "inputs": [
        {
          "internalType": "uint256",
          "name": "",
          "type": "uint256"
        }
      ],
      "name": "proposals",
      "outputs": [
        {
          "internalType": "uint256",
          "name": "id",
          "type": "uint256"
        },
        {
          "internalType": "address",
          "name": "proposer",
          "type": "address"
        },
        {
          "internalType": "string",
          "name": "title",
          "type": "string"
        },
        {
          "internalType": "string",
          "name": "description",
          "type": "string"
        },
        {
          "internalType": "bytes",
          "name": "callData",
          "type": "bytes"
        },
        {
          "internalType": "uint256",
          "name": "yesVotes",
          "type": "uint256"
        },
        {
          "internalType": "uint256",
          "name": "noVotes",
          "type": "uint256"
        },
        {
          "internalType": "uint256",
          "name": "endTime",
          "type": "uint256"
        },
        {
          "internalType": "uint256",
          "name": "createdAt",
          "type": "uint256"
        },
        {
          "internalType": "uint256",
          "name": "eligibleVoters",
          "type": "uint256"
        },
        {
          "internalType": "bool",
          "name": "executed",
          "type": "bool"
        }
      ],
      "stateMutability": "view",
      "type": "function"
    },
    {
      "inputs": [],
      "name": "protocolFeeRecipient",
      "outputs": [
        {
          "internalType": "address",
          "name": "",
          "type": "address"
        }
      ],
      "stateMutability": "view",
      "type": "function"
    },
    {
      "inputs": [],
      "name": "purchaseAccess",
      "outputs": [],
      "stateMutability": "nonpayable",
      "type": "function"
    },
    {
      "inputs": [
        {
          "internalType": "address",
          "name": "",
          "type": "address"
        }
      ],
      "name": "purchaseBlock",
      "outputs": [
        {
          "internalType": "uint256",
          "name": "",
          "type": "uint256"
        }
      ],
      "stateMutability": "view",
      "type": "function"
    },
    {
      "inputs": [
        {
          "internalType": "address",
          "name": "",
          "type": "address"
        }
      ],
      "name": "purchaseTimestamp",
      "outputs": [
        {
          "internalType": "uint256",
          "name": "",
          "type": "uint256"
        }
      ],
      "stateMutability": "view",
      "type": "function"
    },
    {
      "inputs": [
        {
          "internalType": "bool",
          "name": "_paused",
          "type": "bool"
        }
      ],
      "name": "setPausedDAO",
      "outputs": [],
      "stateMutability": "nonpayable",
      "type": "function"
    },
    {
      "inputs": [
        {
          "internalType": "address",
          "name": "recipient",
          "type": "address"
        }
      ],
      "name": "sweepMemberRewardRemainderDAO",
      "outputs": [],
      "stateMutability": "nonpayable",
      "type": "function"
    },
    {
      "inputs": [],
      "name": "totalBurned",
      "outputs": [
        {
          "internalType": "uint256",
          "name": "",
          "type": "uint256"
        }
      ],
      "stateMutability": "view",
      "type": "function"
    },
    {
      "inputs": [],
      "name": "totalPurchases",
      "outputs": [
        {
          "internalType": "uint256",
          "name": "",
          "type": "uint256"
        }
      ],
      "stateMutability": "view",
      "type": "function"
    },
    {
      "inputs": [],
      "name": "totalToMemberPool",
      "outputs": [
        {
          "internalType": "uint256",
          "name": "",
          "type": "uint256"
        }
      ],
      "stateMutability": "view",
      "type": "function"
    },
    {
      "inputs": [],
      "name": "totalToProtocol",
      "outputs": [
        {
          "internalType": "uint256",
          "name": "",
          "type": "uint256"
        }
      ],
      "stateMutability": "view",
      "type": "function"
    },
    {
      "inputs": [],
      "name": "totalToTreasury",
      "outputs": [
        {
          "internalType": "uint256",
          "name": "",
          "type": "uint256"
        }
      ],
      "stateMutability": "view",
      "type": "function"
    },
    {
      "inputs": [],
      "name": "treasuryBalance",
      "outputs": [
        {
          "internalType": "uint256",
          "name": "",
          "type": "uint256"
        }
      ],
      "stateMutability": "view",
      "type": "function"
    },
    {
      "inputs": [
        {
          "internalType": "address",
          "name": "_token",
          "type": "address"
        },
        {
          "internalType": "uint256",
          "name": "_entryFee",
          "type": "uint256"
        }
      ],
      "name": "updateConfigDAO",
      "outputs": [],
      "stateMutability": "nonpayable",
      "type": "function"
    },
    {
      "inputs": [
        {
          "internalType": "uint256",
          "name": "_proposalId",
          "type": "uint256"
        },
        {
          "internalType": "bool",
          "name": "_support",
          "type": "bool"
        }
      ],
      "name": "vote",
      "outputs": [],
      "stateMutability": "nonpayable",
      "type": "function"
    },
    {
      "inputs": [
        {
          "internalType": "address",
          "name": "recipient",
          "type": "address"
        },
        {
          "internalType": "string",
          "name": "reason",
          "type": "string"
        }
      ],
      "name": "withdrawAllTreasuryDAO",
      "outputs": [],
      "stateMutability": "nonpayable",
      "type": "function"
    },
    {
      "inputs": [
        {
          "internalType": "address",
          "name": "recipient",
          "type": "address"
        },
        {
          "internalType": "uint256",
          "name": "amount",
          "type": "uint256"
        },
        {
          "internalType": "string",
          "name": "reason",
          "type": "string"
        }
      ],
      "name": "withdrawTreasuryDAO",
      "outputs": [],
      "stateMutability": "nonpayable",
      "type": "function"
    },
    {
      "stateMutability": "payable",
      "type": "receive"
    }
  ],
  "bytecode": "0x6101006040526000196013553480156200001857600080fd5b50604051620031c8380380620031c88339810160408190526200003b91620001a5565b6001600160a01b03861615806200005957506001600160a01b038516155b806200006c57506001600160a01b038416155b156200008b57604051634e46966960e11b815260040160405180910390fd5b82600003620000ad576040516365e52d5160e11b815260040160405180910390fd5b600a831015620000d057604051635eee050360e11b815260040160405180910390fd5b620000dd600a846200020b565b15620000fc57604051636fe6a4c960e01b815260040160405180910390fd5b816000036200011e576040516365e52d5160e11b815260040160405180910390fd5b8060000362000140576040516365e52d5160e11b815260040160405180910390fd5b6001600160a01b0395861660805293851660a052600180546001600160a01b0319169390951692909217845560025560c05260e0526005805460ff191690556000556200022e565b80516001600160a01b0381168114620001a057600080fd5b919050565b60008060008060008060c08789031215620001bf57600080fd5b620001ca8762000188565b9550620001da6020880162000188565b9450620001ea6040880162000188565b9350606087015192506080870151915060a087015190509295509295509295565b6000826200022957634e487b7160e01b600052601260045260246000fd5b500690565b60805160a05160c05160e051612f28620002a06000396000818161045d01528181611e9d015261221201526000818161095101528181611ec6015261223b015260008181610632015281816108ea0152611cf301526000818161089401528181611e5e01526121e50152612f286000f3fe6080604052600436106102e85760003560e01c80637675511811610190578063bebc8fc0116100dc578063c9d27afe11610095578063da35c6641161006f578063da35c66414610a5d578063e243c5fb14610a73578063f7158b2a14610a93578063ffafe4ad14610aa857600080fd5b8063c9d27afe14610a07578063d3493ced14610a27578063d89135cd14610a4757600080fd5b8063bebc8fc014610882578063c1b57edb146108b6578063c2939471146108cc578063c34b55801461093f578063c3f909d414610973578063c7f758a8146109d357600080fd5b80639b14c83c11610149578063a730117e11610123578063a730117e1461081f578063a81bbe3c1461083f578063aedfe53f1461039a578063bdb75b341461086c57600080fd5b80639b14c83c146107d2578063a51a46b9146107f2578063a64e024a1461080857600080fd5b806376755118146106e45780638f78bbc41461071157806390118fb41461073f57806395a078e81461076f578063997072f7146107a857806399e288d8146107bd57600080fd5b80635584c4f91161024f5780635fa7ddf011610208578063653724d6116101e2578063653724d6146106545780636898b19c146106745780636ad185501461068a5780636d223ea4146106b757600080fd5b80635fa7ddf01461059c57806364653f29146105b257806364df049e1461062057600080fd5b80635584c4f9146104bf5780635962a941146104e157806359c266ff146104f75780635c975abb1461050d5780635daf08ca146105375780635e391dfe1461056f57600080fd5b806332d084bb116102a157806332d084bb146103c75780633dd35279146103e757806343859632146104145780634c78afc81461044b578063524ddc231461047f578063544038011461049f57600080fd5b8063013cf08b146102f4578063072ea61c146103345780630d61b519146103585780631808022a1461037a578063215809ca1461039a578063313dab20146103b157600080fd5b366102ef57005b600080fd5b34801561030057600080fd5b5061031461030f36600461278b565b610ad8565b60405161032b9b9a999897969594939291906127f4565b60405180910390f35b34801561034057600080fd5b5061034a60025481565b60405190815260200161032b565b34801561036457600080fd5b5061037861037336600461278b565b610cd3565b005b34801561038657600080fd5b5061034a61039536600461289e565b610f15565b3480156103a657600080fd5b5061034a62093a8081565b3480156103bd57600080fd5b5061034a60035481565b3480156103d357600080fd5b5061034a6103e236600461296c565b610f79565b3480156103f357600080fd5b5061034a61040236600461289e565b600a6020526000908152604090205481565b34801561042057600080fd5b5061043461042f366004612a10565b6112d8565b60408051921515835290151560208301520161032b565b34801561045757600080fd5b5061034a7f000000000000000000000000000000000000000000000000000000000000000081565b34801561048b57600080fd5b5061037861049a366004612a3c565b611341565b3480156104ab57600080fd5b506103786104ba366004612a66565b611472565b3480156104cb57600080fd5b506104d461159c565b60405161032b9190612af9565b3480156104ed57600080fd5b5061034a60145481565b34801561050357600080fd5b5061034a60185481565b34801561051957600080fd5b506005546105279060ff1681565b604051901515815260200161032b565b34801561054357600080fd5b5061055761055236600461278b565b6116c2565b6040516001600160a01b03909116815260200161032b565b34801561057b57600080fd5b5061034a61058a36600461289e565b60086020526000908152604090205481565b3480156105a857600080fd5b5061034a60045481565b3480156105be57600080fd5b506106036105cd36600461289e565b6001600160a01b03166000908152600660209081526040808320546007835281842054600890935292205460ff90921692909190565b60408051931515845260208401929092529082015260600161032b565b34801561062c57600080fd5b506105577f000000000000000000000000000000000000000000000000000000000000000081565b34801561066057600080fd5b5061037861066f366004612b1c565b6116ec565b34801561068057600080fd5b5061034a600c5481565b34801561069657600080fd5b5061034a6106a536600461289e565b60116020526000908152604090205481565b3480156106c357600080fd5b5061034a6106d236600461289e565b600e6020526000908152604090205481565b3480156106f057600080fd5b5061034a6106ff36600461289e565b60076020526000908152604090205481565b34801561071d57600080fd5b5061073161072c366004612b37565b611753565b60405161032b929190612b59565b34801561074b57600080fd5b5061052761075a36600461289e565b60066020526000908152604090205460ff1681565b34801561077b57600080fd5b5061052761078a36600461289e565b6001600160a01b031660009081526006602052604090205460ff1690565b3480156107b457600080fd5b5060095461034a565b3480156107c957600080fd5b50610378611984565b3480156107de57600080fd5b506103786107ed36600461289e565b611da3565b3480156107fe57600080fd5b5061034a600d5481565b34801561081457600080fd5b5061034a62278d0081565b34801561082b57600080fd5b5061034a61083a36600461289e565b611e34565b34801561084b57600080fd5b5061034a61085a36600461289e565b600b6020526000908152604090205481565b34801561087857600080fd5b5061034a60175481565b34801561088e57600080fd5b506105577f000000000000000000000000000000000000000000000000000000000000000081565b3480156108c257600080fd5b5061034a60165481565b3480156108d857600080fd5b506003546004546016546015546018547f000000000000000000000000000000000000000000000000000000000000000060408051968752602087019590955293850192909252606084015260808301526001600160a01b031660a082015260c00161032b565b34801561094b57600080fd5b5061034a7f000000000000000000000000000000000000000000000000000000000000000081565b34801561097f57600080fd5b50600154600254600554601454600354600454604080516001600160a01b039097168752602087019590955260ff9093161515938501939093526060840152608083019190915260a082015260c00161032b565b3480156109df57600080fd5b506109f36109ee36600461278b565b611ef2565b60405161032b989796959493929190612b7d565b348015610a1357600080fd5b50610378610a22366004612be6565b6120b9565b348015610a3357600080fd5b50610378610a42366004612c09565b6122de565b348015610a5357600080fd5b5061034a60155481565b348015610a6957600080fd5b5061034a600f5481565b348015610a7f57600080fd5b50600154610557906001600160a01b031681565b348015610a9f57600080fd5b506103786123d4565b348015610ab457600080fd5b50610527610ac336600461289e565b60126020526000908152604090205460ff1681565b60106020526000908152604090208054600182015460028301805492936001600160a01b0390921692610b0a90612c57565b80601f0160208091040260200160405190810160405280929190818152602001828054610b3690612c57565b8015610b835780601f10610b5857610100808354040283529160200191610b83565b820191906000526020600020905b815481529060010190602001808311610b6657829003601f168201915b505050505090806003018054610b9890612c57565b80601f0160208091040260200160405190810160405280929190818152602001828054610bc490612c57565b8015610c115780601f10610be657610100808354040283529160200191610c11565b820191906000526020600020905b815481529060010190602001808311610bf457829003601f168201915b505050505090806004018054610c2690612c57565b80601f0160208091040260200160405190810160405280929190818152602001828054610c5290612c57565b8015610c9f5780601f10610c7457610100808354040283529160200191610c9f565b820191906000526020600020905b815481529060010190602001808311610c8257829003601f168201915b50505060058401546006850154600786015460088701546009880154600a9098015496979396929550909350919060ff168b565b600260005403610cf6576040516306fda65d60e31b815260040160405180910390fd5b6002600055600f548110610d1d57604051631dc0650160e31b815260040160405180910390fd5b60008181526010602052604090206007810154421015610d5057604051633fc30bd160e11b815260040160405180910390fd5b600a81015460ff1615610d7657604051630dc1019760e01b815260040160405180910390fd5b8060060154816005015411610d9e5760405163c8c93ba360e01b815260040160405180910390fd5b600a8101805460ff191660019081179091558101546001600160a01b031660008181526012602052604090205460ff168015610df157506001600160a01b03811660009081526011602052604090205483145b15610e22576001600160a01b0381166000908152601260209081526040808320805460ff1916905560119091528120555b610e2b83601355565b6000610ec2836004018054610e3f90612c57565b80601f0160208091040260200160405190810160405280929190818152602001828054610e6b90612c57565b8015610eb85780601f10610e8d57610100808354040283529160200191610eb8565b820191906000526020600020905b815481529060010190602001808311610e9b57829003601f168201915b5050505050612537565b9050610ecf600019601355565b837faf8f9d0e884d3306a083e846741a0bc4d75908e2b0ec63b558219652ae4c1b90600183604051610f02929190612c91565b60405180910390a2505060016000555050565b6001600160a01b03811660009081526006602052604081205460ff16610f3d57506000919050565b600c546001600160a01b0383166000908152600e6020526040902054808211610f67576000610f71565b610f718183612cc2565b949350505050565b3360009081526006602052604081205460ff16610fa95760405163148fe22160e11b815260040160405180910390fd5b8451600003610fcb576040516319d546f160e31b815260040160405180910390fd5b8351600003610fed57604051633e61080d60e01b815260040160405180910390fd5b825160000361100f5760405163066e738d60e01b815260040160405180910390fd5b60048351101561103257604051632d2b93ff60e01b815260040160405180910390fd5b602083015160006001600160e01b0319821663329b926b60e11b148061106857506001600160e01b0319821663524ddc2360e01b145b8061108357506001600160e01b03198216635440380160e01b145b8061109e57506001600160e01b0319821663d3493ced60e01b145b806110b957506001600160e01b031982166326c5320f60e21b145b9050806110d957604051631c49f4d160e01b815260040160405180910390fd5b3360009081526012602052604090205460ff161561116a57336000908152601160209081526040808320548084526010909252909120600a81015460ff161580156111275750806007015442105b156111455760405163792c310960e11b815260040160405180910390fd5b336000908152601260209081526040808320805460ff19169055601190915281205550505b83600081900361117a575062093a805b62093a8081101561119e576040516331806aeb60e21b815260040160405180910390fd5b62278d008111156111c25760405163eeeb962360e01b815260040160405180910390fd5b600f8054600091826111d383612cdb565b9091555060008181526010602052604090208181556001810180546001600160a01b031916331790559091506002810161120d8b82612d44565b506003810161121c8a82612d44565b506004810161122b8982612d44565b506112368342612e04565b600782019081554260088301556009805490830155600a8201805460ff199081169091556000600584018190556006840181905533808252601260209081526040808420805490951660011790945560119052908290208590559154905184917f98120a6aaa04295520ab4e01c6c1235dd316e822cc9ff31db7b3f197366d18bd916112c3918f91612e17565b60405180910390a35098975050505050505050565b600080600f5484106112fd57604051631dc0650160e31b815260040160405180910390fd5b505060008281526010602090815260408083206001600160a01b0385168452600b8101835281842054600c9091019092529091205460ff91821691165b9250929050565b333014611361576040516327568d2f60e11b815260040160405180910390fd5b6001600160a01b038216156113d2576001546001600160a01b038381169116146113d2576000600354118061139857506000600454115b156113b65760405163d38466ab60e01b815260040160405180910390fd5b600180546001600160a01b0319166001600160a01b0384161790555b801561142957600a8110156113fa57604051635eee050360e11b815260040160405180910390fd5b611405600a82612e4f565b1561142357604051636fe6a4c960e01b815260040160405180910390fd5b60028190555b6001546002546040519081526001600160a01b03909116907faf8839d80c9b3bbf95c97465eb8c8348db4098f5c15af186c3b425b1129981179060200160405180910390a25050565b333014611492576040516327568d2f60e11b815260040160405180910390fd5b6001600160a01b0383166114b957604051634e46966960e11b815260040160405180910390fd5b816000036114da576040516365e52d5160e11b815260040160405180910390fd5b6003548211156114fd57604051631c7b597b60e11b815260040160405180910390fd5b601354600f54811061152257604051631dc0650160e31b815260040160405180910390fd5b82600360008282546115349190612cc2565b92505081905550836001600160a01b0316817f1ba011ee074f0e08cc727335f32d75fb7ee71dc0a1e13bb9473e5650b0afd1a38585604051611577929190612e63565b60405180910390a3600154611596906001600160a01b03168585612679565b50505050565b60606000805b600f548110156115f957600081815260106020526040902060070154421080156115de57506000818152601060205260409020600a015460ff16155b156115f157816115ed81612cdb565b9250505b6001016115a2565b5060008167ffffffffffffffff811115611615576116156128c0565b60405190808252806020026020018201604052801561163e578160200160208202803683370190505b5090506000805b600f548110156116b9576000818152601060205260409020600701544210801561168157506000818152601060205260409020600a015460ff16155b156116b15780838361169281612cdb565b9450815181106116a4576116a4612e7c565b6020026020010181815250505b600101611645565b50909392505050565b600981815481106116d257600080fd5b6000918252602090912001546001600160a01b0316905081565b33301461170c576040516327568d2f60e11b815260040160405180910390fd5b6005805460ff19168215159081179091556040519081527f752d7e161ff5146f80e3820893176eb40532811e5e20400dfdde57455213706a9060200160405180910390a150565b606060008215806117645750606483115b15611782576040516381f396b760e01b815260040160405180910390fd5b600f5484106117a3575050604080516000808252602082019092529061133a565b60008367ffffffffffffffff8111156117be576117be6128c0565b6040519080825280602002602001820160405280156117e7578160200160208202803683370190505b509050600085805b600f54811080156117ff57508683105b15611885576000818152601060205260409020600701544210801561183657506000818152601060205260409020600a015460ff16155b156118665780848461184781612cdb565b95508151811061185957611859612e7c565b6020026020010181815250505b611871816001612e04565b91508061187d81612cdb565b9150506117ef565b5060009350600f548110156118ea57805b600f548110156118e857600081815260106020526040902060070154421080156118d257506000818152601060205260409020600a015460ff16155b156118e057600194506118e8565b600101611896565b505b8167ffffffffffffffff811115611903576119036128c0565b60405190808252806020026020018201604052801561192c578160200160208202803683370190505b50945060005b828110156119795783818151811061194c5761194c612e7c565b602002602001015186828151811061196657611966612e7c565b6020908102919091010152600101611932565b505050509250929050565b60055460ff16156119a857604051630eceade960e31b815260040160405180910390fd5b3033036119c857604051636edaef2f60e11b815260040160405180910390fd5b6002600054036119eb576040516306fda65d60e31b815260040160405180910390fd5b600260009081553381526006602052604090205460ff1615611a2057604051630cd9ed5560e21b815260040160405180910390fd5b60006064600254601e611a339190612e92565b611a3d9190612ea9565b905060006064600254600a611a529190612e92565b611a5c9190612ea9565b6002546001546040516370a0823160e01b815233600482015292935090916001600160a01b03909116906370a0823190602401602060405180830381865afa158015611aac573d6000803e3d6000fd5b505050506040513d601f19601f82011682018060405250810190611ad09190612ebd565b1015611aef57604051631e9acf1760e31b815260040160405180910390fd5b336000818152600660209081526040808320805460ff19166001908117909155600783528184204290556008835281842043905560098054600a9094529184208390558201815582527f6e1540171b6c0c960b71a7020d9f60077f6af931a8bbf590da0223dacf75c7af0180546001600160a01b0319169092179091556014805491611b7a83612cdb565b909155505060095460011015611bf5576000600d5483611b9a9190612e04565b600954909150600090611baf90600190612cc2565b611bb99083612ea9565b600954909150611bcb90600190612cc2565b611bd59083612e4f565b600d8190555080600c6000828254611bed9190612e04565b909155505050505b600c54336000908152600e602052604081209190915560038054849290611c1d908490612e04565b925050819055508160046000828254611c369190612e04565b925050819055508160156000828254611c4f9190612e04565b925050819055508160166000828254611c689190612e04565b925050819055508160176000828254611c819190612e04565b925050819055508060186000828254611c9a9190612e04565b90915550506001546001600160a01b0316611cb9813361dead866126dd565b611cce6001600160a01b0382163330866126dd565b611ce36001600160a01b0382163330866126dd565b611d186001600160a01b038216337f0000000000000000000000000000000000000000000000000000000000000000856126dd565b336001600160a01b03167fe6d1c0e418a42a777d49c66571075fc47bc1d92e7f506007ddde08d1ff182bbc6002548586878742436001601454611d5b9190612cc2565b604080519889526020890197909752958701949094526060860192909252608085015260a084015260c083015260e08201526101000160405180910390a25050600160005550565b333014611dc3576040516327568d2f60e11b815260040160405180910390fd5b6001600160a01b038116611dea57604051634e46966960e11b815260040160405180910390fd5b6004546000819003611e0f576040516365e52d5160e11b815260040160405180910390fd5b60006004819055600d55600154611e30906001600160a01b03168383612679565b5050565b6001600160a01b03811660009081526006602052604081205460ff16611e5c57506000919050565b7f00000000000000000000000000000000000000000000000000000000000000006001600160a01b0316826001600160a01b0316148015611ebe57506009547f0000000000000000000000000000000000000000000000000000000000000000115b15611eea57507f0000000000000000000000000000000000000000000000000000000000000000919050565b506001919050565b60006060806000806000806000600f548910611f2157604051631dc0650160e31b815260040160405180910390fd5b600089815260106020526040902060078101544210801590611f4a575080600601548160050154115b6001820154600583015460068401546007850154600a8601546002870180549698506001600160a01b0390951695600388019493929160ff169089908790611f9190612c57565b80601f0160208091040260200160405190810160405280929190818152602001828054611fbd90612c57565b801561200a5780601f10611fdf5761010080835404028352916020019161200a565b820191906000526020600020905b815481529060010190602001808311611fed57829003601f168201915b5050505050965085805461201d90612c57565b80601f016020809104026020016040519081016040528092919081815260200182805461204990612c57565b80156120965780601f1061206b57610100808354040283529160200191612096565b820191906000526020600020905b81548152906001019060200180831161207957829003601f168201915b505050505095509850985098509850985098509850985050919395975091939597565b3360009081526006602052604090205460ff166120e95760405163148fe22160e11b815260040160405180910390fd5b600f54821061210b57604051631dc0650160e31b815260040160405180910390fd5b60008281526010602052604090206007810154421061213d57604051637a19ed0560e01b815260040160405180910390fd5b336000908152600b8201602052604090205460ff161561217057604051637c9a1cf960e01b815260040160405180910390fd5b600881015433600090815260076020526040902054106121a35760405163f078ca7360e01b815260040160405180910390fd5b336000818152600b8301602090815260408083208054600160ff199182168117909255600c870190935292208054909116851515179055906001600160a01b037f00000000000000000000000000000000000000000000000000000000000000001614801561223357506009547f0000000000000000000000000000000000000000000000000000000000000000115b1561225b57507f00000000000000000000000000000000000000000000000000000000000000005b821561228057808260050160008282546122759190612e04565b9091555061229a9050565b808260060160008282546122949190612e04565b90915550505b604080518415158152426020820152339186917fcbdf6214089cba887ecbf35a0b6a734589959c9763342c756bb2a80ca2bc9f6e910160405180910390a350505050565b3330146122fe576040516327568d2f60e11b815260040160405180910390fd5b6001600160a01b03821661232557604051634e46966960e11b815260040160405180910390fd5b60035460000361234857604051631ab9ebab60e01b815260040160405180910390fd5b601354600f54811061236d57604051631dc0650160e31b815260040160405180910390fd5b6003805460009091556040516001600160a01b0385169083907f1ba011ee074f0e08cc727335f32d75fb7ee71dc0a1e13bb9473e5650b0afd1a3906123b59085908890612e63565b60405180910390a3600154611596906001600160a01b03168583612679565b3360009081526006602052604090205460ff166124045760405163148fe22160e11b815260040160405180910390fd5b600260005403612427576040516306fda65d60e31b815260040160405180910390fd5b6002600090815561243733610f15565b90508060000361245a576040516373380d9960e01b815260040160405180910390fd5b6000600d5460045461246c9190612cc2565b90508181101561248f5760405163bc6072f160e01b815260040160405180910390fd5b600c54336000908152600e6020908152604080832093909355600b905290812080548492906124bf908490612e04565b9250508190555081600460008282546124d89190612cc2565b90915550506001546124f4906001600160a01b03163384612679565b6040805183815242602082015233917fc4e740509dbfae3377bc9925dd7bcc8aaba69cd730316216d76b2d24725c6366910160405180910390a250506001600055565b602081015160609060006001600160e01b0319821663329b926b60e11b148061257057506001600160e01b0319821663524ddc2360e01b145b8061258b57506001600160e01b03198216635440380160e01b145b806125a657506001600160e01b0319821663d3493ced60e01b145b806125c157506001600160e01b031982166326c5320f60e21b145b9050806125e157604051631c49f4d160e01b815260040160405180910390fd5b600080306001600160a01b0316866040516125fc9190612ed6565b6000604051808303816000865af19150503d8060008114612639576040519150601f19603f3d011682016040523d82523d6000602084013e61263e565b606091505b5091509150816126705780511561265757805160208201fd5b6040516331d436c760e01b815260040160405180910390fd5b95945050505050565b6040516001600160a01b038381166024830152604482018390526126d891859182169063a9059cbb906064015b604051602081830303815290604052915060e01b6020820180516001600160e01b038381831617835250505050612716565b505050565b6040516001600160a01b0384811660248301528381166044830152606482018390526115969186918216906323b872dd906084016126a6565b600080602060008451602086016000885af180612739576040513d6000823e3d81fd5b50506000513d9150811561275157806001141561275e565b6001600160a01b0384163b155b1561159657604051635274afe760e01b81526001600160a01b038516600482015260240160405180910390fd5b60006020828403121561279d57600080fd5b5035919050565b60005b838110156127bf5781810151838201526020016127a7565b50506000910152565b600081518084526127e08160208601602086016127a4565b601f01601f19169290920160200192915050565b8b81526001600160a01b038b1660208201526101606040820181905260009061281f8382018d6127c8565b90508281036060840152612833818c6127c8565b90508281036080840152612847818b6127c8565b60a0840199909952505060c081019590955260e085019390935261010084019190915261012083015215156101409091015295945050505050565b80356001600160a01b038116811461289957600080fd5b919050565b6000602082840312156128b057600080fd5b6128b982612882565b9392505050565b634e487b7160e01b600052604160045260246000fd5b600067ffffffffffffffff808411156128f1576128f16128c0565b604051601f8501601f19908116603f01168101908282118183101715612919576129196128c0565b8160405280935085815286868601111561293257600080fd5b858560208301376000602087830101525050509392505050565b600082601f83011261295d57600080fd5b6128b9838335602085016128d6565b6000806000806080858703121561298257600080fd5b843567ffffffffffffffff8082111561299a57600080fd5b6129a68883890161294c565b955060208701359150808211156129bc57600080fd5b6129c88883890161294c565b945060408701359150808211156129de57600080fd5b508501601f810187136129f057600080fd5b6129ff878235602084016128d6565b949793965093946060013593505050565b60008060408385031215612a2357600080fd5b82359150612a3360208401612882565b90509250929050565b60008060408385031215612a4f57600080fd5b612a5883612882565b946020939093013593505050565b600080600060608486031215612a7b57600080fd5b612a8484612882565b925060208401359150604084013567ffffffffffffffff811115612aa757600080fd5b612ab38682870161294c565b9150509250925092565b60008151808452602080850194506020840160005b83811015612aee57815187529582019590820190600101612ad2565b509495945050505050565b6020815260006128b96020830184612abd565b8035801515811461289957600080fd5b600060208284031215612b2e57600080fd5b6128b982612b0c565b60008060408385031215612b4a57600080fd5b50508035926020909101359150565b604081526000612b6c6040830185612abd565b905082151560208301529392505050565b6001600160a01b038916815261010060208201819052600090612ba28382018b6127c8565b90508281036040840152612bb6818a6127c8565b60608401989098525050608081019490945260a0840192909252151560c0830152151560e0909101529392505050565b60008060408385031215612bf957600080fd5b82359150612a3360208401612b0c565b60008060408385031215612c1c57600080fd5b612c2583612882565b9150602083013567ffffffffffffffff811115612c4157600080fd5b612c4d8582860161294c565b9150509250929050565b600181811c90821680612c6b57607f821691505b602082108103612c8b57634e487b7160e01b600052602260045260246000fd5b50919050565b8215158152604060208201526000610f7160408301846127c8565b634e487b7160e01b600052601160045260246000fd5b81810381811115612cd557612cd5612cac565b92915050565b600060018201612ced57612ced612cac565b5060010190565b601f8211156126d8576000816000526020600020601f850160051c81016020861015612d1d5750805b601f850160051c820191505b81811015612d3c57828155600101612d29565b505050505050565b815167ffffffffffffffff811115612d5e57612d5e6128c0565b612d7281612d6c8454612c57565b84612cf4565b602080601f831160018114612da75760008415612d8f5750858301515b600019600386901b1c1916600185901b178555612d3c565b600085815260208120601f198616915b82811015612dd657888601518255948401946001909101908401612db7565b5085821015612df45787850151600019600388901b60f8161c191681555b5050505050600190811b01905550565b80820180821115612cd557612cd5612cac565b604081526000612e2a60408301856127c8565b90508260208301529392505050565b634e487b7160e01b600052601260045260246000fd5b600082612e5e57612e5e612e39565b500690565b828152604060208201526000610f7160408301846127c8565b634e487b7160e01b600052603260045260246000fd5b8082028115828204841417612cd557612cd5612cac565b600082612eb857612eb8612e39565b500490565b600060208284031215612ecf57600080fd5b5051919050565b60008251612ee88184602087016127a4565b919091019291505056fea26469706673582212204647430fa5d9d9a865405d7668f2a3ffec936d49b3b96e970fb7f12f5a0e385664736f6c63430008170033",
  "linkReferences": {},
  "deployedLinkReferences": {}
}