{
  "_format": "hh-sol-artifact-1",
  "contractName": "TEMPL",
  "sourceName": "contracts/TEMPL.sol",
  "abi": [
    {
      "inputs": [
        {
          "internalType": "address",
          "name": "_priest",
          "type": "address"
        },
        {
          "internalType": "address",
          "name": "_protocolFeeRecipient",
          "type": "address"
        },
        {
          "internalType": "address",
          "name": "_token",
          "type": "address"
        },
        {
          "internalType": "uint256",
          "name": "_entryFee",
          "type": "uint256"
        }
      ],
      "stateMutability": "nonpayable",
      "type": "constructor"
    },
    {
      "inputs": [],
      "name": "ActiveProposalExists",
      "type": "error"
    },
    {
      "inputs": [],
      "name": "AlreadyExecuted",
      "type": "error"
    },
    {
      "inputs": [],
      "name": "AlreadyPurchased",
      "type": "error"
    },
    {
      "inputs": [],
      "name": "AmountZero",
      "type": "error"
    },
    {
      "inputs": [],
      "name": "CallDataRequired",
      "type": "error"
    },
    {
      "inputs": [],
      "name": "CallDataTooShort",
      "type": "error"
    },
    {
      "inputs": [],
      "name": "ContractPausedError",
      "type": "error"
    },
    {
      "inputs": [],
      "name": "DescriptionRequired",
      "type": "error"
    },
    {
      "inputs": [],
      "name": "EntryFeeTooSmall",
      "type": "error"
    },
    {
      "inputs": [],
      "name": "InsufficientBalance",
      "type": "error"
    },
    {
      "inputs": [],
      "name": "InsufficientPoolBalance",
      "type": "error"
    },
    {
      "inputs": [],
      "name": "InsufficientTreasuryBalance",
      "type": "error"
    },
    {
      "inputs": [],
      "name": "InvalidCallData",
      "type": "error"
    },
    {
      "inputs": [],
      "name": "InvalidEntryFee",
      "type": "error"
    },
    {
      "inputs": [],
      "name": "InvalidProposal",
      "type": "error"
    },
    {
      "inputs": [],
      "name": "InvalidRecipient",
      "type": "error"
    },
    {
      "inputs": [],
      "name": "InvalidSender",
      "type": "error"
    },
    {
      "inputs": [],
      "name": "JoinedAfterProposal",
      "type": "error"
    },
    {
      "inputs": [],
      "name": "LimitOutOfRange",
      "type": "error"
    },
    {
      "inputs": [],
      "name": "NoRewardsToClaim",
      "type": "error"
    },
    {
      "inputs": [],
      "name": "NoTreasuryFunds",
      "type": "error"
    },
    {
      "inputs": [],
      "name": "NonZeroBalances",
      "type": "error"
    },
    {
      "inputs": [],
      "name": "NotDAO",
      "type": "error"
    },
    {
      "inputs": [],
      "name": "NotMember",
      "type": "error"
    },
    {
      "inputs": [],
      "name": "ProposalExecutionFailed",
      "type": "error"
    },
    {
      "inputs": [],
      "name": "ProposalNotPassed",
      "type": "error"
    },
    {
      "inputs": [],
      "name": "ReentrancyGuardReentrantCall",
      "type": "error"
    },
    {
      "inputs": [
        {
          "internalType": "address",
          "name": "token",
          "type": "address"
        }
      ],
      "name": "SafeERC20FailedOperation",
      "type": "error"
    },
    {
      "inputs": [],
      "name": "TitleRequired",
      "type": "error"
    },
    {
      "inputs": [],
      "name": "VotingEnded",
      "type": "error"
    },
    {
      "inputs": [],
      "name": "VotingNotEnded",
      "type": "error"
    },
    {
      "inputs": [],
      "name": "VotingPeriodTooLong",
      "type": "error"
    },
    {
      "inputs": [],
      "name": "VotingPeriodTooShort",
      "type": "error"
    },
    {
      "anonymous": false,
      "inputs": [
        {
          "indexed": true,
          "internalType": "address",
          "name": "purchaser",
          "type": "address"
        },
        {
          "indexed": false,
          "internalType": "uint256",
          "name": "totalAmount",
          "type": "uint256"
        },
        {
          "indexed": false,
          "internalType": "uint256",
          "name": "burnedAmount",
          "type": "uint256"
        },
        {
          "indexed": false,
          "internalType": "uint256",
          "name": "treasuryAmount",
          "type": "uint256"
        },
        {
          "indexed": false,
          "internalType": "uint256",
          "name": "memberPoolAmount",
          "type": "uint256"
        },
        {
          "indexed": false,
          "internalType": "uint256",
          "name": "protocolAmount",
          "type": "uint256"
        },
        {
          "indexed": false,
          "internalType": "uint256",
          "name": "timestamp",
          "type": "uint256"
        },
        {
          "indexed": false,
          "internalType": "uint256",
          "name": "blockNumber",
          "type": "uint256"
        },
        {
          "indexed": false,
          "internalType": "uint256",
          "name": "purchaseId",
          "type": "uint256"
        }
      ],
      "name": "AccessPurchased",
      "type": "event"
    },
    {
      "anonymous": false,
      "inputs": [
        {
          "indexed": true,
          "internalType": "address",
          "name": "token",
          "type": "address"
        },
        {
          "indexed": false,
          "internalType": "uint256",
          "name": "entryFee",
          "type": "uint256"
        }
      ],
      "name": "ConfigUpdated",
      "type": "event"
    },
    {
      "anonymous": false,
      "inputs": [
        {
          "indexed": false,
          "internalType": "bool",
          "name": "isPaused",
          "type": "bool"
        }
      ],
      "name": "ContractPaused",
      "type": "event"
    },
    {
      "anonymous": false,
      "inputs": [
        {
          "indexed": true,
          "internalType": "address",
          "name": "member",
          "type": "address"
        },
        {
          "indexed": false,
          "internalType": "uint256",
          "name": "amount",
          "type": "uint256"
        },
        {
          "indexed": false,
          "internalType": "uint256",
          "name": "timestamp",
          "type": "uint256"
        }
      ],
      "name": "MemberPoolClaimed",
      "type": "event"
    },
    {
      "anonymous": false,
      "inputs": [
        {
          "indexed": true,
          "internalType": "uint256",
          "name": "proposalId",
          "type": "uint256"
        },
        {
          "indexed": true,
          "internalType": "address",
          "name": "proposer",
          "type": "address"
        },
        {
          "indexed": false,
          "internalType": "string",
          "name": "title",
          "type": "string"
        },
        {
          "indexed": false,
          "internalType": "uint256",
          "name": "endTime",
          "type": "uint256"
        }
      ],
      "name": "ProposalCreated",
      "type": "event"
    },
    {
      "anonymous": false,
      "inputs": [
        {
          "indexed": true,
          "internalType": "uint256",
          "name": "proposalId",
          "type": "uint256"
        },
        {
          "indexed": false,
          "internalType": "bool",
          "name": "success",
          "type": "bool"
        },
        {
          "indexed": false,
          "internalType": "bytes",
          "name": "returnData",
          "type": "bytes"
        }
      ],
      "name": "ProposalExecuted",
      "type": "event"
    },
    {
      "anonymous": false,
      "inputs": [
        {
          "indexed": true,
          "internalType": "uint256",
          "name": "proposalId",
          "type": "uint256"
        },
        {
          "indexed": true,
          "internalType": "address",
          "name": "recipient",
          "type": "address"
        },
        {
          "indexed": false,
          "internalType": "uint256",
          "name": "amount",
          "type": "uint256"
        },
        {
          "indexed": false,
          "internalType": "string",
          "name": "description",
          "type": "string"
        }
      ],
      "name": "TreasuryAction",
      "type": "event"
    },
    {
      "anonymous": false,
      "inputs": [
        {
          "indexed": true,
          "internalType": "uint256",
          "name": "proposalId",
          "type": "uint256"
        },
        {
          "indexed": true,
          "internalType": "address",
          "name": "voter",
          "type": "address"
        },
        {
          "indexed": false,
          "internalType": "bool",
          "name": "support",
          "type": "bool"
        },
        {
          "indexed": false,
          "internalType": "uint256",
          "name": "timestamp",
          "type": "uint256"
        }
      ],
      "name": "VoteCast",
      "type": "event"
    },
    {
      "inputs": [],
      "name": "DEFAULT_VOTING_PERIOD",
      "outputs": [
        {
          "internalType": "uint256",
          "name": "",
          "type": "uint256"
        }
      ],
      "stateMutability": "view",
      "type": "function"
    },
    {
      "inputs": [],
      "name": "MAX_VOTING_PERIOD",
      "outputs": [
        {
          "internalType": "uint256",
          "name": "",
          "type": "uint256"
        }
      ],
      "stateMutability": "view",
      "type": "function"
    },
    {
      "inputs": [],
      "name": "MIN_VOTING_PERIOD",
      "outputs": [
        {
          "internalType": "uint256",
          "name": "",
          "type": "uint256"
        }
      ],
      "stateMutability": "view",
      "type": "function"
    },
    {
      "inputs": [],
      "name": "accessToken",
      "outputs": [
        {
          "internalType": "address",
          "name": "",
          "type": "address"
        }
      ],
      "stateMutability": "view",
      "type": "function"
    },
    {
      "inputs": [
        {
          "internalType": "address",
          "name": "",
          "type": "address"
        }
      ],
      "name": "activeProposalId",
      "outputs": [
        {
          "internalType": "uint256",
          "name": "",
          "type": "uint256"
        }
      ],
      "stateMutability": "view",
      "type": "function"
    },
    {
      "inputs": [],
      "name": "claimMemberPool",
      "outputs": [],
      "stateMutability": "nonpayable",
      "type": "function"
    },
    {
      "inputs": [
        {
          "internalType": "string",
          "name": "_title",
          "type": "string"
        },
        {
          "internalType": "string",
          "name": "_description",
          "type": "string"
        },
        {
          "internalType": "bytes",
          "name": "_callData",
          "type": "bytes"
        },
        {
          "internalType": "uint256",
          "name": "_votingPeriod",
          "type": "uint256"
        }
      ],
      "name": "createProposal",
      "outputs": [
        {
          "internalType": "uint256",
          "name": "",
          "type": "uint256"
        }
      ],
      "stateMutability": "nonpayable",
      "type": "function"
    },
    {
      "inputs": [],
      "name": "cumulativeMemberRewards",
      "outputs": [
        {
          "internalType": "uint256",
          "name": "",
          "type": "uint256"
        }
      ],
      "stateMutability": "view",
      "type": "function"
    },
    {
      "inputs": [],
      "name": "entryFee",
      "outputs": [
        {
          "internalType": "uint256",
          "name": "",
          "type": "uint256"
        }
      ],
      "stateMutability": "view",
      "type": "function"
    },
    {
      "inputs": [
        {
          "internalType": "uint256",
          "name": "_proposalId",
          "type": "uint256"
        }
      ],
      "name": "executeProposal",
      "outputs": [],
      "stateMutability": "nonpayable",
      "type": "function"
    },
    {
      "inputs": [],
      "name": "getActiveProposals",
      "outputs": [
        {
          "internalType": "uint256[]",
          "name": "",
          "type": "uint256[]"
        }
      ],
      "stateMutability": "view",
      "type": "function"
    },
    {
      "inputs": [
        {
          "internalType": "uint256",
          "name": "offset",
          "type": "uint256"
        },
        {
          "internalType": "uint256",
          "name": "limit",
          "type": "uint256"
        }
      ],
      "name": "getActiveProposalsPaginated",
      "outputs": [
        {
          "internalType": "uint256[]",
          "name": "proposalIds",
          "type": "uint256[]"
        },
        {
          "internalType": "bool",
          "name": "hasMore",
          "type": "bool"
        }
      ],
      "stateMutability": "view",
      "type": "function"
    },
    {
      "inputs": [
        {
          "internalType": "address",
          "name": "member",
          "type": "address"
        }
      ],
      "name": "getClaimablePoolAmount",
      "outputs": [
        {
          "internalType": "uint256",
          "name": "",
          "type": "uint256"
        }
      ],
      "stateMutability": "view",
      "type": "function"
    },
    {
      "inputs": [],
      "name": "getConfig",
      "outputs": [
        {
          "internalType": "address",
          "name": "token",
          "type": "address"
        },
        {
          "internalType": "uint256",
          "name": "fee",
          "type": "uint256"
        },
        {
          "internalType": "bool",
          "name": "isPaused",
          "type": "bool"
        },
        {
          "internalType": "uint256",
          "name": "purchases",
          "type": "uint256"
        },
        {
          "internalType": "uint256",
          "name": "treasury",
          "type": "uint256"
        },
        {
          "internalType": "uint256",
          "name": "pool",
          "type": "uint256"
        }
      ],
      "stateMutability": "view",
      "type": "function"
    },
    {
      "inputs": [],
      "name": "getMemberCount",
      "outputs": [
        {
          "internalType": "uint256",
          "name": "",
          "type": "uint256"
        }
      ],
      "stateMutability": "view",
      "type": "function"
    },
    {
      "inputs": [
        {
          "internalType": "uint256",
          "name": "_proposalId",
          "type": "uint256"
        }
      ],
      "name": "getProposal",
      "outputs": [
        {
          "internalType": "address",
          "name": "proposer",
          "type": "address"
        },
        {
          "internalType": "string",
          "name": "title",
          "type": "string"
        },
        {
          "internalType": "string",
          "name": "description",
          "type": "string"
        },
        {
          "internalType": "uint256",
          "name": "yesVotes",
          "type": "uint256"
        },
        {
          "internalType": "uint256",
          "name": "noVotes",
          "type": "uint256"
        },
        {
          "internalType": "uint256",
          "name": "endTime",
          "type": "uint256"
        },
        {
          "internalType": "bool",
          "name": "executed",
          "type": "bool"
        },
        {
          "internalType": "bool",
          "name": "passed",
          "type": "bool"
        }
      ],
      "stateMutability": "view",
      "type": "function"
    },
    {
      "inputs": [
        {
          "internalType": "address",
          "name": "user",
          "type": "address"
        }
      ],
      "name": "getPurchaseDetails",
      "outputs": [
        {
          "internalType": "bool",
          "name": "purchased",
          "type": "bool"
        },
        {
          "internalType": "uint256",
          "name": "timestamp",
          "type": "uint256"
        },
        {
          "internalType": "uint256",
          "name": "blockNum",
          "type": "uint256"
        }
      ],
      "stateMutability": "view",
      "type": "function"
    },
    {
      "inputs": [],
      "name": "getTreasuryInfo",
      "outputs": [
        {
          "internalType": "uint256",
          "name": "treasury",
          "type": "uint256"
        },
        {
          "internalType": "uint256",
          "name": "memberPool",
          "type": "uint256"
        },
        {
          "internalType": "uint256",
          "name": "totalReceived",
          "type": "uint256"
        },
        {
          "internalType": "uint256",
          "name": "totalBurnedAmount",
          "type": "uint256"
        },
        {
          "internalType": "uint256",
          "name": "totalProtocolFees",
          "type": "uint256"
        },
        {
          "internalType": "address",
          "name": "protocolAddress",
          "type": "address"
        }
      ],
      "stateMutability": "view",
      "type": "function"
    },
    {
      "inputs": [
        {
          "internalType": "address",
          "name": "voter",
          "type": "address"
        }
      ],
      "name": "getVoteWeight",
      "outputs": [
        {
          "internalType": "uint256",
          "name": "",
          "type": "uint256"
        }
      ],
      "stateMutability": "view",
      "type": "function"
    },
    {
      "inputs": [
        {
          "internalType": "address",
          "name": "user",
          "type": "address"
        }
      ],
      "name": "hasAccess",
      "outputs": [
        {
          "internalType": "bool",
          "name": "",
          "type": "bool"
        }
      ],
      "stateMutability": "view",
      "type": "function"
    },
    {
      "inputs": [
        {
          "internalType": "address",
          "name": "",
          "type": "address"
        }
      ],
      "name": "hasActiveProposal",
      "outputs": [
        {
          "internalType": "bool",
          "name": "",
          "type": "bool"
        }
      ],
      "stateMutability": "view",
      "type": "function"
    },
    {
      "inputs": [
        {
          "internalType": "uint256",
          "name": "_proposalId",
          "type": "uint256"
        },
        {
          "internalType": "address",
          "name": "_voter",
          "type": "address"
        }
      ],
      "name": "hasVoted",
      "outputs": [
        {
          "internalType": "bool",
          "name": "voted",
          "type": "bool"
        },
        {
          "internalType": "bool",
          "name": "support",
          "type": "bool"
        }
      ],
      "stateMutability": "view",
      "type": "function"
    },
    {
      "inputs": [
        {
          "internalType": "address",
          "name": "",
          "type": "address"
        }
      ],
      "name": "memberIndex",
      "outputs": [
        {
          "internalType": "uint256",
          "name": "",
          "type": "uint256"
        }
      ],
      "stateMutability": "view",
      "type": "function"
    },
    {
      "inputs": [
        {
          "internalType": "uint256",
          "name": "",
          "type": "uint256"
        }
      ],
      "name": "memberList",
      "outputs": [
        {
          "internalType": "address",
          "name": "",
          "type": "address"
        }
      ],
      "stateMutability": "view",
      "type": "function"
    },
    {
      "inputs": [],
      "name": "memberPoolBalance",
      "outputs": [
        {
          "internalType": "uint256",
          "name": "",
          "type": "uint256"
        }
      ],
      "stateMutability": "view",
      "type": "function"
    },
    {
      "inputs": [
        {
          "internalType": "address",
          "name": "",
          "type": "address"
        }
      ],
      "name": "memberPoolClaims",
      "outputs": [
        {
          "internalType": "uint256",
          "name": "",
          "type": "uint256"
        }
      ],
      "stateMutability": "view",
      "type": "function"
    },
    {
      "inputs": [],
      "name": "memberRewardRemainder",
      "outputs": [
        {
          "internalType": "uint256",
          "name": "",
          "type": "uint256"
        }
      ],
      "stateMutability": "view",
      "type": "function"
    },
    {
      "inputs": [
        {
          "internalType": "address",
          "name": "",
          "type": "address"
        }
      ],
      "name": "members",
      "outputs": [
        {
          "internalType": "bool",
          "name": "purchased",
          "type": "bool"
        },
        {
          "internalType": "uint256",
          "name": "timestamp",
          "type": "uint256"
        },
        {
          "internalType": "uint256",
          "name": "block",
          "type": "uint256"
        },
        {
          "internalType": "uint256",
          "name": "rewardSnapshot",
          "type": "uint256"
        }
      ],
      "stateMutability": "view",
      "type": "function"
    },
    {
      "inputs": [],
      "name": "paused",
      "outputs": [
        {
          "internalType": "bool",
          "name": "",
          "type": "bool"
        }
      ],
      "stateMutability": "view",
      "type": "function"
    },
    {
      "inputs": [],
      "name": "priest",
      "outputs": [
        {
          "internalType": "address",
          "name": "",
          "type": "address"
        }
      ],
      "stateMutability": "view",
      "type": "function"
    },
    {
      "inputs": [],
      "name": "proposalCount",
      "outputs": [
        {
          "internalType": "uint256",
          "name": "",
          "type": "uint256"
        }
      ],
      "stateMutability": "view",
      "type": "function"
    },
    {
      "inputs": [
        {
          "internalType": "uint256",
          "name": "",
          "type": "uint256"
        }
      ],
      "name": "proposals",
      "outputs": [
        {
          "internalType": "uint256",
          "name": "id",
          "type": "uint256"
        },
        {
          "internalType": "address",
          "name": "proposer",
          "type": "address"
        },
        {
          "internalType": "string",
          "name": "title",
          "type": "string"
        },
        {
          "internalType": "string",
          "name": "description",
          "type": "string"
        },
        {
          "internalType": "bytes",
          "name": "callData",
          "type": "bytes"
        },
        {
          "internalType": "uint256",
          "name": "yesVotes",
          "type": "uint256"
        },
        {
          "internalType": "uint256",
          "name": "noVotes",
          "type": "uint256"
        },
        {
          "internalType": "uint256",
          "name": "endTime",
          "type": "uint256"
        },
        {
          "internalType": "uint256",
          "name": "createdAt",
          "type": "uint256"
        },
        {
          "internalType": "uint256",
          "name": "eligibleVoters",
          "type": "uint256"
        },
        {
          "internalType": "bool",
          "name": "executed",
          "type": "bool"
        }
      ],
      "stateMutability": "view",
      "type": "function"
    },
    {
      "inputs": [],
      "name": "protocolFeeRecipient",
      "outputs": [
        {
          "internalType": "address",
          "name": "",
          "type": "address"
        }
      ],
      "stateMutability": "view",
      "type": "function"
    },
    {
      "inputs": [],
      "name": "purchaseAccess",
      "outputs": [],
      "stateMutability": "nonpayable",
      "type": "function"
    },
    {
      "inputs": [
        {
          "internalType": "bool",
          "name": "_paused",
          "type": "bool"
        }
      ],
      "name": "setPausedDAO",
      "outputs": [],
      "stateMutability": "nonpayable",
      "type": "function"
    },
    {
      "inputs": [
        {
          "internalType": "address",
          "name": "recipient",
          "type": "address"
        }
      ],
      "name": "sweepMemberRewardRemainderDAO",
      "outputs": [],
      "stateMutability": "nonpayable",
      "type": "function"
    },
    {
      "inputs": [],
      "name": "totalBurned",
      "outputs": [
        {
          "internalType": "uint256",
          "name": "",
          "type": "uint256"
        }
      ],
      "stateMutability": "view",
      "type": "function"
    },
    {
      "inputs": [],
      "name": "totalPurchases",
      "outputs": [
        {
          "internalType": "uint256",
          "name": "",
          "type": "uint256"
        }
      ],
      "stateMutability": "view",
      "type": "function"
    },
    {
      "inputs": [],
      "name": "totalToMemberPool",
      "outputs": [
        {
          "internalType": "uint256",
          "name": "",
          "type": "uint256"
        }
      ],
      "stateMutability": "view",
      "type": "function"
    },
    {
      "inputs": [],
      "name": "totalToProtocol",
      "outputs": [
        {
          "internalType": "uint256",
          "name": "",
          "type": "uint256"
        }
      ],
      "stateMutability": "view",
      "type": "function"
    },
    {
      "inputs": [],
      "name": "totalToTreasury",
      "outputs": [
        {
          "internalType": "uint256",
          "name": "",
          "type": "uint256"
        }
      ],
      "stateMutability": "view",
      "type": "function"
    },
    {
      "inputs": [],
      "name": "treasuryBalance",
      "outputs": [
        {
          "internalType": "uint256",
          "name": "",
          "type": "uint256"
        }
      ],
      "stateMutability": "view",
      "type": "function"
    },
    {
      "inputs": [
        {
          "internalType": "address",
          "name": "_token",
          "type": "address"
        },
        {
          "internalType": "uint256",
          "name": "_entryFee",
          "type": "uint256"
        }
      ],
      "name": "updateConfigDAO",
      "outputs": [],
      "stateMutability": "nonpayable",
      "type": "function"
    },
    {
      "inputs": [
        {
          "internalType": "uint256",
          "name": "_proposalId",
          "type": "uint256"
        },
        {
          "internalType": "bool",
          "name": "_support",
          "type": "bool"
        }
      ],
      "name": "vote",
      "outputs": [],
      "stateMutability": "nonpayable",
      "type": "function"
    },
    {
      "inputs": [
        {
          "internalType": "address",
          "name": "recipient",
          "type": "address"
        },
        {
          "internalType": "string",
          "name": "reason",
          "type": "string"
        }
      ],
      "name": "withdrawAllTreasuryDAO",
      "outputs": [],
      "stateMutability": "nonpayable",
      "type": "function"
    },
    {
      "inputs": [
        {
          "internalType": "address",
          "name": "recipient",
          "type": "address"
        },
        {
          "internalType": "uint256",
          "name": "amount",
          "type": "uint256"
        },
        {
          "internalType": "string",
          "name": "reason",
          "type": "string"
        }
      ],
      "name": "withdrawETHDAO",
      "outputs": [],
      "stateMutability": "nonpayable",
      "type": "function"
    },
    {
      "inputs": [
        {
          "internalType": "address",
          "name": "token",
          "type": "address"
        },
        {
          "internalType": "address",
          "name": "recipient",
          "type": "address"
        },
        {
          "internalType": "uint256",
          "name": "amount",
          "type": "uint256"
        },
        {
          "internalType": "string",
          "name": "reason",
          "type": "string"
        }
      ],
      "name": "withdrawTokenDAO",
      "outputs": [],
      "stateMutability": "nonpayable",
      "type": "function"
    },
    {
      "inputs": [
        {
          "internalType": "address",
          "name": "recipient",
          "type": "address"
        },
        {
          "internalType": "uint256",
          "name": "amount",
          "type": "uint256"
        },
        {
          "internalType": "string",
          "name": "reason",
          "type": "string"
        }
      ],
      "name": "withdrawTreasuryDAO",
      "outputs": [],
      "stateMutability": "nonpayable",
      "type": "function"
    },
    {
      "stateMutability": "payable",
      "type": "receive"
    }
  ],
  "bytecode": "0x60c06040526000196010553480156200001757600080fd5b5060405162003288380380620032888339810160408190526200003a916200015a565b60016000556001600160a01b03841615806200005d57506001600160a01b038316155b806200007057506001600160a01b038216155b156200008f57604051634e46966960e11b815260040160405180910390fd5b80600003620000b1576040516365e52d5160e11b815260040160405180910390fd5b600a811015620000d457604051635eee050360e11b815260040160405180910390fd5b620000e1600a82620001ac565b156200010057604051636fe6a4c960e01b815260040160405180910390fd5b6001600160a01b0393841660805291831660a052600180546001600160a01b03191691909316179091556002556005805460ff19169055620001cf565b80516001600160a01b03811681146200015557600080fd5b919050565b600080600080608085870312156200017157600080fd5b6200017c856200013d565b93506200018c602086016200013d565b92506200019c604086016200013d565b6060959095015193969295505050565b600082620001ca57634e487b7160e01b600052601260045260246000fd5b500690565b60805160a05161308562000203600039600081816105c60152818161084c0152611ca3015260006107f601526130856000f3fe6080604052600436106102975760003560e01c806395a078e81161015a578063bebc8fc0116100c1578063d3493ced1161007a578063d3493ced14610955578063d89135cd14610975578063da35c6641461098b578063e243c5fb146109a1578063f7158b2a146109c1578063ffafe4ad146109d657600080fd5b8063bebc8fc0146107e4578063c1b57edb14610818578063c29394711461082e578063c3f909d4146108a1578063c7f758a814610901578063c9d27afe1461093557600080fd5b8063a730117e11610113578063a730117e14610741578063a81bbe3c14610761578063aedfe53f146103b1578063b307fc6d1461078e578063bc2a2684146107ae578063bdb75b34146107ce57600080fd5b806395a078e814610691578063997072f7146106ca57806399e288d8146106df5780639b14c83c146106f4578063a51a46b914610714578063a64e024a1461072a57600080fd5b806354403801116101fe57806364653f29116101b757806364653f291461055057806364df049e146105b4578063653724d6146106005780636898b19c146106205780636ad18550146106365780638f78bbc41461066357600080fd5b806354403801146104a25780635584c4f9146104c25780635962a941146104e457806359c266ff146104fa5780635c975abb146105105780635fa7ddf01461053a57600080fd5b8063313dab2011610250578063313dab20146103c857806332d084bb146103de5780633dd35279146103fe578063438596321461042b5780634c8260aa14610462578063524ddc231461048257600080fd5b8063013cf08b146102a3578063072ea61c146102e357806308ae4b0c146103075780630d61b5191461036f5780631808022a14610391578063215809ca146103b157600080fd5b3661029e57005b600080fd5b3480156102af57600080fd5b506102c36102be366004612866565b610a06565b6040516102da9b9a999897969594939291906128cf565b60405180910390f35b3480156102ef57600080fd5b506102f960025481565b6040519081526020016102da565b34801561031357600080fd5b5061034d610322366004612979565b600660205260009081526040902080546001820154600283015460039093015460ff90921692909184565b60408051941515855260208501939093529183015260608201526080016102da565b34801561037b57600080fd5b5061038f61038a366004612866565b610c01565b005b34801561039d57600080fd5b506102f96103ac366004612979565b610e28565b3480156103bd57600080fd5b506102f962093a8081565b3480156103d457600080fd5b506102f960035481565b3480156103ea57600080fd5b506102f96103f9366004612a47565b610e8f565b34801561040a57600080fd5b506102f9610419366004612979565b60086020526000908152604090205481565b34801561043757600080fd5b5061044b610446366004612aeb565b611199565b6040805192151583529015156020830152016102da565b34801561046e57600080fd5b5061038f61047d366004612b17565b611202565b34801561048e57600080fd5b5061038f61049d366004612b6e565b61135d565b3480156104ae57600080fd5b5061038f6104bd366004612b17565b61149b565b3480156104ce57600080fd5b506104d76115b3565b6040516102da9190612bd4565b3480156104f057600080fd5b506102f960115481565b34801561050657600080fd5b506102f960155481565b34801561051c57600080fd5b5060055461052a9060ff1681565b60405190151581526020016102da565b34801561054657600080fd5b506102f960045481565b34801561055c57600080fd5b5061059761056b366004612979565b6001600160a01b031660009081526006602052604090208054600182015460029092015460ff90911692565b6040805193151584526020840192909252908201526060016102da565b3480156105c057600080fd5b506105e87f000000000000000000000000000000000000000000000000000000000000000081565b6040516001600160a01b0390911681526020016102da565b34801561060c57600080fd5b5061038f61061b366004612bf7565b6116d9565b34801561062c57600080fd5b506102f9600a5481565b34801561064257600080fd5b506102f9610651366004612979565b600e6020526000908152604090205481565b34801561066f57600080fd5b5061068361067e366004612c12565b611740565b6040516102da929190612c34565b34801561069d57600080fd5b5061052a6106ac366004612979565b6001600160a01b031660009081526006602052604090205460ff1690565b3480156106d657600080fd5b506007546102f9565b3480156106eb57600080fd5b5061038f611971565b34801561070057600080fd5b5061038f61070f366004612979565b611d59565b34801561072057600080fd5b506102f9600b5481565b34801561073657600080fd5b506102f962278d0081565b34801561074d57600080fd5b506102f961075c366004612979565b611dea565b34801561076d57600080fd5b506102f961077c366004612979565b60096020526000908152604090205481565b34801561079a57600080fd5b506105e86107a9366004612866565b611e1a565b3480156107ba57600080fd5b5061038f6107c9366004612c58565b611e44565b3480156107da57600080fd5b506102f960145481565b3480156107f057600080fd5b506105e87f000000000000000000000000000000000000000000000000000000000000000081565b34801561082457600080fd5b506102f960135481565b34801561083a57600080fd5b506003546004546013546012546015547f000000000000000000000000000000000000000000000000000000000000000060408051968752602087019590955293850192909252606084015260808301526001600160a01b031660a082015260c0016102da565b3480156108ad57600080fd5b50600154600254600554601154600354600454604080516001600160a01b039097168752602087019590955260ff9093161515938501939093526060840152608083019190915260a082015260c0016102da565b34801561090d57600080fd5b5061092161091c366004612866565b611fb4565b6040516102da989796959493929190612cc0565b34801561094157600080fd5b5061038f610950366004612d29565b61217b565b34801561096157600080fd5b5061038f610970366004612d4c565b612374565b34801561098157600080fd5b506102f960125481565b34801561099757600080fd5b506102f9600c5481565b3480156109ad57600080fd5b506001546105e8906001600160a01b031681565b3480156109cd57600080fd5b5061038f612458565b3480156109e257600080fd5b5061052a6109f1366004612979565b600f6020526000908152604090205460ff1681565b600d6020526000908152604090208054600182015460028301805492936001600160a01b0390921692610a3890612d9a565b80601f0160208091040260200160405190810160405280929190818152602001828054610a6490612d9a565b8015610ab15780601f10610a8657610100808354040283529160200191610ab1565b820191906000526020600020905b815481529060010190602001808311610a9457829003601f168201915b505050505090806003018054610ac690612d9a565b80601f0160208091040260200160405190810160405280929190818152602001828054610af290612d9a565b8015610b3f5780601f10610b1457610100808354040283529160200191610b3f565b820191906000526020600020905b815481529060010190602001808311610b2257829003601f168201915b505050505090806004018054610b5490612d9a565b80601f0160208091040260200160405190810160405280929190818152602001828054610b8090612d9a565b8015610bcd5780601f10610ba257610100808354040283529160200191610bcd565b820191906000526020600020905b815481529060010190602001808311610bb057829003601f168201915b50505060058401546006850154600786015460088701546009880154600a9098015496979396929550909350919060ff168b565b610c096125a1565b600c548110610c2b57604051631dc0650160e31b815260040160405180910390fd5b6000818152600d602052604090206007810154421015610c5e57604051633fc30bd160e11b815260040160405180910390fd5b600a81015460ff1615610c8457604051630dc1019760e01b815260040160405180910390fd5b8060060154816005015411610cac5760405163c8c93ba360e01b815260040160405180910390fd5b600a8101805460ff191660019081179091558101546001600160a01b03166000818152600f602052604090205460ff168015610cff57506001600160a01b0381166000908152600e602052604090205483145b15610d30576001600160a01b0381166000908152600f60209081526040808320805460ff19169055600e9091528120555b610d3983601055565b6000610dd0836004018054610d4d90612d9a565b80601f0160208091040260200160405190810160405280929190818152602001828054610d7990612d9a565b8015610dc65780601f10610d9b57610100808354040283529160200191610dc6565b820191906000526020600020905b815481529060010190602001808311610da957829003601f168201915b50505050506125cb565b9050610ddd600019601055565b837faf8f9d0e884d3306a083e846741a0bc4d75908e2b0ec63b558219652ae4c1b90600183604051610e10929190612dd4565b60405180910390a2505050610e256001600055565b50565b6001600160a01b03811660009081526006602052604081205460ff16610e5057506000919050565b600a546001600160a01b038316600090815260066020526040902060030154808211610e7d576000610e87565b610e878183612e05565b949350505050565b3360009081526006602052604081205460ff16610ebf5760405163148fe22160e11b815260040160405180910390fd5b8451600003610ee1576040516319d546f160e31b815260040160405180910390fd5b8351600003610f0357604051633e61080d60e01b815260040160405180910390fd5b8251600003610f255760405163066e738d60e01b815260040160405180910390fd5b600483511015610f4857604051632d2b93ff60e01b815260040160405180910390fd5b60208301516000610f5882612696565b905080610f7857604051631c49f4d160e01b815260040160405180910390fd5b336000908152600f602052604090205460ff161561100957336000908152600e6020908152604080832054808452600d909252909120600a81015460ff16158015610fc65750806007015442105b15610fe45760405163792c310960e11b815260040160405180910390fd5b336000908152600f60209081526040808320805460ff19169055600e90915281205550505b836000819003611019575062093a805b62093a8081101561103d576040516331806aeb60e21b815260040160405180910390fd5b62278d008111156110615760405163eeeb962360e01b815260040160405180910390fd5b600c80546000918261107283612e18565b909155506000818152600d602052604090208181556001810180546001600160a01b03191633179055909150600281016110ac8b82612e81565b50600381016110bb8a82612e81565b50600481016110ca8982612e81565b506110d58342612f41565b6007808301918255426008840155546009830155600a8201805460ff19908116909155336000818152600b850160209081526040808320805486166001908117909155600c8801835281842080548716821790556005880181905560068801849055600f8352818420805490961617909455600e90528290208590559154905184917f98120a6aaa04295520ab4e01c6c1235dd316e822cc9ff31db7b3f197366d18bd91611184918f91612f54565b60405180910390a35098975050505050505050565b600080600c5484106111be57604051631dc0650160e31b815260040160405180910390fd5b50506000828152600d602090815260408083206001600160a01b0385168452600b8101835281842054600c9091019092529091205460ff91821691165b9250929050565b333014611222576040516327568d2f60e11b815260040160405180910390fd5b6001600160a01b03831661124957604051634e46966960e11b815260040160405180910390fd5b8160000361126a576040516365e52d5160e11b815260040160405180910390fd5b8147101561128b57604051631e9acf1760e31b815260040160405180910390fd5b601054600c5481106112b057604051631dc0650160e31b815260040160405180910390fd5b836001600160a01b03168160008051602061303083398151915285856040516112da929190612f76565b60405180910390a36000846001600160a01b03168460405160006040518083038185875af1925050503d806000811461132f576040519150601f19603f3d011682016040523d82523d6000602084013e611334565b606091505b5050905080611356576040516331d436c760e01b815260040160405180910390fd5b5050505050565b33301461137d576040516327568d2f60e11b815260040160405180910390fd5b6001600160a01b038216156113fb576001546001600160a01b038381169116146113fb57600060035411806113b457506000600454115b806113c157506000600b54115b156113df5760405163d38466ab60e01b815260040160405180910390fd5b600180546001600160a01b0319166001600160a01b0384161790555b801561145257600a81101561142357604051635eee050360e11b815260040160405180910390fd5b61142e600a82612fa5565b1561144c57604051636fe6a4c960e01b815260040160405180910390fd5b60028190555b6001546002546040519081526001600160a01b03909116907faf8839d80c9b3bbf95c97465eb8c8348db4098f5c15af186c3b425b1129981179060200160405180910390a25050565b3330146114bb576040516327568d2f60e11b815260040160405180910390fd5b6001600160a01b0383166114e257604051634e46966960e11b815260040160405180910390fd5b81600003611503576040516365e52d5160e11b815260040160405180910390fd5b60035482111561152657604051631c7b597b60e11b815260040160405180910390fd5b601054600c54811061154b57604051631dc0650160e31b815260040160405180910390fd5b826003600082825461155d9190612e05565b92505081905550836001600160a01b031681600080516020613030833981519152858560405161158e929190612f76565b60405180910390a36001546115ad906001600160a01b03168585612754565b50505050565b60606000805b600c54811015611610576000818152600d6020526040902060070154421080156115f557506000818152600d60205260409020600a015460ff16155b15611608578161160481612e18565b9250505b6001016115b9565b5060008167ffffffffffffffff81111561162c5761162c61299b565b604051908082528060200260200182016040528015611655578160200160208202803683370190505b5090506000805b600c548110156116d0576000818152600d60205260409020600701544210801561169857506000818152600d60205260409020600a015460ff16155b156116c8578083836116a981612e18565b9450815181106116bb576116bb612fb9565b6020026020010181815250505b60010161165c565b50909392505050565b3330146116f9576040516327568d2f60e11b815260040160405180910390fd5b6005805460ff19168215159081179091556040519081527f752d7e161ff5146f80e3820893176eb40532811e5e20400dfdde57455213706a9060200160405180910390a150565b606060008215806117515750606483115b1561176f576040516381f396b760e01b815260040160405180910390fd5b600c54841061179057505060408051600080825260208201909252906111fb565b60008367ffffffffffffffff8111156117ab576117ab61299b565b6040519080825280602002602001820160405280156117d4578160200160208202803683370190505b509050600085805b600c54811080156117ec57508683105b15611872576000818152600d60205260409020600701544210801561182357506000818152600d60205260409020600a015460ff16155b156118535780848461183481612e18565b95508151811061184657611846612fb9565b6020026020010181815250505b61185e816001612f41565b91508061186a81612e18565b9150506117dc565b5060009350600c548110156118d757805b600c548110156118d5576000818152600d6020526040902060070154421080156118bf57506000818152600d60205260409020600a015460ff16155b156118cd57600194506118d5565b600101611883565b505b8167ffffffffffffffff8111156118f0576118f061299b565b604051908082528060200260200182016040528015611919578160200160208202803683370190505b50945060005b828110156119665783818151811061193957611939612fb9565b602002602001015186828151811061195357611953612fb9565b602090810291909101015260010161191f565b505050509250929050565b60055460ff161561199557604051630eceade960e31b815260040160405180910390fd5b3033036119b557604051636edaef2f60e11b815260040160405180910390fd5b6119bd6125a1565b336000908152600660205260409020805460ff16156119ef57604051630cd9ed5560e21b815260040160405180910390fd5b60006064600254601e611a029190612fcf565b611a0c9190612fe6565b905060006064600254600a611a219190612fcf565b611a2b9190612fe6565b6002546001546040516370a0823160e01b815233600482015292935090916001600160a01b03909116906370a0823190602401602060405180830381865afa158015611a7b573d6000803e3d6000fd5b505050506040513d601f19601f82011682018060405250810190611a9f9190612ffa565b1015611abe57604051631e9acf1760e31b815260040160405180910390fd5b825460ff19166001908117845542848201554360028501556007805433600081815260086020526040812083905593820183559183527fa66cc928b5edb82af9bd49922954155ab7b0942694bea4ce44661d9a8736c6880180546001600160a01b03191690911790556011805491611b3583612e18565b909155505060075460011015611bb0576000600b5483611b559190612f41565b600754909150600090611b6a90600190612e05565b611b749083612fe6565b600754909150611b8690600190612e05565b611b909083612fa5565b600b8190555080600a6000828254611ba89190612f41565b909155505050505b600a5483600301819055508160036000828254611bcd9190612f41565b925050819055508160046000828254611be69190612f41565b925050819055508160126000828254611bff9190612f41565b925050819055508160136000828254611c189190612f41565b925050819055508160146000828254611c319190612f41565b925050819055508060156000828254611c4a9190612f41565b90915550506001546001600160a01b0316611c69813361dead866127b8565b611c7e6001600160a01b0382163330866127b8565b611c936001600160a01b0382163330866127b8565b611cc86001600160a01b038216337f0000000000000000000000000000000000000000000000000000000000000000856127b8565b336001600160a01b03167fe6d1c0e418a42a777d49c66571075fc47bc1d92e7f506007ddde08d1ff182bbc6002548586878742436001601154611d0b9190612e05565b604080519889526020890197909752958701949094526060860192909252608085015260a084015260c083015260e08201526101000160405180910390a250505050611d576001600055565b565b333014611d79576040516327568d2f60e11b815260040160405180910390fd5b6001600160a01b038116611da057604051634e46966960e11b815260040160405180910390fd5b6004546000819003611dc5576040516365e52d5160e11b815260040160405180910390fd5b60006004819055600b55600154611de6906001600160a01b03168383612754565b5050565b6001600160a01b03811660009081526006602052604081205460ff16611e1257506000919050565b506001919050565b60078181548110611e2a57600080fd5b6000918252602090912001546001600160a01b0316905081565b333014611e64576040516327568d2f60e11b815260040160405180910390fd5b6001600160a01b0384161580611e8157506001600160a01b038316155b15611e9f57604051634e46966960e11b815260040160405180910390fd5b81600003611ec0576040516365e52d5160e11b815260040160405180910390fd5b6040516370a0823160e01b815230600482015282906001600160a01b038616906370a0823190602401602060405180830381865afa158015611f06573d6000803e3d6000fd5b505050506040513d601f19601f82011682018060405250810190611f2a9190612ffa565b1015611f4957604051631e9acf1760e31b815260040160405180910390fd5b601054600c548110611f6e57604051631dc0650160e31b815260040160405180910390fd5b836001600160a01b0316816000805160206130308339815191528585604051611f98929190612f76565b60405180910390a36113566001600160a01b0386168585612754565b60006060806000806000806000600c548910611fe357604051631dc0650160e31b815260040160405180910390fd5b6000898152600d602052604090206007810154421080159061200c575080600601548160050154115b6001820154600583015460068401546007850154600a8601546002870180549698506001600160a01b0390951695600388019493929160ff16908990879061205390612d9a565b80601f016020809104026020016040519081016040528092919081815260200182805461207f90612d9a565b80156120cc5780601f106120a1576101008083540402835291602001916120cc565b820191906000526020600020905b8154815290600101906020018083116120af57829003601f168201915b505050505096508580546120df90612d9a565b80601f016020809104026020016040519081016040528092919081815260200182805461210b90612d9a565b80156121585780601f1061212d57610100808354040283529160200191612158565b820191906000526020600020905b81548152906001019060200180831161213b57829003601f168201915b505050505095509850985098509850985098509850985050919395975091939597565b3360009081526006602052604090205460ff166121ab5760405163148fe22160e11b815260040160405180910390fd5b600c5482106121cd57604051631dc0650160e31b815260040160405180910390fd5b6000828152600d60205260409020600781015442106121ff57604051637a19ed0560e01b815260040160405180910390fd5b600881015433600090815260066020526040902060010154106122355760405163f078ca7360e01b815260040160405180910390fd5b336000908152600b8201602090815260408083208054600c86019093529220805460ff198084166001179094558154861515941693909317905560ff9081169116816122b65783156122a15760018360050160008282546122969190612f41565b9091555061232f9050565b60018360060160008282546122969190612f41565b8315158115151461232f5780156122f85760018360050160008282546122dc9190612e05565b9250508190555060018360060160008282546122969190612f41565b600183600601600082825461230d9190612e05565b9250508190555060018360050160008282546123299190612f41565b90915550505b604080518515158152426020820152339187917fcbdf6214089cba887ecbf35a0b6a734589959c9763342c756bb2a80ca2bc9f6e910160405180910390a35050505050565b333014612394576040516327568d2f60e11b815260040160405180910390fd5b6001600160a01b0382166123bb57604051634e46966960e11b815260040160405180910390fd5b6003546000036123de57604051631ab9ebab60e01b815260040160405180910390fd5b601054600c54811061240357604051631dc0650160e31b815260040160405180910390fd5b6003805460009091556040516001600160a01b038516908390600080516020613030833981519152906124399085908890612f76565b60405180910390a36001546115ad906001600160a01b03168583612754565b3360009081526006602052604090205460ff166124885760405163148fe22160e11b815260040160405180910390fd5b6124906125a1565b600061249b33610e28565b9050806000036124be576040516373380d9960e01b815260040160405180910390fd5b6000600b546004546124d09190612e05565b9050818110156124f35760405163bc6072f160e01b815260040160405180910390fd5b600a5433600090815260066020908152604080832060030193909355600990529081208054849290612526908490612f41565b92505081905550816004600082825461253f9190612e05565b909155505060015461255b906001600160a01b03163384612754565b6040805183815242602082015233917fc4e740509dbfae3377bc9925dd7bcc8aaba69cd730316216d76b2d24725c6366910160405180910390a25050611d576001600055565b6002600054036125c457604051633ee5aeb560e01b815260040160405180910390fd5b6002600055565b602081015160609060006125de82612696565b9050806125fe57604051631c49f4d160e01b815260040160405180910390fd5b600080306001600160a01b0316866040516126199190613013565b6000604051808303816000865af19150503d8060008114612656576040519150601f19603f3d011682016040523d82523d6000602084013e61265b565b606091505b50915091508161268d5780511561267457805160208201fd5b6040516331d436c760e01b815260040160405180910390fd5b95945050505050565b60006001600160e01b0319821663329b926b60e11b14806126c757506001600160e01b0319821663524ddc2360e01b145b806126e257506001600160e01b03198216635440380160e01b145b806126fd57506001600160e01b0319821663d3493ced60e01b145b8061271857506001600160e01b03198216632f0a89a160e21b145b8061273357506001600160e01b03198216632641305560e11b145b8061274e57506001600160e01b031982166326c5320f60e21b145b92915050565b6040516001600160a01b038381166024830152604482018390526127b391859182169063a9059cbb906064015b604051602081830303815290604052915060e01b6020820180516001600160e01b0383818316178352505050506127f1565b505050565b6040516001600160a01b0384811660248301528381166044830152606482018390526115ad9186918216906323b872dd90608401612781565b600080602060008451602086016000885af180612814576040513d6000823e3d81fd5b50506000513d9150811561282c578060011415612839565b6001600160a01b0384163b155b156115ad57604051635274afe760e01b81526001600160a01b038516600482015260240160405180910390fd5b60006020828403121561287857600080fd5b5035919050565b60005b8381101561289a578181015183820152602001612882565b50506000910152565b600081518084526128bb81602086016020860161287f565b601f01601f19169290920160200192915050565b8b81526001600160a01b038b166020820152610160604082018190526000906128fa8382018d6128a3565b9050828103606084015261290e818c6128a3565b90508281036080840152612922818b6128a3565b60a0840199909952505060c081019590955260e085019390935261010084019190915261012083015215156101409091015295945050505050565b80356001600160a01b038116811461297457600080fd5b919050565b60006020828403121561298b57600080fd5b6129948261295d565b9392505050565b634e487b7160e01b600052604160045260246000fd5b600067ffffffffffffffff808411156129cc576129cc61299b565b604051601f8501601f19908116603f011681019082821181831017156129f4576129f461299b565b81604052809350858152868686011115612a0d57600080fd5b858560208301376000602087830101525050509392505050565b600082601f830112612a3857600080fd5b612994838335602085016129b1565b60008060008060808587031215612a5d57600080fd5b843567ffffffffffffffff80821115612a7557600080fd5b612a8188838901612a27565b95506020870135915080821115612a9757600080fd5b612aa388838901612a27565b94506040870135915080821115612ab957600080fd5b508501601f81018713612acb57600080fd5b612ada878235602084016129b1565b949793965093946060013593505050565b60008060408385031215612afe57600080fd5b82359150612b0e6020840161295d565b90509250929050565b600080600060608486031215612b2c57600080fd5b612b358461295d565b925060208401359150604084013567ffffffffffffffff811115612b5857600080fd5b612b6486828701612a27565b9150509250925092565b60008060408385031215612b8157600080fd5b612b8a8361295d565b946020939093013593505050565b60008151808452602080850194506020840160005b83811015612bc957815187529582019590820190600101612bad565b509495945050505050565b6020815260006129946020830184612b98565b8035801515811461297457600080fd5b600060208284031215612c0957600080fd5b61299482612be7565b60008060408385031215612c2557600080fd5b50508035926020909101359150565b604081526000612c476040830185612b98565b905082151560208301529392505050565b60008060008060808587031215612c6e57600080fd5b612c778561295d565b9350612c856020860161295d565b925060408501359150606085013567ffffffffffffffff811115612ca857600080fd5b612cb487828801612a27565b91505092959194509250565b6001600160a01b038916815261010060208201819052600090612ce58382018b6128a3565b90508281036040840152612cf9818a6128a3565b60608401989098525050608081019490945260a0840192909252151560c0830152151560e0909101529392505050565b60008060408385031215612d3c57600080fd5b82359150612b0e60208401612be7565b60008060408385031215612d5f57600080fd5b612d688361295d565b9150602083013567ffffffffffffffff811115612d8457600080fd5b612d9085828601612a27565b9150509250929050565b600181811c90821680612dae57607f821691505b602082108103612dce57634e487b7160e01b600052602260045260246000fd5b50919050565b8215158152604060208201526000610e8760408301846128a3565b634e487b7160e01b600052601160045260246000fd5b8181038181111561274e5761274e612def565b600060018201612e2a57612e2a612def565b5060010190565b601f8211156127b3576000816000526020600020601f850160051c81016020861015612e5a5750805b601f850160051c820191505b81811015612e7957828155600101612e66565b505050505050565b815167ffffffffffffffff811115612e9b57612e9b61299b565b612eaf81612ea98454612d9a565b84612e31565b602080601f831160018114612ee45760008415612ecc5750858301515b600019600386901b1c1916600185901b178555612e79565b600085815260208120601f198616915b82811015612f1357888601518255948401946001909101908401612ef4565b5085821015612f315787850151600019600388901b60f8161c191681555b5050505050600190811b01905550565b8082018082111561274e5761274e612def565b604081526000612f6760408301856128a3565b90508260208301529392505050565b828152604060208201526000610e8760408301846128a3565b634e487b7160e01b600052601260045260246000fd5b600082612fb457612fb4612f8f565b500690565b634e487b7160e01b600052603260045260246000fd5b808202811582820484141761274e5761274e612def565b600082612ff557612ff5612f8f565b500490565b60006020828403121561300c57600080fd5b5051919050565b6000825161302581846020870161287f565b919091019291505056fe1ba011ee074f0e08cc727335f32d75fb7ee71dc0a1e13bb9473e5650b0afd1a3a2646970667358221220b7f5c7f8a3b54cba663b5bd4acb942dadb82029f79074434f4006bbd5ea371bf64736f6c63430008170033",
  "linkReferences": {},
  "deployedLinkReferences": {}
}