{
  "_format": "hh-sol-artifact-1",
  "contractName": "TEMPL",
  "sourceName": "contracts/TEMPL.sol",
  "abi": [
    {
      "inputs": [
        {
          "internalType": "address",
          "name": "_priest",
          "type": "address"
        },
        {
          "internalType": "address",
          "name": "_protocolFeeRecipient",
          "type": "address"
        },
        {
          "internalType": "address",
          "name": "_token",
          "type": "address"
        },
        {
          "internalType": "uint256",
          "name": "_entryFee",
          "type": "uint256"
        },
        {
          "internalType": "uint256",
          "name": "_priestVoteWeight",
          "type": "uint256"
        },
        {
          "internalType": "uint256",
          "name": "_priestWeightThreshold",
          "type": "uint256"
        }
      ],
      "stateMutability": "nonpayable",
      "type": "constructor"
    },
    {
      "inputs": [],
      "name": "ActiveProposalExists",
      "type": "error"
    },
    {
      "inputs": [],
      "name": "AlreadyExecuted",
      "type": "error"
    },
    {
      "inputs": [],
      "name": "AlreadyPurchased",
      "type": "error"
    },
    {
      "inputs": [],
      "name": "AlreadyVoted",
      "type": "error"
    },
    {
      "inputs": [],
      "name": "AmountZero",
      "type": "error"
    },
    {
      "inputs": [],
      "name": "CallDataRequired",
      "type": "error"
    },
    {
      "inputs": [],
      "name": "CallDataTooShort",
      "type": "error"
    },
    {
      "inputs": [],
      "name": "ContractPausedError",
      "type": "error"
    },
    {
      "inputs": [],
      "name": "DescriptionRequired",
      "type": "error"
    },
    {
      "inputs": [],
      "name": "EntryFeeTooSmall",
      "type": "error"
    },
    {
      "inputs": [],
      "name": "ExternalCallFailed",
      "type": "error"
    },
    {
      "inputs": [],
      "name": "InsufficientBalance",
      "type": "error"
    },
    {
      "inputs": [],
      "name": "InsufficientPoolBalance",
      "type": "error"
    },
    {
      "inputs": [],
      "name": "InsufficientTreasuryBalance",
      "type": "error"
    },
    {
      "inputs": [],
      "name": "InvalidEntryFee",
      "type": "error"
    },
    {
      "inputs": [],
      "name": "InvalidProposal",
      "type": "error"
    },
    {
      "inputs": [],
      "name": "InvalidRecipient",
      "type": "error"
    },
    {
      "inputs": [],
      "name": "InvalidSender",
      "type": "error"
    },
    {
      "inputs": [],
      "name": "InvalidTarget",
      "type": "error"
    },
    {
      "inputs": [],
      "name": "JoinedAfterProposal",
      "type": "error"
    },
    {
      "inputs": [],
      "name": "LimitOutOfRange",
      "type": "error"
    },
    {
      "inputs": [],
      "name": "NoRewardsToClaim",
      "type": "error"
    },
    {
      "inputs": [],
      "name": "NoTreasuryFunds",
      "type": "error"
    },
    {
      "inputs": [],
      "name": "NonZeroBalances",
      "type": "error"
    },
    {
      "inputs": [],
      "name": "NotDAO",
      "type": "error"
    },
    {
      "inputs": [],
      "name": "NotMember",
      "type": "error"
    },
    {
      "inputs": [],
      "name": "ProposalExecutionFailed",
      "type": "error"
    },
    {
      "inputs": [],
      "name": "ProposalNotPassed",
      "type": "error"
    },
    {
      "inputs": [],
      "name": "ReentrantCall",
      "type": "error"
    },
    {
      "inputs": [
        {
          "internalType": "address",
          "name": "token",
          "type": "address"
        }
      ],
      "name": "SafeERC20FailedOperation",
      "type": "error"
    },
    {
      "inputs": [],
      "name": "TitleRequired",
      "type": "error"
    },
    {
      "inputs": [],
      "name": "VotingEnded",
      "type": "error"
    },
    {
      "inputs": [],
      "name": "VotingNotEnded",
      "type": "error"
    },
    {
      "inputs": [],
      "name": "VotingPeriodTooLong",
      "type": "error"
    },
    {
      "inputs": [],
      "name": "VotingPeriodTooShort",
      "type": "error"
    },
    {
      "anonymous": false,
      "inputs": [
        {
          "indexed": true,
          "internalType": "address",
          "name": "purchaser",
          "type": "address"
        },
        {
          "indexed": false,
          "internalType": "uint256",
          "name": "totalAmount",
          "type": "uint256"
        },
        {
          "indexed": false,
          "internalType": "uint256",
          "name": "burnedAmount",
          "type": "uint256"
        },
        {
          "indexed": false,
          "internalType": "uint256",
          "name": "treasuryAmount",
          "type": "uint256"
        },
        {
          "indexed": false,
          "internalType": "uint256",
          "name": "memberPoolAmount",
          "type": "uint256"
        },
        {
          "indexed": false,
          "internalType": "uint256",
          "name": "protocolAmount",
          "type": "uint256"
        },
        {
          "indexed": false,
          "internalType": "uint256",
          "name": "timestamp",
          "type": "uint256"
        },
        {
          "indexed": false,
          "internalType": "uint256",
          "name": "blockNumber",
          "type": "uint256"
        },
        {
          "indexed": false,
          "internalType": "uint256",
          "name": "purchaseId",
          "type": "uint256"
        }
      ],
      "name": "AccessPurchased",
      "type": "event"
    },
    {
      "anonymous": false,
      "inputs": [
        {
          "indexed": true,
          "internalType": "address",
          "name": "token",
          "type": "address"
        },
        {
          "indexed": false,
          "internalType": "uint256",
          "name": "entryFee",
          "type": "uint256"
        }
      ],
      "name": "ConfigUpdated",
      "type": "event"
    },
    {
      "anonymous": false,
      "inputs": [
        {
          "indexed": false,
          "internalType": "bool",
          "name": "isPaused",
          "type": "bool"
        }
      ],
      "name": "ContractPaused",
      "type": "event"
    },
    {
      "anonymous": false,
      "inputs": [
        {
          "indexed": true,
          "internalType": "address",
          "name": "target",
          "type": "address"
        },
        {
          "indexed": false,
          "internalType": "uint256",
          "name": "value",
          "type": "uint256"
        },
        {
          "indexed": false,
          "internalType": "bytes",
          "name": "data",
          "type": "bytes"
        },
        {
          "indexed": false,
          "internalType": "bytes",
          "name": "result",
          "type": "bytes"
        }
      ],
      "name": "DAOExecuted",
      "type": "event"
    },
    {
      "anonymous": false,
      "inputs": [
        {
          "indexed": true,
          "internalType": "address",
          "name": "member",
          "type": "address"
        },
        {
          "indexed": false,
          "internalType": "uint256",
          "name": "amount",
          "type": "uint256"
        },
        {
          "indexed": false,
          "internalType": "uint256",
          "name": "timestamp",
          "type": "uint256"
        }
      ],
      "name": "MemberPoolClaimed",
      "type": "event"
    },
    {
      "anonymous": false,
      "inputs": [
        {
          "indexed": true,
          "internalType": "uint256",
          "name": "proposalId",
          "type": "uint256"
        },
        {
          "indexed": true,
          "internalType": "address",
          "name": "proposer",
          "type": "address"
        },
        {
          "indexed": false,
          "internalType": "string",
          "name": "title",
          "type": "string"
        },
        {
          "indexed": false,
          "internalType": "uint256",
          "name": "endTime",
          "type": "uint256"
        }
      ],
      "name": "ProposalCreated",
      "type": "event"
    },
    {
      "anonymous": false,
      "inputs": [
        {
          "indexed": true,
          "internalType": "uint256",
          "name": "proposalId",
          "type": "uint256"
        },
        {
          "indexed": false,
          "internalType": "bool",
          "name": "success",
          "type": "bool"
        },
        {
          "indexed": false,
          "internalType": "bytes",
          "name": "returnData",
          "type": "bytes"
        }
      ],
      "name": "ProposalExecuted",
      "type": "event"
    },
    {
      "anonymous": false,
      "inputs": [
        {
          "indexed": true,
          "internalType": "uint256",
          "name": "proposalId",
          "type": "uint256"
        },
        {
          "indexed": true,
          "internalType": "address",
          "name": "recipient",
          "type": "address"
        },
        {
          "indexed": false,
          "internalType": "uint256",
          "name": "amount",
          "type": "uint256"
        },
        {
          "indexed": false,
          "internalType": "string",
          "name": "description",
          "type": "string"
        }
      ],
      "name": "TreasuryAction",
      "type": "event"
    },
    {
      "anonymous": false,
      "inputs": [
        {
          "indexed": true,
          "internalType": "uint256",
          "name": "proposalId",
          "type": "uint256"
        },
        {
          "indexed": true,
          "internalType": "address",
          "name": "voter",
          "type": "address"
        },
        {
          "indexed": false,
          "internalType": "bool",
          "name": "support",
          "type": "bool"
        },
        {
          "indexed": false,
          "internalType": "uint256",
          "name": "timestamp",
          "type": "uint256"
        }
      ],
      "name": "VoteCast",
      "type": "event"
    },
    {
      "inputs": [],
      "name": "DEFAULT_VOTING_PERIOD",
      "outputs": [
        {
          "internalType": "uint256",
          "name": "",
          "type": "uint256"
        }
      ],
      "stateMutability": "view",
      "type": "function"
    },
    {
      "inputs": [],
      "name": "MAX_VOTING_PERIOD",
      "outputs": [
        {
          "internalType": "uint256",
          "name": "",
          "type": "uint256"
        }
      ],
      "stateMutability": "view",
      "type": "function"
    },
    {
      "inputs": [],
      "name": "MIN_VOTING_PERIOD",
      "outputs": [
        {
          "internalType": "uint256",
          "name": "",
          "type": "uint256"
        }
      ],
      "stateMutability": "view",
      "type": "function"
    },
    {
      "inputs": [],
      "name": "accessToken",
      "outputs": [
        {
          "internalType": "address",
          "name": "",
          "type": "address"
        }
      ],
      "stateMutability": "view",
      "type": "function"
    },
    {
      "inputs": [
        {
          "internalType": "address",
          "name": "",
          "type": "address"
        }
      ],
      "name": "activeProposalId",
      "outputs": [
        {
          "internalType": "uint256",
          "name": "",
          "type": "uint256"
        }
      ],
      "stateMutability": "view",
      "type": "function"
    },
    {
      "inputs": [],
      "name": "claimMemberPool",
      "outputs": [],
      "stateMutability": "nonpayable",
      "type": "function"
    },
    {
      "inputs": [
        {
          "internalType": "string",
          "name": "_title",
          "type": "string"
        },
        {
          "internalType": "string",
          "name": "_description",
          "type": "string"
        },
        {
          "internalType": "bytes",
          "name": "_callData",
          "type": "bytes"
        },
        {
          "internalType": "uint256",
          "name": "_votingPeriod",
          "type": "uint256"
        }
      ],
      "name": "createProposal",
      "outputs": [
        {
          "internalType": "uint256",
          "name": "",
          "type": "uint256"
        }
      ],
      "stateMutability": "nonpayable",
      "type": "function"
    },
    {
      "inputs": [],
      "name": "cumulativeMemberRewards",
      "outputs": [
        {
          "internalType": "uint256",
          "name": "",
          "type": "uint256"
        }
      ],
      "stateMutability": "view",
      "type": "function"
    },
    {
      "inputs": [],
      "name": "entryFee",
      "outputs": [
        {
          "internalType": "uint256",
          "name": "",
          "type": "uint256"
        }
      ],
      "stateMutability": "view",
      "type": "function"
    },
    {
      "inputs": [
        {
          "internalType": "address",
          "name": "target",
          "type": "address"
        },
        {
          "internalType": "uint256",
          "name": "value",
          "type": "uint256"
        },
        {
          "internalType": "bytes",
          "name": "data",
          "type": "bytes"
        }
      ],
      "name": "executeDAO",
      "outputs": [
        {
          "internalType": "bytes",
          "name": "",
          "type": "bytes"
        }
      ],
      "stateMutability": "nonpayable",
      "type": "function"
    },
    {
      "inputs": [
        {
          "internalType": "uint256",
          "name": "_proposalId",
          "type": "uint256"
        }
      ],
      "name": "executeProposal",
      "outputs": [],
      "stateMutability": "nonpayable",
      "type": "function"
    },
    {
      "inputs": [],
      "name": "getActiveProposals",
      "outputs": [
        {
          "internalType": "uint256[]",
          "name": "",
          "type": "uint256[]"
        }
      ],
      "stateMutability": "view",
      "type": "function"
    },
    {
      "inputs": [
        {
          "internalType": "uint256",
          "name": "offset",
          "type": "uint256"
        },
        {
          "internalType": "uint256",
          "name": "limit",
          "type": "uint256"
        }
      ],
      "name": "getActiveProposalsPaginated",
      "outputs": [
        {
          "internalType": "uint256[]",
          "name": "proposalIds",
          "type": "uint256[]"
        },
        {
          "internalType": "bool",
          "name": "hasMore",
          "type": "bool"
        }
      ],
      "stateMutability": "view",
      "type": "function"
    },
    {
      "inputs": [
        {
          "internalType": "address",
          "name": "member",
          "type": "address"
        }
      ],
      "name": "getClaimablePoolAmount",
      "outputs": [
        {
          "internalType": "uint256",
          "name": "",
          "type": "uint256"
        }
      ],
      "stateMutability": "view",
      "type": "function"
    },
    {
      "inputs": [],
      "name": "getConfig",
      "outputs": [
        {
          "internalType": "address",
          "name": "token",
          "type": "address"
        },
        {
          "internalType": "uint256",
          "name": "fee",
          "type": "uint256"
        },
        {
          "internalType": "bool",
          "name": "isPaused",
          "type": "bool"
        },
        {
          "internalType": "uint256",
          "name": "purchases",
          "type": "uint256"
        },
        {
          "internalType": "uint256",
          "name": "treasury",
          "type": "uint256"
        },
        {
          "internalType": "uint256",
          "name": "pool",
          "type": "uint256"
        }
      ],
      "stateMutability": "view",
      "type": "function"
    },
    {
      "inputs": [],
      "name": "getMemberCount",
      "outputs": [
        {
          "internalType": "uint256",
          "name": "",
          "type": "uint256"
        }
      ],
      "stateMutability": "view",
      "type": "function"
    },
    {
      "inputs": [
        {
          "internalType": "uint256",
          "name": "_proposalId",
          "type": "uint256"
        }
      ],
      "name": "getProposal",
      "outputs": [
        {
          "internalType": "address",
          "name": "proposer",
          "type": "address"
        },
        {
          "internalType": "string",
          "name": "title",
          "type": "string"
        },
        {
          "internalType": "string",
          "name": "description",
          "type": "string"
        },
        {
          "internalType": "uint256",
          "name": "yesVotes",
          "type": "uint256"
        },
        {
          "internalType": "uint256",
          "name": "noVotes",
          "type": "uint256"
        },
        {
          "internalType": "uint256",
          "name": "endTime",
          "type": "uint256"
        },
        {
          "internalType": "bool",
          "name": "executed",
          "type": "bool"
        },
        {
          "internalType": "bool",
          "name": "passed",
          "type": "bool"
        }
      ],
      "stateMutability": "view",
      "type": "function"
    },
    {
      "inputs": [
        {
          "internalType": "address",
          "name": "user",
          "type": "address"
        }
      ],
      "name": "getPurchaseDetails",
      "outputs": [
        {
          "internalType": "bool",
          "name": "purchased",
          "type": "bool"
        },
        {
          "internalType": "uint256",
          "name": "timestamp",
          "type": "uint256"
        },
        {
          "internalType": "uint256",
          "name": "blockNum",
          "type": "uint256"
        }
      ],
      "stateMutability": "view",
      "type": "function"
    },
    {
      "inputs": [],
      "name": "getTreasuryInfo",
      "outputs": [
        {
          "internalType": "uint256",
          "name": "treasury",
          "type": "uint256"
        },
        {
          "internalType": "uint256",
          "name": "memberPool",
          "type": "uint256"
        },
        {
          "internalType": "uint256",
          "name": "totalReceived",
          "type": "uint256"
        },
        {
          "internalType": "uint256",
          "name": "totalBurnedAmount",
          "type": "uint256"
        },
        {
          "internalType": "uint256",
          "name": "totalProtocolFees",
          "type": "uint256"
        },
        {
          "internalType": "address",
          "name": "protocolAddress",
          "type": "address"
        }
      ],
      "stateMutability": "view",
      "type": "function"
    },
    {
      "inputs": [
        {
          "internalType": "address",
          "name": "voter",
          "type": "address"
        }
      ],
      "name": "getVoteWeight",
      "outputs": [
        {
          "internalType": "uint256",
          "name": "",
          "type": "uint256"
        }
      ],
      "stateMutability": "view",
      "type": "function"
    },
    {
      "inputs": [
        {
          "internalType": "address",
          "name": "user",
          "type": "address"
        }
      ],
      "name": "hasAccess",
      "outputs": [
        {
          "internalType": "bool",
          "name": "",
          "type": "bool"
        }
      ],
      "stateMutability": "view",
      "type": "function"
    },
    {
      "inputs": [
        {
          "internalType": "address",
          "name": "",
          "type": "address"
        }
      ],
      "name": "hasActiveProposal",
      "outputs": [
        {
          "internalType": "bool",
          "name": "",
          "type": "bool"
        }
      ],
      "stateMutability": "view",
      "type": "function"
    },
    {
      "inputs": [
        {
          "internalType": "address",
          "name": "",
          "type": "address"
        }
      ],
      "name": "hasPurchased",
      "outputs": [
        {
          "internalType": "bool",
          "name": "",
          "type": "bool"
        }
      ],
      "stateMutability": "view",
      "type": "function"
    },
    {
      "inputs": [
        {
          "internalType": "uint256",
          "name": "_proposalId",
          "type": "uint256"
        },
        {
          "internalType": "address",
          "name": "_voter",
          "type": "address"
        }
      ],
      "name": "hasVoted",
      "outputs": [
        {
          "internalType": "bool",
          "name": "voted",
          "type": "bool"
        },
        {
          "internalType": "bool",
          "name": "support",
          "type": "bool"
        }
      ],
      "stateMutability": "view",
      "type": "function"
    },
    {
      "inputs": [
        {
          "internalType": "address",
          "name": "",
          "type": "address"
        }
      ],
      "name": "memberIndex",
      "outputs": [
        {
          "internalType": "uint256",
          "name": "",
          "type": "uint256"
        }
      ],
      "stateMutability": "view",
      "type": "function"
    },
    {
      "inputs": [],
      "name": "memberPoolBalance",
      "outputs": [
        {
          "internalType": "uint256",
          "name": "",
          "type": "uint256"
        }
      ],
      "stateMutability": "view",
      "type": "function"
    },
    {
      "inputs": [
        {
          "internalType": "address",
          "name": "",
          "type": "address"
        }
      ],
      "name": "memberPoolClaims",
      "outputs": [
        {
          "internalType": "uint256",
          "name": "",
          "type": "uint256"
        }
      ],
      "stateMutability": "view",
      "type": "function"
    },
    {
      "inputs": [],
      "name": "memberRewardRemainder",
      "outputs": [
        {
          "internalType": "uint256",
          "name": "",
          "type": "uint256"
        }
      ],
      "stateMutability": "view",
      "type": "function"
    },
    {
      "inputs": [
        {
          "internalType": "address",
          "name": "",
          "type": "address"
        }
      ],
      "name": "memberRewardSnapshot",
      "outputs": [
        {
          "internalType": "uint256",
          "name": "",
          "type": "uint256"
        }
      ],
      "stateMutability": "view",
      "type": "function"
    },
    {
      "inputs": [
        {
          "internalType": "uint256",
          "name": "",
          "type": "uint256"
        }
      ],
      "name": "members",
      "outputs": [
        {
          "internalType": "address",
          "name": "",
          "type": "address"
        }
      ],
      "stateMutability": "view",
      "type": "function"
    },
    {
      "inputs": [],
      "name": "paused",
      "outputs": [
        {
          "internalType": "bool",
          "name": "",
          "type": "bool"
        }
      ],
      "stateMutability": "view",
      "type": "function"
    },
    {
      "inputs": [],
      "name": "priest",
      "outputs": [
        {
          "internalType": "address",
          "name": "",
          "type": "address"
        }
      ],
      "stateMutability": "view",
      "type": "function"
    },
    {
      "inputs": [],
      "name": "priestVoteWeight",
      "outputs": [
        {
          "internalType": "uint256",
          "name": "",
          "type": "uint256"
        }
      ],
      "stateMutability": "view",
      "type": "function"
    },
    {
      "inputs": [],
      "name": "priestWeightThreshold",
      "outputs": [
        {
          "internalType": "uint256",
          "name": "",
          "type": "uint256"
        }
      ],
      "stateMutability": "view",
      "type": "function"
    },
    {
      "inputs": [],
      "name": "proposalCount",
      "outputs": [
        {
          "internalType": "uint256",
          "name": "",
          "type": "uint256"
        }
      ],
      "stateMutability": "view",
      "type": "function"
    },
    {
      "inputs": [
        {
          "internalType": "uint256",
          "name": "",
          "type": "uint256"
        }
      ],
      "name": "proposals",
      "outputs": [
        {
          "internalType": "uint256",
          "name": "id",
          "type": "uint256"
        },
        {
          "internalType": "address",
          "name": "proposer",
          "type": "address"
        },
        {
          "internalType": "string",
          "name": "title",
          "type": "string"
        },
        {
          "internalType": "string",
          "name": "description",
          "type": "string"
        },
        {
          "internalType": "bytes",
          "name": "callData",
          "type": "bytes"
        },
        {
          "internalType": "uint256",
          "name": "yesVotes",
          "type": "uint256"
        },
        {
          "internalType": "uint256",
          "name": "noVotes",
          "type": "uint256"
        },
        {
          "internalType": "uint256",
          "name": "endTime",
          "type": "uint256"
        },
        {
          "internalType": "uint256",
          "name": "createdAt",
          "type": "uint256"
        },
        {
          "internalType": "uint256",
          "name": "eligibleVoters",
          "type": "uint256"
        },
        {
          "internalType": "bool",
          "name": "executed",
          "type": "bool"
        }
      ],
      "stateMutability": "view",
      "type": "function"
    },
    {
      "inputs": [],
      "name": "protocolFeeRecipient",
      "outputs": [
        {
          "internalType": "address",
          "name": "",
          "type": "address"
        }
      ],
      "stateMutability": "view",
      "type": "function"
    },
    {
      "inputs": [],
      "name": "purchaseAccess",
      "outputs": [],
      "stateMutability": "nonpayable",
      "type": "function"
    },
    {
      "inputs": [
        {
          "internalType": "address",
          "name": "",
          "type": "address"
        }
      ],
      "name": "purchaseBlock",
      "outputs": [
        {
          "internalType": "uint256",
          "name": "",
          "type": "uint256"
        }
      ],
      "stateMutability": "view",
      "type": "function"
    },
    {
      "inputs": [
        {
          "internalType": "address",
          "name": "",
          "type": "address"
        }
      ],
      "name": "purchaseTimestamp",
      "outputs": [
        {
          "internalType": "uint256",
          "name": "",
          "type": "uint256"
        }
      ],
      "stateMutability": "view",
      "type": "function"
    },
    {
      "inputs": [
        {
          "internalType": "bool",
          "name": "_paused",
          "type": "bool"
        }
      ],
      "name": "setPausedDAO",
      "outputs": [],
      "stateMutability": "nonpayable",
      "type": "function"
    },
    {
      "inputs": [
        {
          "internalType": "address",
          "name": "recipient",
          "type": "address"
        }
      ],
      "name": "sweepMemberRewardRemainderDAO",
      "outputs": [],
      "stateMutability": "nonpayable",
      "type": "function"
    },
    {
      "inputs": [],
      "name": "totalBurned",
      "outputs": [
        {
          "internalType": "uint256",
          "name": "",
          "type": "uint256"
        }
      ],
      "stateMutability": "view",
      "type": "function"
    },
    {
      "inputs": [],
      "name": "totalPurchases",
      "outputs": [
        {
          "internalType": "uint256",
          "name": "",
          "type": "uint256"
        }
      ],
      "stateMutability": "view",
      "type": "function"
    },
    {
      "inputs": [],
      "name": "totalToMemberPool",
      "outputs": [
        {
          "internalType": "uint256",
          "name": "",
          "type": "uint256"
        }
      ],
      "stateMutability": "view",
      "type": "function"
    },
    {
      "inputs": [],
      "name": "totalToProtocol",
      "outputs": [
        {
          "internalType": "uint256",
          "name": "",
          "type": "uint256"
        }
      ],
      "stateMutability": "view",
      "type": "function"
    },
    {
      "inputs": [],
      "name": "totalToTreasury",
      "outputs": [
        {
          "internalType": "uint256",
          "name": "",
          "type": "uint256"
        }
      ],
      "stateMutability": "view",
      "type": "function"
    },
    {
      "inputs": [],
      "name": "treasuryBalance",
      "outputs": [
        {
          "internalType": "uint256",
          "name": "",
          "type": "uint256"
        }
      ],
      "stateMutability": "view",
      "type": "function"
    },
    {
      "inputs": [
        {
          "internalType": "address",
          "name": "_token",
          "type": "address"
        },
        {
          "internalType": "uint256",
          "name": "_entryFee",
          "type": "uint256"
        }
      ],
      "name": "updateConfigDAO",
      "outputs": [],
      "stateMutability": "nonpayable",
      "type": "function"
    },
    {
      "inputs": [
        {
          "internalType": "uint256",
          "name": "_proposalId",
          "type": "uint256"
        },
        {
          "internalType": "bool",
          "name": "_support",
          "type": "bool"
        }
      ],
      "name": "vote",
      "outputs": [],
      "stateMutability": "nonpayable",
      "type": "function"
    },
    {
      "inputs": [
        {
          "internalType": "address",
          "name": "recipient",
          "type": "address"
        },
        {
          "internalType": "string",
          "name": "reason",
          "type": "string"
        }
      ],
      "name": "withdrawAllTreasuryDAO",
      "outputs": [],
      "stateMutability": "nonpayable",
      "type": "function"
    },
    {
      "inputs": [
        {
          "internalType": "address",
          "name": "recipient",
          "type": "address"
        },
        {
          "internalType": "uint256",
          "name": "amount",
          "type": "uint256"
        },
        {
          "internalType": "string",
          "name": "reason",
          "type": "string"
        }
      ],
      "name": "withdrawTreasuryDAO",
      "outputs": [],
      "stateMutability": "nonpayable",
      "type": "function"
    },
    {
      "stateMutability": "payable",
      "type": "receive"
    }
  ],
  "bytecode": "0x6101006040526000196013553480156200001857600080fd5b5060405162003430380380620034308339810160408190526200003b91620001a5565b6001600160a01b03861615806200005957506001600160a01b038516155b806200006c57506001600160a01b038416155b156200008b57604051634e46966960e11b815260040160405180910390fd5b82600003620000ad576040516365e52d5160e11b815260040160405180910390fd5b600a831015620000d057604051635eee050360e11b815260040160405180910390fd5b620000dd600a846200020b565b15620000fc57604051636fe6a4c960e01b815260040160405180910390fd5b816000036200011e576040516365e52d5160e11b815260040160405180910390fd5b8060000362000140576040516365e52d5160e11b815260040160405180910390fd5b6001600160a01b0395861660805293851660a052600180546001600160a01b0319169390951692909217845560025560c05260e0526005805460ff191690556000556200022e565b80516001600160a01b0381168114620001a057600080fd5b919050565b60008060008060008060c08789031215620001bf57600080fd5b620001ca8762000188565b9550620001da6020880162000188565b9450620001ea6040880162000188565b9350606087015192506080870151915060a087015190509295509295509295565b6000826200022957634e487b7160e01b600052601260045260246000fd5b500690565b60805160a05160c05160e051613190620002a06000396000818161047801528181611e3c015261221301526000818161099901528181611e65015261223c01526000818161064d015281816109320152611c920152600081816108af01528181611dfd01526121e601526131906000f3fe6080604052600436106103035760003560e01c80638f78bbc411610190578063c1b57edb116100dc578063c9d27afe11610095578063da35c6641161006f578063da35c66414610aa5578063e243c5fb14610abb578063f7158b2a14610adb578063ffafe4ad14610af057600080fd5b8063c9d27afe14610a4f578063d3493ced14610a6f578063d89135cd14610a8f57600080fd5b8063c1b57edb146108d1578063c233ccf1146108e7578063c293947114610914578063c34b558014610987578063c3f909d4146109bb578063c7f758a814610a1b57600080fd5b8063a51a46b911610149578063a81bbe3c11610123578063a81bbe3c1461085a578063aedfe53f146103b5578063bdb75b3414610887578063bebc8fc01461089d57600080fd5b8063a51a46b91461080d578063a64e024a14610823578063a730117e1461083a57600080fd5b80638f78bbc41461072c57806390118fb41461075a57806395a078e81461078a578063997072f7146107c357806399e288d8146107d85780639b14c83c146107ed57600080fd5b80635962a9411161024f57806364653f29116102085780636898b19c116101e25780636898b19c1461068f5780636ad18550146106a55780636d223ea4146106d257806376755118146106ff57600080fd5b806364653f29146105cd57806364df049e1461063b578063653724d61461066f57600080fd5b80635962a941146104fc57806359c266ff146105125780635c975abb146105285780635daf08ca146105525780635e391dfe1461058a5780635fa7ddf0146105b757600080fd5b806332d084bb116102bc5780634c78afc8116102965780634c78afc814610466578063524ddc231461049a57806354403801146104ba5780635584c4f9146104da57600080fd5b806332d084bb146103e25780633dd3527914610402578063438596321461042f57600080fd5b8063013cf08b1461030f578063072ea61c1461034f5780630d61b519146103735780631808022a14610395578063215809ca146103b5578063313dab20146103cc57600080fd5b3661030a57005b600080fd5b34801561031b57600080fd5b5061032f61032a366004612900565b610b20565b6040516103469b9a99989796959493929190612969565b60405180910390f35b34801561035b57600080fd5b5061036560025481565b604051908152602001610346565b34801561037f57600080fd5b5061039361038e366004612900565b610d1b565b005b3480156103a157600080fd5b506103656103b0366004612a0f565b610f5d565b3480156103c157600080fd5b5061036562093a8081565b3480156103d857600080fd5b5061036560035481565b3480156103ee57600080fd5b506103656103fd366004612af8565b610fc1565b34801561040e57600080fd5b5061036561041d366004612a0f565b600a6020526000908152604090205481565b34801561043b57600080fd5b5061044f61044a366004612b88565b611277565b604080519215158352901515602083015201610346565b34801561047257600080fd5b506103657f000000000000000000000000000000000000000000000000000000000000000081565b3480156104a657600080fd5b506103936104b5366004612bb8565b6112e0565b3480156104c657600080fd5b506103936104d5366004612be4565b611411565b3480156104e657600080fd5b506104ef61153b565b6040516103469190612c79565b34801561050857600080fd5b5061036560145481565b34801561051e57600080fd5b5061036560185481565b34801561053457600080fd5b506005546105429060ff1681565b6040519015158152602001610346565b34801561055e57600080fd5b5061057261056d366004612900565b611661565b6040516001600160a01b039091168152602001610346565b34801561059657600080fd5b506103656105a5366004612a0f565b60086020526000908152604090205481565b3480156105c357600080fd5b5061036560045481565b3480156105d957600080fd5b5061061e6105e8366004612a0f565b6001600160a01b03166000908152600660209081526040808320546007835281842054600890935292205460ff90921692909190565b604080519315158452602084019290925290820152606001610346565b34801561064757600080fd5b506105727f000000000000000000000000000000000000000000000000000000000000000081565b34801561067b57600080fd5b5061039361068a366004612ca1565b61168b565b34801561069b57600080fd5b50610365600c5481565b3480156106b157600080fd5b506103656106c0366004612a0f565b60116020526000908152604090205481565b3480156106de57600080fd5b506103656106ed366004612a0f565b600e6020526000908152604090205481565b34801561070b57600080fd5b5061036561071a366004612a0f565b60076020526000908152604090205481565b34801561073857600080fd5b5061074c610747366004612cbc565b6116f2565b604051610346929190612cde565b34801561076657600080fd5b50610542610775366004612a0f565b60066020526000908152604090205460ff1681565b34801561079657600080fd5b506105426107a5366004612a0f565b6001600160a01b031660009081526006602052604090205460ff1690565b3480156107cf57600080fd5b50600954610365565b3480156107e457600080fd5b50610393611923565b3480156107f957600080fd5b50610393610808366004612a0f565b611d42565b34801561081957600080fd5b50610365600d5481565b34801561082f57600080fd5b5061036562278d0081565b34801561084657600080fd5b50610365610855366004612a0f565b611dd3565b34801561086657600080fd5b50610365610875366004612a0f565b600b6020526000908152604090205481565b34801561089357600080fd5b5061036560175481565b3480156108a957600080fd5b506105727f000000000000000000000000000000000000000000000000000000000000000081565b3480156108dd57600080fd5b5061036560165481565b3480156108f357600080fd5b50610907610902366004612be4565b611e91565b6040516103469190612d02565b34801561092057600080fd5b506003546004546016546015546018547f000000000000000000000000000000000000000000000000000000000000000060408051968752602087019590955293850192909252606084015260808301526001600160a01b031660a082015260c001610346565b34801561099357600080fd5b506103657f000000000000000000000000000000000000000000000000000000000000000081565b3480156109c757600080fd5b50600154600254600554601454600354600454604080516001600160a01b039097168752602087019590955260ff9093161515938501939093526060840152608083019190915260a082015260c001610346565b348015610a2757600080fd5b50610a3b610a36366004612900565b611ef3565b604051610346989796959493929190612d15565b348015610a5b57600080fd5b50610393610a6a366004612d7e565b6120ba565b348015610a7b57600080fd5b50610393610a8a366004612daa565b6122df565b348015610a9b57600080fd5b5061036560155481565b348015610ab157600080fd5b50610365600f5481565b348015610ac757600080fd5b50600154610572906001600160a01b031681565b348015610ae757600080fd5b506103936123d5565b348015610afc57600080fd5b50610542610b0b366004612a0f565b60126020526000908152604090205460ff1681565b60106020526000908152604090208054600182015460028301805492936001600160a01b0390921692610b5290612dfa565b80601f0160208091040260200160405190810160405280929190818152602001828054610b7e90612dfa565b8015610bcb5780601f10610ba057610100808354040283529160200191610bcb565b820191906000526020600020905b815481529060010190602001808311610bae57829003601f168201915b505050505090806003018054610be090612dfa565b80601f0160208091040260200160405190810160405280929190818152602001828054610c0c90612dfa565b8015610c595780601f10610c2e57610100808354040283529160200191610c59565b820191906000526020600020905b815481529060010190602001808311610c3c57829003601f168201915b505050505090806004018054610c6e90612dfa565b80601f0160208091040260200160405190810160405280929190818152602001828054610c9a90612dfa565b8015610ce75780601f10610cbc57610100808354040283529160200191610ce7565b820191906000526020600020905b815481529060010190602001808311610cca57829003601f168201915b50505060058401546006850154600786015460088701546009880154600a9098015496979396929550909350919060ff168b565b600260005403610d3e576040516306fda65d60e31b815260040160405180910390fd5b6002600055600f548110610d6557604051631dc0650160e31b815260040160405180910390fd5b60008181526010602052604090206007810154421015610d9857604051633fc30bd160e11b815260040160405180910390fd5b600a81015460ff1615610dbe57604051630dc1019760e01b815260040160405180910390fd5b8060060154816005015411610de65760405163c8c93ba360e01b815260040160405180910390fd5b600a8101805460ff191660019081179091558101546001600160a01b031660008181526012602052604090205460ff168015610e3957506001600160a01b03811660009081526011602052604090205483145b15610e6a576001600160a01b0381166000908152601260209081526040808320805460ff1916905560119091528120555b610e7383601355565b6000610f0a836004018054610e8790612dfa565b80601f0160208091040260200160405190810160405280929190818152602001828054610eb390612dfa565b8015610f005780601f10610ed557610100808354040283529160200191610f00565b820191906000526020600020905b815481529060010190602001808311610ee357829003601f168201915b5050505050612538565b9050610f17600019601355565b837faf8f9d0e884d3306a083e846741a0bc4d75908e2b0ec63b558219652ae4c1b90600183604051610f4a929190612e2e565b60405180910390a2505060016000555050565b6001600160a01b03811660009081526006602052604081205460ff16610f8557506000919050565b600c546001600160a01b0383166000908152600e6020526040902054808211610faf576000610fb9565b610fb98183612e5f565b949350505050565b3360009081526006602052604081205460ff16610ff15760405163148fe22160e11b815260040160405180910390fd5b8451600003611013576040516319d546f160e31b815260040160405180910390fd5b835160000361103557604051633e61080d60e01b815260040160405180910390fd5b82516000036110575760405163066e738d60e01b815260040160405180910390fd5b60048351101561107a57604051632d2b93ff60e01b815260040160405180910390fd5b3360009081526012602052604090205460ff161561110b57336000908152601160209081526040808320548084526010909252909120600a81015460ff161580156110c85750806007015442105b156110e65760405163792c310960e11b815260040160405180910390fd5b336000908152601260209081526040808320805460ff19169055601190915281205550505b81600081900361111b575062093a805b62093a8081101561113f576040516331806aeb60e21b815260040160405180910390fd5b62278d008111156111635760405163eeeb962360e01b815260040160405180910390fd5b600f80546000918261117483612e78565b9091555060008181526010602052604090208181556001810180546001600160a01b03191633179055909150600281016111ae8982612ee1565b50600381016111bd8882612ee1565b50600481016111cc8782612ee1565b506111d78342612fa1565b600782019081554260088301556009805490830155600a8201805460ff199081169091556000600584018190556006840181905533808252601260209081526040808420805490951660011790945560119052908290208590559154905184917f98120a6aaa04295520ab4e01c6c1235dd316e822cc9ff31db7b3f197366d18bd91611264918d91612fb4565b60405180910390a3509695505050505050565b600080600f54841061129c57604051631dc0650160e31b815260040160405180910390fd5b505060008281526010602090815260408083206001600160a01b0385168452600b8101835281842054600c9091019092529091205460ff91821691165b9250929050565b333014611300576040516327568d2f60e11b815260040160405180910390fd5b6001600160a01b03821615611371576001546001600160a01b03838116911614611371576000600354118061133757506000600454115b156113555760405163d38466ab60e01b815260040160405180910390fd5b600180546001600160a01b0319166001600160a01b0384161790555b80156113c857600a81101561139957604051635eee050360e11b815260040160405180910390fd5b6113a4600a82612fec565b156113c257604051636fe6a4c960e01b815260040160405180910390fd5b60028190555b6001546002546040519081526001600160a01b03909116907faf8839d80c9b3bbf95c97465eb8c8348db4098f5c15af186c3b425b1129981179060200160405180910390a25050565b333014611431576040516327568d2f60e11b815260040160405180910390fd5b6001600160a01b03831661145857604051634e46966960e11b815260040160405180910390fd5b81600003611479576040516365e52d5160e11b815260040160405180910390fd5b60035482111561149c57604051631c7b597b60e11b815260040160405180910390fd5b601354600f5481106114c157604051631dc0650160e31b815260040160405180910390fd5b82600360008282546114d39190612e5f565b92505081905550836001600160a01b0316817f1ba011ee074f0e08cc727335f32d75fb7ee71dc0a1e13bb9473e5650b0afd1a38585604051611516929190613000565b60405180910390a3600154611535906001600160a01b031685856126dc565b50505050565b60606000805b600f54811015611598576000818152601060205260409020600701544210801561157d57506000818152601060205260409020600a015460ff16155b15611590578161158c81612e78565b9250505b600101611541565b5060008167ffffffffffffffff8111156115b4576115b4612a33565b6040519080825280602002602001820160405280156115dd578160200160208202803683370190505b5090506000805b600f54811015611658576000818152601060205260409020600701544210801561162057506000818152601060205260409020600a015460ff16155b156116505780838361163181612e78565b94508151811061164357611643613019565b6020026020010181815250505b6001016115e4565b50909392505050565b6009818154811061167157600080fd5b6000918252602090912001546001600160a01b0316905081565b3330146116ab576040516327568d2f60e11b815260040160405180910390fd5b6005805460ff19168215159081179091556040519081527f752d7e161ff5146f80e3820893176eb40532811e5e20400dfdde57455213706a9060200160405180910390a150565b606060008215806117035750606483115b15611721576040516381f396b760e01b815260040160405180910390fd5b600f54841061174257505060408051600080825260208201909252906112d9565b60008367ffffffffffffffff81111561175d5761175d612a33565b604051908082528060200260200182016040528015611786578160200160208202803683370190505b509050600085805b600f548110801561179e57508683105b1561182457600081815260106020526040902060070154421080156117d557506000818152601060205260409020600a015460ff16155b15611805578084846117e681612e78565b9550815181106117f8576117f8613019565b6020026020010181815250505b611810816001612fa1565b91508061181c81612e78565b91505061178e565b5060009350600f5481101561188957805b600f54811015611887576000818152601060205260409020600701544210801561187157506000818152601060205260409020600a015460ff16155b1561187f5760019450611887565b600101611835565b505b8167ffffffffffffffff8111156118a2576118a2612a33565b6040519080825280602002602001820160405280156118cb578160200160208202803683370190505b50945060005b82811015611918578381815181106118eb576118eb613019565b602002602001015186828151811061190557611905613019565b60209081029190910101526001016118d1565b505050509250929050565b60055460ff161561194757604051630eceade960e31b815260040160405180910390fd5b30330361196757604051636edaef2f60e11b815260040160405180910390fd5b60026000540361198a576040516306fda65d60e31b815260040160405180910390fd5b600260009081553381526006602052604090205460ff16156119bf57604051630cd9ed5560e21b815260040160405180910390fd5b60006064600254601e6119d2919061302f565b6119dc9190613046565b905060006064600254600a6119f1919061302f565b6119fb9190613046565b6002546001546040516370a0823160e01b815233600482015292935090916001600160a01b03909116906370a0823190602401602060405180830381865afa158015611a4b573d6000803e3d6000fd5b505050506040513d601f19601f82011682018060405250810190611a6f919061305a565b1015611a8e57604051631e9acf1760e31b815260040160405180910390fd5b336000818152600660209081526040808320805460ff19166001908117909155600783528184204290556008835281842043905560098054600a9094529184208390558201815582527f6e1540171b6c0c960b71a7020d9f60077f6af931a8bbf590da0223dacf75c7af0180546001600160a01b0319169092179091556014805491611b1983612e78565b909155505060095460011015611b94576000600d5483611b399190612fa1565b600954909150600090611b4e90600190612e5f565b611b589083613046565b600954909150611b6a90600190612e5f565b611b749083612fec565b600d8190555080600c6000828254611b8c9190612fa1565b909155505050505b600c54336000908152600e602052604081209190915560038054849290611bbc908490612fa1565b925050819055508160046000828254611bd59190612fa1565b925050819055508160156000828254611bee9190612fa1565b925050819055508160166000828254611c079190612fa1565b925050819055508160176000828254611c209190612fa1565b925050819055508060186000828254611c399190612fa1565b90915550506001546001600160a01b0316611c58813361dead86612740565b611c6d6001600160a01b038216333086612740565b611c826001600160a01b038216333086612740565b611cb76001600160a01b038216337f000000000000000000000000000000000000000000000000000000000000000085612740565b336001600160a01b03167fe6d1c0e418a42a777d49c66571075fc47bc1d92e7f506007ddde08d1ff182bbc6002548586878742436001601454611cfa9190612e5f565b604080519889526020890197909752958701949094526060860192909252608085015260a084015260c083015260e08201526101000160405180910390a25050600160005550565b333014611d62576040516327568d2f60e11b815260040160405180910390fd5b6001600160a01b038116611d8957604051634e46966960e11b815260040160405180910390fd5b6004546000819003611dae576040516365e52d5160e11b815260040160405180910390fd5b60006004819055600d55600154611dcf906001600160a01b031683836126dc565b5050565b6001600160a01b03811660009081526006602052604081205460ff16611dfb57506000919050565b7f00000000000000000000000000000000000000000000000000000000000000006001600160a01b0316826001600160a01b0316148015611e5d57506009547f0000000000000000000000000000000000000000000000000000000000000000115b15611e8957507f0000000000000000000000000000000000000000000000000000000000000000919050565b506001919050565b6060333014611eb3576040516327568d2f60e11b815260040160405180910390fd5b600260005403611ed6576040516306fda65d60e31b815260040160405180910390fd5b6002600055611ee6848484612779565b6001600055949350505050565b60006060806000806000806000600f548910611f2257604051631dc0650160e31b815260040160405180910390fd5b600089815260106020526040902060078101544210801590611f4b575080600601548160050154115b6001820154600583015460068401546007850154600a8601546002870180549698506001600160a01b0390951695600388019493929160ff169089908790611f9290612dfa565b80601f0160208091040260200160405190810160405280929190818152602001828054611fbe90612dfa565b801561200b5780601f10611fe05761010080835404028352916020019161200b565b820191906000526020600020905b815481529060010190602001808311611fee57829003601f168201915b5050505050965085805461201e90612dfa565b80601f016020809104026020016040519081016040528092919081815260200182805461204a90612dfa565b80156120975780601f1061206c57610100808354040283529160200191612097565b820191906000526020600020905b81548152906001019060200180831161207a57829003601f168201915b505050505095509850985098509850985098509850985050919395975091939597565b3360009081526006602052604090205460ff166120ea5760405163148fe22160e11b815260040160405180910390fd5b600f54821061210c57604051631dc0650160e31b815260040160405180910390fd5b60008281526010602052604090206007810154421061213e57604051637a19ed0560e01b815260040160405180910390fd5b336000908152600b8201602052604090205460ff161561217157604051637c9a1cf960e01b815260040160405180910390fd5b600881015433600090815260076020526040902054106121a45760405163f078ca7360e01b815260040160405180910390fd5b336000818152600b8301602090815260408083208054600160ff199182168117909255600c870190935292208054909116851515179055906001600160a01b037f00000000000000000000000000000000000000000000000000000000000000001614801561223457506009547f0000000000000000000000000000000000000000000000000000000000000000115b1561225c57507f00000000000000000000000000000000000000000000000000000000000000005b821561228157808260050160008282546122769190612fa1565b9091555061229b9050565b808260060160008282546122959190612fa1565b90915550505b604080518415158152426020820152339186917fcbdf6214089cba887ecbf35a0b6a734589959c9763342c756bb2a80ca2bc9f6e910160405180910390a350505050565b3330146122ff576040516327568d2f60e11b815260040160405180910390fd5b6001600160a01b03821661232657604051634e46966960e11b815260040160405180910390fd5b60035460000361234957604051631ab9ebab60e01b815260040160405180910390fd5b601354600f54811061236e57604051631dc0650160e31b815260040160405180910390fd5b6003805460009091556040516001600160a01b0385169083907f1ba011ee074f0e08cc727335f32d75fb7ee71dc0a1e13bb9473e5650b0afd1a3906123b69085908890613000565b60405180910390a3600154611535906001600160a01b031685836126dc565b3360009081526006602052604090205460ff166124055760405163148fe22160e11b815260040160405180910390fd5b600260005403612428576040516306fda65d60e31b815260040160405180910390fd5b6002600090815561243833610f5d565b90508060000361245b576040516373380d9960e01b815260040160405180910390fd5b6000600d5460045461246d9190612e5f565b9050818110156124905760405163bc6072f160e01b815260040160405180910390fd5b600c54336000908152600e6020908152604080832093909355600b905290812080548492906124c0908490612fa1565b9250508190555081600460008282546124d99190612e5f565b90915550506001546124f5906001600160a01b031633846126dc565b6040805183815242602082015233917fc4e740509dbfae3377bc9925dd7bcc8aaba69cd730316216d76b2d24725c6366910160405180910390a250506001600055565b6020810151606090633dcc330f60e01b6001600160e01b0319821601612647576000600484516125689190612e5f565b67ffffffffffffffff81111561258057612580612a33565b6040519080825280601f01601f1916602001820160405280156125aa576020820181803683370190505b50905060005b815181101561261157846125c5826004612fa1565b815181106125d5576125d5613019565b602001015160f81c60f81b8282815181106125f2576125f2613019565b60200101906001600160f81b031916908160001a9053506001016125b0565b5060008060008380602001905181019061262b9190613073565b92509250925061263c838383612779565b979650505050505050565b600080306001600160a01b0316856040516126629190613109565b6000604051808303816000865af19150503d806000811461269f576040519150601f19603f3d011682016040523d82523d6000602084013e6126a4565b606091505b509150915081610fb9578051156126bd57805160208201fd5b6040516331d436c760e01b815260040160405180910390fd5b50919050565b6040516001600160a01b0383811660248301526044820183905261273b91859182169063a9059cbb906064015b604051602081830303815290604052915060e01b6020820180516001600160e01b03838183161783525050505061288b565b505050565b6040516001600160a01b0384811660248301528381166044830152606482018390526115359186918216906323b872dd90608401612709565b60606001600160a01b038416158061279e57506001546001600160a01b038581169116145b156127bc5760405163416aebb560e11b815260040160405180910390fd5b600080856001600160a01b031685856040516127d89190613109565b60006040518083038185875af1925050503d8060008114612815576040519150601f19603f3d011682016040523d82523d6000602084013e61281a565b606091505b50915091508161283d5760405163350c20f160e01b815260040160405180910390fd5b856001600160a01b03167f677e36e736d8a944f645e432cdb65ffeb2f8fee520798a4226ef8c1451a5679386868460405161287a93929190613125565b60405180910390a295945050505050565b600080602060008451602086016000885af1806128ae576040513d6000823e3d81fd5b50506000513d915081156128c65780600114156128d3565b6001600160a01b0384163b155b1561153557604051635274afe760e01b81526001600160a01b038516600482015260240160405180910390fd5b60006020828403121561291257600080fd5b5035919050565b60005b8381101561293457818101518382015260200161291c565b50506000910152565b60008151808452612955816020860160208601612919565b601f01601f19169290920160200192915050565b8b81526001600160a01b038b166020820152610160604082018190526000906129948382018d61293d565b905082810360608401526129a8818c61293d565b905082810360808401526129bc818b61293d565b60a0840199909952505060c081019590955260e085019390935261010084019190915261012083015215156101409091015295945050505050565b6001600160a01b0381168114612a0c57600080fd5b50565b600060208284031215612a2157600080fd5b8135612a2c816129f7565b9392505050565b634e487b7160e01b600052604160045260246000fd5b604051601f8201601f1916810167ffffffffffffffff81118282101715612a7257612a72612a33565b604052919050565b600067ffffffffffffffff821115612a9457612a94612a33565b50601f01601f191660200190565b600082601f830112612ab357600080fd5b8135612ac6612ac182612a7a565b612a49565b818152846020838601011115612adb57600080fd5b816020850160208301376000918101602001919091529392505050565b60008060008060808587031215612b0e57600080fd5b843567ffffffffffffffff80821115612b2657600080fd5b612b3288838901612aa2565b95506020870135915080821115612b4857600080fd5b612b5488838901612aa2565b94506040870135915080821115612b6a57600080fd5b50612b7787828801612aa2565b949793965093946060013593505050565b60008060408385031215612b9b57600080fd5b823591506020830135612bad816129f7565b809150509250929050565b60008060408385031215612bcb57600080fd5b8235612bd6816129f7565b946020939093013593505050565b600080600060608486031215612bf957600080fd5b8335612c04816129f7565b925060208401359150604084013567ffffffffffffffff811115612c2757600080fd5b612c3386828701612aa2565b9150509250925092565b60008151808452602080850194506020840160005b83811015612c6e57815187529582019590820190600101612c52565b509495945050505050565b602081526000612a2c6020830184612c3d565b80358015158114612c9c57600080fd5b919050565b600060208284031215612cb357600080fd5b612a2c82612c8c565b60008060408385031215612ccf57600080fd5b50508035926020909101359150565b604081526000612cf16040830185612c3d565b905082151560208301529392505050565b602081526000612a2c602083018461293d565b6001600160a01b038916815261010060208201819052600090612d3a8382018b61293d565b90508281036040840152612d4e818a61293d565b60608401989098525050608081019490945260a0840192909252151560c0830152151560e0909101529392505050565b60008060408385031215612d9157600080fd5b82359150612da160208401612c8c565b90509250929050565b60008060408385031215612dbd57600080fd5b8235612dc8816129f7565b9150602083013567ffffffffffffffff811115612de457600080fd5b612df085828601612aa2565b9150509250929050565b600181811c90821680612e0e57607f821691505b6020821081036126d657634e487b7160e01b600052602260045260246000fd5b8215158152604060208201526000610fb9604083018461293d565b634e487b7160e01b600052601160045260246000fd5b81810381811115612e7257612e72612e49565b92915050565b600060018201612e8a57612e8a612e49565b5060010190565b601f82111561273b576000816000526020600020601f850160051c81016020861015612eba5750805b601f850160051c820191505b81811015612ed957828155600101612ec6565b505050505050565b815167ffffffffffffffff811115612efb57612efb612a33565b612f0f81612f098454612dfa565b84612e91565b602080601f831160018114612f445760008415612f2c5750858301515b600019600386901b1c1916600185901b178555612ed9565b600085815260208120601f198616915b82811015612f7357888601518255948401946001909101908401612f54565b5085821015612f915787850151600019600388901b60f8161c191681555b5050505050600190811b01905550565b80820180821115612e7257612e72612e49565b604081526000612fc7604083018561293d565b90508260208301529392505050565b634e487b7160e01b600052601260045260246000fd5b600082612ffb57612ffb612fd6565b500690565b828152604060208201526000610fb9604083018461293d565b634e487b7160e01b600052603260045260246000fd5b8082028115828204841417612e7257612e72612e49565b60008261305557613055612fd6565b500490565b60006020828403121561306c57600080fd5b5051919050565b60008060006060848603121561308857600080fd5b8351613093816129f7565b60208501516040860151919450925067ffffffffffffffff8111156130b757600080fd5b8401601f810186136130c857600080fd5b80516130d6612ac182612a7a565b8181528760208385010111156130eb57600080fd5b6130fc826020830160208601612919565b8093505050509250925092565b6000825161311b818460208701612919565b9190910192915050565b83815260606020820152600061313e606083018561293d565b8281036040840152613150818561293d565b969550505050505056fea2646970667358221220eb2755a579342172d95bd06965351a62f1360746b2d229a828edfa12d263ef3564736f6c63430008170033",
  "linkReferences": {},
  "deployedLinkReferences": {}
}